{
  "transactions": [
    {
      "hash": "0xfad130b91ae4142704cb639d466bb3888eb84ffbc75190c5559b20edfe5c3896",
      "transactionType": "CALL",
      "contractName": null,
      "contractAddress": "0xb54bfe0ec75e259666b9469454eaaf48283719d6",
      "function": "addParticipant(address,bytes32)",
      "arguments": [
        "0x474B4E7FD1A143eDea6b77aa845F429D443E6410",
        "0x0000000000000000000000000000000000000000000000000000000000000001"
      ],
      "transaction": {
        "from": "0x993461bbf7e553eb5bd1f5248a72b524c4a3b15d",
        "to": "0xb54bfe0ec75e259666b9469454eaaf48283719d6",
        "gas": "0x26bfd",
        "value": "0x0",
        "input": "0xdc14ddd6000000000000000000000000474b4e7fd1a143edea6b77aa845f429d443e64100000000000000000000000000000000000000000000000000000000000000001",
        "nonce": "0x1ce",
        "chainId": "0xaa36a7"
      },
      "additionalContracts": [],
      "isFixedGasLimit": false
    },
    {
      "hash": "0xfbbf86a31fe9d9a0dc689fb3128049f87f99c4ebdd411f104b970fecf7f75272",
      "transactionType": "CALL",
      "contractName": null,
      "contractAddress": "0xb54bfe0ec75e259666b9469454eaaf48283719d6",
      "function": "addParticipant(address,bytes32)",
      "arguments": [
        "0xf68D9e0fAa751AD61e0ED70852798bF9D9C04bF7",
        "0x0000000000000000000000000000000000000000000000000000000000000002"
      ],
      "transaction": {
        "from": "0x993461bbf7e553eb5bd1f5248a72b524c4a3b15d",
        "to": "0xb54bfe0ec75e259666b9469454eaaf48283719d6",
        "gas": "0x22ec5",
        "value": "0x0",
        "input": "0xdc14ddd6000000000000000000000000f68d9e0faa751ad61e0ed70852798bf9d9c04bf70000000000000000000000000000000000000000000000000000000000000002",
        "nonce": "0x1cf",
        "chainId": "0xaa36a7"
      },
      "additionalContracts": [],
      "isFixedGasLimit": false
    }
  ],
  "receipts": [
    {
      "status": "0x1",
      "cumulativeGasUsed": "0x52173c",
      "logs": [
        {
          "address": "0xb54bfe0ec75e259666b9469454eaaf48283719d6",
          "topics": [
            "0x2b004f50e7ac5444d85967107df2a15b7b3f0a1f574684eee2a53df13607e584",
            "0x000000000000000000000000474b4e7fd1a143edea6b77aa845f429d443e6410",
            "0x0000000000000000000000000000000000000000000000000000000000000001"
          ],
          "data": "0x",
          "blockHash": "0x9691c2a6045d855e733eca786ff78b4b601c1e67aefa466ee0d0968d614f3f6a",
          "blockNumber": "0x9dcd71",
          "blockTimestamp": "0x69a07490",
          "transactionHash": "0xfad130b91ae4142704cb639d466bb3888eb84ffbc75190c5559b20edfe5c3896",
          "transactionIndex": "0x3d",
          "logIndex": "0x76",
          "removed": false
        }
      ],
      "logsBloom": "0x00000000000000000000000010000000000000000000000000000000000000000000000000000000000000000000000000000000000000000000000000040000000000000000008000008000000000040800000000040000000000000000000000400000000000000000000000000000000000000000000000000000000000000000000000000000000000000000000000000000000000000000000000000000000000000000000000000000000000000000000000000000000100080000000000000000000000000000000000000000000000000000000000000010000040000000000000000000000000000000000000000000000000000000000000000000",
      "type": "0x2",
      "transactionHash": "0xfad130b91ae4142704cb639d466bb3888eb84ffbc75190c5559b20edfe5c3896",
      "transactionIndex": "0x3d",
      "blockHash": "0x9691c2a6045d855e733eca786ff78b4b601c1e67aefa466ee0d0968d614f3f6a",
      "blockNumber": "0x9dcd71",
      "gasUsed": "0x1c0dd",
      "effectiveGasPrice": "0x158160",
      "from": "0x993461bbf7e553eb5bd1f5248a72b524c4a3b15d",
      "to": "0xb54bfe0ec75e259666b9469454eaaf48283719d6",
      "contractAddress": null
    },
    {
      "status": "0x1",
      "cumulativeGasUsed": "0x53954d",
      "logs": [
        {
          "address": "0xb54bfe0ec75e259666b9469454eaaf48283719d6",
          "topics": [
            "0x2b004f50e7ac5444d85967107df2a15b7b3f0a1f574684eee2a53df13607e584",
            "0x000000000000000000000000f68d9e0faa751ad61e0ed70852798bf9d9c04bf7",
            "0x0000000000000000000000000000000000000000000000000000000000000002"
          ],
          "data": "0x",
          "blockHash": "0x9691c2a6045d855e733eca786ff78b4b601c1e67aefa466ee0d0968d614f3f6a",
          "blockNumber": "0x9dcd71",
          "blockTimestamp": "0x69a07490",
          "transactionHash": "0xfbbf86a31fe9d9a0dc689fb3128049f87f99c4ebdd411f104b970fecf7f75272",
          "transactionIndex": "0x3e",
          "logIndex": "0x77",
          "removed": false
        }
      ],
      "logsBloom": "0x04000000000000000000000010000000000000000000000000000000000000800000000000000000000000000000000000000000000000000000000000000000000000000000008000008000000000040800000000000000000000000000000000000000000000000000000000000000000000000000000000000000000000000000000000000000000000000000000000000000000000000000000000000000000000000000000000000100000000000400000000000000000000080000000000000000000000000000000000000001000000000000000000000000000000000000000000000000000000000000000000000000008000000000000000000000",
      "type": "0x2",
      "transactionHash": "0xfbbf86a31fe9d9a0dc689fb3128049f87f99c4ebdd411f104b970fecf7f75272",
      "transactionIndex": "0x3e",
      "blockHash": "0x9691c2a6045d855e733eca786ff78b4b601c1e67aefa466ee0d0968d614f3f6a",
      "blockNumber": "0x9dcd71",
      "gasUsed": "0x17e11",
      "effectiveGasPrice": "0x158160",
      "from": "0x993461bbf7e553eb5bd1f5248a72b524c4a3b15d",
      "to": "0xb54bfe0ec75e259666b9469454eaaf48283719d6",
      "contractAddress": null
    }
  ],
  "libraries": [],
  "pending": [],
  "returns": {},
  "timestamp": 1772123280353,
  "chain": 11155111,
  "commit": "3f1d24e"
}