{
  "transactions": [
    {
      "hash": "0x43cc39dc315c46f1f9e1f2f5cf328d2f9bfacb6ce7fa27e5c0211e16ebf42846",
      "transactionType": "CALL",
      "contractName": "Whitelist",
      "contractAddress": "0xdba764b6acd813b52f43b22563b4a1719dc376e3",
      "function": "addParticipant(address,bytes32)",
      "arguments": [
        "0x474B4E7FD1A143eDea6b77aa845F429D443E6410",
        "0x0000000000000000000000000000000000000000000000000000000000000001"
      ],
      "transaction": {
        "from": "0x993461bbf7e553eb5bd1f5248a72b524c4a3b15d",
        "to": "0xdba764b6acd813b52f43b22563b4a1719dc376e3",
        "gas": "0x26bfd",
        "value": "0x0",
        "input": "0xdc14ddd6000000000000000000000000474b4e7fd1a143edea6b77aa845f429d443e64100000000000000000000000000000000000000000000000000000000000000001",
        "nonce": "0x1fc",
        "chainId": "0xaa36a7"
      },
      "additionalContracts": [],
      "isFixedGasLimit": false
    },
    {
      "hash": "0xceeaf03477ee00c1f0c684c1a29aa33cc2285403674578a5601a5b83d0ff7490",
      "transactionType": "CALL",
      "contractName": "Whitelist",
      "contractAddress": "0xdba764b6acd813b52f43b22563b4a1719dc376e3",
      "function": "addParticipant(address,bytes32)",
      "arguments": [
        "0xf68D9e0fAa751AD61e0ED70852798bF9D9C04bF7",
        "0x0000000000000000000000000000000000000000000000000000000000000002"
      ],
      "transaction": {
        "from": "0x993461bbf7e553eb5bd1f5248a72b524c4a3b15d",
        "to": "0xdba764b6acd813b52f43b22563b4a1719dc376e3",
        "gas": "0x22ec5",
        "value": "0x0",
        "input": "0xdc14ddd6000000000000000000000000f68d9e0faa751ad61e0ed70852798bf9d9c04bf70000000000000000000000000000000000000000000000000000000000000002",
        "nonce": "0x1fd",
        "chainId": "0xaa36a7"
      },
      "additionalContracts": [],
      "isFixedGasLimit": false
    }
  ],
  "receipts": [
    {
      "status": "0x1",
      "cumulativeGasUsed": "0x76c453",
      "logs": [
        {
          "address": "0xdba764b6acd813b52f43b22563b4a1719dc376e3",
          "topics": [
            "0x2b004f50e7ac5444d85967107df2a15b7b3f0a1f574684eee2a53df13607e584",
            "0x000000000000000000000000474b4e7fd1a143edea6b77aa845f429d443e6410",
            "0x0000000000000000000000000000000000000000000000000000000000000001"
          ],
          "data": "0x",
          "blockHash": "0x59744b1ab2fa1d9c5eb0c7b82e8b1d7ab773bd388353a67cdf3599a3d5e1448b",
          "blockNumber": "0x9de107",
          "blockTimestamp": "0x69a166ac",
          "transactionHash": "0x43cc39dc315c46f1f9e1f2f5cf328d2f9bfacb6ce7fa27e5c0211e16ebf42846",
          "transactionIndex": "0x57",
          "logIndex": "0x9b",
          "removed": false
        }
      ],
      "logsBloom": "0x00000000000000000000000000040000001000000000000000000000000000000000000000000000000000000000000000000000000000000000000000040000000000000000008000000000000000040000000000040000000000000000000000400000000000000000000000000000000000000000000000000000000000000000000000000000000010000000000000000000000000000000000000000000000000000000000000000000000000000000000000000000000100080000000000000000000000000000000000000000000000000000000000000010000040000000000000000000000000000000000000000000000000000000000000000000",
      "type": "0x2",
      "transactionHash": "0x43cc39dc315c46f1f9e1f2f5cf328d2f9bfacb6ce7fa27e5c0211e16ebf42846",
      "transactionIndex": "0x57",
      "blockHash": "0x59744b1ab2fa1d9c5eb0c7b82e8b1d7ab773bd388353a67cdf3599a3d5e1448b",
      "blockNumber": "0x9de107",
      "gasUsed": "0x1c0dd",
      "effectiveGasPrice": "0x25ef14",
      "from": "0x993461bbf7e553eb5bd1f5248a72b524c4a3b15d",
      "to": "0xdba764b6acd813b52f43b22563b4a1719dc376e3",
      "contractAddress": null
    },
    {
      "status": "0x1",
      "cumulativeGasUsed": "0x784264",
      "logs": [
        {
          "address": "0xdba764b6acd813b52f43b22563b4a1719dc376e3",
          "topics": [
            "0x2b004f50e7ac5444d85967107df2a15b7b3f0a1f574684eee2a53df13607e584",
            "0x000000000000000000000000f68d9e0faa751ad61e0ed70852798bf9d9c04bf7",
            "0x0000000000000000000000000000000000000000000000000000000000000002"
          ],
          "data": "0x",
          "blockHash": "0x59744b1ab2fa1d9c5eb0c7b82e8b1d7ab773bd388353a67cdf3599a3d5e1448b",
          "blockNumber": "0x9de107",
          "blockTimestamp": "0x69a166ac",
          "transactionHash": "0xceeaf03477ee00c1f0c684c1a29aa33cc2285403674578a5601a5b83d0ff7490",
          "transactionIndex": "0x58",
          "logIndex": "0x9c",
          "removed": false
        }
      ],
      "logsBloom": "0x04000000000000000000000000040000001000000000000000000000000000800000000000000000000000000000000000000000000000000000000000000000000000000000008000000000000000040000000000000000000000000000000000000000000000000000000000000000000000000000000000000000000000000000000000000000000010000000000000000000000000000000000000000000000000000000000000000100000000000400000000000000000000080000000000000000000000000000000000000001000000000000000000000000000000000000000000000000000000000000000000000000008000000000000000000000",
      "type": "0x2",
      "transactionHash": "0xceeaf03477ee00c1f0c684c1a29aa33cc2285403674578a5601a5b83d0ff7490",
      "transactionIndex": "0x58",
      "blockHash": "0x59744b1ab2fa1d9c5eb0c7b82e8b1d7ab773bd388353a67cdf3599a3d5e1448b",
      "blockNumber": "0x9de107",
      "gasUsed": "0x17e11",
      "effectiveGasPrice": "0x25ef14",
      "from": "0x993461bbf7e553eb5bd1f5248a72b524c4a3b15d",
      "to": "0xdba764b6acd813b52f43b22563b4a1719dc376e3",
      "contractAddress": null
    }
  ],
  "libraries": [],
  "pending": [],
  "returns": {},
  "timestamp": 1772185261673,
  "chain": 11155111,
  "commit": "b4be409"
}