{
  "transactions": [
    {
      "hash": "0x5ee6876cd725f6996c237d486fe80eae29bbe89fdb5157ddefee71ce559ff91b",
      "transactionType": "CALL",
      "contractName": null,
      "contractAddress": "0x319dcc67c04daa3779fb42779b13d304db03bb63",
      "function": "addParticipant(address,bytes32)",
      "arguments": [
        "0x474B4E7FD1A143eDea6b77aa845F429D443E6410",
        "0x0000000000000000000000000000000000000000000000000000000000000001"
      ],
      "transaction": {
        "from": "0x993461bbf7e553eb5bd1f5248a72b524c4a3b15d",
        "to": "0x319dcc67c04daa3779fb42779b13d304db03bb63",
        "gas": "0x26bfd",
        "value": "0x0",
        "input": "0xdc14ddd6000000000000000000000000474b4e7fd1a143edea6b77aa845f429d443e64100000000000000000000000000000000000000000000000000000000000000001",
        "nonce": "0x214",
        "chainId": "0xaa36a7"
      },
      "additionalContracts": [],
      "isFixedGasLimit": false
    },
    {
      "hash": "0x0df6df79473897bf5c77c30ea959fc300ddf2e02d84236c9286adcc0eee19f65",
      "transactionType": "CALL",
      "contractName": null,
      "contractAddress": "0x319dcc67c04daa3779fb42779b13d304db03bb63",
      "function": "addParticipant(address,bytes32)",
      "arguments": [
        "0xf68D9e0fAa751AD61e0ED70852798bF9D9C04bF7",
        "0x0000000000000000000000000000000000000000000000000000000000000002"
      ],
      "transaction": {
        "from": "0x993461bbf7e553eb5bd1f5248a72b524c4a3b15d",
        "to": "0x319dcc67c04daa3779fb42779b13d304db03bb63",
        "gas": "0x22ec5",
        "value": "0x0",
        "input": "0xdc14ddd6000000000000000000000000f68d9e0faa751ad61e0ed70852798bf9d9c04bf70000000000000000000000000000000000000000000000000000000000000002",
        "nonce": "0x215",
        "chainId": "0xaa36a7"
      },
      "additionalContracts": [],
      "isFixedGasLimit": false
    }
  ],
  "receipts": [
    {
      "status": "0x1",
      "cumulativeGasUsed": "0x110da60",
      "logs": [
        {
          "address": "0x319dcc67c04daa3779fb42779b13d304db03bb63",
          "topics": [
            "0x2b004f50e7ac5444d85967107df2a15b7b3f0a1f574684eee2a53df13607e584",
            "0x000000000000000000000000474b4e7fd1a143edea6b77aa845f429d443e6410",
            "0x0000000000000000000000000000000000000000000000000000000000000001"
          ],
          "data": "0x",
          "blockHash": "0x3a055ee0f86090a902863d7e1ea4ba1cf5e9970e0d7626540d1a065e2a3a41c8",
          "blockNumber": "0x9de152",
          "blockTimestamp": "0x69a16a6c",
          "transactionHash": "0x0df6df79473897bf5c77c30ea959fc300ddf2e02d84236c9286adcc0eee19f65",
          "transactionIndex": "0x6a",
          "logIndex": "0x173",
          "removed": false
        }
      ],
      "logsBloom": "0x00000000000000000000000000000000000000000000000000000000000000000000000000000000004000000000000000000000000000000000000000040000000000000000008000000000000000040000000000040000000000000000000000400000000000000000000000000040000000000000000000000000000000000000000000000000000000000000000000000000000000000000000000000000000000000000000000000400000000000000000000000000000100080000000000000000000000000000000000000000000000000000000000000010000040000000000000000000000000000000000000000000000000000000000000000000",
      "type": "0x2",
      "transactionHash": "0x0df6df79473897bf5c77c30ea959fc300ddf2e02d84236c9286adcc0eee19f65",
      "transactionIndex": "0x6a",
      "blockHash": "0x3a055ee0f86090a902863d7e1ea4ba1cf5e9970e0d7626540d1a065e2a3a41c8",
      "blockNumber": "0x9de152",
      "gasUsed": "0x1c0dd",
      "effectiveGasPrice": "0xf4294",
      "from": "0x993461bbf7e553eb5bd1f5248a72b524c4a3b15d",
      "to": "0x319dcc67c04daa3779fb42779b13d304db03bb63",
      "contractAddress": null
    },
    {
      "status": "0x1",
      "cumulativeGasUsed": "0x1125871",
      "logs": [
        {
          "address": "0x319dcc67c04daa3779fb42779b13d304db03bb63",
          "topics": [
            "0x2b004f50e7ac5444d85967107df2a15b7b3f0a1f574684eee2a53df13607e584",
            "0x000000000000000000000000f68d9e0faa751ad61e0ed70852798bf9d9c04bf7",
            "0x0000000000000000000000000000000000000000000000000000000000000002"
          ],
          "data": "0x",
          "blockHash": "0x3a055ee0f86090a902863d7e1ea4ba1cf5e9970e0d7626540d1a065e2a3a41c8",
          "blockNumber": "0x9de152",
          "blockTimestamp": "0x69a16a6c",
          "transactionHash": "0x5ee6876cd725f6996c237d486fe80eae29bbe89fdb5157ddefee71ce559ff91b",
          "transactionIndex": "0x6b",
          "logIndex": "0x174",
          "removed": false
        }
      ],
      "logsBloom": "0x04000000000000000000000000000000000000000000000000000000000000800000000000000000004000000000000000000000000000000000000000000000000000000000008000000000000000040000000000000000000000000000000000000000000000000000000000000040000000000000000000000000000000000000000000000000000000000000000000000000000000000000000000000000000000000000000000000500000000000400000000000000000000080000000000000000000000000000000000000001000000000000000000000000000000000000000000000000000000000000000000000000008000000000000000000000",
      "type": "0x2",
      "transactionHash": "0x5ee6876cd725f6996c237d486fe80eae29bbe89fdb5157ddefee71ce559ff91b",
      "transactionIndex": "0x6b",
      "blockHash": "0x3a055ee0f86090a902863d7e1ea4ba1cf5e9970e0d7626540d1a065e2a3a41c8",
      "blockNumber": "0x9de152",
      "gasUsed": "0x17e11",
      "effectiveGasPrice": "0xf4294",
      "from": "0x993461bbf7e553eb5bd1f5248a72b524c4a3b15d",
      "to": "0x319dcc67c04daa3779fb42779b13d304db03bb63",
      "contractAddress": null
    }
  ],
  "libraries": [],
  "pending": [],
  "returns": {},
  "timestamp": 1772186220746,
  "chain": 11155111,
  "commit": "5c0c491"
}