{
  "transactions": [
    {
      "hash": "0x6a04c94627e205caa20e7ec6aacf7bc128f4cbcd24af2afa2446f54a38d8d81a",
      "transactionType": "CALL",
      "contractName": "Whitelist",
      "contractAddress": "0x2767b19c87a9a0bbd51b97ea2cd16502d71c40d0",
      "function": "addParticipant(address,bytes32)",
      "arguments": [
        "0x474B4E7FD1A143eDea6b77aa845F429D443E6410",
        "0x0000000000000000000000000000000000000000000000000000000000000001"
      ],
      "transaction": {
        "from": "0x993461bbf7e553eb5bd1f5248a72b524c4a3b15d",
        "to": "0x2767b19c87a9a0bbd51b97ea2cd16502d71c40d0",
        "gas": "0x26bfd",
        "value": "0x0",
        "input": "0xdc14ddd6000000000000000000000000474b4e7fd1a143edea6b77aa845f429d443e64100000000000000000000000000000000000000000000000000000000000000001",
        "nonce": "0x1b6",
        "chainId": "0xaa36a7"
      },
      "additionalContracts": [],
      "isFixedGasLimit": false
    },
    {
      "hash": "0x6cde992e6b60f080986568c1d030f272155fc41836c88f38625c55fbe3387d84",
      "transactionType": "CALL",
      "contractName": "Whitelist",
      "contractAddress": "0x2767b19c87a9a0bbd51b97ea2cd16502d71c40d0",
      "function": "addParticipant(address,bytes32)",
      "arguments": [
        "0xf68D9e0fAa751AD61e0ED70852798bF9D9C04bF7",
        "0x0000000000000000000000000000000000000000000000000000000000000002"
      ],
      "transaction": {
        "from": "0x993461bbf7e553eb5bd1f5248a72b524c4a3b15d",
        "to": "0x2767b19c87a9a0bbd51b97ea2cd16502d71c40d0",
        "gas": "0x22ec5",
        "value": "0x0",
        "input": "0xdc14ddd6000000000000000000000000f68d9e0faa751ad61e0ed70852798bf9d9c04bf70000000000000000000000000000000000000000000000000000000000000002",
        "nonce": "0x1b7",
        "chainId": "0xaa36a7"
      },
      "additionalContracts": [],
      "isFixedGasLimit": false
    }
  ],
  "receipts": [
    {
      "status": "0x1",
      "cumulativeGasUsed": "0x35d38f4",
      "logs": [
        {
          "address": "0x2767b19c87a9a0bbd51b97ea2cd16502d71c40d0",
          "topics": [
            "0x2b004f50e7ac5444d85967107df2a15b7b3f0a1f574684eee2a53df13607e584",
            "0x000000000000000000000000474b4e7fd1a143edea6b77aa845f429d443e6410",
            "0x0000000000000000000000000000000000000000000000000000000000000001"
          ],
          "data": "0x",
          "blockHash": "0x3a1c6eb7c8922ffcac356a75d4c386c01b563fb4148502bae128ff8476e5fff3",
          "blockNumber": "0x9dbf31",
          "blockTimestamp": "0x699fc450",
          "transactionHash": "0x6a04c94627e205caa20e7ec6aacf7bc128f4cbcd24af2afa2446f54a38d8d81a",
          "transactionIndex": "0xa7",
          "logIndex": "0x169",
          "removed": false
        }
      ],
      "logsBloom": "0x00000000000000000000000000000000000000000000000000000000000000000000000000000000000000000000000000001000000000000000000000040000000000000000008000000000000000040000000000040000000000000000000000400000000000000000000000000000000000000000000000000000000000000000000000000000000004000000000000000000000000000000000000000000000000000000000000000000000000000000000000000000000100080000000000000000000000000000000000000000000000000000000000000010000040000000000000000000000000000200000000000000000000000000000000000000",
      "type": "0x2",
      "transactionHash": "0x6a04c94627e205caa20e7ec6aacf7bc128f4cbcd24af2afa2446f54a38d8d81a",
      "transactionIndex": "0xa7",
      "blockHash": "0x3a1c6eb7c8922ffcac356a75d4c386c01b563fb4148502bae128ff8476e5fff3",
      "blockNumber": "0x9dbf31",
      "gasUsed": "0x1c0dd",
      "effectiveGasPrice": "0xf425d",
      "from": "0x993461bbf7e553eb5bd1f5248a72b524c4a3b15d",
      "to": "0x2767b19c87a9a0bbd51b97ea2cd16502d71c40d0",
      "contractAddress": null
    },
    {
      "status": "0x1",
      "cumulativeGasUsed": "0x35eb705",
      "logs": [
        {
          "address": "0x2767b19c87a9a0bbd51b97ea2cd16502d71c40d0",
          "topics": [
            "0x2b004f50e7ac5444d85967107df2a15b7b3f0a1f574684eee2a53df13607e584",
            "0x000000000000000000000000f68d9e0faa751ad61e0ed70852798bf9d9c04bf7",
            "0x0000000000000000000000000000000000000000000000000000000000000002"
          ],
          "data": "0x",
          "blockHash": "0x3a1c6eb7c8922ffcac356a75d4c386c01b563fb4148502bae128ff8476e5fff3",
          "blockNumber": "0x9dbf31",
          "blockTimestamp": "0x699fc450",
          "transactionHash": "0x6cde992e6b60f080986568c1d030f272155fc41836c88f38625c55fbe3387d84",
          "transactionIndex": "0xa8",
          "logIndex": "0x16a",
          "removed": false
        }
      ],
      "logsBloom": "0x04000000000000000000000000000000000000000000000000000000000000800000000000000000000000000000000000001000000000000000000000000000000000000000008000000000000000040000000000000000000000000000000000000000000000000000000000000000000000000000000000000000000000000000000000000000000004000000000000000000000000000000000000000000000000000000000000000100000000000400000000000000000000080000000000000000000000000000000000000001000000000000000000000000000000000000000000000000000000000200000000000000008000000000000000000000",
      "type": "0x2",
      "transactionHash": "0x6cde992e6b60f080986568c1d030f272155fc41836c88f38625c55fbe3387d84",
      "transactionIndex": "0xa8",
      "blockHash": "0x3a1c6eb7c8922ffcac356a75d4c386c01b563fb4148502bae128ff8476e5fff3",
      "blockNumber": "0x9dbf31",
      "gasUsed": "0x17e11",
      "effectiveGasPrice": "0xf425d",
      "from": "0x993461bbf7e553eb5bd1f5248a72b524c4a3b15d",
      "to": "0x2767b19c87a9a0bbd51b97ea2cd16502d71c40d0",
      "contractAddress": null
    }
  ],
  "libraries": [],
  "pending": [],
  "returns": {},
  "timestamp": 1772078161738,
  "chain": 11155111,
  "commit": "64837c5"
}