{
  "transactions": [
    {
      "hash": "0x120105387954910a18ebd7c71440ead8dc184c816b133db17d4587d70b3064f0",
      "transactionType": "CALL",
      "contractName": "Whitelist",
      "contractAddress": "0xe4dabcb6e10fed7cc833b714490d2e2bb0510a18",
      "function": "addParticipant(address,bytes32)",
      "arguments": [
        "0x474B4E7FD1A143eDea6b77aa845F429D443E6410",
        "0x0000000000000000000000000000000000000000000000000000000000000001"
      ],
      "transaction": {
        "from": "0x993461bbf7e553eb5bd1f5248a72b524c4a3b15d",
        "to": "0xe4dabcb6e10fed7cc833b714490d2e2bb0510a18",
        "gas": "0x26bfd",
        "value": "0x0",
        "input": "0xdc14ddd6000000000000000000000000474b4e7fd1a143edea6b77aa845f429d443e64100000000000000000000000000000000000000000000000000000000000000001",
        "nonce": "0x183",
        "chainId": "0xaa36a7"
      },
      "additionalContracts": [],
      "isFixedGasLimit": false
    },
    {
      "hash": "0xfb8075bce5b8cc0972af294e25ddb666afb4e4d438be051ba12ba0f65a59f44b",
      "transactionType": "CALL",
      "contractName": "Whitelist",
      "contractAddress": "0xe4dabcb6e10fed7cc833b714490d2e2bb0510a18",
      "function": "addParticipant(address,bytes32)",
      "arguments": [
        "0xf68D9e0fAa751AD61e0ED70852798bF9D9C04bF7",
        "0x0000000000000000000000000000000000000000000000000000000000000002"
      ],
      "transaction": {
        "from": "0x993461bbf7e553eb5bd1f5248a72b524c4a3b15d",
        "to": "0xe4dabcb6e10fed7cc833b714490d2e2bb0510a18",
        "gas": "0x22ec5",
        "value": "0x0",
        "input": "0xdc14ddd6000000000000000000000000f68d9e0faa751ad61e0ed70852798bf9d9c04bf70000000000000000000000000000000000000000000000000000000000000002",
        "nonce": "0x184",
        "chainId": "0xaa36a7"
      },
      "additionalContracts": [],
      "isFixedGasLimit": false
    }
  ],
  "receipts": [
    {
      "status": "0x1",
      "cumulativeGasUsed": "0xaed67b",
      "logs": [
        {
          "address": "0xe4dabcb6e10fed7cc833b714490d2e2bb0510a18",
          "topics": [
            "0x2b004f50e7ac5444d85967107df2a15b7b3f0a1f574684eee2a53df13607e584",
            "0x000000000000000000000000474b4e7fd1a143edea6b77aa845f429d443e6410",
            "0x0000000000000000000000000000000000000000000000000000000000000001"
          ],
          "data": "0x",
          "blockHash": "0x29cd7efff1950a844f0264db1a22274a510838dd9153ceba1df61b548c6aad68",
          "blockNumber": "0x9d9373",
          "blockTimestamp": "0x699d90e0",
          "transactionHash": "0x120105387954910a18ebd7c71440ead8dc184c816b133db17d4587d70b3064f0",
          "transactionIndex": "0x69",
          "logIndex": "0x105",
          "removed": false
        }
      ],
      "logsBloom": "0x00000000000000000000000000000000000000000000000000000000000000000000000000000000000000000000000000000000000000000000000000040000000000000000008000000000000000040000000000040000000000000000000000400000000000000000000001000000000000000000000000000000000000000000000000000000000000000000000000000000000000000000001000000000000000000000000000000000000000000000000000000000000100080000000000000000000000000000000000000000000000000000000000000110000040000000000000000000000000000000000000000000000000000000000000000000",
      "type": "0x2",
      "transactionHash": "0x120105387954910a18ebd7c71440ead8dc184c816b133db17d4587d70b3064f0",
      "transactionIndex": "0x69",
      "blockHash": "0x29cd7efff1950a844f0264db1a22274a510838dd9153ceba1df61b548c6aad68",
      "blockNumber": "0x9d9373",
      "gasUsed": "0x1c0dd",
      "effectiveGasPrice": "0xf424f",
      "from": "0x993461bbf7e553eb5bd1f5248a72b524c4a3b15d",
      "to": "0xe4dabcb6e10fed7cc833b714490d2e2bb0510a18",
      "contractAddress": null
    },
    {
      "status": "0x1",
      "cumulativeGasUsed": "0xb0548c",
      "logs": [
        {
          "address": "0xe4dabcb6e10fed7cc833b714490d2e2bb0510a18",
          "topics": [
            "0x2b004f50e7ac5444d85967107df2a15b7b3f0a1f574684eee2a53df13607e584",
            "0x000000000000000000000000f68d9e0faa751ad61e0ed70852798bf9d9c04bf7",
            "0x0000000000000000000000000000000000000000000000000000000000000002"
          ],
          "data": "0x",
          "blockHash": "0x29cd7efff1950a844f0264db1a22274a510838dd9153ceba1df61b548c6aad68",
          "blockNumber": "0x9d9373",
          "blockTimestamp": "0x699d90e0",
          "transactionHash": "0xfb8075bce5b8cc0972af294e25ddb666afb4e4d438be051ba12ba0f65a59f44b",
          "transactionIndex": "0x6a",
          "logIndex": "0x106",
          "removed": false
        }
      ],
      "logsBloom": "0x04000000000000000000000000000000000000000000000000000000000000800000000000000000000000000000000000000000000000000000000000000000000000000000008000000000000000040000000000000000000000000000000000000000000000000000000001000000000000000000000000000000000000000000000000000000000000000000000000000000000000000000001000000000000000000000000000000100000000000400000000000000000000080000000000000000000000000000000000000001000000000000000000000100000000000000000000000000000000000000000000000000008000000000000000000000",
      "type": "0x2",
      "transactionHash": "0xfb8075bce5b8cc0972af294e25ddb666afb4e4d438be051ba12ba0f65a59f44b",
      "transactionIndex": "0x6a",
      "blockHash": "0x29cd7efff1950a844f0264db1a22274a510838dd9153ceba1df61b548c6aad68",
      "blockNumber": "0x9d9373",
      "gasUsed": "0x17e11",
      "effectiveGasPrice": "0xf424f",
      "from": "0x993461bbf7e553eb5bd1f5248a72b524c4a3b15d",
      "to": "0xe4dabcb6e10fed7cc833b714490d2e2bb0510a18",
      "contractAddress": null
    }
  ],
  "libraries": [],
  "pending": [],
  "returns": {},
  "timestamp": 1771933921959,
  "chain": 11155111,
  "commit": "4c27df4"
}