{
  "transactions": [
    {
      "hash": "0x405c3790a8e26426b8645358763407f116b685bae3493de6b3b64b9c8c3f1db2",
      "transactionType": "CALL",
      "contractName": "Whitelist",
      "contractAddress": "0xe1e06557332c88edc19f25b83586cb7408be3df2",
      "function": "addParticipant(address,bytes32)",
      "arguments": [
        "0x474B4E7FD1A143eDea6b77aa845F429D443E6410",
        "0x0000000000000000000000000000000000000000000000000000000000000001"
      ],
      "transaction": {
        "from": "0x993461bbf7e553eb5bd1f5248a72b524c4a3b15d",
        "to": "0xe1e06557332c88edc19f25b83586cb7408be3df2",
        "gas": "0x26bfd",
        "value": "0x0",
        "input": "0xdc14ddd6000000000000000000000000474b4e7fd1a143edea6b77aa845f429d443e64100000000000000000000000000000000000000000000000000000000000000001",
        "nonce": "0x22c",
        "chainId": "0xaa36a7"
      },
      "additionalContracts": [],
      "isFixedGasLimit": false
    },
    {
      "hash": "0x0bc80af1e13d79cf9bdae1fadb7887f9bf24371002bce5ae51d380becd1c6ca2",
      "transactionType": "CALL",
      "contractName": "Whitelist",
      "contractAddress": "0xe1e06557332c88edc19f25b83586cb7408be3df2",
      "function": "addParticipant(address,bytes32)",
      "arguments": [
        "0xf68D9e0fAa751AD61e0ED70852798bF9D9C04bF7",
        "0x0000000000000000000000000000000000000000000000000000000000000002"
      ],
      "transaction": {
        "from": "0x993461bbf7e553eb5bd1f5248a72b524c4a3b15d",
        "to": "0xe1e06557332c88edc19f25b83586cb7408be3df2",
        "gas": "0x22ec5",
        "value": "0x0",
        "input": "0xdc14ddd6000000000000000000000000f68d9e0faa751ad61e0ed70852798bf9d9c04bf70000000000000000000000000000000000000000000000000000000000000002",
        "nonce": "0x22d",
        "chainId": "0xaa36a7"
      },
      "additionalContracts": [],
      "isFixedGasLimit": false
    }
  ],
  "receipts": [
    {
      "status": "0x1",
      "cumulativeGasUsed": "0x177d19d",
      "logs": [
        {
          "address": "0xe1e06557332c88edc19f25b83586cb7408be3df2",
          "topics": [
            "0x2b004f50e7ac5444d85967107df2a15b7b3f0a1f574684eee2a53df13607e584",
            "0x000000000000000000000000474b4e7fd1a143edea6b77aa845f429d443e6410",
            "0x0000000000000000000000000000000000000000000000000000000000000001"
          ],
          "data": "0x",
          "blockHash": "0x96eae8efb2b3c9445501f013edbba477325e0433634f8f50b2cd97cc7f85da5a",
          "blockNumber": "0x9df5a0",
          "blockTimestamp": "0x69a2663c",
          "transactionHash": "0x405c3790a8e26426b8645358763407f116b685bae3493de6b3b64b9c8c3f1db2",
          "transactionIndex": "0x79",
          "logIndex": "0x183",
          "removed": false
        }
      ],
      "logsBloom": "0x00000000000000000000000000000000000000000000000080000000000000000000000000000000000000000000000000000000000000000000000000040000000000000000008000000000000000040000000000040000000001000000000000400000000000000000000000000000000000000000000000000000000000000000000000800000000000000000000000000000000000000000000000000000000000000000000000000000000000000000000000000000000100080000000000000000000000000000000000000000000000000000000000000010000040000000000000000000000000000000000000000000000000000000000000000000",
      "type": "0x2",
      "transactionHash": "0x405c3790a8e26426b8645358763407f116b685bae3493de6b3b64b9c8c3f1db2",
      "transactionIndex": "0x79",
      "blockHash": "0x96eae8efb2b3c9445501f013edbba477325e0433634f8f50b2cd97cc7f85da5a",
      "blockNumber": "0x9df5a0",
      "gasUsed": "0x1c0dd",
      "effectiveGasPrice": "0x10a2f4",
      "from": "0x993461bbf7e553eb5bd1f5248a72b524c4a3b15d",
      "to": "0xe1e06557332c88edc19f25b83586cb7408be3df2",
      "contractAddress": null
    },
    {
      "status": "0x1",
      "cumulativeGasUsed": "0x1794fae",
      "logs": [
        {
          "address": "0xe1e06557332c88edc19f25b83586cb7408be3df2",
          "topics": [
            "0x2b004f50e7ac5444d85967107df2a15b7b3f0a1f574684eee2a53df13607e584",
            "0x000000000000000000000000f68d9e0faa751ad61e0ed70852798bf9d9c04bf7",
            "0x0000000000000000000000000000000000000000000000000000000000000002"
          ],
          "data": "0x",
          "blockHash": "0x96eae8efb2b3c9445501f013edbba477325e0433634f8f50b2cd97cc7f85da5a",
          "blockNumber": "0x9df5a0",
          "blockTimestamp": "0x69a2663c",
          "transactionHash": "0x0bc80af1e13d79cf9bdae1fadb7887f9bf24371002bce5ae51d380becd1c6ca2",
          "transactionIndex": "0x7a",
          "logIndex": "0x184",
          "removed": false
        }
      ],
      "logsBloom": "0x04000000000000000000000000000000000000000000000080000000000000800000000000000000000000000000000000000000000000000000000000000000000000000000008000000000000000040000000000000000000001000000000000000000000000000000000000000000000000000000000000000000000000000000000000800000000000000000000000000000000000000000000000000000000000000000000000000100000000000400000000000000000000080000000000000000000000000000000000000001000000000000000000000000000000000000000000000000000000000000000000000000008000000000000000000000",
      "type": "0x2",
      "transactionHash": "0x0bc80af1e13d79cf9bdae1fadb7887f9bf24371002bce5ae51d380becd1c6ca2",
      "transactionIndex": "0x7a",
      "blockHash": "0x96eae8efb2b3c9445501f013edbba477325e0433634f8f50b2cd97cc7f85da5a",
      "blockNumber": "0x9df5a0",
      "gasUsed": "0x17e11",
      "effectiveGasPrice": "0x10a2f4",
      "from": "0x993461bbf7e553eb5bd1f5248a72b524c4a3b15d",
      "to": "0xe1e06557332c88edc19f25b83586cb7408be3df2",
      "contractAddress": null
    }
  ],
  "libraries": [],
  "pending": [],
  "returns": {},
  "timestamp": 1772250684594,
  "chain": 11155111,
  "commit": "76afb75"
}