{
  "transactions": [
    {
      "hash": "0xbd4b350d5922ef63fe857849ee7146f48eaf96502fa8c6ca1deb54a8d073a29e",
      "transactionType": "CALL",
      "contractName": "Whitelist",
      "contractAddress": "0x13307e01d2a9dc9074af6cf8b16b776b67131596",
      "function": "addParticipant(address,bytes32)",
      "arguments": [
        "0x474B4E7FD1A143eDea6b77aa845F429D443E6410",
        "0x0000000000000000000000000000000000000000000000000000000000000001"
      ],
      "transaction": {
        "from": "0x993461bbf7e553eb5bd1f5248a72b524c4a3b15d",
        "to": "0x13307e01d2a9dc9074af6cf8b16b776b67131596",
        "gas": "0x26bfd",
        "value": "0x0",
        "input": "0xdc14ddd6000000000000000000000000474b4e7fd1a143edea6b77aa845f429d443e64100000000000000000000000000000000000000000000000000000000000000001",
        "nonce": "0x19e",
        "chainId": "0xaa36a7"
      },
      "additionalContracts": [],
      "isFixedGasLimit": false
    },
    {
      "hash": "0xfeee3ffd07ddf2d44a92b0a30ce4176b1b16e0efe7cd1a41c3001190edf884dd",
      "transactionType": "CALL",
      "contractName": "Whitelist",
      "contractAddress": "0x13307e01d2a9dc9074af6cf8b16b776b67131596",
      "function": "addParticipant(address,bytes32)",
      "arguments": [
        "0xf68D9e0fAa751AD61e0ED70852798bF9D9C04bF7",
        "0x0000000000000000000000000000000000000000000000000000000000000002"
      ],
      "transaction": {
        "from": "0x993461bbf7e553eb5bd1f5248a72b524c4a3b15d",
        "to": "0x13307e01d2a9dc9074af6cf8b16b776b67131596",
        "gas": "0x22ec5",
        "value": "0x0",
        "input": "0xdc14ddd6000000000000000000000000f68d9e0faa751ad61e0ed70852798bf9d9c04bf70000000000000000000000000000000000000000000000000000000000000002",
        "nonce": "0x19f",
        "chainId": "0xaa36a7"
      },
      "additionalContracts": [],
      "isFixedGasLimit": false
    }
  ],
  "receipts": [
    {
      "status": "0x1",
      "cumulativeGasUsed": "0xf13e87",
      "logs": [
        {
          "address": "0x13307e01d2a9dc9074af6cf8b16b776b67131596",
          "topics": [
            "0x2b004f50e7ac5444d85967107df2a15b7b3f0a1f574684eee2a53df13607e584",
            "0x000000000000000000000000474b4e7fd1a143edea6b77aa845f429d443e6410",
            "0x0000000000000000000000000000000000000000000000000000000000000001"
          ],
          "data": "0x",
          "blockHash": "0x1ee7e47e1ed3b98f7f6ab5eb078ef17020eb4e8086561bc32efd95504f101c7b",
          "blockNumber": "0x9da758",
          "blockTimestamp": "0x699e8f2c",
          "transactionHash": "0xfeee3ffd07ddf2d44a92b0a30ce4176b1b16e0efe7cd1a41c3001190edf884dd",
          "transactionIndex": "0x5f",
          "logIndex": "0xd3",
          "removed": false
        }
      ],
      "logsBloom": "0x20000000000000000000000000000000000000000000000000800000000000000000000000000000000000000000000000000000000000000000000000040000000000000000008000000000000000040000000000040000000000000000000000400000000000000000000000000000000000000000800000000000000000000000000000000000000000000000000000000000000000000000000000000000000000000000000000000000000000000000000000000000000100080000000000000000000000000000000000000000000000000000000000000010000040000000000000000000000000000000000000000000000000000000000000000000",
      "type": "0x2",
      "transactionHash": "0xfeee3ffd07ddf2d44a92b0a30ce4176b1b16e0efe7cd1a41c3001190edf884dd",
      "transactionIndex": "0x5f",
      "blockHash": "0x1ee7e47e1ed3b98f7f6ab5eb078ef17020eb4e8086561bc32efd95504f101c7b",
      "blockNumber": "0x9da758",
      "gasUsed": "0x1c0dd",
      "effectiveGasPrice": "0xf4265",
      "from": "0x993461bbf7e553eb5bd1f5248a72b524c4a3b15d",
      "to": "0x13307e01d2a9dc9074af6cf8b16b776b67131596",
      "contractAddress": null
    },
    {
      "status": "0x1",
      "cumulativeGasUsed": "0xf2bc98",
      "logs": [
        {
          "address": "0x13307e01d2a9dc9074af6cf8b16b776b67131596",
          "topics": [
            "0x2b004f50e7ac5444d85967107df2a15b7b3f0a1f574684eee2a53df13607e584",
            "0x000000000000000000000000f68d9e0faa751ad61e0ed70852798bf9d9c04bf7",
            "0x0000000000000000000000000000000000000000000000000000000000000002"
          ],
          "data": "0x",
          "blockHash": "0x1ee7e47e1ed3b98f7f6ab5eb078ef17020eb4e8086561bc32efd95504f101c7b",
          "blockNumber": "0x9da758",
          "blockTimestamp": "0x699e8f2c",
          "transactionHash": "0xbd4b350d5922ef63fe857849ee7146f48eaf96502fa8c6ca1deb54a8d073a29e",
          "transactionIndex": "0x60",
          "logIndex": "0xd4",
          "removed": false
        }
      ],
      "logsBloom": "0x24000000000000000000000000000000000000000000000000800000000000800000000000000000000000000000000000000000000000000000000000000000000000000000008000000000000000040000000000000000000000000000000000000000000000000000000000000000000000000000800000000000000000000000000000000000000000000000000000000000000000000000000000000000000000000000000000000100000000000400000000000000000000080000000000000000000000000000000000000001000000000000000000000000000000000000000000000000000000000000000000000000008000000000000000000000",
      "type": "0x2",
      "transactionHash": "0xbd4b350d5922ef63fe857849ee7146f48eaf96502fa8c6ca1deb54a8d073a29e",
      "transactionIndex": "0x60",
      "blockHash": "0x1ee7e47e1ed3b98f7f6ab5eb078ef17020eb4e8086561bc32efd95504f101c7b",
      "blockNumber": "0x9da758",
      "gasUsed": "0x17e11",
      "effectiveGasPrice": "0xf4265",
      "from": "0x993461bbf7e553eb5bd1f5248a72b524c4a3b15d",
      "to": "0x13307e01d2a9dc9074af6cf8b16b776b67131596",
      "contractAddress": null
    }
  ],
  "libraries": [],
  "pending": [],
  "returns": {},
  "timestamp": 1771999021719,
  "chain": 11155111,
  "commit": "f9de090"
}