{
  "transactions": [
    {
      "hash": "0x91d5e20d8e7b99d0d9e716d37b9be7eadecc380c32d966bb87072bc09248dcc3",
      "transactionType": "CALL",
      "contractName": "Whitelist",
      "contractAddress": "0x0a360f6e4fcfe5a4f5c58550108d6358d8e703a5",
      "function": "addParticipant(address,bytes32)",
      "arguments": [
        "0x474B4E7FD1A143eDea6b77aa845F429D443E6410",
        "0x0000000000000000000000000000000000000000000000000000000000000001"
      ],
      "transaction": {
        "from": "0x993461bbf7e553eb5bd1f5248a72b524c4a3b15d",
        "to": "0x0a360f6e4fcfe5a4f5c58550108d6358d8e703a5",
        "gas": "0x26bfd",
        "value": "0x0",
        "input": "0xdc14ddd6000000000000000000000000474b4e7fd1a143edea6b77aa845f429d443e64100000000000000000000000000000000000000000000000000000000000000001",
        "nonce": "0x14c",
        "chainId": "0xaa36a7"
      },
      "additionalContracts": [],
      "isFixedGasLimit": false
    },
    {
      "hash": "0x156560872f634987fa585603b51a30c9cda2edb882071e4879b2d46effd35606",
      "transactionType": "CALL",
      "contractName": "Whitelist",
      "contractAddress": "0x0a360f6e4fcfe5a4f5c58550108d6358d8e703a5",
      "function": "addParticipant(address,bytes32)",
      "arguments": [
        "0xf68D9e0fAa751AD61e0ED70852798bF9D9C04bF7",
        "0x0000000000000000000000000000000000000000000000000000000000000002"
      ],
      "transaction": {
        "from": "0x993461bbf7e553eb5bd1f5248a72b524c4a3b15d",
        "to": "0x0a360f6e4fcfe5a4f5c58550108d6358d8e703a5",
        "gas": "0x22ec5",
        "value": "0x0",
        "input": "0xdc14ddd6000000000000000000000000f68d9e0faa751ad61e0ed70852798bf9d9c04bf70000000000000000000000000000000000000000000000000000000000000002",
        "nonce": "0x14d",
        "chainId": "0xaa36a7"
      },
      "additionalContracts": [],
      "isFixedGasLimit": false
    }
  ],
  "receipts": [
    {
      "status": "0x1",
      "cumulativeGasUsed": "0x1316ef0",
      "logs": [
        {
          "address": "0x0a360f6e4fcfe5a4f5c58550108d6358d8e703a5",
          "topics": [
            "0x2b004f50e7ac5444d85967107df2a15b7b3f0a1f574684eee2a53df13607e584",
            "0x000000000000000000000000474b4e7fd1a143edea6b77aa845f429d443e6410",
            "0x0000000000000000000000000000000000000000000000000000000000000001"
          ],
          "data": "0x",
          "blockHash": "0x3a8f1805ffd237abd8bef5a05e3853223d79b04b4dcfba405b51cd7ed9a021f0",
          "blockNumber": "0x9d8d6d",
          "blockTimestamp": "0x699d4604",
          "transactionHash": "0x156560872f634987fa585603b51a30c9cda2edb882071e4879b2d46effd35606",
          "transactionIndex": "0x6b",
          "logIndex": "0x159",
          "removed": false
        }
      ],
      "logsBloom": "0x00000000000000000000000000000000000000000000000000000000000000000000000000000000000000000000000000000000000000000000040000040000000000000000008000000000000000040000000000040000000000000000000000400000000000000000000000008000000000000000000000000000000000000000000000000000000000000000000000000000000000000000000000000000000000000000000100000000000000000000000000000000000100080000000000000000000000000000000000000000000000000000000000000010000040000000000000000000000000000000000000000000000000000000000000000000",
      "type": "0x2",
      "transactionHash": "0x156560872f634987fa585603b51a30c9cda2edb882071e4879b2d46effd35606",
      "transactionIndex": "0x6b",
      "blockHash": "0x3a8f1805ffd237abd8bef5a05e3853223d79b04b4dcfba405b51cd7ed9a021f0",
      "blockNumber": "0x9d8d6d",
      "gasUsed": "0x1c0dd",
      "effectiveGasPrice": "0x1541b8",
      "from": "0x993461bbf7e553eb5bd1f5248a72b524c4a3b15d",
      "to": "0x0a360f6e4fcfe5a4f5c58550108d6358d8e703a5",
      "contractAddress": null
    },
    {
      "status": "0x1",
      "cumulativeGasUsed": "0x132ed01",
      "logs": [
        {
          "address": "0x0a360f6e4fcfe5a4f5c58550108d6358d8e703a5",
          "topics": [
            "0x2b004f50e7ac5444d85967107df2a15b7b3f0a1f574684eee2a53df13607e584",
            "0x000000000000000000000000f68d9e0faa751ad61e0ed70852798bf9d9c04bf7",
            "0x0000000000000000000000000000000000000000000000000000000000000002"
          ],
          "data": "0x",
          "blockHash": "0x3a8f1805ffd237abd8bef5a05e3853223d79b04b4dcfba405b51cd7ed9a021f0",
          "blockNumber": "0x9d8d6d",
          "blockTimestamp": "0x699d4604",
          "transactionHash": "0x91d5e20d8e7b99d0d9e716d37b9be7eadecc380c32d966bb87072bc09248dcc3",
          "transactionIndex": "0x6c",
          "logIndex": "0x15a",
          "removed": false
        }
      ],
      "logsBloom": "0x04000000000000000000000000000000000000000000000000000000000000800000000000000000000000000000000000000000000000000000040000000000000000000000008000000000000000040000000000000000000000000000000000000000000000000000000000008000000000000000000000000000000000000000000000000000000000000000000000000000000000000000000000000000000000000000000100000100000000000400000000000000000000080000000000000000000000000000000000000001000000000000000000000000000000000000000000000000000000000000000000000000008000000000000000000000",
      "type": "0x2",
      "transactionHash": "0x91d5e20d8e7b99d0d9e716d37b9be7eadecc380c32d966bb87072bc09248dcc3",
      "transactionIndex": "0x6c",
      "blockHash": "0x3a8f1805ffd237abd8bef5a05e3853223d79b04b4dcfba405b51cd7ed9a021f0",
      "blockNumber": "0x9d8d6d",
      "gasUsed": "0x17e11",
      "effectiveGasPrice": "0x1541b8",
      "from": "0x993461bbf7e553eb5bd1f5248a72b524c4a3b15d",
      "to": "0x0a360f6e4fcfe5a4f5c58550108d6358d8e703a5",
      "contractAddress": null
    }
  ],
  "libraries": [],
  "pending": [],
  "returns": {},
  "timestamp": 1771914757916,
  "chain": 11155111,
  "commit": "db846f0"
}