{
  "transactions": [
    {
      "hash": "0xda7403306c585bee99c5ae6c848d1f61439f6cc903104818c4f614a19238560a",
      "transactionType": "CALL",
      "contractName": "Whitelist",
      "contractAddress": "0x46facced62b7b544431d3eadcbd5fe46add2ceef",
      "function": "addParticipant(address,bytes32)",
      "arguments": [
        "0x474B4E7FD1A143eDea6b77aa845F429D443E6410",
        "0x0000000000000000000000000000000000000000000000000000000000000001"
      ],
      "transaction": {
        "from": "0x993461bbf7e553eb5bd1f5248a72b524c4a3b15d",
        "to": "0x46facced62b7b544431d3eadcbd5fe46add2ceef",
        "gas": "0x26bfd",
        "value": "0x0",
        "input": "0xdc14ddd6000000000000000000000000474b4e7fd1a143edea6b77aa845f429d443e64100000000000000000000000000000000000000000000000000000000000000001",
        "nonce": "0x133",
        "chainId": "0xaa36a7"
      },
      "additionalContracts": [],
      "isFixedGasLimit": false
    },
    {
      "hash": "0xc38c39a6da0ca84cb396c0431eaa3ed85fadad76012cb0b3f04c8390d7f89263",
      "transactionType": "CALL",
      "contractName": "Whitelist",
      "contractAddress": "0x46facced62b7b544431d3eadcbd5fe46add2ceef",
      "function": "addParticipant(address,bytes32)",
      "arguments": [
        "0xf68D9e0fAa751AD61e0ED70852798bF9D9C04bF7",
        "0x0000000000000000000000000000000000000000000000000000000000000002"
      ],
      "transaction": {
        "from": "0x993461bbf7e553eb5bd1f5248a72b524c4a3b15d",
        "to": "0x46facced62b7b544431d3eadcbd5fe46add2ceef",
        "gas": "0x22ec5",
        "value": "0x0",
        "input": "0xdc14ddd6000000000000000000000000f68d9e0faa751ad61e0ed70852798bf9d9c04bf70000000000000000000000000000000000000000000000000000000000000002",
        "nonce": "0x134",
        "chainId": "0xaa36a7"
      },
      "additionalContracts": [],
      "isFixedGasLimit": false
    }
  ],
  "receipts": [
    {
      "status": "0x1",
      "cumulativeGasUsed": "0x45eab6",
      "logs": [
        {
          "address": "0x46facced62b7b544431d3eadcbd5fe46add2ceef",
          "topics": [
            "0x2b004f50e7ac5444d85967107df2a15b7b3f0a1f574684eee2a53df13607e584",
            "0x000000000000000000000000474b4e7fd1a143edea6b77aa845f429d443e6410",
            "0x0000000000000000000000000000000000000000000000000000000000000001"
          ],
          "data": "0x",
          "blockHash": "0x5aecd9a325ad32df7433a40314ea42b1023043e3fbc09d5a9d35d898076d3af1",
          "blockNumber": "0x9d8adc",
          "blockTimestamp": "0x699d260c",
          "transactionHash": "0xda7403306c585bee99c5ae6c848d1f61439f6cc903104818c4f614a19238560a",
          "transactionIndex": "0x36",
          "logIndex": "0x5b",
          "removed": false
        }
      ],
      "logsBloom": "0x00000000000000000000000000000000000000000000000000040000000000000000000000000000000000000000000000000000000000000000000000040000000000000000008000000000000000040000000000040000000000000000000000400000000000000000000000000000000000000000000000000000000000000000000000000000000002000000000000000000000000000000000000000000000000000000000000000000000000000000000000000000000100080000000000000000000000000000000000000000000000000000000000000010000040004000000000000000000000000000000000000000000000000000000000000000",
      "type": "0x2",
      "transactionHash": "0xda7403306c585bee99c5ae6c848d1f61439f6cc903104818c4f614a19238560a",
      "transactionIndex": "0x36",
      "blockHash": "0x5aecd9a325ad32df7433a40314ea42b1023043e3fbc09d5a9d35d898076d3af1",
      "blockNumber": "0x9d8adc",
      "gasUsed": "0x1c0dd",
      "effectiveGasPrice": "0x115560",
      "from": "0x993461bbf7e553eb5bd1f5248a72b524c4a3b15d",
      "to": "0x46facced62b7b544431d3eadcbd5fe46add2ceef",
      "contractAddress": null
    },
    {
      "status": "0x1",
      "cumulativeGasUsed": "0x4768c7",
      "logs": [
        {
          "address": "0x46facced62b7b544431d3eadcbd5fe46add2ceef",
          "topics": [
            "0x2b004f50e7ac5444d85967107df2a15b7b3f0a1f574684eee2a53df13607e584",
            "0x000000000000000000000000f68d9e0faa751ad61e0ed70852798bf9d9c04bf7",
            "0x0000000000000000000000000000000000000000000000000000000000000002"
          ],
          "data": "0x",
          "blockHash": "0x5aecd9a325ad32df7433a40314ea42b1023043e3fbc09d5a9d35d898076d3af1",
          "blockNumber": "0x9d8adc",
          "blockTimestamp": "0x699d260c",
          "transactionHash": "0xc38c39a6da0ca84cb396c0431eaa3ed85fadad76012cb0b3f04c8390d7f89263",
          "transactionIndex": "0x37",
          "logIndex": "0x5c",
          "removed": false
        }
      ],
      "logsBloom": "0x04000000000000000000000000000000000000000000000000040000000000800000000000000000000000000000000000000000000000000000000000000000000000000000008000000000000000040000000000000000000000000000000000000000000000000000000000000000000000000000000000000000000000000000000000000000000002000000000000000000000000000000000000000000000000000000000000000100000000000400000000000000000000080000000000000000000000000000000000000001000000000000000000000000000000004000000000000000000000000000000000000000008000000000000000000000",
      "type": "0x2",
      "transactionHash": "0xc38c39a6da0ca84cb396c0431eaa3ed85fadad76012cb0b3f04c8390d7f89263",
      "transactionIndex": "0x37",
      "blockHash": "0x5aecd9a325ad32df7433a40314ea42b1023043e3fbc09d5a9d35d898076d3af1",
      "blockNumber": "0x9d8adc",
      "gasUsed": "0x17e11",
      "effectiveGasPrice": "0x115560",
      "from": "0x993461bbf7e553eb5bd1f5248a72b524c4a3b15d",
      "to": "0x46facced62b7b544431d3eadcbd5fe46add2ceef",
      "contractAddress": null
    }
  ],
  "libraries": [],
  "pending": [],
  "returns": {},
  "timestamp": 1771906572435,
  "chain": 11155111,
  "commit": "db846f0"
}