{
  "transactions": [
    {
      "hash": "0xb6e4439bddd0828389f7152e13db958a958787af77abc24e727fbaadc84ec607",
      "transactionType": "CALL",
      "contractName": "ClearingHouse",
      "contractAddress": "0xae4c1b4f55088835d64b885408782c314b8f283c",
      "function": "transferPosition(bytes32,uint256,uint256,uint256,uint256,bytes)",
      "arguments": [
        "0x000000000000000000000000f68d9e0faa751ad61e0ed70852798bf9d9c04bf7",
        "0",
        "200000000000000000000000",
        "55900141964810384595580626427949672235966234059661045073415939202236774636549",
        "1772986176",
        "0xb0e4c521b6e9316817fb3c1ea342576cd2e45e4c52e0003eff78e9c1822983f8542ebb9064e2b6d833ec3d91d25bc00af67693525c290f04c6ecc5ff55ac22021c"
      ],
      "transaction": {
        "from": "0x474b4e7fd1a143edea6b77aa845f429d443e6410",
        "to": "0xae4c1b4f55088835d64b885408782c314b8f283c",
        "gas": "0x65197",
        "value": "0x0",
        "input": "0x2816e5d3000000000000000000000000f68d9e0faa751ad61e0ed70852798bf9d9c04bf70000000000000000000000000000000000000000000000000000000000000000000000000000000000000000000000000000000000002a5a058fc295ed0000007b965bf000728057bfe1436aa758876d64851fecc6057e2537a5df273af05c050000000000000000000000000000000000000000000000000000000069ad9f4000000000000000000000000000000000000000000000000000000000000000c00000000000000000000000000000000000000000000000000000000000000041b0e4c521b6e9316817fb3c1ea342576cd2e45e4c52e0003eff78e9c1822983f8542ebb9064e2b6d833ec3d91d25bc00af67693525c290f04c6ecc5ff55ac22021c00000000000000000000000000000000000000000000000000000000000000",
        "nonce": "0x79",
        "chainId": "0xaa36a7"
      },
      "additionalContracts": [],
      "isFixedGasLimit": false
    }
  ],
  "receipts": [
    {
      "status": "0x1",
      "cumulativeGasUsed": "0x10b0ce2",
      "logs": [
        {
          "address": "0xc6b4e4c2540d649bf655adb352f910f50026af1f",
          "topics": [
            "0x6fd1f3949541cd49d779154387024699bcf742e79f24b3e96b2ae0a30cdd6e94",
            "0x000000000000000000000000474b4e7fd1a143edea6b77aa845f429d443e6410"
          ],
          "data": "0x0000000000000000000000000000000000000000000000d6ac0a2b0552e00000",
          "blockHash": "0xfb23cfcfa2ed8157deb0f20389342c3279ea56d007a69418cc85efc1dac13c77",
          "blockNumber": "0x9ed569",
          "blockTimestamp": "0x69ad9148",
          "transactionHash": "0xb6e4439bddd0828389f7152e13db958a958787af77abc24e727fbaadc84ec607",
          "transactionIndex": "0x6b",
          "logIndex": "0x172",
          "removed": false
        },
        {
          "address": "0xc6b4e4c2540d649bf655adb352f910f50026af1f",
          "topics": [
            "0x9372321d543f1b03b8b743f369a5417b1a683c8d1359cda23f4047834cddbb50",
            "0x000000000000000000000000f68d9e0faa751ad61e0ed70852798bf9d9c04bf7"
          ],
          "data": "0x0000000000000000000000000000000000000000000000d6ac0a2b0552e00000",
          "blockHash": "0xfb23cfcfa2ed8157deb0f20389342c3279ea56d007a69418cc85efc1dac13c77",
          "blockNumber": "0x9ed569",
          "blockTimestamp": "0x69ad9148",
          "transactionHash": "0xb6e4439bddd0828389f7152e13db958a958787af77abc24e727fbaadc84ec607",
          "transactionIndex": "0x6b",
          "logIndex": "0x173",
          "removed": false
        },
        {
          "address": "0x19d18958226f110e6702491b1124f42e4de012ec",
          "topics": [
            "0xc3d58168c5ae7397731d063d5bbf3d657854427343f4c083240f7aacaa2d0f62",
            "0x000000000000000000000000ae4c1b4f55088835d64b885408782c314b8f283c",
            "0x000000000000000000000000474b4e7fd1a143edea6b77aa845f429d443e6410",
            "0x000000000000000000000000f68d9e0faa751ad61e0ed70852798bf9d9c04bf7"
          ],
          "data": "0x0000000000000000000000000000000000000000000000000000000000000000000000000000000000000000000000000000000000002a5a058fc295ed000000",
          "blockHash": "0xfb23cfcfa2ed8157deb0f20389342c3279ea56d007a69418cc85efc1dac13c77",
          "blockNumber": "0x9ed569",
          "blockTimestamp": "0x69ad9148",
          "transactionHash": "0xb6e4439bddd0828389f7152e13db958a958787af77abc24e727fbaadc84ec607",
          "transactionIndex": "0x6b",
          "logIndex": "0x174",
          "removed": false
        },
        {
          "address": "0xbb73c13df3c8278f59de184b26023307e3c45d98",
          "topics": [
            "0xd36cc0768065e66afbd8046663fd4d7c6edcc0c1a3ee54fdd4ece612958ba2db",
            "0x000000000000000000000000474b4e7fd1a143edea6b77aa845f429d443e6410"
          ],
          "data": "0x000000000000000000000000000000000000000000002a5a058fc295ed00000000000000000000000000000000000000000000000000a968163f0a57b4000000",
          "blockHash": "0xfb23cfcfa2ed8157deb0f20389342c3279ea56d007a69418cc85efc1dac13c77",
          "blockNumber": "0x9ed569",
          "blockTimestamp": "0x69ad9148",
          "transactionHash": "0xb6e4439bddd0828389f7152e13db958a958787af77abc24e727fbaadc84ec607",
          "transactionIndex": "0x6b",
          "logIndex": "0x175",
          "removed": false
        },
        {
          "address": "0xbb73c13df3c8278f59de184b26023307e3c45d98",
          "topics": [
            "0x15ca2c58d94a57353778871a512abd76587f09583c3fce118289c2f118794e23",
            "0x000000000000000000000000f68d9e0faa751ad61e0ed70852798bf9d9c04bf7"
          ],
          "data": "0x000000000000000000000000000000000000000000002a5a058fc295ed000000000000000000000000000000000000000000000000002a5a058fc295ed000000",
          "blockHash": "0xfb23cfcfa2ed8157deb0f20389342c3279ea56d007a69418cc85efc1dac13c77",
          "blockNumber": "0x9ed569",
          "blockTimestamp": "0x69ad9148",
          "transactionHash": "0xb6e4439bddd0828389f7152e13db958a958787af77abc24e727fbaadc84ec607",
          "transactionIndex": "0x6b",
          "logIndex": "0x176",
          "removed": false
        },
        {
          "address": "0x2619faf69134a30651e765a85517f34b39d0cc25",
          "topics": [
            "0x15c759f729890e54ba9fbec58cddba4b65515f5f2c5b01ede4fa2c6841d18de3",
            "0x000000000000000000000000474b4e7fd1a143edea6b77aa845f429d443e6410"
          ],
          "data": "0x000000000000000000000000bb46678a1f6c527bd79ecfbf85332b8ae83ceaf100000000000000000000000000000000000000000000032505262153f6c80000000000000000000000000000000000000000000000000284041e810ff8a00000",
          "blockHash": "0xfb23cfcfa2ed8157deb0f20389342c3279ea56d007a69418cc85efc1dac13c77",
          "blockNumber": "0x9ed569",
          "blockTimestamp": "0x69ad9148",
          "transactionHash": "0xb6e4439bddd0828389f7152e13db958a958787af77abc24e727fbaadc84ec607",
          "transactionIndex": "0x6b",
          "logIndex": "0x177",
          "removed": false
        },
        {
          "address": "0x2619faf69134a30651e765a85517f34b39d0cc25",
          "topics": [
            "0x15c759f729890e54ba9fbec58cddba4b65515f5f2c5b01ede4fa2c6841d18de3",
            "0x000000000000000000000000f68d9e0faa751ad61e0ed70852798bf9d9c04bf7"
          ],
          "data": "0x000000000000000000000000bb46678a1f6c527bd79ecfbf85332b8ae83ceaf100000000000000000000000000000000000000000000000000000000000000000000000000000000000000000000000000000000000000a10107a043fe280000",
          "blockHash": "0xfb23cfcfa2ed8157deb0f20389342c3279ea56d007a69418cc85efc1dac13c77",
          "blockNumber": "0x9ed569",
          "blockTimestamp": "0x69ad9148",
          "transactionHash": "0xb6e4439bddd0828389f7152e13db958a958787af77abc24e727fbaadc84ec607",
          "transactionIndex": "0x6b",
          "logIndex": "0x178",
          "removed": false
        },
        {
          "address": "0xae4c1b4f55088835d64b885408782c314b8f283c",
          "topics": [
            "0xae5a07a3505b203c65f1411fa5ad99b4772094da1a55819234f50b95d01b6634",
            "0x0000000000000000000000000000000000000000000000000000000000000000",
            "0x000000000000000000000000474b4e7fd1a143edea6b77aa845f429d443e6410",
            "0x000000000000000000000000f68d9e0faa751ad61e0ed70852798bf9d9c04bf7"
          ],
          "data": "0x000000000000000000000000000000000000000000002a5a058fc295ed000000000000000000000000000000bb46678a1f6c527bd79ecfbf85332b8ae83ceaf1000000000000000000000000000000000000000000000284041e810ff8a000000000000000000000000000000000000000000000000000a10107a043fe280000",
          "blockHash": "0xfb23cfcfa2ed8157deb0f20389342c3279ea56d007a69418cc85efc1dac13c77",
          "blockNumber": "0x9ed569",
          "blockTimestamp": "0x69ad9148",
          "transactionHash": "0xb6e4439bddd0828389f7152e13db958a958787af77abc24e727fbaadc84ec607",
          "transactionIndex": "0x6b",
          "logIndex": "0x179",
          "removed": false
        }
      ],
      "logsBloom": "0x00000000000000001000200000000000000000000000200000000000000000808080000000000000010004000000000000000000080000000000000000002000001000000000000000080000000000000000000000000000000020000000000010400000020030000000000000000800002000000000000000000800000000002000200000000000000000000040000000000000000000000000800200000800200000000008000000000000009400000400000000000000000100000000000000000000000002000000001000000001000000000008000000000010000020000000000010000100000800000000000000000000000000000000180000040000",
      "type": "0x2",
      "transactionHash": "0xb6e4439bddd0828389f7152e13db958a958787af77abc24e727fbaadc84ec607",
      "transactionIndex": "0x6b",
      "blockHash": "0xfb23cfcfa2ed8157deb0f20389342c3279ea56d007a69418cc85efc1dac13c77",
      "blockNumber": "0x9ed569",
      "gasUsed": "0x4931c",
      "effectiveGasPrice": "0x18b3402",
      "from": "0x474b4e7fd1a143edea6b77aa845f429d443e6410",
      "to": "0xae4c1b4f55088835d64b885408782c314b8f283c",
      "contractAddress": null
    }
  ],
  "libraries": [],
  "pending": [],
  "returns": {},
  "timestamp": 1772982600701,
  "chain": 11155111,
  "commit": "0307850"
}