{
  "transactions": [
    {
      "hash": "0x96a36220e649fc05c26f7c4b124b6da0ac431c7d51aebe482c4cbb86b8664f1c",
      "transactionType": "CALL",
      "contractName": "ClearingHouse",
      "contractAddress": "0xbecf462997c4fa8ed117d20bc59bff32c29122d3",
      "function": "transferPosition(bytes32,uint256,uint256,uint256,uint256,bytes)",
      "arguments": [
        "0x000000000000000000000000f68d9e0faa751ad61e0ed70852798bf9d9c04bf7",
        "0",
        "200000000000000000000000",
        "7774084200520176815401263186102400511346560255888396556714698666600540389990",
        "1772813100",
        "0x237d151b8e06d51b2dccd7c7f302927391513b096e6d4a2b9dc5250b94a20cb00e696e86fd2ff8e219516f8db0dc7c9e96e55156e8d3ff3cf9d561b038bab1211c"
      ],
      "transaction": {
        "from": "0x474b4e7fd1a143edea6b77aa845f429d443e6410",
        "to": "0xbecf462997c4fa8ed117d20bc59bff32c29122d3",
        "gas": "0x652f8",
        "value": "0x0",
        "input": "0x2816e5d3000000000000000000000000f68d9e0faa751ad61e0ed70852798bf9d9c04bf70000000000000000000000000000000000000000000000000000000000000000000000000000000000000000000000000000000000002a5a058fc295ed000000112ff9c95347bdfb1b9cee4cb59aa7118c7bd55a77783a101b95be923a0bc2660000000000000000000000000000000000000000000000000000000069aafb2c00000000000000000000000000000000000000000000000000000000000000c00000000000000000000000000000000000000000000000000000000000000041237d151b8e06d51b2dccd7c7f302927391513b096e6d4a2b9dc5250b94a20cb00e696e86fd2ff8e219516f8db0dc7c9e96e55156e8d3ff3cf9d561b038bab1211c00000000000000000000000000000000000000000000000000000000000000",
        "nonce": "0x6b",
        "chainId": "0xaa36a7"
      },
      "additionalContracts": [],
      "isFixedGasLimit": false
    }
  ],
  "receipts": [
    {
      "status": "0x1",
      "cumulativeGasUsed": "0x24aa55d",
      "logs": [
        {
          "address": "0x76d1a769c3b13696f40523c0483ac5ea7cb32a84",
          "topics": [
            "0x6fd1f3949541cd49d779154387024699bcf742e79f24b3e96b2ae0a30cdd6e94",
            "0x000000000000000000000000474b4e7fd1a143edea6b77aa845f429d443e6410"
          ],
          "data": "0x0000000000000000000000000000000000000000000000d6ac0a2b0552e00000",
          "blockHash": "0x951a26f940df35e3e3f993b30f5158ae2cbfc9320c86429ce95ed07850525b96",
          "blockNumber": "0x9ea4df",
          "blockTimestamp": "0x69aaed34",
          "transactionHash": "0x96a36220e649fc05c26f7c4b124b6da0ac431c7d51aebe482c4cbb86b8664f1c",
          "transactionIndex": "0x8b",
          "logIndex": "0x372",
          "removed": false
        },
        {
          "address": "0x76d1a769c3b13696f40523c0483ac5ea7cb32a84",
          "topics": [
            "0x9372321d543f1b03b8b743f369a5417b1a683c8d1359cda23f4047834cddbb50",
            "0x000000000000000000000000f68d9e0faa751ad61e0ed70852798bf9d9c04bf7"
          ],
          "data": "0x0000000000000000000000000000000000000000000000d6ac0a2b0552e00000",
          "blockHash": "0x951a26f940df35e3e3f993b30f5158ae2cbfc9320c86429ce95ed07850525b96",
          "blockNumber": "0x9ea4df",
          "blockTimestamp": "0x69aaed34",
          "transactionHash": "0x96a36220e649fc05c26f7c4b124b6da0ac431c7d51aebe482c4cbb86b8664f1c",
          "transactionIndex": "0x8b",
          "logIndex": "0x373",
          "removed": false
        },
        {
          "address": "0xd8d6ba9024ad9952c7771fe6b2166fa524d8a4f8",
          "topics": [
            "0xc3d58168c5ae7397731d063d5bbf3d657854427343f4c083240f7aacaa2d0f62",
            "0x000000000000000000000000becf462997c4fa8ed117d20bc59bff32c29122d3",
            "0x000000000000000000000000474b4e7fd1a143edea6b77aa845f429d443e6410",
            "0x000000000000000000000000f68d9e0faa751ad61e0ed70852798bf9d9c04bf7"
          ],
          "data": "0x0000000000000000000000000000000000000000000000000000000000000000000000000000000000000000000000000000000000002a5a058fc295ed000000",
          "blockHash": "0x951a26f940df35e3e3f993b30f5158ae2cbfc9320c86429ce95ed07850525b96",
          "blockNumber": "0x9ea4df",
          "blockTimestamp": "0x69aaed34",
          "transactionHash": "0x96a36220e649fc05c26f7c4b124b6da0ac431c7d51aebe482c4cbb86b8664f1c",
          "transactionIndex": "0x8b",
          "logIndex": "0x374",
          "removed": false
        },
        {
          "address": "0x8b46caa605f36b9b739624668f36d384d8af6510",
          "topics": [
            "0xd36cc0768065e66afbd8046663fd4d7c6edcc0c1a3ee54fdd4ece612958ba2db",
            "0x000000000000000000000000474b4e7fd1a143edea6b77aa845f429d443e6410"
          ],
          "data": "0x000000000000000000000000000000000000000000002a5a058fc295ed00000000000000000000000000000000000000000000000000a968163f0a57b4000000",
          "blockHash": "0x951a26f940df35e3e3f993b30f5158ae2cbfc9320c86429ce95ed07850525b96",
          "blockNumber": "0x9ea4df",
          "blockTimestamp": "0x69aaed34",
          "transactionHash": "0x96a36220e649fc05c26f7c4b124b6da0ac431c7d51aebe482c4cbb86b8664f1c",
          "transactionIndex": "0x8b",
          "logIndex": "0x375",
          "removed": false
        },
        {
          "address": "0x8b46caa605f36b9b739624668f36d384d8af6510",
          "topics": [
            "0x15ca2c58d94a57353778871a512abd76587f09583c3fce118289c2f118794e23",
            "0x000000000000000000000000f68d9e0faa751ad61e0ed70852798bf9d9c04bf7"
          ],
          "data": "0x000000000000000000000000000000000000000000002a5a058fc295ed000000000000000000000000000000000000000000000000002a5a058fc295ed000000",
          "blockHash": "0x951a26f940df35e3e3f993b30f5158ae2cbfc9320c86429ce95ed07850525b96",
          "blockNumber": "0x9ea4df",
          "blockTimestamp": "0x69aaed34",
          "transactionHash": "0x96a36220e649fc05c26f7c4b124b6da0ac431c7d51aebe482c4cbb86b8664f1c",
          "transactionIndex": "0x8b",
          "logIndex": "0x376",
          "removed": false
        },
        {
          "address": "0x19d3705c40befcf6633d8276c2cb20c7ed37891e",
          "topics": [
            "0x15c759f729890e54ba9fbec58cddba4b65515f5f2c5b01ede4fa2c6841d18de3",
            "0x000000000000000000000000474b4e7fd1a143edea6b77aa845f429d443e6410"
          ],
          "data": "0x000000000000000000000000bb46678a1f6c527bd79ecfbf85332b8ae83ceaf100000000000000000000000000000000000000000000032505262153f6c80000000000000000000000000000000000000000000000000284041e810ff8a00000",
          "blockHash": "0x951a26f940df35e3e3f993b30f5158ae2cbfc9320c86429ce95ed07850525b96",
          "blockNumber": "0x9ea4df",
          "blockTimestamp": "0x69aaed34",
          "transactionHash": "0x96a36220e649fc05c26f7c4b124b6da0ac431c7d51aebe482c4cbb86b8664f1c",
          "transactionIndex": "0x8b",
          "logIndex": "0x377",
          "removed": false
        },
        {
          "address": "0x19d3705c40befcf6633d8276c2cb20c7ed37891e",
          "topics": [
            "0x15c759f729890e54ba9fbec58cddba4b65515f5f2c5b01ede4fa2c6841d18de3",
            "0x000000000000000000000000f68d9e0faa751ad61e0ed70852798bf9d9c04bf7"
          ],
          "data": "0x000000000000000000000000bb46678a1f6c527bd79ecfbf85332b8ae83ceaf100000000000000000000000000000000000000000000000000000000000000000000000000000000000000000000000000000000000000a10107a043fe280000",
          "blockHash": "0x951a26f940df35e3e3f993b30f5158ae2cbfc9320c86429ce95ed07850525b96",
          "blockNumber": "0x9ea4df",
          "blockTimestamp": "0x69aaed34",
          "transactionHash": "0x96a36220e649fc05c26f7c4b124b6da0ac431c7d51aebe482c4cbb86b8664f1c",
          "transactionIndex": "0x8b",
          "logIndex": "0x378",
          "removed": false
        },
        {
          "address": "0xbecf462997c4fa8ed117d20bc59bff32c29122d3",
          "topics": [
            "0xae5a07a3505b203c65f1411fa5ad99b4772094da1a55819234f50b95d01b6634",
            "0x0000000000000000000000000000000000000000000000000000000000000000",
            "0x000000000000000000000000474b4e7fd1a143edea6b77aa845f429d443e6410",
            "0x000000000000000000000000f68d9e0faa751ad61e0ed70852798bf9d9c04bf7"
          ],
          "data": "0x000000000000000000000000000000000000000000002a5a058fc295ed000000000000000000000000000000bb46678a1f6c527bd79ecfbf85332b8ae83ceaf1000000000000000000000000000000000000000000000284041e810ff8a000000000000000000000000000000000000000000000000000a10107a043fe280000",
          "blockHash": "0x951a26f940df35e3e3f993b30f5158ae2cbfc9320c86429ce95ed07850525b96",
          "blockNumber": "0x9ea4df",
          "blockTimestamp": "0x69aaed34",
          "transactionHash": "0x96a36220e649fc05c26f7c4b124b6da0ac431c7d51aebe482c4cbb86b8664f1c",
          "transactionIndex": "0x8b",
          "logIndex": "0x379",
          "removed": false
        }
      ],
      "logsBloom": "0x00000010000000001000000000000000000000000000000000000000000000800000000000000000010004000000000000000000000000000000000000002000000000000001000000000000000000000000000400000000000020000000000010500000020000800000000000000800020000000000000000000800000000002000000008000000000000000040000008000000000000000000000000008800200000000008000000000000008040100400000000000000100100000400000000000000000000000000001000200001000000000008100000000010000020000000000010000580000800000000000000000000040000000000180000000000",
      "type": "0x2",
      "transactionHash": "0x96a36220e649fc05c26f7c4b124b6da0ac431c7d51aebe482c4cbb86b8664f1c",
      "transactionIndex": "0x8b",
      "blockHash": "0x951a26f940df35e3e3f993b30f5158ae2cbfc9320c86429ce95ed07850525b96",
      "blockNumber": "0x9ea4df",
      "gasUsed": "0x4941c",
      "effectiveGasPrice": "0x70e0d92",
      "from": "0x474b4e7fd1a143edea6b77aa845f429d443e6410",
      "to": "0xbecf462997c4fa8ed117d20bc59bff32c29122d3",
      "contractAddress": null
    }
  ],
  "libraries": [],
  "pending": [],
  "returns": {},
  "timestamp": 1772809525467,
  "chain": 11155111,
  "commit": "abef103"
}