{
  "transactions": [
    {
      "hash": "0x8760b516732cf2b4ad98ef3dce9d48fe9e7d1990407ec89ea10c52986a4d6b4d",
      "transactionType": "CALL",
      "contractName": "ClearingHouse",
      "contractAddress": "0x441df3c4891cb96ab45c87bbafdab3583896274d",
      "function": "transferPosition(bytes32,uint256,uint256,uint256,uint256,bytes)",
      "arguments": [
        "0x000000000000000000000000f68d9e0faa751ad61e0ed70852798bf9d9c04bf7",
        "0",
        "200000000000000000000000",
        "5358638106951675490528983771837042324619759101010175108950775198026179126065",
        "1772970120",
        "0xb8e4bf581702da1cc8542b616ead37df67ee2e5117271b3e322d5084a8d2d44b59211cc9cb702cd5ab63d0f7b4e4c64f16c4717e96801f5947775519d70adf051b"
      ],
      "transaction": {
        "from": "0x474b4e7fd1a143edea6b77aa845f429d443e6410",
        "to": "0x441df3c4891cb96ab45c87bbafdab3583896274d",
        "gas": "0x651b9",
        "value": "0x0",
        "input": "0x2816e5d3000000000000000000000000f68d9e0faa751ad61e0ed70852798bf9d9c04bf70000000000000000000000000000000000000000000000000000000000000000000000000000000000000000000000000000000000002a5a058fc295ed0000000bd8e1b64191d65316fe2df03e9183f3fd6a434d600fa9827251db3bdc95a3310000000000000000000000000000000000000000000000000000000069ad608800000000000000000000000000000000000000000000000000000000000000c00000000000000000000000000000000000000000000000000000000000000041b8e4bf581702da1cc8542b616ead37df67ee2e5117271b3e322d5084a8d2d44b59211cc9cb702cd5ab63d0f7b4e4c64f16c4717e96801f5947775519d70adf051b00000000000000000000000000000000000000000000000000000000000000",
        "nonce": "0x73",
        "chainId": "0xaa36a7"
      },
      "additionalContracts": [],
      "isFixedGasLimit": false
    }
  ],
  "receipts": [
    {
      "status": "0x1",
      "cumulativeGasUsed": "0x18f6b20",
      "logs": [
        {
          "address": "0xf4f79b481508b5856203ee23c675fbd6e66daeb3",
          "topics": [
            "0x6fd1f3949541cd49d779154387024699bcf742e79f24b3e96b2ae0a30cdd6e94",
            "0x000000000000000000000000474b4e7fd1a143edea6b77aa845f429d443e6410"
          ],
          "data": "0x0000000000000000000000000000000000000000000000d6ac0a2b0552e00000",
          "blockHash": "0xca8ae0284c07020f515af88c7e89994c45448ac8f543748d491b8445ae174afe",
          "blockNumber": "0x9ed0df",
          "blockTimestamp": "0x69ad5284",
          "transactionHash": "0x8760b516732cf2b4ad98ef3dce9d48fe9e7d1990407ec89ea10c52986a4d6b4d",
          "transactionIndex": "0x85",
          "logIndex": "0x14e",
          "removed": false
        },
        {
          "address": "0xf4f79b481508b5856203ee23c675fbd6e66daeb3",
          "topics": [
            "0x9372321d543f1b03b8b743f369a5417b1a683c8d1359cda23f4047834cddbb50",
            "0x000000000000000000000000f68d9e0faa751ad61e0ed70852798bf9d9c04bf7"
          ],
          "data": "0x0000000000000000000000000000000000000000000000d6ac0a2b0552e00000",
          "blockHash": "0xca8ae0284c07020f515af88c7e89994c45448ac8f543748d491b8445ae174afe",
          "blockNumber": "0x9ed0df",
          "blockTimestamp": "0x69ad5284",
          "transactionHash": "0x8760b516732cf2b4ad98ef3dce9d48fe9e7d1990407ec89ea10c52986a4d6b4d",
          "transactionIndex": "0x85",
          "logIndex": "0x14f",
          "removed": false
        },
        {
          "address": "0xe08a7a55b909eb9cd3fed25657716e5bcd7f34ed",
          "topics": [
            "0xc3d58168c5ae7397731d063d5bbf3d657854427343f4c083240f7aacaa2d0f62",
            "0x000000000000000000000000441df3c4891cb96ab45c87bbafdab3583896274d",
            "0x000000000000000000000000474b4e7fd1a143edea6b77aa845f429d443e6410",
            "0x000000000000000000000000f68d9e0faa751ad61e0ed70852798bf9d9c04bf7"
          ],
          "data": "0x0000000000000000000000000000000000000000000000000000000000000000000000000000000000000000000000000000000000002a5a058fc295ed000000",
          "blockHash": "0xca8ae0284c07020f515af88c7e89994c45448ac8f543748d491b8445ae174afe",
          "blockNumber": "0x9ed0df",
          "blockTimestamp": "0x69ad5284",
          "transactionHash": "0x8760b516732cf2b4ad98ef3dce9d48fe9e7d1990407ec89ea10c52986a4d6b4d",
          "transactionIndex": "0x85",
          "logIndex": "0x150",
          "removed": false
        },
        {
          "address": "0x633fe8fc18ddda139a451af51c53ae730d433907",
          "topics": [
            "0xd36cc0768065e66afbd8046663fd4d7c6edcc0c1a3ee54fdd4ece612958ba2db",
            "0x000000000000000000000000474b4e7fd1a143edea6b77aa845f429d443e6410"
          ],
          "data": "0x000000000000000000000000000000000000000000002a5a058fc295ed00000000000000000000000000000000000000000000000000a968163f0a57b4000000",
          "blockHash": "0xca8ae0284c07020f515af88c7e89994c45448ac8f543748d491b8445ae174afe",
          "blockNumber": "0x9ed0df",
          "blockTimestamp": "0x69ad5284",
          "transactionHash": "0x8760b516732cf2b4ad98ef3dce9d48fe9e7d1990407ec89ea10c52986a4d6b4d",
          "transactionIndex": "0x85",
          "logIndex": "0x151",
          "removed": false
        },
        {
          "address": "0x633fe8fc18ddda139a451af51c53ae730d433907",
          "topics": [
            "0x15ca2c58d94a57353778871a512abd76587f09583c3fce118289c2f118794e23",
            "0x000000000000000000000000f68d9e0faa751ad61e0ed70852798bf9d9c04bf7"
          ],
          "data": "0x000000000000000000000000000000000000000000002a5a058fc295ed000000000000000000000000000000000000000000000000002a5a058fc295ed000000",
          "blockHash": "0xca8ae0284c07020f515af88c7e89994c45448ac8f543748d491b8445ae174afe",
          "blockNumber": "0x9ed0df",
          "blockTimestamp": "0x69ad5284",
          "transactionHash": "0x8760b516732cf2b4ad98ef3dce9d48fe9e7d1990407ec89ea10c52986a4d6b4d",
          "transactionIndex": "0x85",
          "logIndex": "0x152",
          "removed": false
        },
        {
          "address": "0xaa2a798a07834d15438f3e50dd361d30ea656cd8",
          "topics": [
            "0x15c759f729890e54ba9fbec58cddba4b65515f5f2c5b01ede4fa2c6841d18de3",
            "0x000000000000000000000000474b4e7fd1a143edea6b77aa845f429d443e6410"
          ],
          "data": "0x000000000000000000000000bb46678a1f6c527bd79ecfbf85332b8ae83ceaf100000000000000000000000000000000000000000000032505262153f6c80000000000000000000000000000000000000000000000000284041e810ff8a00000",
          "blockHash": "0xca8ae0284c07020f515af88c7e89994c45448ac8f543748d491b8445ae174afe",
          "blockNumber": "0x9ed0df",
          "blockTimestamp": "0x69ad5284",
          "transactionHash": "0x8760b516732cf2b4ad98ef3dce9d48fe9e7d1990407ec89ea10c52986a4d6b4d",
          "transactionIndex": "0x85",
          "logIndex": "0x153",
          "removed": false
        },
        {
          "address": "0xaa2a798a07834d15438f3e50dd361d30ea656cd8",
          "topics": [
            "0x15c759f729890e54ba9fbec58cddba4b65515f5f2c5b01ede4fa2c6841d18de3",
            "0x000000000000000000000000f68d9e0faa751ad61e0ed70852798bf9d9c04bf7"
          ],
          "data": "0x000000000000000000000000bb46678a1f6c527bd79ecfbf85332b8ae83ceaf100000000000000000000000000000000000000000000000000000000000000000000000000000000000000000000000000000000000000a10107a043fe280000",
          "blockHash": "0xca8ae0284c07020f515af88c7e89994c45448ac8f543748d491b8445ae174afe",
          "blockNumber": "0x9ed0df",
          "blockTimestamp": "0x69ad5284",
          "transactionHash": "0x8760b516732cf2b4ad98ef3dce9d48fe9e7d1990407ec89ea10c52986a4d6b4d",
          "transactionIndex": "0x85",
          "logIndex": "0x154",
          "removed": false
        },
        {
          "address": "0x441df3c4891cb96ab45c87bbafdab3583896274d",
          "topics": [
            "0xae5a07a3505b203c65f1411fa5ad99b4772094da1a55819234f50b95d01b6634",
            "0x0000000000000000000000000000000000000000000000000000000000000000",
            "0x000000000000000000000000474b4e7fd1a143edea6b77aa845f429d443e6410",
            "0x000000000000000000000000f68d9e0faa751ad61e0ed70852798bf9d9c04bf7"
          ],
          "data": "0x000000000000000000000000000000000000000000002a5a058fc295ed000000000000000000000000000000bb46678a1f6c527bd79ecfbf85332b8ae83ceaf1000000000000000000000000000000000000000000000284041e810ff8a000000000000000000000000000000000000000000000000000a10107a043fe280000",
          "blockHash": "0xca8ae0284c07020f515af88c7e89994c45448ac8f543748d491b8445ae174afe",
          "blockNumber": "0x9ed0df",
          "blockTimestamp": "0x69ad5284",
          "transactionHash": "0x8760b516732cf2b4ad98ef3dce9d48fe9e7d1990407ec89ea10c52986a4d6b4d",
          "transactionIndex": "0x85",
          "logIndex": "0x155",
          "removed": false
        }
      ],
      "logsBloom": "0x00000000000080001020000000000000000000000000000000000000200000800000000000001000010004000000000000000000000000000000000000002000000000000000000000000000000000000000000000000000000020000000000010400000020000000000000000000800000000000000000000000800000000002000000000000000000000000040000000100000000040000000000000000880200000000009000000000000008000000400100000000000020100000800020000000000000000000000001080000001000040000008000000000010020020000000000010000100000800000000000000000400000000800000180000000000",
      "type": "0x2",
      "transactionHash": "0x8760b516732cf2b4ad98ef3dce9d48fe9e7d1990407ec89ea10c52986a4d6b4d",
      "transactionIndex": "0x85",
      "blockHash": "0xca8ae0284c07020f515af88c7e89994c45448ac8f543748d491b8445ae174afe",
      "blockNumber": "0x9ed0df",
      "gasUsed": "0x49334",
      "effectiveGasPrice": "0x49564d37",
      "from": "0x474b4e7fd1a143edea6b77aa845f429d443e6410",
      "to": "0x441df3c4891cb96ab45c87bbafdab3583896274d",
      "contractAddress": null
    }
  ],
  "libraries": [],
  "pending": [],
  "returns": {},
  "timestamp": 1772966533978,
  "chain": 11155111,
  "commit": "eb687bb"
}