{
  "transactions": [
    {
      "hash": "0x70927d0d2eb4676314c393a6d45951c8af3cec5fd1bf2ee357ff668a4e7feaff",
      "transactionType": "CALL",
      "contractName": "ClearingHouse",
      "contractAddress": "0x4433165a25639c9b54eee780637fe4d64b6159cf",
      "function": "transferPosition(bytes32,uint256,uint256,uint256,uint256,bytes)",
      "arguments": [
        "0x000000000000000000000000f68d9e0faa751ad61e0ed70852798bf9d9c04bf7",
        "0",
        "200000000000000000000000",
        "54079669366140240522125779479279287889013478034530336585712026388930075556697",
        "1772810748",
        "0x52e2b9dcb420cf31d3bb440d94771d9a93ed7c37622248cf72eae009fb573f4816c9f3deb36b66cf41a121e4a1eca65e14ad38fb2d6185dbafa388023727241a1c"
      ],
      "transaction": {
        "from": "0x474b4e7fd1a143edea6b77aa845f429d443e6410",
        "to": "0x4433165a25639c9b54eee780637fe4d64b6159cf",
        "gas": "0x70a5b",
        "value": "0x0",
        "input": "0x2816e5d3000000000000000000000000f68d9e0faa751ad61e0ed70852798bf9d9c04bf70000000000000000000000000000000000000000000000000000000000000000000000000000000000000000000000000000000000002a5a058fc295ed000000779002166679bc359739d1409f43cf149d175b1c06ead0c87b787b7efce7fb590000000000000000000000000000000000000000000000000000000069aaf1fc00000000000000000000000000000000000000000000000000000000000000c0000000000000000000000000000000000000000000000000000000000000004152e2b9dcb420cf31d3bb440d94771d9a93ed7c37622248cf72eae009fb573f4816c9f3deb36b66cf41a121e4a1eca65e14ad38fb2d6185dbafa388023727241a1c00000000000000000000000000000000000000000000000000000000000000",
        "nonce": "0x67",
        "chainId": "0xaa36a7"
      },
      "additionalContracts": [],
      "isFixedGasLimit": false
    }
  ],
  "receipts": [
    {
      "status": "0x1",
      "cumulativeGasUsed": "0xef8641",
      "logs": [
        {
          "address": "0x5611665b9c65c127f3b063d821229694b06085cd",
          "topics": [
            "0x6fd1f3949541cd49d779154387024699bcf742e79f24b3e96b2ae0a30cdd6e94",
            "0x000000000000000000000000474b4e7fd1a143edea6b77aa845f429d443e6410"
          ],
          "data": "0x0000000000000000000000000000000000000000000000d6ac0a2b0552e00000",
          "blockHash": "0x3b44a31479bd7275a9690a0eaa0fd14466af7be498dfee11fae7aa2bf528cc8c",
          "blockNumber": "0x9ea440",
          "blockTimestamp": "0x69aae404",
          "transactionHash": "0x70927d0d2eb4676314c393a6d45951c8af3cec5fd1bf2ee357ff668a4e7feaff",
          "transactionIndex": "0x73",
          "logIndex": "0x15f",
          "removed": false
        },
        {
          "address": "0x5611665b9c65c127f3b063d821229694b06085cd",
          "topics": [
            "0x9372321d543f1b03b8b743f369a5417b1a683c8d1359cda23f4047834cddbb50",
            "0x000000000000000000000000f68d9e0faa751ad61e0ed70852798bf9d9c04bf7"
          ],
          "data": "0x0000000000000000000000000000000000000000000000d6ac0a2b0552e00000",
          "blockHash": "0x3b44a31479bd7275a9690a0eaa0fd14466af7be498dfee11fae7aa2bf528cc8c",
          "blockNumber": "0x9ea440",
          "blockTimestamp": "0x69aae404",
          "transactionHash": "0x70927d0d2eb4676314c393a6d45951c8af3cec5fd1bf2ee357ff668a4e7feaff",
          "transactionIndex": "0x73",
          "logIndex": "0x160",
          "removed": false
        },
        {
          "address": "0x55d0220cb7234a6daebed09ad8a11d7b17237c09",
          "topics": [
            "0xc3d58168c5ae7397731d063d5bbf3d657854427343f4c083240f7aacaa2d0f62",
            "0x0000000000000000000000004433165a25639c9b54eee780637fe4d64b6159cf",
            "0x000000000000000000000000474b4e7fd1a143edea6b77aa845f429d443e6410",
            "0x000000000000000000000000f68d9e0faa751ad61e0ed70852798bf9d9c04bf7"
          ],
          "data": "0x0000000000000000000000000000000000000000000000000000000000000000000000000000000000000000000000000000000000002a5a058fc295ed000000",
          "blockHash": "0x3b44a31479bd7275a9690a0eaa0fd14466af7be498dfee11fae7aa2bf528cc8c",
          "blockNumber": "0x9ea440",
          "blockTimestamp": "0x69aae404",
          "transactionHash": "0x70927d0d2eb4676314c393a6d45951c8af3cec5fd1bf2ee357ff668a4e7feaff",
          "transactionIndex": "0x73",
          "logIndex": "0x161",
          "removed": false
        },
        {
          "address": "0x5611665b9c65c127f3b063d821229694b06085cd",
          "topics": [
            "0x69a12ad77691eeb11d143a8223c5c43b77205173541be5a474e08039e98e65e3",
            "0x000000000000000000000000474b4e7fd1a143edea6b77aa845f429d443e6410"
          ],
          "data": "0x000000000000000000000000bb46678a1f6c527bd79ecfbf85332b8ae83ceaf100000000000000000000000000000000000000000000006c6b935b8bbd400000",
          "blockHash": "0x3b44a31479bd7275a9690a0eaa0fd14466af7be498dfee11fae7aa2bf528cc8c",
          "blockNumber": "0x9ea440",
          "blockTimestamp": "0x69aae404",
          "transactionHash": "0x70927d0d2eb4676314c393a6d45951c8af3cec5fd1bf2ee357ff668a4e7feaff",
          "transactionIndex": "0x73",
          "logIndex": "0x162",
          "removed": false
        },
        {
          "address": "0x5611665b9c65c127f3b063d821229694b06085cd",
          "topics": [
            "0x69a12ad77691eeb11d143a8223c5c43b77205173541be5a474e08039e98e65e3",
            "0x000000000000000000000000f68d9e0faa751ad61e0ed70852798bf9d9c04bf7"
          ],
          "data": "0x000000000000000000000000bb46678a1f6c527bd79ecfbf85332b8ae83ceaf1ffffffffffffffffffffffffffffffffffffffffffffff93946ca47442c00000",
          "blockHash": "0x3b44a31479bd7275a9690a0eaa0fd14466af7be498dfee11fae7aa2bf528cc8c",
          "blockNumber": "0x9ea440",
          "blockTimestamp": "0x69aae404",
          "transactionHash": "0x70927d0d2eb4676314c393a6d45951c8af3cec5fd1bf2ee357ff668a4e7feaff",
          "transactionIndex": "0x73",
          "logIndex": "0x163",
          "removed": false
        },
        {
          "address": "0xb5698284eb27d77060828bc4e2b620ba6d9ee6d7",
          "topics": [
            "0xd36cc0768065e66afbd8046663fd4d7c6edcc0c1a3ee54fdd4ece612958ba2db",
            "0x000000000000000000000000474b4e7fd1a143edea6b77aa845f429d443e6410"
          ],
          "data": "0x000000000000000000000000000000000000000000002a5a058fc295ed00000000000000000000000000000000000000000000000000a968163f0a57b4000000",
          "blockHash": "0x3b44a31479bd7275a9690a0eaa0fd14466af7be498dfee11fae7aa2bf528cc8c",
          "blockNumber": "0x9ea440",
          "blockTimestamp": "0x69aae404",
          "transactionHash": "0x70927d0d2eb4676314c393a6d45951c8af3cec5fd1bf2ee357ff668a4e7feaff",
          "transactionIndex": "0x73",
          "logIndex": "0x164",
          "removed": false
        },
        {
          "address": "0xb5698284eb27d77060828bc4e2b620ba6d9ee6d7",
          "topics": [
            "0x15ca2c58d94a57353778871a512abd76587f09583c3fce118289c2f118794e23",
            "0x000000000000000000000000f68d9e0faa751ad61e0ed70852798bf9d9c04bf7"
          ],
          "data": "0x000000000000000000000000000000000000000000002a5a058fc295ed000000000000000000000000000000000000000000000000002a5a058fc295ed000000",
          "blockHash": "0x3b44a31479bd7275a9690a0eaa0fd14466af7be498dfee11fae7aa2bf528cc8c",
          "blockNumber": "0x9ea440",
          "blockTimestamp": "0x69aae404",
          "transactionHash": "0x70927d0d2eb4676314c393a6d45951c8af3cec5fd1bf2ee357ff668a4e7feaff",
          "transactionIndex": "0x73",
          "logIndex": "0x165",
          "removed": false
        },
        {
          "address": "0xeb889a4c328d3c38a19d7a9888f00cfb76fd8c28",
          "topics": [
            "0x15c759f729890e54ba9fbec58cddba4b65515f5f2c5b01ede4fa2c6841d18de3",
            "0x000000000000000000000000474b4e7fd1a143edea6b77aa845f429d443e6410"
          ],
          "data": "0x000000000000000000000000bb46678a1f6c527bd79ecfbf85332b8ae83ceaf100000000000000000000000000000000000000000000032505262153f6c80000000000000000000000000000000000000000000000000284041e810ff8a00000",
          "blockHash": "0x3b44a31479bd7275a9690a0eaa0fd14466af7be498dfee11fae7aa2bf528cc8c",
          "blockNumber": "0x9ea440",
          "blockTimestamp": "0x69aae404",
          "transactionHash": "0x70927d0d2eb4676314c393a6d45951c8af3cec5fd1bf2ee357ff668a4e7feaff",
          "transactionIndex": "0x73",
          "logIndex": "0x166",
          "removed": false
        },
        {
          "address": "0xeb889a4c328d3c38a19d7a9888f00cfb76fd8c28",
          "topics": [
            "0x15c759f729890e54ba9fbec58cddba4b65515f5f2c5b01ede4fa2c6841d18de3",
            "0x000000000000000000000000f68d9e0faa751ad61e0ed70852798bf9d9c04bf7"
          ],
          "data": "0x000000000000000000000000bb46678a1f6c527bd79ecfbf85332b8ae83ceaf100000000000000000000000000000000000000000000000000000000000000000000000000000000000000000000000000000000000000a10107a043fe280000",
          "blockHash": "0x3b44a31479bd7275a9690a0eaa0fd14466af7be498dfee11fae7aa2bf528cc8c",
          "blockNumber": "0x9ea440",
          "blockTimestamp": "0x69aae404",
          "transactionHash": "0x70927d0d2eb4676314c393a6d45951c8af3cec5fd1bf2ee357ff668a4e7feaff",
          "transactionIndex": "0x73",
          "logIndex": "0x167",
          "removed": false
        },
        {
          "address": "0x4433165a25639c9b54eee780637fe4d64b6159cf",
          "topics": [
            "0xae5a07a3505b203c65f1411fa5ad99b4772094da1a55819234f50b95d01b6634",
            "0x0000000000000000000000000000000000000000000000000000000000000000",
            "0x000000000000000000000000474b4e7fd1a143edea6b77aa845f429d443e6410",
            "0x000000000000000000000000f68d9e0faa751ad61e0ed70852798bf9d9c04bf7"
          ],
          "data": "0x000000000000000000000000000000000000000000002a5a058fc295ed000000000000000000000000000000bb46678a1f6c527bd79ecfbf85332b8ae83ceaf1000000000000000000000000000000000000000000000284041e810ff8a000000000000000000000000000000000000000000000000000a10107a043fe280000",
          "blockHash": "0x3b44a31479bd7275a9690a0eaa0fd14466af7be498dfee11fae7aa2bf528cc8c",
          "blockNumber": "0x9ea440",
          "blockTimestamp": "0x69aae404",
          "transactionHash": "0x70927d0d2eb4676314c393a6d45951c8af3cec5fd1bf2ee357ff668a4e7feaff",
          "transactionIndex": "0x73",
          "logIndex": "0x168",
          "removed": false
        }
      ],
      "logsBloom": "0x00000000000000001000000800000000000000000000000000000000000000800000000000008020010004000000000000800000000000000400000000002000000000000000000000000100000000000000000000080000000020000000000010c00000020000000000000000000800000080040000000000000800000000002020000010000000000000000040000000000000000000000000000000000800200200000008000000100000008200000400000008000000000100000000000000000000020000000000001000000001040000000008100000000010000020000000000010000100000800800000000000001000000000000000180000000000",
      "type": "0x2",
      "transactionHash": "0x70927d0d2eb4676314c393a6d45951c8af3cec5fd1bf2ee357ff668a4e7feaff",
      "transactionIndex": "0x73",
      "blockHash": "0x3b44a31479bd7275a9690a0eaa0fd14466af7be498dfee11fae7aa2bf528cc8c",
      "blockNumber": "0x9ea440",
      "gasUsed": "0x4d062",
      "effectiveGasPrice": "0x26bae5f",
      "from": "0x474b4e7fd1a143edea6b77aa845f429d443e6410",
      "to": "0x4433165a25639c9b54eee780637fe4d64b6159cf",
      "contractAddress": null
    }
  ],
  "libraries": [],
  "pending": [],
  "returns": {},
  "timestamp": 1772807173022,
  "chain": 11155111,
  "commit": "abef103"
}