{
  "transactions": [
    {
      "hash": "0x5c445528e084f5ac57eed702c3e3cd3b850338fc4d098f35a8eea4fb5f64c4af",
      "transactionType": "CALL",
      "contractName": "ClearingHouse",
      "contractAddress": "0x591690ed9ff339475d6485f7b71bc031ef9b5afe",
      "function": "transferPosition(bytes32,uint256,uint256,uint256,uint256,bytes)",
      "arguments": [
        "0x000000000000000000000000f68d9e0faa751ad61e0ed70852798bf9d9c04bf7",
        "0",
        "200000000000000000000000",
        "1180234896298295965960050752947570259376832652600998902280513645598400917488",
        "1772809404",
        "0x304a8bab0053abfd229a32e5eff2af34aa69226d3a003235c522ff858fbc031671dd31210df41a23550c72ba9d3969503305530532754038aeb5940fb2a7969e1b"
      ],
      "transaction": {
        "from": "0x474b4e7fd1a143edea6b77aa845f429d443e6410",
        "to": "0x591690ed9ff339475d6485f7b71bc031ef9b5afe",
        "gas": "0x6a607",
        "value": "0x0",
        "input": "0x2816e5d3000000000000000000000000f68d9e0faa751ad61e0ed70852798bf9d9c04bf70000000000000000000000000000000000000000000000000000000000000000000000000000000000000000000000000000000000002a5a058fc295ed000000029bfd415db5d39a9700af5ecc28f0ef58a395a0f5183f1e5fabe2dd2c412ff00000000000000000000000000000000000000000000000000000000069aaecbc00000000000000000000000000000000000000000000000000000000000000c00000000000000000000000000000000000000000000000000000000000000041304a8bab0053abfd229a32e5eff2af34aa69226d3a003235c522ff858fbc031671dd31210df41a23550c72ba9d3969503305530532754038aeb5940fb2a7969e1b00000000000000000000000000000000000000000000000000000000000000",
        "nonce": "0x63",
        "chainId": "0xaa36a7"
      },
      "additionalContracts": [],
      "isFixedGasLimit": false
    }
  ],
  "receipts": [
    {
      "status": "0x1",
      "cumulativeGasUsed": "0x14adf9c",
      "logs": [
        {
          "address": "0x54d168bd60ea85931b1238a6ae17f55eb101fb8e",
          "topics": [
            "0x6fd1f3949541cd49d779154387024699bcf742e79f24b3e96b2ae0a30cdd6e94",
            "0x000000000000000000000000474b4e7fd1a143edea6b77aa845f429d443e6410"
          ],
          "data": "0x0000000000000000000000000000000000000000000000d6ac0a2b0552e00000",
          "blockHash": "0xcde1faa943475791a0401359fd7f0e4640fb586c69fcff91cd095116232d664d",
          "blockNumber": "0x9ea3db",
          "blockTimestamp": "0x69aadec4",
          "transactionHash": "0x5c445528e084f5ac57eed702c3e3cd3b850338fc4d098f35a8eea4fb5f64c4af",
          "transactionIndex": "0xc2",
          "logIndex": "0x1d2",
          "removed": false
        },
        {
          "address": "0x54d168bd60ea85931b1238a6ae17f55eb101fb8e",
          "topics": [
            "0x9372321d543f1b03b8b743f369a5417b1a683c8d1359cda23f4047834cddbb50",
            "0x000000000000000000000000f68d9e0faa751ad61e0ed70852798bf9d9c04bf7"
          ],
          "data": "0x0000000000000000000000000000000000000000000000d6ac0a2b0552e00000",
          "blockHash": "0xcde1faa943475791a0401359fd7f0e4640fb586c69fcff91cd095116232d664d",
          "blockNumber": "0x9ea3db",
          "blockTimestamp": "0x69aadec4",
          "transactionHash": "0x5c445528e084f5ac57eed702c3e3cd3b850338fc4d098f35a8eea4fb5f64c4af",
          "transactionIndex": "0xc2",
          "logIndex": "0x1d3",
          "removed": false
        },
        {
          "address": "0x26833f5453cfdcf0295b566058792064c3906b03",
          "topics": [
            "0xc3d58168c5ae7397731d063d5bbf3d657854427343f4c083240f7aacaa2d0f62",
            "0x000000000000000000000000591690ed9ff339475d6485f7b71bc031ef9b5afe",
            "0x000000000000000000000000474b4e7fd1a143edea6b77aa845f429d443e6410",
            "0x000000000000000000000000f68d9e0faa751ad61e0ed70852798bf9d9c04bf7"
          ],
          "data": "0x0000000000000000000000000000000000000000000000000000000000000000000000000000000000000000000000000000000000002a5a058fc295ed000000",
          "blockHash": "0xcde1faa943475791a0401359fd7f0e4640fb586c69fcff91cd095116232d664d",
          "blockNumber": "0x9ea3db",
          "blockTimestamp": "0x69aadec4",
          "transactionHash": "0x5c445528e084f5ac57eed702c3e3cd3b850338fc4d098f35a8eea4fb5f64c4af",
          "transactionIndex": "0xc2",
          "logIndex": "0x1d4",
          "removed": false
        },
        {
          "address": "0x54d168bd60ea85931b1238a6ae17f55eb101fb8e",
          "topics": [
            "0x69a12ad77691eeb11d143a8223c5c43b77205173541be5a474e08039e98e65e3",
            "0x000000000000000000000000474b4e7fd1a143edea6b77aa845f429d443e6410"
          ],
          "data": "0x000000000000000000000000bb46678a1f6c527bd79ecfbf85332b8ae83ceaf100000000000000000000000000000000000000000000006c6b935b8bbd400000",
          "blockHash": "0xcde1faa943475791a0401359fd7f0e4640fb586c69fcff91cd095116232d664d",
          "blockNumber": "0x9ea3db",
          "blockTimestamp": "0x69aadec4",
          "transactionHash": "0x5c445528e084f5ac57eed702c3e3cd3b850338fc4d098f35a8eea4fb5f64c4af",
          "transactionIndex": "0xc2",
          "logIndex": "0x1d5",
          "removed": false
        },
        {
          "address": "0x54d168bd60ea85931b1238a6ae17f55eb101fb8e",
          "topics": [
            "0x69a12ad77691eeb11d143a8223c5c43b77205173541be5a474e08039e98e65e3",
            "0x000000000000000000000000f68d9e0faa751ad61e0ed70852798bf9d9c04bf7"
          ],
          "data": "0x000000000000000000000000bb46678a1f6c527bd79ecfbf85332b8ae83ceaf1ffffffffffffffffffffffffffffffffffffffffffffff93946ca47442c00000",
          "blockHash": "0xcde1faa943475791a0401359fd7f0e4640fb586c69fcff91cd095116232d664d",
          "blockNumber": "0x9ea3db",
          "blockTimestamp": "0x69aadec4",
          "transactionHash": "0x5c445528e084f5ac57eed702c3e3cd3b850338fc4d098f35a8eea4fb5f64c4af",
          "transactionIndex": "0xc2",
          "logIndex": "0x1d6",
          "removed": false
        },
        {
          "address": "0x33005c0db4fdb1d768b28941097f5f595124d185",
          "topics": [
            "0xd36cc0768065e66afbd8046663fd4d7c6edcc0c1a3ee54fdd4ece612958ba2db",
            "0x000000000000000000000000474b4e7fd1a143edea6b77aa845f429d443e6410"
          ],
          "data": "0x000000000000000000000000000000000000000000002a5a058fc295ed00000000000000000000000000000000000000000000000000a968163f0a57b4000000",
          "blockHash": "0xcde1faa943475791a0401359fd7f0e4640fb586c69fcff91cd095116232d664d",
          "blockNumber": "0x9ea3db",
          "blockTimestamp": "0x69aadec4",
          "transactionHash": "0x5c445528e084f5ac57eed702c3e3cd3b850338fc4d098f35a8eea4fb5f64c4af",
          "transactionIndex": "0xc2",
          "logIndex": "0x1d7",
          "removed": false
        },
        {
          "address": "0x33005c0db4fdb1d768b28941097f5f595124d185",
          "topics": [
            "0x15ca2c58d94a57353778871a512abd76587f09583c3fce118289c2f118794e23",
            "0x000000000000000000000000f68d9e0faa751ad61e0ed70852798bf9d9c04bf7"
          ],
          "data": "0x000000000000000000000000000000000000000000002a5a058fc295ed000000000000000000000000000000000000000000000000002a5a058fc295ed000000",
          "blockHash": "0xcde1faa943475791a0401359fd7f0e4640fb586c69fcff91cd095116232d664d",
          "blockNumber": "0x9ea3db",
          "blockTimestamp": "0x69aadec4",
          "transactionHash": "0x5c445528e084f5ac57eed702c3e3cd3b850338fc4d098f35a8eea4fb5f64c4af",
          "transactionIndex": "0xc2",
          "logIndex": "0x1d8",
          "removed": false
        },
        {
          "address": "0x914b11a9326a90a8842b53e7bd6ae60de81eb373",
          "topics": [
            "0x15c759f729890e54ba9fbec58cddba4b65515f5f2c5b01ede4fa2c6841d18de3",
            "0x000000000000000000000000474b4e7fd1a143edea6b77aa845f429d443e6410"
          ],
          "data": "0x000000000000000000000000bb46678a1f6c527bd79ecfbf85332b8ae83ceaf100000000000000000000000000000000000000000000032505262153f6c80000000000000000000000000000000000000000000000000284041e810ff8a00000",
          "blockHash": "0xcde1faa943475791a0401359fd7f0e4640fb586c69fcff91cd095116232d664d",
          "blockNumber": "0x9ea3db",
          "blockTimestamp": "0x69aadec4",
          "transactionHash": "0x5c445528e084f5ac57eed702c3e3cd3b850338fc4d098f35a8eea4fb5f64c4af",
          "transactionIndex": "0xc2",
          "logIndex": "0x1d9",
          "removed": false
        },
        {
          "address": "0x914b11a9326a90a8842b53e7bd6ae60de81eb373",
          "topics": [
            "0x15c759f729890e54ba9fbec58cddba4b65515f5f2c5b01ede4fa2c6841d18de3",
            "0x000000000000000000000000f68d9e0faa751ad61e0ed70852798bf9d9c04bf7"
          ],
          "data": "0x000000000000000000000000bb46678a1f6c527bd79ecfbf85332b8ae83ceaf100000000000000000000000000000000000000000000000000000000000000000000000000000000000000000000000000000000000000a10107a043fe280000",
          "blockHash": "0xcde1faa943475791a0401359fd7f0e4640fb586c69fcff91cd095116232d664d",
          "blockNumber": "0x9ea3db",
          "blockTimestamp": "0x69aadec4",
          "transactionHash": "0x5c445528e084f5ac57eed702c3e3cd3b850338fc4d098f35a8eea4fb5f64c4af",
          "transactionIndex": "0xc2",
          "logIndex": "0x1da",
          "removed": false
        },
        {
          "address": "0x591690ed9ff339475d6485f7b71bc031ef9b5afe",
          "topics": [
            "0xae5a07a3505b203c65f1411fa5ad99b4772094da1a55819234f50b95d01b6634",
            "0x0000000000000000000000000000000000000000000000000000000000000000",
            "0x000000000000000000000000474b4e7fd1a143edea6b77aa845f429d443e6410",
            "0x000000000000000000000000f68d9e0faa751ad61e0ed70852798bf9d9c04bf7"
          ],
          "data": "0x000000000000000000000000000000000000000000002a5a058fc295ed000000000000000000000000000000bb46678a1f6c527bd79ecfbf85332b8ae83ceaf1000000000000000000000000000000000000000000000284041e810ff8a000000000000000000000000000000000000000000000000000a10107a043fe280000",
          "blockHash": "0xcde1faa943475791a0401359fd7f0e4640fb586c69fcff91cd095116232d664d",
          "blockNumber": "0x9ea3db",
          "blockTimestamp": "0x69aadec4",
          "transactionHash": "0x5c445528e084f5ac57eed702c3e3cd3b850338fc4d098f35a8eea4fb5f64c4af",
          "transactionIndex": "0xc2",
          "logIndex": "0x1db",
          "removed": false
        }
      ],
      "logsBloom": "0x00000000000000001000000000000000000000000100000000000040000000800000000000800000010004000200000000840000000000000400000002002000000000000000020000010000000020000000000000080000020020000000000010400000020000000000000000000800000000000000000000000800000000082000000000000000200000000040000000000000000000400000000000000800240000000008000000000000008000000400000000000000000100000000000000000000000000000000001000000401000020000008000000000010000020400000000010000100000800000000000000000000000000000000180000000000",
      "type": "0x2",
      "transactionHash": "0x5c445528e084f5ac57eed702c3e3cd3b850338fc4d098f35a8eea4fb5f64c4af",
      "transactionIndex": "0xc2",
      "blockHash": "0xcde1faa943475791a0401359fd7f0e4640fb586c69fcff91cd095116232d664d",
      "blockNumber": "0x9ea3db",
      "gasUsed": "0x4d03e",
      "effectiveGasPrice": "0x20095f",
      "from": "0x474b4e7fd1a143edea6b77aa845f429d443e6410",
      "to": "0x591690ed9ff339475d6485f7b71bc031ef9b5afe",
      "contractAddress": null
    }
  ],
  "libraries": [],
  "pending": [],
  "returns": {},
  "timestamp": 1772805828658,
  "chain": 11155111,
  "commit": "bea2e8d"
}