{
  "transactions": [
    {
      "hash": "0xbf92afb59cfd341cf2c1764364bcc98a54f4c021be59fbe1f53d14a33a3da7ff",
      "transactionType": "CALL",
      "contractName": "ClearingHouse",
      "contractAddress": "0x5e3c9ea10cf8b0f0bdebe2ec051a0a7b2c62b3d0",
      "function": "transferPosition(bytes32,uint256,uint256,uint256,uint256,bytes)",
      "arguments": [
        "0x000000000000000000000000f68d9e0faa751ad61e0ed70852798bf9d9c04bf7",
        "0",
        "200000000000000000000000",
        "26836921178665906925066074054977321884515156609397602086876803615855530265357",
        "1772968212",
        "0xbdf2390518eed7fa8f5b3b6b807d9567d83a6bbf33293780df2bd9de075f2f847db02d9689a5a3438a94625179e8fdd25dc27e59c6144b0956dd2b00cf7531441b"
      ],
      "transaction": {
        "from": "0x474b4e7fd1a143edea6b77aa845f429d443e6410",
        "to": "0x5e3c9ea10cf8b0f0bdebe2ec051a0a7b2c62b3d0",
        "gas": "0x65197",
        "value": "0x0",
        "input": "0x2816e5d3000000000000000000000000f68d9e0faa751ad61e0ed70852798bf9d9c04bf70000000000000000000000000000000000000000000000000000000000000000000000000000000000000000000000000000000000002a5a058fc295ed0000003b5528bb03a355bd3c6df7f38180e154fce2d93e780302e6782c00611ab0cb0d0000000000000000000000000000000000000000000000000000000069ad591400000000000000000000000000000000000000000000000000000000000000c00000000000000000000000000000000000000000000000000000000000000041bdf2390518eed7fa8f5b3b6b807d9567d83a6bbf33293780df2bd9de075f2f847db02d9689a5a3438a94625179e8fdd25dc27e59c6144b0956dd2b00cf7531441b00000000000000000000000000000000000000000000000000000000000000",
        "nonce": "0x6f",
        "chainId": "0xaa36a7"
      },
      "additionalContracts": [],
      "isFixedGasLimit": false
    }
  ],
  "receipts": [
    {
      "status": "0x1",
      "cumulativeGasUsed": "0x1d8ed8a",
      "logs": [
        {
          "address": "0xd47395d178492f3b1bc36b7dddfde93e54025aa6",
          "topics": [
            "0x6fd1f3949541cd49d779154387024699bcf742e79f24b3e96b2ae0a30cdd6e94",
            "0x000000000000000000000000474b4e7fd1a143edea6b77aa845f429d443e6410"
          ],
          "data": "0x0000000000000000000000000000000000000000000000d6ac0a2b0552e00000",
          "blockHash": "0x51a6f658606d2bf91267ced5eb0a0cbc65dd7f04abb62f6e38a54f069d5d8bd5",
          "blockNumber": "0x9ed055",
          "blockTimestamp": "0x69ad4b1c",
          "transactionHash": "0xbf92afb59cfd341cf2c1764364bcc98a54f4c021be59fbe1f53d14a33a3da7ff",
          "transactionIndex": "0x85",
          "logIndex": "0x164",
          "removed": false
        },
        {
          "address": "0xd47395d178492f3b1bc36b7dddfde93e54025aa6",
          "topics": [
            "0x9372321d543f1b03b8b743f369a5417b1a683c8d1359cda23f4047834cddbb50",
            "0x000000000000000000000000f68d9e0faa751ad61e0ed70852798bf9d9c04bf7"
          ],
          "data": "0x0000000000000000000000000000000000000000000000d6ac0a2b0552e00000",
          "blockHash": "0x51a6f658606d2bf91267ced5eb0a0cbc65dd7f04abb62f6e38a54f069d5d8bd5",
          "blockNumber": "0x9ed055",
          "blockTimestamp": "0x69ad4b1c",
          "transactionHash": "0xbf92afb59cfd341cf2c1764364bcc98a54f4c021be59fbe1f53d14a33a3da7ff",
          "transactionIndex": "0x85",
          "logIndex": "0x165",
          "removed": false
        },
        {
          "address": "0x8bf8eeb98ddb2d5d34efce2b9fb4b6afb5428865",
          "topics": [
            "0xc3d58168c5ae7397731d063d5bbf3d657854427343f4c083240f7aacaa2d0f62",
            "0x0000000000000000000000005e3c9ea10cf8b0f0bdebe2ec051a0a7b2c62b3d0",
            "0x000000000000000000000000474b4e7fd1a143edea6b77aa845f429d443e6410",
            "0x000000000000000000000000f68d9e0faa751ad61e0ed70852798bf9d9c04bf7"
          ],
          "data": "0x0000000000000000000000000000000000000000000000000000000000000000000000000000000000000000000000000000000000002a5a058fc295ed000000",
          "blockHash": "0x51a6f658606d2bf91267ced5eb0a0cbc65dd7f04abb62f6e38a54f069d5d8bd5",
          "blockNumber": "0x9ed055",
          "blockTimestamp": "0x69ad4b1c",
          "transactionHash": "0xbf92afb59cfd341cf2c1764364bcc98a54f4c021be59fbe1f53d14a33a3da7ff",
          "transactionIndex": "0x85",
          "logIndex": "0x166",
          "removed": false
        },
        {
          "address": "0x59a1887476faf217c66ddd2d666a3bd72ad57d80",
          "topics": [
            "0xd36cc0768065e66afbd8046663fd4d7c6edcc0c1a3ee54fdd4ece612958ba2db",
            "0x000000000000000000000000474b4e7fd1a143edea6b77aa845f429d443e6410"
          ],
          "data": "0x000000000000000000000000000000000000000000002a5a058fc295ed00000000000000000000000000000000000000000000000000a968163f0a57b4000000",
          "blockHash": "0x51a6f658606d2bf91267ced5eb0a0cbc65dd7f04abb62f6e38a54f069d5d8bd5",
          "blockNumber": "0x9ed055",
          "blockTimestamp": "0x69ad4b1c",
          "transactionHash": "0xbf92afb59cfd341cf2c1764364bcc98a54f4c021be59fbe1f53d14a33a3da7ff",
          "transactionIndex": "0x85",
          "logIndex": "0x167",
          "removed": false
        },
        {
          "address": "0x59a1887476faf217c66ddd2d666a3bd72ad57d80",
          "topics": [
            "0x15ca2c58d94a57353778871a512abd76587f09583c3fce118289c2f118794e23",
            "0x000000000000000000000000f68d9e0faa751ad61e0ed70852798bf9d9c04bf7"
          ],
          "data": "0x000000000000000000000000000000000000000000002a5a058fc295ed000000000000000000000000000000000000000000000000002a5a058fc295ed000000",
          "blockHash": "0x51a6f658606d2bf91267ced5eb0a0cbc65dd7f04abb62f6e38a54f069d5d8bd5",
          "blockNumber": "0x9ed055",
          "blockTimestamp": "0x69ad4b1c",
          "transactionHash": "0xbf92afb59cfd341cf2c1764364bcc98a54f4c021be59fbe1f53d14a33a3da7ff",
          "transactionIndex": "0x85",
          "logIndex": "0x168",
          "removed": false
        },
        {
          "address": "0xc1b1775bb34ef997bd5527c42e1e6d8757492b64",
          "topics": [
            "0x15c759f729890e54ba9fbec58cddba4b65515f5f2c5b01ede4fa2c6841d18de3",
            "0x000000000000000000000000474b4e7fd1a143edea6b77aa845f429d443e6410"
          ],
          "data": "0x000000000000000000000000bb46678a1f6c527bd79ecfbf85332b8ae83ceaf100000000000000000000000000000000000000000000032505262153f6c80000000000000000000000000000000000000000000000000284041e810ff8a00000",
          "blockHash": "0x51a6f658606d2bf91267ced5eb0a0cbc65dd7f04abb62f6e38a54f069d5d8bd5",
          "blockNumber": "0x9ed055",
          "blockTimestamp": "0x69ad4b1c",
          "transactionHash": "0xbf92afb59cfd341cf2c1764364bcc98a54f4c021be59fbe1f53d14a33a3da7ff",
          "transactionIndex": "0x85",
          "logIndex": "0x169",
          "removed": false
        },
        {
          "address": "0xc1b1775bb34ef997bd5527c42e1e6d8757492b64",
          "topics": [
            "0x15c759f729890e54ba9fbec58cddba4b65515f5f2c5b01ede4fa2c6841d18de3",
            "0x000000000000000000000000f68d9e0faa751ad61e0ed70852798bf9d9c04bf7"
          ],
          "data": "0x000000000000000000000000bb46678a1f6c527bd79ecfbf85332b8ae83ceaf100000000000000000000000000000000000000000000000000000000000000000000000000000000000000000000000000000000000000a10107a043fe280000",
          "blockHash": "0x51a6f658606d2bf91267ced5eb0a0cbc65dd7f04abb62f6e38a54f069d5d8bd5",
          "blockNumber": "0x9ed055",
          "blockTimestamp": "0x69ad4b1c",
          "transactionHash": "0xbf92afb59cfd341cf2c1764364bcc98a54f4c021be59fbe1f53d14a33a3da7ff",
          "transactionIndex": "0x85",
          "logIndex": "0x16a",
          "removed": false
        },
        {
          "address": "0x5e3c9ea10cf8b0f0bdebe2ec051a0a7b2c62b3d0",
          "topics": [
            "0xae5a07a3505b203c65f1411fa5ad99b4772094da1a55819234f50b95d01b6634",
            "0x0000000000000000000000000000000000000000000000000000000000000000",
            "0x000000000000000000000000474b4e7fd1a143edea6b77aa845f429d443e6410",
            "0x000000000000000000000000f68d9e0faa751ad61e0ed70852798bf9d9c04bf7"
          ],
          "data": "0x000000000000000000000000000000000000000000002a5a058fc295ed000000000000000000000000000000bb46678a1f6c527bd79ecfbf85332b8ae83ceaf1000000000000000000000000000000000000000000000284041e810ff8a000000000000000000000000000000000000000000000000000a10107a043fe280000",
          "blockHash": "0x51a6f658606d2bf91267ced5eb0a0cbc65dd7f04abb62f6e38a54f069d5d8bd5",
          "blockNumber": "0x9ed055",
          "blockTimestamp": "0x69ad4b1c",
          "transactionHash": "0xbf92afb59cfd341cf2c1764364bcc98a54f4c021be59fbe1f53d14a33a3da7ff",
          "transactionIndex": "0x85",
          "logIndex": "0x16b",
          "removed": false
        }
      ],
      "logsBloom": "0x00000000800000001000000000000000000000000000000000080000040000840000000010000000010006000000000000000002200000002000000000002000000000000000000000000000040000000000000000000000000020000000024010400000020000000000000000000800000000000000000000000800000000002000000000000000000000000040000000000000000000000000000000000800200000000008400000000080008000000408000000000000000100000000400000000000000000000000001000000001000000000008000010000010000020000000000010200100000800000000000000000000000000000000180000000000",
      "type": "0x2",
      "transactionHash": "0xbf92afb59cfd341cf2c1764364bcc98a54f4c021be59fbe1f53d14a33a3da7ff",
      "transactionIndex": "0x85",
      "blockHash": "0x51a6f658606d2bf91267ced5eb0a0cbc65dd7f04abb62f6e38a54f069d5d8bd5",
      "blockNumber": "0x9ed055",
      "gasUsed": "0x4931c",
      "effectiveGasPrice": "0x37ac7f9f",
      "from": "0x474b4e7fd1a143edea6b77aa845f429d443e6410",
      "to": "0x5e3c9ea10cf8b0f0bdebe2ec051a0a7b2c62b3d0",
      "contractAddress": null
    }
  ],
  "libraries": [],
  "pending": [],
  "returns": {},
  "timestamp": 1772964637381,
  "chain": 11155111,
  "commit": "eb687bb"
}