{
  "transactions": [
    {
      "hash": "0x101452f098766e297135216d7950aaef5f412853ce1a52d080d793533171853b",
      "transactionType": "CALL",
      "contractName": null,
      "contractAddress": "0xbb46678a1f6c527bd79ecfbf85332b8ae83ceaf1",
      "function": "approve(address,uint256)",
      "arguments": [
        "0x786a7AA413A9c5CFc3DbA01843Df632D5225508c",
        "4000000000000000000000000"
      ],
      "transaction": {
        "from": "0x474b4e7fd1a143edea6b77aa845f429d443e6410",
        "to": "0xbb46678a1f6c527bd79ecfbf85332b8ae83ceaf1",
        "gas": "0xfd53",
        "value": "0x0",
        "input": "0x095ea7b3000000000000000000000000786a7aa413a9c5cfc3dba01843df632d5225508c000000000000000000000000000000000000000000034f086f3b33b684000000",
        "nonce": "0x4",
        "chainId": "0xaa36a7"
      },
      "additionalContracts": [],
      "isFixedGasLimit": false
    },
    {
      "hash": "0x88a60d074f2564c478bae08da89df6b1f33f48afd281dc3ada220997bd723ace",
      "transactionType": "CALL",
      "contractName": "MarginVault",
      "contractAddress": "0x786a7aa413a9c5cfc3dba01843df632d5225508c",
      "function": "depositMargin(bytes32,address,uint256)",
      "arguments": [
        "0x0000000000000000000000000000000000000000000000000000000000000001",
        "0xbb46678a1F6C527bD79eCFBF85332B8Ae83ceaf1",
        "4000000000000000000000000"
      ],
      "transaction": {
        "from": "0x474b4e7fd1a143edea6b77aa845f429d443e6410",
        "to": "0x786a7aa413a9c5cfc3dba01843df632d5225508c",
        "gas": "0x32252",
        "value": "0x0",
        "input": "0x6812d3150000000000000000000000000000000000000000000000000000000000000001000000000000000000000000bb46678a1f6c527bd79ecfbf85332b8ae83ceaf1000000000000000000000000000000000000000000034f086f3b33b684000000",
        "nonce": "0x5",
        "chainId": "0xaa36a7"
      },
      "additionalContracts": [],
      "isFixedGasLimit": false
    },
    {
      "hash": "0xa049d882e1af9cd2d3e059ca4132ebec950ff163c1cb7312dff955ac5c6fca97",
      "transactionType": "CALL",
      "contractName": null,
      "contractAddress": "0xbb46678a1f6c527bd79ecfbf85332b8ae83ceaf1",
      "function": "approve(address,uint256)",
      "arguments": [
        "0x786a7AA413A9c5CFc3DbA01843Df632D5225508c",
        "4000000000000000000000000"
      ],
      "transaction": {
        "from": "0xf68d9e0faa751ad61e0ed70852798bf9d9c04bf7",
        "to": "0xbb46678a1f6c527bd79ecfbf85332b8ae83ceaf1",
        "gas": "0xfd53",
        "value": "0x0",
        "input": "0x095ea7b3000000000000000000000000786a7aa413a9c5cfc3dba01843df632d5225508c000000000000000000000000000000000000000000034f086f3b33b684000000",
        "nonce": "0x2",
        "chainId": "0xaa36a7"
      },
      "additionalContracts": [],
      "isFixedGasLimit": false
    },
    {
      "hash": "0x04dea3b3aedb703aa6dc293b992a8394d85289b0e926e4c05640ce1cf48985dd",
      "transactionType": "CALL",
      "contractName": "MarginVault",
      "contractAddress": "0x786a7aa413a9c5cfc3dba01843df632d5225508c",
      "function": "depositMargin(bytes32,address,uint256)",
      "arguments": [
        "0x0000000000000000000000000000000000000000000000000000000000000002",
        "0xbb46678a1F6C527bD79eCFBF85332B8Ae83ceaf1",
        "4000000000000000000000000"
      ],
      "transaction": {
        "from": "0xf68d9e0faa751ad61e0ed70852798bf9d9c04bf7",
        "to": "0x786a7aa413a9c5cfc3dba01843df632d5225508c",
        "gas": "0x2997b",
        "value": "0x0",
        "input": "0x6812d3150000000000000000000000000000000000000000000000000000000000000002000000000000000000000000bb46678a1f6c527bd79ecfbf85332b8ae83ceaf1000000000000000000000000000000000000000000034f086f3b33b684000000",
        "nonce": "0x3",
        "chainId": "0xaa36a7"
      },
      "additionalContracts": [],
      "isFixedGasLimit": false
    }
  ],
  "receipts": [
    {
      "status": "0x1",
      "cumulativeGasUsed": "0x147d1c9",
      "logs": [
        {
          "address": "0xbb46678a1f6c527bd79ecfbf85332b8ae83ceaf1",
          "topics": [
            "0x8c5be1e5ebec7d5bd14f71427d1e84f3dd0314c0f7b2291e5b200ac8c7c3b925",
            "0x000000000000000000000000474b4e7fd1a143edea6b77aa845f429d443e6410",
            "0x000000000000000000000000786a7aa413a9c5cfc3dba01843df632d5225508c"
          ],
          "data": "0x000000000000000000000000000000000000000000034f086f3b33b684000000",
          "blockHash": "0x15681fa73b68dc77276a75b2729b1bed38050f61588de08516f8c42f6113ef6a",
          "blockNumber": "0x9d9375",
          "blockTimestamp": "0x699d90f8",
          "transactionHash": "0x101452f098766e297135216d7950aaef5f412853ce1a52d080d793533171853b",
          "transactionIndex": "0x9b",
          "logIndex": "0x198",
          "removed": false
        }
      ],
      "logsBloom": "0x00000000000000000000000000000000000000000000000000000000000000000000000000000000000000000000000000000000000001000000000000200000000000000000000000000000000000000000000000000000000000000000000000400000000000000000000000000000000000000000000000020000000000000100000008000000000000000000000000000000000000000100000000000000020000000000000000000000000000000000000000000000000100000000000000000000000000000000000000000000000000008000000000000010000000000010000000000000000000000000000000000000000000000000000000000000",
      "type": "0x2",
      "transactionHash": "0x101452f098766e297135216d7950aaef5f412853ce1a52d080d793533171853b",
      "transactionIndex": "0x9b",
      "blockHash": "0x15681fa73b68dc77276a75b2729b1bed38050f61588de08516f8c42f6113ef6a",
      "blockNumber": "0x9d9375",
      "gasUsed": "0xb768",
      "effectiveGasPrice": "0xf424e",
      "from": "0x474b4e7fd1a143edea6b77aa845f429d443e6410",
      "to": "0xbb46678a1f6c527bd79ecfbf85332b8ae83ceaf1",
      "contractAddress": null
    },
    {
      "status": "0x1",
      "cumulativeGasUsed": "0xfb42e9",
      "logs": [
        {
          "address": "0xbb46678a1f6c527bd79ecfbf85332b8ae83ceaf1",
          "topics": [
            "0xddf252ad1be2c89b69c2b068fc378daa952ba7f163c4a11628f55a4df523b3ef",
            "0x000000000000000000000000474b4e7fd1a143edea6b77aa845f429d443e6410",
            "0x000000000000000000000000786a7aa413a9c5cfc3dba01843df632d5225508c"
          ],
          "data": "0x000000000000000000000000000000000000000000034f086f3b33b684000000",
          "blockHash": "0xe77d412c6790555c82638d9aaeb1c6725c85618c953480f6f62b41890cb894a2",
          "blockNumber": "0x9d9376",
          "blockTimestamp": "0x699d9104",
          "transactionHash": "0x88a60d074f2564c478bae08da89df6b1f33f48afd281dc3ada220997bd723ace",
          "transactionIndex": "0x73",
          "logIndex": "0xee",
          "removed": false
        },
        {
          "address": "0x786a7aa413a9c5cfc3dba01843df632d5225508c",
          "topics": [
            "0x30f6180e248310ab0c789da3026fbba7390872be072cfc5b3c20733f3a980c9e",
            "0x0000000000000000000000000000000000000000000000000000000000000001",
            "0x000000000000000000000000bb46678a1f6c527bd79ecfbf85332b8ae83ceaf1"
          ],
          "data": "0x000000000000000000000000000000000000000000034f086f3b33b684000000",
          "blockHash": "0xe77d412c6790555c82638d9aaeb1c6725c85618c953480f6f62b41890cb894a2",
          "blockNumber": "0x9d9376",
          "blockTimestamp": "0x699d9104",
          "transactionHash": "0x88a60d074f2564c478bae08da89df6b1f33f48afd281dc3ada220997bd723ace",
          "transactionIndex": "0x73",
          "logIndex": "0xef",
          "removed": false
        }
      ],
      "logsBloom": "0x00000000000000000000000000000000000000000000000000000000000000000000000000000000000000000000000000000400000001000000000000040001000000000000000000000008000000000000000000040000000000000000000000400000000000000000000000000000000000000000000000020010000000000100000008000001000000000000000000000000000000000100000000000000000000000000000000000000000000000000000040000000000100000000000000000002000001000000000000000001000800008000000000000010000040000000000000000000000000000000000000000010000000000000000400000000",
      "type": "0x2",
      "transactionHash": "0x88a60d074f2564c478bae08da89df6b1f33f48afd281dc3ada220997bd723ace",
      "transactionIndex": "0x73",
      "blockHash": "0xe77d412c6790555c82638d9aaeb1c6725c85618c953480f6f62b41890cb894a2",
      "blockNumber": "0x9d9376",
      "gasUsed": "0x22499",
      "effectiveGasPrice": "0xf424e",
      "from": "0x474b4e7fd1a143edea6b77aa845f429d443e6410",
      "to": "0x786a7aa413a9c5cfc3dba01843df632d5225508c",
      "contractAddress": null
    },
    {
      "status": "0x1",
      "cumulativeGasUsed": "0x86aa43",
      "logs": [
        {
          "address": "0xbb46678a1f6c527bd79ecfbf85332b8ae83ceaf1",
          "topics": [
            "0x8c5be1e5ebec7d5bd14f71427d1e84f3dd0314c0f7b2291e5b200ac8c7c3b925",
            "0x000000000000000000000000f68d9e0faa751ad61e0ed70852798bf9d9c04bf7",
            "0x000000000000000000000000786a7aa413a9c5cfc3dba01843df632d5225508c"
          ],
          "data": "0x000000000000000000000000000000000000000000034f086f3b33b684000000",
          "blockHash": "0xf76b31732f3355e488333af392ee93514393ff5002c2fb3bdafef51a92e61550",
          "blockNumber": "0x9d9377",
          "blockTimestamp": "0x699d9110",
          "transactionHash": "0xa049d882e1af9cd2d3e059ca4132ebec950ff163c1cb7312dff955ac5c6fca97",
          "transactionIndex": "0x5b",
          "logIndex": "0xb2",
          "removed": false
        }
      ],
      "logsBloom": "0x00000000000000000000000000000000000000000000000000000000000000800000000000000000000000000000000000000000000001000000000000200000000000000000000000000000000000000000000000000000000000000000000000000000000000000000000000000000000000000000000000020000000000000100000008000000000000000000000000000000000000000100000000000000020000000000000000000000000000000400000000000000000000000000000000000000000000000000000000000001000000008000000000000000000000000010000000000000000000000000000000000000000000000000000000000000",
      "type": "0x2",
      "transactionHash": "0xa049d882e1af9cd2d3e059ca4132ebec950ff163c1cb7312dff955ac5c6fca97",
      "transactionIndex": "0x5b",
      "blockHash": "0xf76b31732f3355e488333af392ee93514393ff5002c2fb3bdafef51a92e61550",
      "blockNumber": "0x9d9377",
      "gasUsed": "0xb768",
      "effectiveGasPrice": "0xf424e",
      "from": "0xf68d9e0faa751ad61e0ed70852798bf9d9c04bf7",
      "to": "0xbb46678a1f6c527bd79ecfbf85332b8ae83ceaf1",
      "contractAddress": null
    },
    {
      "status": "0x1",
      "cumulativeGasUsed": "0xc0e304",
      "logs": [
        {
          "address": "0xbb46678a1f6c527bd79ecfbf85332b8ae83ceaf1",
          "topics": [
            "0xddf252ad1be2c89b69c2b068fc378daa952ba7f163c4a11628f55a4df523b3ef",
            "0x000000000000000000000000f68d9e0faa751ad61e0ed70852798bf9d9c04bf7",
            "0x000000000000000000000000786a7aa413a9c5cfc3dba01843df632d5225508c"
          ],
          "data": "0x000000000000000000000000000000000000000000034f086f3b33b684000000",
          "blockHash": "0x8188337a08114f6a528856ac18b9296392b472a73f98e3db469101d49cb9cfda",
          "blockNumber": "0x9d9378",
          "blockTimestamp": "0x699d911c",
          "transactionHash": "0x04dea3b3aedb703aa6dc293b992a8394d85289b0e926e4c05640ce1cf48985dd",
          "transactionIndex": "0x74",
          "logIndex": "0x109",
          "removed": false
        },
        {
          "address": "0x786a7aa413a9c5cfc3dba01843df632d5225508c",
          "topics": [
            "0x30f6180e248310ab0c789da3026fbba7390872be072cfc5b3c20733f3a980c9e",
            "0x0000000000000000000000000000000000000000000000000000000000000002",
            "0x000000000000000000000000bb46678a1f6c527bd79ecfbf85332b8ae83ceaf1"
          ],
          "data": "0x000000000000000000000000000000000000000000034f086f3b33b684000000",
          "blockHash": "0x8188337a08114f6a528856ac18b9296392b472a73f98e3db469101d49cb9cfda",
          "blockNumber": "0x9d9378",
          "blockTimestamp": "0x699d911c",
          "transactionHash": "0x04dea3b3aedb703aa6dc293b992a8394d85289b0e926e4c05640ce1cf48985dd",
          "transactionIndex": "0x74",
          "logIndex": "0x10a",
          "removed": false
        }
      ],
      "logsBloom": "0x04000000000000000000000000000000000000000000000000000000000000800000000000000000000000000000000000000400000001000000000000000001000000000000000000000008000000000000000000000000000000000000000000000000000000000000000000000000000000000000000000020010000000000100000008000001000000000000000000000000000000000100000000000000000000000000000000000100000000000400000040000000000000000000000000000002000001000000000000000001000800008000000000000000000000000000000000000000000000000000000000000010008000000000000400000000",
      "type": "0x2",
      "transactionHash": "0x04dea3b3aedb703aa6dc293b992a8394d85289b0e926e4c05640ce1cf48985dd",
      "transactionIndex": "0x74",
      "blockHash": "0x8188337a08114f6a528856ac18b9296392b472a73f98e3db469101d49cb9cfda",
      "blockNumber": "0x9d9378",
      "gasUsed": "0x1e1cd",
      "effectiveGasPrice": "0xf424d",
      "from": "0xf68d9e0faa751ad61e0ed70852798bf9d9c04bf7",
      "to": "0x786a7aa413a9c5cfc3dba01843df632d5225508c",
      "contractAddress": null
    }
  ],
  "libraries": [],
  "pending": [],
  "returns": {},
  "timestamp": 1771933981369,
  "chain": 11155111,
  "commit": "4c27df4"
}