{
  "transactions": [
    {
      "hash": "0xab8ff676ffa9bc8075dbeb1e468e34786cb568da60ae84abe7d172ba10960e1d",
      "transactionType": "CALL",
      "contractName": null,
      "contractAddress": "0xbb46678a1f6c527bd79ecfbf85332b8ae83ceaf1",
      "function": "approve(address,uint256)",
      "arguments": [
        "0x70715Ae141e90Aff912f43676b762E3473Fc0f1e",
        "4000000000000000000000000"
      ],
      "transaction": {
        "from": "0x474b4e7fd1a143edea6b77aa845f429d443e6410",
        "to": "0xbb46678a1f6c527bd79ecfbf85332b8ae83ceaf1",
        "gas": "0xfd53",
        "value": "0x0",
        "input": "0x095ea7b300000000000000000000000070715ae141e90aff912f43676b762e3473fc0f1e000000000000000000000000000000000000000000034f086f3b33b684000000",
        "nonce": "0xa",
        "chainId": "0xaa36a7"
      },
      "additionalContracts": [],
      "isFixedGasLimit": false
    },
    {
      "hash": "0xdc6340a83179ce88b2d528db0d118215c39b4f1766be67df08297914d2da31a4",
      "transactionType": "CALL",
      "contractName": null,
      "contractAddress": "0x70715ae141e90aff912f43676b762e3473fc0f1e",
      "function": "depositMargin(bytes32,address,uint256)",
      "arguments": [
        "0x0000000000000000000000000000000000000000000000000000000000000001",
        "0xbb46678a1F6C527bD79eCFBF85332B8Ae83ceaf1",
        "4000000000000000000000000"
      ],
      "transaction": {
        "from": "0x474b4e7fd1a143edea6b77aa845f429d443e6410",
        "to": "0x70715ae141e90aff912f43676b762e3473fc0f1e",
        "gas": "0x32252",
        "value": "0x0",
        "input": "0x6812d3150000000000000000000000000000000000000000000000000000000000000001000000000000000000000000bb46678a1f6c527bd79ecfbf85332b8ae83ceaf1000000000000000000000000000000000000000000034f086f3b33b684000000",
        "nonce": "0xb",
        "chainId": "0xaa36a7"
      },
      "additionalContracts": [],
      "isFixedGasLimit": false
    },
    {
      "hash": "0x15ebaf9e991e3cd0f00f7ada2317f8cf1f4df7d254c271d1270c625e5f4f34b5",
      "transactionType": "CALL",
      "contractName": null,
      "contractAddress": "0xbb46678a1f6c527bd79ecfbf85332b8ae83ceaf1",
      "function": "approve(address,uint256)",
      "arguments": [
        "0x70715Ae141e90Aff912f43676b762E3473Fc0f1e",
        "4000000000000000000000000"
      ],
      "transaction": {
        "from": "0xf68d9e0faa751ad61e0ed70852798bf9d9c04bf7",
        "to": "0xbb46678a1f6c527bd79ecfbf85332b8ae83ceaf1",
        "gas": "0xfd53",
        "value": "0x0",
        "input": "0x095ea7b300000000000000000000000070715ae141e90aff912f43676b762e3473fc0f1e000000000000000000000000000000000000000000034f086f3b33b684000000",
        "nonce": "0x8",
        "chainId": "0xaa36a7"
      },
      "additionalContracts": [],
      "isFixedGasLimit": false
    },
    {
      "hash": "0xe7eaaca9521b5f40e3ee9f2e955ac992c5ae45ff673adabd06fe8cc9dc7f49f0",
      "transactionType": "CALL",
      "contractName": null,
      "contractAddress": "0x70715ae141e90aff912f43676b762e3473fc0f1e",
      "function": "depositMargin(bytes32,address,uint256)",
      "arguments": [
        "0x0000000000000000000000000000000000000000000000000000000000000002",
        "0xbb46678a1F6C527bD79eCFBF85332B8Ae83ceaf1",
        "4000000000000000000000000"
      ],
      "transaction": {
        "from": "0xf68d9e0faa751ad61e0ed70852798bf9d9c04bf7",
        "to": "0x70715ae141e90aff912f43676b762e3473fc0f1e",
        "gas": "0x2997b",
        "value": "0x0",
        "input": "0x6812d3150000000000000000000000000000000000000000000000000000000000000002000000000000000000000000bb46678a1f6c527bd79ecfbf85332b8ae83ceaf1000000000000000000000000000000000000000000034f086f3b33b684000000",
        "nonce": "0x9",
        "chainId": "0xaa36a7"
      },
      "additionalContracts": [],
      "isFixedGasLimit": false
    }
  ],
  "receipts": [
    {
      "status": "0x1",
      "cumulativeGasUsed": "0x733c20",
      "logs": [
        {
          "address": "0xbb46678a1f6c527bd79ecfbf85332b8ae83ceaf1",
          "topics": [
            "0x8c5be1e5ebec7d5bd14f71427d1e84f3dd0314c0f7b2291e5b200ac8c7c3b925",
            "0x000000000000000000000000474b4e7fd1a143edea6b77aa845f429d443e6410",
            "0x00000000000000000000000070715ae141e90aff912f43676b762e3473fc0f1e"
          ],
          "data": "0x000000000000000000000000000000000000000000034f086f3b33b684000000",
          "blockHash": "0x461ad2cedd46a907060d9d2861f47c4eb9a2e5eab6885a7feb7d8e8d1332844f",
          "blockNumber": "0x9dcd73",
          "blockTimestamp": "0x69a074a8",
          "transactionHash": "0xab8ff676ffa9bc8075dbeb1e468e34786cb568da60ae84abe7d172ba10960e1d",
          "transactionIndex": "0x3b",
          "logIndex": "0x97",
          "removed": false
        }
      ],
      "logsBloom": "0x00000000000000000000000000000000000000000000000000000000000000000000000000000400000000000000000000000000000000000000000000200000000000000000000000000000000000000000000000000000000000000000000000400000000000000000000000000000000000000000000000000000000000000100000008000000000000000000000000000000000000000000000000000000020000000000000000000000004000000000000000000000000100000000000000000000000000000000000000000000000000008000000000000010000100000010000000000000000000000000000000000000000000000000000000000000",
      "type": "0x2",
      "transactionHash": "0xab8ff676ffa9bc8075dbeb1e468e34786cb568da60ae84abe7d172ba10960e1d",
      "transactionIndex": "0x3b",
      "blockHash": "0x461ad2cedd46a907060d9d2861f47c4eb9a2e5eab6885a7feb7d8e8d1332844f",
      "blockNumber": "0x9dcd73",
      "gasUsed": "0xb768",
      "effectiveGasPrice": "0x14b8ee",
      "from": "0x474b4e7fd1a143edea6b77aa845f429d443e6410",
      "to": "0xbb46678a1f6c527bd79ecfbf85332b8ae83ceaf1",
      "contractAddress": null
    },
    {
      "status": "0x1",
      "cumulativeGasUsed": "0x735ad6",
      "logs": [
        {
          "address": "0xbb46678a1f6c527bd79ecfbf85332b8ae83ceaf1",
          "topics": [
            "0xddf252ad1be2c89b69c2b068fc378daa952ba7f163c4a11628f55a4df523b3ef",
            "0x000000000000000000000000474b4e7fd1a143edea6b77aa845f429d443e6410",
            "0x00000000000000000000000070715ae141e90aff912f43676b762e3473fc0f1e"
          ],
          "data": "0x000000000000000000000000000000000000000000034f086f3b33b684000000",
          "blockHash": "0x5b1141d9a52fa5d8593d7a339d47811d15e48fa3268d54d971e61678f0b90d2f",
          "blockNumber": "0x9dcd74",
          "blockTimestamp": "0x69a074b4",
          "transactionHash": "0xdc6340a83179ce88b2d528db0d118215c39b4f1766be67df08297914d2da31a4",
          "transactionIndex": "0x53",
          "logIndex": "0xa3",
          "removed": false
        },
        {
          "address": "0x70715ae141e90aff912f43676b762e3473fc0f1e",
          "topics": [
            "0x30f6180e248310ab0c789da3026fbba7390872be072cfc5b3c20733f3a980c9e",
            "0x0000000000000000000000000000000000000000000000000000000000000001",
            "0x000000000000000000000000bb46678a1f6c527bd79ecfbf85332b8ae83ceaf1"
          ],
          "data": "0x000000000000000000000000000000000000000000034f086f3b33b684000000",
          "blockHash": "0x5b1141d9a52fa5d8593d7a339d47811d15e48fa3268d54d971e61678f0b90d2f",
          "blockNumber": "0x9dcd74",
          "blockTimestamp": "0x69a074b4",
          "transactionHash": "0xdc6340a83179ce88b2d528db0d118215c39b4f1766be67df08297914d2da31a4",
          "transactionIndex": "0x53",
          "logIndex": "0xa4",
          "removed": false
        }
      ],
      "logsBloom": "0x00000000000000000000000000000000000000000000000000000000000000000000000000000400000000000000000000000000000000000000000000040000000000000000000000000008000000000000000000040000000000000000000000400000000000000004000000000000000000000000000000000010000000000100000008000001000000000000000000000000000000000000000000000000000000000000000000000008004000000000000040000000000100000000000000000002000001000000000000000001000800008000000000000010000140000000000000000000000000000000000000000000040000000000000400000000",
      "type": "0x2",
      "transactionHash": "0xdc6340a83179ce88b2d528db0d118215c39b4f1766be67df08297914d2da31a4",
      "transactionIndex": "0x53",
      "blockHash": "0x5b1141d9a52fa5d8593d7a339d47811d15e48fa3268d54d971e61678f0b90d2f",
      "blockNumber": "0x9dcd74",
      "gasUsed": "0x22499",
      "effectiveGasPrice": "0x14b8ee",
      "from": "0x474b4e7fd1a143edea6b77aa845f429d443e6410",
      "to": "0x70715ae141e90aff912f43676b762e3473fc0f1e",
      "contractAddress": null
    },
    {
      "status": "0x1",
      "cumulativeGasUsed": "0x57617b",
      "logs": [
        {
          "address": "0xbb46678a1f6c527bd79ecfbf85332b8ae83ceaf1",
          "topics": [
            "0x8c5be1e5ebec7d5bd14f71427d1e84f3dd0314c0f7b2291e5b200ac8c7c3b925",
            "0x000000000000000000000000f68d9e0faa751ad61e0ed70852798bf9d9c04bf7",
            "0x00000000000000000000000070715ae141e90aff912f43676b762e3473fc0f1e"
          ],
          "data": "0x000000000000000000000000000000000000000000034f086f3b33b684000000",
          "blockHash": "0x4e39fd4399fd73770bc8b52542a75d9371eae22e094af6d5177acc140b69e20b",
          "blockNumber": "0x9dcd75",
          "blockTimestamp": "0x69a074c0",
          "transactionHash": "0x15ebaf9e991e3cd0f00f7ada2317f8cf1f4df7d254c271d1270c625e5f4f34b5",
          "transactionIndex": "0x3f",
          "logIndex": "0x7d",
          "removed": false
        }
      ],
      "logsBloom": "0x00000000000000000000000000000000000000000000000000000000000000800000000000000400000000000000000000000000000000000000000000200000000000000000000000000000000000000000000000000000000000000000000000000000000000000000000000000000000000000000000000000000000000000100000008000000000000000000000000000000000000000000000000000000020000000000000000000000004000000400000000000000000000000000000000000000000000000000000000000001000000008000000000000000000100000010000000000000000000000000000000000000000000000000000000000000",
      "type": "0x2",
      "transactionHash": "0x15ebaf9e991e3cd0f00f7ada2317f8cf1f4df7d254c271d1270c625e5f4f34b5",
      "transactionIndex": "0x3f",
      "blockHash": "0x4e39fd4399fd73770bc8b52542a75d9371eae22e094af6d5177acc140b69e20b",
      "blockNumber": "0x9dcd75",
      "gasUsed": "0xb768",
      "effectiveGasPrice": "0x14b8ee",
      "from": "0xf68d9e0faa751ad61e0ed70852798bf9d9c04bf7",
      "to": "0xbb46678a1f6c527bd79ecfbf85332b8ae83ceaf1",
      "contractAddress": null
    },
    {
      "status": "0x1",
      "cumulativeGasUsed": "0xf2c5ac",
      "logs": [
        {
          "address": "0xbb46678a1f6c527bd79ecfbf85332b8ae83ceaf1",
          "topics": [
            "0xddf252ad1be2c89b69c2b068fc378daa952ba7f163c4a11628f55a4df523b3ef",
            "0x000000000000000000000000f68d9e0faa751ad61e0ed70852798bf9d9c04bf7",
            "0x00000000000000000000000070715ae141e90aff912f43676b762e3473fc0f1e"
          ],
          "data": "0x000000000000000000000000000000000000000000034f086f3b33b684000000",
          "blockHash": "0x865b16963920d03e1107dab83d89256afb81c50f832b8913be9780510300f2ce",
          "blockNumber": "0x9dcd76",
          "blockTimestamp": "0x69a074cc",
          "transactionHash": "0xe7eaaca9521b5f40e3ee9f2e955ac992c5ae45ff673adabd06fe8cc9dc7f49f0",
          "transactionIndex": "0x5a",
          "logIndex": "0x125",
          "removed": false
        },
        {
          "address": "0x70715ae141e90aff912f43676b762e3473fc0f1e",
          "topics": [
            "0x30f6180e248310ab0c789da3026fbba7390872be072cfc5b3c20733f3a980c9e",
            "0x0000000000000000000000000000000000000000000000000000000000000002",
            "0x000000000000000000000000bb46678a1f6c527bd79ecfbf85332b8ae83ceaf1"
          ],
          "data": "0x000000000000000000000000000000000000000000034f086f3b33b684000000",
          "blockHash": "0x865b16963920d03e1107dab83d89256afb81c50f832b8913be9780510300f2ce",
          "blockNumber": "0x9dcd76",
          "blockTimestamp": "0x69a074cc",
          "transactionHash": "0xe7eaaca9521b5f40e3ee9f2e955ac992c5ae45ff673adabd06fe8cc9dc7f49f0",
          "transactionIndex": "0x5a",
          "logIndex": "0x126",
          "removed": false
        }
      ],
      "logsBloom": "0x04000000000000000000000000000000000000000000000000000000000000800000000000000400000000000000000000000000000000000000000000000000000000000000000000000008000000000000000000000000000000000000000000000000000000000004000000000000000000000000000000000010000000000100000008000001000000000000000000000000000000000000000000000000000000000000000000000108004000000400000040000000000000000000000000000002000001000000000000000001000800008000000000000000000100000000000000000000000000000000000000000000048000000000000400000000",
      "type": "0x2",
      "transactionHash": "0xe7eaaca9521b5f40e3ee9f2e955ac992c5ae45ff673adabd06fe8cc9dc7f49f0",
      "transactionIndex": "0x5a",
      "blockHash": "0x865b16963920d03e1107dab83d89256afb81c50f832b8913be9780510300f2ce",
      "blockNumber": "0x9dcd76",
      "gasUsed": "0x1e1cd",
      "effectiveGasPrice": "0x14b8ee",
      "from": "0xf68d9e0faa751ad61e0ed70852798bf9d9c04bf7",
      "to": "0x70715ae141e90aff912f43676b762e3473fc0f1e",
      "contractAddress": null
    }
  ],
  "libraries": [],
  "pending": [],
  "returns": {},
  "timestamp": 1772123341441,
  "chain": 11155111,
  "commit": "3f1d24e"
}