{
  "transactions": [
    {
      "hash": "0xd23903f0542c13de0b3d271a63334f4ac294cd5cb761bec854778a89afbe77bc",
      "transactionType": "CALL",
      "contractName": null,
      "contractAddress": "0xbb46678a1f6c527bd79ecfbf85332b8ae83ceaf1",
      "function": "approve(address,uint256)",
      "arguments": [
        "0x90de233d936bFb7f1dF877C992eCdf6097864CcE",
        "4000000000000000000000000"
      ],
      "transaction": {
        "from": "0x474b4e7fd1a143edea6b77aa845f429d443e6410",
        "to": "0xbb46678a1f6c527bd79ecfbf85332b8ae83ceaf1",
        "gas": "0xfd53",
        "value": "0x0",
        "input": "0x095ea7b300000000000000000000000090de233d936bfb7f1df877c992ecdf6097864cce000000000000000000000000000000000000000000034f086f3b33b684000000",
        "nonce": "0xf",
        "chainId": "0xaa36a7"
      },
      "additionalContracts": [],
      "isFixedGasLimit": false
    },
    {
      "hash": "0x7839439274041901fed1a216edbb49e97bf30407a762ad31d280e80751b5db70",
      "transactionType": "CALL",
      "contractName": null,
      "contractAddress": "0x90de233d936bfb7f1df877c992ecdf6097864cce",
      "function": "depositMargin(bytes32,address,uint256)",
      "arguments": [
        "0x0000000000000000000000000000000000000000000000000000000000000001",
        "0xbb46678a1F6C527bD79eCFBF85332B8Ae83ceaf1",
        "4000000000000000000000000"
      ],
      "transaction": {
        "from": "0x474b4e7fd1a143edea6b77aa845f429d443e6410",
        "to": "0x90de233d936bfb7f1df877c992ecdf6097864cce",
        "gas": "0x2f608",
        "value": "0x0",
        "input": "0x6812d3150000000000000000000000000000000000000000000000000000000000000001000000000000000000000000bb46678a1f6c527bd79ecfbf85332b8ae83ceaf1000000000000000000000000000000000000000000034f086f3b33b684000000",
        "nonce": "0x10",
        "chainId": "0xaa36a7"
      },
      "additionalContracts": [],
      "isFixedGasLimit": false
    },
    {
      "hash": "0xcab6412b5647dfd694013e1897a53d91f5664ec7142a68d2887f1a45adc0fbcf",
      "transactionType": "CALL",
      "contractName": null,
      "contractAddress": "0xbb46678a1f6c527bd79ecfbf85332b8ae83ceaf1",
      "function": "approve(address,uint256)",
      "arguments": [
        "0x90de233d936bFb7f1dF877C992eCdf6097864CcE",
        "4000000000000000000000000"
      ],
      "transaction": {
        "from": "0xf68d9e0faa751ad61e0ed70852798bf9d9c04bf7",
        "to": "0xbb46678a1f6c527bd79ecfbf85332b8ae83ceaf1",
        "gas": "0xfd53",
        "value": "0x0",
        "input": "0x095ea7b300000000000000000000000090de233d936bfb7f1df877c992ecdf6097864cce000000000000000000000000000000000000000000034f086f3b33b684000000",
        "nonce": "0xd",
        "chainId": "0xaa36a7"
      },
      "additionalContracts": [],
      "isFixedGasLimit": false
    },
    {
      "hash": "0x96051a1263b4c2fcc01476f9b8ffe918e40bc46aef37715bd04f0b5a04c10aa0",
      "transactionType": "CALL",
      "contractName": null,
      "contractAddress": "0x90de233d936bfb7f1df877c992ecdf6097864cce",
      "function": "depositMargin(bytes32,address,uint256)",
      "arguments": [
        "0x0000000000000000000000000000000000000000000000000000000000000002",
        "0xbb46678a1F6C527bD79eCFBF85332B8Ae83ceaf1",
        "4000000000000000000000000"
      ],
      "transaction": {
        "from": "0xf68d9e0faa751ad61e0ed70852798bf9d9c04bf7",
        "to": "0x90de233d936bfb7f1df877c992ecdf6097864cce",
        "gas": "0x2c0ef",
        "value": "0x0",
        "input": "0x6812d3150000000000000000000000000000000000000000000000000000000000000002000000000000000000000000bb46678a1f6c527bd79ecfbf85332b8ae83ceaf1000000000000000000000000000000000000000000034f086f3b33b684000000",
        "nonce": "0xe",
        "chainId": "0xaa36a7"
      },
      "additionalContracts": [],
      "isFixedGasLimit": false
    }
  ],
  "receipts": [
    {
      "status": "0x1",
      "cumulativeGasUsed": "0x1ad7d47",
      "logs": [
        {
          "address": "0xbb46678a1f6c527bd79ecfbf85332b8ae83ceaf1",
          "topics": [
            "0x8c5be1e5ebec7d5bd14f71427d1e84f3dd0314c0f7b2291e5b200ac8c7c3b925",
            "0x000000000000000000000000474b4e7fd1a143edea6b77aa845f429d443e6410",
            "0x00000000000000000000000090de233d936bfb7f1df877c992ecdf6097864cce"
          ],
          "data": "0x000000000000000000000000000000000000000000034f086f3b33b684000000",
          "blockHash": "0x3e49938956fc4ead4e8914e6d48eae257e3a53e07c60f3ad187ba391f168bbc6",
          "blockNumber": "0x9de153",
          "blockTimestamp": "0x69a16a78",
          "transactionHash": "0xd23903f0542c13de0b3d271a63334f4ac294cd5cb761bec854778a89afbe77bc",
          "transactionIndex": "0x93",
          "logIndex": "0x223",
          "removed": false
        }
      ],
      "logsBloom": "0x00000000000000000000000000000000000000000000000000000000001000000000000000000000000000000000000000000000000000000000000000200000000000000000000000010000000000000000000000000000010000000000000000400000000000000000000000000000000000000000000000000000000000000100000008000000000000000000000000000000000000000000000000000000020000000000000000000000000000000000000000000000000100000000000000000000000000000000000000000000000000008000000000000010000000000010000000000000000000000000000000000000000000000000000000000000",
      "type": "0x2",
      "transactionHash": "0xd23903f0542c13de0b3d271a63334f4ac294cd5cb761bec854778a89afbe77bc",
      "transactionIndex": "0x93",
      "blockHash": "0x3e49938956fc4ead4e8914e6d48eae257e3a53e07c60f3ad187ba391f168bbc6",
      "blockNumber": "0x9de153",
      "gasUsed": "0xb768",
      "effectiveGasPrice": "0xf4293",
      "from": "0x474b4e7fd1a143edea6b77aa845f429d443e6410",
      "to": "0xbb46678a1f6c527bd79ecfbf85332b8ae83ceaf1",
      "contractAddress": null
    },
    {
      "status": "0x1",
      "cumulativeGasUsed": "0x18fc445",
      "logs": [
        {
          "address": "0xbb46678a1f6c527bd79ecfbf85332b8ae83ceaf1",
          "topics": [
            "0xddf252ad1be2c89b69c2b068fc378daa952ba7f163c4a11628f55a4df523b3ef",
            "0x000000000000000000000000474b4e7fd1a143edea6b77aa845f429d443e6410",
            "0x00000000000000000000000090de233d936bfb7f1df877c992ecdf6097864cce"
          ],
          "data": "0x000000000000000000000000000000000000000000034f086f3b33b684000000",
          "blockHash": "0x9ebfc8599f139e35ef0b7f0cab0a59795b1496decfbe1806be66ad965db29f33",
          "blockNumber": "0x9de154",
          "blockTimestamp": "0x69a16a84",
          "transactionHash": "0x7839439274041901fed1a216edbb49e97bf30407a762ad31d280e80751b5db70",
          "transactionIndex": "0x84",
          "logIndex": "0x237",
          "removed": false
        },
        {
          "address": "0x90de233d936bfb7f1df877c992ecdf6097864cce",
          "topics": [
            "0x30f6180e248310ab0c789da3026fbba7390872be072cfc5b3c20733f3a980c9e",
            "0x0000000000000000000000000000000000000000000000000000000000000001",
            "0x000000000000000000000000bb46678a1f6c527bd79ecfbf85332b8ae83ceaf1"
          ],
          "data": "0x000000000000000000000000000000000000000000034f086f3b33b684000000",
          "blockHash": "0x9ebfc8599f139e35ef0b7f0cab0a59795b1496decfbe1806be66ad965db29f33",
          "blockNumber": "0x9de154",
          "blockTimestamp": "0x69a16a84",
          "transactionHash": "0x7839439274041901fed1a216edbb49e97bf30407a762ad31d280e80751b5db70",
          "transactionIndex": "0x84",
          "logIndex": "0x238",
          "removed": false
        }
      ],
      "logsBloom": "0x00000000000000000000000080000000000000000000000000000000001000000000000000000000000000000000000000000000000000000000000000040000000000000000000000010008000000000000000000040000010000000000000000400000000000000000000000000000000000000000000000000010000000000100000008000001000000000000000000000000000000000000000000000000000000000000020000000000000000000000000040000000000100000000000000000002000001000000000000000001000800008000000000000010000040000000000000000000000000000000000000000000008000000000000400000000",
      "type": "0x2",
      "transactionHash": "0x7839439274041901fed1a216edbb49e97bf30407a762ad31d280e80751b5db70",
      "transactionIndex": "0x84",
      "blockHash": "0x9ebfc8599f139e35ef0b7f0cab0a59795b1496decfbe1806be66ad965db29f33",
      "blockNumber": "0x9de154",
      "gasUsed": "0x224ce",
      "effectiveGasPrice": "0xf4298",
      "from": "0x474b4e7fd1a143edea6b77aa845f429d443e6410",
      "to": "0x90de233d936bfb7f1df877c992ecdf6097864cce",
      "contractAddress": null
    },
    {
      "status": "0x1",
      "cumulativeGasUsed": "0x1d1a107",
      "logs": [
        {
          "address": "0xbb46678a1f6c527bd79ecfbf85332b8ae83ceaf1",
          "topics": [
            "0x8c5be1e5ebec7d5bd14f71427d1e84f3dd0314c0f7b2291e5b200ac8c7c3b925",
            "0x000000000000000000000000f68d9e0faa751ad61e0ed70852798bf9d9c04bf7",
            "0x00000000000000000000000090de233d936bfb7f1df877c992ecdf6097864cce"
          ],
          "data": "0x000000000000000000000000000000000000000000034f086f3b33b684000000",
          "blockHash": "0xf3147362a265e133fd73092e7c846ca0828a4deaacd36c410c149edb38b2c5ae",
          "blockNumber": "0x9de155",
          "blockTimestamp": "0x69a16a90",
          "transactionHash": "0xcab6412b5647dfd694013e1897a53d91f5664ec7142a68d2887f1a45adc0fbcf",
          "transactionIndex": "0x90",
          "logIndex": "0x21d",
          "removed": false
        }
      ],
      "logsBloom": "0x00000000000000000000000000000000000000000000000000000000001000800000000000000000000000000000000000000000000000000000000000200000000000000000000000010000000000000000000000000000010000000000000000000000000000000000000000000000000000000000000000000000000000000100000008000000000000000000000000000000000000000000000000000000020000000000000000000000000000000400000000000000000000000000000000000000000000000000000000000001000000008000000000000000000000000010000000000000000000000000000000000000000000000000000000000000",
      "type": "0x2",
      "transactionHash": "0xcab6412b5647dfd694013e1897a53d91f5664ec7142a68d2887f1a45adc0fbcf",
      "transactionIndex": "0x90",
      "blockHash": "0xf3147362a265e133fd73092e7c846ca0828a4deaacd36c410c149edb38b2c5ae",
      "blockNumber": "0x9de155",
      "gasUsed": "0xb768",
      "effectiveGasPrice": "0xf4299",
      "from": "0xf68d9e0faa751ad61e0ed70852798bf9d9c04bf7",
      "to": "0xbb46678a1f6c527bd79ecfbf85332b8ae83ceaf1",
      "contractAddress": null
    },
    {
      "status": "0x1",
      "cumulativeGasUsed": "0x1b51110",
      "logs": [
        {
          "address": "0xbb46678a1f6c527bd79ecfbf85332b8ae83ceaf1",
          "topics": [
            "0xddf252ad1be2c89b69c2b068fc378daa952ba7f163c4a11628f55a4df523b3ef",
            "0x000000000000000000000000f68d9e0faa751ad61e0ed70852798bf9d9c04bf7",
            "0x00000000000000000000000090de233d936bfb7f1df877c992ecdf6097864cce"
          ],
          "data": "0x000000000000000000000000000000000000000000034f086f3b33b684000000",
          "blockHash": "0x1da7b5ca7b5eb8af387c62d04b9f414a03d1fcc8c03bf9348b4877cc1caa9629",
          "blockNumber": "0x9de156",
          "blockTimestamp": "0x69a16a9c",
          "transactionHash": "0x96051a1263b4c2fcc01476f9b8ffe918e40bc46aef37715bd04f0b5a04c10aa0",
          "transactionIndex": "0x83",
          "logIndex": "0x232",
          "removed": false
        },
        {
          "address": "0x90de233d936bfb7f1df877c992ecdf6097864cce",
          "topics": [
            "0x30f6180e248310ab0c789da3026fbba7390872be072cfc5b3c20733f3a980c9e",
            "0x0000000000000000000000000000000000000000000000000000000000000002",
            "0x000000000000000000000000bb46678a1f6c527bd79ecfbf85332b8ae83ceaf1"
          ],
          "data": "0x000000000000000000000000000000000000000000034f086f3b33b684000000",
          "blockHash": "0x1da7b5ca7b5eb8af387c62d04b9f414a03d1fcc8c03bf9348b4877cc1caa9629",
          "blockNumber": "0x9de156",
          "blockTimestamp": "0x69a16a9c",
          "transactionHash": "0x96051a1263b4c2fcc01476f9b8ffe918e40bc46aef37715bd04f0b5a04c10aa0",
          "transactionIndex": "0x83",
          "logIndex": "0x233",
          "removed": false
        }
      ],
      "logsBloom": "0x04000000000000000000000080000000000000000000000000000000001000800000000000000000000000000000000000000000000000000000000000000000000000000000000000010008000000000000000000000000010000000000000000000000000000000000000000000000000000000000000000000010000000000100000008000001000000000000000000000000000000000000000000000000000000000000020000000100000000000400000040000000000000000000000000000002000001000000000000000001000800008000000000000000000000000000000000000000000000000000000000000000008000000000000400000000",
      "type": "0x2",
      "transactionHash": "0x96051a1263b4c2fcc01476f9b8ffe918e40bc46aef37715bd04f0b5a04c10aa0",
      "transactionIndex": "0x83",
      "blockHash": "0x1da7b5ca7b5eb8af387c62d04b9f414a03d1fcc8c03bf9348b4877cc1caa9629",
      "blockNumber": "0x9de156",
      "gasUsed": "0x1e202",
      "effectiveGasPrice": "0xf429c",
      "from": "0xf68d9e0faa751ad61e0ed70852798bf9d9c04bf7",
      "to": "0x90de233d936bfb7f1df877c992ecdf6097864cce",
      "contractAddress": null
    }
  ],
  "libraries": [],
  "pending": [],
  "returns": {},
  "timestamp": 1772186269557,
  "chain": 11155111,
  "commit": "5c0c491"
}