{
  "transactions": [
    {
      "hash": "0x69236a5645e86be204b4ad6c65f2be2737a1b074e75ff9bd92e120215cf5d2da",
      "transactionType": "CALL",
      "contractName": null,
      "contractAddress": "0xbb46678a1f6c527bd79ecfbf85332b8ae83ceaf1",
      "function": "mint(address,uint256)",
      "arguments": [
        "0x474B4E7FD1A143eDea6b77aa845F429D443E6410",
        "4000000000000000000000000"
      ],
      "transaction": {
        "from": "0x993461bbf7e553eb5bd1f5248a72b524c4a3b15d",
        "to": "0xbb46678a1f6c527bd79ecfbf85332b8ae83ceaf1",
        "gas": "0xc681",
        "value": "0x0",
        "input": "0x40c10f19000000000000000000000000474b4e7fd1a143edea6b77aa845f429d443e6410000000000000000000000000000000000000000000034f086f3b33b684000000",
        "nonce": "0x22e",
        "chainId": "0xaa36a7"
      },
      "additionalContracts": [],
      "isFixedGasLimit": false
    },
    {
      "hash": "0x8b628f91772764dbb52dcf4f1b3141b3a8229a23c2158260c72481bc3c6c2e18",
      "transactionType": "CALL",
      "contractName": null,
      "contractAddress": "0xbb46678a1f6c527bd79ecfbf85332b8ae83ceaf1",
      "function": "mint(address,uint256)",
      "arguments": [
        "0xf68D9e0fAa751AD61e0ED70852798bF9D9C04bF7",
        "4000000000000000000000000"
      ],
      "transaction": {
        "from": "0x993461bbf7e553eb5bd1f5248a72b524c4a3b15d",
        "to": "0xbb46678a1f6c527bd79ecfbf85332b8ae83ceaf1",
        "gas": "0xc681",
        "value": "0x0",
        "input": "0x40c10f19000000000000000000000000f68d9e0faa751ad61e0ed70852798bf9d9c04bf7000000000000000000000000000000000000000000034f086f3b33b684000000",
        "nonce": "0x22f",
        "chainId": "0xaa36a7"
      },
      "additionalContracts": [],
      "isFixedGasLimit": false
    },
    {
      "hash": "0xd516ff25fd4004436998a5db29397f6888436909f257fac553525d5a9b46c49b",
      "transactionType": "CALL",
      "contractName": null,
      "contractAddress": "0xbb46678a1f6c527bd79ecfbf85332b8ae83ceaf1",
      "function": "approve(address,uint256)",
      "arguments": [
        "0xeD8f1d9DC67d0C5073832cE09214315Fc584b4e8",
        "4000000000000000000000000"
      ],
      "transaction": {
        "from": "0x474b4e7fd1a143edea6b77aa845f429d443e6410",
        "to": "0xbb46678a1f6c527bd79ecfbf85332b8ae83ceaf1",
        "gas": "0xfd53",
        "value": "0x0",
        "input": "0x095ea7b3000000000000000000000000ed8f1d9dc67d0c5073832ce09214315fc584b4e8000000000000000000000000000000000000000000034f086f3b33b684000000",
        "nonce": "0x17",
        "chainId": "0xaa36a7"
      },
      "additionalContracts": [],
      "isFixedGasLimit": false
    },
    {
      "hash": "0x0504a5acdb3d862d0583ca54df999cdf7d56e1255bdb6cb76f0138e3c64bd6f7",
      "transactionType": "CALL",
      "contractName": "MarginVault",
      "contractAddress": "0xed8f1d9dc67d0c5073832ce09214315fc584b4e8",
      "function": "depositMargin(bytes32,address,uint256)",
      "arguments": [
        "0x0000000000000000000000000000000000000000000000000000000000000001",
        "0xbb46678a1F6C527bD79eCFBF85332B8Ae83ceaf1",
        "4000000000000000000000000"
      ],
      "transaction": {
        "from": "0x474b4e7fd1a143edea6b77aa845f429d443e6410",
        "to": "0xed8f1d9dc67d0c5073832ce09214315fc584b4e8",
        "gas": "0x1757f",
        "value": "0x0",
        "input": "0x6812d3150000000000000000000000000000000000000000000000000000000000000001000000000000000000000000bb46678a1f6c527bd79ecfbf85332b8ae83ceaf1000000000000000000000000000000000000000000034f086f3b33b684000000",
        "nonce": "0x18",
        "chainId": "0xaa36a7"
      },
      "additionalContracts": [],
      "isFixedGasLimit": false
    },
    {
      "hash": "0xdf44b2db9e0b910c9d149785e9b8895e72fb26d3993b698d2a5dd423f346e183",
      "transactionType": "CALL",
      "contractName": null,
      "contractAddress": "0xbb46678a1f6c527bd79ecfbf85332b8ae83ceaf1",
      "function": "approve(address,uint256)",
      "arguments": [
        "0xeD8f1d9DC67d0C5073832cE09214315Fc584b4e8",
        "4000000000000000000000000"
      ],
      "transaction": {
        "from": "0xf68d9e0faa751ad61e0ed70852798bf9d9c04bf7",
        "to": "0xbb46678a1f6c527bd79ecfbf85332b8ae83ceaf1",
        "gas": "0xfd53",
        "value": "0x0",
        "input": "0x095ea7b3000000000000000000000000ed8f1d9dc67d0c5073832ce09214315fc584b4e8000000000000000000000000000000000000000000034f086f3b33b684000000",
        "nonce": "0x15",
        "chainId": "0xaa36a7"
      },
      "additionalContracts": [],
      "isFixedGasLimit": false
    },
    {
      "hash": "0x350c00cde7a1a371cbfd5190495c4a7ec9c40964be684e08071cc03b348f9d45",
      "transactionType": "CALL",
      "contractName": "MarginVault",
      "contractAddress": "0xed8f1d9dc67d0c5073832ce09214315fc584b4e8",
      "function": "depositMargin(bytes32,address,uint256)",
      "arguments": [
        "0x0000000000000000000000000000000000000000000000000000000000000002",
        "0xbb46678a1F6C527bD79eCFBF85332B8Ae83ceaf1",
        "4000000000000000000000000"
      ],
      "transaction": {
        "from": "0xf68d9e0faa751ad61e0ed70852798bf9d9c04bf7",
        "to": "0xed8f1d9dc67d0c5073832ce09214315fc584b4e8",
        "gas": "0x1757f",
        "value": "0x0",
        "input": "0x6812d3150000000000000000000000000000000000000000000000000000000000000002000000000000000000000000bb46678a1f6c527bd79ecfbf85332b8ae83ceaf1000000000000000000000000000000000000000000034f086f3b33b684000000",
        "nonce": "0x16",
        "chainId": "0xaa36a7"
      },
      "additionalContracts": [],
      "isFixedGasLimit": false
    }
  ],
  "receipts": [
    {
      "status": "0x1",
      "cumulativeGasUsed": "0x14e78f9",
      "logs": [
        {
          "address": "0xbb46678a1f6c527bd79ecfbf85332b8ae83ceaf1",
          "topics": [
            "0xddf252ad1be2c89b69c2b068fc378daa952ba7f163c4a11628f55a4df523b3ef",
            "0x0000000000000000000000000000000000000000000000000000000000000000",
            "0x000000000000000000000000474b4e7fd1a143edea6b77aa845f429d443e6410"
          ],
          "data": "0x000000000000000000000000000000000000000000034f086f3b33b684000000",
          "blockHash": "0xd690d7fa16f0fdcd2536144e845040d0f264a4930594dc0077512ac3b79d5edd",
          "blockNumber": "0x9df856",
          "blockTimestamp": "0x69a28784",
          "transactionHash": "0x69236a5645e86be204b4ad6c65f2be2737a1b074e75ff9bd92e120215cf5d2da",
          "transactionIndex": "0x85",
          "logIndex": "0x1a1",
          "removed": false
        }
      ],
      "logsBloom": "0x00000000000000000000000000000000000000000000000000000000000000000000000000000000000000000000000000000000000000000000000000000000000000000000000000000008000000000000000000000000000000000000000000400000020000000000000000000800000000000000000000000010000000000100000008000000000000000000000000000000000000000000000000000000000000000000000000000000000000000000000000000000000100000000000000000002000000000000000000000000000000008000000000000010000020000000000000000000000000000000000000000000000000000000000000000000",
      "type": "0x2",
      "transactionHash": "0x69236a5645e86be204b4ad6c65f2be2737a1b074e75ff9bd92e120215cf5d2da",
      "transactionIndex": "0x85",
      "blockHash": "0xd690d7fa16f0fdcd2536144e845040d0f264a4930594dc0077512ac3b79d5edd",
      "blockNumber": "0x9df856",
      "gasUsed": "0x87bb",
      "effectiveGasPrice": "0x10f6f3",
      "from": "0x993461bbf7e553eb5bd1f5248a72b524c4a3b15d",
      "to": "0xbb46678a1f6c527bd79ecfbf85332b8ae83ceaf1",
      "contractAddress": null
    },
    {
      "status": "0x1",
      "cumulativeGasUsed": "0x244352f",
      "logs": [
        {
          "address": "0xbb46678a1f6c527bd79ecfbf85332b8ae83ceaf1",
          "topics": [
            "0xddf252ad1be2c89b69c2b068fc378daa952ba7f163c4a11628f55a4df523b3ef",
            "0x0000000000000000000000000000000000000000000000000000000000000000",
            "0x000000000000000000000000f68d9e0faa751ad61e0ed70852798bf9d9c04bf7"
          ],
          "data": "0x000000000000000000000000000000000000000000034f086f3b33b684000000",
          "blockHash": "0xa17146ef1aee47c00712629047a28c2052b2896d9b3cc8d4ff8f090f418dac55",
          "blockNumber": "0x9df857",
          "blockTimestamp": "0x69a28790",
          "transactionHash": "0x8b628f91772764dbb52dcf4f1b3141b3a8229a23c2158260c72481bc3c6c2e18",
          "transactionIndex": "0x82",
          "logIndex": "0x1d8",
          "removed": false
        }
      ],
      "logsBloom": "0x00000000000000000000000000000000000000000000000000000000000000800000000000000000000000000000000000000000000000000000000000000000000000000000000000000008000000000000000000000000000000000000000000000000020000000000000000000800000000000000000000000010000000000100000008000000000000000000000000000000000000000000000000000000000000000000000000000000000000000400000000000000000000000000000000000002000000000000000000000001000000008000000000000000000020000000000000000000000000000000000000000000000000000000000000000000",
      "type": "0x2",
      "transactionHash": "0x8b628f91772764dbb52dcf4f1b3141b3a8229a23c2158260c72481bc3c6c2e18",
      "transactionIndex": "0x82",
      "blockHash": "0xa17146ef1aee47c00712629047a28c2052b2896d9b3cc8d4ff8f090f418dac55",
      "blockNumber": "0x9df857",
      "gasUsed": "0x87bb",
      "effectiveGasPrice": "0x10f6f3",
      "from": "0x993461bbf7e553eb5bd1f5248a72b524c4a3b15d",
      "to": "0xbb46678a1f6c527bd79ecfbf85332b8ae83ceaf1",
      "contractAddress": null
    },
    {
      "status": "0x1",
      "cumulativeGasUsed": "0x814e4f",
      "logs": [
        {
          "address": "0xbb46678a1f6c527bd79ecfbf85332b8ae83ceaf1",
          "topics": [
            "0x8c5be1e5ebec7d5bd14f71427d1e84f3dd0314c0f7b2291e5b200ac8c7c3b925",
            "0x000000000000000000000000474b4e7fd1a143edea6b77aa845f429d443e6410",
            "0x000000000000000000000000ed8f1d9dc67d0c5073832ce09214315fc584b4e8"
          ],
          "data": "0x000000000000000000000000000000000000000000034f086f3b33b684000000",
          "blockHash": "0x423a879efe24ecbd83f9c7519271baa1905469a0ffe4dd2b15aac9d99efbfcf4",
          "blockNumber": "0x9df858",
          "blockTimestamp": "0x69a2879c",
          "transactionHash": "0xd516ff25fd4004436998a5db29397f6888436909f257fac553525d5a9b46c49b",
          "transactionIndex": "0x4a",
          "logIndex": "0x84",
          "removed": false
        }
      ],
      "logsBloom": "0x00000000000000000000000000000000000000000000000000000000000000000000000000000000000000000000000000000000000000000000000000200000000000000000000000000000000000000000000000000000000000800000000000400000000000000000000000000000000002000000000000000000000000000100000008000000000000000000000080000000000000000000000000000000020000000000000000000000000000000000000000000000000100000000000000000000000000000000000000000000000000008000000000000010000000000010000000000000000000000000000000000000000000000000000000000000",
      "type": "0x2",
      "transactionHash": "0xd516ff25fd4004436998a5db29397f6888436909f257fac553525d5a9b46c49b",
      "transactionIndex": "0x4a",
      "blockHash": "0x423a879efe24ecbd83f9c7519271baa1905469a0ffe4dd2b15aac9d99efbfcf4",
      "blockNumber": "0x9df858",
      "gasUsed": "0xb768",
      "effectiveGasPrice": "0x10f6f4",
      "from": "0x474b4e7fd1a143edea6b77aa845f429d443e6410",
      "to": "0xbb46678a1f6c527bd79ecfbf85332b8ae83ceaf1",
      "contractAddress": null
    },
    {
      "status": "0x1",
      "cumulativeGasUsed": "0x7f4c46",
      "logs": [
        {
          "address": "0xbb46678a1f6c527bd79ecfbf85332b8ae83ceaf1",
          "topics": [
            "0xddf252ad1be2c89b69c2b068fc378daa952ba7f163c4a11628f55a4df523b3ef",
            "0x000000000000000000000000474b4e7fd1a143edea6b77aa845f429d443e6410",
            "0x000000000000000000000000ed8f1d9dc67d0c5073832ce09214315fc584b4e8"
          ],
          "data": "0x000000000000000000000000000000000000000000034f086f3b33b684000000",
          "blockHash": "0xbd963b73af8f0194779df234598207361e75378493e9ba75fe748f6a6a0aea47",
          "blockNumber": "0x9df859",
          "blockTimestamp": "0x69a287a8",
          "transactionHash": "0x0504a5acdb3d862d0583ca54df999cdf7d56e1255bdb6cb76f0138e3c64bd6f7",
          "transactionIndex": "0x78",
          "logIndex": "0xd1",
          "removed": false
        },
        {
          "address": "0xed8f1d9dc67d0c5073832ce09214315fc584b4e8",
          "topics": [
            "0x30f6180e248310ab0c789da3026fbba7390872be072cfc5b3c20733f3a980c9e",
            "0x0000000000000000000000000000000000000000000000000000000000000001",
            "0x000000000000000000000000bb46678a1f6c527bd79ecfbf85332b8ae83ceaf1"
          ],
          "data": "0x000000000000000000000000000000000000000000034f086f3b33b684000000",
          "blockHash": "0xbd963b73af8f0194779df234598207361e75378493e9ba75fe748f6a6a0aea47",
          "blockNumber": "0x9df859",
          "blockTimestamp": "0x69a287a8",
          "transactionHash": "0x0504a5acdb3d862d0583ca54df999cdf7d56e1255bdb6cb76f0138e3c64bd6f7",
          "transactionIndex": "0x78",
          "logIndex": "0xd2",
          "removed": false
        }
      ],
      "logsBloom": "0x00000000000000000000000000000000000000000000000000000000000000000000010000000000000000000000000000000000000000000000000000040000000000000000000000000008000000000000000000040000000000800000000000400000000000000000000000000000000002000000000000000010000000000100000008000001000000000000000080000000000000000000000000000000000000000000000000000000000000000000000040000000000100000000000000000002000001000000000000000001002800008000000000000010000040000000000000000000000000000000000000000000000000000000000400000100",
      "type": "0x2",
      "transactionHash": "0x0504a5acdb3d862d0583ca54df999cdf7d56e1255bdb6cb76f0138e3c64bd6f7",
      "transactionIndex": "0x78",
      "blockHash": "0xbd963b73af8f0194779df234598207361e75378493e9ba75fe748f6a6a0aea47",
      "blockNumber": "0x9df859",
      "gasUsed": "0x10e68",
      "effectiveGasPrice": "0x10f6f4",
      "from": "0x474b4e7fd1a143edea6b77aa845f429d443e6410",
      "to": "0xed8f1d9dc67d0c5073832ce09214315fc584b4e8",
      "contractAddress": null
    },
    {
      "status": "0x1",
      "cumulativeGasUsed": "0x75c184",
      "logs": [
        {
          "address": "0xbb46678a1f6c527bd79ecfbf85332b8ae83ceaf1",
          "topics": [
            "0x8c5be1e5ebec7d5bd14f71427d1e84f3dd0314c0f7b2291e5b200ac8c7c3b925",
            "0x000000000000000000000000f68d9e0faa751ad61e0ed70852798bf9d9c04bf7",
            "0x000000000000000000000000ed8f1d9dc67d0c5073832ce09214315fc584b4e8"
          ],
          "data": "0x000000000000000000000000000000000000000000034f086f3b33b684000000",
          "blockHash": "0xf599299adff67a25c92e5a33a0f2dad530f2ef77d1d1a0200c80c11e5d1bfaec",
          "blockNumber": "0x9df85a",
          "blockTimestamp": "0x69a287b4",
          "transactionHash": "0xdf44b2db9e0b910c9d149785e9b8895e72fb26d3993b698d2a5dd423f346e183",
          "transactionIndex": "0x58",
          "logIndex": "0x80",
          "removed": false
        }
      ],
      "logsBloom": "0x00000000000000000000000000000000000000000000000000000000000000800000000000000000000000000000000000000000000000000000000000200000000000000000000000000000000000000000000000000000000000800000000000000000000000000000000000000000000002000000000000000000000000000100000008000000000000000000000080000000000000000000000000000000020000000000000000000000000000000400000000000000000000000000000000000000000000000000000000000001000000008000000000000000000000000010000000000000000000000000000000000000000000000000000000000000",
      "type": "0x2",
      "transactionHash": "0xdf44b2db9e0b910c9d149785e9b8895e72fb26d3993b698d2a5dd423f346e183",
      "transactionIndex": "0x58",
      "blockHash": "0xf599299adff67a25c92e5a33a0f2dad530f2ef77d1d1a0200c80c11e5d1bfaec",
      "blockNumber": "0x9df85a",
      "gasUsed": "0xb768",
      "effectiveGasPrice": "0x10f6f3",
      "from": "0xf68d9e0faa751ad61e0ed70852798bf9d9c04bf7",
      "to": "0xbb46678a1f6c527bd79ecfbf85332b8ae83ceaf1",
      "contractAddress": null
    },
    {
      "status": "0x1",
      "cumulativeGasUsed": "0xb6c6f4",
      "logs": [
        {
          "address": "0xbb46678a1f6c527bd79ecfbf85332b8ae83ceaf1",
          "topics": [
            "0xddf252ad1be2c89b69c2b068fc378daa952ba7f163c4a11628f55a4df523b3ef",
            "0x000000000000000000000000f68d9e0faa751ad61e0ed70852798bf9d9c04bf7",
            "0x000000000000000000000000ed8f1d9dc67d0c5073832ce09214315fc584b4e8"
          ],
          "data": "0x000000000000000000000000000000000000000000034f086f3b33b684000000",
          "blockHash": "0x44dff258b677be561112dbd74676a4cc256143aad2001571271c56058024d8ac",
          "blockNumber": "0x9df85b",
          "blockTimestamp": "0x69a287c0",
          "transactionHash": "0x350c00cde7a1a371cbfd5190495c4a7ec9c40964be684e08071cc03b348f9d45",
          "transactionIndex": "0x5f",
          "logIndex": "0xc4",
          "removed": false
        },
        {
          "address": "0xed8f1d9dc67d0c5073832ce09214315fc584b4e8",
          "topics": [
            "0x30f6180e248310ab0c789da3026fbba7390872be072cfc5b3c20733f3a980c9e",
            "0x0000000000000000000000000000000000000000000000000000000000000002",
            "0x000000000000000000000000bb46678a1f6c527bd79ecfbf85332b8ae83ceaf1"
          ],
          "data": "0x000000000000000000000000000000000000000000034f086f3b33b684000000",
          "blockHash": "0x44dff258b677be561112dbd74676a4cc256143aad2001571271c56058024d8ac",
          "blockNumber": "0x9df85b",
          "blockTimestamp": "0x69a287c0",
          "transactionHash": "0x350c00cde7a1a371cbfd5190495c4a7ec9c40964be684e08071cc03b348f9d45",
          "transactionIndex": "0x5f",
          "logIndex": "0xc5",
          "removed": false
        }
      ],
      "logsBloom": "0x04000000000000000000000000000000000000000000000000000000000000800000010000000000000000000000000000000000000000000000000000000000000000000000000000000008000000000000000000000000000000800000000000000000000000000000000000000000000002000000000000000010000000000100000008000001000000000000000080000000000000000000000000000000000000000000000000000100000000000400000040000000000000000000000000000002000001000000000000000001002800008000000000000000000000000000000000000000000000000000000000000000008000000000000400000100",
      "type": "0x2",
      "transactionHash": "0x350c00cde7a1a371cbfd5190495c4a7ec9c40964be684e08071cc03b348f9d45",
      "transactionIndex": "0x5f",
      "blockHash": "0x44dff258b677be561112dbd74676a4cc256143aad2001571271c56058024d8ac",
      "blockNumber": "0x9df85b",
      "gasUsed": "0x10e68",
      "effectiveGasPrice": "0x10f6f3",
      "from": "0xf68d9e0faa751ad61e0ed70852798bf9d9c04bf7",
      "to": "0xed8f1d9dc67d0c5073832ce09214315fc584b4e8",
      "contractAddress": null
    }
  ],
  "libraries": [],
  "pending": [],
  "returns": {},
  "timestamp": 1772259265684,
  "chain": 11155111,
  "commit": "f843746"
}