{
  "transactions": [
    {
      "hash": "0xa7e9a8dfdf9b1b4af69ba43d8a6dfc7fd25f2f841372947423b3037b21d51af2",
      "transactionType": "CALL",
      "contractName": null,
      "contractAddress": "0xbb46678a1f6c527bd79ecfbf85332b8ae83ceaf1",
      "function": "approve(address,uint256)",
      "arguments": [
        "0xeD8f1d9DC67d0C5073832cE09214315Fc584b4e8",
        "4000000000000000000000000"
      ],
      "transaction": {
        "from": "0x474b4e7fd1a143edea6b77aa845f429d443e6410",
        "to": "0xbb46678a1f6c527bd79ecfbf85332b8ae83ceaf1",
        "gas": "0xfd53",
        "value": "0x0",
        "input": "0x095ea7b3000000000000000000000000ed8f1d9dc67d0c5073832ce09214315fc584b4e8000000000000000000000000000000000000000000034f086f3b33b684000000",
        "nonce": "0x12",
        "chainId": "0xaa36a7"
      },
      "additionalContracts": [],
      "isFixedGasLimit": false
    },
    {
      "hash": "0xeaa40b109dba1e06b55352853de0f73d356bb0a005f9ef7f6f0a3ac5b972e1f3",
      "transactionType": "CALL",
      "contractName": "MarginVault",
      "contractAddress": "0xed8f1d9dc67d0c5073832ce09214315fc584b4e8",
      "function": "depositMargin(bytes32,address,uint256)",
      "arguments": [
        "0x0000000000000000000000000000000000000000000000000000000000000001",
        "0xbb46678a1F6C527bD79eCFBF85332B8Ae83ceaf1",
        "4000000000000000000000000"
      ],
      "transaction": {
        "from": "0x474b4e7fd1a143edea6b77aa845f429d443e6410",
        "to": "0xed8f1d9dc67d0c5073832ce09214315fc584b4e8",
        "gas": "0x2f664",
        "value": "0x0",
        "input": "0x6812d3150000000000000000000000000000000000000000000000000000000000000001000000000000000000000000bb46678a1f6c527bd79ecfbf85332b8ae83ceaf1000000000000000000000000000000000000000000034f086f3b33b684000000",
        "nonce": "0x13",
        "chainId": "0xaa36a7"
      },
      "additionalContracts": [],
      "isFixedGasLimit": false
    },
    {
      "hash": "0x2e02bd126f802f11cb8c492c5b27c64c6e7a4b0b533f5b11a74b465334a8ef68",
      "transactionType": "CALL",
      "contractName": null,
      "contractAddress": "0xbb46678a1f6c527bd79ecfbf85332b8ae83ceaf1",
      "function": "approve(address,uint256)",
      "arguments": [
        "0xeD8f1d9DC67d0C5073832cE09214315Fc584b4e8",
        "4000000000000000000000000"
      ],
      "transaction": {
        "from": "0xf68d9e0faa751ad61e0ed70852798bf9d9c04bf7",
        "to": "0xbb46678a1f6c527bd79ecfbf85332b8ae83ceaf1",
        "gas": "0xfd53",
        "value": "0x0",
        "input": "0x095ea7b3000000000000000000000000ed8f1d9dc67d0c5073832ce09214315fc584b4e8000000000000000000000000000000000000000000034f086f3b33b684000000",
        "nonce": "0x10",
        "chainId": "0xaa36a7"
      },
      "additionalContracts": [],
      "isFixedGasLimit": false
    },
    {
      "hash": "0xa387fe7e7e3200369cc66536b8bdb27f37a00a95a3ed3a3982d694b83f449f4f",
      "transactionType": "CALL",
      "contractName": "MarginVault",
      "contractAddress": "0xed8f1d9dc67d0c5073832ce09214315fc584b4e8",
      "function": "depositMargin(bytes32,address,uint256)",
      "arguments": [
        "0x0000000000000000000000000000000000000000000000000000000000000002",
        "0xbb46678a1F6C527bD79eCFBF85332B8Ae83ceaf1",
        "4000000000000000000000000"
      ],
      "transaction": {
        "from": "0xf68d9e0faa751ad61e0ed70852798bf9d9c04bf7",
        "to": "0xed8f1d9dc67d0c5073832ce09214315fc584b4e8",
        "gas": "0x29a20",
        "value": "0x0",
        "input": "0x6812d3150000000000000000000000000000000000000000000000000000000000000002000000000000000000000000bb46678a1f6c527bd79ecfbf85332b8ae83ceaf1000000000000000000000000000000000000000000034f086f3b33b684000000",
        "nonce": "0x11",
        "chainId": "0xaa36a7"
      },
      "additionalContracts": [],
      "isFixedGasLimit": false
    }
  ],
  "receipts": [
    {
      "status": "0x1",
      "cumulativeGasUsed": "0x9363bb",
      "logs": [
        {
          "address": "0xbb46678a1f6c527bd79ecfbf85332b8ae83ceaf1",
          "topics": [
            "0x8c5be1e5ebec7d5bd14f71427d1e84f3dd0314c0f7b2291e5b200ac8c7c3b925",
            "0x000000000000000000000000474b4e7fd1a143edea6b77aa845f429d443e6410",
            "0x000000000000000000000000ed8f1d9dc67d0c5073832ce09214315fc584b4e8"
          ],
          "data": "0x000000000000000000000000000000000000000000034f086f3b33b684000000",
          "blockHash": "0xf12ecf184fb866f7638305084b724df41a455ce262f66fd5078eae88c40f013d",
          "blockNumber": "0x9df5a4",
          "blockTimestamp": "0x69a2666c",
          "transactionHash": "0xa7e9a8dfdf9b1b4af69ba43d8a6dfc7fd25f2f841372947423b3037b21d51af2",
          "transactionIndex": "0x77",
          "logIndex": "0xa4",
          "removed": false
        }
      ],
      "logsBloom": "0x00000000000000000000000000000000000000000000000000000000000000000000000000000000000000000000000000000000000000000000000000200000000000000000000000000000000000000000000000000000000000800000000000400000000000000000000000000000000002000000000000000000000000000100000008000000000000000000000080000000000000000000000000000000020000000000000000000000000000000000000000000000000100000000000000000000000000000000000000000000000000008000000000000010000000000010000000000000000000000000000000000000000000000000000000000000",
      "type": "0x2",
      "transactionHash": "0xa7e9a8dfdf9b1b4af69ba43d8a6dfc7fd25f2f841372947423b3037b21d51af2",
      "transactionIndex": "0x77",
      "blockHash": "0xf12ecf184fb866f7638305084b724df41a455ce262f66fd5078eae88c40f013d",
      "blockNumber": "0x9df5a4",
      "gasUsed": "0xb768",
      "effectiveGasPrice": "0x10a3de",
      "from": "0x474b4e7fd1a143edea6b77aa845f429d443e6410",
      "to": "0xbb46678a1f6c527bd79ecfbf85332b8ae83ceaf1",
      "contractAddress": null
    },
    {
      "status": "0x1",
      "cumulativeGasUsed": "0x15c7d4f",
      "logs": [
        {
          "address": "0xbb46678a1f6c527bd79ecfbf85332b8ae83ceaf1",
          "topics": [
            "0xddf252ad1be2c89b69c2b068fc378daa952ba7f163c4a11628f55a4df523b3ef",
            "0x000000000000000000000000474b4e7fd1a143edea6b77aa845f429d443e6410",
            "0x000000000000000000000000ed8f1d9dc67d0c5073832ce09214315fc584b4e8"
          ],
          "data": "0x000000000000000000000000000000000000000000034f086f3b33b684000000",
          "blockHash": "0x8675bf2e130f6a2ed24faf9d09c57cb0b6c6a126d07ef9aae9adbf0f6edbb449",
          "blockNumber": "0x9df5a5",
          "blockTimestamp": "0x69a26690",
          "transactionHash": "0xeaa40b109dba1e06b55352853de0f73d356bb0a005f9ef7f6f0a3ac5b972e1f3",
          "transactionIndex": "0xc2",
          "logIndex": "0xfb",
          "removed": false
        },
        {
          "address": "0xed8f1d9dc67d0c5073832ce09214315fc584b4e8",
          "topics": [
            "0x30f6180e248310ab0c789da3026fbba7390872be072cfc5b3c20733f3a980c9e",
            "0x0000000000000000000000000000000000000000000000000000000000000001",
            "0x000000000000000000000000bb46678a1f6c527bd79ecfbf85332b8ae83ceaf1"
          ],
          "data": "0x000000000000000000000000000000000000000000034f086f3b33b684000000",
          "blockHash": "0x8675bf2e130f6a2ed24faf9d09c57cb0b6c6a126d07ef9aae9adbf0f6edbb449",
          "blockNumber": "0x9df5a5",
          "blockTimestamp": "0x69a26690",
          "transactionHash": "0xeaa40b109dba1e06b55352853de0f73d356bb0a005f9ef7f6f0a3ac5b972e1f3",
          "transactionIndex": "0xc2",
          "logIndex": "0xfc",
          "removed": false
        }
      ],
      "logsBloom": "0x00000000000000000000000000000000000000000000000000000000000000000000010000000000000000000000000000000000000000000000000000040000000000000000000000000008000000000000000000040000000000800000000000400000000000000000000000000000000002000000000000000010000000000100000008000001000000000000000080000000000000000000000000000000000000000000000000000000000000000000000040000000000100000000000000000002000001000000000000000001002800008000000000000010000040000000000000000000000000000000000000000000000000000000000400000100",
      "type": "0x2",
      "transactionHash": "0xeaa40b109dba1e06b55352853de0f73d356bb0a005f9ef7f6f0a3ac5b972e1f3",
      "transactionIndex": "0xc2",
      "blockHash": "0x8675bf2e130f6a2ed24faf9d09c57cb0b6c6a126d07ef9aae9adbf0f6edbb449",
      "blockNumber": "0x9df5a5",
      "gasUsed": "0x22510",
      "effectiveGasPrice": "0x10a3df",
      "from": "0x474b4e7fd1a143edea6b77aa845f429d443e6410",
      "to": "0xed8f1d9dc67d0c5073832ce09214315fc584b4e8",
      "contractAddress": null
    },
    {
      "status": "0x1",
      "cumulativeGasUsed": "0xf0285e",
      "logs": [
        {
          "address": "0xbb46678a1f6c527bd79ecfbf85332b8ae83ceaf1",
          "topics": [
            "0x8c5be1e5ebec7d5bd14f71427d1e84f3dd0314c0f7b2291e5b200ac8c7c3b925",
            "0x000000000000000000000000f68d9e0faa751ad61e0ed70852798bf9d9c04bf7",
            "0x000000000000000000000000ed8f1d9dc67d0c5073832ce09214315fc584b4e8"
          ],
          "data": "0x000000000000000000000000000000000000000000034f086f3b33b684000000",
          "blockHash": "0x58be7266a626a9831332424df87b0aca609505ec0ca530fc4bbb59fc0cf8fff8",
          "blockNumber": "0x9df5a6",
          "blockTimestamp": "0x69a2669c",
          "transactionHash": "0x2e02bd126f802f11cb8c492c5b27c64c6e7a4b0b533f5b11a74b465334a8ef68",
          "transactionIndex": "0x63",
          "logIndex": "0x5c",
          "removed": false
        }
      ],
      "logsBloom": "0x00000000000000000000000000000000000000000000000000000000000000800000000000000000000000000000000000000000000000000000000000200000000000000000000000000000000000000000000000000000000000800000000000000000000000000000000000000000000002000000000000000000000000000100000008000000000000000000000080000000000000000000000000000000020000000000000000000000000000000400000000000000000000000000000000000000000000000000000000000001000000008000000000000000000000000010000000000000000000000000000000000000000000000000000000000000",
      "type": "0x2",
      "transactionHash": "0x2e02bd126f802f11cb8c492c5b27c64c6e7a4b0b533f5b11a74b465334a8ef68",
      "transactionIndex": "0x63",
      "blockHash": "0x58be7266a626a9831332424df87b0aca609505ec0ca530fc4bbb59fc0cf8fff8",
      "blockNumber": "0x9df5a6",
      "gasUsed": "0xb768",
      "effectiveGasPrice": "0x10a3e1",
      "from": "0xf68d9e0faa751ad61e0ed70852798bf9d9c04bf7",
      "to": "0xbb46678a1f6c527bd79ecfbf85332b8ae83ceaf1",
      "contractAddress": null
    },
    {
      "status": "0x1",
      "cumulativeGasUsed": "0xdf2329",
      "logs": [
        {
          "address": "0xbb46678a1f6c527bd79ecfbf85332b8ae83ceaf1",
          "topics": [
            "0xddf252ad1be2c89b69c2b068fc378daa952ba7f163c4a11628f55a4df523b3ef",
            "0x000000000000000000000000f68d9e0faa751ad61e0ed70852798bf9d9c04bf7",
            "0x000000000000000000000000ed8f1d9dc67d0c5073832ce09214315fc584b4e8"
          ],
          "data": "0x000000000000000000000000000000000000000000034f086f3b33b684000000",
          "blockHash": "0xca26ed67f355acc42b57c31c4630e4f00d88cc9c587d49eafb4cce568407bb6e",
          "blockNumber": "0x9df5a7",
          "blockTimestamp": "0x69a266a8",
          "transactionHash": "0xa387fe7e7e3200369cc66536b8bdb27f37a00a95a3ed3a3982d694b83f449f4f",
          "transactionIndex": "0x5b",
          "logIndex": "0xa6",
          "removed": false
        },
        {
          "address": "0xed8f1d9dc67d0c5073832ce09214315fc584b4e8",
          "topics": [
            "0x30f6180e248310ab0c789da3026fbba7390872be072cfc5b3c20733f3a980c9e",
            "0x0000000000000000000000000000000000000000000000000000000000000002",
            "0x000000000000000000000000bb46678a1f6c527bd79ecfbf85332b8ae83ceaf1"
          ],
          "data": "0x000000000000000000000000000000000000000000034f086f3b33b684000000",
          "blockHash": "0xca26ed67f355acc42b57c31c4630e4f00d88cc9c587d49eafb4cce568407bb6e",
          "blockNumber": "0x9df5a7",
          "blockTimestamp": "0x69a266a8",
          "transactionHash": "0xa387fe7e7e3200369cc66536b8bdb27f37a00a95a3ed3a3982d694b83f449f4f",
          "transactionIndex": "0x5b",
          "logIndex": "0xa7",
          "removed": false
        }
      ],
      "logsBloom": "0x04000000000000000000000000000000000000000000000000000000000000800000010000000000000000000000000000000000000000000000000000000000000000000000000000000008000000000000000000000000000000800000000000000000000000000000000000000000000002000000000000000010000000000100000008000001000000000000000080000000000000000000000000000000000000000000000000000100000000000400000040000000000000000000000000000002000001000000000000000001002800008000000000000000000000000000000000000000000000000000000000000000008000000000000400000100",
      "type": "0x2",
      "transactionHash": "0xa387fe7e7e3200369cc66536b8bdb27f37a00a95a3ed3a3982d694b83f449f4f",
      "transactionIndex": "0x5b",
      "blockHash": "0xca26ed67f355acc42b57c31c4630e4f00d88cc9c587d49eafb4cce568407bb6e",
      "blockNumber": "0x9df5a7",
      "gasUsed": "0x1e244",
      "effectiveGasPrice": "0x10a3e2",
      "from": "0xf68d9e0faa751ad61e0ed70852798bf9d9c04bf7",
      "to": "0xed8f1d9dc67d0c5073832ce09214315fc584b4e8",
      "contractAddress": null
    }
  ],
  "libraries": [],
  "pending": [],
  "returns": {},
  "timestamp": 1772250792505,
  "chain": 11155111,
  "commit": "76afb75"
}