{
  "transactions": [
    {
      "hash": "0x5c0a82a42028fa80c083ecc0ee7c309f9884730ae576d651f2a4b1f71b554130",
      "transactionType": "CALL",
      "contractName": null,
      "contractAddress": "0xbb46678a1f6c527bd79ecfbf85332b8ae83ceaf1",
      "function": "approve(address,uint256)",
      "arguments": [
        "0xc880D4Fc4De634436870A604957e21932995c5Db",
        "4000000000000000000000000"
      ],
      "transaction": {
        "from": "0x474b4e7fd1a143edea6b77aa845f429d443e6410",
        "to": "0xbb46678a1f6c527bd79ecfbf85332b8ae83ceaf1",
        "gas": "0xfd53",
        "value": "0x0",
        "input": "0x095ea7b3000000000000000000000000c880d4fc4de634436870a604957e21932995c5db000000000000000000000000000000000000000000034f086f3b33b684000000",
        "nonce": "0x2",
        "chainId": "0xaa36a7"
      },
      "additionalContracts": [],
      "isFixedGasLimit": false
    },
    {
      "hash": "0x9f7d6450bd94be2fde234638df4f0266e287f8e7251b142b5d37c8e48b47138e",
      "transactionType": "CALL",
      "contractName": "MarginVault",
      "contractAddress": "0xc880d4fc4de634436870a604957e21932995c5db",
      "function": "depositMargin(bytes32,address,uint256)",
      "arguments": [
        "0x0000000000000000000000000000000000000000000000000000000000000001",
        "0xbb46678a1F6C527bD79eCFBF85332B8Ae83ceaf1",
        "4000000000000000000000000"
      ],
      "transaction": {
        "from": "0x474b4e7fd1a143edea6b77aa845f429d443e6410",
        "to": "0xc880d4fc4de634436870a604957e21932995c5db",
        "gas": "0x18ac9",
        "value": "0x0",
        "input": "0x6812d3150000000000000000000000000000000000000000000000000000000000000001000000000000000000000000bb46678a1f6c527bd79ecfbf85332b8ae83ceaf1000000000000000000000000000000000000000000034f086f3b33b684000000",
        "nonce": "0x3",
        "chainId": "0xaa36a7"
      },
      "additionalContracts": [],
      "isFixedGasLimit": false
    },
    {
      "hash": "0x30b2215ffd56f2573f46f153fb01323f2329fbe13a98cc401224f0fc2df38c79",
      "transactionType": "CALL",
      "contractName": null,
      "contractAddress": "0xbb46678a1f6c527bd79ecfbf85332b8ae83ceaf1",
      "function": "approve(address,uint256)",
      "arguments": [
        "0xc880D4Fc4De634436870A604957e21932995c5Db",
        "4000000000000000000000000"
      ],
      "transaction": {
        "from": "0xf68d9e0faa751ad61e0ed70852798bf9d9c04bf7",
        "to": "0xbb46678a1f6c527bd79ecfbf85332b8ae83ceaf1",
        "gas": "0xfd53",
        "value": "0x0",
        "input": "0x095ea7b3000000000000000000000000c880d4fc4de634436870a604957e21932995c5db000000000000000000000000000000000000000000034f086f3b33b684000000",
        "nonce": "0x0",
        "chainId": "0xaa36a7"
      },
      "additionalContracts": [],
      "isFixedGasLimit": false
    },
    {
      "hash": "0x061a8cd9a38389179e28423a0494316d7ebe0c3a03ad0799bc2ab38f5f31c322",
      "transactionType": "CALL",
      "contractName": "MarginVault",
      "contractAddress": "0xc880d4fc4de634436870a604957e21932995c5db",
      "function": "depositMargin(bytes32,address,uint256)",
      "arguments": [
        "0x0000000000000000000000000000000000000000000000000000000000000002",
        "0xbb46678a1F6C527bD79eCFBF85332B8Ae83ceaf1",
        "4000000000000000000000000"
      ],
      "transaction": {
        "from": "0xf68d9e0faa751ad61e0ed70852798bf9d9c04bf7",
        "to": "0xc880d4fc4de634436870a604957e21932995c5db",
        "gas": "0x2997b",
        "value": "0x0",
        "input": "0x6812d3150000000000000000000000000000000000000000000000000000000000000002000000000000000000000000bb46678a1f6c527bd79ecfbf85332b8ae83ceaf1000000000000000000000000000000000000000000034f086f3b33b684000000",
        "nonce": "0x1",
        "chainId": "0xaa36a7"
      },
      "additionalContracts": [],
      "isFixedGasLimit": false
    }
  ],
  "receipts": [
    {
      "status": "0x1",
      "cumulativeGasUsed": "0xbd5cba",
      "logs": [
        {
          "address": "0xbb46678a1f6c527bd79ecfbf85332b8ae83ceaf1",
          "topics": [
            "0x8c5be1e5ebec7d5bd14f71427d1e84f3dd0314c0f7b2291e5b200ac8c7c3b925",
            "0x000000000000000000000000474b4e7fd1a143edea6b77aa845f429d443e6410",
            "0x000000000000000000000000c880d4fc4de634436870a604957e21932995c5db"
          ],
          "data": "0x000000000000000000000000000000000000000000034f086f3b33b684000000",
          "blockHash": "0x5226339586b1773606b1205582e324fb000c9802c5472a980ef92c4662de01ba",
          "blockNumber": "0x9d9057",
          "blockTimestamp": "0x699d6a88",
          "transactionHash": "0x5c0a82a42028fa80c083ecc0ee7c309f9884730ae576d651f2a4b1f71b554130",
          "transactionIndex": "0x47",
          "logIndex": "0xd5",
          "removed": false
        }
      ],
      "logsBloom": "0x00000000000000000000000000000000000000000000000000000000000000000000000000000000000000000000000000000000000000000000000000200000000000000000000000000020000000000000000000000000000000000000000000400000000000000000000000000000000000000000000000000000000000000100000008800000000000000000000000000000000000000000000000000000020000000000000000000000000000000000000000000000000100000000000000000000000000000000000000000000000000008000000000000010000000000010000000000000000000000100000000000000000000000000000000000000",
      "type": "0x2",
      "transactionHash": "0x5c0a82a42028fa80c083ecc0ee7c309f9884730ae576d651f2a4b1f71b554130",
      "transactionIndex": "0x47",
      "blockHash": "0x5226339586b1773606b1205582e324fb000c9802c5472a980ef92c4662de01ba",
      "blockNumber": "0x9d9057",
      "gasUsed": "0xb768",
      "effectiveGasPrice": "0xf425e",
      "from": "0x474b4e7fd1a143edea6b77aa845f429d443e6410",
      "to": "0xbb46678a1f6c527bd79ecfbf85332b8ae83ceaf1",
      "contractAddress": null
    },
    {
      "status": "0x1",
      "cumulativeGasUsed": "0xd612d6",
      "logs": [
        {
          "address": "0xbb46678a1f6c527bd79ecfbf85332b8ae83ceaf1",
          "topics": [
            "0xddf252ad1be2c89b69c2b068fc378daa952ba7f163c4a11628f55a4df523b3ef",
            "0x000000000000000000000000474b4e7fd1a143edea6b77aa845f429d443e6410",
            "0x000000000000000000000000c880d4fc4de634436870a604957e21932995c5db"
          ],
          "data": "0x000000000000000000000000000000000000000000034f086f3b33b684000000",
          "blockHash": "0xb4fdff40922682cefab2ec9517826f6686a08cf32451c1320b53a0cb9b4471ec",
          "blockNumber": "0x9d9058",
          "blockTimestamp": "0x699d6a94",
          "transactionHash": "0x9f7d6450bd94be2fde234638df4f0266e287f8e7251b142b5d37c8e48b47138e",
          "transactionIndex": "0x7e",
          "logIndex": "0x10f",
          "removed": false
        },
        {
          "address": "0xc880d4fc4de634436870a604957e21932995c5db",
          "topics": [
            "0x30f6180e248310ab0c789da3026fbba7390872be072cfc5b3c20733f3a980c9e",
            "0x0000000000000000000000000000000000000000000000000000000000000001",
            "0x000000000000000000000000bb46678a1f6c527bd79ecfbf85332b8ae83ceaf1"
          ],
          "data": "0x000000000000000000000000000000000000000000034f086f3b33b684000000",
          "blockHash": "0xb4fdff40922682cefab2ec9517826f6686a08cf32451c1320b53a0cb9b4471ec",
          "blockNumber": "0x9d9058",
          "blockTimestamp": "0x699d6a94",
          "transactionHash": "0x9f7d6450bd94be2fde234638df4f0266e287f8e7251b142b5d37c8e48b47138e",
          "transactionIndex": "0x7e",
          "logIndex": "0x110",
          "removed": false
        }
      ],
      "logsBloom": "0x00000000000000000000000000000000000000000000000000000000000000000000000000000000000000000000000000000000000000000000000000040000000000000000000000000028000000000000000000040000001000000000000000400000000000000000000000000000000000000000000000000010000000000100000008800001000000000000000000000000000000000220000000000000000000000000000000000000000000000000000040000000000100000000000000000002000001000000000000000001000800008000000000000010000040000000000000000000000000000100000000000000000000000000000400000000",
      "type": "0x2",
      "transactionHash": "0x9f7d6450bd94be2fde234638df4f0266e287f8e7251b142b5d37c8e48b47138e",
      "transactionIndex": "0x7e",
      "blockHash": "0xb4fdff40922682cefab2ec9517826f6686a08cf32451c1320b53a0cb9b4471ec",
      "blockNumber": "0x9d9058",
      "gasUsed": "0x10df1",
      "effectiveGasPrice": "0xf425d",
      "from": "0x474b4e7fd1a143edea6b77aa845f429d443e6410",
      "to": "0xc880d4fc4de634436870a604957e21932995c5db",
      "contractAddress": null
    },
    {
      "status": "0x1",
      "cumulativeGasUsed": "0x1bc7e0b",
      "logs": [
        {
          "address": "0xbb46678a1f6c527bd79ecfbf85332b8ae83ceaf1",
          "topics": [
            "0x8c5be1e5ebec7d5bd14f71427d1e84f3dd0314c0f7b2291e5b200ac8c7c3b925",
            "0x000000000000000000000000f68d9e0faa751ad61e0ed70852798bf9d9c04bf7",
            "0x000000000000000000000000c880d4fc4de634436870a604957e21932995c5db"
          ],
          "data": "0x000000000000000000000000000000000000000000034f086f3b33b684000000",
          "blockHash": "0xb6a32addad7432786e2b3d99b7c3f4153d6689db1cc06c75bebba2ad5809c702",
          "blockNumber": "0x9d9059",
          "blockTimestamp": "0x699d6aa0",
          "transactionHash": "0x30b2215ffd56f2573f46f153fb01323f2329fbe13a98cc401224f0fc2df38c79",
          "transactionIndex": "0x7d",
          "logIndex": "0x10a",
          "removed": false
        }
      ],
      "logsBloom": "0x00000000000000000000000000000000000000000000000000000000000000800000000000000000000000000000000000000000000000000000000000200000000000000000000000000020000000000000000000000000000000000000000000000000000000000000000000000000000000000000000000000000000000000100000008800000000000000000000000000000000000000000000000000000020000000000000000000000000000000400000000000000000000000000000000000000000000000000000000000001000000008000000000000000000000000010000000000000000000000100000000000000000000000000000000000000",
      "type": "0x2",
      "transactionHash": "0x30b2215ffd56f2573f46f153fb01323f2329fbe13a98cc401224f0fc2df38c79",
      "transactionIndex": "0x7d",
      "blockHash": "0xb6a32addad7432786e2b3d99b7c3f4153d6689db1cc06c75bebba2ad5809c702",
      "blockNumber": "0x9d9059",
      "gasUsed": "0xb768",
      "effectiveGasPrice": "0xf425c",
      "from": "0xf68d9e0faa751ad61e0ed70852798bf9d9c04bf7",
      "to": "0xbb46678a1f6c527bd79ecfbf85332b8ae83ceaf1",
      "contractAddress": null
    },
    {
      "status": "0x1",
      "cumulativeGasUsed": "0x2b8123f",
      "logs": [
        {
          "address": "0xbb46678a1f6c527bd79ecfbf85332b8ae83ceaf1",
          "topics": [
            "0xddf252ad1be2c89b69c2b068fc378daa952ba7f163c4a11628f55a4df523b3ef",
            "0x000000000000000000000000f68d9e0faa751ad61e0ed70852798bf9d9c04bf7",
            "0x000000000000000000000000c880d4fc4de634436870a604957e21932995c5db"
          ],
          "data": "0x000000000000000000000000000000000000000000034f086f3b33b684000000",
          "blockHash": "0xb61bfe4d0598e7d6e69eb84add012a2f52dbf2426d71cc0be232c255901dee0d",
          "blockNumber": "0x9d905b",
          "blockTimestamp": "0x699d6ab8",
          "transactionHash": "0x061a8cd9a38389179e28423a0494316d7ebe0c3a03ad0799bc2ab38f5f31c322",
          "transactionIndex": "0x9a",
          "logIndex": "0x197",
          "removed": false
        },
        {
          "address": "0xc880d4fc4de634436870a604957e21932995c5db",
          "topics": [
            "0x30f6180e248310ab0c789da3026fbba7390872be072cfc5b3c20733f3a980c9e",
            "0x0000000000000000000000000000000000000000000000000000000000000002",
            "0x000000000000000000000000bb46678a1f6c527bd79ecfbf85332b8ae83ceaf1"
          ],
          "data": "0x000000000000000000000000000000000000000000034f086f3b33b684000000",
          "blockHash": "0xb61bfe4d0598e7d6e69eb84add012a2f52dbf2426d71cc0be232c255901dee0d",
          "blockNumber": "0x9d905b",
          "blockTimestamp": "0x699d6ab8",
          "transactionHash": "0x061a8cd9a38389179e28423a0494316d7ebe0c3a03ad0799bc2ab38f5f31c322",
          "transactionIndex": "0x9a",
          "logIndex": "0x198",
          "removed": false
        }
      ],
      "logsBloom": "0x04000000000000000000000000000000000000000000000000000000000000800000000000000000000000000000000000000000000000000000000000000000000000000000000000000028000000000000000000000000001000000000000000000000000000000000000000000000000000000000000000000010000000000100000008800001000000000000000000000000000000000220000000000000000000000000000000000100000000000400000040000000000000000000000000000002000001000000000000000001000800008000000000000000000000000000000000000000000000000100000000000000008000000000000400000000",
      "type": "0x2",
      "transactionHash": "0x061a8cd9a38389179e28423a0494316d7ebe0c3a03ad0799bc2ab38f5f31c322",
      "transactionIndex": "0x9a",
      "blockHash": "0xb61bfe4d0598e7d6e69eb84add012a2f52dbf2426d71cc0be232c255901dee0d",
      "blockNumber": "0x9d905b",
      "gasUsed": "0x1e1cd",
      "effectiveGasPrice": "0xf425a",
      "from": "0xf68d9e0faa751ad61e0ed70852798bf9d9c04bf7",
      "to": "0xc880d4fc4de634436870a604957e21932995c5db",
      "contractAddress": null
    }
  ],
  "libraries": [],
  "pending": [],
  "returns": {},
  "timestamp": 1771924153486,
  "chain": 11155111,
  "commit": "db846f0"
}