{
  "transactions": [
    {
      "hash": "0xc1f2fe8c690167801311d73f329dac84b948e5ff0fbf30d3e5f313d32d2804cf",
      "transactionType": "CALL",
      "contractName": null,
      "contractAddress": "0xbb46678a1f6c527bd79ecfbf85332b8ae83ceaf1",
      "function": "approve(address,uint256)",
      "arguments": [
        "0xBAC60f62724F0CFde5fB814ccD3F784d9841Ded1",
        "4000000000000000000000000"
      ],
      "transaction": {
        "from": "0x474b4e7fd1a143edea6b77aa845f429d443e6410",
        "to": "0xbb46678a1f6c527bd79ecfbf85332b8ae83ceaf1",
        "gas": "0xfd53",
        "value": "0x0",
        "input": "0x095ea7b3000000000000000000000000bac60f62724f0cfde5fb814ccd3f784d9841ded1000000000000000000000000000000000000000000034f086f3b33b684000000",
        "nonce": "0x6",
        "chainId": "0xaa36a7"
      },
      "additionalContracts": [],
      "isFixedGasLimit": false
    },
    {
      "hash": "0x68b32a826435dcf92bd0281985a94e8f0c8bf79285c3484c65e627a3492ebde9",
      "transactionType": "CALL",
      "contractName": "MarginVault",
      "contractAddress": "0xbac60f62724f0cfde5fb814ccd3f784d9841ded1",
      "function": "depositMargin(bytes32,address,uint256)",
      "arguments": [
        "0x0000000000000000000000000000000000000000000000000000000000000001",
        "0xbb46678a1F6C527bD79eCFBF85332B8Ae83ceaf1",
        "4000000000000000000000000"
      ],
      "transaction": {
        "from": "0x474b4e7fd1a143edea6b77aa845f429d443e6410",
        "to": "0xbac60f62724f0cfde5fb814ccd3f784d9841ded1",
        "gas": "0x32252",
        "value": "0x0",
        "input": "0x6812d3150000000000000000000000000000000000000000000000000000000000000001000000000000000000000000bb46678a1f6c527bd79ecfbf85332b8ae83ceaf1000000000000000000000000000000000000000000034f086f3b33b684000000",
        "nonce": "0x7",
        "chainId": "0xaa36a7"
      },
      "additionalContracts": [],
      "isFixedGasLimit": false
    },
    {
      "hash": "0xabe8f55f6bd5666ce33590aabcb7561574d25d5b60245e6bdf402e3097dcc1b4",
      "transactionType": "CALL",
      "contractName": null,
      "contractAddress": "0xbb46678a1f6c527bd79ecfbf85332b8ae83ceaf1",
      "function": "approve(address,uint256)",
      "arguments": [
        "0xBAC60f62724F0CFde5fB814ccD3F784d9841Ded1",
        "4000000000000000000000000"
      ],
      "transaction": {
        "from": "0xf68d9e0faa751ad61e0ed70852798bf9d9c04bf7",
        "to": "0xbb46678a1f6c527bd79ecfbf85332b8ae83ceaf1",
        "gas": "0xfd53",
        "value": "0x0",
        "input": "0x095ea7b3000000000000000000000000bac60f62724f0cfde5fb814ccd3f784d9841ded1000000000000000000000000000000000000000000034f086f3b33b684000000",
        "nonce": "0x4",
        "chainId": "0xaa36a7"
      },
      "additionalContracts": [],
      "isFixedGasLimit": false
    },
    {
      "hash": "0x7892be9f1325e0e3e73955fa7be178241187be16a7920bdc1a521fec878faf54",
      "transactionType": "CALL",
      "contractName": "MarginVault",
      "contractAddress": "0xbac60f62724f0cfde5fb814ccd3f784d9841ded1",
      "function": "depositMargin(bytes32,address,uint256)",
      "arguments": [
        "0x0000000000000000000000000000000000000000000000000000000000000002",
        "0xbb46678a1F6C527bD79eCFBF85332B8Ae83ceaf1",
        "4000000000000000000000000"
      ],
      "transaction": {
        "from": "0xf68d9e0faa751ad61e0ed70852798bf9d9c04bf7",
        "to": "0xbac60f62724f0cfde5fb814ccd3f784d9841ded1",
        "gas": "0x2997b",
        "value": "0x0",
        "input": "0x6812d3150000000000000000000000000000000000000000000000000000000000000002000000000000000000000000bb46678a1f6c527bd79ecfbf85332b8ae83ceaf1000000000000000000000000000000000000000000034f086f3b33b684000000",
        "nonce": "0x5",
        "chainId": "0xaa36a7"
      },
      "additionalContracts": [],
      "isFixedGasLimit": false
    }
  ],
  "receipts": [
    {
      "status": "0x1",
      "cumulativeGasUsed": "0x122144c",
      "logs": [
        {
          "address": "0xbb46678a1f6c527bd79ecfbf85332b8ae83ceaf1",
          "topics": [
            "0x8c5be1e5ebec7d5bd14f71427d1e84f3dd0314c0f7b2291e5b200ac8c7c3b925",
            "0x000000000000000000000000474b4e7fd1a143edea6b77aa845f429d443e6410",
            "0x000000000000000000000000bac60f62724f0cfde5fb814ccd3f784d9841ded1"
          ],
          "data": "0x000000000000000000000000000000000000000000034f086f3b33b684000000",
          "blockHash": "0x84cba44761a2db4e157219a076733f64d9e3ca8960b9cce446ebec1852848879",
          "blockNumber": "0x9da75d",
          "blockTimestamp": "0x699e8f68",
          "transactionHash": "0xc1f2fe8c690167801311d73f329dac84b948e5ff0fbf30d3e5f313d32d2804cf",
          "transactionIndex": "0x5b",
          "logIndex": "0xd0",
          "removed": false
        }
      ],
      "logsBloom": "0x00000000000000000000000000000000000000000000000000000000000000000000000000000000000000000000000000000000000000000000000000200000000000000000000000000000000100000000000000000000000000000000000000400000000000000000000000000000000000000000000000000000000000000100000008000000000080000000000000000000000000000000000000000000020000000000000000000000000000000000000000000000000100000000000000000000000000000000000000000002000000008000000000000010000000000010000000000000000000000000000000000000000000000000000000000000",
      "type": "0x2",
      "transactionHash": "0xc1f2fe8c690167801311d73f329dac84b948e5ff0fbf30d3e5f313d32d2804cf",
      "transactionIndex": "0x5b",
      "blockHash": "0x84cba44761a2db4e157219a076733f64d9e3ca8960b9cce446ebec1852848879",
      "blockNumber": "0x9da75d",
      "gasUsed": "0xb768",
      "effectiveGasPrice": "0xf4265",
      "from": "0x474b4e7fd1a143edea6b77aa845f429d443e6410",
      "to": "0xbb46678a1f6c527bd79ecfbf85332b8ae83ceaf1",
      "contractAddress": null
    },
    {
      "status": "0x1",
      "cumulativeGasUsed": "0x1938a26",
      "logs": [
        {
          "address": "0xbb46678a1f6c527bd79ecfbf85332b8ae83ceaf1",
          "topics": [
            "0xddf252ad1be2c89b69c2b068fc378daa952ba7f163c4a11628f55a4df523b3ef",
            "0x000000000000000000000000474b4e7fd1a143edea6b77aa845f429d443e6410",
            "0x000000000000000000000000bac60f62724f0cfde5fb814ccd3f784d9841ded1"
          ],
          "data": "0x000000000000000000000000000000000000000000034f086f3b33b684000000",
          "blockHash": "0xd37e603a85b8c25b0d9b7f2a221ed4b687943ef1ecee2a8e950bf225b9d442ca",
          "blockNumber": "0x9da75e",
          "blockTimestamp": "0x699e8f80",
          "transactionHash": "0x68b32a826435dcf92bd0281985a94e8f0c8bf79285c3484c65e627a3492ebde9",
          "transactionIndex": "0xae",
          "logIndex": "0x1cc",
          "removed": false
        },
        {
          "address": "0xbac60f62724f0cfde5fb814ccd3f784d9841ded1",
          "topics": [
            "0x30f6180e248310ab0c789da3026fbba7390872be072cfc5b3c20733f3a980c9e",
            "0x0000000000000000000000000000000000000000000000000000000000000001",
            "0x000000000000000000000000bb46678a1f6c527bd79ecfbf85332b8ae83ceaf1"
          ],
          "data": "0x000000000000000000000000000000000000000000034f086f3b33b684000000",
          "blockHash": "0xd37e603a85b8c25b0d9b7f2a221ed4b687943ef1ecee2a8e950bf225b9d442ca",
          "blockNumber": "0x9da75e",
          "blockTimestamp": "0x699e8f80",
          "transactionHash": "0x68b32a826435dcf92bd0281985a94e8f0c8bf79285c3484c65e627a3492ebde9",
          "transactionIndex": "0xae",
          "logIndex": "0x1cd",
          "removed": false
        }
      ],
      "logsBloom": "0x00000000000000000000000000000000000000000000000000000000000000000000000000000000000000000000000000000040000000000000000000040000000000000000000000000008000100000000000000040002000000000000000000400000000000000000000000000000000000000000000800000010000000000100000008000001000080000000000000000000000000000000000000000000000000000000000000000000000000000000000040000000000100000000000000000002000001000000000000000003000800008000000000000010000040000000000000000000000000000000000000000000000000000000000400000000",
      "type": "0x2",
      "transactionHash": "0x68b32a826435dcf92bd0281985a94e8f0c8bf79285c3484c65e627a3492ebde9",
      "transactionIndex": "0xae",
      "blockHash": "0xd37e603a85b8c25b0d9b7f2a221ed4b687943ef1ecee2a8e950bf225b9d442ca",
      "blockNumber": "0x9da75e",
      "gasUsed": "0x22499",
      "effectiveGasPrice": "0xf4264",
      "from": "0x474b4e7fd1a143edea6b77aa845f429d443e6410",
      "to": "0xbac60f62724f0cfde5fb814ccd3f784d9841ded1",
      "contractAddress": null
    },
    {
      "status": "0x1",
      "cumulativeGasUsed": "0x1bf61e3",
      "logs": [
        {
          "address": "0xbb46678a1f6c527bd79ecfbf85332b8ae83ceaf1",
          "topics": [
            "0x8c5be1e5ebec7d5bd14f71427d1e84f3dd0314c0f7b2291e5b200ac8c7c3b925",
            "0x000000000000000000000000f68d9e0faa751ad61e0ed70852798bf9d9c04bf7",
            "0x000000000000000000000000bac60f62724f0cfde5fb814ccd3f784d9841ded1"
          ],
          "data": "0x000000000000000000000000000000000000000000034f086f3b33b684000000",
          "blockHash": "0xa77d2c8c47a72956fb96df42e0d419be25a32fcf318559f0eb502e02fa3f4be0",
          "blockNumber": "0x9da75f",
          "blockTimestamp": "0x699e8f8c",
          "transactionHash": "0xabe8f55f6bd5666ce33590aabcb7561574d25d5b60245e6bdf402e3097dcc1b4",
          "transactionIndex": "0x74",
          "logIndex": "0x135",
          "removed": false
        }
      ],
      "logsBloom": "0x00000000000000000000000000000000000000000000000000000000000000800000000000000000000000000000000000000000000000000000000000200000000000000000000000000000000100000000000000000000000000000000000000000000000000000000000000000000000000000000000000000000000000000100000008000000000080000000000000000000000000000000000000000000020000000000000000000000000000000400000000000000000000000000000000000000000000000000000000000003000000008000000000000000000000000010000000000000000000000000000000000000000000000000000000000000",
      "type": "0x2",
      "transactionHash": "0xabe8f55f6bd5666ce33590aabcb7561574d25d5b60245e6bdf402e3097dcc1b4",
      "transactionIndex": "0x74",
      "blockHash": "0xa77d2c8c47a72956fb96df42e0d419be25a32fcf318559f0eb502e02fa3f4be0",
      "blockNumber": "0x9da75f",
      "gasUsed": "0xb768",
      "effectiveGasPrice": "0xf4264",
      "from": "0xf68d9e0faa751ad61e0ed70852798bf9d9c04bf7",
      "to": "0xbb46678a1f6c527bd79ecfbf85332b8ae83ceaf1",
      "contractAddress": null
    },
    {
      "status": "0x1",
      "cumulativeGasUsed": "0xaa6443",
      "logs": [
        {
          "address": "0xbb46678a1f6c527bd79ecfbf85332b8ae83ceaf1",
          "topics": [
            "0xddf252ad1be2c89b69c2b068fc378daa952ba7f163c4a11628f55a4df523b3ef",
            "0x000000000000000000000000f68d9e0faa751ad61e0ed70852798bf9d9c04bf7",
            "0x000000000000000000000000bac60f62724f0cfde5fb814ccd3f784d9841ded1"
          ],
          "data": "0x000000000000000000000000000000000000000000034f086f3b33b684000000",
          "blockHash": "0xd329d9550e6719d02eb82cfa788a9d0c9ad22cfb1c56dbb1e8c81a309ac956de",
          "blockNumber": "0x9da760",
          "blockTimestamp": "0x699e8f98",
          "transactionHash": "0x7892be9f1325e0e3e73955fa7be178241187be16a7920bdc1a521fec878faf54",
          "transactionIndex": "0x48",
          "logIndex": "0xd3",
          "removed": false
        },
        {
          "address": "0xbac60f62724f0cfde5fb814ccd3f784d9841ded1",
          "topics": [
            "0x30f6180e248310ab0c789da3026fbba7390872be072cfc5b3c20733f3a980c9e",
            "0x0000000000000000000000000000000000000000000000000000000000000002",
            "0x000000000000000000000000bb46678a1f6c527bd79ecfbf85332b8ae83ceaf1"
          ],
          "data": "0x000000000000000000000000000000000000000000034f086f3b33b684000000",
          "blockHash": "0xd329d9550e6719d02eb82cfa788a9d0c9ad22cfb1c56dbb1e8c81a309ac956de",
          "blockNumber": "0x9da760",
          "blockTimestamp": "0x699e8f98",
          "transactionHash": "0x7892be9f1325e0e3e73955fa7be178241187be16a7920bdc1a521fec878faf54",
          "transactionIndex": "0x48",
          "logIndex": "0xd4",
          "removed": false
        }
      ],
      "logsBloom": "0x04000000000000000000000000000000000000000000000000000000000000800000000000000000000000000000000000000040000000000000000000000000000000000000000000000008000100000000000000000002000000000000000000000000000000000000000000000000000000000000000800000010000000000100000008000001000080000000000000000000000000000000000000000000000000000000000000000100000000000400000040000000000000000000000000000002000001000000000000000003000800008000000000000000000000000000000000000000000000000000000000000000008000000000000400000000",
      "type": "0x2",
      "transactionHash": "0x7892be9f1325e0e3e73955fa7be178241187be16a7920bdc1a521fec878faf54",
      "transactionIndex": "0x48",
      "blockHash": "0xd329d9550e6719d02eb82cfa788a9d0c9ad22cfb1c56dbb1e8c81a309ac956de",
      "blockNumber": "0x9da760",
      "gasUsed": "0x1e1cd",
      "effectiveGasPrice": "0xf4266",
      "from": "0xf68d9e0faa751ad61e0ed70852798bf9d9c04bf7",
      "to": "0xbac60f62724f0cfde5fb814ccd3f784d9841ded1",
      "contractAddress": null
    }
  ],
  "libraries": [],
  "pending": [],
  "returns": {},
  "timestamp": 1771999130404,
  "chain": 11155111,
  "commit": "f9de090"
}