{
  "transactions": [
    {
      "hash": "0x3431d9c8f4cef89627e7b25909659829c97ed562c0f5288db56a0cd6a1aaba02",
      "transactionType": "CALL",
      "contractName": null,
      "contractAddress": "0xbb46678a1f6c527bd79ecfbf85332b8ae83ceaf1",
      "function": "approve(address,uint256)",
      "arguments": [
        "0x4bF2176d6E3e031fbD0395881a949DEbf6827d63",
        "4000000000000000000000000"
      ],
      "transaction": {
        "from": "0x474b4e7fd1a143edea6b77aa845f429d443e6410",
        "to": "0xbb46678a1f6c527bd79ecfbf85332b8ae83ceaf1",
        "gas": "0xfd53",
        "value": "0x0",
        "input": "0x095ea7b30000000000000000000000004bf2176d6e3e031fbd0395881a949debf6827d63000000000000000000000000000000000000000000034f086f3b33b684000000",
        "nonce": "0x8",
        "chainId": "0xaa36a7"
      },
      "additionalContracts": [],
      "isFixedGasLimit": false
    },
    {
      "hash": "0x0fd03038131043fbb31137301f54ce7e49df50ff795c62c038b13193f5b0afd9",
      "transactionType": "CALL",
      "contractName": "MarginVault",
      "contractAddress": "0x4bf2176d6e3e031fbd0395881a949debf6827d63",
      "function": "depositMargin(bytes32,address,uint256)",
      "arguments": [
        "0x0000000000000000000000000000000000000000000000000000000000000001",
        "0xbb46678a1F6C527bD79eCFBF85332B8Ae83ceaf1",
        "4000000000000000000000000"
      ],
      "transaction": {
        "from": "0x474b4e7fd1a143edea6b77aa845f429d443e6410",
        "to": "0x4bf2176d6e3e031fbd0395881a949debf6827d63",
        "gas": "0x32252",
        "value": "0x0",
        "input": "0x6812d3150000000000000000000000000000000000000000000000000000000000000001000000000000000000000000bb46678a1f6c527bd79ecfbf85332b8ae83ceaf1000000000000000000000000000000000000000000034f086f3b33b684000000",
        "nonce": "0x9",
        "chainId": "0xaa36a7"
      },
      "additionalContracts": [],
      "isFixedGasLimit": false
    },
    {
      "hash": "0x34525a61c92483e429772024f4c77a96aecd98655000a658ad8b57f795d9e063",
      "transactionType": "CALL",
      "contractName": null,
      "contractAddress": "0xbb46678a1f6c527bd79ecfbf85332b8ae83ceaf1",
      "function": "approve(address,uint256)",
      "arguments": [
        "0x4bF2176d6E3e031fbD0395881a949DEbf6827d63",
        "4000000000000000000000000"
      ],
      "transaction": {
        "from": "0xf68d9e0faa751ad61e0ed70852798bf9d9c04bf7",
        "to": "0xbb46678a1f6c527bd79ecfbf85332b8ae83ceaf1",
        "gas": "0xfd53",
        "value": "0x0",
        "input": "0x095ea7b30000000000000000000000004bf2176d6e3e031fbd0395881a949debf6827d63000000000000000000000000000000000000000000034f086f3b33b684000000",
        "nonce": "0x6",
        "chainId": "0xaa36a7"
      },
      "additionalContracts": [],
      "isFixedGasLimit": false
    },
    {
      "hash": "0x97795005e1d44af4ea20eb521fe2af2f5fab404bdd8da6d3a3207beb3c075c0c",
      "transactionType": "CALL",
      "contractName": "MarginVault",
      "contractAddress": "0x4bf2176d6e3e031fbd0395881a949debf6827d63",
      "function": "depositMargin(bytes32,address,uint256)",
      "arguments": [
        "0x0000000000000000000000000000000000000000000000000000000000000002",
        "0xbb46678a1F6C527bD79eCFBF85332B8Ae83ceaf1",
        "4000000000000000000000000"
      ],
      "transaction": {
        "from": "0xf68d9e0faa751ad61e0ed70852798bf9d9c04bf7",
        "to": "0x4bf2176d6e3e031fbd0395881a949debf6827d63",
        "gas": "0x2997b",
        "value": "0x0",
        "input": "0x6812d3150000000000000000000000000000000000000000000000000000000000000002000000000000000000000000bb46678a1f6c527bd79ecfbf85332b8ae83ceaf1000000000000000000000000000000000000000000034f086f3b33b684000000",
        "nonce": "0x7",
        "chainId": "0xaa36a7"
      },
      "additionalContracts": [],
      "isFixedGasLimit": false
    }
  ],
  "receipts": [
    {
      "status": "0x1",
      "cumulativeGasUsed": "0xf77040",
      "logs": [
        {
          "address": "0xbb46678a1f6c527bd79ecfbf85332b8ae83ceaf1",
          "topics": [
            "0x8c5be1e5ebec7d5bd14f71427d1e84f3dd0314c0f7b2291e5b200ac8c7c3b925",
            "0x000000000000000000000000474b4e7fd1a143edea6b77aa845f429d443e6410",
            "0x0000000000000000000000004bf2176d6e3e031fbd0395881a949debf6827d63"
          ],
          "data": "0x000000000000000000000000000000000000000000034f086f3b33b684000000",
          "blockHash": "0x46ff90c2b60125a571d1e12614246b5c72c9832028935e8f877c2cc636648bf1",
          "blockNumber": "0x9dbf3f",
          "blockTimestamp": "0x699fc4f8",
          "transactionHash": "0x3431d9c8f4cef89627e7b25909659829c97ed562c0f5288db56a0cd6a1aaba02",
          "transactionIndex": "0x81",
          "logIndex": "0x102",
          "removed": false
        }
      ],
      "logsBloom": "0x00000000000000000000000000000000000000000000000000000000000000000000000000000000000000000000000000000000000000000000000000200000000000000000000000000000000000000000000000000000000000000000000000400000000000000000000000010000000000000000000000000000000000000100000008000000000000000000000000000002000000000000000000000000060000000000000000000000000000000000000000000000000100000000000000000000000000000000000000000000000000008000000000000010000000000010000000000000000000000000000000000000000000000000000000000000",
      "type": "0x2",
      "transactionHash": "0x3431d9c8f4cef89627e7b25909659829c97ed562c0f5288db56a0cd6a1aaba02",
      "transactionIndex": "0x81",
      "blockHash": "0x46ff90c2b60125a571d1e12614246b5c72c9832028935e8f877c2cc636648bf1",
      "blockNumber": "0x9dbf3f",
      "gasUsed": "0xb768",
      "effectiveGasPrice": "0xf4264",
      "from": "0x474b4e7fd1a143edea6b77aa845f429d443e6410",
      "to": "0xbb46678a1f6c527bd79ecfbf85332b8ae83ceaf1",
      "contractAddress": null
    },
    {
      "status": "0x1",
      "cumulativeGasUsed": "0xab68d9",
      "logs": [
        {
          "address": "0xbb46678a1f6c527bd79ecfbf85332b8ae83ceaf1",
          "topics": [
            "0xddf252ad1be2c89b69c2b068fc378daa952ba7f163c4a11628f55a4df523b3ef",
            "0x000000000000000000000000474b4e7fd1a143edea6b77aa845f429d443e6410",
            "0x0000000000000000000000004bf2176d6e3e031fbd0395881a949debf6827d63"
          ],
          "data": "0x000000000000000000000000000000000000000000034f086f3b33b684000000",
          "blockHash": "0x09a196ec897927b1e339b2a3d109dbc958d6170bafebbd3aeea7df8b18ad3bfd",
          "blockNumber": "0x9dbf40",
          "blockTimestamp": "0x699fc504",
          "transactionHash": "0x0fd03038131043fbb31137301f54ce7e49df50ff795c62c038b13193f5b0afd9",
          "transactionIndex": "0x5e",
          "logIndex": "0x7f",
          "removed": false
        },
        {
          "address": "0x4bf2176d6e3e031fbd0395881a949debf6827d63",
          "topics": [
            "0x30f6180e248310ab0c789da3026fbba7390872be072cfc5b3c20733f3a980c9e",
            "0x0000000000000000000000000000000000000000000000000000000000000001",
            "0x000000000000000000000000bb46678a1f6c527bd79ecfbf85332b8ae83ceaf1"
          ],
          "data": "0x000000000000000000000000000000000000000000034f086f3b33b684000000",
          "blockHash": "0x09a196ec897927b1e339b2a3d109dbc958d6170bafebbd3aeea7df8b18ad3bfd",
          "blockNumber": "0x9dbf40",
          "blockTimestamp": "0x699fc504",
          "transactionHash": "0x0fd03038131043fbb31137301f54ce7e49df50ff795c62c038b13193f5b0afd9",
          "transactionIndex": "0x5e",
          "logIndex": "0x80",
          "removed": false
        }
      ],
      "logsBloom": "0x00000000000000000000000000000000000000000000000000000000000000000000000000000000000000000000000000000000000000000000000000040000000000000000000000000008000000000000000000040010000000000000000000400002000000000000000000010000000000000000000000000010000000000100000008000001000000000000000000000002000000000000000000000000040000000000000004000000000000000000000040000000000100000000000000000002000001000000000000000001000800008000000000000010000040000000000000000000000000000000000000000000000000000000000400000000",
      "type": "0x2",
      "transactionHash": "0x0fd03038131043fbb31137301f54ce7e49df50ff795c62c038b13193f5b0afd9",
      "transactionIndex": "0x5e",
      "blockHash": "0x09a196ec897927b1e339b2a3d109dbc958d6170bafebbd3aeea7df8b18ad3bfd",
      "blockNumber": "0x9dbf40",
      "gasUsed": "0x22499",
      "effectiveGasPrice": "0xf4262",
      "from": "0x474b4e7fd1a143edea6b77aa845f429d443e6410",
      "to": "0x4bf2176d6e3e031fbd0395881a949debf6827d63",
      "contractAddress": null
    },
    {
      "status": "0x1",
      "cumulativeGasUsed": "0x685a97",
      "logs": [
        {
          "address": "0xbb46678a1f6c527bd79ecfbf85332b8ae83ceaf1",
          "topics": [
            "0x8c5be1e5ebec7d5bd14f71427d1e84f3dd0314c0f7b2291e5b200ac8c7c3b925",
            "0x000000000000000000000000f68d9e0faa751ad61e0ed70852798bf9d9c04bf7",
            "0x0000000000000000000000004bf2176d6e3e031fbd0395881a949debf6827d63"
          ],
          "data": "0x000000000000000000000000000000000000000000034f086f3b33b684000000",
          "blockHash": "0x808d6ccf0b48a8a7b1300234d9afa2696d9a94b0dbf07399796fecde7d00402c",
          "blockNumber": "0x9dbf41",
          "blockTimestamp": "0x699fc510",
          "transactionHash": "0x34525a61c92483e429772024f4c77a96aecd98655000a658ad8b57f795d9e063",
          "transactionIndex": "0x44",
          "logIndex": "0x79",
          "removed": false
        }
      ],
      "logsBloom": "0x00000000000000000000000000000000000000000000000000000000000000800000000000000000000000000000000000000000000000000000000000200000000000000000000000000000000000000000000000000000000000000000000000000000000000000000000000010000000000000000000000000000000000000100000008000000000000000000000000000002000000000000000000000000060000000000000000000000000000000400000000000000000000000000000000000000000000000000000000000001000000008000000000000000000000000010000000000000000000000000000000000000000000000000000000000000",
      "type": "0x2",
      "transactionHash": "0x34525a61c92483e429772024f4c77a96aecd98655000a658ad8b57f795d9e063",
      "transactionIndex": "0x44",
      "blockHash": "0x808d6ccf0b48a8a7b1300234d9afa2696d9a94b0dbf07399796fecde7d00402c",
      "blockNumber": "0x9dbf41",
      "gasUsed": "0xb768",
      "effectiveGasPrice": "0xf4261",
      "from": "0xf68d9e0faa751ad61e0ed70852798bf9d9c04bf7",
      "to": "0xbb46678a1f6c527bd79ecfbf85332b8ae83ceaf1",
      "contractAddress": null
    },
    {
      "status": "0x1",
      "cumulativeGasUsed": "0xba15fa",
      "logs": [
        {
          "address": "0xbb46678a1f6c527bd79ecfbf85332b8ae83ceaf1",
          "topics": [
            "0xddf252ad1be2c89b69c2b068fc378daa952ba7f163c4a11628f55a4df523b3ef",
            "0x000000000000000000000000f68d9e0faa751ad61e0ed70852798bf9d9c04bf7",
            "0x0000000000000000000000004bf2176d6e3e031fbd0395881a949debf6827d63"
          ],
          "data": "0x000000000000000000000000000000000000000000034f086f3b33b684000000",
          "blockHash": "0x684c869bd473040d5c8f0abb468330ad1e6e729bc14121d5cd28b97dab74c814",
          "blockNumber": "0x9dbf42",
          "blockTimestamp": "0x699fc51c",
          "transactionHash": "0x97795005e1d44af4ea20eb521fe2af2f5fab404bdd8da6d3a3207beb3c075c0c",
          "transactionIndex": "0x57",
          "logIndex": "0x67",
          "removed": false
        },
        {
          "address": "0x4bf2176d6e3e031fbd0395881a949debf6827d63",
          "topics": [
            "0x30f6180e248310ab0c789da3026fbba7390872be072cfc5b3c20733f3a980c9e",
            "0x0000000000000000000000000000000000000000000000000000000000000002",
            "0x000000000000000000000000bb46678a1f6c527bd79ecfbf85332b8ae83ceaf1"
          ],
          "data": "0x000000000000000000000000000000000000000000034f086f3b33b684000000",
          "blockHash": "0x684c869bd473040d5c8f0abb468330ad1e6e729bc14121d5cd28b97dab74c814",
          "blockNumber": "0x9dbf42",
          "blockTimestamp": "0x699fc51c",
          "transactionHash": "0x97795005e1d44af4ea20eb521fe2af2f5fab404bdd8da6d3a3207beb3c075c0c",
          "transactionIndex": "0x57",
          "logIndex": "0x68",
          "removed": false
        }
      ],
      "logsBloom": "0x04000000000000000000000000000000000000000000000000000000000000800000000000000000000000000000000000000000000000000000000000000000000000000000000000000008000000000000000000000010000000000000000000000002000000000000000000010000000000000000000000000010000000000100000008000001000000000000000000000002000000000000000000000000040000000000000004000100000000000400000040000000000000000000000000000002000001000000000000000001000800008000000000000000000000000000000000000000000000000000000000000000008000000000000400000000",
      "type": "0x2",
      "transactionHash": "0x97795005e1d44af4ea20eb521fe2af2f5fab404bdd8da6d3a3207beb3c075c0c",
      "transactionIndex": "0x57",
      "blockHash": "0x684c869bd473040d5c8f0abb468330ad1e6e729bc14121d5cd28b97dab74c814",
      "blockNumber": "0x9dbf42",
      "gasUsed": "0x1e1cd",
      "effectiveGasPrice": "0xf425f",
      "from": "0xf68d9e0faa751ad61e0ed70852798bf9d9c04bf7",
      "to": "0x4bf2176d6e3e031fbd0395881a949debf6827d63",
      "contractAddress": null
    }
  ],
  "libraries": [],
  "pending": [],
  "returns": {},
  "timestamp": 1772078364844,
  "chain": 11155111,
  "commit": "64837c5"
}