{
  "transactions": [
    {
      "hash": "0x1fdc12f6f9e5ba8c033760c7b01ceb5aa353b6143a9969327c9858bc66e7c903",
      "transactionType": "CALL",
      "contractName": null,
      "contractAddress": "0x9a468716ff3d6673c18ba99cef8a4e48293685ff",
      "function": "absorbPositions(bytes32,address)",
      "arguments": [
        "0x000000000000000000000000f68d9e0faa751ad61e0ed70852798bf9d9c04bf7",
        "0xbb46678a1F6C527bD79eCFBF85332B8Ae83ceaf1"
      ],
      "transaction": {
        "from": "0x10db2e70118e5fbeda30391ec957e608c9e4517e",
        "to": "0x9a468716ff3d6673c18ba99cef8a4e48293685ff",
        "gas": "0x738c0",
        "value": "0x0",
        "input": "0xfe5638cc000000000000000000000000f68d9e0faa751ad61e0ed70852798bf9d9c04bf7000000000000000000000000bb46678a1f6c527bd79ecfbf85332b8ae83ceaf1",
        "nonce": "0x39",
        "chainId": "0xaa36a7"
      },
      "additionalContracts": [],
      "isFixedGasLimit": false
    }
  ],
  "receipts": [
    {
      "status": "0x1",
      "cumulativeGasUsed": "0x8b46d2",
      "logs": [
        {
          "address": "0xe08a7a55b909eb9cd3fed25657716e5bcd7f34ed",
          "topics": [
            "0xc3d58168c5ae7397731d063d5bbf3d657854427343f4c083240f7aacaa2d0f62",
            "0x000000000000000000000000441df3c4891cb96ab45c87bbafdab3583896274d",
            "0x000000000000000000000000f68d9e0faa751ad61e0ed70852798bf9d9c04bf7",
            "0x00000000000000000000000010db2e70118e5fbeda30391ec957e608c9e4517e"
          ],
          "data": "0x000000000000000000000000000000000000000000000000000000000000000100000000000000000000000000000000000000000000d3c21bcecceda1000000",
          "blockHash": "0x5b42f26222be549204585cb668600ccc09fb6adfe271b8145bf953cd75f3ff99",
          "blockNumber": "0x9ed0db",
          "blockTimestamp": "0x69ad5254",
          "transactionHash": "0x1fdc12f6f9e5ba8c033760c7b01ceb5aa353b6143a9969327c9858bc66e7c903",
          "transactionIndex": "0x61",
          "logIndex": "0x96",
          "removed": false
        },
        {
          "address": "0x633fe8fc18ddda139a451af51c53ae730d433907",
          "topics": [
            "0x15ca2c58d94a57353778871a512abd76587f09583c3fce118289c2f118794e23",
            "0x00000000000000000000000010db2e70118e5fbeda30391ec957e608c9e4517e"
          ],
          "data": "0x00000000000000000000000000000000000000000000d3c21bcecceda100000000000000000000000000000000000000000000000000d3c21bcecceda1000000",
          "blockHash": "0x5b42f26222be549204585cb668600ccc09fb6adfe271b8145bf953cd75f3ff99",
          "blockNumber": "0x9ed0db",
          "blockTimestamp": "0x69ad5254",
          "transactionHash": "0x1fdc12f6f9e5ba8c033760c7b01ceb5aa353b6143a9969327c9858bc66e7c903",
          "transactionIndex": "0x61",
          "logIndex": "0x97",
          "removed": false
        },
        {
          "address": "0xf4f79b481508b5856203ee23c675fbd6e66daeb3",
          "topics": [
            "0x9372321d543f1b03b8b743f369a5417b1a683c8d1359cda23f4047834cddbb50",
            "0x00000000000000000000000010db2e70118e5fbeda30391ec957e608c9e4517e"
          ],
          "data": "0x0000000000000000000000000000000000000000000004315c32d71a9e600000",
          "blockHash": "0x5b42f26222be549204585cb668600ccc09fb6adfe271b8145bf953cd75f3ff99",
          "blockNumber": "0x9ed0db",
          "blockTimestamp": "0x69ad5254",
          "transactionHash": "0x1fdc12f6f9e5ba8c033760c7b01ceb5aa353b6143a9969327c9858bc66e7c903",
          "transactionIndex": "0x61",
          "logIndex": "0x98",
          "removed": false
        },
        {
          "address": "0xaa2a798a07834d15438f3e50dd361d30ea656cd8",
          "topics": [
            "0x15c759f729890e54ba9fbec58cddba4b65515f5f2c5b01ede4fa2c6841d18de3",
            "0x00000000000000000000000010db2e70118e5fbeda30391ec957e608c9e4517e"
          ],
          "data": "0x000000000000000000000000bb46678a1f6c527bd79ecfbf85332b8ae83ceaf1000000000000000000000000000000000000000000000000000000000000000000000000000000000000000000000000000000000000032505262153f6c80000",
          "blockHash": "0x5b42f26222be549204585cb668600ccc09fb6adfe271b8145bf953cd75f3ff99",
          "blockNumber": "0x9ed0db",
          "blockTimestamp": "0x69ad5254",
          "transactionHash": "0x1fdc12f6f9e5ba8c033760c7b01ceb5aa353b6143a9969327c9858bc66e7c903",
          "transactionIndex": "0x61",
          "logIndex": "0x99",
          "removed": false
        },
        {
          "address": "0xf4f79b481508b5856203ee23c675fbd6e66daeb3",
          "topics": [
            "0x6fd1f3949541cd49d779154387024699bcf742e79f24b3e96b2ae0a30cdd6e94",
            "0x000000000000000000000000f68d9e0faa751ad61e0ed70852798bf9d9c04bf7"
          ],
          "data": "0x0000000000000000000000000000000000000000000004315c32d71a9e600000",
          "blockHash": "0x5b42f26222be549204585cb668600ccc09fb6adfe271b8145bf953cd75f3ff99",
          "blockNumber": "0x9ed0db",
          "blockTimestamp": "0x69ad5254",
          "transactionHash": "0x1fdc12f6f9e5ba8c033760c7b01ceb5aa353b6143a9969327c9858bc66e7c903",
          "transactionIndex": "0x61",
          "logIndex": "0x9a",
          "removed": false
        },
        {
          "address": "0xaa2a798a07834d15438f3e50dd361d30ea656cd8",
          "topics": [
            "0x15c759f729890e54ba9fbec58cddba4b65515f5f2c5b01ede4fa2c6841d18de3",
            "0x000000000000000000000000f68d9e0faa751ad61e0ed70852798bf9d9c04bf7"
          ],
          "data": "0x000000000000000000000000bb46678a1f6c527bd79ecfbf85332b8ae83ceaf100000000000000000000000000000000000000000000032505262153f6c800000000000000000000000000000000000000000000000000000000000000000000",
          "blockHash": "0x5b42f26222be549204585cb668600ccc09fb6adfe271b8145bf953cd75f3ff99",
          "blockNumber": "0x9ed0db",
          "blockTimestamp": "0x69ad5254",
          "transactionHash": "0x1fdc12f6f9e5ba8c033760c7b01ceb5aa353b6143a9969327c9858bc66e7c903",
          "transactionIndex": "0x61",
          "logIndex": "0x9b",
          "removed": false
        },
        {
          "address": "0x633fe8fc18ddda139a451af51c53ae730d433907",
          "topics": [
            "0xd36cc0768065e66afbd8046663fd4d7c6edcc0c1a3ee54fdd4ece612958ba2db",
            "0x000000000000000000000000f68d9e0faa751ad61e0ed70852798bf9d9c04bf7"
          ],
          "data": "0x00000000000000000000000000000000000000000000d3c21bcecceda10000000000000000000000000000000000000000000000000000000000000000000000",
          "blockHash": "0x5b42f26222be549204585cb668600ccc09fb6adfe271b8145bf953cd75f3ff99",
          "blockNumber": "0x9ed0db",
          "blockTimestamp": "0x69ad5254",
          "transactionHash": "0x1fdc12f6f9e5ba8c033760c7b01ceb5aa353b6143a9969327c9858bc66e7c903",
          "transactionIndex": "0x61",
          "logIndex": "0x9c",
          "removed": false
        },
        {
          "address": "0xf4f79b481508b5856203ee23c675fbd6e66daeb3",
          "topics": [
            "0x69a12ad77691eeb11d143a8223c5c43b77205173541be5a474e08039e98e65e3",
            "0x000000000000000000000000f68d9e0faa751ad61e0ed70852798bf9d9c04bf7"
          ],
          "data": "0x000000000000000000000000bb46678a1f6c527bd79ecfbf85332b8ae83ceaf1ffffffffffffffffffffffffffffffffffffffffffffffd7b95bd85eebc80000",
          "blockHash": "0x5b42f26222be549204585cb668600ccc09fb6adfe271b8145bf953cd75f3ff99",
          "blockNumber": "0x9ed0db",
          "blockTimestamp": "0x69ad5254",
          "transactionHash": "0x1fdc12f6f9e5ba8c033760c7b01ceb5aa353b6143a9969327c9858bc66e7c903",
          "transactionIndex": "0x61",
          "logIndex": "0x9d",
          "removed": false
        },
        {
          "address": "0xf4f79b481508b5856203ee23c675fbd6e66daeb3",
          "topics": [
            "0x69a12ad77691eeb11d143a8223c5c43b77205173541be5a474e08039e98e65e3",
            "0x00000000000000000000000010db2e70118e5fbeda30391ec957e608c9e4517e"
          ],
          "data": "0x000000000000000000000000bb46678a1f6c527bd79ecfbf85332b8ae83ceaf100000000000000000000000000000000000000000000002846a427a114380000",
          "blockHash": "0x5b42f26222be549204585cb668600ccc09fb6adfe271b8145bf953cd75f3ff99",
          "blockNumber": "0x9ed0db",
          "blockTimestamp": "0x69ad5254",
          "transactionHash": "0x1fdc12f6f9e5ba8c033760c7b01ceb5aa353b6143a9969327c9858bc66e7c903",
          "transactionIndex": "0x61",
          "logIndex": "0x9e",
          "removed": false
        },
        {
          "address": "0x441df3c4891cb96ab45c87bbafdab3583896274d",
          "topics": [
            "0x1bbe9757c483c47113897d2e51838cc8568cb5983b011b3c981fd05ab57a060a",
            "0x000000000000000000000000f68d9e0faa751ad61e0ed70852798bf9d9c04bf7",
            "0x00000000000000000000000010db2e70118e5fbeda30391ec957e608c9e4517e"
          ],
          "data": "0x00000000000000000000000000000000000000000000000000000000000000a0000000000000000000000000bb46678a1f6c527bd79ecfbf85332b8ae83ceaf1ffffffffffffffffffffffffffffffffffffffffffffffd7b95bd85eebc80000000000000000000000000000000000000000000000000000000000000000000000000000000000000000000000000000000000000000032505262153f6c8000000000000000000000000000000000000000000000000000000000000000000010000000000000000000000000000000000000000000000000000000000000001",
          "blockHash": "0x5b42f26222be549204585cb668600ccc09fb6adfe271b8145bf953cd75f3ff99",
          "blockNumber": "0x9ed0db",
          "blockTimestamp": "0x69ad5254",
          "transactionHash": "0x1fdc12f6f9e5ba8c033760c7b01ceb5aa353b6143a9969327c9858bc66e7c903",
          "transactionIndex": "0x61",
          "logIndex": "0x9f",
          "removed": false
        },
        {
          "address": "0x9a468716ff3d6673c18ba99cef8a4e48293685ff",
          "topics": [
            "0xec096d06a266fd442a7c79de2a657ba8b2713708209152128417045fe3f94adf",
            "0x000000000000000000000000f68d9e0faa751ad61e0ed70852798bf9d9c04bf7",
            "0x000000000000000000000000bb46678a1f6c527bd79ecfbf85332b8ae83ceaf1",
            "0x00000000000000000000000010db2e70118e5fbeda30391ec957e608c9e4517e"
          ],
          "data": "0x00000000000000000000000000000000000000000000002846a427a114380000",
          "blockHash": "0x5b42f26222be549204585cb668600ccc09fb6adfe271b8145bf953cd75f3ff99",
          "blockNumber": "0x9ed0db",
          "blockTimestamp": "0x69ad5254",
          "transactionHash": "0x1fdc12f6f9e5ba8c033760c7b01ceb5aa353b6143a9969327c9858bc66e7c903",
          "transactionIndex": "0x61",
          "logIndex": "0xa0",
          "removed": false
        }
      ],
      "logsBloom": "0x000000000000800010200000000000000000000000000000000000002000008000000040000010400000040000000000008000000000000004000000000020000000000000000000000040000000000000000000000800000000200000000000100000000000000000000000000100000000000000000000000008000000000000000000000000010000000000400000001000000000400000000000000008802000000000090000000000000080000014001000400000000301000008000200400000000000000000000010c1000001000040008008000000000000020000000000000010000000400880000000000000000400000000800000180000000000",
      "type": "0x2",
      "transactionHash": "0x1fdc12f6f9e5ba8c033760c7b01ceb5aa353b6143a9969327c9858bc66e7c903",
      "transactionIndex": "0x61",
      "blockHash": "0x5b42f26222be549204585cb668600ccc09fb6adfe271b8145bf953cd75f3ff99",
      "blockNumber": "0x9ed0db",
      "gasUsed": "0x4f01b",
      "effectiveGasPrice": "0x57430932",
      "from": "0x10db2e70118e5fbeda30391ec957e608c9e4517e",
      "to": "0x9a468716ff3d6673c18ba99cef8a4e48293685ff",
      "contractAddress": null
    }
  ],
  "libraries": [],
  "pending": [],
  "returns": {},
  "timestamp": 1772966485407,
  "chain": 11155111,
  "commit": "eb687bb"
}