{
  "transactions": [
    {
      "hash": "0x04885fffc84ed5999d94eeef44b0b69ff3bbdf0440afba3bf58abde3e5d1cdc4",
      "transactionType": "CALL",
      "contractName": null,
      "contractAddress": "0xb4d007bc13751137dcd55c9686dce94c4b6d988c",
      "function": "absorbPositions(bytes32,address)",
      "arguments": [
        "0x000000000000000000000000f68d9e0faa751ad61e0ed70852798bf9d9c04bf7",
        "0xbb46678a1F6C527bD79eCFBF85332B8Ae83ceaf1"
      ],
      "transaction": {
        "from": "0x10db2e70118e5fbeda30391ec957e608c9e4517e",
        "to": "0xb4d007bc13751137dcd55c9686dce94c4b6d988c",
        "gas": "0x7163d",
        "value": "0x0",
        "input": "0xfe5638cc000000000000000000000000f68d9e0faa751ad61e0ed70852798bf9d9c04bf7000000000000000000000000bb46678a1f6c527bd79ecfbf85332b8ae83ceaf1",
        "nonce": "0x8",
        "chainId": "0xaa36a7"
      },
      "additionalContracts": [],
      "isFixedGasLimit": false
    }
  ],
  "receipts": [
    {
      "status": "0x1",
      "cumulativeGasUsed": "0xe3b504",
      "logs": [
        {
          "address": "0x4c54d606c89b81659c67c9580a28f4b105986363",
          "topics": [
            "0xc3d58168c5ae7397731d063d5bbf3d657854427343f4c083240f7aacaa2d0f62",
            "0x000000000000000000000000a5deb1381f5601d9288cc59f9ae71ee6738b1ea8",
            "0x000000000000000000000000f68d9e0faa751ad61e0ed70852798bf9d9c04bf7",
            "0x00000000000000000000000010db2e70118e5fbeda30391ec957e608c9e4517e"
          ],
          "data": "0x000000000000000000000000000000000000000000000000000000000000000100000000000000000000000000000000000000000000d3c21bcecceda1000000",
          "blockHash": "0xeda314e9b5cbe14e23bf0b3e8d4e09346c541d382debea457adbc5aebda6d871",
          "blockNumber": "0x9e6ecd",
          "blockTimestamp": "0x69a83ff0",
          "transactionHash": "0x04885fffc84ed5999d94eeef44b0b69ff3bbdf0440afba3bf58abde3e5d1cdc4",
          "transactionIndex": "0x9f",
          "logIndex": "0x131",
          "removed": false
        },
        {
          "address": "0xccf07b62f3d6d6eb74f81a57e93a2cf28b21c9d4",
          "topics": [
            "0x15ca2c58d94a57353778871a512abd76587f09583c3fce118289c2f118794e23",
            "0x00000000000000000000000010db2e70118e5fbeda30391ec957e608c9e4517e"
          ],
          "data": "0x00000000000000000000000000000000000000000000d3c21bcecceda100000000000000000000000000000000000000000000000000d3c21bcecceda1000000",
          "blockHash": "0xeda314e9b5cbe14e23bf0b3e8d4e09346c541d382debea457adbc5aebda6d871",
          "blockNumber": "0x9e6ecd",
          "blockTimestamp": "0x69a83ff0",
          "transactionHash": "0x04885fffc84ed5999d94eeef44b0b69ff3bbdf0440afba3bf58abde3e5d1cdc4",
          "transactionIndex": "0x9f",
          "logIndex": "0x132",
          "removed": false
        },
        {
          "address": "0x15a1b1984c291a0117c99bc03c5d13225fa7880b",
          "topics": [
            "0x9372321d543f1b03b8b743f369a5417b1a683c8d1359cda23f4047834cddbb50",
            "0x00000000000000000000000010db2e70118e5fbeda30391ec957e608c9e4517e"
          ],
          "data": "0x0000000000000000000000000000000000000000000004315c32d71a9e600000",
          "blockHash": "0xeda314e9b5cbe14e23bf0b3e8d4e09346c541d382debea457adbc5aebda6d871",
          "blockNumber": "0x9e6ecd",
          "blockTimestamp": "0x69a83ff0",
          "transactionHash": "0x04885fffc84ed5999d94eeef44b0b69ff3bbdf0440afba3bf58abde3e5d1cdc4",
          "transactionIndex": "0x9f",
          "logIndex": "0x133",
          "removed": false
        },
        {
          "address": "0x05d32c29207ba5117aeff3f645ad4837ee1fcc63",
          "topics": [
            "0x15c759f729890e54ba9fbec58cddba4b65515f5f2c5b01ede4fa2c6841d18de3",
            "0x00000000000000000000000010db2e70118e5fbeda30391ec957e608c9e4517e"
          ],
          "data": "0x000000000000000000000000bb46678a1f6c527bd79ecfbf85332b8ae83ceaf1000000000000000000000000000000000000000000000000000000000000000000000000000000000000000000000000000000000000032505262153f6c80000",
          "blockHash": "0xeda314e9b5cbe14e23bf0b3e8d4e09346c541d382debea457adbc5aebda6d871",
          "blockNumber": "0x9e6ecd",
          "blockTimestamp": "0x69a83ff0",
          "transactionHash": "0x04885fffc84ed5999d94eeef44b0b69ff3bbdf0440afba3bf58abde3e5d1cdc4",
          "transactionIndex": "0x9f",
          "logIndex": "0x134",
          "removed": false
        },
        {
          "address": "0x15a1b1984c291a0117c99bc03c5d13225fa7880b",
          "topics": [
            "0x6fd1f3949541cd49d779154387024699bcf742e79f24b3e96b2ae0a30cdd6e94",
            "0x000000000000000000000000f68d9e0faa751ad61e0ed70852798bf9d9c04bf7"
          ],
          "data": "0x0000000000000000000000000000000000000000000004315c32d71a9e600000",
          "blockHash": "0xeda314e9b5cbe14e23bf0b3e8d4e09346c541d382debea457adbc5aebda6d871",
          "blockNumber": "0x9e6ecd",
          "blockTimestamp": "0x69a83ff0",
          "transactionHash": "0x04885fffc84ed5999d94eeef44b0b69ff3bbdf0440afba3bf58abde3e5d1cdc4",
          "transactionIndex": "0x9f",
          "logIndex": "0x135",
          "removed": false
        },
        {
          "address": "0x05d32c29207ba5117aeff3f645ad4837ee1fcc63",
          "topics": [
            "0x15c759f729890e54ba9fbec58cddba4b65515f5f2c5b01ede4fa2c6841d18de3",
            "0x000000000000000000000000f68d9e0faa751ad61e0ed70852798bf9d9c04bf7"
          ],
          "data": "0x000000000000000000000000bb46678a1f6c527bd79ecfbf85332b8ae83ceaf100000000000000000000000000000000000000000000032505262153f6c800000000000000000000000000000000000000000000000000000000000000000000",
          "blockHash": "0xeda314e9b5cbe14e23bf0b3e8d4e09346c541d382debea457adbc5aebda6d871",
          "blockNumber": "0x9e6ecd",
          "blockTimestamp": "0x69a83ff0",
          "transactionHash": "0x04885fffc84ed5999d94eeef44b0b69ff3bbdf0440afba3bf58abde3e5d1cdc4",
          "transactionIndex": "0x9f",
          "logIndex": "0x136",
          "removed": false
        },
        {
          "address": "0xccf07b62f3d6d6eb74f81a57e93a2cf28b21c9d4",
          "topics": [
            "0xd36cc0768065e66afbd8046663fd4d7c6edcc0c1a3ee54fdd4ece612958ba2db",
            "0x000000000000000000000000f68d9e0faa751ad61e0ed70852798bf9d9c04bf7"
          ],
          "data": "0x00000000000000000000000000000000000000000000d3c21bcecceda10000000000000000000000000000000000000000000000000000000000000000000000",
          "blockHash": "0xeda314e9b5cbe14e23bf0b3e8d4e09346c541d382debea457adbc5aebda6d871",
          "blockNumber": "0x9e6ecd",
          "blockTimestamp": "0x69a83ff0",
          "transactionHash": "0x04885fffc84ed5999d94eeef44b0b69ff3bbdf0440afba3bf58abde3e5d1cdc4",
          "transactionIndex": "0x9f",
          "logIndex": "0x137",
          "removed": false
        },
        {
          "address": "0xa5deb1381f5601d9288cc59f9ae71ee6738b1ea8",
          "topics": [
            "0x353a12d519b2cefb42c36b7c3bf8c7327bd30927d5a048f61ee03c34c650cdfe",
            "0x000000000000000000000000f68d9e0faa751ad61e0ed70852798bf9d9c04bf7",
            "0x00000000000000000000000010db2e70118e5fbeda30391ec957e608c9e4517e"
          ],
          "data": "0x0000000000000000000000000000000000000000000000000000000000000040000000000000000000000000bb46678a1f6c527bd79ecfbf85332b8ae83ceaf10000000000000000000000000000000000000000000000000000000000000001b2afaf2692296afa78e53d850cf92000d7e77fddf70cacafda1ea3b2b3a97040",
          "blockHash": "0xeda314e9b5cbe14e23bf0b3e8d4e09346c541d382debea457adbc5aebda6d871",
          "blockNumber": "0x9e6ecd",
          "blockTimestamp": "0x69a83ff0",
          "transactionHash": "0x04885fffc84ed5999d94eeef44b0b69ff3bbdf0440afba3bf58abde3e5d1cdc4",
          "transactionIndex": "0x9f",
          "logIndex": "0x138",
          "removed": false
        },
        {
          "address": "0x15a1b1984c291a0117c99bc03c5d13225fa7880b",
          "topics": [
            "0x69a12ad77691eeb11d143a8223c5c43b77205173541be5a474e08039e98e65e3",
            "0x000000000000000000000000f68d9e0faa751ad61e0ed70852798bf9d9c04bf7"
          ],
          "data": "0x000000000000000000000000bb46678a1f6c527bd79ecfbf85332b8ae83ceaf1ffffffffffffffffffffffffffffffffffffffffffffffe5c17c40fa49e40000",
          "blockHash": "0xeda314e9b5cbe14e23bf0b3e8d4e09346c541d382debea457adbc5aebda6d871",
          "blockNumber": "0x9e6ecd",
          "blockTimestamp": "0x69a83ff0",
          "transactionHash": "0x04885fffc84ed5999d94eeef44b0b69ff3bbdf0440afba3bf58abde3e5d1cdc4",
          "transactionIndex": "0x9f",
          "logIndex": "0x139",
          "removed": false
        },
        {
          "address": "0x15a1b1984c291a0117c99bc03c5d13225fa7880b",
          "topics": [
            "0x69a12ad77691eeb11d143a8223c5c43b77205173541be5a474e08039e98e65e3",
            "0x00000000000000000000000010db2e70118e5fbeda30391ec957e608c9e4517e"
          ],
          "data": "0x000000000000000000000000bb46678a1f6c527bd79ecfbf85332b8ae83ceaf100000000000000000000000000000000000000000000001a3e83bf05b61c0000",
          "blockHash": "0xeda314e9b5cbe14e23bf0b3e8d4e09346c541d382debea457adbc5aebda6d871",
          "blockNumber": "0x9e6ecd",
          "blockTimestamp": "0x69a83ff0",
          "transactionHash": "0x04885fffc84ed5999d94eeef44b0b69ff3bbdf0440afba3bf58abde3e5d1cdc4",
          "transactionIndex": "0x9f",
          "logIndex": "0x13a",
          "removed": false
        },
        {
          "address": "0xb4d007bc13751137dcd55c9686dce94c4b6d988c",
          "topics": [
            "0x18b27799d7f2da84dd3ddf754dcb5a846580c5a9bc7709a863cb29b25e02d3a6",
            "0x000000000000000000000000f68d9e0faa751ad61e0ed70852798bf9d9c04bf7",
            "0x000000000000000000000000bb46678a1f6c527bd79ecfbf85332b8ae83ceaf1",
            "0x00000000000000000000000010db2e70118e5fbeda30391ec957e608c9e4517e"
          ],
          "data": "0x00000000000000000000000000000000000000000000001a3e83bf05b61c0000",
          "blockHash": "0xeda314e9b5cbe14e23bf0b3e8d4e09346c541d382debea457adbc5aebda6d871",
          "blockNumber": "0x9e6ecd",
          "blockTimestamp": "0x69a83ff0",
          "transactionHash": "0x04885fffc84ed5999d94eeef44b0b69ff3bbdf0440afba3bf58abde3e5d1cdc4",
          "transactionIndex": "0x9f",
          "logIndex": "0x13b",
          "removed": false
        }
      ],
      "logsBloom": "0x00000000000000001000000000000000000000000204110010000000000000800000001000000800000004200000000000800000000000000408400000002020000000000800000000410020000000010000000280080000000020000000000010000000000000000000000000000000000000000000000000000800000000000000000000000001000000000040000000000000000000000000010100000800200000000008000080000000008000000400000040000000000100000000000000000000000000000000001041000001400000000008000000000000000000000000000090000000000880000000000000000010000000000200182000000000",
      "type": "0x2",
      "transactionHash": "0x04885fffc84ed5999d94eeef44b0b69ff3bbdf0440afba3bf58abde3e5d1cdc4",
      "transactionIndex": "0x9f",
      "blockHash": "0xeda314e9b5cbe14e23bf0b3e8d4e09346c541d382debea457adbc5aebda6d871",
      "blockNumber": "0x9e6ecd",
      "gasUsed": "0x4d882",
      "effectiveGasPrice": "0xf424b",
      "from": "0x10db2e70118e5fbeda30391ec957e608c9e4517e",
      "to": "0xb4d007bc13751137dcd55c9686dce94c4b6d988c",
      "contractAddress": null
    }
  ],
  "libraries": [],
  "pending": [],
  "returns": {},
  "timestamp": 1772634097129,
  "chain": 11155111,
  "commit": "7621ae8"
}