{
  "transactions": [
    {
      "hash": "0x5c504523392ed93487bb29e9156ab8ad9113126ddad7b8ee379cc3f2e0cb08a0",
      "transactionType": "CALL",
      "contractName": null,
      "contractAddress": "0xcbc43081f549a71d8201771ac8540a2ea4e0a7c4",
      "function": "absorbPositions(bytes32,address)",
      "arguments": [
        "0x000000000000000000000000f68d9e0faa751ad61e0ed70852798bf9d9c04bf7",
        "0xbb46678a1F6C527bD79eCFBF85332B8Ae83ceaf1"
      ],
      "transaction": {
        "from": "0x10db2e70118e5fbeda30391ec957e608c9e4517e",
        "to": "0xcbc43081f549a71d8201771ac8540a2ea4e0a7c4",
        "gas": "0x6fef6",
        "value": "0x0",
        "input": "0xfe5638cc000000000000000000000000f68d9e0faa751ad61e0ed70852798bf9d9c04bf7000000000000000000000000bb46678a1f6c527bd79ecfbf85332b8ae83ceaf1",
        "nonce": "0x1e",
        "chainId": "0xaa36a7"
      },
      "additionalContracts": [],
      "isFixedGasLimit": false
    }
  ],
  "receipts": [
    {
      "status": "0x1",
      "cumulativeGasUsed": "0x16fc7bf",
      "logs": [
        {
          "address": "0xfb3e13857ac5fa56860362387da3a20237b0c0c9",
          "topics": [
            "0xc3d58168c5ae7397731d063d5bbf3d657854427343f4c083240f7aacaa2d0f62",
            "0x000000000000000000000000ea766f46f69dbc84a394651865f43a604d53540f",
            "0x000000000000000000000000f68d9e0faa751ad61e0ed70852798bf9d9c04bf7",
            "0x00000000000000000000000010db2e70118e5fbeda30391ec957e608c9e4517e"
          ],
          "data": "0x000000000000000000000000000000000000000000000000000000000000000100000000000000000000000000000000000000000000d3c21bcecceda1000000",
          "blockHash": "0x161b4519dab6e7ec3c93a069c707fe7e475573b86a0479403b913136fabb278c",
          "blockNumber": "0x9e9c8b",
          "blockTimestamp": "0x69aa7df8",
          "transactionHash": "0x5c504523392ed93487bb29e9156ab8ad9113126ddad7b8ee379cc3f2e0cb08a0",
          "transactionIndex": "0x85",
          "logIndex": "0x18f",
          "removed": false
        },
        {
          "address": "0xcb472a5eac4a804a2e083f3c7371bb5cc583ac3b",
          "topics": [
            "0x15ca2c58d94a57353778871a512abd76587f09583c3fce118289c2f118794e23",
            "0x00000000000000000000000010db2e70118e5fbeda30391ec957e608c9e4517e"
          ],
          "data": "0x00000000000000000000000000000000000000000000d3c21bcecceda100000000000000000000000000000000000000000000000000d3c21bcecceda1000000",
          "blockHash": "0x161b4519dab6e7ec3c93a069c707fe7e475573b86a0479403b913136fabb278c",
          "blockNumber": "0x9e9c8b",
          "blockTimestamp": "0x69aa7df8",
          "transactionHash": "0x5c504523392ed93487bb29e9156ab8ad9113126ddad7b8ee379cc3f2e0cb08a0",
          "transactionIndex": "0x85",
          "logIndex": "0x190",
          "removed": false
        },
        {
          "address": "0xee00b21292ba7564996a2b372a0ba69e70915b31",
          "topics": [
            "0x9372321d543f1b03b8b743f369a5417b1a683c8d1359cda23f4047834cddbb50",
            "0x00000000000000000000000010db2e70118e5fbeda30391ec957e608c9e4517e"
          ],
          "data": "0x0000000000000000000000000000000000000000000004315c32d71a9e600000",
          "blockHash": "0x161b4519dab6e7ec3c93a069c707fe7e475573b86a0479403b913136fabb278c",
          "blockNumber": "0x9e9c8b",
          "blockTimestamp": "0x69aa7df8",
          "transactionHash": "0x5c504523392ed93487bb29e9156ab8ad9113126ddad7b8ee379cc3f2e0cb08a0",
          "transactionIndex": "0x85",
          "logIndex": "0x191",
          "removed": false
        },
        {
          "address": "0xaee519328935f63c292a4e1f2f3aa7c1384c8538",
          "topics": [
            "0x15c759f729890e54ba9fbec58cddba4b65515f5f2c5b01ede4fa2c6841d18de3",
            "0x00000000000000000000000010db2e70118e5fbeda30391ec957e608c9e4517e"
          ],
          "data": "0x000000000000000000000000bb46678a1f6c527bd79ecfbf85332b8ae83ceaf1000000000000000000000000000000000000000000000000000000000000000000000000000000000000000000000000000000000000032505262153f6c80000",
          "blockHash": "0x161b4519dab6e7ec3c93a069c707fe7e475573b86a0479403b913136fabb278c",
          "blockNumber": "0x9e9c8b",
          "blockTimestamp": "0x69aa7df8",
          "transactionHash": "0x5c504523392ed93487bb29e9156ab8ad9113126ddad7b8ee379cc3f2e0cb08a0",
          "transactionIndex": "0x85",
          "logIndex": "0x192",
          "removed": false
        },
        {
          "address": "0xee00b21292ba7564996a2b372a0ba69e70915b31",
          "topics": [
            "0x6fd1f3949541cd49d779154387024699bcf742e79f24b3e96b2ae0a30cdd6e94",
            "0x000000000000000000000000f68d9e0faa751ad61e0ed70852798bf9d9c04bf7"
          ],
          "data": "0x0000000000000000000000000000000000000000000004315c32d71a9e600000",
          "blockHash": "0x161b4519dab6e7ec3c93a069c707fe7e475573b86a0479403b913136fabb278c",
          "blockNumber": "0x9e9c8b",
          "blockTimestamp": "0x69aa7df8",
          "transactionHash": "0x5c504523392ed93487bb29e9156ab8ad9113126ddad7b8ee379cc3f2e0cb08a0",
          "transactionIndex": "0x85",
          "logIndex": "0x193",
          "removed": false
        },
        {
          "address": "0xaee519328935f63c292a4e1f2f3aa7c1384c8538",
          "topics": [
            "0x15c759f729890e54ba9fbec58cddba4b65515f5f2c5b01ede4fa2c6841d18de3",
            "0x000000000000000000000000f68d9e0faa751ad61e0ed70852798bf9d9c04bf7"
          ],
          "data": "0x000000000000000000000000bb46678a1f6c527bd79ecfbf85332b8ae83ceaf100000000000000000000000000000000000000000000032505262153f6c800000000000000000000000000000000000000000000000000000000000000000000",
          "blockHash": "0x161b4519dab6e7ec3c93a069c707fe7e475573b86a0479403b913136fabb278c",
          "blockNumber": "0x9e9c8b",
          "blockTimestamp": "0x69aa7df8",
          "transactionHash": "0x5c504523392ed93487bb29e9156ab8ad9113126ddad7b8ee379cc3f2e0cb08a0",
          "transactionIndex": "0x85",
          "logIndex": "0x194",
          "removed": false
        },
        {
          "address": "0xcb472a5eac4a804a2e083f3c7371bb5cc583ac3b",
          "topics": [
            "0xd36cc0768065e66afbd8046663fd4d7c6edcc0c1a3ee54fdd4ece612958ba2db",
            "0x000000000000000000000000f68d9e0faa751ad61e0ed70852798bf9d9c04bf7"
          ],
          "data": "0x00000000000000000000000000000000000000000000d3c21bcecceda10000000000000000000000000000000000000000000000000000000000000000000000",
          "blockHash": "0x161b4519dab6e7ec3c93a069c707fe7e475573b86a0479403b913136fabb278c",
          "blockNumber": "0x9e9c8b",
          "blockTimestamp": "0x69aa7df8",
          "transactionHash": "0x5c504523392ed93487bb29e9156ab8ad9113126ddad7b8ee379cc3f2e0cb08a0",
          "transactionIndex": "0x85",
          "logIndex": "0x195",
          "removed": false
        },
        {
          "address": "0xee00b21292ba7564996a2b372a0ba69e70915b31",
          "topics": [
            "0x69a12ad77691eeb11d143a8223c5c43b77205173541be5a474e08039e98e65e3",
            "0x000000000000000000000000f68d9e0faa751ad61e0ed70852798bf9d9c04bf7"
          ],
          "data": "0x000000000000000000000000bb46678a1f6c527bd79ecfbf85332b8ae83ceaf1fffffffffffffffffffffffffffffffffffffffffffffec8d57f7bd2c9d00000",
          "blockHash": "0x161b4519dab6e7ec3c93a069c707fe7e475573b86a0479403b913136fabb278c",
          "blockNumber": "0x9e9c8b",
          "blockTimestamp": "0x69aa7df8",
          "transactionHash": "0x5c504523392ed93487bb29e9156ab8ad9113126ddad7b8ee379cc3f2e0cb08a0",
          "transactionIndex": "0x85",
          "logIndex": "0x196",
          "removed": false
        },
        {
          "address": "0xee00b21292ba7564996a2b372a0ba69e70915b31",
          "topics": [
            "0x69a12ad77691eeb11d143a8223c5c43b77205173541be5a474e08039e98e65e3",
            "0x00000000000000000000000010db2e70118e5fbeda30391ec957e608c9e4517e"
          ],
          "data": "0x000000000000000000000000bb46678a1f6c527bd79ecfbf85332b8ae83ceaf10000000000000000000000000000000000000000000001372a80842d36300000",
          "blockHash": "0x161b4519dab6e7ec3c93a069c707fe7e475573b86a0479403b913136fabb278c",
          "blockNumber": "0x9e9c8b",
          "blockTimestamp": "0x69aa7df8",
          "transactionHash": "0x5c504523392ed93487bb29e9156ab8ad9113126ddad7b8ee379cc3f2e0cb08a0",
          "transactionIndex": "0x85",
          "logIndex": "0x197",
          "removed": false
        },
        {
          "address": "0xea766f46f69dbc84a394651865f43a604d53540f",
          "topics": [
            "0x81cb212e5f0b00ba016b1c34cc86e1d5cd0b414957ee59e446d10dd9dadaeeaa",
            "0x000000000000000000000000f68d9e0faa751ad61e0ed70852798bf9d9c04bf7",
            "0x00000000000000000000000010db2e70118e5fbeda30391ec957e608c9e4517e"
          ],
          "data": "0x0000000000000000000000000000000000000000000000000000000000000060000000000000000000000000bb46678a1f6c527bd79ecfbf85332b8ae83ceaf1fffffffffffffffffffffffffffffffffffffffffffffec8d57f7bd2c9d0000000000000000000000000000000000000000000000000000000000000000000010000000000000000000000000000000000000000000000000000000000000001",
          "blockHash": "0x161b4519dab6e7ec3c93a069c707fe7e475573b86a0479403b913136fabb278c",
          "blockNumber": "0x9e9c8b",
          "blockTimestamp": "0x69aa7df8",
          "transactionHash": "0x5c504523392ed93487bb29e9156ab8ad9113126ddad7b8ee379cc3f2e0cb08a0",
          "transactionIndex": "0x85",
          "logIndex": "0x198",
          "removed": false
        },
        {
          "address": "0xcbc43081f549a71d8201771ac8540a2ea4e0a7c4",
          "topics": [
            "0xec096d06a266fd442a7c79de2a657ba8b2713708209152128417045fe3f94adf",
            "0x000000000000000000000000f68d9e0faa751ad61e0ed70852798bf9d9c04bf7",
            "0x000000000000000000000000bb46678a1f6c527bd79ecfbf85332b8ae83ceaf1",
            "0x00000000000000000000000010db2e70118e5fbeda30391ec957e608c9e4517e"
          ],
          "data": "0x0000000000000000000000000000000000000000000000281d901f4fdd100000",
          "blockHash": "0x161b4519dab6e7ec3c93a069c707fe7e475573b86a0479403b913136fabb278c",
          "blockNumber": "0x9e9c8b",
          "blockTimestamp": "0x69aa7df8",
          "transactionHash": "0x5c504523392ed93487bb29e9156ab8ad9113126ddad7b8ee379cc3f2e0cb08a0",
          "transactionIndex": "0x85",
          "logIndex": "0x199",
          "removed": false
        }
      ],
      "logsBloom": "0x00000000000000001000000000200000000000000000000000000000000000800001000000000040000004000000000000800800000000000400100000002000000000000000000000000000000000000800000000080400000020020000000010000000000000000000000000010000000200000000200000000800000010000020000000000001400000000040000001000000000000000000000000000800200000000008000000000000008000000400000040000000010100000000000000000010000000000000001041000001000000000008048000000800080000000000000018000004000880010000000000800000000000000000180080000000",
      "type": "0x2",
      "transactionHash": "0x5c504523392ed93487bb29e9156ab8ad9113126ddad7b8ee379cc3f2e0cb08a0",
      "transactionIndex": "0x85",
      "blockHash": "0x161b4519dab6e7ec3c93a069c707fe7e475573b86a0479403b913136fabb278c",
      "blockNumber": "0x9e9c8b",
      "gasUsed": "0x510a0",
      "effectiveGasPrice": "0x33dae9f",
      "from": "0x10db2e70118e5fbeda30391ec957e608c9e4517e",
      "to": "0xcbc43081f549a71d8201771ac8540a2ea4e0a7c4",
      "contractAddress": null
    }
  ],
  "libraries": [],
  "pending": [],
  "returns": {},
  "timestamp": 1772781048932,
  "chain": 11155111,
  "commit": "d835087"
}