{
  "transactions": [
    {
      "hash": "0xd9216a9a19a359faeaf39eedb598d1e5cad2a5eb8d05669f012340f19d7faf1d",
      "transactionType": "CALL",
      "contractName": null,
      "contractAddress": "0xa789cb5c4b630777b3ce210184b0f932f9e46920",
      "function": "absorbPositions(bytes32,address)",
      "arguments": [
        "0x000000000000000000000000f68d9e0faa751ad61e0ed70852798bf9d9c04bf7",
        "0xbb46678a1F6C527bD79eCFBF85332B8Ae83ceaf1"
      ],
      "transaction": {
        "from": "0x10db2e70118e5fbeda30391ec957e608c9e4517e",
        "to": "0xa789cb5c4b630777b3ce210184b0f932f9e46920",
        "gas": "0x6fef6",
        "value": "0x0",
        "input": "0xfe5638cc000000000000000000000000f68d9e0faa751ad61e0ed70852798bf9d9c04bf7000000000000000000000000bb46678a1f6c527bd79ecfbf85332b8ae83ceaf1",
        "nonce": "0x13",
        "chainId": "0xaa36a7"
      },
      "additionalContracts": [],
      "isFixedGasLimit": false
    }
  ],
  "receipts": [
    {
      "status": "0x1",
      "cumulativeGasUsed": "0x126e0ba",
      "logs": [
        {
          "address": "0xbf1025c89e9da8cffd7bdac1b7df1501670af37c",
          "topics": [
            "0xc3d58168c5ae7397731d063d5bbf3d657854427343f4c083240f7aacaa2d0f62",
            "0x0000000000000000000000006af3293e5bf5fbe1aae3287f393fe75701d6eeea",
            "0x000000000000000000000000f68d9e0faa751ad61e0ed70852798bf9d9c04bf7",
            "0x00000000000000000000000010db2e70118e5fbeda30391ec957e608c9e4517e"
          ],
          "data": "0x000000000000000000000000000000000000000000000000000000000000000100000000000000000000000000000000000000000000d3c21bcecceda1000000",
          "blockHash": "0x225f55614981383ed910c549059f54b9217d500bfa46f08ea40abf1965e76fac",
          "blockNumber": "0x9e9b53",
          "blockTimestamp": "0x69aa6dcc",
          "transactionHash": "0xd9216a9a19a359faeaf39eedb598d1e5cad2a5eb8d05669f012340f19d7faf1d",
          "transactionIndex": "0x74",
          "logIndex": "0x134",
          "removed": false
        },
        {
          "address": "0x87851293e60eee030340d8b1c7f03dba4ca91250",
          "topics": [
            "0x15ca2c58d94a57353778871a512abd76587f09583c3fce118289c2f118794e23",
            "0x00000000000000000000000010db2e70118e5fbeda30391ec957e608c9e4517e"
          ],
          "data": "0x00000000000000000000000000000000000000000000d3c21bcecceda100000000000000000000000000000000000000000000000000d3c21bcecceda1000000",
          "blockHash": "0x225f55614981383ed910c549059f54b9217d500bfa46f08ea40abf1965e76fac",
          "blockNumber": "0x9e9b53",
          "blockTimestamp": "0x69aa6dcc",
          "transactionHash": "0xd9216a9a19a359faeaf39eedb598d1e5cad2a5eb8d05669f012340f19d7faf1d",
          "transactionIndex": "0x74",
          "logIndex": "0x135",
          "removed": false
        },
        {
          "address": "0x76c7970daa3cc6303645686b8d573b1ad5ec6909",
          "topics": [
            "0x9372321d543f1b03b8b743f369a5417b1a683c8d1359cda23f4047834cddbb50",
            "0x00000000000000000000000010db2e70118e5fbeda30391ec957e608c9e4517e"
          ],
          "data": "0x0000000000000000000000000000000000000000000004315c32d71a9e600000",
          "blockHash": "0x225f55614981383ed910c549059f54b9217d500bfa46f08ea40abf1965e76fac",
          "blockNumber": "0x9e9b53",
          "blockTimestamp": "0x69aa6dcc",
          "transactionHash": "0xd9216a9a19a359faeaf39eedb598d1e5cad2a5eb8d05669f012340f19d7faf1d",
          "transactionIndex": "0x74",
          "logIndex": "0x136",
          "removed": false
        },
        {
          "address": "0x8739d2d8047233279402a9ec9dbe96062b49279d",
          "topics": [
            "0x15c759f729890e54ba9fbec58cddba4b65515f5f2c5b01ede4fa2c6841d18de3",
            "0x00000000000000000000000010db2e70118e5fbeda30391ec957e608c9e4517e"
          ],
          "data": "0x000000000000000000000000bb46678a1f6c527bd79ecfbf85332b8ae83ceaf1000000000000000000000000000000000000000000000000000000000000000000000000000000000000000000000000000000000000032505262153f6c80000",
          "blockHash": "0x225f55614981383ed910c549059f54b9217d500bfa46f08ea40abf1965e76fac",
          "blockNumber": "0x9e9b53",
          "blockTimestamp": "0x69aa6dcc",
          "transactionHash": "0xd9216a9a19a359faeaf39eedb598d1e5cad2a5eb8d05669f012340f19d7faf1d",
          "transactionIndex": "0x74",
          "logIndex": "0x137",
          "removed": false
        },
        {
          "address": "0x76c7970daa3cc6303645686b8d573b1ad5ec6909",
          "topics": [
            "0x6fd1f3949541cd49d779154387024699bcf742e79f24b3e96b2ae0a30cdd6e94",
            "0x000000000000000000000000f68d9e0faa751ad61e0ed70852798bf9d9c04bf7"
          ],
          "data": "0x0000000000000000000000000000000000000000000004315c32d71a9e600000",
          "blockHash": "0x225f55614981383ed910c549059f54b9217d500bfa46f08ea40abf1965e76fac",
          "blockNumber": "0x9e9b53",
          "blockTimestamp": "0x69aa6dcc",
          "transactionHash": "0xd9216a9a19a359faeaf39eedb598d1e5cad2a5eb8d05669f012340f19d7faf1d",
          "transactionIndex": "0x74",
          "logIndex": "0x138",
          "removed": false
        },
        {
          "address": "0x8739d2d8047233279402a9ec9dbe96062b49279d",
          "topics": [
            "0x15c759f729890e54ba9fbec58cddba4b65515f5f2c5b01ede4fa2c6841d18de3",
            "0x000000000000000000000000f68d9e0faa751ad61e0ed70852798bf9d9c04bf7"
          ],
          "data": "0x000000000000000000000000bb46678a1f6c527bd79ecfbf85332b8ae83ceaf100000000000000000000000000000000000000000000032505262153f6c800000000000000000000000000000000000000000000000000000000000000000000",
          "blockHash": "0x225f55614981383ed910c549059f54b9217d500bfa46f08ea40abf1965e76fac",
          "blockNumber": "0x9e9b53",
          "blockTimestamp": "0x69aa6dcc",
          "transactionHash": "0xd9216a9a19a359faeaf39eedb598d1e5cad2a5eb8d05669f012340f19d7faf1d",
          "transactionIndex": "0x74",
          "logIndex": "0x139",
          "removed": false
        },
        {
          "address": "0x87851293e60eee030340d8b1c7f03dba4ca91250",
          "topics": [
            "0xd36cc0768065e66afbd8046663fd4d7c6edcc0c1a3ee54fdd4ece612958ba2db",
            "0x000000000000000000000000f68d9e0faa751ad61e0ed70852798bf9d9c04bf7"
          ],
          "data": "0x00000000000000000000000000000000000000000000d3c21bcecceda10000000000000000000000000000000000000000000000000000000000000000000000",
          "blockHash": "0x225f55614981383ed910c549059f54b9217d500bfa46f08ea40abf1965e76fac",
          "blockNumber": "0x9e9b53",
          "blockTimestamp": "0x69aa6dcc",
          "transactionHash": "0xd9216a9a19a359faeaf39eedb598d1e5cad2a5eb8d05669f012340f19d7faf1d",
          "transactionIndex": "0x74",
          "logIndex": "0x13a",
          "removed": false
        },
        {
          "address": "0x76c7970daa3cc6303645686b8d573b1ad5ec6909",
          "topics": [
            "0x69a12ad77691eeb11d143a8223c5c43b77205173541be5a474e08039e98e65e3",
            "0x000000000000000000000000f68d9e0faa751ad61e0ed70852798bf9d9c04bf7"
          ],
          "data": "0x000000000000000000000000bb46678a1f6c527bd79ecfbf85332b8ae83ceaf1fffffffffffffffffffffffffffffffffffffffffffffec8d57f7bd2c9d00000",
          "blockHash": "0x225f55614981383ed910c549059f54b9217d500bfa46f08ea40abf1965e76fac",
          "blockNumber": "0x9e9b53",
          "blockTimestamp": "0x69aa6dcc",
          "transactionHash": "0xd9216a9a19a359faeaf39eedb598d1e5cad2a5eb8d05669f012340f19d7faf1d",
          "transactionIndex": "0x74",
          "logIndex": "0x13b",
          "removed": false
        },
        {
          "address": "0x76c7970daa3cc6303645686b8d573b1ad5ec6909",
          "topics": [
            "0x69a12ad77691eeb11d143a8223c5c43b77205173541be5a474e08039e98e65e3",
            "0x00000000000000000000000010db2e70118e5fbeda30391ec957e608c9e4517e"
          ],
          "data": "0x000000000000000000000000bb46678a1f6c527bd79ecfbf85332b8ae83ceaf10000000000000000000000000000000000000000000001372a80842d36300000",
          "blockHash": "0x225f55614981383ed910c549059f54b9217d500bfa46f08ea40abf1965e76fac",
          "blockNumber": "0x9e9b53",
          "blockTimestamp": "0x69aa6dcc",
          "transactionHash": "0xd9216a9a19a359faeaf39eedb598d1e5cad2a5eb8d05669f012340f19d7faf1d",
          "transactionIndex": "0x74",
          "logIndex": "0x13c",
          "removed": false
        },
        {
          "address": "0x6af3293e5bf5fbe1aae3287f393fe75701d6eeea",
          "topics": [
            "0x81cb212e5f0b00ba016b1c34cc86e1d5cd0b414957ee59e446d10dd9dadaeeaa",
            "0x000000000000000000000000f68d9e0faa751ad61e0ed70852798bf9d9c04bf7",
            "0x00000000000000000000000010db2e70118e5fbeda30391ec957e608c9e4517e"
          ],
          "data": "0x0000000000000000000000000000000000000000000000000000000000000060000000000000000000000000bb46678a1f6c527bd79ecfbf85332b8ae83ceaf1fffffffffffffffffffffffffffffffffffffffffffffec8d57f7bd2c9d0000000000000000000000000000000000000000000000000000000000000000000010000000000000000000000000000000000000000000000000000000000000001",
          "blockHash": "0x225f55614981383ed910c549059f54b9217d500bfa46f08ea40abf1965e76fac",
          "blockNumber": "0x9e9b53",
          "blockTimestamp": "0x69aa6dcc",
          "transactionHash": "0xd9216a9a19a359faeaf39eedb598d1e5cad2a5eb8d05669f012340f19d7faf1d",
          "transactionIndex": "0x74",
          "logIndex": "0x13d",
          "removed": false
        },
        {
          "address": "0xa789cb5c4b630777b3ce210184b0f932f9e46920",
          "topics": [
            "0xec096d06a266fd442a7c79de2a657ba8b2713708209152128417045fe3f94adf",
            "0x000000000000000000000000f68d9e0faa751ad61e0ed70852798bf9d9c04bf7",
            "0x000000000000000000000000bb46678a1f6c527bd79ecfbf85332b8ae83ceaf1",
            "0x00000000000000000000000010db2e70118e5fbeda30391ec957e608c9e4517e"
          ],
          "data": "0x0000000000000000000000000000000000000000000000281d901f4fdd100000",
          "blockHash": "0x225f55614981383ed910c549059f54b9217d500bfa46f08ea40abf1965e76fac",
          "blockNumber": "0x9e9b53",
          "blockTimestamp": "0x69aa6dcc",
          "transactionHash": "0xd9216a9a19a359faeaf39eedb598d1e5cad2a5eb8d05669f012340f19d7faf1d",
          "transactionIndex": "0x74",
          "logIndex": "0x13e",
          "removed": false
        }
      ],
      "logsBloom": "0x00000000000000001000000000000000000000000000000000000000000000800000000000000440000004000000000000800800000040000410001000002000000000000000000000000000010080000800000000080000000028000000080010000000040000000000008000010000000000000000000000000800000400000000000000000001000000000048000000000000000000000000000000000800200000000008000010000000008000000c00000040000000010100000010000000800000000000000000001041080001020000000008000800000000000000000000000010000000000880000000000000000000000000000001180020000000",
      "type": "0x2",
      "transactionHash": "0xd9216a9a19a359faeaf39eedb598d1e5cad2a5eb8d05669f012340f19d7faf1d",
      "transactionIndex": "0x74",
      "blockHash": "0x225f55614981383ed910c549059f54b9217d500bfa46f08ea40abf1965e76fac",
      "blockNumber": "0x9e9b53",
      "gasUsed": "0x510a0",
      "effectiveGasPrice": "0xf4650",
      "from": "0x10db2e70118e5fbeda30391ec957e608c9e4517e",
      "to": "0xa789cb5c4b630777b3ce210184b0f932f9e46920",
      "contractAddress": null
    }
  ],
  "libraries": [],
  "pending": [],
  "returns": {},
  "timestamp": 1772776910000,
  "chain": 11155111,
  "commit": "2a5e0a9"
}