{
  "transactions": [
    {
      "hash": "0xdac4d54968efa38b0e69a800c64b2ef5aa1981be7d61aded8aa90a47783103ea",
      "transactionType": "CALL",
      "contractName": null,
      "contractAddress": "0xb091e3541892c59b9ec90c8012944f331dfca924",
      "function": "absorbPositions(bytes32,address)",
      "arguments": [
        "0x000000000000000000000000f68d9e0faa751ad61e0ed70852798bf9d9c04bf7",
        "0xbb46678a1F6C527bD79eCFBF85332B8Ae83ceaf1"
      ],
      "transaction": {
        "from": "0x10db2e70118e5fbeda30391ec957e608c9e4517e",
        "to": "0xb091e3541892c59b9ec90c8012944f331dfca924",
        "gas": "0x6d32c",
        "value": "0x0",
        "input": "0xfe5638cc000000000000000000000000f68d9e0faa751ad61e0ed70852798bf9d9c04bf7000000000000000000000000bb46678a1f6c527bd79ecfbf85332b8ae83ceaf1",
        "nonce": "0x25",
        "chainId": "0xaa36a7"
      },
      "additionalContracts": [],
      "isFixedGasLimit": false
    }
  ],
  "receipts": [
    {
      "status": "0x1",
      "cumulativeGasUsed": "0x5a7d47",
      "logs": [
        {
          "address": "0xdc1abd7fc6f7ac86b063c850a9a24a58e17ee469",
          "topics": [
            "0xc3d58168c5ae7397731d063d5bbf3d657854427343f4c083240f7aacaa2d0f62",
            "0x00000000000000000000000025683a73d1e84e4813335c63c07f41c055efd032",
            "0x000000000000000000000000f68d9e0faa751ad61e0ed70852798bf9d9c04bf7",
            "0x00000000000000000000000010db2e70118e5fbeda30391ec957e608c9e4517e"
          ],
          "data": "0x000000000000000000000000000000000000000000000000000000000000000300000000000000000000000000000000000000000000d3c21bcecceda1000000",
          "blockHash": "0x7ead60b2ef79c18cdec48f8a51e5857a1047e863078d69781bb45b8e15119cc5",
          "blockNumber": "0x9ea012",
          "blockTimestamp": "0x69aaab4c",
          "transactionHash": "0xdac4d54968efa38b0e69a800c64b2ef5aa1981be7d61aded8aa90a47783103ea",
          "transactionIndex": "0x41",
          "logIndex": "0x57",
          "removed": false
        },
        {
          "address": "0x34186ddef18dd8678d86b570e11c7eb1d2df1e82",
          "topics": [
            "0x15ca2c58d94a57353778871a512abd76587f09583c3fce118289c2f118794e23",
            "0x00000000000000000000000010db2e70118e5fbeda30391ec957e608c9e4517e"
          ],
          "data": "0x00000000000000000000000000000000000000000000d3c21bcecceda100000000000000000000000000000000000000000000000000d3c21bcecceda1000000",
          "blockHash": "0x7ead60b2ef79c18cdec48f8a51e5857a1047e863078d69781bb45b8e15119cc5",
          "blockNumber": "0x9ea012",
          "blockTimestamp": "0x69aaab4c",
          "transactionHash": "0xdac4d54968efa38b0e69a800c64b2ef5aa1981be7d61aded8aa90a47783103ea",
          "transactionIndex": "0x41",
          "logIndex": "0x58",
          "removed": false
        },
        {
          "address": "0x2715ee693501d060ba817bfc9f97f32ea8660dd8",
          "topics": [
            "0x9372321d543f1b03b8b743f369a5417b1a683c8d1359cda23f4047834cddbb50",
            "0x00000000000000000000000010db2e70118e5fbeda30391ec957e608c9e4517e"
          ],
          "data": "0x0000000000000000000000000000000000000000000004315c32d71a9e600000",
          "blockHash": "0x7ead60b2ef79c18cdec48f8a51e5857a1047e863078d69781bb45b8e15119cc5",
          "blockNumber": "0x9ea012",
          "blockTimestamp": "0x69aaab4c",
          "transactionHash": "0xdac4d54968efa38b0e69a800c64b2ef5aa1981be7d61aded8aa90a47783103ea",
          "transactionIndex": "0x41",
          "logIndex": "0x59",
          "removed": false
        },
        {
          "address": "0x378eb037e19526035166442c44575c22b7f8ab2c",
          "topics": [
            "0x15c759f729890e54ba9fbec58cddba4b65515f5f2c5b01ede4fa2c6841d18de3",
            "0x00000000000000000000000010db2e70118e5fbeda30391ec957e608c9e4517e"
          ],
          "data": "0x000000000000000000000000bb46678a1f6c527bd79ecfbf85332b8ae83ceaf1000000000000000000000000000000000000000000000000000000000000000000000000000000000000000000000000000000000000032505262153f6c80000",
          "blockHash": "0x7ead60b2ef79c18cdec48f8a51e5857a1047e863078d69781bb45b8e15119cc5",
          "blockNumber": "0x9ea012",
          "blockTimestamp": "0x69aaab4c",
          "transactionHash": "0xdac4d54968efa38b0e69a800c64b2ef5aa1981be7d61aded8aa90a47783103ea",
          "transactionIndex": "0x41",
          "logIndex": "0x5a",
          "removed": false
        },
        {
          "address": "0x2715ee693501d060ba817bfc9f97f32ea8660dd8",
          "topics": [
            "0x6fd1f3949541cd49d779154387024699bcf742e79f24b3e96b2ae0a30cdd6e94",
            "0x000000000000000000000000f68d9e0faa751ad61e0ed70852798bf9d9c04bf7"
          ],
          "data": "0x0000000000000000000000000000000000000000000004315c32d71a9e600000",
          "blockHash": "0x7ead60b2ef79c18cdec48f8a51e5857a1047e863078d69781bb45b8e15119cc5",
          "blockNumber": "0x9ea012",
          "blockTimestamp": "0x69aaab4c",
          "transactionHash": "0xdac4d54968efa38b0e69a800c64b2ef5aa1981be7d61aded8aa90a47783103ea",
          "transactionIndex": "0x41",
          "logIndex": "0x5b",
          "removed": false
        },
        {
          "address": "0x378eb037e19526035166442c44575c22b7f8ab2c",
          "topics": [
            "0x15c759f729890e54ba9fbec58cddba4b65515f5f2c5b01ede4fa2c6841d18de3",
            "0x000000000000000000000000f68d9e0faa751ad61e0ed70852798bf9d9c04bf7"
          ],
          "data": "0x000000000000000000000000bb46678a1f6c527bd79ecfbf85332b8ae83ceaf100000000000000000000000000000000000000000000032505262153f6c800000000000000000000000000000000000000000000000000000000000000000000",
          "blockHash": "0x7ead60b2ef79c18cdec48f8a51e5857a1047e863078d69781bb45b8e15119cc5",
          "blockNumber": "0x9ea012",
          "blockTimestamp": "0x69aaab4c",
          "transactionHash": "0xdac4d54968efa38b0e69a800c64b2ef5aa1981be7d61aded8aa90a47783103ea",
          "transactionIndex": "0x41",
          "logIndex": "0x5c",
          "removed": false
        },
        {
          "address": "0x34186ddef18dd8678d86b570e11c7eb1d2df1e82",
          "topics": [
            "0xd36cc0768065e66afbd8046663fd4d7c6edcc0c1a3ee54fdd4ece612958ba2db",
            "0x000000000000000000000000f68d9e0faa751ad61e0ed70852798bf9d9c04bf7"
          ],
          "data": "0x00000000000000000000000000000000000000000000d3c21bcecceda10000000000000000000000000000000000000000000000000000000000000000000000",
          "blockHash": "0x7ead60b2ef79c18cdec48f8a51e5857a1047e863078d69781bb45b8e15119cc5",
          "blockNumber": "0x9ea012",
          "blockTimestamp": "0x69aaab4c",
          "transactionHash": "0xdac4d54968efa38b0e69a800c64b2ef5aa1981be7d61aded8aa90a47783103ea",
          "transactionIndex": "0x41",
          "logIndex": "0x5d",
          "removed": false
        },
        {
          "address": "0x2715ee693501d060ba817bfc9f97f32ea8660dd8",
          "topics": [
            "0x69a12ad77691eeb11d143a8223c5c43b77205173541be5a474e08039e98e65e3",
            "0x000000000000000000000000f68d9e0faa751ad61e0ed70852798bf9d9c04bf7"
          ],
          "data": "0x000000000000000000000000bb46678a1f6c527bd79ecfbf85332b8ae83ceaf1fffffffffffffffffffffffffffffffffffffffffffffec8d57f7bd2c9d00000",
          "blockHash": "0x7ead60b2ef79c18cdec48f8a51e5857a1047e863078d69781bb45b8e15119cc5",
          "blockNumber": "0x9ea012",
          "blockTimestamp": "0x69aaab4c",
          "transactionHash": "0xdac4d54968efa38b0e69a800c64b2ef5aa1981be7d61aded8aa90a47783103ea",
          "transactionIndex": "0x41",
          "logIndex": "0x5e",
          "removed": false
        },
        {
          "address": "0x2715ee693501d060ba817bfc9f97f32ea8660dd8",
          "topics": [
            "0x69a12ad77691eeb11d143a8223c5c43b77205173541be5a474e08039e98e65e3",
            "0x00000000000000000000000010db2e70118e5fbeda30391ec957e608c9e4517e"
          ],
          "data": "0x000000000000000000000000bb46678a1f6c527bd79ecfbf85332b8ae83ceaf10000000000000000000000000000000000000000000001372a80842d36300000",
          "blockHash": "0x7ead60b2ef79c18cdec48f8a51e5857a1047e863078d69781bb45b8e15119cc5",
          "blockNumber": "0x9ea012",
          "blockTimestamp": "0x69aaab4c",
          "transactionHash": "0xdac4d54968efa38b0e69a800c64b2ef5aa1981be7d61aded8aa90a47783103ea",
          "transactionIndex": "0x41",
          "logIndex": "0x5f",
          "removed": false
        },
        {
          "address": "0x25683a73d1e84e4813335c63c07f41c055efd032",
          "topics": [
            "0x81cb212e5f0b00ba016b1c34cc86e1d5cd0b414957ee59e446d10dd9dadaeeaa",
            "0x000000000000000000000000f68d9e0faa751ad61e0ed70852798bf9d9c04bf7",
            "0x00000000000000000000000010db2e70118e5fbeda30391ec957e608c9e4517e"
          ],
          "data": "0x0000000000000000000000000000000000000000000000000000000000000060000000000000000000000000bb46678a1f6c527bd79ecfbf85332b8ae83ceaf1fffffffffffffffffffffffffffffffffffffffffffffec8d57f7bd2c9d0000000000000000000000000000000000000000000000000000000000000000000010000000000000000000000000000000000000000000000000000000000000003",
          "blockHash": "0x7ead60b2ef79c18cdec48f8a51e5857a1047e863078d69781bb45b8e15119cc5",
          "blockNumber": "0x9ea012",
          "blockTimestamp": "0x69aaab4c",
          "transactionHash": "0xdac4d54968efa38b0e69a800c64b2ef5aa1981be7d61aded8aa90a47783103ea",
          "transactionIndex": "0x41",
          "logIndex": "0x60",
          "removed": false
        },
        {
          "address": "0xb091e3541892c59b9ec90c8012944f331dfca924",
          "topics": [
            "0xec096d06a266fd442a7c79de2a657ba8b2713708209152128417045fe3f94adf",
            "0x000000000000000000000000f68d9e0faa751ad61e0ed70852798bf9d9c04bf7",
            "0x000000000000000000000000bb46678a1f6c527bd79ecfbf85332b8ae83ceaf1",
            "0x00000000000000000000000010db2e70118e5fbeda30391ec957e608c9e4517e"
          ],
          "data": "0x0000000000000000000000000000000000000000000000281d901f4fdd100000",
          "blockHash": "0x7ead60b2ef79c18cdec48f8a51e5857a1047e863078d69781bb45b8e15119cc5",
          "blockNumber": "0x9ea012",
          "blockTimestamp": "0x69aaab4c",
          "transactionHash": "0xdac4d54968efa38b0e69a800c64b2ef5aa1981be7d61aded8aa90a47783103ea",
          "transactionIndex": "0x41",
          "logIndex": "0x61",
          "removed": false
        }
      ],
      "logsBloom": "0x000000008000000010000000000000080000000000000000000000000000208000000400000000600000040000000000108008000000000004000000010020000000000000000000000000000000000008000000000812000000200000000000100000000018004000000000000100100000600000000000000008000000000000000000000000010000a0000040000000000000000000000000000000000800200000000008000000000000008000000400000040000000010100000000000000000000000000000000001041020001000000000008000000000000000008000000000010000000000880000000000000000000400000000000180000000000",
      "type": "0x2",
      "transactionHash": "0xdac4d54968efa38b0e69a800c64b2ef5aa1981be7d61aded8aa90a47783103ea",
      "transactionIndex": "0x41",
      "blockHash": "0x7ead60b2ef79c18cdec48f8a51e5857a1047e863078d69781bb45b8e15119cc5",
      "blockNumber": "0x9ea012",
      "gasUsed": "0x4f0ed",
      "effectiveGasPrice": "0x1cfbc1e",
      "from": "0x10db2e70118e5fbeda30391ec957e608c9e4517e",
      "to": "0xb091e3541892c59b9ec90c8012944f331dfca924",
      "contractAddress": null
    }
  ],
  "libraries": [],
  "pending": [],
  "returns": {},
  "timestamp": 1772792653917,
  "chain": 11155111,
  "commit": "f48a2f7"
}