{
  "transactions": [
    {
      "hash": "0xc1f1c1d51dd571d0213f794e3ce068ec094db60a5e5b616d25d5e31367b4e288",
      "transactionType": "CALL",
      "contractName": null,
      "contractAddress": "0x7e676562e1afd575c85980404f375b5927085df3",
      "function": "absorbPositions(bytes32,address)",
      "arguments": [
        "0x000000000000000000000000f68d9e0faa751ad61e0ed70852798bf9d9c04bf7",
        "0xbb46678a1F6C527bD79eCFBF85332B8Ae83ceaf1"
      ],
      "transaction": {
        "from": "0x10db2e70118e5fbeda30391ec957e608c9e4517e",
        "to": "0x7e676562e1afd575c85980404f375b5927085df3",
        "gas": "0x6fef6",
        "value": "0x0",
        "input": "0xfe5638cc000000000000000000000000f68d9e0faa751ad61e0ed70852798bf9d9c04bf7000000000000000000000000bb46678a1f6c527bd79ecfbf85332b8ae83ceaf1",
        "nonce": "0x1b",
        "chainId": "0xaa36a7"
      },
      "additionalContracts": [],
      "isFixedGasLimit": false
    }
  ],
  "receipts": [
    {
      "status": "0x1",
      "cumulativeGasUsed": "0x14dc154",
      "logs": [
        {
          "address": "0xa8f169af6415ad3a7b75e05a589e3f0fe9bc0d98",
          "topics": [
            "0xc3d58168c5ae7397731d063d5bbf3d657854427343f4c083240f7aacaa2d0f62",
            "0x000000000000000000000000dba1f4248c2155410b161cfe4be9130a3f04112d",
            "0x000000000000000000000000f68d9e0faa751ad61e0ed70852798bf9d9c04bf7",
            "0x00000000000000000000000010db2e70118e5fbeda30391ec957e608c9e4517e"
          ],
          "data": "0x000000000000000000000000000000000000000000000000000000000000000100000000000000000000000000000000000000000000d3c21bcecceda1000000",
          "blockHash": "0x89ebf9d52f7f69520526ca1d526e76e1f0420eed37c138dece358cb6a6118f27",
          "blockNumber": "0x9e9c12",
          "blockTimestamp": "0x69aa77d4",
          "transactionHash": "0xc1f1c1d51dd571d0213f794e3ce068ec094db60a5e5b616d25d5e31367b4e288",
          "transactionIndex": "0x82",
          "logIndex": "0x1a2",
          "removed": false
        },
        {
          "address": "0xf3e959ddc41236df58728b03f2307eeac4b427f3",
          "topics": [
            "0x15ca2c58d94a57353778871a512abd76587f09583c3fce118289c2f118794e23",
            "0x00000000000000000000000010db2e70118e5fbeda30391ec957e608c9e4517e"
          ],
          "data": "0x00000000000000000000000000000000000000000000d3c21bcecceda100000000000000000000000000000000000000000000000000d3c21bcecceda1000000",
          "blockHash": "0x89ebf9d52f7f69520526ca1d526e76e1f0420eed37c138dece358cb6a6118f27",
          "blockNumber": "0x9e9c12",
          "blockTimestamp": "0x69aa77d4",
          "transactionHash": "0xc1f1c1d51dd571d0213f794e3ce068ec094db60a5e5b616d25d5e31367b4e288",
          "transactionIndex": "0x82",
          "logIndex": "0x1a3",
          "removed": false
        },
        {
          "address": "0x5d5331c02041e0452ba6de4779dea7a998d81864",
          "topics": [
            "0x9372321d543f1b03b8b743f369a5417b1a683c8d1359cda23f4047834cddbb50",
            "0x00000000000000000000000010db2e70118e5fbeda30391ec957e608c9e4517e"
          ],
          "data": "0x0000000000000000000000000000000000000000000004315c32d71a9e600000",
          "blockHash": "0x89ebf9d52f7f69520526ca1d526e76e1f0420eed37c138dece358cb6a6118f27",
          "blockNumber": "0x9e9c12",
          "blockTimestamp": "0x69aa77d4",
          "transactionHash": "0xc1f1c1d51dd571d0213f794e3ce068ec094db60a5e5b616d25d5e31367b4e288",
          "transactionIndex": "0x82",
          "logIndex": "0x1a4",
          "removed": false
        },
        {
          "address": "0xa2ad9a14cf2a15c57cd00fe595a1afd1f3e132ac",
          "topics": [
            "0x15c759f729890e54ba9fbec58cddba4b65515f5f2c5b01ede4fa2c6841d18de3",
            "0x00000000000000000000000010db2e70118e5fbeda30391ec957e608c9e4517e"
          ],
          "data": "0x000000000000000000000000bb46678a1f6c527bd79ecfbf85332b8ae83ceaf1000000000000000000000000000000000000000000000000000000000000000000000000000000000000000000000000000000000000032505262153f6c80000",
          "blockHash": "0x89ebf9d52f7f69520526ca1d526e76e1f0420eed37c138dece358cb6a6118f27",
          "blockNumber": "0x9e9c12",
          "blockTimestamp": "0x69aa77d4",
          "transactionHash": "0xc1f1c1d51dd571d0213f794e3ce068ec094db60a5e5b616d25d5e31367b4e288",
          "transactionIndex": "0x82",
          "logIndex": "0x1a5",
          "removed": false
        },
        {
          "address": "0x5d5331c02041e0452ba6de4779dea7a998d81864",
          "topics": [
            "0x6fd1f3949541cd49d779154387024699bcf742e79f24b3e96b2ae0a30cdd6e94",
            "0x000000000000000000000000f68d9e0faa751ad61e0ed70852798bf9d9c04bf7"
          ],
          "data": "0x0000000000000000000000000000000000000000000004315c32d71a9e600000",
          "blockHash": "0x89ebf9d52f7f69520526ca1d526e76e1f0420eed37c138dece358cb6a6118f27",
          "blockNumber": "0x9e9c12",
          "blockTimestamp": "0x69aa77d4",
          "transactionHash": "0xc1f1c1d51dd571d0213f794e3ce068ec094db60a5e5b616d25d5e31367b4e288",
          "transactionIndex": "0x82",
          "logIndex": "0x1a6",
          "removed": false
        },
        {
          "address": "0xa2ad9a14cf2a15c57cd00fe595a1afd1f3e132ac",
          "topics": [
            "0x15c759f729890e54ba9fbec58cddba4b65515f5f2c5b01ede4fa2c6841d18de3",
            "0x000000000000000000000000f68d9e0faa751ad61e0ed70852798bf9d9c04bf7"
          ],
          "data": "0x000000000000000000000000bb46678a1f6c527bd79ecfbf85332b8ae83ceaf100000000000000000000000000000000000000000000032505262153f6c800000000000000000000000000000000000000000000000000000000000000000000",
          "blockHash": "0x89ebf9d52f7f69520526ca1d526e76e1f0420eed37c138dece358cb6a6118f27",
          "blockNumber": "0x9e9c12",
          "blockTimestamp": "0x69aa77d4",
          "transactionHash": "0xc1f1c1d51dd571d0213f794e3ce068ec094db60a5e5b616d25d5e31367b4e288",
          "transactionIndex": "0x82",
          "logIndex": "0x1a7",
          "removed": false
        },
        {
          "address": "0xf3e959ddc41236df58728b03f2307eeac4b427f3",
          "topics": [
            "0xd36cc0768065e66afbd8046663fd4d7c6edcc0c1a3ee54fdd4ece612958ba2db",
            "0x000000000000000000000000f68d9e0faa751ad61e0ed70852798bf9d9c04bf7"
          ],
          "data": "0x00000000000000000000000000000000000000000000d3c21bcecceda10000000000000000000000000000000000000000000000000000000000000000000000",
          "blockHash": "0x89ebf9d52f7f69520526ca1d526e76e1f0420eed37c138dece358cb6a6118f27",
          "blockNumber": "0x9e9c12",
          "blockTimestamp": "0x69aa77d4",
          "transactionHash": "0xc1f1c1d51dd571d0213f794e3ce068ec094db60a5e5b616d25d5e31367b4e288",
          "transactionIndex": "0x82",
          "logIndex": "0x1a8",
          "removed": false
        },
        {
          "address": "0x5d5331c02041e0452ba6de4779dea7a998d81864",
          "topics": [
            "0x69a12ad77691eeb11d143a8223c5c43b77205173541be5a474e08039e98e65e3",
            "0x000000000000000000000000f68d9e0faa751ad61e0ed70852798bf9d9c04bf7"
          ],
          "data": "0x000000000000000000000000bb46678a1f6c527bd79ecfbf85332b8ae83ceaf1fffffffffffffffffffffffffffffffffffffffffffffec8d57f7bd2c9d00000",
          "blockHash": "0x89ebf9d52f7f69520526ca1d526e76e1f0420eed37c138dece358cb6a6118f27",
          "blockNumber": "0x9e9c12",
          "blockTimestamp": "0x69aa77d4",
          "transactionHash": "0xc1f1c1d51dd571d0213f794e3ce068ec094db60a5e5b616d25d5e31367b4e288",
          "transactionIndex": "0x82",
          "logIndex": "0x1a9",
          "removed": false
        },
        {
          "address": "0x5d5331c02041e0452ba6de4779dea7a998d81864",
          "topics": [
            "0x69a12ad77691eeb11d143a8223c5c43b77205173541be5a474e08039e98e65e3",
            "0x00000000000000000000000010db2e70118e5fbeda30391ec957e608c9e4517e"
          ],
          "data": "0x000000000000000000000000bb46678a1f6c527bd79ecfbf85332b8ae83ceaf10000000000000000000000000000000000000000000001372a80842d36300000",
          "blockHash": "0x89ebf9d52f7f69520526ca1d526e76e1f0420eed37c138dece358cb6a6118f27",
          "blockNumber": "0x9e9c12",
          "blockTimestamp": "0x69aa77d4",
          "transactionHash": "0xc1f1c1d51dd571d0213f794e3ce068ec094db60a5e5b616d25d5e31367b4e288",
          "transactionIndex": "0x82",
          "logIndex": "0x1aa",
          "removed": false
        },
        {
          "address": "0xdba1f4248c2155410b161cfe4be9130a3f04112d",
          "topics": [
            "0x81cb212e5f0b00ba016b1c34cc86e1d5cd0b414957ee59e446d10dd9dadaeeaa",
            "0x000000000000000000000000f68d9e0faa751ad61e0ed70852798bf9d9c04bf7",
            "0x00000000000000000000000010db2e70118e5fbeda30391ec957e608c9e4517e"
          ],
          "data": "0x0000000000000000000000000000000000000000000000000000000000000060000000000000000000000000bb46678a1f6c527bd79ecfbf85332b8ae83ceaf1fffffffffffffffffffffffffffffffffffffffffffffec8d57f7bd2c9d0000000000000000000000000000000000000000000000000000000000000000000010000000000000000000000000000000000000000000000000000000000000001",
          "blockHash": "0x89ebf9d52f7f69520526ca1d526e76e1f0420eed37c138dece358cb6a6118f27",
          "blockNumber": "0x9e9c12",
          "blockTimestamp": "0x69aa77d4",
          "transactionHash": "0xc1f1c1d51dd571d0213f794e3ce068ec094db60a5e5b616d25d5e31367b4e288",
          "transactionIndex": "0x82",
          "logIndex": "0x1ab",
          "removed": false
        },
        {
          "address": "0x7e676562e1afd575c85980404f375b5927085df3",
          "topics": [
            "0xec096d06a266fd442a7c79de2a657ba8b2713708209152128417045fe3f94adf",
            "0x000000000000000000000000f68d9e0faa751ad61e0ed70852798bf9d9c04bf7",
            "0x000000000000000000000000bb46678a1f6c527bd79ecfbf85332b8ae83ceaf1",
            "0x00000000000000000000000010db2e70118e5fbeda30391ec957e608c9e4517e"
          ],
          "data": "0x0000000000000000000000000000000000000000000000281d901f4fdd100000",
          "blockHash": "0x89ebf9d52f7f69520526ca1d526e76e1f0420eed37c138dece358cb6a6118f27",
          "blockNumber": "0x9e9c12",
          "blockTimestamp": "0x69aa77d4",
          "transactionHash": "0xc1f1c1d51dd571d0213f794e3ce068ec094db60a5e5b616d25d5e31367b4e288",
          "transactionIndex": "0x82",
          "logIndex": "0x1ac",
          "removed": false
        }
      ],
      "logsBloom": "0x00001000000000001000000000000000000000000000000000000000000000840000000000008840000004000000000000800800000000001400000000002000000000000000000000000000000000000800000000080000000020400000040010000000000000000020000000010000800000000000000000100800000000000000000800000001000000002040000000000000000000000000000000000800200000000008000000000000008000000420000040000000010100000000000000000000000000000000001041000001180000004008000800000000001000020000000010000000000880200400000000000000000000000000180000000000",
      "type": "0x2",
      "transactionHash": "0xc1f1c1d51dd571d0213f794e3ce068ec094db60a5e5b616d25d5e31367b4e288",
      "transactionIndex": "0x82",
      "blockHash": "0x89ebf9d52f7f69520526ca1d526e76e1f0420eed37c138dece358cb6a6118f27",
      "blockNumber": "0x9e9c12",
      "gasUsed": "0x510a0",
      "effectiveGasPrice": "0x1cd30a",
      "from": "0x10db2e70118e5fbeda30391ec957e608c9e4517e",
      "to": "0x7e676562e1afd575c85980404f375b5927085df3",
      "contractAddress": null
    }
  ],
  "libraries": [],
  "pending": [],
  "returns": {},
  "timestamp": 1772779477827,
  "chain": 11155111,
  "commit": "d835087"
}