{
  "transactions": [
    {
      "hash": "0xb4438448501cee2aa4d4e3cbe149d9e5bcd9aaa65dc5af27b5506ca1998b8a28",
      "transactionType": "CALL",
      "contractName": "LiquidationEngine",
      "contractAddress": "0xbc2cfdf40ff981c443b0c43b3cc51c195f213072",
      "function": "absorbPositions(bytes32,address)",
      "arguments": [
        "0x000000000000000000000000f68d9e0faa751ad61e0ed70852798bf9d9c04bf7",
        "0xbb46678a1F6C527bD79eCFBF85332B8Ae83ceaf1"
      ],
      "transaction": {
        "from": "0x10db2e70118e5fbeda30391ec957e608c9e4517e",
        "to": "0xbc2cfdf40ff981c443b0c43b3cc51c195f213072",
        "gas": "0x738c0",
        "value": "0x0",
        "input": "0xfe5638cc000000000000000000000000f68d9e0faa751ad61e0ed70852798bf9d9c04bf7000000000000000000000000bb46678a1f6c527bd79ecfbf85332b8ae83ceaf1",
        "nonce": "0x36",
        "chainId": "0xaa36a7"
      },
      "additionalContracts": [],
      "isFixedGasLimit": false
    }
  ],
  "receipts": [
    {
      "status": "0x1",
      "cumulativeGasUsed": "0x19954f2",
      "logs": [
        {
          "address": "0x8bf8eeb98ddb2d5d34efce2b9fb4b6afb5428865",
          "topics": [
            "0xc3d58168c5ae7397731d063d5bbf3d657854427343f4c083240f7aacaa2d0f62",
            "0x0000000000000000000000005e3c9ea10cf8b0f0bdebe2ec051a0a7b2c62b3d0",
            "0x000000000000000000000000f68d9e0faa751ad61e0ed70852798bf9d9c04bf7",
            "0x00000000000000000000000010db2e70118e5fbeda30391ec957e608c9e4517e"
          ],
          "data": "0x000000000000000000000000000000000000000000000000000000000000000100000000000000000000000000000000000000000000d3c21bcecceda1000000",
          "blockHash": "0x5da09c35f3e4aa637a43648f7ffe507b01f192fa5c4d04ad78d43ddd98b7ef77",
          "blockNumber": "0x9ed04f",
          "blockTimestamp": "0x69ad4ac8",
          "transactionHash": "0xb4438448501cee2aa4d4e3cbe149d9e5bcd9aaa65dc5af27b5506ca1998b8a28",
          "transactionIndex": "0xa1",
          "logIndex": "0x20a",
          "removed": false
        },
        {
          "address": "0x59a1887476faf217c66ddd2d666a3bd72ad57d80",
          "topics": [
            "0x15ca2c58d94a57353778871a512abd76587f09583c3fce118289c2f118794e23",
            "0x00000000000000000000000010db2e70118e5fbeda30391ec957e608c9e4517e"
          ],
          "data": "0x00000000000000000000000000000000000000000000d3c21bcecceda100000000000000000000000000000000000000000000000000d3c21bcecceda1000000",
          "blockHash": "0x5da09c35f3e4aa637a43648f7ffe507b01f192fa5c4d04ad78d43ddd98b7ef77",
          "blockNumber": "0x9ed04f",
          "blockTimestamp": "0x69ad4ac8",
          "transactionHash": "0xb4438448501cee2aa4d4e3cbe149d9e5bcd9aaa65dc5af27b5506ca1998b8a28",
          "transactionIndex": "0xa1",
          "logIndex": "0x20b",
          "removed": false
        },
        {
          "address": "0xd47395d178492f3b1bc36b7dddfde93e54025aa6",
          "topics": [
            "0x9372321d543f1b03b8b743f369a5417b1a683c8d1359cda23f4047834cddbb50",
            "0x00000000000000000000000010db2e70118e5fbeda30391ec957e608c9e4517e"
          ],
          "data": "0x0000000000000000000000000000000000000000000004315c32d71a9e600000",
          "blockHash": "0x5da09c35f3e4aa637a43648f7ffe507b01f192fa5c4d04ad78d43ddd98b7ef77",
          "blockNumber": "0x9ed04f",
          "blockTimestamp": "0x69ad4ac8",
          "transactionHash": "0xb4438448501cee2aa4d4e3cbe149d9e5bcd9aaa65dc5af27b5506ca1998b8a28",
          "transactionIndex": "0xa1",
          "logIndex": "0x20c",
          "removed": false
        },
        {
          "address": "0xc1b1775bb34ef997bd5527c42e1e6d8757492b64",
          "topics": [
            "0x15c759f729890e54ba9fbec58cddba4b65515f5f2c5b01ede4fa2c6841d18de3",
            "0x00000000000000000000000010db2e70118e5fbeda30391ec957e608c9e4517e"
          ],
          "data": "0x000000000000000000000000bb46678a1f6c527bd79ecfbf85332b8ae83ceaf1000000000000000000000000000000000000000000000000000000000000000000000000000000000000000000000000000000000000032505262153f6c80000",
          "blockHash": "0x5da09c35f3e4aa637a43648f7ffe507b01f192fa5c4d04ad78d43ddd98b7ef77",
          "blockNumber": "0x9ed04f",
          "blockTimestamp": "0x69ad4ac8",
          "transactionHash": "0xb4438448501cee2aa4d4e3cbe149d9e5bcd9aaa65dc5af27b5506ca1998b8a28",
          "transactionIndex": "0xa1",
          "logIndex": "0x20d",
          "removed": false
        },
        {
          "address": "0xd47395d178492f3b1bc36b7dddfde93e54025aa6",
          "topics": [
            "0x6fd1f3949541cd49d779154387024699bcf742e79f24b3e96b2ae0a30cdd6e94",
            "0x000000000000000000000000f68d9e0faa751ad61e0ed70852798bf9d9c04bf7"
          ],
          "data": "0x0000000000000000000000000000000000000000000004315c32d71a9e600000",
          "blockHash": "0x5da09c35f3e4aa637a43648f7ffe507b01f192fa5c4d04ad78d43ddd98b7ef77",
          "blockNumber": "0x9ed04f",
          "blockTimestamp": "0x69ad4ac8",
          "transactionHash": "0xb4438448501cee2aa4d4e3cbe149d9e5bcd9aaa65dc5af27b5506ca1998b8a28",
          "transactionIndex": "0xa1",
          "logIndex": "0x20e",
          "removed": false
        },
        {
          "address": "0xc1b1775bb34ef997bd5527c42e1e6d8757492b64",
          "topics": [
            "0x15c759f729890e54ba9fbec58cddba4b65515f5f2c5b01ede4fa2c6841d18de3",
            "0x000000000000000000000000f68d9e0faa751ad61e0ed70852798bf9d9c04bf7"
          ],
          "data": "0x000000000000000000000000bb46678a1f6c527bd79ecfbf85332b8ae83ceaf100000000000000000000000000000000000000000000032505262153f6c800000000000000000000000000000000000000000000000000000000000000000000",
          "blockHash": "0x5da09c35f3e4aa637a43648f7ffe507b01f192fa5c4d04ad78d43ddd98b7ef77",
          "blockNumber": "0x9ed04f",
          "blockTimestamp": "0x69ad4ac8",
          "transactionHash": "0xb4438448501cee2aa4d4e3cbe149d9e5bcd9aaa65dc5af27b5506ca1998b8a28",
          "transactionIndex": "0xa1",
          "logIndex": "0x20f",
          "removed": false
        },
        {
          "address": "0x59a1887476faf217c66ddd2d666a3bd72ad57d80",
          "topics": [
            "0xd36cc0768065e66afbd8046663fd4d7c6edcc0c1a3ee54fdd4ece612958ba2db",
            "0x000000000000000000000000f68d9e0faa751ad61e0ed70852798bf9d9c04bf7"
          ],
          "data": "0x00000000000000000000000000000000000000000000d3c21bcecceda10000000000000000000000000000000000000000000000000000000000000000000000",
          "blockHash": "0x5da09c35f3e4aa637a43648f7ffe507b01f192fa5c4d04ad78d43ddd98b7ef77",
          "blockNumber": "0x9ed04f",
          "blockTimestamp": "0x69ad4ac8",
          "transactionHash": "0xb4438448501cee2aa4d4e3cbe149d9e5bcd9aaa65dc5af27b5506ca1998b8a28",
          "transactionIndex": "0xa1",
          "logIndex": "0x210",
          "removed": false
        },
        {
          "address": "0xd47395d178492f3b1bc36b7dddfde93e54025aa6",
          "topics": [
            "0x69a12ad77691eeb11d143a8223c5c43b77205173541be5a474e08039e98e65e3",
            "0x000000000000000000000000f68d9e0faa751ad61e0ed70852798bf9d9c04bf7"
          ],
          "data": "0x000000000000000000000000bb46678a1f6c527bd79ecfbf85332b8ae83ceaf1ffffffffffffffffffffffffffffffffffffffffffffffd76733c7bc7d780000",
          "blockHash": "0x5da09c35f3e4aa637a43648f7ffe507b01f192fa5c4d04ad78d43ddd98b7ef77",
          "blockNumber": "0x9ed04f",
          "blockTimestamp": "0x69ad4ac8",
          "transactionHash": "0xb4438448501cee2aa4d4e3cbe149d9e5bcd9aaa65dc5af27b5506ca1998b8a28",
          "transactionIndex": "0xa1",
          "logIndex": "0x211",
          "removed": false
        },
        {
          "address": "0xd47395d178492f3b1bc36b7dddfde93e54025aa6",
          "topics": [
            "0x69a12ad77691eeb11d143a8223c5c43b77205173541be5a474e08039e98e65e3",
            "0x00000000000000000000000010db2e70118e5fbeda30391ec957e608c9e4517e"
          ],
          "data": "0x000000000000000000000000bb46678a1f6c527bd79ecfbf85332b8ae83ceaf100000000000000000000000000000000000000000000002898cc384382880000",
          "blockHash": "0x5da09c35f3e4aa637a43648f7ffe507b01f192fa5c4d04ad78d43ddd98b7ef77",
          "blockNumber": "0x9ed04f",
          "blockTimestamp": "0x69ad4ac8",
          "transactionHash": "0xb4438448501cee2aa4d4e3cbe149d9e5bcd9aaa65dc5af27b5506ca1998b8a28",
          "transactionIndex": "0xa1",
          "logIndex": "0x212",
          "removed": false
        },
        {
          "address": "0x5e3c9ea10cf8b0f0bdebe2ec051a0a7b2c62b3d0",
          "topics": [
            "0x1bbe9757c483c47113897d2e51838cc8568cb5983b011b3c981fd05ab57a060a",
            "0x000000000000000000000000f68d9e0faa751ad61e0ed70852798bf9d9c04bf7",
            "0x00000000000000000000000010db2e70118e5fbeda30391ec957e608c9e4517e"
          ],
          "data": "0x00000000000000000000000000000000000000000000000000000000000000a0000000000000000000000000bb46678a1f6c527bd79ecfbf85332b8ae83ceaf1ffffffffffffffffffffffffffffffffffffffffffffffd76733c7bc7d780000000000000000000000000000000000000000000000000000000000000000000000000000000000000000000000000000000000000000032505262153f6c8000000000000000000000000000000000000000000000000000000000000000000010000000000000000000000000000000000000000000000000000000000000001",
          "blockHash": "0x5da09c35f3e4aa637a43648f7ffe507b01f192fa5c4d04ad78d43ddd98b7ef77",
          "blockNumber": "0x9ed04f",
          "blockTimestamp": "0x69ad4ac8",
          "transactionHash": "0xb4438448501cee2aa4d4e3cbe149d9e5bcd9aaa65dc5af27b5506ca1998b8a28",
          "transactionIndex": "0xa1",
          "logIndex": "0x213",
          "removed": false
        },
        {
          "address": "0xbc2cfdf40ff981c443b0c43b3cc51c195f213072",
          "topics": [
            "0xec096d06a266fd442a7c79de2a657ba8b2713708209152128417045fe3f94adf",
            "0x000000000000000000000000f68d9e0faa751ad61e0ed70852798bf9d9c04bf7",
            "0x000000000000000000000000bb46678a1f6c527bd79ecfbf85332b8ae83ceaf1",
            "0x00000000000000000000000010db2e70118e5fbeda30391ec957e608c9e4517e"
          ],
          "data": "0x00000000000000000000000000000000000000000000002898cc384382880000",
          "blockHash": "0x5da09c35f3e4aa637a43648f7ffe507b01f192fa5c4d04ad78d43ddd98b7ef77",
          "blockNumber": "0x9ed04f",
          "blockTimestamp": "0x69ad4ac8",
          "transactionHash": "0xb4438448501cee2aa4d4e3cbe149d9e5bcd9aaa65dc5af27b5506ca1998b8a28",
          "transactionIndex": "0xa1",
          "logIndex": "0x214",
          "removed": false
        }
      ],
      "logsBloom": "0x00000000800000001001000000000000000000000000000000080000040000840000000010000040000006000000000000800002200000002400000000002000000000000000000000004000040000000000000000080000000020000000024010000000800000000000000000010000000000000000000000000800000000000000000000000001000000000040000000000000000000000000000000000800200000000008400000000080008000000408000040000000010100000000400000000000000000000000001041000001000000008008000010000000000000000000000010200000400880000000000000000008000000000000180000000000",
      "type": "0x2",
      "transactionHash": "0xb4438448501cee2aa4d4e3cbe149d9e5bcd9aaa65dc5af27b5506ca1998b8a28",
      "transactionIndex": "0xa1",
      "blockHash": "0x5da09c35f3e4aa637a43648f7ffe507b01f192fa5c4d04ad78d43ddd98b7ef77",
      "blockNumber": "0x9ed04f",
      "gasUsed": "0x4f01b",
      "effectiveGasPrice": "0x352b9048",
      "from": "0x10db2e70118e5fbeda30391ec957e608c9e4517e",
      "to": "0xbc2cfdf40ff981c443b0c43b3cc51c195f213072",
      "contractAddress": null
    }
  ],
  "libraries": [],
  "pending": [],
  "returns": {},
  "timestamp": 1772964553217,
  "chain": 11155111,
  "commit": "eb687bb"
}