{
  "transactions": [
    {
      "hash": "0xdcfec846cd215f365eb6614bbfac052d39ba7eb0603536feb0396bf2845b7a9e",
      "transactionType": "CALL",
      "contractName": "LiquidationEngine",
      "contractAddress": "0xb72f717365d137f0c689196051f4867171e5aa1c",
      "function": "absorbPositions(bytes32,address)",
      "arguments": [
        "0x000000000000000000000000f68d9e0faa751ad61e0ed70852798bf9d9c04bf7",
        "0xbb46678a1F6C527bD79eCFBF85332B8Ae83ceaf1"
      ],
      "transaction": {
        "from": "0x10db2e70118e5fbeda30391ec957e608c9e4517e",
        "to": "0xb72f717365d137f0c689196051f4867171e5aa1c",
        "gas": "0x6b1d1",
        "value": "0x0",
        "input": "0xfe5638cc000000000000000000000000f68d9e0faa751ad61e0ed70852798bf9d9c04bf7000000000000000000000000bb46678a1f6c527bd79ecfbf85332b8ae83ceaf1",
        "nonce": "0xb",
        "chainId": "0xaa36a7"
      },
      "additionalContracts": [],
      "isFixedGasLimit": false
    }
  ],
  "receipts": [
    {
      "status": "0x1",
      "cumulativeGasUsed": "0xb8c693",
      "logs": [
        {
          "address": "0xfa3e082f6bfc8fd9b73e0b1829e5730f73a2e763",
          "topics": [
            "0xc3d58168c5ae7397731d063d5bbf3d657854427343f4c083240f7aacaa2d0f62",
            "0x000000000000000000000000cf7d004590b7e1bbde71c94aade8f2e4dda9b5c2",
            "0x000000000000000000000000f68d9e0faa751ad61e0ed70852798bf9d9c04bf7",
            "0x00000000000000000000000010db2e70118e5fbeda30391ec957e608c9e4517e"
          ],
          "data": "0x000000000000000000000000000000000000000000000000000000000000000100000000000000000000000000000000000000000000d3c21bcecceda1000000",
          "blockHash": "0xb193fad195584b52eb0dc283d4cde2ead5ecfca58b2192a038eec4732ca567da",
          "blockNumber": "0x9e6f68",
          "blockTimestamp": "0x69a8477c",
          "transactionHash": "0xdcfec846cd215f365eb6614bbfac052d39ba7eb0603536feb0396bf2845b7a9e",
          "transactionIndex": "0x99",
          "logIndex": "0x115",
          "removed": false
        },
        {
          "address": "0x2499536cc92ef7edc9698b4174a2c59de79ef80e",
          "topics": [
            "0x15ca2c58d94a57353778871a512abd76587f09583c3fce118289c2f118794e23",
            "0x00000000000000000000000010db2e70118e5fbeda30391ec957e608c9e4517e"
          ],
          "data": "0x00000000000000000000000000000000000000000000d3c21bcecceda100000000000000000000000000000000000000000000000000d3c21bcecceda1000000",
          "blockHash": "0xb193fad195584b52eb0dc283d4cde2ead5ecfca58b2192a038eec4732ca567da",
          "blockNumber": "0x9e6f68",
          "blockTimestamp": "0x69a8477c",
          "transactionHash": "0xdcfec846cd215f365eb6614bbfac052d39ba7eb0603536feb0396bf2845b7a9e",
          "transactionIndex": "0x99",
          "logIndex": "0x116",
          "removed": false
        },
        {
          "address": "0x47a45c5b6bfbc9711c40b7de3f50ed4ad70bc965",
          "topics": [
            "0x9372321d543f1b03b8b743f369a5417b1a683c8d1359cda23f4047834cddbb50",
            "0x00000000000000000000000010db2e70118e5fbeda30391ec957e608c9e4517e"
          ],
          "data": "0x0000000000000000000000000000000000000000000004315c32d71a9e600000",
          "blockHash": "0xb193fad195584b52eb0dc283d4cde2ead5ecfca58b2192a038eec4732ca567da",
          "blockNumber": "0x9e6f68",
          "blockTimestamp": "0x69a8477c",
          "transactionHash": "0xdcfec846cd215f365eb6614bbfac052d39ba7eb0603536feb0396bf2845b7a9e",
          "transactionIndex": "0x99",
          "logIndex": "0x117",
          "removed": false
        },
        {
          "address": "0x7b2bd93cee13edf5617dbc31663f80ae373c2147",
          "topics": [
            "0x15c759f729890e54ba9fbec58cddba4b65515f5f2c5b01ede4fa2c6841d18de3",
            "0x00000000000000000000000010db2e70118e5fbeda30391ec957e608c9e4517e"
          ],
          "data": "0x000000000000000000000000bb46678a1f6c527bd79ecfbf85332b8ae83ceaf1000000000000000000000000000000000000000000000000000000000000000000000000000000000000000000000000000000000000032505262153f6c80000",
          "blockHash": "0xb193fad195584b52eb0dc283d4cde2ead5ecfca58b2192a038eec4732ca567da",
          "blockNumber": "0x9e6f68",
          "blockTimestamp": "0x69a8477c",
          "transactionHash": "0xdcfec846cd215f365eb6614bbfac052d39ba7eb0603536feb0396bf2845b7a9e",
          "transactionIndex": "0x99",
          "logIndex": "0x118",
          "removed": false
        },
        {
          "address": "0x47a45c5b6bfbc9711c40b7de3f50ed4ad70bc965",
          "topics": [
            "0x6fd1f3949541cd49d779154387024699bcf742e79f24b3e96b2ae0a30cdd6e94",
            "0x000000000000000000000000f68d9e0faa751ad61e0ed70852798bf9d9c04bf7"
          ],
          "data": "0x0000000000000000000000000000000000000000000004315c32d71a9e600000",
          "blockHash": "0xb193fad195584b52eb0dc283d4cde2ead5ecfca58b2192a038eec4732ca567da",
          "blockNumber": "0x9e6f68",
          "blockTimestamp": "0x69a8477c",
          "transactionHash": "0xdcfec846cd215f365eb6614bbfac052d39ba7eb0603536feb0396bf2845b7a9e",
          "transactionIndex": "0x99",
          "logIndex": "0x119",
          "removed": false
        },
        {
          "address": "0x7b2bd93cee13edf5617dbc31663f80ae373c2147",
          "topics": [
            "0x15c759f729890e54ba9fbec58cddba4b65515f5f2c5b01ede4fa2c6841d18de3",
            "0x000000000000000000000000f68d9e0faa751ad61e0ed70852798bf9d9c04bf7"
          ],
          "data": "0x000000000000000000000000bb46678a1f6c527bd79ecfbf85332b8ae83ceaf100000000000000000000000000000000000000000000032505262153f6c800000000000000000000000000000000000000000000000000000000000000000000",
          "blockHash": "0xb193fad195584b52eb0dc283d4cde2ead5ecfca58b2192a038eec4732ca567da",
          "blockNumber": "0x9e6f68",
          "blockTimestamp": "0x69a8477c",
          "transactionHash": "0xdcfec846cd215f365eb6614bbfac052d39ba7eb0603536feb0396bf2845b7a9e",
          "transactionIndex": "0x99",
          "logIndex": "0x11a",
          "removed": false
        },
        {
          "address": "0x2499536cc92ef7edc9698b4174a2c59de79ef80e",
          "topics": [
            "0xd36cc0768065e66afbd8046663fd4d7c6edcc0c1a3ee54fdd4ece612958ba2db",
            "0x000000000000000000000000f68d9e0faa751ad61e0ed70852798bf9d9c04bf7"
          ],
          "data": "0x00000000000000000000000000000000000000000000d3c21bcecceda10000000000000000000000000000000000000000000000000000000000000000000000",
          "blockHash": "0xb193fad195584b52eb0dc283d4cde2ead5ecfca58b2192a038eec4732ca567da",
          "blockNumber": "0x9e6f68",
          "blockTimestamp": "0x69a8477c",
          "transactionHash": "0xdcfec846cd215f365eb6614bbfac052d39ba7eb0603536feb0396bf2845b7a9e",
          "transactionIndex": "0x99",
          "logIndex": "0x11b",
          "removed": false
        },
        {
          "address": "0xcf7d004590b7e1bbde71c94aade8f2e4dda9b5c2",
          "topics": [
            "0x353a12d519b2cefb42c36b7c3bf8c7327bd30927d5a048f61ee03c34c650cdfe",
            "0x000000000000000000000000f68d9e0faa751ad61e0ed70852798bf9d9c04bf7",
            "0x00000000000000000000000010db2e70118e5fbeda30391ec957e608c9e4517e"
          ],
          "data": "0x0000000000000000000000000000000000000000000000000000000000000040000000000000000000000000bb46678a1f6c527bd79ecfbf85332b8ae83ceaf10000000000000000000000000000000000000000000000000000000000000001458366dc48d32c91833b3e2c4a8abf52478a5c70e79947b075edf586ebb41309",
          "blockHash": "0xb193fad195584b52eb0dc283d4cde2ead5ecfca58b2192a038eec4732ca567da",
          "blockNumber": "0x9e6f68",
          "blockTimestamp": "0x69a8477c",
          "transactionHash": "0xdcfec846cd215f365eb6614bbfac052d39ba7eb0603536feb0396bf2845b7a9e",
          "transactionIndex": "0x99",
          "logIndex": "0x11c",
          "removed": false
        },
        {
          "address": "0x47a45c5b6bfbc9711c40b7de3f50ed4ad70bc965",
          "topics": [
            "0x69a12ad77691eeb11d143a8223c5c43b77205173541be5a474e08039e98e65e3",
            "0x000000000000000000000000f68d9e0faa751ad61e0ed70852798bf9d9c04bf7"
          ],
          "data": "0x000000000000000000000000bb46678a1f6c527bd79ecfbf85332b8ae83ceaf1ffffffffffffffffffffffffffffffffffffffffffffffe5b3e2982b82020000",
          "blockHash": "0xb193fad195584b52eb0dc283d4cde2ead5ecfca58b2192a038eec4732ca567da",
          "blockNumber": "0x9e6f68",
          "blockTimestamp": "0x69a8477c",
          "transactionHash": "0xdcfec846cd215f365eb6614bbfac052d39ba7eb0603536feb0396bf2845b7a9e",
          "transactionIndex": "0x99",
          "logIndex": "0x11d",
          "removed": false
        },
        {
          "address": "0x47a45c5b6bfbc9711c40b7de3f50ed4ad70bc965",
          "topics": [
            "0x69a12ad77691eeb11d143a8223c5c43b77205173541be5a474e08039e98e65e3",
            "0x00000000000000000000000010db2e70118e5fbeda30391ec957e608c9e4517e"
          ],
          "data": "0x000000000000000000000000bb46678a1f6c527bd79ecfbf85332b8ae83ceaf100000000000000000000000000000000000000000000001a4c1d67d47dfe0000",
          "blockHash": "0xb193fad195584b52eb0dc283d4cde2ead5ecfca58b2192a038eec4732ca567da",
          "blockNumber": "0x9e6f68",
          "blockTimestamp": "0x69a8477c",
          "transactionHash": "0xdcfec846cd215f365eb6614bbfac052d39ba7eb0603536feb0396bf2845b7a9e",
          "transactionIndex": "0x99",
          "logIndex": "0x11e",
          "removed": false
        },
        {
          "address": "0xb72f717365d137f0c689196051f4867171e5aa1c",
          "topics": [
            "0xec096d06a266fd442a7c79de2a657ba8b2713708209152128417045fe3f94adf",
            "0x000000000000000000000000f68d9e0faa751ad61e0ed70852798bf9d9c04bf7",
            "0x000000000000000000000000bb46678a1f6c527bd79ecfbf85332b8ae83ceaf1",
            "0x00000000000000000000000010db2e70118e5fbeda30391ec957e608c9e4517e"
          ],
          "data": "0x00000000000000000000000000000000000000000000001a4c1d67d47dfe0000",
          "blockHash": "0xb193fad195584b52eb0dc283d4cde2ead5ecfca58b2192a038eec4732ca567da",
          "blockNumber": "0x9e6f68",
          "blockTimestamp": "0x69a8477c",
          "transactionHash": "0xdcfec846cd215f365eb6614bbfac052d39ba7eb0603536feb0396bf2845b7a9e",
          "transactionIndex": "0x99",
          "logIndex": "0x11f",
          "removed": false
        }
      ],
      "logsBloom": "0x00020400100000001000000000000000000200000000000000000000000200800000005000020040000004000000000000800000000000000400000000802000000000000000000000010000000000000000000000080000000020000000000030000000000000000000000000010000000000000000000000000800000000000040000000000001000000000040000000000000000000000000000004000800200000000008000000000000008000008401000040000000012100000000000000000000000000010008001041001001400000002008000000000010000000000000000010000000000880000000000000000000800000000000180000002000",
      "type": "0x2",
      "transactionHash": "0xdcfec846cd215f365eb6614bbfac052d39ba7eb0603536feb0396bf2845b7a9e",
      "transactionIndex": "0x99",
      "blockHash": "0xb193fad195584b52eb0dc283d4cde2ead5ecfca58b2192a038eec4732ca567da",
      "blockNumber": "0x9e6f68",
      "gasUsed": "0x4d8c6",
      "effectiveGasPrice": "0xf424c",
      "from": "0x10db2e70118e5fbeda30391ec957e608c9e4517e",
      "to": "0xb72f717365d137f0c689196051f4867171e5aa1c",
      "contractAddress": null
    }
  ],
  "libraries": [],
  "pending": [],
  "returns": {},
  "timestamp": 1772636029293,
  "chain": 11155111,
  "commit": "7621ae8"
}