{
  "transactions": [
    {
      "hash": "0xa53420e571188ea21920aa0dc54b2ecfb3ac34ae69357f53d90170230879ed4c",
      "transactionType": "CALL",
      "contractName": null,
      "contractAddress": "0x5974b255822062be5154f53ff4c4deb46dd74654",
      "function": "absorbPositions(bytes32,address)",
      "arguments": [
        "0x000000000000000000000000f68d9e0faa751ad61e0ed70852798bf9d9c04bf7",
        "0xbb46678a1F6C527bD79eCFBF85332B8Ae83ceaf1"
      ],
      "transaction": {
        "from": "0x10db2e70118e5fbeda30391ec957e608c9e4517e",
        "to": "0x5974b255822062be5154f53ff4c4deb46dd74654",
        "gas": "0x6d707",
        "value": "0x0",
        "input": "0xfe5638cc000000000000000000000000f68d9e0faa751ad61e0ed70852798bf9d9c04bf7000000000000000000000000bb46678a1f6c527bd79ecfbf85332b8ae83ceaf1",
        "nonce": "0x30",
        "chainId": "0xaa36a7"
      },
      "additionalContracts": [],
      "isFixedGasLimit": false
    }
  ],
  "receipts": [
    {
      "status": "0x1",
      "cumulativeGasUsed": "0x339a674",
      "logs": [
        {
          "address": "0x55d0220cb7234a6daebed09ad8a11d7b17237c09",
          "topics": [
            "0xc3d58168c5ae7397731d063d5bbf3d657854427343f4c083240f7aacaa2d0f62",
            "0x0000000000000000000000004433165a25639c9b54eee780637fe4d64b6159cf",
            "0x000000000000000000000000f68d9e0faa751ad61e0ed70852798bf9d9c04bf7",
            "0x00000000000000000000000010db2e70118e5fbeda30391ec957e608c9e4517e"
          ],
          "data": "0x000000000000000000000000000000000000000000000000000000000000000100000000000000000000000000000000000000000000d3c21bcecceda1000000",
          "blockHash": "0xac260ed9c796299320e16874dfd094ac09a5aca63fde54ef353e9a83cb1ce894",
          "blockNumber": "0x9ea439",
          "blockTimestamp": "0x69aae3b0",
          "transactionHash": "0xa53420e571188ea21920aa0dc54b2ecfb3ac34ae69357f53d90170230879ed4c",
          "transactionIndex": "0xa5",
          "logIndex": "0x206",
          "removed": false
        },
        {
          "address": "0xb5698284eb27d77060828bc4e2b620ba6d9ee6d7",
          "topics": [
            "0x15ca2c58d94a57353778871a512abd76587f09583c3fce118289c2f118794e23",
            "0x00000000000000000000000010db2e70118e5fbeda30391ec957e608c9e4517e"
          ],
          "data": "0x00000000000000000000000000000000000000000000d3c21bcecceda100000000000000000000000000000000000000000000000000d3c21bcecceda1000000",
          "blockHash": "0xac260ed9c796299320e16874dfd094ac09a5aca63fde54ef353e9a83cb1ce894",
          "blockNumber": "0x9ea439",
          "blockTimestamp": "0x69aae3b0",
          "transactionHash": "0xa53420e571188ea21920aa0dc54b2ecfb3ac34ae69357f53d90170230879ed4c",
          "transactionIndex": "0xa5",
          "logIndex": "0x207",
          "removed": false
        },
        {
          "address": "0x5611665b9c65c127f3b063d821229694b06085cd",
          "topics": [
            "0x9372321d543f1b03b8b743f369a5417b1a683c8d1359cda23f4047834cddbb50",
            "0x00000000000000000000000010db2e70118e5fbeda30391ec957e608c9e4517e"
          ],
          "data": "0x0000000000000000000000000000000000000000000004315c32d71a9e600000",
          "blockHash": "0xac260ed9c796299320e16874dfd094ac09a5aca63fde54ef353e9a83cb1ce894",
          "blockNumber": "0x9ea439",
          "blockTimestamp": "0x69aae3b0",
          "transactionHash": "0xa53420e571188ea21920aa0dc54b2ecfb3ac34ae69357f53d90170230879ed4c",
          "transactionIndex": "0xa5",
          "logIndex": "0x208",
          "removed": false
        },
        {
          "address": "0xeb889a4c328d3c38a19d7a9888f00cfb76fd8c28",
          "topics": [
            "0x15c759f729890e54ba9fbec58cddba4b65515f5f2c5b01ede4fa2c6841d18de3",
            "0x00000000000000000000000010db2e70118e5fbeda30391ec957e608c9e4517e"
          ],
          "data": "0x000000000000000000000000bb46678a1f6c527bd79ecfbf85332b8ae83ceaf1000000000000000000000000000000000000000000000000000000000000000000000000000000000000000000000000000000000000032505262153f6c80000",
          "blockHash": "0xac260ed9c796299320e16874dfd094ac09a5aca63fde54ef353e9a83cb1ce894",
          "blockNumber": "0x9ea439",
          "blockTimestamp": "0x69aae3b0",
          "transactionHash": "0xa53420e571188ea21920aa0dc54b2ecfb3ac34ae69357f53d90170230879ed4c",
          "transactionIndex": "0xa5",
          "logIndex": "0x209",
          "removed": false
        },
        {
          "address": "0x5611665b9c65c127f3b063d821229694b06085cd",
          "topics": [
            "0x6fd1f3949541cd49d779154387024699bcf742e79f24b3e96b2ae0a30cdd6e94",
            "0x000000000000000000000000f68d9e0faa751ad61e0ed70852798bf9d9c04bf7"
          ],
          "data": "0x0000000000000000000000000000000000000000000004315c32d71a9e600000",
          "blockHash": "0xac260ed9c796299320e16874dfd094ac09a5aca63fde54ef353e9a83cb1ce894",
          "blockNumber": "0x9ea439",
          "blockTimestamp": "0x69aae3b0",
          "transactionHash": "0xa53420e571188ea21920aa0dc54b2ecfb3ac34ae69357f53d90170230879ed4c",
          "transactionIndex": "0xa5",
          "logIndex": "0x20a",
          "removed": false
        },
        {
          "address": "0xeb889a4c328d3c38a19d7a9888f00cfb76fd8c28",
          "topics": [
            "0x15c759f729890e54ba9fbec58cddba4b65515f5f2c5b01ede4fa2c6841d18de3",
            "0x000000000000000000000000f68d9e0faa751ad61e0ed70852798bf9d9c04bf7"
          ],
          "data": "0x000000000000000000000000bb46678a1f6c527bd79ecfbf85332b8ae83ceaf100000000000000000000000000000000000000000000032505262153f6c800000000000000000000000000000000000000000000000000000000000000000000",
          "blockHash": "0xac260ed9c796299320e16874dfd094ac09a5aca63fde54ef353e9a83cb1ce894",
          "blockNumber": "0x9ea439",
          "blockTimestamp": "0x69aae3b0",
          "transactionHash": "0xa53420e571188ea21920aa0dc54b2ecfb3ac34ae69357f53d90170230879ed4c",
          "transactionIndex": "0xa5",
          "logIndex": "0x20b",
          "removed": false
        },
        {
          "address": "0xb5698284eb27d77060828bc4e2b620ba6d9ee6d7",
          "topics": [
            "0xd36cc0768065e66afbd8046663fd4d7c6edcc0c1a3ee54fdd4ece612958ba2db",
            "0x000000000000000000000000f68d9e0faa751ad61e0ed70852798bf9d9c04bf7"
          ],
          "data": "0x00000000000000000000000000000000000000000000d3c21bcecceda10000000000000000000000000000000000000000000000000000000000000000000000",
          "blockHash": "0xac260ed9c796299320e16874dfd094ac09a5aca63fde54ef353e9a83cb1ce894",
          "blockNumber": "0x9ea439",
          "blockTimestamp": "0x69aae3b0",
          "transactionHash": "0xa53420e571188ea21920aa0dc54b2ecfb3ac34ae69357f53d90170230879ed4c",
          "transactionIndex": "0xa5",
          "logIndex": "0x20c",
          "removed": false
        },
        {
          "address": "0x5611665b9c65c127f3b063d821229694b06085cd",
          "topics": [
            "0x69a12ad77691eeb11d143a8223c5c43b77205173541be5a474e08039e98e65e3",
            "0x000000000000000000000000f68d9e0faa751ad61e0ed70852798bf9d9c04bf7"
          ],
          "data": "0x000000000000000000000000bb46678a1f6c527bd79ecfbf85332b8ae83ceaf1fffffffffffffffffffffffffffffffffffffffffffffdb9c88f16f570b00000",
          "blockHash": "0xac260ed9c796299320e16874dfd094ac09a5aca63fde54ef353e9a83cb1ce894",
          "blockNumber": "0x9ea439",
          "blockTimestamp": "0x69aae3b0",
          "transactionHash": "0xa53420e571188ea21920aa0dc54b2ecfb3ac34ae69357f53d90170230879ed4c",
          "transactionIndex": "0xa5",
          "logIndex": "0x20d",
          "removed": false
        },
        {
          "address": "0x5611665b9c65c127f3b063d821229694b06085cd",
          "topics": [
            "0x69a12ad77691eeb11d143a8223c5c43b77205173541be5a474e08039e98e65e3",
            "0x00000000000000000000000010db2e70118e5fbeda30391ec957e608c9e4517e"
          ],
          "data": "0x000000000000000000000000bb46678a1f6c527bd79ecfbf85332b8ae83ceaf10000000000000000000000000000000000000000000002463770e90a8f500000",
          "blockHash": "0xac260ed9c796299320e16874dfd094ac09a5aca63fde54ef353e9a83cb1ce894",
          "blockNumber": "0x9ea439",
          "blockTimestamp": "0x69aae3b0",
          "transactionHash": "0xa53420e571188ea21920aa0dc54b2ecfb3ac34ae69357f53d90170230879ed4c",
          "transactionIndex": "0xa5",
          "logIndex": "0x20e",
          "removed": false
        },
        {
          "address": "0x4433165a25639c9b54eee780637fe4d64b6159cf",
          "topics": [
            "0x1bbe9757c483c47113897d2e51838cc8568cb5983b011b3c981fd05ab57a060a",
            "0x000000000000000000000000f68d9e0faa751ad61e0ed70852798bf9d9c04bf7",
            "0x00000000000000000000000010db2e70118e5fbeda30391ec957e608c9e4517e"
          ],
          "data": "0x00000000000000000000000000000000000000000000000000000000000000a0000000000000000000000000bb46678a1f6c527bd79ecfbf85332b8ae83ceaf1fffffffffffffffffffffffffffffffffffffffffffffdb9c88f16f570b00000000000000000000000000000000000000000000000000000000000000000000000000000000000000000000000000000000000000000032505262153f6c8000000000000000000000000000000000000000000000000000000000000000000010000000000000000000000000000000000000000000000000000000000000001",
          "blockHash": "0xac260ed9c796299320e16874dfd094ac09a5aca63fde54ef353e9a83cb1ce894",
          "blockNumber": "0x9ea439",
          "blockTimestamp": "0x69aae3b0",
          "transactionHash": "0xa53420e571188ea21920aa0dc54b2ecfb3ac34ae69357f53d90170230879ed4c",
          "transactionIndex": "0xa5",
          "logIndex": "0x20f",
          "removed": false
        },
        {
          "address": "0x5974b255822062be5154f53ff4c4deb46dd74654",
          "topics": [
            "0xec096d06a266fd442a7c79de2a657ba8b2713708209152128417045fe3f94adf",
            "0x000000000000000000000000f68d9e0faa751ad61e0ed70852798bf9d9c04bf7",
            "0x000000000000000000000000bb46678a1f6c527bd79ecfbf85332b8ae83ceaf1",
            "0x00000000000000000000000010db2e70118e5fbeda30391ec957e608c9e4517e"
          ],
          "data": "0x0000000000000000000000000000000000000000000000281d901f4fdd100000",
          "blockHash": "0xac260ed9c796299320e16874dfd094ac09a5aca63fde54ef353e9a83cb1ce894",
          "blockNumber": "0x9ea439",
          "blockTimestamp": "0x69aae3b0",
          "transactionHash": "0xa53420e571188ea21920aa0dc54b2ecfb3ac34ae69357f53d90170230879ed4c",
          "transactionIndex": "0xa5",
          "logIndex": "0x210",
          "removed": false
        }
      ],
      "logsBloom": "0x00000004000000001000000800000000000000000000000000000001000000800000000000008060000004000000000000800000000000000400000000002000000000000000000000004100000000000000000000080000000020000000000010c00000000000000000000000010000000080040000000000000800000000000020000010000001000000000040000000000000000000000000000000000800200200000008000000100000008200000400000048000000010100000000000000000000020000000000001041000001040000008008100000000000000000000000000010000000400880800000000000001000000000000000180000000000",
      "type": "0x2",
      "transactionHash": "0xa53420e571188ea21920aa0dc54b2ecfb3ac34ae69357f53d90170230879ed4c",
      "transactionIndex": "0xa5",
      "blockHash": "0xac260ed9c796299320e16874dfd094ac09a5aca63fde54ef353e9a83cb1ce894",
      "blockNumber": "0x9ea439",
      "gasUsed": "0x4f3b7",
      "effectiveGasPrice": "0x265f42c",
      "from": "0x10db2e70118e5fbeda30391ec957e608c9e4517e",
      "to": "0x5974b255822062be5154f53ff4c4deb46dd74654",
      "contractAddress": null
    }
  ],
  "libraries": [],
  "pending": [],
  "returns": {},
  "timestamp": 1772807089568,
  "chain": 11155111,
  "commit": "abef103"
}