{
  "transactions": [
    {
      "hash": "0x86347ddbb08bb328718e7cb0ad384ac5dea6bdc3bcf6f5d5bcbc411e98a8c0fc",
      "transactionType": "CALL",
      "contractName": null,
      "contractAddress": "0x331c489dc8e050acc595e673f57c35431875560d",
      "function": "absorbPositions(bytes32,address)",
      "arguments": [
        "0x000000000000000000000000f68d9e0faa751ad61e0ed70852798bf9d9c04bf7",
        "0xbb46678a1F6C527bD79eCFBF85332B8Ae83ceaf1"
      ],
      "transaction": {
        "from": "0x10db2e70118e5fbeda30391ec957e608c9e4517e",
        "to": "0x331c489dc8e050acc595e673f57c35431875560d",
        "gas": "0x73d8b",
        "value": "0x0",
        "input": "0xfe5638cc000000000000000000000000f68d9e0faa751ad61e0ed70852798bf9d9c04bf7000000000000000000000000bb46678a1f6c527bd79ecfbf85332b8ae83ceaf1",
        "nonce": "0x2a",
        "chainId": "0xaa36a7"
      },
      "additionalContracts": [],
      "isFixedGasLimit": false
    }
  ],
  "receipts": [
    {
      "status": "0x1",
      "cumulativeGasUsed": "0x7b3af5",
      "logs": [
        {
          "address": "0x57372551e42dbbf4a1b4e6cb6ce944cf9c9e318a",
          "topics": [
            "0xc3d58168c5ae7397731d063d5bbf3d657854427343f4c083240f7aacaa2d0f62",
            "0x000000000000000000000000a2043643ed919e2f65f06e4757aaf27b311ae468",
            "0x000000000000000000000000f68d9e0faa751ad61e0ed70852798bf9d9c04bf7",
            "0x00000000000000000000000010db2e70118e5fbeda30391ec957e608c9e4517e"
          ],
          "data": "0x000000000000000000000000000000000000000000000000000000000000000300000000000000000000000000000000000000000000d3c21bcecceda1000000",
          "blockHash": "0x8baaf45e29eaf3f62f8559bee3bd1c4f11fa9f4cd6eddc76702e353a1a68731f",
          "blockNumber": "0x9ea189",
          "blockTimestamp": "0x69aabecc",
          "transactionHash": "0x86347ddbb08bb328718e7cb0ad384ac5dea6bdc3bcf6f5d5bcbc411e98a8c0fc",
          "transactionIndex": "0x4f",
          "logIndex": "0x84",
          "removed": false
        },
        {
          "address": "0x5fce73626b9dd40897c63142c2d815796081ad03",
          "topics": [
            "0x15ca2c58d94a57353778871a512abd76587f09583c3fce118289c2f118794e23",
            "0x00000000000000000000000010db2e70118e5fbeda30391ec957e608c9e4517e"
          ],
          "data": "0x00000000000000000000000000000000000000000000d3c21bcecceda100000000000000000000000000000000000000000000000000d3c21bcecceda1000000",
          "blockHash": "0x8baaf45e29eaf3f62f8559bee3bd1c4f11fa9f4cd6eddc76702e353a1a68731f",
          "blockNumber": "0x9ea189",
          "blockTimestamp": "0x69aabecc",
          "transactionHash": "0x86347ddbb08bb328718e7cb0ad384ac5dea6bdc3bcf6f5d5bcbc411e98a8c0fc",
          "transactionIndex": "0x4f",
          "logIndex": "0x85",
          "removed": false
        },
        {
          "address": "0xcb275374df701324033958067d3bf1aacc7551bd",
          "topics": [
            "0x9372321d543f1b03b8b743f369a5417b1a683c8d1359cda23f4047834cddbb50",
            "0x00000000000000000000000010db2e70118e5fbeda30391ec957e608c9e4517e"
          ],
          "data": "0x0000000000000000000000000000000000000000000004315c32d71a9e600000",
          "blockHash": "0x8baaf45e29eaf3f62f8559bee3bd1c4f11fa9f4cd6eddc76702e353a1a68731f",
          "blockNumber": "0x9ea189",
          "blockTimestamp": "0x69aabecc",
          "transactionHash": "0x86347ddbb08bb328718e7cb0ad384ac5dea6bdc3bcf6f5d5bcbc411e98a8c0fc",
          "transactionIndex": "0x4f",
          "logIndex": "0x86",
          "removed": false
        },
        {
          "address": "0xe716c704cee5b0f5952f47111fcec57964fd554c",
          "topics": [
            "0x15c759f729890e54ba9fbec58cddba4b65515f5f2c5b01ede4fa2c6841d18de3",
            "0x00000000000000000000000010db2e70118e5fbeda30391ec957e608c9e4517e"
          ],
          "data": "0x000000000000000000000000bb46678a1f6c527bd79ecfbf85332b8ae83ceaf1000000000000000000000000000000000000000000000000000000000000000000000000000000000000000000000000000000000000032505262153f6c80000",
          "blockHash": "0x8baaf45e29eaf3f62f8559bee3bd1c4f11fa9f4cd6eddc76702e353a1a68731f",
          "blockNumber": "0x9ea189",
          "blockTimestamp": "0x69aabecc",
          "transactionHash": "0x86347ddbb08bb328718e7cb0ad384ac5dea6bdc3bcf6f5d5bcbc411e98a8c0fc",
          "transactionIndex": "0x4f",
          "logIndex": "0x87",
          "removed": false
        },
        {
          "address": "0xcb275374df701324033958067d3bf1aacc7551bd",
          "topics": [
            "0x6fd1f3949541cd49d779154387024699bcf742e79f24b3e96b2ae0a30cdd6e94",
            "0x000000000000000000000000f68d9e0faa751ad61e0ed70852798bf9d9c04bf7"
          ],
          "data": "0x0000000000000000000000000000000000000000000004315c32d71a9e600000",
          "blockHash": "0x8baaf45e29eaf3f62f8559bee3bd1c4f11fa9f4cd6eddc76702e353a1a68731f",
          "blockNumber": "0x9ea189",
          "blockTimestamp": "0x69aabecc",
          "transactionHash": "0x86347ddbb08bb328718e7cb0ad384ac5dea6bdc3bcf6f5d5bcbc411e98a8c0fc",
          "transactionIndex": "0x4f",
          "logIndex": "0x88",
          "removed": false
        },
        {
          "address": "0xe716c704cee5b0f5952f47111fcec57964fd554c",
          "topics": [
            "0x15c759f729890e54ba9fbec58cddba4b65515f5f2c5b01ede4fa2c6841d18de3",
            "0x000000000000000000000000f68d9e0faa751ad61e0ed70852798bf9d9c04bf7"
          ],
          "data": "0x000000000000000000000000bb46678a1f6c527bd79ecfbf85332b8ae83ceaf100000000000000000000000000000000000000000000032505262153f6c800000000000000000000000000000000000000000000000000000000000000000000",
          "blockHash": "0x8baaf45e29eaf3f62f8559bee3bd1c4f11fa9f4cd6eddc76702e353a1a68731f",
          "blockNumber": "0x9ea189",
          "blockTimestamp": "0x69aabecc",
          "transactionHash": "0x86347ddbb08bb328718e7cb0ad384ac5dea6bdc3bcf6f5d5bcbc411e98a8c0fc",
          "transactionIndex": "0x4f",
          "logIndex": "0x89",
          "removed": false
        },
        {
          "address": "0x5fce73626b9dd40897c63142c2d815796081ad03",
          "topics": [
            "0xd36cc0768065e66afbd8046663fd4d7c6edcc0c1a3ee54fdd4ece612958ba2db",
            "0x000000000000000000000000f68d9e0faa751ad61e0ed70852798bf9d9c04bf7"
          ],
          "data": "0x00000000000000000000000000000000000000000000d3c21bcecceda10000000000000000000000000000000000000000000000000000000000000000000000",
          "blockHash": "0x8baaf45e29eaf3f62f8559bee3bd1c4f11fa9f4cd6eddc76702e353a1a68731f",
          "blockNumber": "0x9ea189",
          "blockTimestamp": "0x69aabecc",
          "transactionHash": "0x86347ddbb08bb328718e7cb0ad384ac5dea6bdc3bcf6f5d5bcbc411e98a8c0fc",
          "transactionIndex": "0x4f",
          "logIndex": "0x8a",
          "removed": false
        },
        {
          "address": "0xcb275374df701324033958067d3bf1aacc7551bd",
          "topics": [
            "0x69a12ad77691eeb11d143a8223c5c43b77205173541be5a474e08039e98e65e3",
            "0x000000000000000000000000f68d9e0faa751ad61e0ed70852798bf9d9c04bf7"
          ],
          "data": "0x000000000000000000000000bb46678a1f6c527bd79ecfbf85332b8ae83ceaf1fffffffffffffffffffffffffffffffffffffffffffffdb9c88f16f570b00000",
          "blockHash": "0x8baaf45e29eaf3f62f8559bee3bd1c4f11fa9f4cd6eddc76702e353a1a68731f",
          "blockNumber": "0x9ea189",
          "blockTimestamp": "0x69aabecc",
          "transactionHash": "0x86347ddbb08bb328718e7cb0ad384ac5dea6bdc3bcf6f5d5bcbc411e98a8c0fc",
          "transactionIndex": "0x4f",
          "logIndex": "0x8b",
          "removed": false
        },
        {
          "address": "0xcb275374df701324033958067d3bf1aacc7551bd",
          "topics": [
            "0x69a12ad77691eeb11d143a8223c5c43b77205173541be5a474e08039e98e65e3",
            "0x00000000000000000000000010db2e70118e5fbeda30391ec957e608c9e4517e"
          ],
          "data": "0x000000000000000000000000bb46678a1f6c527bd79ecfbf85332b8ae83ceaf10000000000000000000000000000000000000000000002463770e90a8f500000",
          "blockHash": "0x8baaf45e29eaf3f62f8559bee3bd1c4f11fa9f4cd6eddc76702e353a1a68731f",
          "blockNumber": "0x9ea189",
          "blockTimestamp": "0x69aabecc",
          "transactionHash": "0x86347ddbb08bb328718e7cb0ad384ac5dea6bdc3bcf6f5d5bcbc411e98a8c0fc",
          "transactionIndex": "0x4f",
          "logIndex": "0x8c",
          "removed": false
        },
        {
          "address": "0xa2043643ed919e2f65f06e4757aaf27b311ae468",
          "topics": [
            "0x1bbe9757c483c47113897d2e51838cc8568cb5983b011b3c981fd05ab57a060a",
            "0x000000000000000000000000f68d9e0faa751ad61e0ed70852798bf9d9c04bf7",
            "0x00000000000000000000000010db2e70118e5fbeda30391ec957e608c9e4517e"
          ],
          "data": "0x00000000000000000000000000000000000000000000000000000000000000a0000000000000000000000000bb46678a1f6c527bd79ecfbf85332b8ae83ceaf1fffffffffffffffffffffffffffffffffffffffffffffdb9c88f16f570b00000000000000000000000000000000000000000000000000000000000000000000000000000000000000000000000000000000000000000032505262153f6c8000000000000000000000000000000000000000000000000000000000000000000010000000000000000000000000000000000000000000000000000000000000003",
          "blockHash": "0x8baaf45e29eaf3f62f8559bee3bd1c4f11fa9f4cd6eddc76702e353a1a68731f",
          "blockNumber": "0x9ea189",
          "blockTimestamp": "0x69aabecc",
          "transactionHash": "0x86347ddbb08bb328718e7cb0ad384ac5dea6bdc3bcf6f5d5bcbc411e98a8c0fc",
          "transactionIndex": "0x4f",
          "logIndex": "0x8d",
          "removed": false
        },
        {
          "address": "0x331c489dc8e050acc595e673f57c35431875560d",
          "topics": [
            "0xec096d06a266fd442a7c79de2a657ba8b2713708209152128417045fe3f94adf",
            "0x000000000000000000000000f68d9e0faa751ad61e0ed70852798bf9d9c04bf7",
            "0x000000000000000000000000bb46678a1f6c527bd79ecfbf85332b8ae83ceaf1",
            "0x00000000000000000000000010db2e70118e5fbeda30391ec957e608c9e4517e"
          ],
          "data": "0x0000000000000000000000000000000000000000000000281d901f4fdd100000",
          "blockHash": "0x8baaf45e29eaf3f62f8559bee3bd1c4f11fa9f4cd6eddc76702e353a1a68731f",
          "blockNumber": "0x9ea189",
          "blockTimestamp": "0x69aabecc",
          "transactionHash": "0x86347ddbb08bb328718e7cb0ad384ac5dea6bdc3bcf6f5d5bcbc411e98a8c0fc",
          "transactionIndex": "0x4f",
          "logIndex": "0x8e",
          "removed": false
        }
      ],
      "logsBloom": "0x0000000a000000001108000000000000200000000000000000000040000000800000000000020040000004000000000000800000000000000400800000002000000000000040000000004000000000020000000000080000000020000000000010000800000000000080000000010008000000000000000000000800000000000000000000000001000004000040000000000000002000000000000000000800200010000008000000000000808000000400000040080000010100000400000000000000000000000000001041000001000000008008000000000000000000000000000010000000400880000000000000000004000000000000180800000000",
      "type": "0x2",
      "transactionHash": "0x86347ddbb08bb328718e7cb0ad384ac5dea6bdc3bcf6f5d5bcbc411e98a8c0fc",
      "transactionIndex": "0x4f",
      "blockHash": "0x8baaf45e29eaf3f62f8559bee3bd1c4f11fa9f4cd6eddc76702e353a1a68731f",
      "blockNumber": "0x9ea189",
      "gasUsed": "0x4f362",
      "effectiveGasPrice": "0xdb33b7",
      "from": "0x10db2e70118e5fbeda30391ec957e608c9e4517e",
      "to": "0x331c489dc8e050acc595e673f57c35431875560d",
      "contractAddress": null
    }
  ],
  "libraries": [],
  "pending": [],
  "returns": {},
  "timestamp": 1772797645041,
  "chain": 11155111,
  "commit": "bea2e8d"
}