{
  "transactions": [
    {
      "hash": "0x26c2eea393e2e05cac6c7eaa0d1a1de49bc3d1f33f522ef3727defb69960d0d2",
      "transactionType": "CALL",
      "contractName": null,
      "contractAddress": "0xf9856fa8aa31f70e6f67168f401ec5229f3badf6",
      "function": "absorbPositions(bytes32,address)",
      "arguments": [
        "0x000000000000000000000000f68d9e0faa751ad61e0ed70852798bf9d9c04bf7",
        "0xbb46678a1F6C527bD79eCFBF85332B8Ae83ceaf1"
      ],
      "transaction": {
        "from": "0x10db2e70118e5fbeda30391ec957e608c9e4517e",
        "to": "0xf9856fa8aa31f70e6f67168f401ec5229f3badf6",
        "gas": "0x6fef6",
        "value": "0x0",
        "input": "0xfe5638cc000000000000000000000000f68d9e0faa751ad61e0ed70852798bf9d9c04bf7000000000000000000000000bb46678a1f6c527bd79ecfbf85332b8ae83ceaf1",
        "nonce": "0x16",
        "chainId": "0xaa36a7"
      },
      "additionalContracts": [],
      "isFixedGasLimit": false
    }
  ],
  "receipts": [
    {
      "status": "0x1",
      "cumulativeGasUsed": "0x1653406",
      "logs": [
        {
          "address": "0xc981f6fbe172754979040d581e5848a5b952f980",
          "topics": [
            "0xc3d58168c5ae7397731d063d5bbf3d657854427343f4c083240f7aacaa2d0f62",
            "0x0000000000000000000000007b79b3d1481398287fe5b5da508bd89cc6e47125",
            "0x000000000000000000000000f68d9e0faa751ad61e0ed70852798bf9d9c04bf7",
            "0x00000000000000000000000010db2e70118e5fbeda30391ec957e608c9e4517e"
          ],
          "data": "0x000000000000000000000000000000000000000000000000000000000000000100000000000000000000000000000000000000000000d3c21bcecceda1000000",
          "blockHash": "0xf92cda4d08bdcb7b82d4ac631bd3fdad1360e63f44ea12fa19a9171c1215a18f",
          "blockNumber": "0x9e9bbb",
          "blockTimestamp": "0x69aa7348",
          "transactionHash": "0x26c2eea393e2e05cac6c7eaa0d1a1de49bc3d1f33f522ef3727defb69960d0d2",
          "transactionIndex": "0xa1",
          "logIndex": "0x19e",
          "removed": false
        },
        {
          "address": "0xab3920ba40959c6aaaa978810b01fd0418582bf7",
          "topics": [
            "0x15ca2c58d94a57353778871a512abd76587f09583c3fce118289c2f118794e23",
            "0x00000000000000000000000010db2e70118e5fbeda30391ec957e608c9e4517e"
          ],
          "data": "0x00000000000000000000000000000000000000000000d3c21bcecceda100000000000000000000000000000000000000000000000000d3c21bcecceda1000000",
          "blockHash": "0xf92cda4d08bdcb7b82d4ac631bd3fdad1360e63f44ea12fa19a9171c1215a18f",
          "blockNumber": "0x9e9bbb",
          "blockTimestamp": "0x69aa7348",
          "transactionHash": "0x26c2eea393e2e05cac6c7eaa0d1a1de49bc3d1f33f522ef3727defb69960d0d2",
          "transactionIndex": "0xa1",
          "logIndex": "0x19f",
          "removed": false
        },
        {
          "address": "0x16b4e23f3287eec6966e11446019af79877ed4ef",
          "topics": [
            "0x9372321d543f1b03b8b743f369a5417b1a683c8d1359cda23f4047834cddbb50",
            "0x00000000000000000000000010db2e70118e5fbeda30391ec957e608c9e4517e"
          ],
          "data": "0x0000000000000000000000000000000000000000000004315c32d71a9e600000",
          "blockHash": "0xf92cda4d08bdcb7b82d4ac631bd3fdad1360e63f44ea12fa19a9171c1215a18f",
          "blockNumber": "0x9e9bbb",
          "blockTimestamp": "0x69aa7348",
          "transactionHash": "0x26c2eea393e2e05cac6c7eaa0d1a1de49bc3d1f33f522ef3727defb69960d0d2",
          "transactionIndex": "0xa1",
          "logIndex": "0x1a0",
          "removed": false
        },
        {
          "address": "0xd904334408f6a15a57facb006900b94141fca66f",
          "topics": [
            "0x15c759f729890e54ba9fbec58cddba4b65515f5f2c5b01ede4fa2c6841d18de3",
            "0x00000000000000000000000010db2e70118e5fbeda30391ec957e608c9e4517e"
          ],
          "data": "0x000000000000000000000000bb46678a1f6c527bd79ecfbf85332b8ae83ceaf1000000000000000000000000000000000000000000000000000000000000000000000000000000000000000000000000000000000000032505262153f6c80000",
          "blockHash": "0xf92cda4d08bdcb7b82d4ac631bd3fdad1360e63f44ea12fa19a9171c1215a18f",
          "blockNumber": "0x9e9bbb",
          "blockTimestamp": "0x69aa7348",
          "transactionHash": "0x26c2eea393e2e05cac6c7eaa0d1a1de49bc3d1f33f522ef3727defb69960d0d2",
          "transactionIndex": "0xa1",
          "logIndex": "0x1a1",
          "removed": false
        },
        {
          "address": "0x16b4e23f3287eec6966e11446019af79877ed4ef",
          "topics": [
            "0x6fd1f3949541cd49d779154387024699bcf742e79f24b3e96b2ae0a30cdd6e94",
            "0x000000000000000000000000f68d9e0faa751ad61e0ed70852798bf9d9c04bf7"
          ],
          "data": "0x0000000000000000000000000000000000000000000004315c32d71a9e600000",
          "blockHash": "0xf92cda4d08bdcb7b82d4ac631bd3fdad1360e63f44ea12fa19a9171c1215a18f",
          "blockNumber": "0x9e9bbb",
          "blockTimestamp": "0x69aa7348",
          "transactionHash": "0x26c2eea393e2e05cac6c7eaa0d1a1de49bc3d1f33f522ef3727defb69960d0d2",
          "transactionIndex": "0xa1",
          "logIndex": "0x1a2",
          "removed": false
        },
        {
          "address": "0xd904334408f6a15a57facb006900b94141fca66f",
          "topics": [
            "0x15c759f729890e54ba9fbec58cddba4b65515f5f2c5b01ede4fa2c6841d18de3",
            "0x000000000000000000000000f68d9e0faa751ad61e0ed70852798bf9d9c04bf7"
          ],
          "data": "0x000000000000000000000000bb46678a1f6c527bd79ecfbf85332b8ae83ceaf100000000000000000000000000000000000000000000032505262153f6c800000000000000000000000000000000000000000000000000000000000000000000",
          "blockHash": "0xf92cda4d08bdcb7b82d4ac631bd3fdad1360e63f44ea12fa19a9171c1215a18f",
          "blockNumber": "0x9e9bbb",
          "blockTimestamp": "0x69aa7348",
          "transactionHash": "0x26c2eea393e2e05cac6c7eaa0d1a1de49bc3d1f33f522ef3727defb69960d0d2",
          "transactionIndex": "0xa1",
          "logIndex": "0x1a3",
          "removed": false
        },
        {
          "address": "0xab3920ba40959c6aaaa978810b01fd0418582bf7",
          "topics": [
            "0xd36cc0768065e66afbd8046663fd4d7c6edcc0c1a3ee54fdd4ece612958ba2db",
            "0x000000000000000000000000f68d9e0faa751ad61e0ed70852798bf9d9c04bf7"
          ],
          "data": "0x00000000000000000000000000000000000000000000d3c21bcecceda10000000000000000000000000000000000000000000000000000000000000000000000",
          "blockHash": "0xf92cda4d08bdcb7b82d4ac631bd3fdad1360e63f44ea12fa19a9171c1215a18f",
          "blockNumber": "0x9e9bbb",
          "blockTimestamp": "0x69aa7348",
          "transactionHash": "0x26c2eea393e2e05cac6c7eaa0d1a1de49bc3d1f33f522ef3727defb69960d0d2",
          "transactionIndex": "0xa1",
          "logIndex": "0x1a4",
          "removed": false
        },
        {
          "address": "0x16b4e23f3287eec6966e11446019af79877ed4ef",
          "topics": [
            "0x69a12ad77691eeb11d143a8223c5c43b77205173541be5a474e08039e98e65e3",
            "0x000000000000000000000000f68d9e0faa751ad61e0ed70852798bf9d9c04bf7"
          ],
          "data": "0x000000000000000000000000bb46678a1f6c527bd79ecfbf85332b8ae83ceaf1fffffffffffffffffffffffffffffffffffffffffffffec8d57f7bd2c9d00000",
          "blockHash": "0xf92cda4d08bdcb7b82d4ac631bd3fdad1360e63f44ea12fa19a9171c1215a18f",
          "blockNumber": "0x9e9bbb",
          "blockTimestamp": "0x69aa7348",
          "transactionHash": "0x26c2eea393e2e05cac6c7eaa0d1a1de49bc3d1f33f522ef3727defb69960d0d2",
          "transactionIndex": "0xa1",
          "logIndex": "0x1a5",
          "removed": false
        },
        {
          "address": "0x16b4e23f3287eec6966e11446019af79877ed4ef",
          "topics": [
            "0x69a12ad77691eeb11d143a8223c5c43b77205173541be5a474e08039e98e65e3",
            "0x00000000000000000000000010db2e70118e5fbeda30391ec957e608c9e4517e"
          ],
          "data": "0x000000000000000000000000bb46678a1f6c527bd79ecfbf85332b8ae83ceaf10000000000000000000000000000000000000000000001372a80842d36300000",
          "blockHash": "0xf92cda4d08bdcb7b82d4ac631bd3fdad1360e63f44ea12fa19a9171c1215a18f",
          "blockNumber": "0x9e9bbb",
          "blockTimestamp": "0x69aa7348",
          "transactionHash": "0x26c2eea393e2e05cac6c7eaa0d1a1de49bc3d1f33f522ef3727defb69960d0d2",
          "transactionIndex": "0xa1",
          "logIndex": "0x1a6",
          "removed": false
        },
        {
          "address": "0x7b79b3d1481398287fe5b5da508bd89cc6e47125",
          "topics": [
            "0x81cb212e5f0b00ba016b1c34cc86e1d5cd0b414957ee59e446d10dd9dadaeeaa",
            "0x000000000000000000000000f68d9e0faa751ad61e0ed70852798bf9d9c04bf7",
            "0x00000000000000000000000010db2e70118e5fbeda30391ec957e608c9e4517e"
          ],
          "data": "0x0000000000000000000000000000000000000000000000000000000000000060000000000000000000000000bb46678a1f6c527bd79ecfbf85332b8ae83ceaf1fffffffffffffffffffffffffffffffffffffffffffffec8d57f7bd2c9d0000000000000000000000000000000000000000000000000000000000000000000010000000000000000000000000000000000000000000000000000000000000001",
          "blockHash": "0xf92cda4d08bdcb7b82d4ac631bd3fdad1360e63f44ea12fa19a9171c1215a18f",
          "blockNumber": "0x9e9bbb",
          "blockTimestamp": "0x69aa7348",
          "transactionHash": "0x26c2eea393e2e05cac6c7eaa0d1a1de49bc3d1f33f522ef3727defb69960d0d2",
          "transactionIndex": "0xa1",
          "logIndex": "0x1a7",
          "removed": false
        },
        {
          "address": "0xf9856fa8aa31f70e6f67168f401ec5229f3badf6",
          "topics": [
            "0xec096d06a266fd442a7c79de2a657ba8b2713708209152128417045fe3f94adf",
            "0x000000000000000000000000f68d9e0faa751ad61e0ed70852798bf9d9c04bf7",
            "0x000000000000000000000000bb46678a1f6c527bd79ecfbf85332b8ae83ceaf1",
            "0x00000000000000000000000010db2e70118e5fbeda30391ec957e608c9e4517e"
          ],
          "data": "0x0000000000000000000000000000000000000000000000281d901f4fdd100000",
          "blockHash": "0xf92cda4d08bdcb7b82d4ac631bd3fdad1360e63f44ea12fa19a9171c1215a18f",
          "blockNumber": "0x9e9bbb",
          "blockTimestamp": "0x69aa7348",
          "transactionHash": "0x26c2eea393e2e05cac6c7eaa0d1a1de49bc3d1f33f522ef3727defb69960d0d2",
          "transactionIndex": "0xa1",
          "logIndex": "0x1a8",
          "removed": false
        }
      ],
      "logsBloom": "0x00000000010000001000000000000000000000000000040000000000000000800000000000000040000004000000000000800800000000000400410000002000000000000000000008000000000000000800000000080000000820001100000010000000000000084000000000010000000400000000000000000800000800000000000000000001000000000040000000000000000000000000000000000800200000000028000000000002008000000500000040000000010100000200000000000000000000000000101141000001000000000008000000000000000000000000000010000000000880000000000000000000000000400000180000080000",
      "type": "0x2",
      "transactionHash": "0x26c2eea393e2e05cac6c7eaa0d1a1de49bc3d1f33f522ef3727defb69960d0d2",
      "transactionIndex": "0xa1",
      "blockHash": "0xf92cda4d08bdcb7b82d4ac631bd3fdad1360e63f44ea12fa19a9171c1215a18f",
      "blockNumber": "0x9e9bbb",
      "gasUsed": "0x510a0",
      "effectiveGasPrice": "0xf7e83",
      "from": "0x10db2e70118e5fbeda30391ec957e608c9e4517e",
      "to": "0xf9856fa8aa31f70e6f67168f401ec5229f3badf6",
      "contractAddress": null
    }
  ],
  "libraries": [],
  "pending": [],
  "returns": {},
  "timestamp": 1772778313661,
  "chain": 11155111,
  "commit": "d835087"
}