{
  "transactions": [
    {
      "hash": "0xfd3152167cee2598ec6af8b73ffc103f16e046afbcfa6f3206d14923664f15f0",
      "transactionType": "CALL",
      "contractName": null,
      "contractAddress": "0x6fbae72ccf3cf23924eba860bec36ed6ed160ae6",
      "function": "absorbPositions(bytes32,address)",
      "arguments": [
        "0x000000000000000000000000f68d9e0faa751ad61e0ed70852798bf9d9c04bf7",
        "0xbb46678a1F6C527bD79eCFBF85332B8Ae83ceaf1"
      ],
      "transaction": {
        "from": "0x10db2e70118e5fbeda30391ec957e608c9e4517e",
        "to": "0x6fbae72ccf3cf23924eba860bec36ed6ed160ae6",
        "gas": "0x738c0",
        "value": "0x0",
        "input": "0xfe5638cc000000000000000000000000f68d9e0faa751ad61e0ed70852798bf9d9c04bf7000000000000000000000000bb46678a1f6c527bd79ecfbf85332b8ae83ceaf1",
        "nonce": "0x3e",
        "chainId": "0xaa36a7"
      },
      "additionalContracts": [],
      "isFixedGasLimit": false
    }
  ],
  "receipts": [
    {
      "status": "0x1",
      "cumulativeGasUsed": "0x1b3a7e9",
      "logs": [
        {
          "address": "0x19d18958226f110e6702491b1124f42e4de012ec",
          "topics": [
            "0xc3d58168c5ae7397731d063d5bbf3d657854427343f4c083240f7aacaa2d0f62",
            "0x000000000000000000000000ae4c1b4f55088835d64b885408782c314b8f283c",
            "0x000000000000000000000000f68d9e0faa751ad61e0ed70852798bf9d9c04bf7",
            "0x00000000000000000000000010db2e70118e5fbeda30391ec957e608c9e4517e"
          ],
          "data": "0x000000000000000000000000000000000000000000000000000000000000000100000000000000000000000000000000000000000000d3c21bcecceda1000000",
          "blockHash": "0x24ade1ef1990c26f6a0e7dd8f0deae275d6f0c6a642e5abb7690f655ce748a3a",
          "blockNumber": "0x9ed565",
          "blockTimestamp": "0x69ad910c",
          "transactionHash": "0xfd3152167cee2598ec6af8b73ffc103f16e046afbcfa6f3206d14923664f15f0",
          "transactionIndex": "0xa3",
          "logIndex": "0x219",
          "removed": false
        },
        {
          "address": "0xbb73c13df3c8278f59de184b26023307e3c45d98",
          "topics": [
            "0x15ca2c58d94a57353778871a512abd76587f09583c3fce118289c2f118794e23",
            "0x00000000000000000000000010db2e70118e5fbeda30391ec957e608c9e4517e"
          ],
          "data": "0x00000000000000000000000000000000000000000000d3c21bcecceda100000000000000000000000000000000000000000000000000d3c21bcecceda1000000",
          "blockHash": "0x24ade1ef1990c26f6a0e7dd8f0deae275d6f0c6a642e5abb7690f655ce748a3a",
          "blockNumber": "0x9ed565",
          "blockTimestamp": "0x69ad910c",
          "transactionHash": "0xfd3152167cee2598ec6af8b73ffc103f16e046afbcfa6f3206d14923664f15f0",
          "transactionIndex": "0xa3",
          "logIndex": "0x21a",
          "removed": false
        },
        {
          "address": "0xc6b4e4c2540d649bf655adb352f910f50026af1f",
          "topics": [
            "0x9372321d543f1b03b8b743f369a5417b1a683c8d1359cda23f4047834cddbb50",
            "0x00000000000000000000000010db2e70118e5fbeda30391ec957e608c9e4517e"
          ],
          "data": "0x0000000000000000000000000000000000000000000004315c32d71a9e600000",
          "blockHash": "0x24ade1ef1990c26f6a0e7dd8f0deae275d6f0c6a642e5abb7690f655ce748a3a",
          "blockNumber": "0x9ed565",
          "blockTimestamp": "0x69ad910c",
          "transactionHash": "0xfd3152167cee2598ec6af8b73ffc103f16e046afbcfa6f3206d14923664f15f0",
          "transactionIndex": "0xa3",
          "logIndex": "0x21b",
          "removed": false
        },
        {
          "address": "0x2619faf69134a30651e765a85517f34b39d0cc25",
          "topics": [
            "0x15c759f729890e54ba9fbec58cddba4b65515f5f2c5b01ede4fa2c6841d18de3",
            "0x00000000000000000000000010db2e70118e5fbeda30391ec957e608c9e4517e"
          ],
          "data": "0x000000000000000000000000bb46678a1f6c527bd79ecfbf85332b8ae83ceaf1000000000000000000000000000000000000000000000000000000000000000000000000000000000000000000000000000000000000032505262153f6c80000",
          "blockHash": "0x24ade1ef1990c26f6a0e7dd8f0deae275d6f0c6a642e5abb7690f655ce748a3a",
          "blockNumber": "0x9ed565",
          "blockTimestamp": "0x69ad910c",
          "transactionHash": "0xfd3152167cee2598ec6af8b73ffc103f16e046afbcfa6f3206d14923664f15f0",
          "transactionIndex": "0xa3",
          "logIndex": "0x21c",
          "removed": false
        },
        {
          "address": "0xc6b4e4c2540d649bf655adb352f910f50026af1f",
          "topics": [
            "0x6fd1f3949541cd49d779154387024699bcf742e79f24b3e96b2ae0a30cdd6e94",
            "0x000000000000000000000000f68d9e0faa751ad61e0ed70852798bf9d9c04bf7"
          ],
          "data": "0x0000000000000000000000000000000000000000000004315c32d71a9e600000",
          "blockHash": "0x24ade1ef1990c26f6a0e7dd8f0deae275d6f0c6a642e5abb7690f655ce748a3a",
          "blockNumber": "0x9ed565",
          "blockTimestamp": "0x69ad910c",
          "transactionHash": "0xfd3152167cee2598ec6af8b73ffc103f16e046afbcfa6f3206d14923664f15f0",
          "transactionIndex": "0xa3",
          "logIndex": "0x21d",
          "removed": false
        },
        {
          "address": "0x2619faf69134a30651e765a85517f34b39d0cc25",
          "topics": [
            "0x15c759f729890e54ba9fbec58cddba4b65515f5f2c5b01ede4fa2c6841d18de3",
            "0x000000000000000000000000f68d9e0faa751ad61e0ed70852798bf9d9c04bf7"
          ],
          "data": "0x000000000000000000000000bb46678a1f6c527bd79ecfbf85332b8ae83ceaf100000000000000000000000000000000000000000000032505262153f6c800000000000000000000000000000000000000000000000000000000000000000000",
          "blockHash": "0x24ade1ef1990c26f6a0e7dd8f0deae275d6f0c6a642e5abb7690f655ce748a3a",
          "blockNumber": "0x9ed565",
          "blockTimestamp": "0x69ad910c",
          "transactionHash": "0xfd3152167cee2598ec6af8b73ffc103f16e046afbcfa6f3206d14923664f15f0",
          "transactionIndex": "0xa3",
          "logIndex": "0x21e",
          "removed": false
        },
        {
          "address": "0xbb73c13df3c8278f59de184b26023307e3c45d98",
          "topics": [
            "0xd36cc0768065e66afbd8046663fd4d7c6edcc0c1a3ee54fdd4ece612958ba2db",
            "0x000000000000000000000000f68d9e0faa751ad61e0ed70852798bf9d9c04bf7"
          ],
          "data": "0x00000000000000000000000000000000000000000000d3c21bcecceda10000000000000000000000000000000000000000000000000000000000000000000000",
          "blockHash": "0x24ade1ef1990c26f6a0e7dd8f0deae275d6f0c6a642e5abb7690f655ce748a3a",
          "blockNumber": "0x9ed565",
          "blockTimestamp": "0x69ad910c",
          "transactionHash": "0xfd3152167cee2598ec6af8b73ffc103f16e046afbcfa6f3206d14923664f15f0",
          "transactionIndex": "0xa3",
          "logIndex": "0x21f",
          "removed": false
        },
        {
          "address": "0xc6b4e4c2540d649bf655adb352f910f50026af1f",
          "topics": [
            "0x69a12ad77691eeb11d143a8223c5c43b77205173541be5a474e08039e98e65e3",
            "0x000000000000000000000000f68d9e0faa751ad61e0ed70852798bf9d9c04bf7"
          ],
          "data": "0x000000000000000000000000bb46678a1f6c527bd79ecfbf85332b8ae83ceaf1ffffffffffffffffffffffffffffffffffffffffffffffd7b95bd85eebc80000",
          "blockHash": "0x24ade1ef1990c26f6a0e7dd8f0deae275d6f0c6a642e5abb7690f655ce748a3a",
          "blockNumber": "0x9ed565",
          "blockTimestamp": "0x69ad910c",
          "transactionHash": "0xfd3152167cee2598ec6af8b73ffc103f16e046afbcfa6f3206d14923664f15f0",
          "transactionIndex": "0xa3",
          "logIndex": "0x220",
          "removed": false
        },
        {
          "address": "0xc6b4e4c2540d649bf655adb352f910f50026af1f",
          "topics": [
            "0x69a12ad77691eeb11d143a8223c5c43b77205173541be5a474e08039e98e65e3",
            "0x00000000000000000000000010db2e70118e5fbeda30391ec957e608c9e4517e"
          ],
          "data": "0x000000000000000000000000bb46678a1f6c527bd79ecfbf85332b8ae83ceaf100000000000000000000000000000000000000000000002846a427a114380000",
          "blockHash": "0x24ade1ef1990c26f6a0e7dd8f0deae275d6f0c6a642e5abb7690f655ce748a3a",
          "blockNumber": "0x9ed565",
          "blockTimestamp": "0x69ad910c",
          "transactionHash": "0xfd3152167cee2598ec6af8b73ffc103f16e046afbcfa6f3206d14923664f15f0",
          "transactionIndex": "0xa3",
          "logIndex": "0x221",
          "removed": false
        },
        {
          "address": "0xae4c1b4f55088835d64b885408782c314b8f283c",
          "topics": [
            "0x1bbe9757c483c47113897d2e51838cc8568cb5983b011b3c981fd05ab57a060a",
            "0x000000000000000000000000f68d9e0faa751ad61e0ed70852798bf9d9c04bf7",
            "0x00000000000000000000000010db2e70118e5fbeda30391ec957e608c9e4517e"
          ],
          "data": "0x00000000000000000000000000000000000000000000000000000000000000a0000000000000000000000000bb46678a1f6c527bd79ecfbf85332b8ae83ceaf1ffffffffffffffffffffffffffffffffffffffffffffffd7b95bd85eebc80000000000000000000000000000000000000000000000000000000000000000000000000000000000000000000000000000000000000000032505262153f6c8000000000000000000000000000000000000000000000000000000000000000000010000000000000000000000000000000000000000000000000000000000000001",
          "blockHash": "0x24ade1ef1990c26f6a0e7dd8f0deae275d6f0c6a642e5abb7690f655ce748a3a",
          "blockNumber": "0x9ed565",
          "blockTimestamp": "0x69ad910c",
          "transactionHash": "0xfd3152167cee2598ec6af8b73ffc103f16e046afbcfa6f3206d14923664f15f0",
          "transactionIndex": "0xa3",
          "logIndex": "0x222",
          "removed": false
        },
        {
          "address": "0x6fbae72ccf3cf23924eba860bec36ed6ed160ae6",
          "topics": [
            "0xec096d06a266fd442a7c79de2a657ba8b2713708209152128417045fe3f94adf",
            "0x000000000000000000000000f68d9e0faa751ad61e0ed70852798bf9d9c04bf7",
            "0x000000000000000000000000bb46678a1f6c527bd79ecfbf85332b8ae83ceaf1",
            "0x00000000000000000000000010db2e70118e5fbeda30391ec957e608c9e4517e"
          ],
          "data": "0x00000000000000000000000000000000000000000000002846a427a114380000",
          "blockHash": "0x24ade1ef1990c26f6a0e7dd8f0deae275d6f0c6a642e5abb7690f655ce748a3a",
          "blockNumber": "0x9ed565",
          "blockTimestamp": "0x69ad910c",
          "transactionHash": "0xfd3152167cee2598ec6af8b73ffc103f16e046afbcfa6f3206d14923664f15f0",
          "transactionIndex": "0xa3",
          "logIndex": "0x223",
          "removed": false
        }
      ],
      "logsBloom": "0x00000000000000001000200000000000000000000000200000000000000000808080000000000040000004000000000000800000080000000400000000002000001000000000000000084000000000000000000000080000000020000000080010000000000030000000000000010000002000000000000000000800000000000000200000000001000000000040000000000000000000000000800200000800200000000008000000000000009400000400000040000000010100000000000000000000000002000000001041000001000000008008000000000000000000000000000010000000400880000000000000000000008000000010180000040000",
      "type": "0x2",
      "transactionHash": "0xfd3152167cee2598ec6af8b73ffc103f16e046afbcfa6f3206d14923664f15f0",
      "transactionIndex": "0xa3",
      "blockHash": "0x24ade1ef1990c26f6a0e7dd8f0deae275d6f0c6a642e5abb7690f655ce748a3a",
      "blockNumber": "0x9ed565",
      "gasUsed": "0x4f01b",
      "effectiveGasPrice": "0x1a5b89c",
      "from": "0x10db2e70118e5fbeda30391ec957e608c9e4517e",
      "to": "0x6fbae72ccf3cf23924eba860bec36ed6ed160ae6",
      "contractAddress": null
    }
  ],
  "libraries": [],
  "pending": [],
  "returns": {},
  "timestamp": 1772982540660,
  "chain": 11155111,
  "commit": "0307850"
}