{
  "transactions": [
    {
      "hash": "0xad9ab5f7317fc20aae8204ccf88826d446db3986a6aff6796a10f50f1ffddf90",
      "transactionType": "CALL",
      "contractName": null,
      "contractAddress": "0xf5f5dcc3345f4f9b73207d89b2f76002f112997d",
      "function": "absorbPositions(bytes32,address)",
      "arguments": [
        "0x000000000000000000000000f68d9e0faa751ad61e0ed70852798bf9d9c04bf7",
        "0xbb46678a1F6C527bD79eCFBF85332B8Ae83ceaf1"
      ],
      "transaction": {
        "from": "0x10db2e70118e5fbeda30391ec957e608c9e4517e",
        "to": "0xf5f5dcc3345f4f9b73207d89b2f76002f112997d",
        "gas": "0x6d421",
        "value": "0x0",
        "input": "0xfe5638cc000000000000000000000000f68d9e0faa751ad61e0ed70852798bf9d9c04bf7000000000000000000000000bb46678a1f6c527bd79ecfbf85332b8ae83ceaf1",
        "nonce": "0x33",
        "chainId": "0xaa36a7"
      },
      "additionalContracts": [],
      "isFixedGasLimit": false
    }
  ],
  "receipts": [
    {
      "status": "0x1",
      "cumulativeGasUsed": "0x138e628",
      "logs": [
        {
          "address": "0xd8d6ba9024ad9952c7771fe6b2166fa524d8a4f8",
          "topics": [
            "0xc3d58168c5ae7397731d063d5bbf3d657854427343f4c083240f7aacaa2d0f62",
            "0x000000000000000000000000becf462997c4fa8ed117d20bc59bff32c29122d3",
            "0x000000000000000000000000f68d9e0faa751ad61e0ed70852798bf9d9c04bf7",
            "0x00000000000000000000000010db2e70118e5fbeda30391ec957e608c9e4517e"
          ],
          "data": "0x000000000000000000000000000000000000000000000000000000000000000100000000000000000000000000000000000000000000d3c21bcecceda1000000",
          "blockHash": "0x286f9200f444f97ea17626409786bbdd6077c85d838f1a49ffbf7c97f3f0e05c",
          "blockNumber": "0x9ea4d9",
          "blockTimestamp": "0x69aaecd4",
          "transactionHash": "0xad9ab5f7317fc20aae8204ccf88826d446db3986a6aff6796a10f50f1ffddf90",
          "transactionIndex": "0x9a",
          "logIndex": "0x1b4",
          "removed": false
        },
        {
          "address": "0x8b46caa605f36b9b739624668f36d384d8af6510",
          "topics": [
            "0x15ca2c58d94a57353778871a512abd76587f09583c3fce118289c2f118794e23",
            "0x00000000000000000000000010db2e70118e5fbeda30391ec957e608c9e4517e"
          ],
          "data": "0x00000000000000000000000000000000000000000000d3c21bcecceda100000000000000000000000000000000000000000000000000d3c21bcecceda1000000",
          "blockHash": "0x286f9200f444f97ea17626409786bbdd6077c85d838f1a49ffbf7c97f3f0e05c",
          "blockNumber": "0x9ea4d9",
          "blockTimestamp": "0x69aaecd4",
          "transactionHash": "0xad9ab5f7317fc20aae8204ccf88826d446db3986a6aff6796a10f50f1ffddf90",
          "transactionIndex": "0x9a",
          "logIndex": "0x1b5",
          "removed": false
        },
        {
          "address": "0x76d1a769c3b13696f40523c0483ac5ea7cb32a84",
          "topics": [
            "0x9372321d543f1b03b8b743f369a5417b1a683c8d1359cda23f4047834cddbb50",
            "0x00000000000000000000000010db2e70118e5fbeda30391ec957e608c9e4517e"
          ],
          "data": "0x0000000000000000000000000000000000000000000004315c32d71a9e600000",
          "blockHash": "0x286f9200f444f97ea17626409786bbdd6077c85d838f1a49ffbf7c97f3f0e05c",
          "blockNumber": "0x9ea4d9",
          "blockTimestamp": "0x69aaecd4",
          "transactionHash": "0xad9ab5f7317fc20aae8204ccf88826d446db3986a6aff6796a10f50f1ffddf90",
          "transactionIndex": "0x9a",
          "logIndex": "0x1b6",
          "removed": false
        },
        {
          "address": "0x19d3705c40befcf6633d8276c2cb20c7ed37891e",
          "topics": [
            "0x15c759f729890e54ba9fbec58cddba4b65515f5f2c5b01ede4fa2c6841d18de3",
            "0x00000000000000000000000010db2e70118e5fbeda30391ec957e608c9e4517e"
          ],
          "data": "0x000000000000000000000000bb46678a1f6c527bd79ecfbf85332b8ae83ceaf1000000000000000000000000000000000000000000000000000000000000000000000000000000000000000000000000000000000000032505262153f6c80000",
          "blockHash": "0x286f9200f444f97ea17626409786bbdd6077c85d838f1a49ffbf7c97f3f0e05c",
          "blockNumber": "0x9ea4d9",
          "blockTimestamp": "0x69aaecd4",
          "transactionHash": "0xad9ab5f7317fc20aae8204ccf88826d446db3986a6aff6796a10f50f1ffddf90",
          "transactionIndex": "0x9a",
          "logIndex": "0x1b7",
          "removed": false
        },
        {
          "address": "0x76d1a769c3b13696f40523c0483ac5ea7cb32a84",
          "topics": [
            "0x6fd1f3949541cd49d779154387024699bcf742e79f24b3e96b2ae0a30cdd6e94",
            "0x000000000000000000000000f68d9e0faa751ad61e0ed70852798bf9d9c04bf7"
          ],
          "data": "0x0000000000000000000000000000000000000000000004315c32d71a9e600000",
          "blockHash": "0x286f9200f444f97ea17626409786bbdd6077c85d838f1a49ffbf7c97f3f0e05c",
          "blockNumber": "0x9ea4d9",
          "blockTimestamp": "0x69aaecd4",
          "transactionHash": "0xad9ab5f7317fc20aae8204ccf88826d446db3986a6aff6796a10f50f1ffddf90",
          "transactionIndex": "0x9a",
          "logIndex": "0x1b8",
          "removed": false
        },
        {
          "address": "0x19d3705c40befcf6633d8276c2cb20c7ed37891e",
          "topics": [
            "0x15c759f729890e54ba9fbec58cddba4b65515f5f2c5b01ede4fa2c6841d18de3",
            "0x000000000000000000000000f68d9e0faa751ad61e0ed70852798bf9d9c04bf7"
          ],
          "data": "0x000000000000000000000000bb46678a1f6c527bd79ecfbf85332b8ae83ceaf100000000000000000000000000000000000000000000032505262153f6c800000000000000000000000000000000000000000000000000000000000000000000",
          "blockHash": "0x286f9200f444f97ea17626409786bbdd6077c85d838f1a49ffbf7c97f3f0e05c",
          "blockNumber": "0x9ea4d9",
          "blockTimestamp": "0x69aaecd4",
          "transactionHash": "0xad9ab5f7317fc20aae8204ccf88826d446db3986a6aff6796a10f50f1ffddf90",
          "transactionIndex": "0x9a",
          "logIndex": "0x1b9",
          "removed": false
        },
        {
          "address": "0x8b46caa605f36b9b739624668f36d384d8af6510",
          "topics": [
            "0xd36cc0768065e66afbd8046663fd4d7c6edcc0c1a3ee54fdd4ece612958ba2db",
            "0x000000000000000000000000f68d9e0faa751ad61e0ed70852798bf9d9c04bf7"
          ],
          "data": "0x00000000000000000000000000000000000000000000d3c21bcecceda10000000000000000000000000000000000000000000000000000000000000000000000",
          "blockHash": "0x286f9200f444f97ea17626409786bbdd6077c85d838f1a49ffbf7c97f3f0e05c",
          "blockNumber": "0x9ea4d9",
          "blockTimestamp": "0x69aaecd4",
          "transactionHash": "0xad9ab5f7317fc20aae8204ccf88826d446db3986a6aff6796a10f50f1ffddf90",
          "transactionIndex": "0x9a",
          "logIndex": "0x1ba",
          "removed": false
        },
        {
          "address": "0x76d1a769c3b13696f40523c0483ac5ea7cb32a84",
          "topics": [
            "0x69a12ad77691eeb11d143a8223c5c43b77205173541be5a474e08039e98e65e3",
            "0x000000000000000000000000f68d9e0faa751ad61e0ed70852798bf9d9c04bf7"
          ],
          "data": "0x000000000000000000000000bb46678a1f6c527bd79ecfbf85332b8ae83ceaf1ffffffffffffffffffffffffffffffffffffffffffffffd7e26fe0b022f00000",
          "blockHash": "0x286f9200f444f97ea17626409786bbdd6077c85d838f1a49ffbf7c97f3f0e05c",
          "blockNumber": "0x9ea4d9",
          "blockTimestamp": "0x69aaecd4",
          "transactionHash": "0xad9ab5f7317fc20aae8204ccf88826d446db3986a6aff6796a10f50f1ffddf90",
          "transactionIndex": "0x9a",
          "logIndex": "0x1bb",
          "removed": false
        },
        {
          "address": "0x76d1a769c3b13696f40523c0483ac5ea7cb32a84",
          "topics": [
            "0x69a12ad77691eeb11d143a8223c5c43b77205173541be5a474e08039e98e65e3",
            "0x00000000000000000000000010db2e70118e5fbeda30391ec957e608c9e4517e"
          ],
          "data": "0x000000000000000000000000bb46678a1f6c527bd79ecfbf85332b8ae83ceaf10000000000000000000000000000000000000000000000281d901f4fdd100000",
          "blockHash": "0x286f9200f444f97ea17626409786bbdd6077c85d838f1a49ffbf7c97f3f0e05c",
          "blockNumber": "0x9ea4d9",
          "blockTimestamp": "0x69aaecd4",
          "transactionHash": "0xad9ab5f7317fc20aae8204ccf88826d446db3986a6aff6796a10f50f1ffddf90",
          "transactionIndex": "0x9a",
          "logIndex": "0x1bc",
          "removed": false
        },
        {
          "address": "0xbecf462997c4fa8ed117d20bc59bff32c29122d3",
          "topics": [
            "0x1bbe9757c483c47113897d2e51838cc8568cb5983b011b3c981fd05ab57a060a",
            "0x000000000000000000000000f68d9e0faa751ad61e0ed70852798bf9d9c04bf7",
            "0x00000000000000000000000010db2e70118e5fbeda30391ec957e608c9e4517e"
          ],
          "data": "0x00000000000000000000000000000000000000000000000000000000000000a0000000000000000000000000bb46678a1f6c527bd79ecfbf85332b8ae83ceaf1ffffffffffffffffffffffffffffffffffffffffffffffd7e26fe0b022f00000000000000000000000000000000000000000000000000000000000000000000000000000000000000000000000000000000000000000032505262153f6c8000000000000000000000000000000000000000000000000000000000000000000010000000000000000000000000000000000000000000000000000000000000001",
          "blockHash": "0x286f9200f444f97ea17626409786bbdd6077c85d838f1a49ffbf7c97f3f0e05c",
          "blockNumber": "0x9ea4d9",
          "blockTimestamp": "0x69aaecd4",
          "transactionHash": "0xad9ab5f7317fc20aae8204ccf88826d446db3986a6aff6796a10f50f1ffddf90",
          "transactionIndex": "0x9a",
          "logIndex": "0x1bd",
          "removed": false
        },
        {
          "address": "0xf5f5dcc3345f4f9b73207d89b2f76002f112997d",
          "topics": [
            "0xec096d06a266fd442a7c79de2a657ba8b2713708209152128417045fe3f94adf",
            "0x000000000000000000000000f68d9e0faa751ad61e0ed70852798bf9d9c04bf7",
            "0x000000000000000000000000bb46678a1f6c527bd79ecfbf85332b8ae83ceaf1",
            "0x00000000000000000000000010db2e70118e5fbeda30391ec957e608c9e4517e"
          ],
          "data": "0x0000000000000000000000000000000000000000000000281d901f4fdd100000",
          "blockHash": "0x286f9200f444f97ea17626409786bbdd6077c85d838f1a49ffbf7c97f3f0e05c",
          "blockNumber": "0x9ea4d9",
          "blockTimestamp": "0x69aaecd4",
          "transactionHash": "0xad9ab5f7317fc20aae8204ccf88826d446db3986a6aff6796a10f50f1ffddf90",
          "transactionIndex": "0x9a",
          "logIndex": "0x1be",
          "removed": false
        }
      ],
      "logsBloom": "0x00000010000000001000000000000000000000000000000000000000000000800000000000000040000004000000000000800000000000000400000000002000000000000001000000004000000000000000000400080000000020000000000010100000000000800000000000010000020000000000000000000800000000000000000008000001000000000040000008000000000000000000000000008800200000000008000000000000008040100400000040000000110100000400000000000000000000000000001041200001000004008008100000000400000000000000000010400480400880000000000000000000040000000000180000000000",
      "type": "0x2",
      "transactionHash": "0xad9ab5f7317fc20aae8204ccf88826d446db3986a6aff6796a10f50f1ffddf90",
      "transactionIndex": "0x9a",
      "blockHash": "0x286f9200f444f97ea17626409786bbdd6077c85d838f1a49ffbf7c97f3f0e05c",
      "blockNumber": "0x9ea4d9",
      "gasUsed": "0x4f19e",
      "effectiveGasPrice": "0x6b45cf4",
      "from": "0x10db2e70118e5fbeda30391ec957e608c9e4517e",
      "to": "0xf5f5dcc3345f4f9b73207d89b2f76002f112997d",
      "contractAddress": null
    }
  ],
  "libraries": [],
  "pending": [],
  "returns": {},
  "timestamp": 1772809428885,
  "chain": 11155111,
  "commit": "abef103"
}