{
  "transactions": [
    {
      "hash": "0x4b6a3ec3da02440f5f8c1d7566c9728e4538789a3d5f63c04e025ab1d60e1510",
      "transactionType": "CALL",
      "contractName": null,
      "contractAddress": "0xbb46678a1f6c527bd79ecfbf85332b8ae83ceaf1",
      "function": "mint(address,uint256)",
      "arguments": [
        "0x474B4E7FD1A143eDea6b77aa845F429D443E6410",
        "4000000000000000000000000"
      ],
      "transaction": {
        "from": "0x993461bbf7e553eb5bd1f5248a72b524c4a3b15d",
        "to": "0xbb46678a1f6c527bd79ecfbf85332b8ae83ceaf1",
        "gas": "0xc681",
        "value": "0x0",
        "input": "0x40c10f19000000000000000000000000474b4e7fd1a143edea6b77aa845f429d443e6410000000000000000000000000000000000000000000034f086f3b33b684000000",
        "nonce": "0x3fc",
        "chainId": "0xaa36a7"
      },
      "additionalContracts": [],
      "isFixedGasLimit": false
    },
    {
      "hash": "0x8a5720cd0b66be4a3c74cae045f7e00baa5d81ceddac1809cac271d115b76c9c",
      "transactionType": "CALL",
      "contractName": null,
      "contractAddress": "0xbb46678a1f6c527bd79ecfbf85332b8ae83ceaf1",
      "function": "mint(address,uint256)",
      "arguments": [
        "0xf68D9e0fAa751AD61e0ED70852798bF9D9C04bF7",
        "4000000000000000000000000"
      ],
      "transaction": {
        "from": "0x993461bbf7e553eb5bd1f5248a72b524c4a3b15d",
        "to": "0xbb46678a1f6c527bd79ecfbf85332b8ae83ceaf1",
        "gas": "0xc681",
        "value": "0x0",
        "input": "0x40c10f19000000000000000000000000f68d9e0faa751ad61e0ed70852798bf9d9c04bf7000000000000000000000000000000000000000000034f086f3b33b684000000",
        "nonce": "0x3fd",
        "chainId": "0xaa36a7"
      },
      "additionalContracts": [],
      "isFixedGasLimit": false
    },
    {
      "hash": "0x11b88f182ef2d2023ff3e4052be6472d6a6745ed6126dc0282b36bc3da9d2c96",
      "transactionType": "CALL",
      "contractName": null,
      "contractAddress": "0xbb46678a1f6c527bd79ecfbf85332b8ae83ceaf1",
      "function": "mint(address,uint256)",
      "arguments": [
        "0x10Db2E70118e5FBeDa30391ec957e608C9E4517E",
        "4000000000000000000000000"
      ],
      "transaction": {
        "from": "0x993461bbf7e553eb5bd1f5248a72b524c4a3b15d",
        "to": "0xbb46678a1f6c527bd79ecfbf85332b8ae83ceaf1",
        "gas": "0xc681",
        "value": "0x0",
        "input": "0x40c10f1900000000000000000000000010db2e70118e5fbeda30391ec957e608c9e4517e000000000000000000000000000000000000000000034f086f3b33b684000000",
        "nonce": "0x3fe",
        "chainId": "0xaa36a7"
      },
      "additionalContracts": [],
      "isFixedGasLimit": false
    },
    {
      "hash": "0xc48a7f21ce63444b4e4fe0fda391ed6db029e3c23f4244533ed94e969b8ca8e0",
      "transactionType": "CALL",
      "contractName": null,
      "contractAddress": "0xbb46678a1f6c527bd79ecfbf85332b8ae83ceaf1",
      "function": "approve(address,uint256)",
      "arguments": [
        "0xA623F32BbCdc5A19919870F1Cf66e531A7C3E4Ef",
        "4000000000000000000000000"
      ],
      "transaction": {
        "from": "0x474b4e7fd1a143edea6b77aa845f429d443e6410",
        "to": "0xbb46678a1f6c527bd79ecfbf85332b8ae83ceaf1",
        "gas": "0xfd53",
        "value": "0x0",
        "input": "0x095ea7b3000000000000000000000000a623f32bbcdc5a19919870f1cf66e531a7c3e4ef000000000000000000000000000000000000000000034f086f3b33b684000000",
        "nonce": "0x3f",
        "chainId": "0xaa36a7"
      },
      "additionalContracts": [],
      "isFixedGasLimit": false
    },
    {
      "hash": "0x336697890bed141cf4b66b4d5802bc38eda038ce7ecd2aef922c6b3574b9c366",
      "transactionType": "CALL",
      "contractName": null,
      "contractAddress": "0xa623f32bbcdc5a19919870f1cf66e531a7c3e4ef",
      "function": "depositMargin(bytes32,address,uint256)",
      "arguments": [
        "0x000000000000000000000000474b4e7fd1a143edea6b77aa845f429d443e6410",
        "0xbb46678a1F6C527bD79eCFBF85332B8Ae83ceaf1",
        "4000000000000000000000000"
      ],
      "transaction": {
        "from": "0x474b4e7fd1a143edea6b77aa845f429d443e6410",
        "to": "0xa623f32bbcdc5a19919870f1cf66e531a7c3e4ef",
        "gas": "0x2cf03",
        "value": "0x0",
        "input": "0x6812d315000000000000000000000000474b4e7fd1a143edea6b77aa845f429d443e6410000000000000000000000000bb46678a1f6c527bd79ecfbf85332b8ae83ceaf1000000000000000000000000000000000000000000034f086f3b33b684000000",
        "nonce": "0x40",
        "chainId": "0xaa36a7"
      },
      "additionalContracts": [],
      "isFixedGasLimit": false
    },
    {
      "hash": "0xcb433e3663bfdfbc358257c26dd45f0aa29d6504020e401eeff829c746271c55",
      "transactionType": "CALL",
      "contractName": null,
      "contractAddress": "0xbb46678a1f6c527bd79ecfbf85332b8ae83ceaf1",
      "function": "approve(address,uint256)",
      "arguments": [
        "0xA623F32BbCdc5A19919870F1Cf66e531A7C3E4Ef",
        "4000000000000000000000000"
      ],
      "transaction": {
        "from": "0xf68d9e0faa751ad61e0ed70852798bf9d9c04bf7",
        "to": "0xbb46678a1f6c527bd79ecfbf85332b8ae83ceaf1",
        "gas": "0xfd53",
        "value": "0x0",
        "input": "0x095ea7b3000000000000000000000000a623f32bbcdc5a19919870f1cf66e531a7c3e4ef000000000000000000000000000000000000000000034f086f3b33b684000000",
        "nonce": "0x3e",
        "chainId": "0xaa36a7"
      },
      "additionalContracts": [],
      "isFixedGasLimit": false
    },
    {
      "hash": "0x5749f014d491adb050dafaa4aa610e94a32bd0b75f1bbccf0a5e9129081848f1",
      "transactionType": "CALL",
      "contractName": null,
      "contractAddress": "0xa623f32bbcdc5a19919870f1cf66e531a7c3e4ef",
      "function": "depositMargin(bytes32,address,uint256)",
      "arguments": [
        "0x000000000000000000000000f68d9e0faa751ad61e0ed70852798bf9d9c04bf7",
        "0xbb46678a1F6C527bD79eCFBF85332B8Ae83ceaf1",
        "4000000000000000000000000"
      ],
      "transaction": {
        "from": "0xf68d9e0faa751ad61e0ed70852798bf9d9c04bf7",
        "to": "0xa623f32bbcdc5a19919870f1cf66e531a7c3e4ef",
        "gas": "0x24acd",
        "value": "0x0",
        "input": "0x6812d315000000000000000000000000f68d9e0faa751ad61e0ed70852798bf9d9c04bf7000000000000000000000000bb46678a1f6c527bd79ecfbf85332b8ae83ceaf1000000000000000000000000000000000000000000034f086f3b33b684000000",
        "nonce": "0x3f",
        "chainId": "0xaa36a7"
      },
      "additionalContracts": [],
      "isFixedGasLimit": false
    },
    {
      "hash": "0x6d1d2ebcad1ba6bba7aae1e44fb2d0c052f2c289f168e8ca401ddc99db6fd46d",
      "transactionType": "CALL",
      "contractName": null,
      "contractAddress": "0xbb46678a1f6c527bd79ecfbf85332b8ae83ceaf1",
      "function": "approve(address,uint256)",
      "arguments": [
        "0xA623F32BbCdc5A19919870F1Cf66e531A7C3E4Ef",
        "4000000000000000000000000"
      ],
      "transaction": {
        "from": "0x10db2e70118e5fbeda30391ec957e608c9e4517e",
        "to": "0xbb46678a1f6c527bd79ecfbf85332b8ae83ceaf1",
        "gas": "0xfd53",
        "value": "0x0",
        "input": "0x095ea7b3000000000000000000000000a623f32bbcdc5a19919870f1cf66e531a7c3e4ef000000000000000000000000000000000000000000034f086f3b33b684000000",
        "nonce": "0xc",
        "chainId": "0xaa36a7"
      },
      "additionalContracts": [],
      "isFixedGasLimit": false
    },
    {
      "hash": "0x359b9bf73ac15077bbbd0645c969dc7b9894cd9d1996c4242b1a9b3f0fc0bcba",
      "transactionType": "CALL",
      "contractName": null,
      "contractAddress": "0xa623f32bbcdc5a19919870f1cf66e531a7c3e4ef",
      "function": "depositMargin(bytes32,address,uint256)",
      "arguments": [
        "0x00000000000000000000000010db2e70118e5fbeda30391ec957e608c9e4517e",
        "0xbb46678a1F6C527bD79eCFBF85332B8Ae83ceaf1",
        "4000000000000000000000000"
      ],
      "transaction": {
        "from": "0x10db2e70118e5fbeda30391ec957e608c9e4517e",
        "to": "0xa623f32bbcdc5a19919870f1cf66e531a7c3e4ef",
        "gas": "0x24acd",
        "value": "0x0",
        "input": "0x6812d31500000000000000000000000010db2e70118e5fbeda30391ec957e608c9e4517e000000000000000000000000bb46678a1f6c527bd79ecfbf85332b8ae83ceaf1000000000000000000000000000000000000000000034f086f3b33b684000000",
        "nonce": "0xd",
        "chainId": "0xaa36a7"
      },
      "additionalContracts": [],
      "isFixedGasLimit": false
    }
  ],
  "receipts": [
    {
      "status": "0x1",
      "cumulativeGasUsed": "0x98d86d",
      "logs": [
        {
          "address": "0xbb46678a1f6c527bd79ecfbf85332b8ae83ceaf1",
          "topics": [
            "0xddf252ad1be2c89b69c2b068fc378daa952ba7f163c4a11628f55a4df523b3ef",
            "0x0000000000000000000000000000000000000000000000000000000000000000",
            "0x000000000000000000000000474b4e7fd1a143edea6b77aa845f429d443e6410"
          ],
          "data": "0x000000000000000000000000000000000000000000034f086f3b33b684000000",
          "blockHash": "0x43c48720740589e21cb46e5d1393c40026d79c2c2dd6aeff19bf9c248c8c262c",
          "blockNumber": "0x9e8413",
          "blockTimestamp": "0x69a94640",
          "transactionHash": "0x4b6a3ec3da02440f5f8c1d7566c9728e4538789a3d5f63c04e025ab1d60e1510",
          "transactionIndex": "0x75",
          "logIndex": "0xc6",
          "removed": false
        }
      ],
      "logsBloom": "0x00000000000000000000000000000000000000000000000000000000000000000000000000000000000000000000000000000000000000000000000000000000000000000000000000000008000000000000000000000000000000000000000000400000020000000000000000000800000000000000000000000010000000000100000008000000000000000000000000000000000000000000000000000000000000000000000000000000000000000000000000000000000100000000000000000002000000000000000000000000000000008000000000000010000020000000000000000000000000000000000000000000000000000000000000000000",
      "type": "0x2",
      "transactionHash": "0x4b6a3ec3da02440f5f8c1d7566c9728e4538789a3d5f63c04e025ab1d60e1510",
      "transactionIndex": "0x75",
      "blockHash": "0x43c48720740589e21cb46e5d1393c40026d79c2c2dd6aeff19bf9c248c8c262c",
      "blockNumber": "0x9e8413",
      "gasUsed": "0x87bb",
      "effectiveGasPrice": "0xf424b",
      "from": "0x993461bbf7e553eb5bd1f5248a72b524c4a3b15d",
      "to": "0xbb46678a1f6c527bd79ecfbf85332b8ae83ceaf1",
      "contractAddress": null
    },
    {
      "status": "0x1",
      "cumulativeGasUsed": "0x94ee7f",
      "logs": [
        {
          "address": "0xbb46678a1f6c527bd79ecfbf85332b8ae83ceaf1",
          "topics": [
            "0xddf252ad1be2c89b69c2b068fc378daa952ba7f163c4a11628f55a4df523b3ef",
            "0x0000000000000000000000000000000000000000000000000000000000000000",
            "0x000000000000000000000000f68d9e0faa751ad61e0ed70852798bf9d9c04bf7"
          ],
          "data": "0x000000000000000000000000000000000000000000034f086f3b33b684000000",
          "blockHash": "0x1b947a28da14ad4523ab478fe3dd1c9320a632781fffa532515c6c527d2271a7",
          "blockNumber": "0x9e8414",
          "blockTimestamp": "0x69a9464c",
          "transactionHash": "0x8a5720cd0b66be4a3c74cae045f7e00baa5d81ceddac1809cac271d115b76c9c",
          "transactionIndex": "0x6a",
          "logIndex": "0xca",
          "removed": false
        }
      ],
      "logsBloom": "0x00000000000000000000000000000000000000000000000000000000000000800000000000000000000000000000000000000000000000000000000000000000000000000000000000000008000000000000000000000000000000000000000000000000020000000000000000000800000000000000000000000010000000000100000008000000000000000000000000000000000000000000000000000000000000000000000000000000000000000400000000000000000000000000000000000002000000000000000000000001000000008000000000000000000020000000000000000000000000000000000000000000000000000000000000000000",
      "type": "0x2",
      "transactionHash": "0x8a5720cd0b66be4a3c74cae045f7e00baa5d81ceddac1809cac271d115b76c9c",
      "transactionIndex": "0x6a",
      "blockHash": "0x1b947a28da14ad4523ab478fe3dd1c9320a632781fffa532515c6c527d2271a7",
      "blockNumber": "0x9e8414",
      "gasUsed": "0x87bb",
      "effectiveGasPrice": "0xf424b",
      "from": "0x993461bbf7e553eb5bd1f5248a72b524c4a3b15d",
      "to": "0xbb46678a1f6c527bd79ecfbf85332b8ae83ceaf1",
      "contractAddress": null
    },
    {
      "status": "0x1",
      "cumulativeGasUsed": "0x34fcdc2",
      "logs": [
        {
          "address": "0xbb46678a1f6c527bd79ecfbf85332b8ae83ceaf1",
          "topics": [
            "0xddf252ad1be2c89b69c2b068fc378daa952ba7f163c4a11628f55a4df523b3ef",
            "0x0000000000000000000000000000000000000000000000000000000000000000",
            "0x00000000000000000000000010db2e70118e5fbeda30391ec957e608c9e4517e"
          ],
          "data": "0x000000000000000000000000000000000000000000034f086f3b33b684000000",
          "blockHash": "0x49dfe9fa01f8db11a295ef6802cbc8a4c70f3d8e4f750f4184c795438777ddec",
          "blockNumber": "0x9e8415",
          "blockTimestamp": "0x69a94658",
          "transactionHash": "0x11b88f182ef2d2023ff3e4052be6472d6a6745ed6126dc0282b36bc3da9d2c96",
          "transactionIndex": "0x82",
          "logIndex": "0x143",
          "removed": false
        }
      ],
      "logsBloom": "0x00000000000000000000000000000000000000000000000000000000000000000000000000000000000000000000000000000000000000000000000000000000000000000000000000000008000000000000000000000000000000000000000000000000020000000000000000000800000000000000000000000010000000000100000008000000000000000000000000000000000000000000000000000000000000000000000000000000000000000000000000000000000000000000000000000002000000000000000041000000000000008000000000000000000020000000000000000000000080000000000000000000000000000000000000000000",
      "type": "0x2",
      "transactionHash": "0x11b88f182ef2d2023ff3e4052be6472d6a6745ed6126dc0282b36bc3da9d2c96",
      "transactionIndex": "0x82",
      "blockHash": "0x49dfe9fa01f8db11a295ef6802cbc8a4c70f3d8e4f750f4184c795438777ddec",
      "blockNumber": "0x9e8415",
      "gasUsed": "0x87bb",
      "effectiveGasPrice": "0xf424b",
      "from": "0x993461bbf7e553eb5bd1f5248a72b524c4a3b15d",
      "to": "0xbb46678a1f6c527bd79ecfbf85332b8ae83ceaf1",
      "contractAddress": null
    },
    {
      "status": "0x1",
      "cumulativeGasUsed": "0x270a38d",
      "logs": [
        {
          "address": "0xbb46678a1f6c527bd79ecfbf85332b8ae83ceaf1",
          "topics": [
            "0x8c5be1e5ebec7d5bd14f71427d1e84f3dd0314c0f7b2291e5b200ac8c7c3b925",
            "0x000000000000000000000000474b4e7fd1a143edea6b77aa845f429d443e6410",
            "0x000000000000000000000000a623f32bbcdc5a19919870f1cf66e531a7c3e4ef"
          ],
          "data": "0x000000000000000000000000000000000000000000034f086f3b33b684000000",
          "blockHash": "0x9d834a290373ce321d69ebbf6462952882ec579d4ea75e3fa002aaf4d39d8765",
          "blockNumber": "0x9e8416",
          "blockTimestamp": "0x69a94664",
          "transactionHash": "0xc48a7f21ce63444b4e4fe0fda391ed6db029e3c23f4244533ed94e969b8ca8e0",
          "transactionIndex": "0x62",
          "logIndex": "0xb7",
          "removed": false
        }
      ],
      "logsBloom": "0x00000000000010000000000000000000000000000000000000000000000000000000000000000000000000000000000000000000000000000000000000200000000000000000000000000000000000000000000000000000000000000000000000400000000000000000000000000000000000000000000000000000000000000100000008000000000000000000000000000000000000000000000000000000020000000000000000000000000000000000000000000100000100000000000000000000000000000000000020000000000000008000000000000010000000000010000000000000000000000000000000000000000000000000000000000000",
      "type": "0x2",
      "transactionHash": "0xc48a7f21ce63444b4e4fe0fda391ed6db029e3c23f4244533ed94e969b8ca8e0",
      "transactionIndex": "0x62",
      "blockHash": "0x9d834a290373ce321d69ebbf6462952882ec579d4ea75e3fa002aaf4d39d8765",
      "blockNumber": "0x9e8416",
      "gasUsed": "0xb768",
      "effectiveGasPrice": "0xf424c",
      "from": "0x474b4e7fd1a143edea6b77aa845f429d443e6410",
      "to": "0xbb46678a1f6c527bd79ecfbf85332b8ae83ceaf1",
      "contractAddress": null
    },
    {
      "status": "0x1",
      "cumulativeGasUsed": "0xae32e4",
      "logs": [
        {
          "address": "0xbb46678a1f6c527bd79ecfbf85332b8ae83ceaf1",
          "topics": [
            "0xddf252ad1be2c89b69c2b068fc378daa952ba7f163c4a11628f55a4df523b3ef",
            "0x000000000000000000000000474b4e7fd1a143edea6b77aa845f429d443e6410",
            "0x000000000000000000000000a623f32bbcdc5a19919870f1cf66e531a7c3e4ef"
          ],
          "data": "0x000000000000000000000000000000000000000000034f086f3b33b684000000",
          "blockHash": "0x1d9582cae15c52c91a07d8ddf6a56d97dde03408b7932fbd17da522c850f55dc",
          "blockNumber": "0x9e8417",
          "blockTimestamp": "0x69a94670",
          "transactionHash": "0x336697890bed141cf4b66b4d5802bc38eda038ce7ecd2aef922c6b3574b9c366",
          "transactionIndex": "0x6f",
          "logIndex": "0xdb",
          "removed": false
        },
        {
          "address": "0xa623f32bbcdc5a19919870f1cf66e531a7c3e4ef",
          "topics": [
            "0x30f6180e248310ab0c789da3026fbba7390872be072cfc5b3c20733f3a980c9e",
            "0x000000000000000000000000474b4e7fd1a143edea6b77aa845f429d443e6410",
            "0x000000000000000000000000bb46678a1f6c527bd79ecfbf85332b8ae83ceaf1"
          ],
          "data": "0x000000000000000000000000000000000000000000034f086f3b33b684000000",
          "blockHash": "0x1d9582cae15c52c91a07d8ddf6a56d97dde03408b7932fbd17da522c850f55dc",
          "blockNumber": "0x9e8417",
          "blockTimestamp": "0x69a94670",
          "transactionHash": "0x336697890bed141cf4b66b4d5802bc38eda038ce7ecd2aef922c6b3574b9c366",
          "transactionIndex": "0x6f",
          "logIndex": "0xdc",
          "removed": false
        }
      ],
      "logsBloom": "0x00000000000010000000000000000000000000000000000000000000000000000000000000000000000000000000000000000000000000000000000000000000000000000000000000000008000000000000000000000000000000000000000000400000000000000000000000000000000000000000000000000010000000000100000008000001000000080000400000000000000000000000000000000000000000000000000000000000000000000000000040000100001100000000000000000002000001000000000020000001000800008000000000000010000000000000000000000000000000000000000000000000000000000000000400000000",
      "type": "0x2",
      "transactionHash": "0x336697890bed141cf4b66b4d5802bc38eda038ce7ecd2aef922c6b3574b9c366",
      "transactionIndex": "0x6f",
      "blockHash": "0x1d9582cae15c52c91a07d8ddf6a56d97dde03408b7932fbd17da522c850f55dc",
      "blockNumber": "0x9e8417",
      "gasUsed": "0x1eba2",
      "effectiveGasPrice": "0xf424d",
      "from": "0x474b4e7fd1a143edea6b77aa845f429d443e6410",
      "to": "0xa623f32bbcdc5a19919870f1cf66e531a7c3e4ef",
      "contractAddress": null
    },
    {
      "status": "0x1",
      "cumulativeGasUsed": "0xb359fe",
      "logs": [
        {
          "address": "0xbb46678a1f6c527bd79ecfbf85332b8ae83ceaf1",
          "topics": [
            "0x8c5be1e5ebec7d5bd14f71427d1e84f3dd0314c0f7b2291e5b200ac8c7c3b925",
            "0x000000000000000000000000f68d9e0faa751ad61e0ed70852798bf9d9c04bf7",
            "0x000000000000000000000000a623f32bbcdc5a19919870f1cf66e531a7c3e4ef"
          ],
          "data": "0x000000000000000000000000000000000000000000034f086f3b33b684000000",
          "blockHash": "0x1499784d52a451ea5be9796d54765570ef6fe4059470902c97393e8efe481cb0",
          "blockNumber": "0x9e8418",
          "blockTimestamp": "0x69a9467c",
          "transactionHash": "0xcb433e3663bfdfbc358257c26dd45f0aa29d6504020e401eeff829c746271c55",
          "transactionIndex": "0x87",
          "logIndex": "0xf7",
          "removed": false
        }
      ],
      "logsBloom": "0x00000000000010000000000000000000000000000000000000000000000000800000000000000000000000000000000000000000000000000000000000200000000000000000000000000000000000000000000000000000000000000000000000000000000000000000000000000000000000000000000000000000000000000100000008000000000000000000000000000000000000000000000000000000020000000000000000000000000000000400000000000100000000000000000000000000000000000000000020000001000000008000000000000000000000000010000000000000000000000000000000000000000000000000000000000000",
      "type": "0x2",
      "transactionHash": "0xcb433e3663bfdfbc358257c26dd45f0aa29d6504020e401eeff829c746271c55",
      "transactionIndex": "0x87",
      "blockHash": "0x1499784d52a451ea5be9796d54765570ef6fe4059470902c97393e8efe481cb0",
      "blockNumber": "0x9e8418",
      "gasUsed": "0xb768",
      "effectiveGasPrice": "0xf424d",
      "from": "0xf68d9e0faa751ad61e0ed70852798bf9d9c04bf7",
      "to": "0xbb46678a1f6c527bd79ecfbf85332b8ae83ceaf1",
      "contractAddress": null
    },
    {
      "status": "0x1",
      "cumulativeGasUsed": "0xb37727",
      "logs": [
        {
          "address": "0xbb46678a1f6c527bd79ecfbf85332b8ae83ceaf1",
          "topics": [
            "0xddf252ad1be2c89b69c2b068fc378daa952ba7f163c4a11628f55a4df523b3ef",
            "0x000000000000000000000000f68d9e0faa751ad61e0ed70852798bf9d9c04bf7",
            "0x000000000000000000000000a623f32bbcdc5a19919870f1cf66e531a7c3e4ef"
          ],
          "data": "0x000000000000000000000000000000000000000000034f086f3b33b684000000",
          "blockHash": "0x44de5dd6a1fb780821c36cdd98b908697bbfedc477aaaa05a91ac17f1ab408ec",
          "blockNumber": "0x9e8419",
          "blockTimestamp": "0x69a94688",
          "transactionHash": "0x5749f014d491adb050dafaa4aa610e94a32bd0b75f1bbccf0a5e9129081848f1",
          "transactionIndex": "0x79",
          "logIndex": "0xef",
          "removed": false
        },
        {
          "address": "0xa623f32bbcdc5a19919870f1cf66e531a7c3e4ef",
          "topics": [
            "0x30f6180e248310ab0c789da3026fbba7390872be072cfc5b3c20733f3a980c9e",
            "0x000000000000000000000000f68d9e0faa751ad61e0ed70852798bf9d9c04bf7",
            "0x000000000000000000000000bb46678a1f6c527bd79ecfbf85332b8ae83ceaf1"
          ],
          "data": "0x000000000000000000000000000000000000000000034f086f3b33b684000000",
          "blockHash": "0x44de5dd6a1fb780821c36cdd98b908697bbfedc477aaaa05a91ac17f1ab408ec",
          "blockNumber": "0x9e8419",
          "blockTimestamp": "0x69a94688",
          "transactionHash": "0x5749f014d491adb050dafaa4aa610e94a32bd0b75f1bbccf0a5e9129081848f1",
          "transactionIndex": "0x79",
          "logIndex": "0xf0",
          "removed": false
        }
      ],
      "logsBloom": "0x00000000000010000000000000000000000000000000000000000000000000800000000000000000000000000000000000000000000000000000000000000000000000000000000000000008000000000000000000000000000000000000000000000000000000000000000000000000000000000000000000000010000000000100000008000001000000080000400000000000000000000000000000000000000000000000000000000000000000000400000040000100001000000000000000000002000001000000000020000001000800008000000000000000000000000000000000000000000000000000000000000000000000000000000400000000",
      "type": "0x2",
      "transactionHash": "0x5749f014d491adb050dafaa4aa610e94a32bd0b75f1bbccf0a5e9129081848f1",
      "transactionIndex": "0x79",
      "blockHash": "0x44de5dd6a1fb780821c36cdd98b908697bbfedc477aaaa05a91ac17f1ab408ec",
      "blockNumber": "0x9e8419",
      "gasUsed": "0x1a8d6",
      "effectiveGasPrice": "0xf424d",
      "from": "0xf68d9e0faa751ad61e0ed70852798bf9d9c04bf7",
      "to": "0xa623f32bbcdc5a19919870f1cf66e531a7c3e4ef",
      "contractAddress": null
    },
    {
      "status": "0x1",
      "cumulativeGasUsed": "0xc90cf5",
      "logs": [
        {
          "address": "0xbb46678a1f6c527bd79ecfbf85332b8ae83ceaf1",
          "topics": [
            "0x8c5be1e5ebec7d5bd14f71427d1e84f3dd0314c0f7b2291e5b200ac8c7c3b925",
            "0x00000000000000000000000010db2e70118e5fbeda30391ec957e608c9e4517e",
            "0x000000000000000000000000a623f32bbcdc5a19919870f1cf66e531a7c3e4ef"
          ],
          "data": "0x000000000000000000000000000000000000000000034f086f3b33b684000000",
          "blockHash": "0xdfbc426d8d0c02a59ebf75ac4b58f1a46fa88662162862913d8e4fed7c302181",
          "blockNumber": "0x9e841a",
          "blockTimestamp": "0x69a94694",
          "transactionHash": "0x6d1d2ebcad1ba6bba7aae1e44fb2d0c052f2c289f168e8ca401ddc99db6fd46d",
          "transactionIndex": "0x55",
          "logIndex": "0xc3",
          "removed": false
        }
      ],
      "logsBloom": "0x00000000000010000000000000000000000000000000000000000000000000000000000000000000000000000000000000000000000000000000000000200000000000000000000000000000000000000000000000000000000000000000000000000000000000000000000000000000000000000000000000000000000000000100000008000000000000000000000000000000000000000000000000000000020000000000000000000000000000000000000000000100000000000000000000000000000000000000000061000000000000008000000000000000000000000010000000000000000080000000000000000000000000000000000000000000",
      "type": "0x2",
      "transactionHash": "0x6d1d2ebcad1ba6bba7aae1e44fb2d0c052f2c289f168e8ca401ddc99db6fd46d",
      "transactionIndex": "0x55",
      "blockHash": "0xdfbc426d8d0c02a59ebf75ac4b58f1a46fa88662162862913d8e4fed7c302181",
      "blockNumber": "0x9e841a",
      "gasUsed": "0xb768",
      "effectiveGasPrice": "0xf424d",
      "from": "0x10db2e70118e5fbeda30391ec957e608c9e4517e",
      "to": "0xbb46678a1f6c527bd79ecfbf85332b8ae83ceaf1",
      "contractAddress": null
    },
    {
      "status": "0x1",
      "cumulativeGasUsed": "0xc1f1a4",
      "logs": [
        {
          "address": "0xbb46678a1f6c527bd79ecfbf85332b8ae83ceaf1",
          "topics": [
            "0xddf252ad1be2c89b69c2b068fc378daa952ba7f163c4a11628f55a4df523b3ef",
            "0x00000000000000000000000010db2e70118e5fbeda30391ec957e608c9e4517e",
            "0x000000000000000000000000a623f32bbcdc5a19919870f1cf66e531a7c3e4ef"
          ],
          "data": "0x000000000000000000000000000000000000000000034f086f3b33b684000000",
          "blockHash": "0x16509708c1f0c5eee8eb25b26f1632a2bde339357561988260c15b665a438614",
          "blockNumber": "0x9e841b",
          "blockTimestamp": "0x69a946a0",
          "transactionHash": "0x359b9bf73ac15077bbbd0645c969dc7b9894cd9d1996c4242b1a9b3f0fc0bcba",
          "transactionIndex": "0x45",
          "logIndex": "0xf0",
          "removed": false
        },
        {
          "address": "0xa623f32bbcdc5a19919870f1cf66e531a7c3e4ef",
          "topics": [
            "0x30f6180e248310ab0c789da3026fbba7390872be072cfc5b3c20733f3a980c9e",
            "0x00000000000000000000000010db2e70118e5fbeda30391ec957e608c9e4517e",
            "0x000000000000000000000000bb46678a1f6c527bd79ecfbf85332b8ae83ceaf1"
          ],
          "data": "0x000000000000000000000000000000000000000000034f086f3b33b684000000",
          "blockHash": "0x16509708c1f0c5eee8eb25b26f1632a2bde339357561988260c15b665a438614",
          "blockNumber": "0x9e841b",
          "blockTimestamp": "0x69a946a0",
          "transactionHash": "0x359b9bf73ac15077bbbd0645c969dc7b9894cd9d1996c4242b1a9b3f0fc0bcba",
          "transactionIndex": "0x45",
          "logIndex": "0xf1",
          "removed": false
        }
      ],
      "logsBloom": "0x00000000000010000000000000000000000000000000000000000000000000000000000000000000000000000000000000000000000000000000000000000000000000000000000000000008000000000000000000000000000000000000000000000000000000000000000000000000000000000000000000000010000000000100000008000001000000080000400000000000000000000000000000000000000000000000000000000000000000000000000040000100001000000000000000000002000001000000000061000001000800008000000000000000000000000000000000000000000080000000000000000000000000000000000400000000",
      "type": "0x2",
      "transactionHash": "0x359b9bf73ac15077bbbd0645c969dc7b9894cd9d1996c4242b1a9b3f0fc0bcba",
      "transactionIndex": "0x45",
      "blockHash": "0x16509708c1f0c5eee8eb25b26f1632a2bde339357561988260c15b665a438614",
      "blockNumber": "0x9e841b",
      "gasUsed": "0x1a8d6",
      "effectiveGasPrice": "0xf424d",
      "from": "0x10db2e70118e5fbeda30391ec957e608c9e4517e",
      "to": "0xa623f32bbcdc5a19919870f1cf66e531a7c3e4ef",
      "contractAddress": null
    }
  ],
  "libraries": [],
  "pending": [],
  "returns": {},
  "timestamp": 1772701346334,
  "chain": 11155111,
  "commit": "024c545"
}