{
  "transactions": [
    {
      "hash": "0xb724eade2b57b8bf97eed7793390f0eb9a98c3074bb2e18cc9d5aa45934e76f9",
      "transactionType": "CALL",
      "contractName": null,
      "contractAddress": "0xbb46678a1f6c527bd79ecfbf85332b8ae83ceaf1",
      "function": "mint(address,uint256)",
      "arguments": [
        "0x474B4E7FD1A143eDea6b77aa845F429D443E6410",
        "4000000000000000000000000"
      ],
      "transaction": {
        "from": "0x993461bbf7e553eb5bd1f5248a72b524c4a3b15d",
        "to": "0xbb46678a1f6c527bd79ecfbf85332b8ae83ceaf1",
        "gas": "0xc681",
        "value": "0x0",
        "input": "0x40c10f19000000000000000000000000474b4e7fd1a143edea6b77aa845f429d443e6410000000000000000000000000000000000000000000034f086f3b33b684000000",
        "nonce": "0x2be",
        "chainId": "0xaa36a7"
      },
      "additionalContracts": [],
      "isFixedGasLimit": false
    },
    {
      "hash": "0x3a2c7e396f860dd6d29adf1ec3ba0e9ac7325107efb35b0b34024190a903aefb",
      "transactionType": "CALL",
      "contractName": null,
      "contractAddress": "0xbb46678a1f6c527bd79ecfbf85332b8ae83ceaf1",
      "function": "mint(address,uint256)",
      "arguments": [
        "0xf68D9e0fAa751AD61e0ED70852798bF9D9C04bF7",
        "4000000000000000000000000"
      ],
      "transaction": {
        "from": "0x993461bbf7e553eb5bd1f5248a72b524c4a3b15d",
        "to": "0xbb46678a1f6c527bd79ecfbf85332b8ae83ceaf1",
        "gas": "0xc681",
        "value": "0x0",
        "input": "0x40c10f19000000000000000000000000f68d9e0faa751ad61e0ed70852798bf9d9c04bf7000000000000000000000000000000000000000000034f086f3b33b684000000",
        "nonce": "0x2bf",
        "chainId": "0xaa36a7"
      },
      "additionalContracts": [],
      "isFixedGasLimit": false
    },
    {
      "hash": "0xfe21f05ff2b2fbc75aca71da39d37aec465d4b6b89fb426280458e4bb20acfef",
      "transactionType": "CALL",
      "contractName": null,
      "contractAddress": "0xbb46678a1f6c527bd79ecfbf85332b8ae83ceaf1",
      "function": "approve(address,uint256)",
      "arguments": [
        "0x7432cD76EF7f361c0510f8572E577858CeCdB2E0",
        "4000000000000000000000000"
      ],
      "transaction": {
        "from": "0x474b4e7fd1a143edea6b77aa845f429d443e6410",
        "to": "0xbb46678a1f6c527bd79ecfbf85332b8ae83ceaf1",
        "gas": "0xfd53",
        "value": "0x0",
        "input": "0x095ea7b30000000000000000000000007432cd76ef7f361c0510f8572e577858cecdb2e0000000000000000000000000000000000000000000034f086f3b33b684000000",
        "nonce": "0x29",
        "chainId": "0xaa36a7"
      },
      "additionalContracts": [],
      "isFixedGasLimit": false
    },
    {
      "hash": "0xda82beafd2f3fb3993fc72f5057521d8f4549e46a8a0012a28f76b7a887905b5",
      "transactionType": "CALL",
      "contractName": "MarginVault",
      "contractAddress": "0x7432cd76ef7f361c0510f8572e577858cecdb2e0",
      "function": "depositMargin(bytes32,address,uint256)",
      "arguments": [
        "0x000000000000000000000000474b4e7fd1a143edea6b77aa845f429d443e6410",
        "0xbb46678a1F6C527bD79eCFBF85332B8Ae83ceaf1",
        "4000000000000000000000000"
      ],
      "transaction": {
        "from": "0x474b4e7fd1a143edea6b77aa845f429d443e6410",
        "to": "0x7432cd76ef7f361c0510f8572e577858cecdb2e0",
        "gas": "0x31e46",
        "value": "0x0",
        "input": "0x6812d315000000000000000000000000474b4e7fd1a143edea6b77aa845f429d443e6410000000000000000000000000bb46678a1f6c527bd79ecfbf85332b8ae83ceaf1000000000000000000000000000000000000000000034f086f3b33b684000000",
        "nonce": "0x2a",
        "chainId": "0xaa36a7"
      },
      "additionalContracts": [],
      "isFixedGasLimit": false
    },
    {
      "hash": "0xb40b16335506ae9e54ba3ddeba7ca48b76dfe90dfaf719fce32dca2e1573b0e1",
      "transactionType": "CALL",
      "contractName": null,
      "contractAddress": "0xbb46678a1f6c527bd79ecfbf85332b8ae83ceaf1",
      "function": "approve(address,uint256)",
      "arguments": [
        "0x7432cD76EF7f361c0510f8572E577858CeCdB2E0",
        "4000000000000000000000000"
      ],
      "transaction": {
        "from": "0xf68d9e0faa751ad61e0ed70852798bf9d9c04bf7",
        "to": "0xbb46678a1f6c527bd79ecfbf85332b8ae83ceaf1",
        "gas": "0xfd53",
        "value": "0x0",
        "input": "0x095ea7b30000000000000000000000007432cd76ef7f361c0510f8572e577858cecdb2e0000000000000000000000000000000000000000000034f086f3b33b684000000",
        "nonce": "0x27",
        "chainId": "0xaa36a7"
      },
      "additionalContracts": [],
      "isFixedGasLimit": false
    },
    {
      "hash": "0x6bdf1fae27f3c941db02b05841c51e37e5e91adcfe51286efaf98fa156526b6d",
      "transactionType": "CALL",
      "contractName": "MarginVault",
      "contractAddress": "0x7432cd76ef7f361c0510f8572e577858cecdb2e0",
      "function": "depositMargin(bytes32,address,uint256)",
      "arguments": [
        "0x000000000000000000000000f68d9e0faa751ad61e0ed70852798bf9d9c04bf7",
        "0xbb46678a1F6C527bD79eCFBF85332B8Ae83ceaf1",
        "4000000000000000000000000"
      ],
      "transaction": {
        "from": "0xf68d9e0faa751ad61e0ed70852798bf9d9c04bf7",
        "to": "0x7432cd76ef7f361c0510f8572e577858cecdb2e0",
        "gas": "0x2c203",
        "value": "0x0",
        "input": "0x6812d315000000000000000000000000f68d9e0faa751ad61e0ed70852798bf9d9c04bf7000000000000000000000000bb46678a1f6c527bd79ecfbf85332b8ae83ceaf1000000000000000000000000000000000000000000034f086f3b33b684000000",
        "nonce": "0x28",
        "chainId": "0xaa36a7"
      },
      "additionalContracts": [],
      "isFixedGasLimit": false
    }
  ],
  "receipts": [
    {
      "status": "0x1",
      "cumulativeGasUsed": "0x695671",
      "logs": [
        {
          "address": "0xbb46678a1f6c527bd79ecfbf85332b8ae83ceaf1",
          "topics": [
            "0xddf252ad1be2c89b69c2b068fc378daa952ba7f163c4a11628f55a4df523b3ef",
            "0x0000000000000000000000000000000000000000000000000000000000000000",
            "0x000000000000000000000000474b4e7fd1a143edea6b77aa845f429d443e6410"
          ],
          "data": "0x000000000000000000000000000000000000000000034f086f3b33b684000000",
          "blockHash": "0x5ec64a7aa62a8e21bf1c11fc0326846f780c335ae91124016e0e80dfd6831dd0",
          "blockNumber": "0x9e4e61",
          "blockTimestamp": "0x69a6aebc",
          "transactionHash": "0xb724eade2b57b8bf97eed7793390f0eb9a98c3074bb2e18cc9d5aa45934e76f9",
          "transactionIndex": "0x50",
          "logIndex": "0x89",
          "removed": false
        }
      ],
      "logsBloom": "0x00000000000000000000000000000000000000000000000000000000000000000000000000000000000000000000000000000000000000000000000000000000000000000000000000000008000000000000000000000000000000000000000000400000020000000000000000000800000000000000000000000010000000000100000008000000000000000000000000000000000000000000000000000000000000000000000000000000000000000000000000000000000100000000000000000002000000000000000000000000000000008000000000000010000020000000000000000000000000000000000000000000000000000000000000000000",
      "type": "0x2",
      "transactionHash": "0xb724eade2b57b8bf97eed7793390f0eb9a98c3074bb2e18cc9d5aa45934e76f9",
      "transactionIndex": "0x50",
      "blockHash": "0x5ec64a7aa62a8e21bf1c11fc0326846f780c335ae91124016e0e80dfd6831dd0",
      "blockNumber": "0x9e4e61",
      "gasUsed": "0x87bb",
      "effectiveGasPrice": "0xf424b",
      "from": "0x993461bbf7e553eb5bd1f5248a72b524c4a3b15d",
      "to": "0xbb46678a1f6c527bd79ecfbf85332b8ae83ceaf1",
      "contractAddress": null
    },
    {
      "status": "0x1",
      "cumulativeGasUsed": "0x5da249",
      "logs": [
        {
          "address": "0xbb46678a1f6c527bd79ecfbf85332b8ae83ceaf1",
          "topics": [
            "0xddf252ad1be2c89b69c2b068fc378daa952ba7f163c4a11628f55a4df523b3ef",
            "0x0000000000000000000000000000000000000000000000000000000000000000",
            "0x000000000000000000000000f68d9e0faa751ad61e0ed70852798bf9d9c04bf7"
          ],
          "data": "0x000000000000000000000000000000000000000000034f086f3b33b684000000",
          "blockHash": "0x436a0332375c110a39b4345531f212f286a00aafd48efd79a9bf3ada433e0b54",
          "blockNumber": "0x9e4e62",
          "blockTimestamp": "0x69a6aec8",
          "transactionHash": "0x3a2c7e396f860dd6d29adf1ec3ba0e9ac7325107efb35b0b34024190a903aefb",
          "transactionIndex": "0x43",
          "logIndex": "0x67",
          "removed": false
        }
      ],
      "logsBloom": "0x00000000000000000000000000000000000000000000000000000000000000800000000000000000000000000000000000000000000000000000000000000000000000000000000000000008000000000000000000000000000000000000000000000000020000000000000000000800000000000000000000000010000000000100000008000000000000000000000000000000000000000000000000000000000000000000000000000000000000000400000000000000000000000000000000000002000000000000000000000001000000008000000000000000000020000000000000000000000000000000000000000000000000000000000000000000",
      "type": "0x2",
      "transactionHash": "0x3a2c7e396f860dd6d29adf1ec3ba0e9ac7325107efb35b0b34024190a903aefb",
      "transactionIndex": "0x43",
      "blockHash": "0x436a0332375c110a39b4345531f212f286a00aafd48efd79a9bf3ada433e0b54",
      "blockNumber": "0x9e4e62",
      "gasUsed": "0x87bb",
      "effectiveGasPrice": "0xf424b",
      "from": "0x993461bbf7e553eb5bd1f5248a72b524c4a3b15d",
      "to": "0xbb46678a1f6c527bd79ecfbf85332b8ae83ceaf1",
      "contractAddress": null
    },
    {
      "status": "0x1",
      "cumulativeGasUsed": "0x9de838",
      "logs": [
        {
          "address": "0xbb46678a1f6c527bd79ecfbf85332b8ae83ceaf1",
          "topics": [
            "0x8c5be1e5ebec7d5bd14f71427d1e84f3dd0314c0f7b2291e5b200ac8c7c3b925",
            "0x000000000000000000000000474b4e7fd1a143edea6b77aa845f429d443e6410",
            "0x0000000000000000000000007432cd76ef7f361c0510f8572e577858cecdb2e0"
          ],
          "data": "0x000000000000000000000000000000000000000000034f086f3b33b684000000",
          "blockHash": "0x12d643899cc82e1c912013799cb5a0fa971d279f3bee1f12979027d08a38b43e",
          "blockNumber": "0x9e4e63",
          "blockTimestamp": "0x69a6aed4",
          "transactionHash": "0xfe21f05ff2b2fbc75aca71da39d37aec465d4b6b89fb426280458e4bb20acfef",
          "transactionIndex": "0x5e",
          "logIndex": "0xab",
          "removed": false
        }
      ],
      "logsBloom": "0x00000000000000000000000000000000000000000000000000000000000000000000000000000000000000000000000000000000000000000000000000200000000000000000000000000000000000000000000000000000000000000000000000400000000000000000000000000000000000000000000000000000000000000500008008000000000000000000000000000000000000000000000000000000020000000000000000000000000000000000000000000000000100000000000000000000000000000000000000000000000000008000000000000010000000000010000000000000000000000000000000000000000000400000000000000000",
      "type": "0x2",
      "transactionHash": "0xfe21f05ff2b2fbc75aca71da39d37aec465d4b6b89fb426280458e4bb20acfef",
      "transactionIndex": "0x5e",
      "blockHash": "0x12d643899cc82e1c912013799cb5a0fa971d279f3bee1f12979027d08a38b43e",
      "blockNumber": "0x9e4e63",
      "gasUsed": "0xb768",
      "effectiveGasPrice": "0xf424a",
      "from": "0x474b4e7fd1a143edea6b77aa845f429d443e6410",
      "to": "0xbb46678a1f6c527bd79ecfbf85332b8ae83ceaf1",
      "contractAddress": null
    },
    {
      "status": "0x1",
      "cumulativeGasUsed": "0xcebc76",
      "logs": [
        {
          "address": "0xbb46678a1f6c527bd79ecfbf85332b8ae83ceaf1",
          "topics": [
            "0xddf252ad1be2c89b69c2b068fc378daa952ba7f163c4a11628f55a4df523b3ef",
            "0x000000000000000000000000474b4e7fd1a143edea6b77aa845f429d443e6410",
            "0x0000000000000000000000007432cd76ef7f361c0510f8572e577858cecdb2e0"
          ],
          "data": "0x000000000000000000000000000000000000000000034f086f3b33b684000000",
          "blockHash": "0xb39eb7b08472df91792a2fba482c183937099a7ffd51c633ff99be368c6082f6",
          "blockNumber": "0x9e4e64",
          "blockTimestamp": "0x69a6aee0",
          "transactionHash": "0xda82beafd2f3fb3993fc72f5057521d8f4549e46a8a0012a28f76b7a887905b5",
          "transactionIndex": "0x50",
          "logIndex": "0x93",
          "removed": false
        },
        {
          "address": "0x7432cd76ef7f361c0510f8572e577858cecdb2e0",
          "topics": [
            "0x30f6180e248310ab0c789da3026fbba7390872be072cfc5b3c20733f3a980c9e",
            "0x000000000000000000000000474b4e7fd1a143edea6b77aa845f429d443e6410",
            "0x000000000000000000000000bb46678a1f6c527bd79ecfbf85332b8ae83ceaf1"
          ],
          "data": "0x000000000000000000000000000000000000000000034f086f3b33b684000000",
          "blockHash": "0xb39eb7b08472df91792a2fba482c183937099a7ffd51c633ff99be368c6082f6",
          "blockNumber": "0x9e4e64",
          "blockTimestamp": "0x69a6aee0",
          "transactionHash": "0xda82beafd2f3fb3993fc72f5057521d8f4549e46a8a0012a28f76b7a887905b5",
          "transactionIndex": "0x50",
          "logIndex": "0x94",
          "removed": false
        }
      ],
      "logsBloom": "0x00000000000000000000000000000000000000000000000000000000000000000000000000000000000000000000000000000000000000000000000000000000000000000000000000000008000000000000000000000000000000000000000000400000000000000000000000000000000000000000000000000010000000000500008008000001000000000000000000000000000000008000000000000000000000000000000000000000000000000000000040000000000100000000000000000002000001000000000000000001000800008000000000000010000000000000000000400000000000000000000000800000000000400000000400000000",
      "type": "0x2",
      "transactionHash": "0xda82beafd2f3fb3993fc72f5057521d8f4549e46a8a0012a28f76b7a887905b5",
      "transactionIndex": "0x50",
      "blockHash": "0xb39eb7b08472df91792a2fba482c183937099a7ffd51c633ff99be368c6082f6",
      "blockNumber": "0x9e4e64",
      "gasUsed": "0x241f0",
      "effectiveGasPrice": "0xf424a",
      "from": "0x474b4e7fd1a143edea6b77aa845f429d443e6410",
      "to": "0x7432cd76ef7f361c0510f8572e577858cecdb2e0",
      "contractAddress": null
    },
    {
      "status": "0x1",
      "cumulativeGasUsed": "0x4ff895",
      "logs": [
        {
          "address": "0xbb46678a1f6c527bd79ecfbf85332b8ae83ceaf1",
          "topics": [
            "0x8c5be1e5ebec7d5bd14f71427d1e84f3dd0314c0f7b2291e5b200ac8c7c3b925",
            "0x000000000000000000000000f68d9e0faa751ad61e0ed70852798bf9d9c04bf7",
            "0x0000000000000000000000007432cd76ef7f361c0510f8572e577858cecdb2e0"
          ],
          "data": "0x000000000000000000000000000000000000000000034f086f3b33b684000000",
          "blockHash": "0xe9380cb6243a1a69f4721977e50ceac9f534c1d6940cd8734663fc9cbaa9a82a",
          "blockNumber": "0x9e4e65",
          "blockTimestamp": "0x69a6aeec",
          "transactionHash": "0xb40b16335506ae9e54ba3ddeba7ca48b76dfe90dfaf719fce32dca2e1573b0e1",
          "transactionIndex": "0x3f",
          "logIndex": "0x5a",
          "removed": false
        }
      ],
      "logsBloom": "0x00000000000000000000000000000000000000000000000000000000000000800000000000000000000000000000000000000000000000000000000000200000000000000000000000000000000000000000000000000000000000000000000000000000000000000000000000000000000000000000000000000000000000000500008008000000000000000000000000000000000000000000000000000000020000000000000000000000000000000400000000000000000000000000000000000000000000000000000000000001000000008000000000000000000000000010000000000000000000000000000000000000000000400000000000000000",
      "type": "0x2",
      "transactionHash": "0xb40b16335506ae9e54ba3ddeba7ca48b76dfe90dfaf719fce32dca2e1573b0e1",
      "transactionIndex": "0x3f",
      "blockHash": "0xe9380cb6243a1a69f4721977e50ceac9f534c1d6940cd8734663fc9cbaa9a82a",
      "blockNumber": "0x9e4e65",
      "gasUsed": "0xb768",
      "effectiveGasPrice": "0xf424a",
      "from": "0xf68d9e0faa751ad61e0ed70852798bf9d9c04bf7",
      "to": "0xbb46678a1f6c527bd79ecfbf85332b8ae83ceaf1",
      "contractAddress": null
    },
    {
      "status": "0x1",
      "cumulativeGasUsed": "0x691631",
      "logs": [
        {
          "address": "0xbb46678a1f6c527bd79ecfbf85332b8ae83ceaf1",
          "topics": [
            "0xddf252ad1be2c89b69c2b068fc378daa952ba7f163c4a11628f55a4df523b3ef",
            "0x000000000000000000000000f68d9e0faa751ad61e0ed70852798bf9d9c04bf7",
            "0x0000000000000000000000007432cd76ef7f361c0510f8572e577858cecdb2e0"
          ],
          "data": "0x000000000000000000000000000000000000000000034f086f3b33b684000000",
          "blockHash": "0xcf425cfe6e31f49467e0aecb52c46d411b75bc7a0e6c60e49e9c26d6ba6aec76",
          "blockNumber": "0x9e4e66",
          "blockTimestamp": "0x69a6aef8",
          "transactionHash": "0x6bdf1fae27f3c941db02b05841c51e37e5e91adcfe51286efaf98fa156526b6d",
          "transactionIndex": "0x52",
          "logIndex": "0x77",
          "removed": false
        },
        {
          "address": "0x7432cd76ef7f361c0510f8572e577858cecdb2e0",
          "topics": [
            "0x30f6180e248310ab0c789da3026fbba7390872be072cfc5b3c20733f3a980c9e",
            "0x000000000000000000000000f68d9e0faa751ad61e0ed70852798bf9d9c04bf7",
            "0x000000000000000000000000bb46678a1f6c527bd79ecfbf85332b8ae83ceaf1"
          ],
          "data": "0x000000000000000000000000000000000000000000034f086f3b33b684000000",
          "blockHash": "0xcf425cfe6e31f49467e0aecb52c46d411b75bc7a0e6c60e49e9c26d6ba6aec76",
          "blockNumber": "0x9e4e66",
          "blockTimestamp": "0x69a6aef8",
          "transactionHash": "0x6bdf1fae27f3c941db02b05841c51e37e5e91adcfe51286efaf98fa156526b6d",
          "transactionIndex": "0x52",
          "logIndex": "0x78",
          "removed": false
        }
      ],
      "logsBloom": "0x00000000000000000000000000000000000000000000000000000000000000800000000000000000000000000000000000000000000000000000000000000000000000000000000000000008000000000000000000000000000000000000000000000000000000000000000000000000000000000000000000000010000000000500008008000001000000000000000000000000000000008000000000000000000000000000000000000000000000000400000040000000000000000000000000000002000001000000000000000001000800008000000000000000000000000000000000400000000000000000000000800000000000400000000400000000",
      "type": "0x2",
      "transactionHash": "0x6bdf1fae27f3c941db02b05841c51e37e5e91adcfe51286efaf98fa156526b6d",
      "transactionIndex": "0x52",
      "blockHash": "0xcf425cfe6e31f49467e0aecb52c46d411b75bc7a0e6c60e49e9c26d6ba6aec76",
      "blockNumber": "0x9e4e66",
      "gasUsed": "0x1ff24",
      "effectiveGasPrice": "0xf424a",
      "from": "0xf68d9e0faa751ad61e0ed70852798bf9d9c04bf7",
      "to": "0x7432cd76ef7f361c0510f8572e577858cecdb2e0",
      "contractAddress": null
    }
  ],
  "libraries": [],
  "pending": [],
  "returns": {},
  "timestamp": 1772531449637,
  "chain": 11155111,
  "commit": "b8160eb"
}