{
  "transactions": [
    {
      "hash": "0x780962f6a0d70a5408306082beb70fa052b0684b5eff644bb61a3c01a30b4aa5",
      "transactionType": "CALL",
      "contractName": null,
      "contractAddress": "0xbb46678a1f6c527bd79ecfbf85332b8ae83ceaf1",
      "function": "mint(address,uint256)",
      "arguments": [
        "0x474B4E7FD1A143eDea6b77aa845F429D443E6410",
        "4000000000000000000000000"
      ],
      "transaction": {
        "from": "0x993461bbf7e553eb5bd1f5248a72b524c4a3b15d",
        "to": "0xbb46678a1f6c527bd79ecfbf85332b8ae83ceaf1",
        "gas": "0xc681",
        "value": "0x0",
        "input": "0x40c10f19000000000000000000000000474b4e7fd1a143edea6b77aa845f429d443e6410000000000000000000000000000000000000000000034f086f3b33b684000000",
        "nonce": "0x5cc",
        "chainId": "0xaa36a7"
      },
      "additionalContracts": [],
      "isFixedGasLimit": false
    },
    {
      "hash": "0xd52cb8ce3874f05ff1f8f8def4a12b6f9db330ac1c3a88158b8917c2fd112e02",
      "transactionType": "CALL",
      "contractName": null,
      "contractAddress": "0xbb46678a1f6c527bd79ecfbf85332b8ae83ceaf1",
      "function": "mint(address,uint256)",
      "arguments": [
        "0xf68D9e0fAa751AD61e0ED70852798bF9D9C04bF7",
        "4000000000000000000000000"
      ],
      "transaction": {
        "from": "0x993461bbf7e553eb5bd1f5248a72b524c4a3b15d",
        "to": "0xbb46678a1f6c527bd79ecfbf85332b8ae83ceaf1",
        "gas": "0xc681",
        "value": "0x0",
        "input": "0x40c10f19000000000000000000000000f68d9e0faa751ad61e0ed70852798bf9d9c04bf7000000000000000000000000000000000000000000034f086f3b33b684000000",
        "nonce": "0x5cd",
        "chainId": "0xaa36a7"
      },
      "additionalContracts": [],
      "isFixedGasLimit": false
    },
    {
      "hash": "0x346783b4bd09ba370cb66132b2c917d3244244bf3e18a9a0d5ceec1b69e3f615",
      "transactionType": "CALL",
      "contractName": null,
      "contractAddress": "0xbb46678a1f6c527bd79ecfbf85332b8ae83ceaf1",
      "function": "mint(address,uint256)",
      "arguments": [
        "0x10Db2E70118e5FBeDa30391ec957e608C9E4517E",
        "4000000000000000000000000"
      ],
      "transaction": {
        "from": "0x993461bbf7e553eb5bd1f5248a72b524c4a3b15d",
        "to": "0xbb46678a1f6c527bd79ecfbf85332b8ae83ceaf1",
        "gas": "0xc681",
        "value": "0x0",
        "input": "0x40c10f1900000000000000000000000010db2e70118e5fbeda30391ec957e608c9e4517e000000000000000000000000000000000000000000034f086f3b33b684000000",
        "nonce": "0x5ce",
        "chainId": "0xaa36a7"
      },
      "additionalContracts": [],
      "isFixedGasLimit": false
    },
    {
      "hash": "0x25e73cf8ecaab11292c8cdb29b24b9c59e981baa019994253474409cab5f7530",
      "transactionType": "CALL",
      "contractName": null,
      "contractAddress": "0xbb46678a1f6c527bd79ecfbf85332b8ae83ceaf1",
      "function": "approve(address,uint256)",
      "arguments": [
        "0xd47395d178492F3b1bC36b7dddFdE93E54025aa6",
        "4000000000000000000000000"
      ],
      "transaction": {
        "from": "0x474b4e7fd1a143edea6b77aa845f429d443e6410",
        "to": "0xbb46678a1f6c527bd79ecfbf85332b8ae83ceaf1",
        "gas": "0xfd53",
        "value": "0x0",
        "input": "0x095ea7b3000000000000000000000000d47395d178492f3b1bc36b7dddfde93e54025aa6000000000000000000000000000000000000000000034f086f3b33b684000000",
        "nonce": "0x6c",
        "chainId": "0xaa36a7"
      },
      "additionalContracts": [],
      "isFixedGasLimit": false
    },
    {
      "hash": "0xe6b881b914ccade46ae3b68c97a0175cf86ffe2f495bac5f97c600ce304ccaff",
      "transactionType": "CALL",
      "contractName": "MarginVault",
      "contractAddress": "0xd47395d178492f3b1bc36b7dddfde93e54025aa6",
      "function": "depositMargin(bytes32,address,uint256)",
      "arguments": [
        "0x000000000000000000000000474b4e7fd1a143edea6b77aa845f429d443e6410",
        "0xbb46678a1F6C527bD79eCFBF85332B8Ae83ceaf1",
        "4000000000000000000000000"
      ],
      "transaction": {
        "from": "0x474b4e7fd1a143edea6b77aa845f429d443e6410",
        "to": "0xd47395d178492f3b1bc36b7dddfde93e54025aa6",
        "gas": "0x2cf03",
        "value": "0x0",
        "input": "0x6812d315000000000000000000000000474b4e7fd1a143edea6b77aa845f429d443e6410000000000000000000000000bb46678a1f6c527bd79ecfbf85332b8ae83ceaf1000000000000000000000000000000000000000000034f086f3b33b684000000",
        "nonce": "0x6d",
        "chainId": "0xaa36a7"
      },
      "additionalContracts": [],
      "isFixedGasLimit": false
    },
    {
      "hash": "0x100787f3d63b4ce1b0063448475e28528c0c5415caf4758f452e6b735222a30e",
      "transactionType": "CALL",
      "contractName": null,
      "contractAddress": "0xbb46678a1f6c527bd79ecfbf85332b8ae83ceaf1",
      "function": "approve(address,uint256)",
      "arguments": [
        "0xd47395d178492F3b1bC36b7dddFdE93E54025aa6",
        "4000000000000000000000000"
      ],
      "transaction": {
        "from": "0xf68d9e0faa751ad61e0ed70852798bf9d9c04bf7",
        "to": "0xbb46678a1f6c527bd79ecfbf85332b8ae83ceaf1",
        "gas": "0xfd53",
        "value": "0x0",
        "input": "0x095ea7b3000000000000000000000000d47395d178492f3b1bc36b7dddfde93e54025aa6000000000000000000000000000000000000000000034f086f3b33b684000000",
        "nonce": "0x67",
        "chainId": "0xaa36a7"
      },
      "additionalContracts": [],
      "isFixedGasLimit": false
    },
    {
      "hash": "0x07d35ac602a4add04d6bc82d7a0bc9b8a448a2d06eee7a7fc21b4a082ec8248a",
      "transactionType": "CALL",
      "contractName": "MarginVault",
      "contractAddress": "0xd47395d178492f3b1bc36b7dddfde93e54025aa6",
      "function": "depositMargin(bytes32,address,uint256)",
      "arguments": [
        "0x000000000000000000000000f68d9e0faa751ad61e0ed70852798bf9d9c04bf7",
        "0xbb46678a1F6C527bD79eCFBF85332B8Ae83ceaf1",
        "4000000000000000000000000"
      ],
      "transaction": {
        "from": "0xf68d9e0faa751ad61e0ed70852798bf9d9c04bf7",
        "to": "0xd47395d178492f3b1bc36b7dddfde93e54025aa6",
        "gas": "0x24acd",
        "value": "0x0",
        "input": "0x6812d315000000000000000000000000f68d9e0faa751ad61e0ed70852798bf9d9c04bf7000000000000000000000000bb46678a1f6c527bd79ecfbf85332b8ae83ceaf1000000000000000000000000000000000000000000034f086f3b33b684000000",
        "nonce": "0x68",
        "chainId": "0xaa36a7"
      },
      "additionalContracts": [],
      "isFixedGasLimit": false
    },
    {
      "hash": "0x3d70cadea9690830f90e0ccddf6497d02dd3ec9c8cb4c8c65aff1c05ac066537",
      "transactionType": "CALL",
      "contractName": null,
      "contractAddress": "0xbb46678a1f6c527bd79ecfbf85332b8ae83ceaf1",
      "function": "approve(address,uint256)",
      "arguments": [
        "0xd47395d178492F3b1bC36b7dddFdE93E54025aa6",
        "4000000000000000000000000"
      ],
      "transaction": {
        "from": "0x10db2e70118e5fbeda30391ec957e608c9e4517e",
        "to": "0xbb46678a1f6c527bd79ecfbf85332b8ae83ceaf1",
        "gas": "0xfd53",
        "value": "0x0",
        "input": "0x095ea7b3000000000000000000000000d47395d178492f3b1bc36b7dddfde93e54025aa6000000000000000000000000000000000000000000034f086f3b33b684000000",
        "nonce": "0x34",
        "chainId": "0xaa36a7"
      },
      "additionalContracts": [],
      "isFixedGasLimit": false
    },
    {
      "hash": "0x0c4c9207ad03c2fcac4a7150044cd249bb35878fe802decff64c2650cab24f1c",
      "transactionType": "CALL",
      "contractName": "MarginVault",
      "contractAddress": "0xd47395d178492f3b1bc36b7dddfde93e54025aa6",
      "function": "depositMargin(bytes32,address,uint256)",
      "arguments": [
        "0x00000000000000000000000010db2e70118e5fbeda30391ec957e608c9e4517e",
        "0xbb46678a1F6C527bD79eCFBF85332B8Ae83ceaf1",
        "4000000000000000000000000"
      ],
      "transaction": {
        "from": "0x10db2e70118e5fbeda30391ec957e608c9e4517e",
        "to": "0xd47395d178492f3b1bc36b7dddfde93e54025aa6",
        "gas": "0x24acd",
        "value": "0x0",
        "input": "0x6812d31500000000000000000000000010db2e70118e5fbeda30391ec957e608c9e4517e000000000000000000000000bb46678a1f6c527bd79ecfbf85332b8ae83ceaf1000000000000000000000000000000000000000000034f086f3b33b684000000",
        "nonce": "0x35",
        "chainId": "0xaa36a7"
      },
      "additionalContracts": [],
      "isFixedGasLimit": false
    }
  ],
  "receipts": [
    {
      "status": "0x1",
      "cumulativeGasUsed": "0x23fbd51",
      "logs": [
        {
          "address": "0xbb46678a1f6c527bd79ecfbf85332b8ae83ceaf1",
          "topics": [
            "0xddf252ad1be2c89b69c2b068fc378daa952ba7f163c4a11628f55a4df523b3ef",
            "0x0000000000000000000000000000000000000000000000000000000000000000",
            "0x000000000000000000000000474b4e7fd1a143edea6b77aa845f429d443e6410"
          ],
          "data": "0x000000000000000000000000000000000000000000034f086f3b33b684000000",
          "blockHash": "0x875378d80f91bd8ab17ef38fc2835086b4073dd410164fdab5aaa604a48c6dd2",
          "blockNumber": "0x9ed029",
          "blockTimestamp": "0x69ad48b8",
          "transactionHash": "0x780962f6a0d70a5408306082beb70fa052b0684b5eff644bb61a3c01a30b4aa5",
          "transactionIndex": "0x9c",
          "logIndex": "0x1c4",
          "removed": false
        }
      ],
      "logsBloom": "0x00000000000000000000000000000000000000000000000000000000000000000000000000000000000000000000000000000000000000000000000000000000000000000000000000000008000000000000000000000000000000000000000000400000020000000000000000000800000000000000000000000010000000000100000008000000000000000000000000000000000000000000000000000000000000000000000000000000000000000000000000000000000100000000000000000002000000000000000000000000000000008000000000000010000020000000000000000000000000000000000000000000000000000000000000000000",
      "type": "0x2",
      "transactionHash": "0x780962f6a0d70a5408306082beb70fa052b0684b5eff644bb61a3c01a30b4aa5",
      "transactionIndex": "0x9c",
      "blockHash": "0x875378d80f91bd8ab17ef38fc2835086b4073dd410164fdab5aaa604a48c6dd2",
      "blockNumber": "0x9ed029",
      "gasUsed": "0x87bb",
      "effectiveGasPrice": "0x400de9f8",
      "from": "0x993461bbf7e553eb5bd1f5248a72b524c4a3b15d",
      "to": "0xbb46678a1f6c527bd79ecfbf85332b8ae83ceaf1",
      "contractAddress": null
    },
    {
      "status": "0x1",
      "cumulativeGasUsed": "0x154d960",
      "logs": [
        {
          "address": "0xbb46678a1f6c527bd79ecfbf85332b8ae83ceaf1",
          "topics": [
            "0xddf252ad1be2c89b69c2b068fc378daa952ba7f163c4a11628f55a4df523b3ef",
            "0x0000000000000000000000000000000000000000000000000000000000000000",
            "0x000000000000000000000000f68d9e0faa751ad61e0ed70852798bf9d9c04bf7"
          ],
          "data": "0x000000000000000000000000000000000000000000034f086f3b33b684000000",
          "blockHash": "0xc766fdab28ea5169bf63687aaa4e932b64c5ab3e6251e22afa4deb904263d8ad",
          "blockNumber": "0x9ed02a",
          "blockTimestamp": "0x69ad48c4",
          "transactionHash": "0xd52cb8ce3874f05ff1f8f8def4a12b6f9db330ac1c3a88158b8917c2fd112e02",
          "transactionIndex": "0x8f",
          "logIndex": "0x1ad",
          "removed": false
        }
      ],
      "logsBloom": "0x00000000000000000000000000000000000000000000000000000000000000800000000000000000000000000000000000000000000000000000000000000000000000000000000000000008000000000000000000000000000000000000000000000000020000000000000000000800000000000000000000000010000000000100000008000000000000000000000000000000000000000000000000000000000000000000000000000000000000000400000000000000000000000000000000000002000000000000000000000001000000008000000000000000000020000000000000000000000000000000000000000000000000000000000000000000",
      "type": "0x2",
      "transactionHash": "0xd52cb8ce3874f05ff1f8f8def4a12b6f9db330ac1c3a88158b8917c2fd112e02",
      "transactionIndex": "0x8f",
      "blockHash": "0xc766fdab28ea5169bf63687aaa4e932b64c5ab3e6251e22afa4deb904263d8ad",
      "blockNumber": "0x9ed02a",
      "gasUsed": "0x87bb",
      "effectiveGasPrice": "0x464379d7",
      "from": "0x993461bbf7e553eb5bd1f5248a72b524c4a3b15d",
      "to": "0xbb46678a1f6c527bd79ecfbf85332b8ae83ceaf1",
      "contractAddress": null
    },
    {
      "status": "0x1",
      "cumulativeGasUsed": "0x20573e7",
      "logs": [
        {
          "address": "0xbb46678a1f6c527bd79ecfbf85332b8ae83ceaf1",
          "topics": [
            "0xddf252ad1be2c89b69c2b068fc378daa952ba7f163c4a11628f55a4df523b3ef",
            "0x0000000000000000000000000000000000000000000000000000000000000000",
            "0x00000000000000000000000010db2e70118e5fbeda30391ec957e608c9e4517e"
          ],
          "data": "0x000000000000000000000000000000000000000000034f086f3b33b684000000",
          "blockHash": "0x974df05fc75ed106054b5dfe3e0b0959196dd60f859188070305db2d1a28b569",
          "blockNumber": "0x9ed02b",
          "blockTimestamp": "0x69ad48d0",
          "transactionHash": "0x346783b4bd09ba370cb66132b2c917d3244244bf3e18a9a0d5ceec1b69e3f615",
          "transactionIndex": "0xb6",
          "logIndex": "0x269",
          "removed": false
        }
      ],
      "logsBloom": "0x00000000000000000000000000000000000000000000000000000000000000000000000000000000000000000000000000000000000000000000000000000000000000000000000000000008000000000000000000000000000000000000000000000000020000000000000000000800000000000000000000000010000000000100000008000000000000000000000000000000000000000000000000000000000000000000000000000000000000000000000000000000000000000000000000000002000000000000000041000000000000008000000000000000000020000000000000000000000080000000000000000000000000000000000000000000",
      "type": "0x2",
      "transactionHash": "0x346783b4bd09ba370cb66132b2c917d3244244bf3e18a9a0d5ceec1b69e3f615",
      "transactionIndex": "0xb6",
      "blockHash": "0x974df05fc75ed106054b5dfe3e0b0959196dd60f859188070305db2d1a28b569",
      "blockNumber": "0x9ed02b",
      "gasUsed": "0x87bb",
      "effectiveGasPrice": "0x451398fb",
      "from": "0x993461bbf7e553eb5bd1f5248a72b524c4a3b15d",
      "to": "0xbb46678a1f6c527bd79ecfbf85332b8ae83ceaf1",
      "contractAddress": null
    },
    {
      "status": "0x1",
      "cumulativeGasUsed": "0x124a492",
      "logs": [
        {
          "address": "0xbb46678a1f6c527bd79ecfbf85332b8ae83ceaf1",
          "topics": [
            "0x8c5be1e5ebec7d5bd14f71427d1e84f3dd0314c0f7b2291e5b200ac8c7c3b925",
            "0x000000000000000000000000474b4e7fd1a143edea6b77aa845f429d443e6410",
            "0x000000000000000000000000d47395d178492f3b1bc36b7dddfde93e54025aa6"
          ],
          "data": "0x000000000000000000000000000000000000000000034f086f3b33b684000000",
          "blockHash": "0x1c3404db95f080d8628d87452d080bb1c29097602e5efbb1798caa8a0f1685c4",
          "blockNumber": "0x9ed02c",
          "blockTimestamp": "0x69ad48dc",
          "transactionHash": "0x25e73cf8ecaab11292c8cdb29b24b9c59e981baa019994253474409cab5f7530",
          "transactionIndex": "0x82",
          "logIndex": "0x166",
          "removed": false
        }
      ],
      "logsBloom": "0x00000000000000000000000000000000000000000000000000000000000000000000000000000000000000000008000000000000000000000000000000200000000000000000000000000000000000000000000000000000000001000000000000400000000000000000000000000000000000000000000000000000000000000100000008000000000000000000000000000000000000000000000000200000020000000000000000000000000000000000000000000000000100000000000000000000000000000000000000000000000000008000000000000010000000000010000000000000000000000000000000000000000000000000000000000000",
      "type": "0x2",
      "transactionHash": "0x25e73cf8ecaab11292c8cdb29b24b9c59e981baa019994253474409cab5f7530",
      "transactionIndex": "0x82",
      "blockHash": "0x1c3404db95f080d8628d87452d080bb1c29097602e5efbb1798caa8a0f1685c4",
      "blockNumber": "0x9ed02c",
      "gasUsed": "0xb768",
      "effectiveGasPrice": "0x46465f91",
      "from": "0x474b4e7fd1a143edea6b77aa845f429d443e6410",
      "to": "0xbb46678a1f6c527bd79ecfbf85332b8ae83ceaf1",
      "contractAddress": null
    },
    {
      "status": "0x1",
      "cumulativeGasUsed": "0x24934b9",
      "logs": [
        {
          "address": "0xbb46678a1f6c527bd79ecfbf85332b8ae83ceaf1",
          "topics": [
            "0xddf252ad1be2c89b69c2b068fc378daa952ba7f163c4a11628f55a4df523b3ef",
            "0x000000000000000000000000474b4e7fd1a143edea6b77aa845f429d443e6410",
            "0x000000000000000000000000d47395d178492f3b1bc36b7dddfde93e54025aa6"
          ],
          "data": "0x000000000000000000000000000000000000000000034f086f3b33b684000000",
          "blockHash": "0x61c9c2480f29aa071c13a1254ce0b14d277648660d4084ad9765a1b19a08b9c7",
          "blockNumber": "0x9ed02d",
          "blockTimestamp": "0x69ad48f4",
          "transactionHash": "0xe6b881b914ccade46ae3b68c97a0175cf86ffe2f495bac5f97c600ce304ccaff",
          "transactionIndex": "0xd5",
          "logIndex": "0x278",
          "removed": false
        },
        {
          "address": "0xd47395d178492f3b1bc36b7dddfde93e54025aa6",
          "topics": [
            "0x30f6180e248310ab0c789da3026fbba7390872be072cfc5b3c20733f3a980c9e",
            "0x000000000000000000000000474b4e7fd1a143edea6b77aa845f429d443e6410",
            "0x000000000000000000000000bb46678a1f6c527bd79ecfbf85332b8ae83ceaf1"
          ],
          "data": "0x000000000000000000000000000000000000000000034f086f3b33b684000000",
          "blockHash": "0x61c9c2480f29aa071c13a1254ce0b14d277648660d4084ad9765a1b19a08b9c7",
          "blockNumber": "0x9ed02d",
          "blockTimestamp": "0x69ad48f4",
          "transactionHash": "0xe6b881b914ccade46ae3b68c97a0175cf86ffe2f495bac5f97c600ce304ccaff",
          "transactionIndex": "0xd5",
          "logIndex": "0x279",
          "removed": false
        }
      ],
      "logsBloom": "0x00000000000000000000000000000000000000000000000000000000000000000000000010000000000002000008000000000000000000002000000000000000000000000000000000000008000000000000000000000000000001000000000000400000000000000000000000000000000000000000000000000010000000000100000008000001000000000000000000000000000000000000000000200000000000000000000000000000000000000000000040000000000100000000000000000002000001000000000000000001000800008000000000000010000000000000000000000000000000000000000000000000000000000000000400000000",
      "type": "0x2",
      "transactionHash": "0xe6b881b914ccade46ae3b68c97a0175cf86ffe2f495bac5f97c600ce304ccaff",
      "transactionIndex": "0xd5",
      "blockHash": "0x61c9c2480f29aa071c13a1254ce0b14d277648660d4084ad9765a1b19a08b9c7",
      "blockNumber": "0x9ed02d",
      "gasUsed": "0x1eba2",
      "effectiveGasPrice": "0x43f17eac",
      "from": "0x474b4e7fd1a143edea6b77aa845f429d443e6410",
      "to": "0xd47395d178492f3b1bc36b7dddfde93e54025aa6",
      "contractAddress": null
    },
    {
      "status": "0x1",
      "cumulativeGasUsed": "0x2063d09",
      "logs": [
        {
          "address": "0xbb46678a1f6c527bd79ecfbf85332b8ae83ceaf1",
          "topics": [
            "0x8c5be1e5ebec7d5bd14f71427d1e84f3dd0314c0f7b2291e5b200ac8c7c3b925",
            "0x000000000000000000000000f68d9e0faa751ad61e0ed70852798bf9d9c04bf7",
            "0x000000000000000000000000d47395d178492f3b1bc36b7dddfde93e54025aa6"
          ],
          "data": "0x000000000000000000000000000000000000000000034f086f3b33b684000000",
          "blockHash": "0x25485f04cafd5ee5c55cfa7af73b01abf3f8647ac7cbfb4056709d67a3fd363a",
          "blockNumber": "0x9ed02e",
          "blockTimestamp": "0x69ad490c",
          "transactionHash": "0x100787f3d63b4ce1b0063448475e28528c0c5415caf4758f452e6b735222a30e",
          "transactionIndex": "0xe5",
          "logIndex": "0x2b6",
          "removed": false
        }
      ],
      "logsBloom": "0x00000000000000000000000000000000000000000000000000000000000000800000000000000000000000000008000000000000000000000000000000200000000000000000000000000000000000000000000000000000000001000000000000000000000000000000000000000000000000000000000000000000000000000100000008000000000000000000000000000000000000000000000000200000020000000000000000000000000000000400000000000000000000000000000000000000000000000000000000000001000000008000000000000000000000000010000000000000000000000000000000000000000000000000000000000000",
      "type": "0x2",
      "transactionHash": "0x100787f3d63b4ce1b0063448475e28528c0c5415caf4758f452e6b735222a30e",
      "transactionIndex": "0xe5",
      "blockHash": "0x25485f04cafd5ee5c55cfa7af73b01abf3f8647ac7cbfb4056709d67a3fd363a",
      "blockNumber": "0x9ed02e",
      "gasUsed": "0xb768",
      "effectiveGasPrice": "0x476baebc",
      "from": "0xf68d9e0faa751ad61e0ed70852798bf9d9c04bf7",
      "to": "0xbb46678a1f6c527bd79ecfbf85332b8ae83ceaf1",
      "contractAddress": null
    },
    {
      "status": "0x1",
      "cumulativeGasUsed": "0x10071c9",
      "logs": [
        {
          "address": "0xbb46678a1f6c527bd79ecfbf85332b8ae83ceaf1",
          "topics": [
            "0xddf252ad1be2c89b69c2b068fc378daa952ba7f163c4a11628f55a4df523b3ef",
            "0x000000000000000000000000f68d9e0faa751ad61e0ed70852798bf9d9c04bf7",
            "0x000000000000000000000000d47395d178492f3b1bc36b7dddfde93e54025aa6"
          ],
          "data": "0x000000000000000000000000000000000000000000034f086f3b33b684000000",
          "blockHash": "0x732309a59208c6179f7ab1e647e5fed1291c79e3277dcfc079e43ee4c6d2e43c",
          "blockNumber": "0x9ed02f",
          "blockTimestamp": "0x69ad4918",
          "transactionHash": "0x07d35ac602a4add04d6bc82d7a0bc9b8a448a2d06eee7a7fc21b4a082ec8248a",
          "transactionIndex": "0x73",
          "logIndex": "0x116",
          "removed": false
        },
        {
          "address": "0xd47395d178492f3b1bc36b7dddfde93e54025aa6",
          "topics": [
            "0x30f6180e248310ab0c789da3026fbba7390872be072cfc5b3c20733f3a980c9e",
            "0x000000000000000000000000f68d9e0faa751ad61e0ed70852798bf9d9c04bf7",
            "0x000000000000000000000000bb46678a1f6c527bd79ecfbf85332b8ae83ceaf1"
          ],
          "data": "0x000000000000000000000000000000000000000000034f086f3b33b684000000",
          "blockHash": "0x732309a59208c6179f7ab1e647e5fed1291c79e3277dcfc079e43ee4c6d2e43c",
          "blockNumber": "0x9ed02f",
          "blockTimestamp": "0x69ad4918",
          "transactionHash": "0x07d35ac602a4add04d6bc82d7a0bc9b8a448a2d06eee7a7fc21b4a082ec8248a",
          "transactionIndex": "0x73",
          "logIndex": "0x117",
          "removed": false
        }
      ],
      "logsBloom": "0x00000000000000000000000000000000000000000000000000000000000000800000000010000000000002000008000000000000000000002000000000000000000000000000000000000008000000000000000000000000000001000000000000000000000000000000000000000000000000000000000000000010000000000100000008000001000000000000000000000000000000000000000000200000000000000000000000000000000000000400000040000000000000000000000000000002000001000000000000000001000800008000000000000000000000000000000000000000000000000000000000000000000000000000000400000000",
      "type": "0x2",
      "transactionHash": "0x07d35ac602a4add04d6bc82d7a0bc9b8a448a2d06eee7a7fc21b4a082ec8248a",
      "transactionIndex": "0x73",
      "blockHash": "0x732309a59208c6179f7ab1e647e5fed1291c79e3277dcfc079e43ee4c6d2e43c",
      "blockNumber": "0x9ed02f",
      "gasUsed": "0x1a8d6",
      "effectiveGasPrice": "0x4a4885b4",
      "from": "0xf68d9e0faa751ad61e0ed70852798bf9d9c04bf7",
      "to": "0xd47395d178492f3b1bc36b7dddfde93e54025aa6",
      "contractAddress": null
    },
    {
      "status": "0x1",
      "cumulativeGasUsed": "0x1931ffa",
      "logs": [
        {
          "address": "0xbb46678a1f6c527bd79ecfbf85332b8ae83ceaf1",
          "topics": [
            "0x8c5be1e5ebec7d5bd14f71427d1e84f3dd0314c0f7b2291e5b200ac8c7c3b925",
            "0x00000000000000000000000010db2e70118e5fbeda30391ec957e608c9e4517e",
            "0x000000000000000000000000d47395d178492f3b1bc36b7dddfde93e54025aa6"
          ],
          "data": "0x000000000000000000000000000000000000000000034f086f3b33b684000000",
          "blockHash": "0x296ad0c9ec04d7f747d33d200373981bdcaf94b17c2c0522e3a902523ea7b296",
          "blockNumber": "0x9ed030",
          "blockTimestamp": "0x69ad4924",
          "transactionHash": "0x3d70cadea9690830f90e0ccddf6497d02dd3ec9c8cb4c8c65aff1c05ac066537",
          "transactionIndex": "0xb3",
          "logIndex": "0x23f",
          "removed": false
        }
      ],
      "logsBloom": "0x00000000000000000000000000000000000000000000000000000000000000000000000000000000000000000008000000000000000000000000000000200000000000000000000000000000000000000000000000000000000001000000000000000000000000000000000000000000000000000000000000000000000000000100000008000000000000000000000000000000000000000000000000200000020000000000000000000000000000000000000000000000000000000000000000000000000000000000000041000000000000008000000000000000000000000010000000000000000080000000000000000000000000000000000000000000",
      "type": "0x2",
      "transactionHash": "0x3d70cadea9690830f90e0ccddf6497d02dd3ec9c8cb4c8c65aff1c05ac066537",
      "transactionIndex": "0xb3",
      "blockHash": "0x296ad0c9ec04d7f747d33d200373981bdcaf94b17c2c0522e3a902523ea7b296",
      "blockNumber": "0x9ed030",
      "gasUsed": "0xb768",
      "effectiveGasPrice": "0x473db3d4",
      "from": "0x10db2e70118e5fbeda30391ec957e608c9e4517e",
      "to": "0xbb46678a1f6c527bd79ecfbf85332b8ae83ceaf1",
      "contractAddress": null
    },
    {
      "status": "0x1",
      "cumulativeGasUsed": "0x1767817",
      "logs": [
        {
          "address": "0xbb46678a1f6c527bd79ecfbf85332b8ae83ceaf1",
          "topics": [
            "0xddf252ad1be2c89b69c2b068fc378daa952ba7f163c4a11628f55a4df523b3ef",
            "0x00000000000000000000000010db2e70118e5fbeda30391ec957e608c9e4517e",
            "0x000000000000000000000000d47395d178492f3b1bc36b7dddfde93e54025aa6"
          ],
          "data": "0x000000000000000000000000000000000000000000034f086f3b33b684000000",
          "blockHash": "0x64c23b707728b9f5d81808ac51301ef4efeb335ee521f96637872930091ceba6",
          "blockNumber": "0x9ed031",
          "blockTimestamp": "0x69ad4930",
          "transactionHash": "0x0c4c9207ad03c2fcac4a7150044cd249bb35878fe802decff64c2650cab24f1c",
          "transactionIndex": "0xb7",
          "logIndex": "0x23a",
          "removed": false
        },
        {
          "address": "0xd47395d178492f3b1bc36b7dddfde93e54025aa6",
          "topics": [
            "0x30f6180e248310ab0c789da3026fbba7390872be072cfc5b3c20733f3a980c9e",
            "0x00000000000000000000000010db2e70118e5fbeda30391ec957e608c9e4517e",
            "0x000000000000000000000000bb46678a1f6c527bd79ecfbf85332b8ae83ceaf1"
          ],
          "data": "0x000000000000000000000000000000000000000000034f086f3b33b684000000",
          "blockHash": "0x64c23b707728b9f5d81808ac51301ef4efeb335ee521f96637872930091ceba6",
          "blockNumber": "0x9ed031",
          "blockTimestamp": "0x69ad4930",
          "transactionHash": "0x0c4c9207ad03c2fcac4a7150044cd249bb35878fe802decff64c2650cab24f1c",
          "transactionIndex": "0xb7",
          "logIndex": "0x23b",
          "removed": false
        }
      ],
      "logsBloom": "0x00000000000000000000000000000000000000000000000000000000000000000000000010000000000002000008000000000000000000002000000000000000000000000000000000000008000000000000000000000000000001000000000000000000000000000000000000000000000000000000000000000010000000000100000008000001000000000000000000000000000000000000000000200000000000000000000000000000000000000000000040000000000000000000000000000002000001000000000041000001000800008000000000000000000000000000000000000000000080000000000000000000000000000000000400000000",
      "type": "0x2",
      "transactionHash": "0x0c4c9207ad03c2fcac4a7150044cd249bb35878fe802decff64c2650cab24f1c",
      "transactionIndex": "0xb7",
      "blockHash": "0x64c23b707728b9f5d81808ac51301ef4efeb335ee521f96637872930091ceba6",
      "blockNumber": "0x9ed031",
      "gasUsed": "0x1a8d6",
      "effectiveGasPrice": "0x46401e5f",
      "from": "0x10db2e70118e5fbeda30391ec957e608c9e4517e",
      "to": "0xd47395d178492f3b1bc36b7dddfde93e54025aa6",
      "contractAddress": null
    }
  ],
  "libraries": [],
  "pending": [],
  "returns": {},
  "timestamp": 1772964144750,
  "chain": 11155111,
  "commit": "eb687bb"
}