{
  "transactions": [
    {
      "hash": "0x8eae7d165c9b2d8d8797b8ead14546177528c9ac837890496712e27257b9205a",
      "transactionType": "CALL",
      "contractName": null,
      "contractAddress": "0xbb46678a1f6c527bd79ecfbf85332b8ae83ceaf1",
      "function": "mint(address,uint256)",
      "arguments": [
        "0x474B4E7FD1A143eDea6b77aa845F429D443E6410",
        "4000000000000000000000000"
      ],
      "transaction": {
        "from": "0x993461bbf7e553eb5bd1f5248a72b524c4a3b15d",
        "to": "0xbb46678a1f6c527bd79ecfbf85332b8ae83ceaf1",
        "gas": "0xc681",
        "value": "0x0",
        "input": "0x40c10f19000000000000000000000000474b4e7fd1a143edea6b77aa845f429d443e6410000000000000000000000000000000000000000000034f086f3b33b684000000",
        "nonce": "0x2a3",
        "chainId": "0xaa36a7"
      },
      "additionalContracts": [],
      "isFixedGasLimit": false
    },
    {
      "hash": "0x06b0c57f3e0431398823bf1aee59a489073f502ad8e491c56b04fdbaf0d74bfa",
      "transactionType": "CALL",
      "contractName": null,
      "contractAddress": "0xbb46678a1f6c527bd79ecfbf85332b8ae83ceaf1",
      "function": "mint(address,uint256)",
      "arguments": [
        "0xf68D9e0fAa751AD61e0ED70852798bF9D9C04bF7",
        "4000000000000000000000000"
      ],
      "transaction": {
        "from": "0x993461bbf7e553eb5bd1f5248a72b524c4a3b15d",
        "to": "0xbb46678a1f6c527bd79ecfbf85332b8ae83ceaf1",
        "gas": "0xc681",
        "value": "0x0",
        "input": "0x40c10f19000000000000000000000000f68d9e0faa751ad61e0ed70852798bf9d9c04bf7000000000000000000000000000000000000000000034f086f3b33b684000000",
        "nonce": "0x2a4",
        "chainId": "0xaa36a7"
      },
      "additionalContracts": [],
      "isFixedGasLimit": false
    },
    {
      "hash": "0xd1b264a1b8c1676136abb74a774c1564d8fb05004d2754fa2cf7478318010935",
      "transactionType": "CALL",
      "contractName": null,
      "contractAddress": "0xbb46678a1f6c527bd79ecfbf85332b8ae83ceaf1",
      "function": "approve(address,uint256)",
      "arguments": [
        "0x9036b1d7B51331d6F517b7081074fE181D494BC6",
        "4000000000000000000000000"
      ],
      "transaction": {
        "from": "0x474b4e7fd1a143edea6b77aa845f429d443e6410",
        "to": "0xbb46678a1f6c527bd79ecfbf85332b8ae83ceaf1",
        "gas": "0xfd53",
        "value": "0x0",
        "input": "0x095ea7b30000000000000000000000009036b1d7b51331d6f517b7081074fe181d494bc6000000000000000000000000000000000000000000034f086f3b33b684000000",
        "nonce": "0x25",
        "chainId": "0xaa36a7"
      },
      "additionalContracts": [],
      "isFixedGasLimit": false
    },
    {
      "hash": "0x9d57e64a0fe4bcd2096dfef95ddc074447e2314ca8bea84008a31716c9a9d08f",
      "transactionType": "CALL",
      "contractName": "MarginVault",
      "contractAddress": "0x9036b1d7b51331d6f517b7081074fe181d494bc6",
      "function": "depositMargin(bytes32,address,uint256)",
      "arguments": [
        "0x000000000000000000000000474b4e7fd1a143edea6b77aa845f429d443e6410",
        "0xbb46678a1F6C527bD79eCFBF85332B8Ae83ceaf1",
        "4000000000000000000000000"
      ],
      "transaction": {
        "from": "0x474b4e7fd1a143edea6b77aa845f429d443e6410",
        "to": "0x9036b1d7b51331d6f517b7081074fe181d494bc6",
        "gas": "0x19d7f",
        "value": "0x0",
        "input": "0x6812d315000000000000000000000000474b4e7fd1a143edea6b77aa845f429d443e6410000000000000000000000000bb46678a1f6c527bd79ecfbf85332b8ae83ceaf1000000000000000000000000000000000000000000034f086f3b33b684000000",
        "nonce": "0x26",
        "chainId": "0xaa36a7"
      },
      "additionalContracts": [],
      "isFixedGasLimit": false
    },
    {
      "hash": "0xbfaa02bd466de7efae46b666b8bf0cad897a1551cdb3de3e091e9ce38d956d50",
      "transactionType": "CALL",
      "contractName": null,
      "contractAddress": "0xbb46678a1f6c527bd79ecfbf85332b8ae83ceaf1",
      "function": "approve(address,uint256)",
      "arguments": [
        "0x9036b1d7B51331d6F517b7081074fE181D494BC6",
        "4000000000000000000000000"
      ],
      "transaction": {
        "from": "0xf68d9e0faa751ad61e0ed70852798bf9d9c04bf7",
        "to": "0xbb46678a1f6c527bd79ecfbf85332b8ae83ceaf1",
        "gas": "0xfd53",
        "value": "0x0",
        "input": "0x095ea7b30000000000000000000000009036b1d7b51331d6f517b7081074fe181d494bc6000000000000000000000000000000000000000000034f086f3b33b684000000",
        "nonce": "0x23",
        "chainId": "0xaa36a7"
      },
      "additionalContracts": [],
      "isFixedGasLimit": false
    },
    {
      "hash": "0xf54056e0540dfe404d93dba3a129f85ab13b619ab8ead3b9e4d69e26e5494542",
      "transactionType": "CALL",
      "contractName": "MarginVault",
      "contractAddress": "0x9036b1d7b51331d6f517b7081074fe181d494bc6",
      "function": "depositMargin(bytes32,address,uint256)",
      "arguments": [
        "0x000000000000000000000000f68d9e0faa751ad61e0ed70852798bf9d9c04bf7",
        "0xbb46678a1F6C527bD79eCFBF85332B8Ae83ceaf1",
        "4000000000000000000000000"
      ],
      "transaction": {
        "from": "0xf68d9e0faa751ad61e0ed70852798bf9d9c04bf7",
        "to": "0x9036b1d7b51331d6f517b7081074fe181d494bc6",
        "gas": "0x19d7f",
        "value": "0x0",
        "input": "0x6812d315000000000000000000000000f68d9e0faa751ad61e0ed70852798bf9d9c04bf7000000000000000000000000bb46678a1f6c527bd79ecfbf85332b8ae83ceaf1000000000000000000000000000000000000000000034f086f3b33b684000000",
        "nonce": "0x24",
        "chainId": "0xaa36a7"
      },
      "additionalContracts": [],
      "isFixedGasLimit": false
    }
  ],
  "receipts": [
    {
      "status": "0x1",
      "cumulativeGasUsed": "0x6a5fce",
      "logs": [
        {
          "address": "0xbb46678a1f6c527bd79ecfbf85332b8ae83ceaf1",
          "topics": [
            "0xddf252ad1be2c89b69c2b068fc378daa952ba7f163c4a11628f55a4df523b3ef",
            "0x0000000000000000000000000000000000000000000000000000000000000000",
            "0x000000000000000000000000474b4e7fd1a143edea6b77aa845f429d443e6410"
          ],
          "data": "0x000000000000000000000000000000000000000000034f086f3b33b684000000",
          "blockHash": "0xd54458734d8ccf1d6c7ab1abbce69206087ae2f3756c19ec566a9c499b239987",
          "blockNumber": "0x9e4d5c",
          "blockTimestamp": "0x69a6a244",
          "transactionHash": "0x8eae7d165c9b2d8d8797b8ead14546177528c9ac837890496712e27257b9205a",
          "transactionIndex": "0x50",
          "logIndex": "0xb0",
          "removed": false
        }
      ],
      "logsBloom": "0x00000000000000000000000000000000000000000000000000000000000000000000000000000000000000000000000000000000000000000000000000000000000000000000000000000008000000000000000000000000000000000000000000400000020000000000000000000800000000000000000000000010000000000100000008000000000000000000000000000000000000000000000000000000000000000000000000000000000000000000000000000000000100000000000000000002000000000000000000000000000000008000000000000010000020000000000000000000000000000000000000000000000000000000000000000000",
      "type": "0x2",
      "transactionHash": "0x8eae7d165c9b2d8d8797b8ead14546177528c9ac837890496712e27257b9205a",
      "transactionIndex": "0x50",
      "blockHash": "0xd54458734d8ccf1d6c7ab1abbce69206087ae2f3756c19ec566a9c499b239987",
      "blockNumber": "0x9e4d5c",
      "gasUsed": "0x87bb",
      "effectiveGasPrice": "0xf4248",
      "from": "0x993461bbf7e553eb5bd1f5248a72b524c4a3b15d",
      "to": "0xbb46678a1f6c527bd79ecfbf85332b8ae83ceaf1",
      "contractAddress": null
    },
    {
      "status": "0x1",
      "cumulativeGasUsed": "0x4e1343",
      "logs": [
        {
          "address": "0xbb46678a1f6c527bd79ecfbf85332b8ae83ceaf1",
          "topics": [
            "0xddf252ad1be2c89b69c2b068fc378daa952ba7f163c4a11628f55a4df523b3ef",
            "0x0000000000000000000000000000000000000000000000000000000000000000",
            "0x000000000000000000000000f68d9e0faa751ad61e0ed70852798bf9d9c04bf7"
          ],
          "data": "0x000000000000000000000000000000000000000000034f086f3b33b684000000",
          "blockHash": "0xf735ece3e8ae4677a509c39754dbbc88ae160b235161e3b50a639883cc557f8f",
          "blockNumber": "0x9e4d5d",
          "blockTimestamp": "0x69a6a250",
          "transactionHash": "0x06b0c57f3e0431398823bf1aee59a489073f502ad8e491c56b04fdbaf0d74bfa",
          "transactionIndex": "0x47",
          "logIndex": "0x5f",
          "removed": false
        }
      ],
      "logsBloom": "0x00000000000000000000000000000000000000000000000000000000000000800000000000000000000000000000000000000000000000000000000000000000000000000000000000000008000000000000000000000000000000000000000000000000020000000000000000000800000000000000000000000010000000000100000008000000000000000000000000000000000000000000000000000000000000000000000000000000000000000400000000000000000000000000000000000002000000000000000000000001000000008000000000000000000020000000000000000000000000000000000000000000000000000000000000000000",
      "type": "0x2",
      "transactionHash": "0x06b0c57f3e0431398823bf1aee59a489073f502ad8e491c56b04fdbaf0d74bfa",
      "transactionIndex": "0x47",
      "blockHash": "0xf735ece3e8ae4677a509c39754dbbc88ae160b235161e3b50a639883cc557f8f",
      "blockNumber": "0x9e4d5d",
      "gasUsed": "0x87bb",
      "effectiveGasPrice": "0xf4248",
      "from": "0x993461bbf7e553eb5bd1f5248a72b524c4a3b15d",
      "to": "0xbb46678a1f6c527bd79ecfbf85332b8ae83ceaf1",
      "contractAddress": null
    },
    {
      "status": "0x1",
      "cumulativeGasUsed": "0x5f7f6e",
      "logs": [
        {
          "address": "0xbb46678a1f6c527bd79ecfbf85332b8ae83ceaf1",
          "topics": [
            "0x8c5be1e5ebec7d5bd14f71427d1e84f3dd0314c0f7b2291e5b200ac8c7c3b925",
            "0x000000000000000000000000474b4e7fd1a143edea6b77aa845f429d443e6410",
            "0x0000000000000000000000009036b1d7b51331d6f517b7081074fe181d494bc6"
          ],
          "data": "0x000000000000000000000000000000000000000000034f086f3b33b684000000",
          "blockHash": "0x21d02eb1e3524a24b86191b86ee3330b6e7707528d0596da8871ceaac3eac86c",
          "blockNumber": "0x9e4d5e",
          "blockTimestamp": "0x69a6a25c",
          "transactionHash": "0xd1b264a1b8c1676136abb74a774c1564d8fb05004d2754fa2cf7478318010935",
          "transactionIndex": "0x53",
          "logIndex": "0x71",
          "removed": false
        }
      ],
      "logsBloom": "0x00000000000000000000080000000000000000000000000000000000000000000000000000000000000000000000000000000000000000000000000000200000000000000000000000000000000000000000000000000000000000000000000000400000008000000000000000000000000000000000000000000000000000000100000008000000000000000000000000000000000000000000000000000000020000000000000000000000000000000000000000000000000100000000000000000000000000000000000000000000000000008000000080000010000000000010000000000000000000000000000000000000000000000000000000000000",
      "type": "0x2",
      "transactionHash": "0xd1b264a1b8c1676136abb74a774c1564d8fb05004d2754fa2cf7478318010935",
      "transactionIndex": "0x53",
      "blockHash": "0x21d02eb1e3524a24b86191b86ee3330b6e7707528d0596da8871ceaac3eac86c",
      "blockNumber": "0x9e4d5e",
      "gasUsed": "0xb768",
      "effectiveGasPrice": "0xf4248",
      "from": "0x474b4e7fd1a143edea6b77aa845f429d443e6410",
      "to": "0xbb46678a1f6c527bd79ecfbf85332b8ae83ceaf1",
      "contractAddress": null
    },
    {
      "status": "0x1",
      "cumulativeGasUsed": "0x839e4c",
      "logs": [
        {
          "address": "0xbb46678a1f6c527bd79ecfbf85332b8ae83ceaf1",
          "topics": [
            "0xddf252ad1be2c89b69c2b068fc378daa952ba7f163c4a11628f55a4df523b3ef",
            "0x000000000000000000000000474b4e7fd1a143edea6b77aa845f429d443e6410",
            "0x0000000000000000000000009036b1d7b51331d6f517b7081074fe181d494bc6"
          ],
          "data": "0x000000000000000000000000000000000000000000034f086f3b33b684000000",
          "blockHash": "0x72e519aabb3f35a9a80467e771d36fcd36eb63d1f4336863af3f9ee1885f96e6",
          "blockNumber": "0x9e4d5f",
          "blockTimestamp": "0x69a6a268",
          "transactionHash": "0x9d57e64a0fe4bcd2096dfef95ddc074447e2314ca8bea84008a31716c9a9d08f",
          "transactionIndex": "0x51",
          "logIndex": "0xa0",
          "removed": false
        },
        {
          "address": "0x9036b1d7b51331d6f517b7081074fe181d494bc6",
          "topics": [
            "0x30f6180e248310ab0c789da3026fbba7390872be072cfc5b3c20733f3a980c9e",
            "0x000000000000000000000000474b4e7fd1a143edea6b77aa845f429d443e6410",
            "0x000000000000000000000000bb46678a1f6c527bd79ecfbf85332b8ae83ceaf1"
          ],
          "data": "0x000000000000000000000000000000000000000000034f086f3b33b684000000",
          "blockHash": "0x72e519aabb3f35a9a80467e771d36fcd36eb63d1f4336863af3f9ee1885f96e6",
          "blockNumber": "0x9e4d5f",
          "blockTimestamp": "0x69a6a268",
          "transactionHash": "0x9d57e64a0fe4bcd2096dfef95ddc074447e2314ca8bea84008a31716c9a9d08f",
          "transactionIndex": "0x51",
          "logIndex": "0xa1",
          "removed": false
        }
      ],
      "logsBloom": "0x00000000000000000000080000000000000000000000000000000000000000000000000000000000000000000000000000000000000000000000000000000000000000000000000000000008000000000000000000000000000000000000000000400000008000000000000000000000000000000000000000000010000000000100000008000001000000000000000000080020000000000000000000000000000000000000000000000000000000000000000040000000000100000000000000000002000001000000000000000001000800008000000080000010000000000000000000000000000000000000000000000000000000000000000400000000",
      "type": "0x2",
      "transactionHash": "0x9d57e64a0fe4bcd2096dfef95ddc074447e2314ca8bea84008a31716c9a9d08f",
      "transactionIndex": "0x51",
      "blockHash": "0x72e519aabb3f35a9a80467e771d36fcd36eb63d1f4336863af3f9ee1885f96e6",
      "blockNumber": "0x9e4d5f",
      "gasUsed": "0x12b5e",
      "effectiveGasPrice": "0xf4248",
      "from": "0x474b4e7fd1a143edea6b77aa845f429d443e6410",
      "to": "0x9036b1d7b51331d6f517b7081074fe181d494bc6",
      "contractAddress": null
    },
    {
      "status": "0x1",
      "cumulativeGasUsed": "0x786b81",
      "logs": [
        {
          "address": "0xbb46678a1f6c527bd79ecfbf85332b8ae83ceaf1",
          "topics": [
            "0x8c5be1e5ebec7d5bd14f71427d1e84f3dd0314c0f7b2291e5b200ac8c7c3b925",
            "0x000000000000000000000000f68d9e0faa751ad61e0ed70852798bf9d9c04bf7",
            "0x0000000000000000000000009036b1d7b51331d6f517b7081074fe181d494bc6"
          ],
          "data": "0x000000000000000000000000000000000000000000034f086f3b33b684000000",
          "blockHash": "0x0f7c390a42781384c8d7a488d285ce225bddfee56034c38c4c225f7d2c7ae392",
          "blockNumber": "0x9e4d60",
          "blockTimestamp": "0x69a6a274",
          "transactionHash": "0xbfaa02bd466de7efae46b666b8bf0cad897a1551cdb3de3e091e9ce38d956d50",
          "transactionIndex": "0x52",
          "logIndex": "0x6f",
          "removed": false
        }
      ],
      "logsBloom": "0x00000000000000000000080000000000000000000000000000000000000000800000000000000000000000000000000000000000000000000000000000200000000000000000000000000000000000000000000000000000000000000000000000000000008000000000000000000000000000000000000000000000000000000100000008000000000000000000000000000000000000000000000000000000020000000000000000000000000000000400000000000000000000000000000000000000000000000000000000000001000000008000000080000000000000000010000000000000000000000000000000000000000000000000000000000000",
      "type": "0x2",
      "transactionHash": "0xbfaa02bd466de7efae46b666b8bf0cad897a1551cdb3de3e091e9ce38d956d50",
      "transactionIndex": "0x52",
      "blockHash": "0x0f7c390a42781384c8d7a488d285ce225bddfee56034c38c4c225f7d2c7ae392",
      "blockNumber": "0x9e4d60",
      "gasUsed": "0xb768",
      "effectiveGasPrice": "0xf4248",
      "from": "0xf68d9e0faa751ad61e0ed70852798bf9d9c04bf7",
      "to": "0xbb46678a1f6c527bd79ecfbf85332b8ae83ceaf1",
      "contractAddress": null
    },
    {
      "status": "0x1",
      "cumulativeGasUsed": "0x70cd84",
      "logs": [
        {
          "address": "0xbb46678a1f6c527bd79ecfbf85332b8ae83ceaf1",
          "topics": [
            "0xddf252ad1be2c89b69c2b068fc378daa952ba7f163c4a11628f55a4df523b3ef",
            "0x000000000000000000000000f68d9e0faa751ad61e0ed70852798bf9d9c04bf7",
            "0x0000000000000000000000009036b1d7b51331d6f517b7081074fe181d494bc6"
          ],
          "data": "0x000000000000000000000000000000000000000000034f086f3b33b684000000",
          "blockHash": "0xd44c95400f57e25757802c0c38953ebb62fafac335c00263f9556dbbc1f7eb07",
          "blockNumber": "0x9e4d61",
          "blockTimestamp": "0x69a6a280",
          "transactionHash": "0xf54056e0540dfe404d93dba3a129f85ab13b619ab8ead3b9e4d69e26e5494542",
          "transactionIndex": "0x55",
          "logIndex": "0x9f",
          "removed": false
        },
        {
          "address": "0x9036b1d7b51331d6f517b7081074fe181d494bc6",
          "topics": [
            "0x30f6180e248310ab0c789da3026fbba7390872be072cfc5b3c20733f3a980c9e",
            "0x000000000000000000000000f68d9e0faa751ad61e0ed70852798bf9d9c04bf7",
            "0x000000000000000000000000bb46678a1f6c527bd79ecfbf85332b8ae83ceaf1"
          ],
          "data": "0x000000000000000000000000000000000000000000034f086f3b33b684000000",
          "blockHash": "0xd44c95400f57e25757802c0c38953ebb62fafac335c00263f9556dbbc1f7eb07",
          "blockNumber": "0x9e4d61",
          "blockTimestamp": "0x69a6a280",
          "transactionHash": "0xf54056e0540dfe404d93dba3a129f85ab13b619ab8ead3b9e4d69e26e5494542",
          "transactionIndex": "0x55",
          "logIndex": "0xa0",
          "removed": false
        }
      ],
      "logsBloom": "0x00000000000000000000080000000000000000000000000000000000000000800000000000000000000000000000000000000000000000000000000000000000000000000000000000000008000000000000000000000000000000000000000000000000008000000000000000000000000000000000000000000010000000000100000008000001000000000000000000080020000000000000000000000000000000000000000000000000000000000400000040000000000000000000000000000002000001000000000000000001000800008000000080000000000000000000000000000000000000000000000000000000000000000000000400000000",
      "type": "0x2",
      "transactionHash": "0xf54056e0540dfe404d93dba3a129f85ab13b619ab8ead3b9e4d69e26e5494542",
      "transactionIndex": "0x55",
      "blockHash": "0xd44c95400f57e25757802c0c38953ebb62fafac335c00263f9556dbbc1f7eb07",
      "blockNumber": "0x9e4d61",
      "gasUsed": "0x12b5e",
      "effectiveGasPrice": "0xf4248",
      "from": "0xf68d9e0faa751ad61e0ed70852798bf9d9c04bf7",
      "to": "0x9036b1d7b51331d6f517b7081074fe181d494bc6",
      "contractAddress": null
    }
  ],
  "libraries": [],
  "pending": [],
  "returns": {},
  "timestamp": 1772528257045,
  "chain": 11155111,
  "commit": "b8160eb"
}