{
  "transactions": [
    {
      "hash": "0x93d733fbb9ed9a04b3434be8b74a80ba76d3d9714eee613417c01352ff803414",
      "transactionType": "CALL",
      "contractName": null,
      "contractAddress": "0xbb46678a1f6c527bd79ecfbf85332b8ae83ceaf1",
      "function": "mint(address,uint256)",
      "arguments": [
        "0x474B4E7FD1A143eDea6b77aa845F429D443E6410",
        "4000000000000000000000000"
      ],
      "transaction": {
        "from": "0x993461bbf7e553eb5bd1f5248a72b524c4a3b15d",
        "to": "0xbb46678a1f6c527bd79ecfbf85332b8ae83ceaf1",
        "gas": "0xc681",
        "value": "0x0",
        "input": "0x40c10f19000000000000000000000000474b4e7fd1a143edea6b77aa845f429d443e6410000000000000000000000000000000000000000000034f086f3b33b684000000",
        "nonce": "0x3ca",
        "chainId": "0xaa36a7"
      },
      "additionalContracts": [],
      "isFixedGasLimit": false
    },
    {
      "hash": "0xe1959a772d1c0e918ed945ced28ee4656fe88b9b037938744643f977340d2c06",
      "transactionType": "CALL",
      "contractName": null,
      "contractAddress": "0xbb46678a1f6c527bd79ecfbf85332b8ae83ceaf1",
      "function": "mint(address,uint256)",
      "arguments": [
        "0xf68D9e0fAa751AD61e0ED70852798bF9D9C04bF7",
        "4000000000000000000000000"
      ],
      "transaction": {
        "from": "0x993461bbf7e553eb5bd1f5248a72b524c4a3b15d",
        "to": "0xbb46678a1f6c527bd79ecfbf85332b8ae83ceaf1",
        "gas": "0xc681",
        "value": "0x0",
        "input": "0x40c10f19000000000000000000000000f68d9e0faa751ad61e0ed70852798bf9d9c04bf7000000000000000000000000000000000000000000034f086f3b33b684000000",
        "nonce": "0x3cb",
        "chainId": "0xaa36a7"
      },
      "additionalContracts": [],
      "isFixedGasLimit": false
    },
    {
      "hash": "0x091a807e90c36c2ab94a92532161f7dd348d8c2dec4b7b6d40c36238770fb73e",
      "transactionType": "CALL",
      "contractName": null,
      "contractAddress": "0xbb46678a1f6c527bd79ecfbf85332b8ae83ceaf1",
      "function": "mint(address,uint256)",
      "arguments": [
        "0x10Db2E70118e5FBeDa30391ec957e608C9E4517E",
        "4000000000000000000000000"
      ],
      "transaction": {
        "from": "0x993461bbf7e553eb5bd1f5248a72b524c4a3b15d",
        "to": "0xbb46678a1f6c527bd79ecfbf85332b8ae83ceaf1",
        "gas": "0xc681",
        "value": "0x0",
        "input": "0x40c10f1900000000000000000000000010db2e70118e5fbeda30391ec957e608c9e4517e000000000000000000000000000000000000000000034f086f3b33b684000000",
        "nonce": "0x3cc",
        "chainId": "0xaa36a7"
      },
      "additionalContracts": [],
      "isFixedGasLimit": false
    },
    {
      "hash": "0xc5c7a1b716562b655b7fc8d192f2448e0a0719010b68d1e081eb256988c0efaf",
      "transactionType": "CALL",
      "contractName": null,
      "contractAddress": "0xbb46678a1f6c527bd79ecfbf85332b8ae83ceaf1",
      "function": "approve(address,uint256)",
      "arguments": [
        "0x47a45c5b6bfbC9711c40b7de3f50ed4aD70bC965",
        "4000000000000000000000000"
      ],
      "transaction": {
        "from": "0x474b4e7fd1a143edea6b77aa845f429d443e6410",
        "to": "0xbb46678a1f6c527bd79ecfbf85332b8ae83ceaf1",
        "gas": "0xfd53",
        "value": "0x0",
        "input": "0x095ea7b300000000000000000000000047a45c5b6bfbc9711c40b7de3f50ed4ad70bc965000000000000000000000000000000000000000000034f086f3b33b684000000",
        "nonce": "0x3c",
        "chainId": "0xaa36a7"
      },
      "additionalContracts": [],
      "isFixedGasLimit": false
    },
    {
      "hash": "0x35d6e46ee439e0d885da5a937a3998885c2f4e71d084219fd9a5d61248b2d5f4",
      "transactionType": "CALL",
      "contractName": "MarginVault",
      "contractAddress": "0x47a45c5b6bfbc9711c40b7de3f50ed4ad70bc965",
      "function": "depositMargin(bytes32,address,uint256)",
      "arguments": [
        "0x000000000000000000000000474b4e7fd1a143edea6b77aa845f429d443e6410",
        "0xbb46678a1F6C527bD79eCFBF85332B8Ae83ceaf1",
        "4000000000000000000000000"
      ],
      "transaction": {
        "from": "0x474b4e7fd1a143edea6b77aa845f429d443e6410",
        "to": "0x47a45c5b6bfbc9711c40b7de3f50ed4ad70bc965",
        "gas": "0x2cf03",
        "value": "0x0",
        "input": "0x6812d315000000000000000000000000474b4e7fd1a143edea6b77aa845f429d443e6410000000000000000000000000bb46678a1f6c527bd79ecfbf85332b8ae83ceaf1000000000000000000000000000000000000000000034f086f3b33b684000000",
        "nonce": "0x3d",
        "chainId": "0xaa36a7"
      },
      "additionalContracts": [],
      "isFixedGasLimit": false
    },
    {
      "hash": "0x4b3602b9c434bbd8856b9b09933b68e06d41865bc67e6941254f9777d1c9c9d8",
      "transactionType": "CALL",
      "contractName": null,
      "contractAddress": "0xbb46678a1f6c527bd79ecfbf85332b8ae83ceaf1",
      "function": "approve(address,uint256)",
      "arguments": [
        "0x47a45c5b6bfbC9711c40b7de3f50ed4aD70bC965",
        "4000000000000000000000000"
      ],
      "transaction": {
        "from": "0xf68d9e0faa751ad61e0ed70852798bf9d9c04bf7",
        "to": "0xbb46678a1f6c527bd79ecfbf85332b8ae83ceaf1",
        "gas": "0xfd53",
        "value": "0x0",
        "input": "0x095ea7b300000000000000000000000047a45c5b6bfbc9711c40b7de3f50ed4ad70bc965000000000000000000000000000000000000000000034f086f3b33b684000000",
        "nonce": "0x3b",
        "chainId": "0xaa36a7"
      },
      "additionalContracts": [],
      "isFixedGasLimit": false
    },
    {
      "hash": "0x8ffb738e89d038ac80315d3f4342208e9544ffb1d481211981e3ed7b0fe0a3a5",
      "transactionType": "CALL",
      "contractName": "MarginVault",
      "contractAddress": "0x47a45c5b6bfbc9711c40b7de3f50ed4ad70bc965",
      "function": "depositMargin(bytes32,address,uint256)",
      "arguments": [
        "0x000000000000000000000000f68d9e0faa751ad61e0ed70852798bf9d9c04bf7",
        "0xbb46678a1F6C527bD79eCFBF85332B8Ae83ceaf1",
        "4000000000000000000000000"
      ],
      "transaction": {
        "from": "0xf68d9e0faa751ad61e0ed70852798bf9d9c04bf7",
        "to": "0x47a45c5b6bfbc9711c40b7de3f50ed4ad70bc965",
        "gas": "0x24acd",
        "value": "0x0",
        "input": "0x6812d315000000000000000000000000f68d9e0faa751ad61e0ed70852798bf9d9c04bf7000000000000000000000000bb46678a1f6c527bd79ecfbf85332b8ae83ceaf1000000000000000000000000000000000000000000034f086f3b33b684000000",
        "nonce": "0x3c",
        "chainId": "0xaa36a7"
      },
      "additionalContracts": [],
      "isFixedGasLimit": false
    },
    {
      "hash": "0x9a1c7b8762b457dd106eb3b99cd81229f19f70231b424260602a3d033aa56658",
      "transactionType": "CALL",
      "contractName": null,
      "contractAddress": "0xbb46678a1f6c527bd79ecfbf85332b8ae83ceaf1",
      "function": "approve(address,uint256)",
      "arguments": [
        "0x47a45c5b6bfbC9711c40b7de3f50ed4aD70bC965",
        "4000000000000000000000000"
      ],
      "transaction": {
        "from": "0x10db2e70118e5fbeda30391ec957e608c9e4517e",
        "to": "0xbb46678a1f6c527bd79ecfbf85332b8ae83ceaf1",
        "gas": "0xfd53",
        "value": "0x0",
        "input": "0x095ea7b300000000000000000000000047a45c5b6bfbc9711c40b7de3f50ed4ad70bc965000000000000000000000000000000000000000000034f086f3b33b684000000",
        "nonce": "0x9",
        "chainId": "0xaa36a7"
      },
      "additionalContracts": [],
      "isFixedGasLimit": false
    },
    {
      "hash": "0xa0c60ebc262da4e5abca980a0f699a2f1feafd8ac4ab27d26e1ef7fe064ad26b",
      "transactionType": "CALL",
      "contractName": "MarginVault",
      "contractAddress": "0x47a45c5b6bfbc9711c40b7de3f50ed4ad70bc965",
      "function": "depositMargin(bytes32,address,uint256)",
      "arguments": [
        "0x00000000000000000000000010db2e70118e5fbeda30391ec957e608c9e4517e",
        "0xbb46678a1F6C527bD79eCFBF85332B8Ae83ceaf1",
        "4000000000000000000000000"
      ],
      "transaction": {
        "from": "0x10db2e70118e5fbeda30391ec957e608c9e4517e",
        "to": "0x47a45c5b6bfbc9711c40b7de3f50ed4ad70bc965",
        "gas": "0x24acd",
        "value": "0x0",
        "input": "0x6812d31500000000000000000000000010db2e70118e5fbeda30391ec957e608c9e4517e000000000000000000000000bb46678a1f6c527bd79ecfbf85332b8ae83ceaf1000000000000000000000000000000000000000000034f086f3b33b684000000",
        "nonce": "0xa",
        "chainId": "0xaa36a7"
      },
      "additionalContracts": [],
      "isFixedGasLimit": false
    }
  ],
  "receipts": [
    {
      "status": "0x1",
      "cumulativeGasUsed": "0xb68601",
      "logs": [
        {
          "address": "0xbb46678a1f6c527bd79ecfbf85332b8ae83ceaf1",
          "topics": [
            "0xddf252ad1be2c89b69c2b068fc378daa952ba7f163c4a11628f55a4df523b3ef",
            "0x0000000000000000000000000000000000000000000000000000000000000000",
            "0x000000000000000000000000474b4e7fd1a143edea6b77aa845f429d443e6410"
          ],
          "data": "0x000000000000000000000000000000000000000000034f086f3b33b684000000",
          "blockHash": "0x5e99e516a2b29ae78ab71f308d3cd3c0788f87cc6b7fd3706cd00ea9d5b8acea",
          "blockNumber": "0x9e6f4b",
          "blockTimestamp": "0x69a845fc",
          "transactionHash": "0x93d733fbb9ed9a04b3434be8b74a80ba76d3d9714eee613417c01352ff803414",
          "transactionIndex": "0x9b",
          "logIndex": "0x103",
          "removed": false
        }
      ],
      "logsBloom": "0x00000000000000000000000000000000000000000000000000000000000000000000000000000000000000000000000000000000000000000000000000000000000000000000000000000008000000000000000000000000000000000000000000400000020000000000000000000800000000000000000000000010000000000100000008000000000000000000000000000000000000000000000000000000000000000000000000000000000000000000000000000000000100000000000000000002000000000000000000000000000000008000000000000010000020000000000000000000000000000000000000000000000000000000000000000000",
      "type": "0x2",
      "transactionHash": "0x93d733fbb9ed9a04b3434be8b74a80ba76d3d9714eee613417c01352ff803414",
      "transactionIndex": "0x9b",
      "blockHash": "0x5e99e516a2b29ae78ab71f308d3cd3c0788f87cc6b7fd3706cd00ea9d5b8acea",
      "blockNumber": "0x9e6f4b",
      "gasUsed": "0x87bb",
      "effectiveGasPrice": "0xf48b3",
      "from": "0x993461bbf7e553eb5bd1f5248a72b524c4a3b15d",
      "to": "0xbb46678a1f6c527bd79ecfbf85332b8ae83ceaf1",
      "contractAddress": null
    },
    {
      "status": "0x1",
      "cumulativeGasUsed": "0x8f6f4e",
      "logs": [
        {
          "address": "0xbb46678a1f6c527bd79ecfbf85332b8ae83ceaf1",
          "topics": [
            "0xddf252ad1be2c89b69c2b068fc378daa952ba7f163c4a11628f55a4df523b3ef",
            "0x0000000000000000000000000000000000000000000000000000000000000000",
            "0x000000000000000000000000f68d9e0faa751ad61e0ed70852798bf9d9c04bf7"
          ],
          "data": "0x000000000000000000000000000000000000000000034f086f3b33b684000000",
          "blockHash": "0xcacafa7b7a8b57f27fe96e692b25e5a8e34f8436e6ea9c6e50abab9cbd6b53db",
          "blockNumber": "0x9e6f4c",
          "blockTimestamp": "0x69a84608",
          "transactionHash": "0xe1959a772d1c0e918ed945ced28ee4656fe88b9b037938744643f977340d2c06",
          "transactionIndex": "0x89",
          "logIndex": "0xfc",
          "removed": false
        }
      ],
      "logsBloom": "0x00000000000000000000000000000000000000000000000000000000000000800000000000000000000000000000000000000000000000000000000000000000000000000000000000000008000000000000000000000000000000000000000000000000020000000000000000000800000000000000000000000010000000000100000008000000000000000000000000000000000000000000000000000000000000000000000000000000000000000400000000000000000000000000000000000002000000000000000000000001000000008000000000000000000020000000000000000000000000000000000000000000000000000000000000000000",
      "type": "0x2",
      "transactionHash": "0xe1959a772d1c0e918ed945ced28ee4656fe88b9b037938744643f977340d2c06",
      "transactionIndex": "0x89",
      "blockHash": "0xcacafa7b7a8b57f27fe96e692b25e5a8e34f8436e6ea9c6e50abab9cbd6b53db",
      "blockNumber": "0x9e6f4c",
      "gasUsed": "0x87bb",
      "effectiveGasPrice": "0xf48b3",
      "from": "0x993461bbf7e553eb5bd1f5248a72b524c4a3b15d",
      "to": "0xbb46678a1f6c527bd79ecfbf85332b8ae83ceaf1",
      "contractAddress": null
    },
    {
      "status": "0x1",
      "cumulativeGasUsed": "0x9eca9d",
      "logs": [
        {
          "address": "0xbb46678a1f6c527bd79ecfbf85332b8ae83ceaf1",
          "topics": [
            "0xddf252ad1be2c89b69c2b068fc378daa952ba7f163c4a11628f55a4df523b3ef",
            "0x0000000000000000000000000000000000000000000000000000000000000000",
            "0x00000000000000000000000010db2e70118e5fbeda30391ec957e608c9e4517e"
          ],
          "data": "0x000000000000000000000000000000000000000000034f086f3b33b684000000",
          "blockHash": "0xb1d359c2cadaf598592c5c729513f646a4177446d6f751e51d6b00710c76f156",
          "blockNumber": "0x9e6f4d",
          "blockTimestamp": "0x69a84614",
          "transactionHash": "0x091a807e90c36c2ab94a92532161f7dd348d8c2dec4b7b6d40c36238770fb73e",
          "transactionIndex": "0x89",
          "logIndex": "0xd0",
          "removed": false
        }
      ],
      "logsBloom": "0x00000000000000000000000000000000000000000000000000000000000000000000000000000000000000000000000000000000000000000000000000000000000000000000000000000008000000000000000000000000000000000000000000000000020000000000000000000800000000000000000000000010000000000100000008000000000000000000000000000000000000000000000000000000000000000000000000000000000000000000000000000000000000000000000000000002000000000000000041000000000000008000000000000000000020000000000000000000000080000000000000000000000000000000000000000000",
      "type": "0x2",
      "transactionHash": "0x091a807e90c36c2ab94a92532161f7dd348d8c2dec4b7b6d40c36238770fb73e",
      "transactionIndex": "0x89",
      "blockHash": "0xb1d359c2cadaf598592c5c729513f646a4177446d6f751e51d6b00710c76f156",
      "blockNumber": "0x9e6f4d",
      "gasUsed": "0x87bb",
      "effectiveGasPrice": "0xf48b3",
      "from": "0x993461bbf7e553eb5bd1f5248a72b524c4a3b15d",
      "to": "0xbb46678a1f6c527bd79ecfbf85332b8ae83ceaf1",
      "contractAddress": null
    },
    {
      "status": "0x1",
      "cumulativeGasUsed": "0x90bd25",
      "logs": [
        {
          "address": "0xbb46678a1f6c527bd79ecfbf85332b8ae83ceaf1",
          "topics": [
            "0x8c5be1e5ebec7d5bd14f71427d1e84f3dd0314c0f7b2291e5b200ac8c7c3b925",
            "0x000000000000000000000000474b4e7fd1a143edea6b77aa845f429d443e6410",
            "0x00000000000000000000000047a45c5b6bfbc9711c40b7de3f50ed4ad70bc965"
          ],
          "data": "0x000000000000000000000000000000000000000000034f086f3b33b684000000",
          "blockHash": "0x3f24a367201dc9d5a934620fc1a79c414b99784226bb366deb48b311515a0582",
          "blockNumber": "0x9e6f4e",
          "blockTimestamp": "0x69a84620",
          "transactionHash": "0xc5c7a1b716562b655b7fc8d192f2448e0a0719010b68d1e081eb256988c0efaf",
          "transactionIndex": "0x95",
          "logIndex": "0xc7",
          "removed": false
        }
      ],
      "logsBloom": "0x00000000000000000000000000000000000000000000000000000000000000000000000000000000000000000000000000000000000000000000000000200000000000000000000000000000000000000000000000000000000000000000000000400000000000000000000000000000000000000000000800000000000000000100008008000000000000000000000000000000000000000000000000000000020000000000000000000000000000000000000000000000000100000000000000000000000000000000000000000000000000008000000000000010000000000010000400000000000000000000000000000000000000000000000000000000",
      "type": "0x2",
      "transactionHash": "0xc5c7a1b716562b655b7fc8d192f2448e0a0719010b68d1e081eb256988c0efaf",
      "transactionIndex": "0x95",
      "blockHash": "0x3f24a367201dc9d5a934620fc1a79c414b99784226bb366deb48b311515a0582",
      "blockNumber": "0x9e6f4e",
      "gasUsed": "0xb768",
      "effectiveGasPrice": "0xf48b3",
      "from": "0x474b4e7fd1a143edea6b77aa845f429d443e6410",
      "to": "0xbb46678a1f6c527bd79ecfbf85332b8ae83ceaf1",
      "contractAddress": null
    },
    {
      "status": "0x1",
      "cumulativeGasUsed": "0x116283e",
      "logs": [
        {
          "address": "0xbb46678a1f6c527bd79ecfbf85332b8ae83ceaf1",
          "topics": [
            "0xddf252ad1be2c89b69c2b068fc378daa952ba7f163c4a11628f55a4df523b3ef",
            "0x000000000000000000000000474b4e7fd1a143edea6b77aa845f429d443e6410",
            "0x00000000000000000000000047a45c5b6bfbc9711c40b7de3f50ed4ad70bc965"
          ],
          "data": "0x000000000000000000000000000000000000000000034f086f3b33b684000000",
          "blockHash": "0x3baf81ca56d01b10f97b33f3676d50303997f0d5664c6ae3cfe940fd656b666e",
          "blockNumber": "0x9e6f4f",
          "blockTimestamp": "0x69a8462c",
          "transactionHash": "0x35d6e46ee439e0d885da5a937a3998885c2f4e71d084219fd9a5d61248b2d5f4",
          "transactionIndex": "0xaa",
          "logIndex": "0x1ff",
          "removed": false
        },
        {
          "address": "0x47a45c5b6bfbc9711c40b7de3f50ed4ad70bc965",
          "topics": [
            "0x30f6180e248310ab0c789da3026fbba7390872be072cfc5b3c20733f3a980c9e",
            "0x000000000000000000000000474b4e7fd1a143edea6b77aa845f429d443e6410",
            "0x000000000000000000000000bb46678a1f6c527bd79ecfbf85332b8ae83ceaf1"
          ],
          "data": "0x000000000000000000000000000000000000000000034f086f3b33b684000000",
          "blockHash": "0x3baf81ca56d01b10f97b33f3676d50303997f0d5664c6ae3cfe940fd656b666e",
          "blockNumber": "0x9e6f4f",
          "blockTimestamp": "0x69a8462c",
          "transactionHash": "0x35d6e46ee439e0d885da5a937a3998885c2f4e71d084219fd9a5d61248b2d5f4",
          "transactionIndex": "0xaa",
          "logIndex": "0x200",
          "removed": false
        }
      ],
      "logsBloom": "0x00020000000000000000000000000000000000000000000000000000000000000000000000000000000000000000000000000000000000000000000000000000000000000000000000000008000000000000000000000000000000000000000020400000000000000000000000000000000000000000000800000010000000000100008008000001000000000000000000000000000000000000000000000000000000000000000000000000000000008000000040000000000100000000000000000002000001000000000000000001000800008000000000000010000000000000000400000000000000000000000000000000000000000000000400000000",
      "type": "0x2",
      "transactionHash": "0x35d6e46ee439e0d885da5a937a3998885c2f4e71d084219fd9a5d61248b2d5f4",
      "transactionIndex": "0xaa",
      "blockHash": "0x3baf81ca56d01b10f97b33f3676d50303997f0d5664c6ae3cfe940fd656b666e",
      "blockNumber": "0x9e6f4f",
      "gasUsed": "0x1eba2",
      "effectiveGasPrice": "0xf48b3",
      "from": "0x474b4e7fd1a143edea6b77aa845f429d443e6410",
      "to": "0x47a45c5b6bfbc9711c40b7de3f50ed4ad70bc965",
      "contractAddress": null
    },
    {
      "status": "0x1",
      "cumulativeGasUsed": "0x9a764b",
      "logs": [
        {
          "address": "0xbb46678a1f6c527bd79ecfbf85332b8ae83ceaf1",
          "topics": [
            "0x8c5be1e5ebec7d5bd14f71427d1e84f3dd0314c0f7b2291e5b200ac8c7c3b925",
            "0x000000000000000000000000f68d9e0faa751ad61e0ed70852798bf9d9c04bf7",
            "0x00000000000000000000000047a45c5b6bfbc9711c40b7de3f50ed4ad70bc965"
          ],
          "data": "0x000000000000000000000000000000000000000000034f086f3b33b684000000",
          "blockHash": "0x12b3b9970c7c78bb6732df44c52c3c5c1237568587569b58ca9590222e098380",
          "blockNumber": "0x9e6f50",
          "blockTimestamp": "0x69a84638",
          "transactionHash": "0x4b3602b9c434bbd8856b9b09933b68e06d41865bc67e6941254f9777d1c9c9d8",
          "transactionIndex": "0x74",
          "logIndex": "0x113",
          "removed": false
        }
      ],
      "logsBloom": "0x00000000000000000000000000000000000000000000000000000000000000800000000000000000000000000000000000000000000000000000000000200000000000000000000000000000000000000000000000000000000000000000000000000000000000000000000000000000000000000000000800000000000000000100008008000000000000000000000000000000000000000000000000000000020000000000000000000000000000000400000000000000000000000000000000000000000000000000000000000001000000008000000000000000000000000010000400000000000000000000000000000000000000000000000000000000",
      "type": "0x2",
      "transactionHash": "0x4b3602b9c434bbd8856b9b09933b68e06d41865bc67e6941254f9777d1c9c9d8",
      "transactionIndex": "0x74",
      "blockHash": "0x12b3b9970c7c78bb6732df44c52c3c5c1237568587569b58ca9590222e098380",
      "blockNumber": "0x9e6f50",
      "gasUsed": "0xb768",
      "effectiveGasPrice": "0xf48b3",
      "from": "0xf68d9e0faa751ad61e0ed70852798bf9d9c04bf7",
      "to": "0xbb46678a1f6c527bd79ecfbf85332b8ae83ceaf1",
      "contractAddress": null
    },
    {
      "status": "0x1",
      "cumulativeGasUsed": "0x165852d",
      "logs": [
        {
          "address": "0xbb46678a1f6c527bd79ecfbf85332b8ae83ceaf1",
          "topics": [
            "0xddf252ad1be2c89b69c2b068fc378daa952ba7f163c4a11628f55a4df523b3ef",
            "0x000000000000000000000000f68d9e0faa751ad61e0ed70852798bf9d9c04bf7",
            "0x00000000000000000000000047a45c5b6bfbc9711c40b7de3f50ed4ad70bc965"
          ],
          "data": "0x000000000000000000000000000000000000000000034f086f3b33b684000000",
          "blockHash": "0xd65e42259f38867240af6c844c4a2d7a6a9b0335da87b0856fb6ba7f82bea4ae",
          "blockNumber": "0x9e6f51",
          "blockTimestamp": "0x69a84650",
          "transactionHash": "0x8ffb738e89d038ac80315d3f4342208e9544ffb1d481211981e3ed7b0fe0a3a5",
          "transactionIndex": "0x11b",
          "logIndex": "0x221",
          "removed": false
        },
        {
          "address": "0x47a45c5b6bfbc9711c40b7de3f50ed4ad70bc965",
          "topics": [
            "0x30f6180e248310ab0c789da3026fbba7390872be072cfc5b3c20733f3a980c9e",
            "0x000000000000000000000000f68d9e0faa751ad61e0ed70852798bf9d9c04bf7",
            "0x000000000000000000000000bb46678a1f6c527bd79ecfbf85332b8ae83ceaf1"
          ],
          "data": "0x000000000000000000000000000000000000000000034f086f3b33b684000000",
          "blockHash": "0xd65e42259f38867240af6c844c4a2d7a6a9b0335da87b0856fb6ba7f82bea4ae",
          "blockNumber": "0x9e6f51",
          "blockTimestamp": "0x69a84650",
          "transactionHash": "0x8ffb738e89d038ac80315d3f4342208e9544ffb1d481211981e3ed7b0fe0a3a5",
          "transactionIndex": "0x11b",
          "logIndex": "0x222",
          "removed": false
        }
      ],
      "logsBloom": "0x00020000000000000000000000000000000000000000000000000000000000800000000000000000000000000000000000000000000000000000000000000000000000000000000000000008000000000000000000000000000000000000000020000000000000000000000000000000000000000000000800000010000000000100008008000001000000000000000000000000000000000000000000000000000000000000000000000000000000008400000040000000000000000000000000000002000001000000000000000001000800008000000000000000000000000000000400000000000000000000000000000000000000000000000400000000",
      "type": "0x2",
      "transactionHash": "0x8ffb738e89d038ac80315d3f4342208e9544ffb1d481211981e3ed7b0fe0a3a5",
      "transactionIndex": "0x11b",
      "blockHash": "0xd65e42259f38867240af6c844c4a2d7a6a9b0335da87b0856fb6ba7f82bea4ae",
      "blockNumber": "0x9e6f51",
      "gasUsed": "0x1a8d6",
      "effectiveGasPrice": "0xf48b3",
      "from": "0xf68d9e0faa751ad61e0ed70852798bf9d9c04bf7",
      "to": "0x47a45c5b6bfbc9711c40b7de3f50ed4ad70bc965",
      "contractAddress": null
    },
    {
      "status": "0x1",
      "cumulativeGasUsed": "0xb060ab",
      "logs": [
        {
          "address": "0xbb46678a1f6c527bd79ecfbf85332b8ae83ceaf1",
          "topics": [
            "0x8c5be1e5ebec7d5bd14f71427d1e84f3dd0314c0f7b2291e5b200ac8c7c3b925",
            "0x00000000000000000000000010db2e70118e5fbeda30391ec957e608c9e4517e",
            "0x00000000000000000000000047a45c5b6bfbc9711c40b7de3f50ed4ad70bc965"
          ],
          "data": "0x000000000000000000000000000000000000000000034f086f3b33b684000000",
          "blockHash": "0x3949268405f48ab177254738037d9ae3b8069a19940dafca94b0dd13285e0401",
          "blockNumber": "0x9e6f52",
          "blockTimestamp": "0x69a8465c",
          "transactionHash": "0x9a1c7b8762b457dd106eb3b99cd81229f19f70231b424260602a3d033aa56658",
          "transactionIndex": "0x9a",
          "logIndex": "0xee",
          "removed": false
        }
      ],
      "logsBloom": "0x00000000000000000000000000000000000000000000000000000000000000000000000000000000000000000000000000000000000000000000000000200000000000000000000000000000000000000000000000000000000000000000000000000000000000000000000000000000000000000000000800000000000000000100008008000000000000000000000000000000000000000000000000000000020000000000000000000000000000000000000000000000000000000000000000000000000000000000000041000000000000008000000000000000000000000010000400000000000080000000000000000000000000000000000000000000",
      "type": "0x2",
      "transactionHash": "0x9a1c7b8762b457dd106eb3b99cd81229f19f70231b424260602a3d033aa56658",
      "transactionIndex": "0x9a",
      "blockHash": "0x3949268405f48ab177254738037d9ae3b8069a19940dafca94b0dd13285e0401",
      "blockNumber": "0x9e6f52",
      "gasUsed": "0xb768",
      "effectiveGasPrice": "0xf48b4",
      "from": "0x10db2e70118e5fbeda30391ec957e608c9e4517e",
      "to": "0xbb46678a1f6c527bd79ecfbf85332b8ae83ceaf1",
      "contractAddress": null
    },
    {
      "status": "0x1",
      "cumulativeGasUsed": "0xc5df0b",
      "logs": [
        {
          "address": "0xbb46678a1f6c527bd79ecfbf85332b8ae83ceaf1",
          "topics": [
            "0xddf252ad1be2c89b69c2b068fc378daa952ba7f163c4a11628f55a4df523b3ef",
            "0x00000000000000000000000010db2e70118e5fbeda30391ec957e608c9e4517e",
            "0x00000000000000000000000047a45c5b6bfbc9711c40b7de3f50ed4ad70bc965"
          ],
          "data": "0x000000000000000000000000000000000000000000034f086f3b33b684000000",
          "blockHash": "0x561bf3f37b6d204283315146d66cabfa25ce3b1065bd78b9f464d413143d8669",
          "blockNumber": "0x9e6f53",
          "blockTimestamp": "0x69a84668",
          "transactionHash": "0xa0c60ebc262da4e5abca980a0f699a2f1feafd8ac4ab27d26e1ef7fe064ad26b",
          "transactionIndex": "0x80",
          "logIndex": "0xdd",
          "removed": false
        },
        {
          "address": "0x47a45c5b6bfbc9711c40b7de3f50ed4ad70bc965",
          "topics": [
            "0x30f6180e248310ab0c789da3026fbba7390872be072cfc5b3c20733f3a980c9e",
            "0x00000000000000000000000010db2e70118e5fbeda30391ec957e608c9e4517e",
            "0x000000000000000000000000bb46678a1f6c527bd79ecfbf85332b8ae83ceaf1"
          ],
          "data": "0x000000000000000000000000000000000000000000034f086f3b33b684000000",
          "blockHash": "0x561bf3f37b6d204283315146d66cabfa25ce3b1065bd78b9f464d413143d8669",
          "blockNumber": "0x9e6f53",
          "blockTimestamp": "0x69a84668",
          "transactionHash": "0xa0c60ebc262da4e5abca980a0f699a2f1feafd8ac4ab27d26e1ef7fe064ad26b",
          "transactionIndex": "0x80",
          "logIndex": "0xde",
          "removed": false
        }
      ],
      "logsBloom": "0x00020000000000000000000000000000000000000000000000000000000000000000000000000000000000000000000000000000000000000000000000000000000000000000000000000008000000000000000000000000000000000000000020000000000000000000000000000000000000000000000800000010000000000100008008000001000000000000000000000000000000000000000000000000000000000000000000000000000000008000000040000000000000000000000000000002000001000000000041000001000800008000000000000000000000000000000400000000000080000000000000000000000000000000000400000000",
      "type": "0x2",
      "transactionHash": "0xa0c60ebc262da4e5abca980a0f699a2f1feafd8ac4ab27d26e1ef7fe064ad26b",
      "transactionIndex": "0x80",
      "blockHash": "0x561bf3f37b6d204283315146d66cabfa25ce3b1065bd78b9f464d413143d8669",
      "blockNumber": "0x9e6f53",
      "gasUsed": "0x1a8d6",
      "effectiveGasPrice": "0xf48b4",
      "from": "0x10db2e70118e5fbeda30391ec957e608c9e4517e",
      "to": "0x47a45c5b6bfbc9711c40b7de3f50ed4ad70bc965",
      "contractAddress": null
    }
  ],
  "libraries": [],
  "pending": [],
  "returns": {},
  "timestamp": 1772635754208,
  "chain": 11155111,
  "commit": "7621ae8"
}