{
  "transactions": [
    {
      "hash": "0xc593642d3629dbb5aeb2cf807e3a08416519a079bb99790a523e16223516c7ac",
      "transactionType": "CALL",
      "contractName": null,
      "contractAddress": "0xbb46678a1f6c527bd79ecfbf85332b8ae83ceaf1",
      "function": "mint(address,uint256)",
      "arguments": [
        "0x474B4E7FD1A143eDea6b77aa845F429D443E6410",
        "4000000000000000000000000"
      ],
      "transaction": {
        "from": "0x993461bbf7e553eb5bd1f5248a72b524c4a3b15d",
        "to": "0xbb46678a1f6c527bd79ecfbf85332b8ae83ceaf1",
        "gas": "0xc681",
        "value": "0x0",
        "input": "0x40c10f19000000000000000000000000474b4e7fd1a143edea6b77aa845f429d443e6410000000000000000000000000000000000000000000034f086f3b33b684000000",
        "nonce": "0x2da",
        "chainId": "0xaa36a7"
      },
      "additionalContracts": [],
      "isFixedGasLimit": false
    },
    {
      "hash": "0x9980e3c6ad38a992993eca97651161856f9f95a8c523a8196c1a8ced33b256e3",
      "transactionType": "CALL",
      "contractName": null,
      "contractAddress": "0xbb46678a1f6c527bd79ecfbf85332b8ae83ceaf1",
      "function": "mint(address,uint256)",
      "arguments": [
        "0xf68D9e0fAa751AD61e0ED70852798bF9D9C04bF7",
        "4000000000000000000000000"
      ],
      "transaction": {
        "from": "0x993461bbf7e553eb5bd1f5248a72b524c4a3b15d",
        "to": "0xbb46678a1f6c527bd79ecfbf85332b8ae83ceaf1",
        "gas": "0xc681",
        "value": "0x0",
        "input": "0x40c10f19000000000000000000000000f68d9e0faa751ad61e0ed70852798bf9d9c04bf7000000000000000000000000000000000000000000034f086f3b33b684000000",
        "nonce": "0x2db",
        "chainId": "0xaa36a7"
      },
      "additionalContracts": [],
      "isFixedGasLimit": false
    },
    {
      "hash": "0xd0867746517c996e01cb5c517341ccf274b2126e82efb6387b122acb2b8fef25",
      "transactionType": "CALL",
      "contractName": null,
      "contractAddress": "0xbb46678a1f6c527bd79ecfbf85332b8ae83ceaf1",
      "function": "approve(address,uint256)",
      "arguments": [
        "0x46581C3B8aE1b92f773d966b39531d8Fb803d71f",
        "4000000000000000000000000"
      ],
      "transaction": {
        "from": "0x474b4e7fd1a143edea6b77aa845f429d443e6410",
        "to": "0xbb46678a1f6c527bd79ecfbf85332b8ae83ceaf1",
        "gas": "0xfd53",
        "value": "0x0",
        "input": "0x095ea7b300000000000000000000000046581c3b8ae1b92f773d966b39531d8fb803d71f000000000000000000000000000000000000000000034f086f3b33b684000000",
        "nonce": "0x2e",
        "chainId": "0xaa36a7"
      },
      "additionalContracts": [],
      "isFixedGasLimit": false
    },
    {
      "hash": "0xc52f7752fe95fe7edd301b5f61ee2e28b442831fd5ba6562c789022d397ffb5c",
      "transactionType": "CALL",
      "contractName": "MarginVault",
      "contractAddress": "0x46581c3b8ae1b92f773d966b39531d8fb803d71f",
      "function": "depositMargin(bytes32,address,uint256)",
      "arguments": [
        "0x000000000000000000000000474b4e7fd1a143edea6b77aa845f429d443e6410",
        "0xbb46678a1F6C527bD79eCFBF85332B8Ae83ceaf1",
        "4000000000000000000000000"
      ],
      "transaction": {
        "from": "0x474b4e7fd1a143edea6b77aa845f429d443e6410",
        "to": "0x46581c3b8ae1b92f773d966b39531d8fb803d71f",
        "gas": "0x25bc0",
        "value": "0x0",
        "input": "0x6812d315000000000000000000000000474b4e7fd1a143edea6b77aa845f429d443e6410000000000000000000000000bb46678a1f6c527bd79ecfbf85332b8ae83ceaf1000000000000000000000000000000000000000000034f086f3b33b684000000",
        "nonce": "0x2f",
        "chainId": "0xaa36a7"
      },
      "additionalContracts": [],
      "isFixedGasLimit": false
    },
    {
      "hash": "0x126b3e01d6cf691337e54cb4999dc93a16b315c10298678534561f5545957572",
      "transactionType": "CALL",
      "contractName": null,
      "contractAddress": "0xbb46678a1f6c527bd79ecfbf85332b8ae83ceaf1",
      "function": "approve(address,uint256)",
      "arguments": [
        "0x46581C3B8aE1b92f773d966b39531d8Fb803d71f",
        "4000000000000000000000000"
      ],
      "transaction": {
        "from": "0xf68d9e0faa751ad61e0ed70852798bf9d9c04bf7",
        "to": "0xbb46678a1f6c527bd79ecfbf85332b8ae83ceaf1",
        "gas": "0xfd53",
        "value": "0x0",
        "input": "0x095ea7b300000000000000000000000046581c3b8ae1b92f773d966b39531d8fb803d71f000000000000000000000000000000000000000000034f086f3b33b684000000",
        "nonce": "0x2c",
        "chainId": "0xaa36a7"
      },
      "additionalContracts": [],
      "isFixedGasLimit": false
    },
    {
      "hash": "0x2f9c4ec0da7d81c5ac1eb07ed2c8add8a8daac3d09e341db7239dca1b8ae4146",
      "transactionType": "CALL",
      "contractName": "MarginVault",
      "contractAddress": "0x46581c3b8ae1b92f773d966b39531d8fb803d71f",
      "function": "depositMargin(bytes32,address,uint256)",
      "arguments": [
        "0x000000000000000000000000f68d9e0faa751ad61e0ed70852798bf9d9c04bf7",
        "0xbb46678a1F6C527bD79eCFBF85332B8Ae83ceaf1",
        "4000000000000000000000000"
      ],
      "transaction": {
        "from": "0xf68d9e0faa751ad61e0ed70852798bf9d9c04bf7",
        "to": "0x46581c3b8ae1b92f773d966b39531d8fb803d71f",
        "gas": "0x1ddf2",
        "value": "0x0",
        "input": "0x6812d315000000000000000000000000f68d9e0faa751ad61e0ed70852798bf9d9c04bf7000000000000000000000000bb46678a1f6c527bd79ecfbf85332b8ae83ceaf1000000000000000000000000000000000000000000034f086f3b33b684000000",
        "nonce": "0x2d",
        "chainId": "0xaa36a7"
      },
      "additionalContracts": [],
      "isFixedGasLimit": false
    }
  ],
  "receipts": [
    {
      "status": "0x1",
      "cumulativeGasUsed": "0x10f7f65",
      "logs": [
        {
          "address": "0xbb46678a1f6c527bd79ecfbf85332b8ae83ceaf1",
          "topics": [
            "0xddf252ad1be2c89b69c2b068fc378daa952ba7f163c4a11628f55a4df523b3ef",
            "0x0000000000000000000000000000000000000000000000000000000000000000",
            "0x000000000000000000000000474b4e7fd1a143edea6b77aa845f429d443e6410"
          ],
          "data": "0x000000000000000000000000000000000000000000034f086f3b33b684000000",
          "blockHash": "0xa0f1c7ba747cf05300b2f17c2873a0ff80a6302bc0cc9f98aa0cab8d6235fef9",
          "blockNumber": "0x9e5024",
          "blockTimestamp": "0x69a6c47c",
          "transactionHash": "0xc593642d3629dbb5aeb2cf807e3a08416519a079bb99790a523e16223516c7ac",
          "transactionIndex": "0x57",
          "logIndex": "0xa3",
          "removed": false
        }
      ],
      "logsBloom": "0x00000000000000000000000000000000000000000000000000000000000000000000000000000000000000000000000000000000000000000000000000000000000000000000000000000008000000000000000000000000000000000000000000400000020000000000000000000800000000000000000000000010000000000100000008000000000000000000000000000000000000000000000000000000000000000000000000000000000000000000000000000000000100000000000000000002000000000000000000000000000000008000000000000010000020000000000000000000000000000000000000000000000000000000000000000000",
      "type": "0x2",
      "transactionHash": "0xc593642d3629dbb5aeb2cf807e3a08416519a079bb99790a523e16223516c7ac",
      "transactionIndex": "0x57",
      "blockHash": "0xa0f1c7ba747cf05300b2f17c2873a0ff80a6302bc0cc9f98aa0cab8d6235fef9",
      "blockNumber": "0x9e5024",
      "gasUsed": "0x87bb",
      "effectiveGasPrice": "0xf424b",
      "from": "0x993461bbf7e553eb5bd1f5248a72b524c4a3b15d",
      "to": "0xbb46678a1f6c527bd79ecfbf85332b8ae83ceaf1",
      "contractAddress": null
    },
    {
      "status": "0x1",
      "cumulativeGasUsed": "0x2a86160",
      "logs": [
        {
          "address": "0xbb46678a1f6c527bd79ecfbf85332b8ae83ceaf1",
          "topics": [
            "0xddf252ad1be2c89b69c2b068fc378daa952ba7f163c4a11628f55a4df523b3ef",
            "0x0000000000000000000000000000000000000000000000000000000000000000",
            "0x000000000000000000000000f68d9e0faa751ad61e0ed70852798bf9d9c04bf7"
          ],
          "data": "0x000000000000000000000000000000000000000000034f086f3b33b684000000",
          "blockHash": "0x4ab59000831174adda9a91b1824fc3b71de488b64649f7e959b91766f05f0226",
          "blockNumber": "0x9e5028",
          "blockTimestamp": "0x69a6c4ac",
          "transactionHash": "0x9980e3c6ad38a992993eca97651161856f9f95a8c523a8196c1a8ced33b256e3",
          "transactionIndex": "0x62",
          "logIndex": "0xae",
          "removed": false
        }
      ],
      "logsBloom": "0x00000000000000000000000000000000000000000000000000000000000000800000000000000000000000000000000000000000000000000000000000000000000000000000000000000008000000000000000000000000000000000000000000000000020000000000000000000800000000000000000000000010000000000100000008000000000000000000000000000000000000000000000000000000000000000000000000000000000000000400000000000000000000000000000000000002000000000000000000000001000000008000000000000000000020000000000000000000000000000000000000000000000000000000000000000000",
      "type": "0x2",
      "transactionHash": "0x9980e3c6ad38a992993eca97651161856f9f95a8c523a8196c1a8ced33b256e3",
      "transactionIndex": "0x62",
      "blockHash": "0x4ab59000831174adda9a91b1824fc3b71de488b64649f7e959b91766f05f0226",
      "blockNumber": "0x9e5028",
      "gasUsed": "0x87bb",
      "effectiveGasPrice": "0xf424e",
      "from": "0x993461bbf7e553eb5bd1f5248a72b524c4a3b15d",
      "to": "0xbb46678a1f6c527bd79ecfbf85332b8ae83ceaf1",
      "contractAddress": null
    },
    {
      "status": "0x1",
      "cumulativeGasUsed": "0x38940ef",
      "logs": [
        {
          "address": "0xbb46678a1f6c527bd79ecfbf85332b8ae83ceaf1",
          "topics": [
            "0x8c5be1e5ebec7d5bd14f71427d1e84f3dd0314c0f7b2291e5b200ac8c7c3b925",
            "0x000000000000000000000000474b4e7fd1a143edea6b77aa845f429d443e6410",
            "0x00000000000000000000000046581c3b8ae1b92f773d966b39531d8fb803d71f"
          ],
          "data": "0x000000000000000000000000000000000000000000034f086f3b33b684000000",
          "blockHash": "0x5af0221da7d287b7c55d50a0737e95f11006fd51bcccf3c741cc7bb8e3391274",
          "blockNumber": "0x9e5029",
          "blockTimestamp": "0x69a6c4b8",
          "transactionHash": "0xd0867746517c996e01cb5c517341ccf274b2126e82efb6387b122acb2b8fef25",
          "transactionIndex": "0x9a",
          "logIndex": "0x100",
          "removed": false
        }
      ],
      "logsBloom": "0x00000000000000000000000000000000000000000000000000000000000000000000000000000000000000000000000000000000000000000000000000200000000000000000000000000000000000000000000000400000000000000000000000400000000000000000000000080000000000000000000000000000000000000100000008000000000000000000000000000000000000000000000000000000020000000000000000000000100000000000000000000000000100000000000000000000000000000000000000000000000000008000000000000010000000000010000000000000000000000000000000000000000000000000000000000000",
      "type": "0x2",
      "transactionHash": "0xd0867746517c996e01cb5c517341ccf274b2126e82efb6387b122acb2b8fef25",
      "transactionIndex": "0x9a",
      "blockHash": "0x5af0221da7d287b7c55d50a0737e95f11006fd51bcccf3c741cc7bb8e3391274",
      "blockNumber": "0x9e5029",
      "gasUsed": "0xb768",
      "effectiveGasPrice": "0xf424f",
      "from": "0x474b4e7fd1a143edea6b77aa845f429d443e6410",
      "to": "0xbb46678a1f6c527bd79ecfbf85332b8ae83ceaf1",
      "contractAddress": null
    },
    {
      "status": "0x1",
      "cumulativeGasUsed": "0x1b6fbe7",
      "logs": [
        {
          "address": "0xbb46678a1f6c527bd79ecfbf85332b8ae83ceaf1",
          "topics": [
            "0xddf252ad1be2c89b69c2b068fc378daa952ba7f163c4a11628f55a4df523b3ef",
            "0x000000000000000000000000474b4e7fd1a143edea6b77aa845f429d443e6410",
            "0x00000000000000000000000046581c3b8ae1b92f773d966b39531d8fb803d71f"
          ],
          "data": "0x000000000000000000000000000000000000000000034f086f3b33b684000000",
          "blockHash": "0x040b5164d3b907baa0193607f2e8077b594a5357db68636e1fd4b9ed65a2ac60",
          "blockNumber": "0x9e502a",
          "blockTimestamp": "0x69a6c4c4",
          "transactionHash": "0xc52f7752fe95fe7edd301b5f61ee2e28b442831fd5ba6562c789022d397ffb5c",
          "transactionIndex": "0x86",
          "logIndex": "0xc3",
          "removed": false
        },
        {
          "address": "0x46581c3b8ae1b92f773d966b39531d8fb803d71f",
          "topics": [
            "0x30f6180e248310ab0c789da3026fbba7390872be072cfc5b3c20733f3a980c9e",
            "0x000000000000000000000000474b4e7fd1a143edea6b77aa845f429d443e6410",
            "0x000000000000000000000000bb46678a1f6c527bd79ecfbf85332b8ae83ceaf1"
          ],
          "data": "0x000000000000000000000000000000000000000000034f086f3b33b684000000",
          "blockHash": "0x040b5164d3b907baa0193607f2e8077b594a5357db68636e1fd4b9ed65a2ac60",
          "blockNumber": "0x9e502a",
          "blockTimestamp": "0x69a6c4c4",
          "transactionHash": "0xc52f7752fe95fe7edd301b5f61ee2e28b442831fd5ba6562c789022d397ffb5c",
          "transactionIndex": "0x86",
          "logIndex": "0xc4",
          "removed": false
        }
      ],
      "logsBloom": "0x00000000000000000000000000000000000000000000000000000000000000000000000000000000000000000000000000000000000002000000000000000000000000000000000040000008000000000000000000400000000000000000000000400000000000000000000000080000000000000000000000000010000000000100000008000001000000000000000000000000000000000000000000000000000000000000000000400000100000000000000040000000000100000000000000000002000001000000000000000001000800008000000000000010000000000000000000000000000000000000000000000000000000000000000400000000",
      "type": "0x2",
      "transactionHash": "0xc52f7752fe95fe7edd301b5f61ee2e28b442831fd5ba6562c789022d397ffb5c",
      "transactionIndex": "0x86",
      "blockHash": "0x040b5164d3b907baa0193607f2e8077b594a5357db68636e1fd4b9ed65a2ac60",
      "blockNumber": "0x9e502a",
      "gasUsed": "0x19cd3",
      "effectiveGasPrice": "0xf4250",
      "from": "0x474b4e7fd1a143edea6b77aa845f429d443e6410",
      "to": "0x46581c3b8ae1b92f773d966b39531d8fb803d71f",
      "contractAddress": null
    },
    {
      "status": "0x1",
      "cumulativeGasUsed": "0x210872d",
      "logs": [
        {
          "address": "0xbb46678a1f6c527bd79ecfbf85332b8ae83ceaf1",
          "topics": [
            "0x8c5be1e5ebec7d5bd14f71427d1e84f3dd0314c0f7b2291e5b200ac8c7c3b925",
            "0x000000000000000000000000f68d9e0faa751ad61e0ed70852798bf9d9c04bf7",
            "0x00000000000000000000000046581c3b8ae1b92f773d966b39531d8fb803d71f"
          ],
          "data": "0x000000000000000000000000000000000000000000034f086f3b33b684000000",
          "blockHash": "0x823806f13ada230c9584e83583848f08b2746701fabc7e801d1ebb8da2e2c1cf",
          "blockNumber": "0x9e502b",
          "blockTimestamp": "0x69a6c4d0",
          "transactionHash": "0x126b3e01d6cf691337e54cb4999dc93a16b315c10298678534561f5545957572",
          "transactionIndex": "0xa0",
          "logIndex": "0x12c",
          "removed": false
        }
      ],
      "logsBloom": "0x00000000000000000000000000000000000000000000000000000000000000800000000000000000000000000000000000000000000000000000000000200000000000000000000000000000000000000000000000400000000000000000000000000000000000000000000000080000000000000000000000000000000000000100000008000000000000000000000000000000000000000000000000000000020000000000000000000000100000000400000000000000000000000000000000000000000000000000000000000001000000008000000000000000000000000010000000000000000000000000000000000000000000000000000000000000",
      "type": "0x2",
      "transactionHash": "0x126b3e01d6cf691337e54cb4999dc93a16b315c10298678534561f5545957572",
      "transactionIndex": "0xa0",
      "blockHash": "0x823806f13ada230c9584e83583848f08b2746701fabc7e801d1ebb8da2e2c1cf",
      "blockNumber": "0x9e502b",
      "gasUsed": "0xb768",
      "effectiveGasPrice": "0xf4251",
      "from": "0xf68d9e0faa751ad61e0ed70852798bf9d9c04bf7",
      "to": "0xbb46678a1f6c527bd79ecfbf85332b8ae83ceaf1",
      "contractAddress": null
    },
    {
      "status": "0x1",
      "cumulativeGasUsed": "0x14faf36",
      "logs": [
        {
          "address": "0xbb46678a1f6c527bd79ecfbf85332b8ae83ceaf1",
          "topics": [
            "0xddf252ad1be2c89b69c2b068fc378daa952ba7f163c4a11628f55a4df523b3ef",
            "0x000000000000000000000000f68d9e0faa751ad61e0ed70852798bf9d9c04bf7",
            "0x00000000000000000000000046581c3b8ae1b92f773d966b39531d8fb803d71f"
          ],
          "data": "0x000000000000000000000000000000000000000000034f086f3b33b684000000",
          "blockHash": "0x3428902c663a88b501cb10944e5b5e3f0e6f2b7a09dec35b72e325fb9c906fe2",
          "blockNumber": "0x9e502c",
          "blockTimestamp": "0x69a6c4dc",
          "transactionHash": "0x2f9c4ec0da7d81c5ac1eb07ed2c8add8a8daac3d09e341db7239dca1b8ae4146",
          "transactionIndex": "0x81",
          "logIndex": "0xd4",
          "removed": false
        },
        {
          "address": "0x46581c3b8ae1b92f773d966b39531d8fb803d71f",
          "topics": [
            "0x30f6180e248310ab0c789da3026fbba7390872be072cfc5b3c20733f3a980c9e",
            "0x000000000000000000000000f68d9e0faa751ad61e0ed70852798bf9d9c04bf7",
            "0x000000000000000000000000bb46678a1f6c527bd79ecfbf85332b8ae83ceaf1"
          ],
          "data": "0x000000000000000000000000000000000000000000034f086f3b33b684000000",
          "blockHash": "0x3428902c663a88b501cb10944e5b5e3f0e6f2b7a09dec35b72e325fb9c906fe2",
          "blockNumber": "0x9e502c",
          "blockTimestamp": "0x69a6c4dc",
          "transactionHash": "0x2f9c4ec0da7d81c5ac1eb07ed2c8add8a8daac3d09e341db7239dca1b8ae4146",
          "transactionIndex": "0x81",
          "logIndex": "0xd5",
          "removed": false
        }
      ],
      "logsBloom": "0x00000000000000000000000000000000000000000000000000000000000000800000000000000000000000000000000000000000000002000000000000000000000000000000000040000008000000000000000000400000000000000000000000000000000000000000000000080000000000000000000000000010000000000100000008000001000000000000000000000000000000000000000000000000000000000000000000400000100000000400000040000000000000000000000000000002000001000000000000000001000800008000000000000000000000000000000000000000000000000000000000000000000000000000000400000000",
      "type": "0x2",
      "transactionHash": "0x2f9c4ec0da7d81c5ac1eb07ed2c8add8a8daac3d09e341db7239dca1b8ae4146",
      "transactionIndex": "0x81",
      "blockHash": "0x3428902c663a88b501cb10944e5b5e3f0e6f2b7a09dec35b72e325fb9c906fe2",
      "blockNumber": "0x9e502c",
      "gasUsed": "0x15a07",
      "effectiveGasPrice": "0xf4252",
      "from": "0xf68d9e0faa751ad61e0ed70852798bf9d9c04bf7",
      "to": "0x46581c3b8ae1b92f773d966b39531d8fb803d71f",
      "contractAddress": null
    }
  ],
  "libraries": [],
  "pending": [],
  "returns": {},
  "timestamp": 1772537052739,
  "chain": 11155111,
  "commit": "3eff512"
}