{
  "transactions": [
    {
      "hash": "0xae1feca0e93a118605d152617ff2ec2938eb9dd1783885d00aca4a3fa9445e91",
      "transactionType": "CALL",
      "contractName": null,
      "contractAddress": "0xbb46678a1f6c527bd79ecfbf85332b8ae83ceaf1",
      "function": "mint(address,uint256)",
      "arguments": [
        "0x474B4E7FD1A143eDea6b77aa845F429D443E6410",
        "4000000000000000000000000"
      ],
      "transaction": {
        "from": "0x993461bbf7e553eb5bd1f5248a72b524c4a3b15d",
        "to": "0xbb46678a1f6c527bd79ecfbf85332b8ae83ceaf1",
        "gas": "0xc681",
        "value": "0x0",
        "input": "0x40c10f19000000000000000000000000474b4e7fd1a143edea6b77aa845f429d443e6410000000000000000000000000000000000000000000034f086f3b33b684000000",
        "nonce": "0x59f",
        "chainId": "0xaa36a7"
      },
      "additionalContracts": [],
      "isFixedGasLimit": false
    },
    {
      "hash": "0x199c297ae83d1ed7e571d6f2fd77090b4c56e86181f60a7093839f2ce10acf7c",
      "transactionType": "CALL",
      "contractName": null,
      "contractAddress": "0xbb46678a1f6c527bd79ecfbf85332b8ae83ceaf1",
      "function": "mint(address,uint256)",
      "arguments": [
        "0xf68D9e0fAa751AD61e0ED70852798bF9D9C04bF7",
        "4000000000000000000000000"
      ],
      "transaction": {
        "from": "0x993461bbf7e553eb5bd1f5248a72b524c4a3b15d",
        "to": "0xbb46678a1f6c527bd79ecfbf85332b8ae83ceaf1",
        "gas": "0xc681",
        "value": "0x0",
        "input": "0x40c10f19000000000000000000000000f68d9e0faa751ad61e0ed70852798bf9d9c04bf7000000000000000000000000000000000000000000034f086f3b33b684000000",
        "nonce": "0x5a0",
        "chainId": "0xaa36a7"
      },
      "additionalContracts": [],
      "isFixedGasLimit": false
    },
    {
      "hash": "0xdd0246989bb927c77f7cf03ed9ec50a2cb2d04ec735eaefce4d4d176b6bcdb65",
      "transactionType": "CALL",
      "contractName": null,
      "contractAddress": "0xbb46678a1f6c527bd79ecfbf85332b8ae83ceaf1",
      "function": "mint(address,uint256)",
      "arguments": [
        "0x10Db2E70118e5FBeDa30391ec957e608C9E4517E",
        "4000000000000000000000000"
      ],
      "transaction": {
        "from": "0x993461bbf7e553eb5bd1f5248a72b524c4a3b15d",
        "to": "0xbb46678a1f6c527bd79ecfbf85332b8ae83ceaf1",
        "gas": "0xc681",
        "value": "0x0",
        "input": "0x40c10f1900000000000000000000000010db2e70118e5fbeda30391ec957e608c9e4517e000000000000000000000000000000000000000000034f086f3b33b684000000",
        "nonce": "0x5a1",
        "chainId": "0xaa36a7"
      },
      "additionalContracts": [],
      "isFixedGasLimit": false
    },
    {
      "hash": "0x31e62725b312a7b7e1be3044fb69280a6abe8f5ef27d7c944643698c4a7b931a",
      "transactionType": "CALL",
      "contractName": null,
      "contractAddress": "0xbb46678a1f6c527bd79ecfbf85332b8ae83ceaf1",
      "function": "approve(address,uint256)",
      "arguments": [
        "0x76D1a769C3B13696f40523C0483ac5Ea7CB32A84",
        "4000000000000000000000000"
      ],
      "transaction": {
        "from": "0x474b4e7fd1a143edea6b77aa845f429d443e6410",
        "to": "0xbb46678a1f6c527bd79ecfbf85332b8ae83ceaf1",
        "gas": "0xfd53",
        "value": "0x0",
        "input": "0x095ea7b300000000000000000000000076d1a769c3b13696f40523c0483ac5ea7cb32a84000000000000000000000000000000000000000000034f086f3b33b684000000",
        "nonce": "0x68",
        "chainId": "0xaa36a7"
      },
      "additionalContracts": [],
      "isFixedGasLimit": false
    },
    {
      "hash": "0x8ef9d4b02474971728a0a9fcb42c7887b3eb646213a3aa18c04007d731098750",
      "transactionType": "CALL",
      "contractName": "MarginVault",
      "contractAddress": "0x76d1a769c3b13696f40523c0483ac5ea7cb32a84",
      "function": "depositMargin(bytes32,address,uint256)",
      "arguments": [
        "0x000000000000000000000000474b4e7fd1a143edea6b77aa845f429d443e6410",
        "0xbb46678a1F6C527bD79eCFBF85332B8Ae83ceaf1",
        "4000000000000000000000000"
      ],
      "transaction": {
        "from": "0x474b4e7fd1a143edea6b77aa845f429d443e6410",
        "to": "0x76d1a769c3b13696f40523c0483ac5ea7cb32a84",
        "gas": "0x2cf03",
        "value": "0x0",
        "input": "0x6812d315000000000000000000000000474b4e7fd1a143edea6b77aa845f429d443e6410000000000000000000000000bb46678a1f6c527bd79ecfbf85332b8ae83ceaf1000000000000000000000000000000000000000000034f086f3b33b684000000",
        "nonce": "0x69",
        "chainId": "0xaa36a7"
      },
      "additionalContracts": [],
      "isFixedGasLimit": false
    },
    {
      "hash": "0x8f1cd1fa7c72476e70ae8888cfcc740bcbcf701685aa21a8efbd90b3863a26d2",
      "transactionType": "CALL",
      "contractName": null,
      "contractAddress": "0xbb46678a1f6c527bd79ecfbf85332b8ae83ceaf1",
      "function": "approve(address,uint256)",
      "arguments": [
        "0x76D1a769C3B13696f40523C0483ac5Ea7CB32A84",
        "4000000000000000000000000"
      ],
      "transaction": {
        "from": "0xf68d9e0faa751ad61e0ed70852798bf9d9c04bf7",
        "to": "0xbb46678a1f6c527bd79ecfbf85332b8ae83ceaf1",
        "gas": "0xfd53",
        "value": "0x0",
        "input": "0x095ea7b300000000000000000000000076d1a769c3b13696f40523c0483ac5ea7cb32a84000000000000000000000000000000000000000000034f086f3b33b684000000",
        "nonce": "0x64",
        "chainId": "0xaa36a7"
      },
      "additionalContracts": [],
      "isFixedGasLimit": false
    },
    {
      "hash": "0x85f0921b3eec1c4d58d3837d0e10350d15bdd07a74c507c2627ff00b50a36040",
      "transactionType": "CALL",
      "contractName": "MarginVault",
      "contractAddress": "0x76d1a769c3b13696f40523c0483ac5ea7cb32a84",
      "function": "depositMargin(bytes32,address,uint256)",
      "arguments": [
        "0x000000000000000000000000f68d9e0faa751ad61e0ed70852798bf9d9c04bf7",
        "0xbb46678a1F6C527bD79eCFBF85332B8Ae83ceaf1",
        "4000000000000000000000000"
      ],
      "transaction": {
        "from": "0xf68d9e0faa751ad61e0ed70852798bf9d9c04bf7",
        "to": "0x76d1a769c3b13696f40523c0483ac5ea7cb32a84",
        "gas": "0x24acd",
        "value": "0x0",
        "input": "0x6812d315000000000000000000000000f68d9e0faa751ad61e0ed70852798bf9d9c04bf7000000000000000000000000bb46678a1f6c527bd79ecfbf85332b8ae83ceaf1000000000000000000000000000000000000000000034f086f3b33b684000000",
        "nonce": "0x65",
        "chainId": "0xaa36a7"
      },
      "additionalContracts": [],
      "isFixedGasLimit": false
    },
    {
      "hash": "0x9aef4031cb0fd1245cf41c28fa2f5c89c32bf67f1457915b292471136b9ab7ea",
      "transactionType": "CALL",
      "contractName": null,
      "contractAddress": "0xbb46678a1f6c527bd79ecfbf85332b8ae83ceaf1",
      "function": "approve(address,uint256)",
      "arguments": [
        "0x76D1a769C3B13696f40523C0483ac5Ea7CB32A84",
        "4000000000000000000000000"
      ],
      "transaction": {
        "from": "0x10db2e70118e5fbeda30391ec957e608c9e4517e",
        "to": "0xbb46678a1f6c527bd79ecfbf85332b8ae83ceaf1",
        "gas": "0xfd53",
        "value": "0x0",
        "input": "0x095ea7b300000000000000000000000076d1a769c3b13696f40523c0483ac5ea7cb32a84000000000000000000000000000000000000000000034f086f3b33b684000000",
        "nonce": "0x31",
        "chainId": "0xaa36a7"
      },
      "additionalContracts": [],
      "isFixedGasLimit": false
    },
    {
      "hash": "0xf51149d3295128f93f2b482c1f80fdfaba43f7e6dabcd5fceb95dfcc9079f837",
      "transactionType": "CALL",
      "contractName": "MarginVault",
      "contractAddress": "0x76d1a769c3b13696f40523c0483ac5ea7cb32a84",
      "function": "depositMargin(bytes32,address,uint256)",
      "arguments": [
        "0x00000000000000000000000010db2e70118e5fbeda30391ec957e608c9e4517e",
        "0xbb46678a1F6C527bD79eCFBF85332B8Ae83ceaf1",
        "4000000000000000000000000"
      ],
      "transaction": {
        "from": "0x10db2e70118e5fbeda30391ec957e608c9e4517e",
        "to": "0x76d1a769c3b13696f40523c0483ac5ea7cb32a84",
        "gas": "0x24acd",
        "value": "0x0",
        "input": "0x6812d31500000000000000000000000010db2e70118e5fbeda30391ec957e608c9e4517e000000000000000000000000bb46678a1f6c527bd79ecfbf85332b8ae83ceaf1000000000000000000000000000000000000000000034f086f3b33b684000000",
        "nonce": "0x32",
        "chainId": "0xaa36a7"
      },
      "additionalContracts": [],
      "isFixedGasLimit": false
    }
  ],
  "receipts": [
    {
      "status": "0x1",
      "cumulativeGasUsed": "0xc29cd2",
      "logs": [
        {
          "address": "0xbb46678a1f6c527bd79ecfbf85332b8ae83ceaf1",
          "topics": [
            "0xddf252ad1be2c89b69c2b068fc378daa952ba7f163c4a11628f55a4df523b3ef",
            "0x0000000000000000000000000000000000000000000000000000000000000000",
            "0x000000000000000000000000474b4e7fd1a143edea6b77aa845f429d443e6410"
          ],
          "data": "0x000000000000000000000000000000000000000000034f086f3b33b684000000",
          "blockHash": "0xc38c99060183dd2eb80ee132a7816085c801a31c19238384dd1937c45bc1fade",
          "blockNumber": "0x9ea4bf",
          "blockTimestamp": "0x69aaeb3c",
          "transactionHash": "0xae1feca0e93a118605d152617ff2ec2938eb9dd1783885d00aca4a3fa9445e91",
          "transactionIndex": "0x69",
          "logIndex": "0x9a",
          "removed": false
        }
      ],
      "logsBloom": "0x00000000000000000000000000000000000000000000000000000000000000000000000000000000000000000000000000000000000000000000000000000000000000000000000000000008000000000000000000000000000000000000000000400000020000000000000000000800000000000000000000000010000000000100000008000000000000000000000000000000000000000000000000000000000000000000000000000000000000000000000000000000000100000000000000000002000000000000000000000000000000008000000000000010000020000000000000000000000000000000000000000000000000000000000000000000",
      "type": "0x2",
      "transactionHash": "0xae1feca0e93a118605d152617ff2ec2938eb9dd1783885d00aca4a3fa9445e91",
      "transactionIndex": "0x69",
      "blockHash": "0xc38c99060183dd2eb80ee132a7816085c801a31c19238384dd1937c45bc1fade",
      "blockNumber": "0x9ea4bf",
      "gasUsed": "0x87bb",
      "effectiveGasPrice": "0x1398571",
      "from": "0x993461bbf7e553eb5bd1f5248a72b524c4a3b15d",
      "to": "0xbb46678a1f6c527bd79ecfbf85332b8ae83ceaf1",
      "contractAddress": null
    },
    {
      "status": "0x1",
      "cumulativeGasUsed": "0x8d2ed7",
      "logs": [
        {
          "address": "0xbb46678a1f6c527bd79ecfbf85332b8ae83ceaf1",
          "topics": [
            "0xddf252ad1be2c89b69c2b068fc378daa952ba7f163c4a11628f55a4df523b3ef",
            "0x0000000000000000000000000000000000000000000000000000000000000000",
            "0x000000000000000000000000f68d9e0faa751ad61e0ed70852798bf9d9c04bf7"
          ],
          "data": "0x000000000000000000000000000000000000000000034f086f3b33b684000000",
          "blockHash": "0xda851003c9522e73f37a2209d3b8f82293839bc1bc1661912119e31c29ccca43",
          "blockNumber": "0x9ea4c0",
          "blockTimestamp": "0x69aaeb48",
          "transactionHash": "0x199c297ae83d1ed7e571d6f2fd77090b4c56e86181f60a7093839f2ce10acf7c",
          "transactionIndex": "0x5c",
          "logIndex": "0x7f",
          "removed": false
        }
      ],
      "logsBloom": "0x00000000000000000000000000000000000000000000000000000000000000800000000000000000000000000000000000000000000000000000000000000000000000000000000000000008000000000000000000000000000000000000000000000000020000000000000000000800000000000000000000000010000000000100000008000000000000000000000000000000000000000000000000000000000000000000000000000000000000000400000000000000000000000000000000000002000000000000000000000001000000008000000000000000000020000000000000000000000000000000000000000000000000000000000000000000",
      "type": "0x2",
      "transactionHash": "0x199c297ae83d1ed7e571d6f2fd77090b4c56e86181f60a7093839f2ce10acf7c",
      "transactionIndex": "0x5c",
      "blockHash": "0xda851003c9522e73f37a2209d3b8f82293839bc1bc1661912119e31c29ccca43",
      "blockNumber": "0x9ea4c0",
      "gasUsed": "0x87bb",
      "effectiveGasPrice": "0x13ce5ea",
      "from": "0x993461bbf7e553eb5bd1f5248a72b524c4a3b15d",
      "to": "0xbb46678a1f6c527bd79ecfbf85332b8ae83ceaf1",
      "contractAddress": null
    },
    {
      "status": "0x1",
      "cumulativeGasUsed": "0x19103ad",
      "logs": [
        {
          "address": "0xbb46678a1f6c527bd79ecfbf85332b8ae83ceaf1",
          "topics": [
            "0xddf252ad1be2c89b69c2b068fc378daa952ba7f163c4a11628f55a4df523b3ef",
            "0x0000000000000000000000000000000000000000000000000000000000000000",
            "0x00000000000000000000000010db2e70118e5fbeda30391ec957e608c9e4517e"
          ],
          "data": "0x000000000000000000000000000000000000000000034f086f3b33b684000000",
          "blockHash": "0xfb28eae2f662da5cfb209891d1296c058f27c01929d49663446d0b29905f6c9b",
          "blockNumber": "0x9ea4c1",
          "blockTimestamp": "0x69aaeb60",
          "transactionHash": "0xdd0246989bb927c77f7cf03ed9ec50a2cb2d04ec735eaefce4d4d176b6bcdb65",
          "transactionIndex": "0xa7",
          "logIndex": "0x15e",
          "removed": false
        }
      ],
      "logsBloom": "0x00000000000000000000000000000000000000000000000000000000000000000000000000000000000000000000000000000000000000000000000000000000000000000000000000000008000000000000000000000000000000000000000000000000020000000000000000000800000000000000000000000010000000000100000008000000000000000000000000000000000000000000000000000000000000000000000000000000000000000000000000000000000000000000000000000002000000000000000041000000000000008000000000000000000020000000000000000000000080000000000000000000000000000000000000000000",
      "type": "0x2",
      "transactionHash": "0xdd0246989bb927c77f7cf03ed9ec50a2cb2d04ec735eaefce4d4d176b6bcdb65",
      "transactionIndex": "0xa7",
      "blockHash": "0xfb28eae2f662da5cfb209891d1296c058f27c01929d49663446d0b29905f6c9b",
      "blockNumber": "0x9ea4c1",
      "gasUsed": "0x87bb",
      "effectiveGasPrice": "0x137cb07",
      "from": "0x993461bbf7e553eb5bd1f5248a72b524c4a3b15d",
      "to": "0xbb46678a1f6c527bd79ecfbf85332b8ae83ceaf1",
      "contractAddress": null
    },
    {
      "status": "0x1",
      "cumulativeGasUsed": "0x10639cb",
      "logs": [
        {
          "address": "0xbb46678a1f6c527bd79ecfbf85332b8ae83ceaf1",
          "topics": [
            "0x8c5be1e5ebec7d5bd14f71427d1e84f3dd0314c0f7b2291e5b200ac8c7c3b925",
            "0x000000000000000000000000474b4e7fd1a143edea6b77aa845f429d443e6410",
            "0x00000000000000000000000076d1a769c3b13696f40523c0483ac5ea7cb32a84"
          ],
          "data": "0x000000000000000000000000000000000000000000034f086f3b33b684000000",
          "blockHash": "0xff4df3380067e555926b7d61c9b57cf0dc0ae3b01796f50636b7a72c5c04f099",
          "blockNumber": "0x9ea4c2",
          "blockTimestamp": "0x69aaeb6c",
          "transactionHash": "0x31e62725b312a7b7e1be3044fb69280a6abe8f5ef27d7c944643698c4a7b931a",
          "transactionIndex": "0x4b",
          "logIndex": "0x1e2",
          "removed": false
        }
      ],
      "logsBloom": "0x00000000000000000000000000000000000000000000000000000000000000000000000000000000000000000000000000000000000000000000000000200000000000000000000000000000000000000000000000000000000000000000000000400000000000000000000000002000000000000000000000000000000000000100000008000000000000400000000000000000000000000000000000000000020000000000000000000000000000000000000000000000000100000000400000000000000000000000000000000000000000008000000000000010000000000010000000000000000000000000000000000000000000000000000000000000",
      "type": "0x2",
      "transactionHash": "0x31e62725b312a7b7e1be3044fb69280a6abe8f5ef27d7c944643698c4a7b931a",
      "transactionIndex": "0x4b",
      "blockHash": "0xff4df3380067e555926b7d61c9b57cf0dc0ae3b01796f50636b7a72c5c04f099",
      "blockNumber": "0x9ea4c2",
      "gasUsed": "0xb768",
      "effectiveGasPrice": "0x15686df",
      "from": "0x474b4e7fd1a143edea6b77aa845f429d443e6410",
      "to": "0xbb46678a1f6c527bd79ecfbf85332b8ae83ceaf1",
      "contractAddress": null
    },
    {
      "status": "0x1",
      "cumulativeGasUsed": "0x64d2a6",
      "logs": [
        {
          "address": "0xbb46678a1f6c527bd79ecfbf85332b8ae83ceaf1",
          "topics": [
            "0xddf252ad1be2c89b69c2b068fc378daa952ba7f163c4a11628f55a4df523b3ef",
            "0x000000000000000000000000474b4e7fd1a143edea6b77aa845f429d443e6410",
            "0x00000000000000000000000076d1a769c3b13696f40523c0483ac5ea7cb32a84"
          ],
          "data": "0x000000000000000000000000000000000000000000034f086f3b33b684000000",
          "blockHash": "0x485d186f7b3471ed127b93bcd6f29c7d5712e045a9114fe17334f5f3d4d0e68a",
          "blockNumber": "0x9ea4c3",
          "blockTimestamp": "0x69aaeb78",
          "transactionHash": "0x8ef9d4b02474971728a0a9fcb42c7887b3eb646213a3aa18c04007d731098750",
          "transactionIndex": "0x4a",
          "logIndex": "0x64",
          "removed": false
        },
        {
          "address": "0x76d1a769c3b13696f40523c0483ac5ea7cb32a84",
          "topics": [
            "0x30f6180e248310ab0c789da3026fbba7390872be072cfc5b3c20733f3a980c9e",
            "0x000000000000000000000000474b4e7fd1a143edea6b77aa845f429d443e6410",
            "0x000000000000000000000000bb46678a1f6c527bd79ecfbf85332b8ae83ceaf1"
          ],
          "data": "0x000000000000000000000000000000000000000000034f086f3b33b684000000",
          "blockHash": "0x485d186f7b3471ed127b93bcd6f29c7d5712e045a9114fe17334f5f3d4d0e68a",
          "blockNumber": "0x9ea4c3",
          "blockTimestamp": "0x69aaeb78",
          "transactionHash": "0x8ef9d4b02474971728a0a9fcb42c7887b3eb646213a3aa18c04007d731098750",
          "transactionIndex": "0x4a",
          "logIndex": "0x65",
          "removed": false
        }
      ],
      "logsBloom": "0x00000010000000000000000000000000000000000000000000000000000000000000000000000000000000000000000000000000000000000000000000000000000000000000000000000008000000000000000000000000000000000000000000400000000000000000000000002000000000000000000000000010000000000100000008000001000000400000000000000000000000000000000000000000000000000000000000000000000000000000000040000000100100000000400000000002000001000000000000000001000800008000000000000010000000000000000000000400000000000000000000000000000000000000000400000000",
      "type": "0x2",
      "transactionHash": "0x8ef9d4b02474971728a0a9fcb42c7887b3eb646213a3aa18c04007d731098750",
      "transactionIndex": "0x4a",
      "blockHash": "0x485d186f7b3471ed127b93bcd6f29c7d5712e045a9114fe17334f5f3d4d0e68a",
      "blockNumber": "0x9ea4c3",
      "gasUsed": "0x1eba2",
      "effectiveGasPrice": "0x153c2c3",
      "from": "0x474b4e7fd1a143edea6b77aa845f429d443e6410",
      "to": "0x76d1a769c3b13696f40523c0483ac5ea7cb32a84",
      "contractAddress": null
    },
    {
      "status": "0x1",
      "cumulativeGasUsed": "0xd3f39f",
      "logs": [
        {
          "address": "0xbb46678a1f6c527bd79ecfbf85332b8ae83ceaf1",
          "topics": [
            "0x8c5be1e5ebec7d5bd14f71427d1e84f3dd0314c0f7b2291e5b200ac8c7c3b925",
            "0x000000000000000000000000f68d9e0faa751ad61e0ed70852798bf9d9c04bf7",
            "0x00000000000000000000000076d1a769c3b13696f40523c0483ac5ea7cb32a84"
          ],
          "data": "0x000000000000000000000000000000000000000000034f086f3b33b684000000",
          "blockHash": "0x351edfa0cd3fbb32eba928fff5af118fee8a9517a9cfaa4a5936bceffe2ced25",
          "blockNumber": "0x9ea4c4",
          "blockTimestamp": "0x69aaeb84",
          "transactionHash": "0x8f1cd1fa7c72476e70ae8888cfcc740bcbcf701685aa21a8efbd90b3863a26d2",
          "transactionIndex": "0x72",
          "logIndex": "0xaf",
          "removed": false
        }
      ],
      "logsBloom": "0x00000000000000000000000000000000000000000000000000000000000000800000000000000000000000000000000000000000000000000000000000200000000000000000000000000000000000000000000000000000000000000000000000000000000000000000000000002000000000000000000000000000000000000100000008000000000000400000000000000000000000000000000000000000020000000000000000000000000000000400000000000000000000000000400000000000000000000000000000000001000000008000000000000000000000000010000000000000000000000000000000000000000000000000000000000000",
      "type": "0x2",
      "transactionHash": "0x8f1cd1fa7c72476e70ae8888cfcc740bcbcf701685aa21a8efbd90b3863a26d2",
      "transactionIndex": "0x72",
      "blockHash": "0x351edfa0cd3fbb32eba928fff5af118fee8a9517a9cfaa4a5936bceffe2ced25",
      "blockNumber": "0x9ea4c4",
      "gasUsed": "0xb768",
      "effectiveGasPrice": "0x1513d18",
      "from": "0xf68d9e0faa751ad61e0ed70852798bf9d9c04bf7",
      "to": "0xbb46678a1f6c527bd79ecfbf85332b8ae83ceaf1",
      "contractAddress": null
    },
    {
      "status": "0x1",
      "cumulativeGasUsed": "0x8f4485",
      "logs": [
        {
          "address": "0xbb46678a1f6c527bd79ecfbf85332b8ae83ceaf1",
          "topics": [
            "0xddf252ad1be2c89b69c2b068fc378daa952ba7f163c4a11628f55a4df523b3ef",
            "0x000000000000000000000000f68d9e0faa751ad61e0ed70852798bf9d9c04bf7",
            "0x00000000000000000000000076d1a769c3b13696f40523c0483ac5ea7cb32a84"
          ],
          "data": "0x000000000000000000000000000000000000000000034f086f3b33b684000000",
          "blockHash": "0xe5968f7deb152de9ec7c6ae1914c8cfc6e157fd9ca75698d7274e84c0382fc13",
          "blockNumber": "0x9ea4c5",
          "blockTimestamp": "0x69aaeb90",
          "transactionHash": "0x85f0921b3eec1c4d58d3837d0e10350d15bdd07a74c507c2627ff00b50a36040",
          "transactionIndex": "0x63",
          "logIndex": "0xa5",
          "removed": false
        },
        {
          "address": "0x76d1a769c3b13696f40523c0483ac5ea7cb32a84",
          "topics": [
            "0x30f6180e248310ab0c789da3026fbba7390872be072cfc5b3c20733f3a980c9e",
            "0x000000000000000000000000f68d9e0faa751ad61e0ed70852798bf9d9c04bf7",
            "0x000000000000000000000000bb46678a1f6c527bd79ecfbf85332b8ae83ceaf1"
          ],
          "data": "0x000000000000000000000000000000000000000000034f086f3b33b684000000",
          "blockHash": "0xe5968f7deb152de9ec7c6ae1914c8cfc6e157fd9ca75698d7274e84c0382fc13",
          "blockNumber": "0x9ea4c5",
          "blockTimestamp": "0x69aaeb90",
          "transactionHash": "0x85f0921b3eec1c4d58d3837d0e10350d15bdd07a74c507c2627ff00b50a36040",
          "transactionIndex": "0x63",
          "logIndex": "0xa6",
          "removed": false
        }
      ],
      "logsBloom": "0x00000010000000000000000000000000000000000000000000000000000000800000000000000000000000000000000000000000000000000000000000000000000000000000000000000008000000000000000000000000000000000000000000000000000000000000000000002000000000000000000000000010000000000100000008000001000000400000000000000000000000000000000000000000000000000000000000000000000000000400000040000000100000000000400000000002000001000000000000000001000800008000000000000000000000000000000000000400000000000000000000000000000000000000000400000000",
      "type": "0x2",
      "transactionHash": "0x85f0921b3eec1c4d58d3837d0e10350d15bdd07a74c507c2627ff00b50a36040",
      "transactionIndex": "0x63",
      "blockHash": "0xe5968f7deb152de9ec7c6ae1914c8cfc6e157fd9ca75698d7274e84c0382fc13",
      "blockNumber": "0x9ea4c5",
      "gasUsed": "0x1a8d6",
      "effectiveGasPrice": "0x15257f6",
      "from": "0xf68d9e0faa751ad61e0ed70852798bf9d9c04bf7",
      "to": "0x76d1a769c3b13696f40523c0483ac5ea7cb32a84",
      "contractAddress": null
    },
    {
      "status": "0x1",
      "cumulativeGasUsed": "0xb13adc",
      "logs": [
        {
          "address": "0xbb46678a1f6c527bd79ecfbf85332b8ae83ceaf1",
          "topics": [
            "0x8c5be1e5ebec7d5bd14f71427d1e84f3dd0314c0f7b2291e5b200ac8c7c3b925",
            "0x00000000000000000000000010db2e70118e5fbeda30391ec957e608c9e4517e",
            "0x00000000000000000000000076d1a769c3b13696f40523c0483ac5ea7cb32a84"
          ],
          "data": "0x000000000000000000000000000000000000000000034f086f3b33b684000000",
          "blockHash": "0x5210fd11a575e8aedd240170643639962a9c2bdcb6223b70e241c6cf853118f2",
          "blockNumber": "0x9ea4c6",
          "blockTimestamp": "0x69aaeb9c",
          "transactionHash": "0x9aef4031cb0fd1245cf41c28fa2f5c89c32bf67f1457915b292471136b9ab7ea",
          "transactionIndex": "0x54",
          "logIndex": "0x6e",
          "removed": false
        }
      ],
      "logsBloom": "0x00000000000000000000000000000000000000000000000000000000000000000000000000000000000000000000000000000000000000000000000000200000000000000000000000000000000000000000000000000000000000000000000000000000000000000000000000002000000000000000000000000000000000000100000008000000000000400000000000000000000000000000000000000000020000000000000000000000000000000000000000000000000000000000400000000000000000000000000041000000000000008000000000000000000000000010000000000000000080000000000000000000000000000000000000000000",
      "type": "0x2",
      "transactionHash": "0x9aef4031cb0fd1245cf41c28fa2f5c89c32bf67f1457915b292471136b9ab7ea",
      "transactionIndex": "0x54",
      "blockHash": "0x5210fd11a575e8aedd240170643639962a9c2bdcb6223b70e241c6cf853118f2",
      "blockNumber": "0x9ea4c6",
      "gasUsed": "0xb768",
      "effectiveGasPrice": "0x15a42bd",
      "from": "0x10db2e70118e5fbeda30391ec957e608c9e4517e",
      "to": "0xbb46678a1f6c527bd79ecfbf85332b8ae83ceaf1",
      "contractAddress": null
    },
    {
      "status": "0x1",
      "cumulativeGasUsed": "0x1664775",
      "logs": [
        {
          "address": "0xbb46678a1f6c527bd79ecfbf85332b8ae83ceaf1",
          "topics": [
            "0xddf252ad1be2c89b69c2b068fc378daa952ba7f163c4a11628f55a4df523b3ef",
            "0x00000000000000000000000010db2e70118e5fbeda30391ec957e608c9e4517e",
            "0x00000000000000000000000076d1a769c3b13696f40523c0483ac5ea7cb32a84"
          ],
          "data": "0x000000000000000000000000000000000000000000034f086f3b33b684000000",
          "blockHash": "0xcff6e659f734ecf90ff1976399f4d6ce8091b9fa40acadd4da96befbd9c70f25",
          "blockNumber": "0x9ea4c7",
          "blockTimestamp": "0x69aaeba8",
          "transactionHash": "0xf51149d3295128f93f2b482c1f80fdfaba43f7e6dabcd5fceb95dfcc9079f837",
          "transactionIndex": "0x82",
          "logIndex": "0x18b",
          "removed": false
        },
        {
          "address": "0x76d1a769c3b13696f40523c0483ac5ea7cb32a84",
          "topics": [
            "0x30f6180e248310ab0c789da3026fbba7390872be072cfc5b3c20733f3a980c9e",
            "0x00000000000000000000000010db2e70118e5fbeda30391ec957e608c9e4517e",
            "0x000000000000000000000000bb46678a1f6c527bd79ecfbf85332b8ae83ceaf1"
          ],
          "data": "0x000000000000000000000000000000000000000000034f086f3b33b684000000",
          "blockHash": "0xcff6e659f734ecf90ff1976399f4d6ce8091b9fa40acadd4da96befbd9c70f25",
          "blockNumber": "0x9ea4c7",
          "blockTimestamp": "0x69aaeba8",
          "transactionHash": "0xf51149d3295128f93f2b482c1f80fdfaba43f7e6dabcd5fceb95dfcc9079f837",
          "transactionIndex": "0x82",
          "logIndex": "0x18c",
          "removed": false
        }
      ],
      "logsBloom": "0x00000010000000000000000000000000000000000000000000000000000000000000000000000000000000000000000000000000000000000000000000000000000000000000000000000008000000000000000000000000000000000000000000000000000000000000000000002000000000000000000000000010000000000100000008000001000000400000000000000000000000000000000000000000000000000000000000000000000000000000000040000000100000000000400000000002000001000000000041000001000800008000000000000000000000000000000000000400000080000000000000000000000000000000000400000000",
      "type": "0x2",
      "transactionHash": "0xf51149d3295128f93f2b482c1f80fdfaba43f7e6dabcd5fceb95dfcc9079f837",
      "transactionIndex": "0x82",
      "blockHash": "0xcff6e659f734ecf90ff1976399f4d6ce8091b9fa40acadd4da96befbd9c70f25",
      "blockNumber": "0x9ea4c7",
      "gasUsed": "0x1a8d6",
      "effectiveGasPrice": "0x156038d",
      "from": "0x10db2e70118e5fbeda30391ec957e608c9e4517e",
      "to": "0x76d1a769c3b13696f40523c0483ac5ea7cb32a84",
      "contractAddress": null
    }
  ],
  "libraries": [],
  "pending": [],
  "returns": {},
  "timestamp": 1772809128612,
  "chain": 11155111,
  "commit": "abef103"
}