{
  "transactions": [
    {
      "hash": "0x8b99fd30a1db1460bbd8ef6628216d0c04458afd8308ef1c0af49da229556de1",
      "transactionType": "CALL",
      "contractName": null,
      "contractAddress": "0xbb46678a1f6c527bd79ecfbf85332b8ae83ceaf1",
      "function": "mint(address,uint256)",
      "arguments": [
        "0x474B4E7FD1A143eDea6b77aa845F429D443E6410",
        "4000000000000000000000000"
      ],
      "transaction": {
        "from": "0x993461bbf7e553eb5bd1f5248a72b524c4a3b15d",
        "to": "0xbb46678a1f6c527bd79ecfbf85332b8ae83ceaf1",
        "gas": "0xc681",
        "value": "0x0",
        "input": "0x40c10f19000000000000000000000000474b4e7fd1a143edea6b77aa845f429d443e6410000000000000000000000000000000000000000000034f086f3b33b684000000",
        "nonce": "0x444",
        "chainId": "0xaa36a7"
      },
      "additionalContracts": [],
      "isFixedGasLimit": false
    },
    {
      "hash": "0x49653b9425bfc0a145d8d536ea137cc8e764204a6900c6752a1062b44511f98f",
      "transactionType": "CALL",
      "contractName": null,
      "contractAddress": "0xbb46678a1f6c527bd79ecfbf85332b8ae83ceaf1",
      "function": "mint(address,uint256)",
      "arguments": [
        "0xf68D9e0fAa751AD61e0ED70852798bF9D9C04bF7",
        "4000000000000000000000000"
      ],
      "transaction": {
        "from": "0x993461bbf7e553eb5bd1f5248a72b524c4a3b15d",
        "to": "0xbb46678a1f6c527bd79ecfbf85332b8ae83ceaf1",
        "gas": "0xc681",
        "value": "0x0",
        "input": "0x40c10f19000000000000000000000000f68d9e0faa751ad61e0ed70852798bf9d9c04bf7000000000000000000000000000000000000000000034f086f3b33b684000000",
        "nonce": "0x445",
        "chainId": "0xaa36a7"
      },
      "additionalContracts": [],
      "isFixedGasLimit": false
    },
    {
      "hash": "0xd98d34dcacd4f29e9f0591abb1bbcc605297ec1d65166a559db7eb12e8d023e1",
      "transactionType": "CALL",
      "contractName": null,
      "contractAddress": "0xbb46678a1f6c527bd79ecfbf85332b8ae83ceaf1",
      "function": "mint(address,uint256)",
      "arguments": [
        "0x10Db2E70118e5FBeDa30391ec957e608C9E4517E",
        "4000000000000000000000000"
      ],
      "transaction": {
        "from": "0x993461bbf7e553eb5bd1f5248a72b524c4a3b15d",
        "to": "0xbb46678a1f6c527bd79ecfbf85332b8ae83ceaf1",
        "gas": "0xc681",
        "value": "0x0",
        "input": "0x40c10f1900000000000000000000000010db2e70118e5fbeda30391ec957e608c9e4517e000000000000000000000000000000000000000000034f086f3b33b684000000",
        "nonce": "0x446",
        "chainId": "0xaa36a7"
      },
      "additionalContracts": [],
      "isFixedGasLimit": false
    },
    {
      "hash": "0xb3776ca8703f09df100b93edc593e6e90c26b955b184ff3485d5b3b7e9bd12c0",
      "transactionType": "CALL",
      "contractName": null,
      "contractAddress": "0xbb46678a1f6c527bd79ecfbf85332b8ae83ceaf1",
      "function": "approve(address,uint256)",
      "arguments": [
        "0x76c7970DAA3Cc6303645686B8d573B1AD5eC6909",
        "4000000000000000000000000"
      ],
      "transaction": {
        "from": "0x474b4e7fd1a143edea6b77aa845f429d443e6410",
        "to": "0xbb46678a1f6c527bd79ecfbf85332b8ae83ceaf1",
        "gas": "0xfd53",
        "value": "0x0",
        "input": "0x095ea7b300000000000000000000000076c7970daa3cc6303645686b8d573b1ad5ec6909000000000000000000000000000000000000000000034f086f3b33b684000000",
        "nonce": "0x44",
        "chainId": "0xaa36a7"
      },
      "additionalContracts": [],
      "isFixedGasLimit": false
    },
    {
      "hash": "0x6308cff8ed9bbb2f1f94fbe8b90916de93b8ce65efce00d63e5c3174fa72ada3",
      "transactionType": "CALL",
      "contractName": "MarginVault",
      "contractAddress": "0x76c7970daa3cc6303645686b8d573b1ad5ec6909",
      "function": "depositMargin(bytes32,address,uint256)",
      "arguments": [
        "0x000000000000000000000000474b4e7fd1a143edea6b77aa845f429d443e6410",
        "0xbb46678a1F6C527bD79eCFBF85332B8Ae83ceaf1",
        "4000000000000000000000000"
      ],
      "transaction": {
        "from": "0x474b4e7fd1a143edea6b77aa845f429d443e6410",
        "to": "0x76c7970daa3cc6303645686b8d573b1ad5ec6909",
        "gas": "0x2cf03",
        "value": "0x0",
        "input": "0x6812d315000000000000000000000000474b4e7fd1a143edea6b77aa845f429d443e6410000000000000000000000000bb46678a1f6c527bd79ecfbf85332b8ae83ceaf1000000000000000000000000000000000000000000034f086f3b33b684000000",
        "nonce": "0x45",
        "chainId": "0xaa36a7"
      },
      "additionalContracts": [],
      "isFixedGasLimit": false
    },
    {
      "hash": "0xa490653f7586735aa4687410d9f12393633931e163378bb0e1926a1c19564e54",
      "transactionType": "CALL",
      "contractName": null,
      "contractAddress": "0xbb46678a1f6c527bd79ecfbf85332b8ae83ceaf1",
      "function": "approve(address,uint256)",
      "arguments": [
        "0x76c7970DAA3Cc6303645686B8d573B1AD5eC6909",
        "4000000000000000000000000"
      ],
      "transaction": {
        "from": "0xf68d9e0faa751ad61e0ed70852798bf9d9c04bf7",
        "to": "0xbb46678a1f6c527bd79ecfbf85332b8ae83ceaf1",
        "gas": "0xfd53",
        "value": "0x0",
        "input": "0x095ea7b300000000000000000000000076c7970daa3cc6303645686b8d573b1ad5ec6909000000000000000000000000000000000000000000034f086f3b33b684000000",
        "nonce": "0x43",
        "chainId": "0xaa36a7"
      },
      "additionalContracts": [],
      "isFixedGasLimit": false
    },
    {
      "hash": "0xaaab2fba0a316eeec325f6292f7d2c30c0b5d14b0dea60569cb73c6463ef5bc4",
      "transactionType": "CALL",
      "contractName": "MarginVault",
      "contractAddress": "0x76c7970daa3cc6303645686b8d573b1ad5ec6909",
      "function": "depositMargin(bytes32,address,uint256)",
      "arguments": [
        "0x000000000000000000000000f68d9e0faa751ad61e0ed70852798bf9d9c04bf7",
        "0xbb46678a1F6C527bD79eCFBF85332B8Ae83ceaf1",
        "4000000000000000000000000"
      ],
      "transaction": {
        "from": "0xf68d9e0faa751ad61e0ed70852798bf9d9c04bf7",
        "to": "0x76c7970daa3cc6303645686b8d573b1ad5ec6909",
        "gas": "0x24acd",
        "value": "0x0",
        "input": "0x6812d315000000000000000000000000f68d9e0faa751ad61e0ed70852798bf9d9c04bf7000000000000000000000000bb46678a1f6c527bd79ecfbf85332b8ae83ceaf1000000000000000000000000000000000000000000034f086f3b33b684000000",
        "nonce": "0x44",
        "chainId": "0xaa36a7"
      },
      "additionalContracts": [],
      "isFixedGasLimit": false
    },
    {
      "hash": "0xe41419b9cdb5de67576b0279e18e5cc8e3d595fb149d480fdb7df3af4911e2a7",
      "transactionType": "CALL",
      "contractName": null,
      "contractAddress": "0xbb46678a1f6c527bd79ecfbf85332b8ae83ceaf1",
      "function": "approve(address,uint256)",
      "arguments": [
        "0x76c7970DAA3Cc6303645686B8d573B1AD5eC6909",
        "4000000000000000000000000"
      ],
      "transaction": {
        "from": "0x10db2e70118e5fbeda30391ec957e608c9e4517e",
        "to": "0xbb46678a1f6c527bd79ecfbf85332b8ae83ceaf1",
        "gas": "0xfd53",
        "value": "0x0",
        "input": "0x095ea7b300000000000000000000000076c7970daa3cc6303645686b8d573b1ad5ec6909000000000000000000000000000000000000000000034f086f3b33b684000000",
        "nonce": "0x11",
        "chainId": "0xaa36a7"
      },
      "additionalContracts": [],
      "isFixedGasLimit": false
    },
    {
      "hash": "0x30c56417985dcb1142a03889e225b95e33fc82c75bd1faeb1a24e03222ae1f82",
      "transactionType": "CALL",
      "contractName": "MarginVault",
      "contractAddress": "0x76c7970daa3cc6303645686b8d573b1ad5ec6909",
      "function": "depositMargin(bytes32,address,uint256)",
      "arguments": [
        "0x00000000000000000000000010db2e70118e5fbeda30391ec957e608c9e4517e",
        "0xbb46678a1F6C527bD79eCFBF85332B8Ae83ceaf1",
        "4000000000000000000000000"
      ],
      "transaction": {
        "from": "0x10db2e70118e5fbeda30391ec957e608c9e4517e",
        "to": "0x76c7970daa3cc6303645686b8d573b1ad5ec6909",
        "gas": "0x24acd",
        "value": "0x0",
        "input": "0x6812d31500000000000000000000000010db2e70118e5fbeda30391ec957e608c9e4517e000000000000000000000000bb46678a1f6c527bd79ecfbf85332b8ae83ceaf1000000000000000000000000000000000000000000034f086f3b33b684000000",
        "nonce": "0x12",
        "chainId": "0xaa36a7"
      },
      "additionalContracts": [],
      "isFixedGasLimit": false
    }
  ],
  "receipts": [
    {
      "status": "0x1",
      "cumulativeGasUsed": "0x1371ea1",
      "logs": [
        {
          "address": "0xbb46678a1f6c527bd79ecfbf85332b8ae83ceaf1",
          "topics": [
            "0xddf252ad1be2c89b69c2b068fc378daa952ba7f163c4a11628f55a4df523b3ef",
            "0x0000000000000000000000000000000000000000000000000000000000000000",
            "0x000000000000000000000000474b4e7fd1a143edea6b77aa845f429d443e6410"
          ],
          "data": "0x000000000000000000000000000000000000000000034f086f3b33b684000000",
          "blockHash": "0xdd4131d44e9ea0b93b1c14bca3c8f6e3f53983efd4c1b1c8018741d3528f4788",
          "blockNumber": "0x9e9b36",
          "blockTimestamp": "0x69aa6c64",
          "transactionHash": "0x8b99fd30a1db1460bbd8ef6628216d0c04458afd8308ef1c0af49da229556de1",
          "transactionIndex": "0x77",
          "logIndex": "0x17c",
          "removed": false
        }
      ],
      "logsBloom": "0x00000000000000000000000000000000000000000000000000000000000000000000000000000000000000000000000000000000000000000000000000000000000000000000000000000008000000000000000000000000000000000000000000400000020000000000000000000800000000000000000000000010000000000100000008000000000000000000000000000000000000000000000000000000000000000000000000000000000000000000000000000000000100000000000000000002000000000000000000000000000000008000000000000010000020000000000000000000000000000000000000000000000000000000000000000000",
      "type": "0x2",
      "transactionHash": "0x8b99fd30a1db1460bbd8ef6628216d0c04458afd8308ef1c0af49da229556de1",
      "transactionIndex": "0x77",
      "blockHash": "0xdd4131d44e9ea0b93b1c14bca3c8f6e3f53983efd4c1b1c8018741d3528f4788",
      "blockNumber": "0x9e9b36",
      "gasUsed": "0x87bb",
      "effectiveGasPrice": "0xf4383",
      "from": "0x993461bbf7e553eb5bd1f5248a72b524c4a3b15d",
      "to": "0xbb46678a1f6c527bd79ecfbf85332b8ae83ceaf1",
      "contractAddress": null
    },
    {
      "status": "0x1",
      "cumulativeGasUsed": "0x12206a8",
      "logs": [
        {
          "address": "0xbb46678a1f6c527bd79ecfbf85332b8ae83ceaf1",
          "topics": [
            "0xddf252ad1be2c89b69c2b068fc378daa952ba7f163c4a11628f55a4df523b3ef",
            "0x0000000000000000000000000000000000000000000000000000000000000000",
            "0x000000000000000000000000f68d9e0faa751ad61e0ed70852798bf9d9c04bf7"
          ],
          "data": "0x000000000000000000000000000000000000000000034f086f3b33b684000000",
          "blockHash": "0x15cd970872ab7d0bd2d286fe1c1f2baea253d976498c63aee8e13b53ca1c8d91",
          "blockNumber": "0x9e9b37",
          "blockTimestamp": "0x69aa6c70",
          "transactionHash": "0x49653b9425bfc0a145d8d536ea137cc8e764204a6900c6752a1062b44511f98f",
          "transactionIndex": "0x81",
          "logIndex": "0x185",
          "removed": false
        }
      ],
      "logsBloom": "0x00000000000000000000000000000000000000000000000000000000000000800000000000000000000000000000000000000000000000000000000000000000000000000000000000000008000000000000000000000000000000000000000000000000020000000000000000000800000000000000000000000010000000000100000008000000000000000000000000000000000000000000000000000000000000000000000000000000000000000400000000000000000000000000000000000002000000000000000000000001000000008000000000000000000020000000000000000000000000000000000000000000000000000000000000000000",
      "type": "0x2",
      "transactionHash": "0x49653b9425bfc0a145d8d536ea137cc8e764204a6900c6752a1062b44511f98f",
      "transactionIndex": "0x81",
      "blockHash": "0x15cd970872ab7d0bd2d286fe1c1f2baea253d976498c63aee8e13b53ca1c8d91",
      "blockNumber": "0x9e9b37",
      "gasUsed": "0x87bb",
      "effectiveGasPrice": "0xf4392",
      "from": "0x993461bbf7e553eb5bd1f5248a72b524c4a3b15d",
      "to": "0xbb46678a1f6c527bd79ecfbf85332b8ae83ceaf1",
      "contractAddress": null
    },
    {
      "status": "0x1",
      "cumulativeGasUsed": "0x2565b14",
      "logs": [
        {
          "address": "0xbb46678a1f6c527bd79ecfbf85332b8ae83ceaf1",
          "topics": [
            "0xddf252ad1be2c89b69c2b068fc378daa952ba7f163c4a11628f55a4df523b3ef",
            "0x0000000000000000000000000000000000000000000000000000000000000000",
            "0x00000000000000000000000010db2e70118e5fbeda30391ec957e608c9e4517e"
          ],
          "data": "0x000000000000000000000000000000000000000000034f086f3b33b684000000",
          "blockHash": "0x6c90b9920d272c51fb77e99b83f1a6a4da0ec2adeea2602caed55c9a5ff85d09",
          "blockNumber": "0x9e9b38",
          "blockTimestamp": "0x69aa6c7c",
          "transactionHash": "0xd98d34dcacd4f29e9f0591abb1bbcc605297ec1d65166a559db7eb12e8d023e1",
          "transactionIndex": "0xab",
          "logIndex": "0x1ea",
          "removed": false
        }
      ],
      "logsBloom": "0x00000000000000000000000000000000000000000000000000000000000000000000000000000000000000000000000000000000000000000000000000000000000000000000000000000008000000000000000000000000000000000000000000000000020000000000000000000800000000000000000000000010000000000100000008000000000000000000000000000000000000000000000000000000000000000000000000000000000000000000000000000000000000000000000000000002000000000000000041000000000000008000000000000000000020000000000000000000000080000000000000000000000000000000000000000000",
      "type": "0x2",
      "transactionHash": "0xd98d34dcacd4f29e9f0591abb1bbcc605297ec1d65166a559db7eb12e8d023e1",
      "transactionIndex": "0xab",
      "blockHash": "0x6c90b9920d272c51fb77e99b83f1a6a4da0ec2adeea2602caed55c9a5ff85d09",
      "blockNumber": "0x9e9b38",
      "gasUsed": "0x87bb",
      "effectiveGasPrice": "0xf4398",
      "from": "0x993461bbf7e553eb5bd1f5248a72b524c4a3b15d",
      "to": "0xbb46678a1f6c527bd79ecfbf85332b8ae83ceaf1",
      "contractAddress": null
    },
    {
      "status": "0x1",
      "cumulativeGasUsed": "0x222473e",
      "logs": [
        {
          "address": "0xbb46678a1f6c527bd79ecfbf85332b8ae83ceaf1",
          "topics": [
            "0x8c5be1e5ebec7d5bd14f71427d1e84f3dd0314c0f7b2291e5b200ac8c7c3b925",
            "0x000000000000000000000000474b4e7fd1a143edea6b77aa845f429d443e6410",
            "0x00000000000000000000000076c7970daa3cc6303645686b8d573b1ad5ec6909"
          ],
          "data": "0x000000000000000000000000000000000000000000034f086f3b33b684000000",
          "blockHash": "0x42749da1f19de590465902ffc89260eda6c8554a25064b1616261159eb33bbfb",
          "blockNumber": "0x9e9b39",
          "blockTimestamp": "0x69aa6c88",
          "transactionHash": "0xb3776ca8703f09df100b93edc593e6e90c26b955b184ff3485d5b3b7e9bd12c0",
          "transactionIndex": "0x93",
          "logIndex": "0x1c1",
          "removed": false
        }
      ],
      "logsBloom": "0x00000000000000000000000000000000000000000000000000000000000000000000000000000000000000000000000000000000000000000000000000200000000000000000000000000000000000000000000000000000000000000000000000400000000000000000000000000000000000000000000000000000000000000100000008000000000000000000000000000000000000000000000000000000020000000000000080000000000000000000000000000000000100008000000000000000000000000000000000000000000000008000000000000010000000000010000800000000000000000000000000000000000000000000000000000000",
      "type": "0x2",
      "transactionHash": "0xb3776ca8703f09df100b93edc593e6e90c26b955b184ff3485d5b3b7e9bd12c0",
      "transactionIndex": "0x93",
      "blockHash": "0x42749da1f19de590465902ffc89260eda6c8554a25064b1616261159eb33bbfb",
      "blockNumber": "0x9e9b39",
      "gasUsed": "0xb768",
      "effectiveGasPrice": "0xf43a8",
      "from": "0x474b4e7fd1a143edea6b77aa845f429d443e6410",
      "to": "0xbb46678a1f6c527bd79ecfbf85332b8ae83ceaf1",
      "contractAddress": null
    },
    {
      "status": "0x1",
      "cumulativeGasUsed": "0x1529427",
      "logs": [
        {
          "address": "0xbb46678a1f6c527bd79ecfbf85332b8ae83ceaf1",
          "topics": [
            "0xddf252ad1be2c89b69c2b068fc378daa952ba7f163c4a11628f55a4df523b3ef",
            "0x000000000000000000000000474b4e7fd1a143edea6b77aa845f429d443e6410",
            "0x00000000000000000000000076c7970daa3cc6303645686b8d573b1ad5ec6909"
          ],
          "data": "0x000000000000000000000000000000000000000000034f086f3b33b684000000",
          "blockHash": "0xe920e4a261690c4e538421e1b949aa64e2c99de742691717d0e855802c191616",
          "blockNumber": "0x9e9b3a",
          "blockTimestamp": "0x69aa6c94",
          "transactionHash": "0x6308cff8ed9bbb2f1f94fbe8b90916de93b8ce65efce00d63e5c3174fa72ada3",
          "transactionIndex": "0x95",
          "logIndex": "0x1d5",
          "removed": false
        },
        {
          "address": "0x76c7970daa3cc6303645686b8d573b1ad5ec6909",
          "topics": [
            "0x30f6180e248310ab0c789da3026fbba7390872be072cfc5b3c20733f3a980c9e",
            "0x000000000000000000000000474b4e7fd1a143edea6b77aa845f429d443e6410",
            "0x000000000000000000000000bb46678a1f6c527bd79ecfbf85332b8ae83ceaf1"
          ],
          "data": "0x000000000000000000000000000000000000000000034f086f3b33b684000000",
          "blockHash": "0xe920e4a261690c4e538421e1b949aa64e2c99de742691717d0e855802c191616",
          "blockNumber": "0x9e9b3a",
          "blockTimestamp": "0x69aa6c94",
          "transactionHash": "0x6308cff8ed9bbb2f1f94fbe8b90916de93b8ce65efce00d63e5c3174fa72ada3",
          "transactionIndex": "0x95",
          "logIndex": "0x1d6",
          "removed": false
        }
      ],
      "logsBloom": "0x00000000000000000000000000000000000000000000000000000000000000000000000000000000000000000000000000000000000000000000000000000000000000000000000000000008000000000000000000000000000000000000000000400000000000000000000000000000000000000000000000000010000000000100000008000001000000000000000000000000000000000000000000000000000000000000000080000000000000000800000040000000000100008000000000000002000001000000000000000001000800008000000800000010000000000000000800000000000000000000000000000000000000000001000400000000",
      "type": "0x2",
      "transactionHash": "0x6308cff8ed9bbb2f1f94fbe8b90916de93b8ce65efce00d63e5c3174fa72ada3",
      "transactionIndex": "0x95",
      "blockHash": "0xe920e4a261690c4e538421e1b949aa64e2c99de742691717d0e855802c191616",
      "blockNumber": "0x9e9b3a",
      "gasUsed": "0x1eba2",
      "effectiveGasPrice": "0xf43b0",
      "from": "0x474b4e7fd1a143edea6b77aa845f429d443e6410",
      "to": "0x76c7970daa3cc6303645686b8d573b1ad5ec6909",
      "contractAddress": null
    },
    {
      "status": "0x1",
      "cumulativeGasUsed": "0x1226214",
      "logs": [
        {
          "address": "0xbb46678a1f6c527bd79ecfbf85332b8ae83ceaf1",
          "topics": [
            "0x8c5be1e5ebec7d5bd14f71427d1e84f3dd0314c0f7b2291e5b200ac8c7c3b925",
            "0x000000000000000000000000f68d9e0faa751ad61e0ed70852798bf9d9c04bf7",
            "0x00000000000000000000000076c7970daa3cc6303645686b8d573b1ad5ec6909"
          ],
          "data": "0x000000000000000000000000000000000000000000034f086f3b33b684000000",
          "blockHash": "0x49d42707dd04eb79c6ee40f3297c70e832d088a173638f3fa1167f607753d0fc",
          "blockNumber": "0x9e9b3b",
          "blockTimestamp": "0x69aa6ca0",
          "transactionHash": "0xa490653f7586735aa4687410d9f12393633931e163378bb0e1926a1c19564e54",
          "transactionIndex": "0x99",
          "logIndex": "0x1a3",
          "removed": false
        }
      ],
      "logsBloom": "0x00000000000000000000000000000000000000000000000000000000000000800000000000000000000000000000000000000000000000000000000000200000000000000000000000000000000000000000000000000000000000000000000000000000000000000000000000000000000000000000000000000000000000000100000008000000000000000000000000000000000000000000000000000000020000000000000080000000000000000400000000000000000000008000000000000000000000000000000000000001000000008000000000000000000000000010000800000000000000000000000000000000000000000000000000000000",
      "type": "0x2",
      "transactionHash": "0xa490653f7586735aa4687410d9f12393633931e163378bb0e1926a1c19564e54",
      "transactionIndex": "0x99",
      "blockHash": "0x49d42707dd04eb79c6ee40f3297c70e832d088a173638f3fa1167f607753d0fc",
      "blockNumber": "0x9e9b3b",
      "gasUsed": "0xb768",
      "effectiveGasPrice": "0xf43bd",
      "from": "0xf68d9e0faa751ad61e0ed70852798bf9d9c04bf7",
      "to": "0xbb46678a1f6c527bd79ecfbf85332b8ae83ceaf1",
      "contractAddress": null
    },
    {
      "status": "0x1",
      "cumulativeGasUsed": "0x24c83fa",
      "logs": [
        {
          "address": "0xbb46678a1f6c527bd79ecfbf85332b8ae83ceaf1",
          "topics": [
            "0xddf252ad1be2c89b69c2b068fc378daa952ba7f163c4a11628f55a4df523b3ef",
            "0x000000000000000000000000f68d9e0faa751ad61e0ed70852798bf9d9c04bf7",
            "0x00000000000000000000000076c7970daa3cc6303645686b8d573b1ad5ec6909"
          ],
          "data": "0x000000000000000000000000000000000000000000034f086f3b33b684000000",
          "blockHash": "0xd5c2d35cf8be3920ff1cdb3da9fd354cd4ca2d6a0dd5d3b6c28f79f9a0cc054e",
          "blockNumber": "0x9e9b3c",
          "blockTimestamp": "0x69aa6cac",
          "transactionHash": "0xaaab2fba0a316eeec325f6292f7d2c30c0b5d14b0dea60569cb73c6463ef5bc4",
          "transactionIndex": "0x90",
          "logIndex": "0x1fb",
          "removed": false
        },
        {
          "address": "0x76c7970daa3cc6303645686b8d573b1ad5ec6909",
          "topics": [
            "0x30f6180e248310ab0c789da3026fbba7390872be072cfc5b3c20733f3a980c9e",
            "0x000000000000000000000000f68d9e0faa751ad61e0ed70852798bf9d9c04bf7",
            "0x000000000000000000000000bb46678a1f6c527bd79ecfbf85332b8ae83ceaf1"
          ],
          "data": "0x000000000000000000000000000000000000000000034f086f3b33b684000000",
          "blockHash": "0xd5c2d35cf8be3920ff1cdb3da9fd354cd4ca2d6a0dd5d3b6c28f79f9a0cc054e",
          "blockNumber": "0x9e9b3c",
          "blockTimestamp": "0x69aa6cac",
          "transactionHash": "0xaaab2fba0a316eeec325f6292f7d2c30c0b5d14b0dea60569cb73c6463ef5bc4",
          "transactionIndex": "0x90",
          "logIndex": "0x1fc",
          "removed": false
        }
      ],
      "logsBloom": "0x00000000000000000000000000000000000000000000000000000000000000800000000000000000000000000000000000000000000000000000000000000000000000000000000000000008000000000000000000000000000000000000000000000000000000000000000000000000000000000000000000000010000000000100000008000001000000000000000000000000000000000000000000000000000000000000000080000000000000000c00000040000000000000008000000000000002000001000000000000000001000800008000000800000000000000000000000800000000000000000000000000000000000000000001000400000000",
      "type": "0x2",
      "transactionHash": "0xaaab2fba0a316eeec325f6292f7d2c30c0b5d14b0dea60569cb73c6463ef5bc4",
      "transactionIndex": "0x90",
      "blockHash": "0xd5c2d35cf8be3920ff1cdb3da9fd354cd4ca2d6a0dd5d3b6c28f79f9a0cc054e",
      "blockNumber": "0x9e9b3c",
      "gasUsed": "0x1a8d6",
      "effectiveGasPrice": "0xf43c7",
      "from": "0xf68d9e0faa751ad61e0ed70852798bf9d9c04bf7",
      "to": "0x76c7970daa3cc6303645686b8d573b1ad5ec6909",
      "contractAddress": null
    },
    {
      "status": "0x1",
      "cumulativeGasUsed": "0x129c312",
      "logs": [
        {
          "address": "0xbb46678a1f6c527bd79ecfbf85332b8ae83ceaf1",
          "topics": [
            "0x8c5be1e5ebec7d5bd14f71427d1e84f3dd0314c0f7b2291e5b200ac8c7c3b925",
            "0x00000000000000000000000010db2e70118e5fbeda30391ec957e608c9e4517e",
            "0x00000000000000000000000076c7970daa3cc6303645686b8d573b1ad5ec6909"
          ],
          "data": "0x000000000000000000000000000000000000000000034f086f3b33b684000000",
          "blockHash": "0x6a90fcae1120ebedd0b7480b0676cbcc71eb3e96e1cc5860a12ec2ab1dae1c31",
          "blockNumber": "0x9e9b3d",
          "blockTimestamp": "0x69aa6cb8",
          "transactionHash": "0xe41419b9cdb5de67576b0279e18e5cc8e3d595fb149d480fdb7df3af4911e2a7",
          "transactionIndex": "0x94",
          "logIndex": "0x19b",
          "removed": false
        }
      ],
      "logsBloom": "0x00000000000000000000000000000000000000000000000000000000000000000000000000000000000000000000000000000000000000000000000000200000000000000000000000000000000000000000000000000000000000000000000000000000000000000000000000000000000000000000000000000000000000000100000008000000000000000000000000000000000000000000000000000000020000000000000080000000000000000000000000000000000000008000000000000000000000000000000041000000000000008000000000000000000000000010000800000000000080000000000000000000000000000000000000000000",
      "type": "0x2",
      "transactionHash": "0xe41419b9cdb5de67576b0279e18e5cc8e3d595fb149d480fdb7df3af4911e2a7",
      "transactionIndex": "0x94",
      "blockHash": "0x6a90fcae1120ebedd0b7480b0676cbcc71eb3e96e1cc5860a12ec2ab1dae1c31",
      "blockNumber": "0x9e9b3d",
      "gasUsed": "0xb768",
      "effectiveGasPrice": "0xf43d8",
      "from": "0x10db2e70118e5fbeda30391ec957e608c9e4517e",
      "to": "0xbb46678a1f6c527bd79ecfbf85332b8ae83ceaf1",
      "contractAddress": null
    },
    {
      "status": "0x1",
      "cumulativeGasUsed": "0x1250ecf",
      "logs": [
        {
          "address": "0xbb46678a1f6c527bd79ecfbf85332b8ae83ceaf1",
          "topics": [
            "0xddf252ad1be2c89b69c2b068fc378daa952ba7f163c4a11628f55a4df523b3ef",
            "0x00000000000000000000000010db2e70118e5fbeda30391ec957e608c9e4517e",
            "0x00000000000000000000000076c7970daa3cc6303645686b8d573b1ad5ec6909"
          ],
          "data": "0x000000000000000000000000000000000000000000034f086f3b33b684000000",
          "blockHash": "0x12cc0722ac1c22916efab150f1dd64d7a0e30dd59ef300c25eecd6cf08ffb934",
          "blockNumber": "0x9e9b3e",
          "blockTimestamp": "0x69aa6cc4",
          "transactionHash": "0x30c56417985dcb1142a03889e225b95e33fc82c75bd1faeb1a24e03222ae1f82",
          "transactionIndex": "0x8f",
          "logIndex": "0x19e",
          "removed": false
        },
        {
          "address": "0x76c7970daa3cc6303645686b8d573b1ad5ec6909",
          "topics": [
            "0x30f6180e248310ab0c789da3026fbba7390872be072cfc5b3c20733f3a980c9e",
            "0x00000000000000000000000010db2e70118e5fbeda30391ec957e608c9e4517e",
            "0x000000000000000000000000bb46678a1f6c527bd79ecfbf85332b8ae83ceaf1"
          ],
          "data": "0x000000000000000000000000000000000000000000034f086f3b33b684000000",
          "blockHash": "0x12cc0722ac1c22916efab150f1dd64d7a0e30dd59ef300c25eecd6cf08ffb934",
          "blockNumber": "0x9e9b3e",
          "blockTimestamp": "0x69aa6cc4",
          "transactionHash": "0x30c56417985dcb1142a03889e225b95e33fc82c75bd1faeb1a24e03222ae1f82",
          "transactionIndex": "0x8f",
          "logIndex": "0x19f",
          "removed": false
        }
      ],
      "logsBloom": "0x00000000000000000000000000000000000000000000000000000000000000000000000000000000000000000000000000000000000000000000000000000000000000000000000000000008000000000000000000000000000000000000000000000000000000000000000000000000000000000000000000000010000000000100000008000001000000000000000000000000000000000000000000000000000000000000000080000000000000000800000040000000000000008000000000000002000001000000000041000001000800008000000800000000000000000000000800000000000080000000000000000000000000000001000400000000",
      "type": "0x2",
      "transactionHash": "0x30c56417985dcb1142a03889e225b95e33fc82c75bd1faeb1a24e03222ae1f82",
      "transactionIndex": "0x8f",
      "blockHash": "0x12cc0722ac1c22916efab150f1dd64d7a0e30dd59ef300c25eecd6cf08ffb934",
      "blockNumber": "0x9e9b3e",
      "gasUsed": "0x1a8d6",
      "effectiveGasPrice": "0xf43e1",
      "from": "0x10db2e70118e5fbeda30391ec957e608c9e4517e",
      "to": "0x76c7970daa3cc6303645686b8d573b1ad5ec6909",
      "contractAddress": null
    }
  ],
  "libraries": [],
  "pending": [],
  "returns": {},
  "timestamp": 1772776644658,
  "chain": 11155111,
  "commit": "2a5e0a9"
}