{
  "transactions": [
    {
      "hash": "0xb7882b65b1e00e4e96f7b40f917053dbb4fd199fdd376f5eeac83ec9894a4f75",
      "transactionType": "CALL",
      "contractName": null,
      "contractAddress": "0xbb46678a1f6c527bd79ecfbf85332b8ae83ceaf1",
      "function": "mint(address,uint256)",
      "arguments": [
        "0x474B4E7FD1A143eDea6b77aa845F429D443E6410",
        "4000000000000000000000000"
      ],
      "transaction": {
        "from": "0x993461bbf7e553eb5bd1f5248a72b524c4a3b15d",
        "to": "0xbb46678a1f6c527bd79ecfbf85332b8ae83ceaf1",
        "gas": "0xc681",
        "value": "0x0",
        "input": "0x40c10f19000000000000000000000000474b4e7fd1a143edea6b77aa845f429d443e6410000000000000000000000000000000000000000000034f086f3b33b684000000",
        "nonce": "0x50c",
        "chainId": "0xaa36a7"
      },
      "additionalContracts": [],
      "isFixedGasLimit": false
    },
    {
      "hash": "0x9f5cc3227ffb1bdd2540072f45e61faf4ddef454eabacd27dafc4da26129a07b",
      "transactionType": "CALL",
      "contractName": null,
      "contractAddress": "0xbb46678a1f6c527bd79ecfbf85332b8ae83ceaf1",
      "function": "mint(address,uint256)",
      "arguments": [
        "0xf68D9e0fAa751AD61e0ED70852798bF9D9C04bF7",
        "4000000000000000000000000"
      ],
      "transaction": {
        "from": "0x993461bbf7e553eb5bd1f5248a72b524c4a3b15d",
        "to": "0xbb46678a1f6c527bd79ecfbf85332b8ae83ceaf1",
        "gas": "0xc681",
        "value": "0x0",
        "input": "0x40c10f19000000000000000000000000f68d9e0faa751ad61e0ed70852798bf9d9c04bf7000000000000000000000000000000000000000000034f086f3b33b684000000",
        "nonce": "0x50d",
        "chainId": "0xaa36a7"
      },
      "additionalContracts": [],
      "isFixedGasLimit": false
    },
    {
      "hash": "0x1b4f76ad20495155c44b1106c1f4abf37b27482b1f887c2871dfbcf352fdf991",
      "transactionType": "CALL",
      "contractName": null,
      "contractAddress": "0xbb46678a1f6c527bd79ecfbf85332b8ae83ceaf1",
      "function": "mint(address,uint256)",
      "arguments": [
        "0x10Db2E70118e5FBeDa30391ec957e608C9E4517E",
        "4000000000000000000000000"
      ],
      "transaction": {
        "from": "0x993461bbf7e553eb5bd1f5248a72b524c4a3b15d",
        "to": "0xbb46678a1f6c527bd79ecfbf85332b8ae83ceaf1",
        "gas": "0xc681",
        "value": "0x0",
        "input": "0x40c10f1900000000000000000000000010db2e70118e5fbeda30391ec957e608c9e4517e000000000000000000000000000000000000000000034f086f3b33b684000000",
        "nonce": "0x50e",
        "chainId": "0xaa36a7"
      },
      "additionalContracts": [],
      "isFixedGasLimit": false
    },
    {
      "hash": "0x1cb38429d2856d7e5f665e09ff2044e0f6e15a8d3df1bec567f34453154b1ee2",
      "transactionType": "CALL",
      "contractName": null,
      "contractAddress": "0xbb46678a1f6c527bd79ecfbf85332b8ae83ceaf1",
      "function": "approve(address,uint256)",
      "arguments": [
        "0x2715ee693501D060Ba817BFC9f97F32EA8660dd8",
        "4000000000000000000000000"
      ],
      "transaction": {
        "from": "0x474b4e7fd1a143edea6b77aa845f429d443e6410",
        "to": "0xbb46678a1f6c527bd79ecfbf85332b8ae83ceaf1",
        "gas": "0xfd53",
        "value": "0x0",
        "input": "0x095ea7b30000000000000000000000002715ee693501d060ba817bfc9f97f32ea8660dd8000000000000000000000000000000000000000000034f086f3b33b684000000",
        "nonce": "0x58",
        "chainId": "0xaa36a7"
      },
      "additionalContracts": [],
      "isFixedGasLimit": false
    },
    {
      "hash": "0xb752c6feef213daac0f9b35a869cbc912f3975016cd21cbdeca81b21552b24eb",
      "transactionType": "CALL",
      "contractName": "MarginVault",
      "contractAddress": "0x2715ee693501d060ba817bfc9f97f32ea8660dd8",
      "function": "depositMargin(bytes32,address,uint256)",
      "arguments": [
        "0x000000000000000000000000474b4e7fd1a143edea6b77aa845f429d443e6410",
        "0xbb46678a1F6C527bD79eCFBF85332B8Ae83ceaf1",
        "4000000000000000000000000"
      ],
      "transaction": {
        "from": "0x474b4e7fd1a143edea6b77aa845f429d443e6410",
        "to": "0x2715ee693501d060ba817bfc9f97f32ea8660dd8",
        "gas": "0x2cf03",
        "value": "0x0",
        "input": "0x6812d315000000000000000000000000474b4e7fd1a143edea6b77aa845f429d443e6410000000000000000000000000bb46678a1f6c527bd79ecfbf85332b8ae83ceaf1000000000000000000000000000000000000000000034f086f3b33b684000000",
        "nonce": "0x59",
        "chainId": "0xaa36a7"
      },
      "additionalContracts": [],
      "isFixedGasLimit": false
    },
    {
      "hash": "0xe362d53a673d9fd64cacee29a8c45bfde996dc0e14064389c53ad71f25f51ec3",
      "transactionType": "CALL",
      "contractName": null,
      "contractAddress": "0xbb46678a1f6c527bd79ecfbf85332b8ae83ceaf1",
      "function": "approve(address,uint256)",
      "arguments": [
        "0x2715ee693501D060Ba817BFC9f97F32EA8660dd8",
        "4000000000000000000000000"
      ],
      "transaction": {
        "from": "0xf68d9e0faa751ad61e0ed70852798bf9d9c04bf7",
        "to": "0xbb46678a1f6c527bd79ecfbf85332b8ae83ceaf1",
        "gas": "0xfd53",
        "value": "0x0",
        "input": "0x095ea7b30000000000000000000000002715ee693501d060ba817bfc9f97f32ea8660dd8000000000000000000000000000000000000000000034f086f3b33b684000000",
        "nonce": "0x56",
        "chainId": "0xaa36a7"
      },
      "additionalContracts": [],
      "isFixedGasLimit": false
    },
    {
      "hash": "0x3262ef1a0d0e7f38101d476e42d7403683218461a44b8d43b4f4f8a87dee6976",
      "transactionType": "CALL",
      "contractName": "MarginVault",
      "contractAddress": "0x2715ee693501d060ba817bfc9f97f32ea8660dd8",
      "function": "depositMargin(bytes32,address,uint256)",
      "arguments": [
        "0x000000000000000000000000f68d9e0faa751ad61e0ed70852798bf9d9c04bf7",
        "0xbb46678a1F6C527bD79eCFBF85332B8Ae83ceaf1",
        "4000000000000000000000000"
      ],
      "transaction": {
        "from": "0xf68d9e0faa751ad61e0ed70852798bf9d9c04bf7",
        "to": "0x2715ee693501d060ba817bfc9f97f32ea8660dd8",
        "gas": "0x24acd",
        "value": "0x0",
        "input": "0x6812d315000000000000000000000000f68d9e0faa751ad61e0ed70852798bf9d9c04bf7000000000000000000000000bb46678a1f6c527bd79ecfbf85332b8ae83ceaf1000000000000000000000000000000000000000000034f086f3b33b684000000",
        "nonce": "0x57",
        "chainId": "0xaa36a7"
      },
      "additionalContracts": [],
      "isFixedGasLimit": false
    },
    {
      "hash": "0x45a33ea1653c0f269f076c88b47d2fcf6431fad87924aa91d507eb5c1355607e",
      "transactionType": "CALL",
      "contractName": null,
      "contractAddress": "0xbb46678a1f6c527bd79ecfbf85332b8ae83ceaf1",
      "function": "approve(address,uint256)",
      "arguments": [
        "0x2715ee693501D060Ba817BFC9f97F32EA8660dd8",
        "4000000000000000000000000"
      ],
      "transaction": {
        "from": "0x10db2e70118e5fbeda30391ec957e608c9e4517e",
        "to": "0xbb46678a1f6c527bd79ecfbf85332b8ae83ceaf1",
        "gas": "0xfd53",
        "value": "0x0",
        "input": "0x095ea7b30000000000000000000000002715ee693501d060ba817bfc9f97f32ea8660dd8000000000000000000000000000000000000000000034f086f3b33b684000000",
        "nonce": "0x23",
        "chainId": "0xaa36a7"
      },
      "additionalContracts": [],
      "isFixedGasLimit": false
    },
    {
      "hash": "0xf7e5ec3416733347c0cc49a6858a7246307dc88d60f8ce22545e2ff5dda9bd74",
      "transactionType": "CALL",
      "contractName": "MarginVault",
      "contractAddress": "0x2715ee693501d060ba817bfc9f97f32ea8660dd8",
      "function": "depositMargin(bytes32,address,uint256)",
      "arguments": [
        "0x00000000000000000000000010db2e70118e5fbeda30391ec957e608c9e4517e",
        "0xbb46678a1F6C527bD79eCFBF85332B8Ae83ceaf1",
        "4000000000000000000000000"
      ],
      "transaction": {
        "from": "0x10db2e70118e5fbeda30391ec957e608c9e4517e",
        "to": "0x2715ee693501d060ba817bfc9f97f32ea8660dd8",
        "gas": "0x24acd",
        "value": "0x0",
        "input": "0x6812d31500000000000000000000000010db2e70118e5fbeda30391ec957e608c9e4517e000000000000000000000000bb46678a1f6c527bd79ecfbf85332b8ae83ceaf1000000000000000000000000000000000000000000034f086f3b33b684000000",
        "nonce": "0x24",
        "chainId": "0xaa36a7"
      },
      "additionalContracts": [],
      "isFixedGasLimit": false
    }
  ],
  "receipts": [
    {
      "status": "0x1",
      "cumulativeGasUsed": "0x142e1b6",
      "logs": [
        {
          "address": "0xbb46678a1f6c527bd79ecfbf85332b8ae83ceaf1",
          "topics": [
            "0xddf252ad1be2c89b69c2b068fc378daa952ba7f163c4a11628f55a4df523b3ef",
            "0x0000000000000000000000000000000000000000000000000000000000000000",
            "0x000000000000000000000000474b4e7fd1a143edea6b77aa845f429d443e6410"
          ],
          "data": "0x000000000000000000000000000000000000000000034f086f3b33b684000000",
          "blockHash": "0xf8423b58f3528bea7ad7bb6f896a62cc9533ae74885b567a1c83f1b3a2877f65",
          "blockNumber": "0x9e9fc4",
          "blockTimestamp": "0x69aaa750",
          "transactionHash": "0xb7882b65b1e00e4e96f7b40f917053dbb4fd199fdd376f5eeac83ec9894a4f75",
          "transactionIndex": "0x8d",
          "logIndex": "0x1a6",
          "removed": false
        }
      ],
      "logsBloom": "0x00000000000000000000000000000000000000000000000000000000000000000000000000000000000000000000000000000000000000000000000000000000000000000000000000000008000000000000000000000000000000000000000000400000020000000000000000000800000000000000000000000010000000000100000008000000000000000000000000000000000000000000000000000000000000000000000000000000000000000000000000000000000100000000000000000002000000000000000000000000000000008000000000000010000020000000000000000000000000000000000000000000000000000000000000000000",
      "type": "0x2",
      "transactionHash": "0xb7882b65b1e00e4e96f7b40f917053dbb4fd199fdd376f5eeac83ec9894a4f75",
      "transactionIndex": "0x8d",
      "blockHash": "0xf8423b58f3528bea7ad7bb6f896a62cc9533ae74885b567a1c83f1b3a2877f65",
      "blockNumber": "0x9e9fc4",
      "gasUsed": "0x87bb",
      "effectiveGasPrice": "0x4de1851",
      "from": "0x993461bbf7e553eb5bd1f5248a72b524c4a3b15d",
      "to": "0xbb46678a1f6c527bd79ecfbf85332b8ae83ceaf1",
      "contractAddress": null
    },
    {
      "status": "0x1",
      "cumulativeGasUsed": "0xf1e21f",
      "logs": [
        {
          "address": "0xbb46678a1f6c527bd79ecfbf85332b8ae83ceaf1",
          "topics": [
            "0xddf252ad1be2c89b69c2b068fc378daa952ba7f163c4a11628f55a4df523b3ef",
            "0x0000000000000000000000000000000000000000000000000000000000000000",
            "0x000000000000000000000000f68d9e0faa751ad61e0ed70852798bf9d9c04bf7"
          ],
          "data": "0x000000000000000000000000000000000000000000034f086f3b33b684000000",
          "blockHash": "0xc3b1b252332497ecec239b171e7bce5313fffeceecd453e0fce2800274870dbe",
          "blockNumber": "0x9e9fc5",
          "blockTimestamp": "0x69aaa75c",
          "transactionHash": "0x9f5cc3227ffb1bdd2540072f45e61faf4ddef454eabacd27dafc4da26129a07b",
          "transactionIndex": "0x67",
          "logIndex": "0x12b",
          "removed": false
        }
      ],
      "logsBloom": "0x00000000000000000000000000000000000000000000000000000000000000800000000000000000000000000000000000000000000000000000000000000000000000000000000000000008000000000000000000000000000000000000000000000000020000000000000000000800000000000000000000000010000000000100000008000000000000000000000000000000000000000000000000000000000000000000000000000000000000000400000000000000000000000000000000000002000000000000000000000001000000008000000000000000000020000000000000000000000000000000000000000000000000000000000000000000",
      "type": "0x2",
      "transactionHash": "0x9f5cc3227ffb1bdd2540072f45e61faf4ddef454eabacd27dafc4da26129a07b",
      "transactionIndex": "0x67",
      "blockHash": "0xc3b1b252332497ecec239b171e7bce5313fffeceecd453e0fce2800274870dbe",
      "blockNumber": "0x9e9fc5",
      "gasUsed": "0x87bb",
      "effectiveGasPrice": "0x4c94689",
      "from": "0x993461bbf7e553eb5bd1f5248a72b524c4a3b15d",
      "to": "0xbb46678a1f6c527bd79ecfbf85332b8ae83ceaf1",
      "contractAddress": null
    },
    {
      "status": "0x1",
      "cumulativeGasUsed": "0x155aa70",
      "logs": [
        {
          "address": "0xbb46678a1f6c527bd79ecfbf85332b8ae83ceaf1",
          "topics": [
            "0xddf252ad1be2c89b69c2b068fc378daa952ba7f163c4a11628f55a4df523b3ef",
            "0x0000000000000000000000000000000000000000000000000000000000000000",
            "0x00000000000000000000000010db2e70118e5fbeda30391ec957e608c9e4517e"
          ],
          "data": "0x000000000000000000000000000000000000000000034f086f3b33b684000000",
          "blockHash": "0x8c443a5c0da75ff3b152e6602385d7716745bc35b500fcc8f1a81d489a83517f",
          "blockNumber": "0x9e9fc6",
          "blockTimestamp": "0x69aaa768",
          "transactionHash": "0x1b4f76ad20495155c44b1106c1f4abf37b27482b1f887c2871dfbcf352fdf991",
          "transactionIndex": "0x90",
          "logIndex": "0x1da",
          "removed": false
        }
      ],
      "logsBloom": "0x00000000000000000000000000000000000000000000000000000000000000000000000000000000000000000000000000000000000000000000000000000000000000000000000000000008000000000000000000000000000000000000000000000000020000000000000000000800000000000000000000000010000000000100000008000000000000000000000000000000000000000000000000000000000000000000000000000000000000000000000000000000000000000000000000000002000000000000000041000000000000008000000000000000000020000000000000000000000080000000000000000000000000000000000000000000",
      "type": "0x2",
      "transactionHash": "0x1b4f76ad20495155c44b1106c1f4abf37b27482b1f887c2871dfbcf352fdf991",
      "transactionIndex": "0x90",
      "blockHash": "0x8c443a5c0da75ff3b152e6602385d7716745bc35b500fcc8f1a81d489a83517f",
      "blockNumber": "0x9e9fc6",
      "gasUsed": "0x87bb",
      "effectiveGasPrice": "0x4ac2c91",
      "from": "0x993461bbf7e553eb5bd1f5248a72b524c4a3b15d",
      "to": "0xbb46678a1f6c527bd79ecfbf85332b8ae83ceaf1",
      "contractAddress": null
    },
    {
      "status": "0x1",
      "cumulativeGasUsed": "0xef2fd9",
      "logs": [
        {
          "address": "0xbb46678a1f6c527bd79ecfbf85332b8ae83ceaf1",
          "topics": [
            "0x8c5be1e5ebec7d5bd14f71427d1e84f3dd0314c0f7b2291e5b200ac8c7c3b925",
            "0x000000000000000000000000474b4e7fd1a143edea6b77aa845f429d443e6410",
            "0x0000000000000000000000002715ee693501d060ba817bfc9f97f32ea8660dd8"
          ],
          "data": "0x000000000000000000000000000000000000000000034f086f3b33b684000000",
          "blockHash": "0xe1aadeae235b3885bc00d522d315e3bf317a8393fbd235b6c3b860992f3f6c69",
          "blockNumber": "0x9e9fc7",
          "blockTimestamp": "0x69aaa774",
          "transactionHash": "0x1cb38429d2856d7e5f665e09ff2044e0f6e15a8d3df1bec567f34453154b1ee2",
          "transactionIndex": "0x75",
          "logIndex": "0x12c",
          "removed": false
        }
      ],
      "logsBloom": "0x00000000000000000000000000000000000000000000000000000000000000000000000000000000000000000000000000000000000000000000000000200000000000000000000000000000000000000000000000000000000000000000000000400100000000000000000000000000000000000000000000000000000000000100000008000000000000000000000000000000000000000000000000400000020000000000000000000000000000000000000000000000000100000000000000000000000000000000000000000000000000008000000000000010000002000010000000000000000000000000000000000000000000000000000000000000",
      "type": "0x2",
      "transactionHash": "0x1cb38429d2856d7e5f665e09ff2044e0f6e15a8d3df1bec567f34453154b1ee2",
      "transactionIndex": "0x75",
      "blockHash": "0xe1aadeae235b3885bc00d522d315e3bf317a8393fbd235b6c3b860992f3f6c69",
      "blockNumber": "0x9e9fc7",
      "gasUsed": "0xb768",
      "effectiveGasPrice": "0x48b57f9",
      "from": "0x474b4e7fd1a143edea6b77aa845f429d443e6410",
      "to": "0xbb46678a1f6c527bd79ecfbf85332b8ae83ceaf1",
      "contractAddress": null
    },
    {
      "status": "0x1",
      "cumulativeGasUsed": "0x1ca9560",
      "logs": [
        {
          "address": "0xbb46678a1f6c527bd79ecfbf85332b8ae83ceaf1",
          "topics": [
            "0xddf252ad1be2c89b69c2b068fc378daa952ba7f163c4a11628f55a4df523b3ef",
            "0x000000000000000000000000474b4e7fd1a143edea6b77aa845f429d443e6410",
            "0x0000000000000000000000002715ee693501d060ba817bfc9f97f32ea8660dd8"
          ],
          "data": "0x000000000000000000000000000000000000000000034f086f3b33b684000000",
          "blockHash": "0x9a80f50fa9da509dbc174f97826cbe272161016a1662bf30715738f903d0819e",
          "blockNumber": "0x9e9fc8",
          "blockTimestamp": "0x69aaa78c",
          "transactionHash": "0xb752c6feef213daac0f9b35a869cbc912f3975016cd21cbdeca81b21552b24eb",
          "transactionIndex": "0xbf",
          "logIndex": "0x278",
          "removed": false
        },
        {
          "address": "0x2715ee693501d060ba817bfc9f97f32ea8660dd8",
          "topics": [
            "0x30f6180e248310ab0c789da3026fbba7390872be072cfc5b3c20733f3a980c9e",
            "0x000000000000000000000000474b4e7fd1a143edea6b77aa845f429d443e6410",
            "0x000000000000000000000000bb46678a1f6c527bd79ecfbf85332b8ae83ceaf1"
          ],
          "data": "0x000000000000000000000000000000000000000000034f086f3b33b684000000",
          "blockHash": "0x9a80f50fa9da509dbc174f97826cbe272161016a1662bf30715738f903d0819e",
          "blockNumber": "0x9e9fc8",
          "blockTimestamp": "0x69aaa78c",
          "transactionHash": "0xb752c6feef213daac0f9b35a869cbc912f3975016cd21cbdeca81b21552b24eb",
          "transactionIndex": "0xbf",
          "logIndex": "0x279",
          "removed": false
        }
      ],
      "logsBloom": "0x0000000000000000000000000000000000000000000000000000000000000000000000000000000000000000000000000000000000000000000000000100000000000000000000000000000800000000000000000000000000000000000000000040010000000000000000000000000000000000000000000000001000000000010000000800000100000000000000000000000000000000000000000040000000000000000000000000000000000000000000004000000000010000000000000000000200000100000000000002000100080000800000000000001000000a000000000000000000000000000000000000000000000000000000000400000000",
      "type": "0x2",
      "transactionHash": "0xb752c6feef213daac0f9b35a869cbc912f3975016cd21cbdeca81b21552b24eb",
      "transactionIndex": "0xbf",
      "blockHash": "0x9a80f50fa9da509dbc174f97826cbe272161016a1662bf30715738f903d0819e",
      "blockNumber": "0x9e9fc8",
      "gasUsed": "0x1eba2",
      "effectiveGasPrice": "0x45c3e45",
      "from": "0x474b4e7fd1a143edea6b77aa845f429d443e6410",
      "to": "0x2715ee693501d060ba817bfc9f97f32ea8660dd8",
      "contractAddress": null
    },
    {
      "status": "0x1",
      "cumulativeGasUsed": "0xd6afcf",
      "logs": [
        {
          "address": "0xbb46678a1f6c527bd79ecfbf85332b8ae83ceaf1",
          "topics": [
            "0x8c5be1e5ebec7d5bd14f71427d1e84f3dd0314c0f7b2291e5b200ac8c7c3b925",
            "0x000000000000000000000000f68d9e0faa751ad61e0ed70852798bf9d9c04bf7",
            "0x0000000000000000000000002715ee693501d060ba817bfc9f97f32ea8660dd8"
          ],
          "data": "0x000000000000000000000000000000000000000000034f086f3b33b684000000",
          "blockHash": "0xac50d1410015a5027663593c231c6d9e544b2e80104fe47217fedc3446dd1b98",
          "blockNumber": "0x9e9fc9",
          "blockTimestamp": "0x69aaa798",
          "transactionHash": "0xe362d53a673d9fd64cacee29a8c45bfde996dc0e14064389c53ad71f25f51ec3",
          "transactionIndex": "0x62",
          "logIndex": "0x104",
          "removed": false
        }
      ],
      "logsBloom": "0x00000000000000000000000000000000000000000000000000000000000000800000000000000000000000000000000000000000000000000000000000200000000000000000000000000000000000000000000000000000000000000000000000000100000000000000000000000000000000000000000000000000000000000100000008000000000000000000000000000000000000000000000000400000020000000000000000000000000000000400000000000000000000000000000000000000000000000000000000000001000000008000000000000000000002000010000000000000000000000000000000000000000000000000000000000000",
      "type": "0x2",
      "transactionHash": "0xe362d53a673d9fd64cacee29a8c45bfde996dc0e14064389c53ad71f25f51ec3",
      "transactionIndex": "0x62",
      "blockHash": "0xac50d1410015a5027663593c231c6d9e544b2e80104fe47217fedc3446dd1b98",
      "blockNumber": "0x9e9fc9",
      "gasUsed": "0xb768",
      "effectiveGasPrice": "0x477b3e8",
      "from": "0xf68d9e0faa751ad61e0ed70852798bf9d9c04bf7",
      "to": "0xbb46678a1f6c527bd79ecfbf85332b8ae83ceaf1",
      "contractAddress": null
    },
    {
      "status": "0x1",
      "cumulativeGasUsed": "0x1585e59",
      "logs": [
        {
          "address": "0xbb46678a1f6c527bd79ecfbf85332b8ae83ceaf1",
          "topics": [
            "0xddf252ad1be2c89b69c2b068fc378daa952ba7f163c4a11628f55a4df523b3ef",
            "0x000000000000000000000000f68d9e0faa751ad61e0ed70852798bf9d9c04bf7",
            "0x0000000000000000000000002715ee693501d060ba817bfc9f97f32ea8660dd8"
          ],
          "data": "0x000000000000000000000000000000000000000000034f086f3b33b684000000",
          "blockHash": "0x82b16c0a0e6afb6b123ec7f32251a4335a4369229d5d99f3da764d975313c183",
          "blockNumber": "0x9e9fca",
          "blockTimestamp": "0x69aaa7a4",
          "transactionHash": "0x3262ef1a0d0e7f38101d476e42d7403683218461a44b8d43b4f4f8a87dee6976",
          "transactionIndex": "0x74",
          "logIndex": "0x1b9",
          "removed": false
        },
        {
          "address": "0x2715ee693501d060ba817bfc9f97f32ea8660dd8",
          "topics": [
            "0x30f6180e248310ab0c789da3026fbba7390872be072cfc5b3c20733f3a980c9e",
            "0x000000000000000000000000f68d9e0faa751ad61e0ed70852798bf9d9c04bf7",
            "0x000000000000000000000000bb46678a1f6c527bd79ecfbf85332b8ae83ceaf1"
          ],
          "data": "0x000000000000000000000000000000000000000000034f086f3b33b684000000",
          "blockHash": "0x82b16c0a0e6afb6b123ec7f32251a4335a4369229d5d99f3da764d975313c183",
          "blockNumber": "0x9e9fca",
          "blockTimestamp": "0x69aaa7a4",
          "transactionHash": "0x3262ef1a0d0e7f38101d476e42d7403683218461a44b8d43b4f4f8a87dee6976",
          "transactionIndex": "0x74",
          "logIndex": "0x1ba",
          "removed": false
        }
      ],
      "logsBloom": "0x0000000000000000000000000000000000000000000000000000000000000080000000000000000000000000000000000000000000000000000000000100000000000000000000000000000800000000000000000000000000000000000000000000010000000000000000000000000000000000000000000000001000000000010000000800000100000000000000000000000000000000000000000040000000000000000000000000000000000000040000004000000000000000000000000000000200000100000000000002000100080000800000000000000000000a000000000000000000000000000000000000000000000000000000000400000000",
      "type": "0x2",
      "transactionHash": "0x3262ef1a0d0e7f38101d476e42d7403683218461a44b8d43b4f4f8a87dee6976",
      "transactionIndex": "0x74",
      "blockHash": "0x82b16c0a0e6afb6b123ec7f32251a4335a4369229d5d99f3da764d975313c183",
      "blockNumber": "0x9e9fca",
      "gasUsed": "0x1a8d6",
      "effectiveGasPrice": "0x438fad5",
      "from": "0xf68d9e0faa751ad61e0ed70852798bf9d9c04bf7",
      "to": "0x2715ee693501d060ba817bfc9f97f32ea8660dd8",
      "contractAddress": null
    },
    {
      "status": "0x1",
      "cumulativeGasUsed": "0x14a2cc4",
      "logs": [
        {
          "address": "0xbb46678a1f6c527bd79ecfbf85332b8ae83ceaf1",
          "topics": [
            "0x8c5be1e5ebec7d5bd14f71427d1e84f3dd0314c0f7b2291e5b200ac8c7c3b925",
            "0x00000000000000000000000010db2e70118e5fbeda30391ec957e608c9e4517e",
            "0x0000000000000000000000002715ee693501d060ba817bfc9f97f32ea8660dd8"
          ],
          "data": "0x000000000000000000000000000000000000000000034f086f3b33b684000000",
          "blockHash": "0x9a62a862a7ee72d65b432ecd75270fdb483e0bc679944e64e654216f94834c08",
          "blockNumber": "0x9e9fcb",
          "blockTimestamp": "0x69aaa7b0",
          "transactionHash": "0x45a33ea1653c0f269f076c88b47d2fcf6431fad87924aa91d507eb5c1355607e",
          "transactionIndex": "0x82",
          "logIndex": "0x1aa",
          "removed": false
        }
      ],
      "logsBloom": "0x00000000000000000000000000000000000000000000000000000000000000000000000000000000000000000000000000000000000000000000000000200000000000000000000000000000000000000000000000000000000000000000000000000100000000000000000000000000000000000000000000000000000000000100000008000000000000000000000000000000000000000000000000400000020000000000000000000000000000000000000000000000000000000000000000000000000000000000000041000000000000008000000000000000000002000010000000000000000080000000000000000000000000000000000000000000",
      "type": "0x2",
      "transactionHash": "0x45a33ea1653c0f269f076c88b47d2fcf6431fad87924aa91d507eb5c1355607e",
      "transactionIndex": "0x82",
      "blockHash": "0x9a62a862a7ee72d65b432ecd75270fdb483e0bc679944e64e654216f94834c08",
      "blockNumber": "0x9e9fcb",
      "gasUsed": "0xb768",
      "effectiveGasPrice": "0x428a0d8",
      "from": "0x10db2e70118e5fbeda30391ec957e608c9e4517e",
      "to": "0xbb46678a1f6c527bd79ecfbf85332b8ae83ceaf1",
      "contractAddress": null
    },
    {
      "status": "0x1",
      "cumulativeGasUsed": "0x1793025",
      "logs": [
        {
          "address": "0xbb46678a1f6c527bd79ecfbf85332b8ae83ceaf1",
          "topics": [
            "0xddf252ad1be2c89b69c2b068fc378daa952ba7f163c4a11628f55a4df523b3ef",
            "0x00000000000000000000000010db2e70118e5fbeda30391ec957e608c9e4517e",
            "0x0000000000000000000000002715ee693501d060ba817bfc9f97f32ea8660dd8"
          ],
          "data": "0x000000000000000000000000000000000000000000034f086f3b33b684000000",
          "blockHash": "0x996e1e6cbfb330d356f4859a542399e383320ed2dd456512f44d57d20f307ced",
          "blockNumber": "0x9e9fcc",
          "blockTimestamp": "0x69aaa7bc",
          "transactionHash": "0xf7e5ec3416733347c0cc49a6858a7246307dc88d60f8ce22545e2ff5dda9bd74",
          "transactionIndex": "0x99",
          "logIndex": "0x197",
          "removed": false
        },
        {
          "address": "0x2715ee693501d060ba817bfc9f97f32ea8660dd8",
          "topics": [
            "0x30f6180e248310ab0c789da3026fbba7390872be072cfc5b3c20733f3a980c9e",
            "0x00000000000000000000000010db2e70118e5fbeda30391ec957e608c9e4517e",
            "0x000000000000000000000000bb46678a1f6c527bd79ecfbf85332b8ae83ceaf1"
          ],
          "data": "0x000000000000000000000000000000000000000000034f086f3b33b684000000",
          "blockHash": "0x996e1e6cbfb330d356f4859a542399e383320ed2dd456512f44d57d20f307ced",
          "blockNumber": "0x9e9fcc",
          "blockTimestamp": "0x69aaa7bc",
          "transactionHash": "0xf7e5ec3416733347c0cc49a6858a7246307dc88d60f8ce22545e2ff5dda9bd74",
          "transactionIndex": "0x99",
          "logIndex": "0x198",
          "removed": false
        }
      ],
      "logsBloom": "0x0000000000000000000000000000000000000000000000000000000000000000000000000000000000000000000000000000000000000000000000000100000000000000000000000000000800000000000000000000000000000000000000000000010000000000000000000000000000000000000000000000001000000000010000000800000100000000000000000000000000000000000000000040000000000000000000000000000000000000000000004000000000000000000000000000000200000100000000004102000100080000800000000000000000000a000000000000000000000080000000000000000000000000000000000400000000",
      "type": "0x2",
      "transactionHash": "0xf7e5ec3416733347c0cc49a6858a7246307dc88d60f8ce22545e2ff5dda9bd74",
      "transactionIndex": "0x99",
      "blockHash": "0x996e1e6cbfb330d356f4859a542399e383320ed2dd456512f44d57d20f307ced",
      "blockNumber": "0x9e9fcc",
      "gasUsed": "0x1a8d6",
      "effectiveGasPrice": "0x40fb445",
      "from": "0x10db2e70118e5fbeda30391ec957e608c9e4517e",
      "to": "0x2715ee693501d060ba817bfc9f97f32ea8660dd8",
      "contractAddress": null
    }
  ],
  "libraries": [],
  "pending": [],
  "returns": {},
  "timestamp": 1772791740386,
  "chain": 11155111,
  "commit": "f48a2f7"
}