{
  "transactions": [
    {
      "hash": "0xfd35d69eb0e39aa0cd7554012de05323aaf4605781d9e15d8bde4259f06d48db",
      "transactionType": "CALL",
      "contractName": null,
      "contractAddress": "0xbb46678a1f6c527bd79ecfbf85332b8ae83ceaf1",
      "function": "mint(address,uint256)",
      "arguments": [
        "0x474B4E7FD1A143eDea6b77aa845F429D443E6410",
        "4000000000000000000000000"
      ],
      "transaction": {
        "from": "0x993461bbf7e553eb5bd1f5248a72b524c4a3b15d",
        "to": "0xbb46678a1f6c527bd79ecfbf85332b8ae83ceaf1",
        "gas": "0xc681",
        "value": "0x0",
        "input": "0x40c10f19000000000000000000000000474b4e7fd1a143edea6b77aa845f429d443e6410000000000000000000000000000000000000000000034f086f3b33b684000000",
        "nonce": "0x42b",
        "chainId": "0xaa36a7"
      },
      "additionalContracts": [],
      "isFixedGasLimit": false
    },
    {
      "hash": "0x80e8673c29381a9ec7015facd92d0411551a930afee27aac8fccac8bd3254978",
      "transactionType": "CALL",
      "contractName": null,
      "contractAddress": "0xbb46678a1f6c527bd79ecfbf85332b8ae83ceaf1",
      "function": "mint(address,uint256)",
      "arguments": [
        "0xf68D9e0fAa751AD61e0ED70852798bF9D9C04bF7",
        "4000000000000000000000000"
      ],
      "transaction": {
        "from": "0x993461bbf7e553eb5bd1f5248a72b524c4a3b15d",
        "to": "0xbb46678a1f6c527bd79ecfbf85332b8ae83ceaf1",
        "gas": "0xc681",
        "value": "0x0",
        "input": "0x40c10f19000000000000000000000000f68d9e0faa751ad61e0ed70852798bf9d9c04bf7000000000000000000000000000000000000000000034f086f3b33b684000000",
        "nonce": "0x42c",
        "chainId": "0xaa36a7"
      },
      "additionalContracts": [],
      "isFixedGasLimit": false
    },
    {
      "hash": "0xf14f5537a6dd1816ab618c1131fbdba52a1c8906c3445fb647657610731d5493",
      "transactionType": "CALL",
      "contractName": null,
      "contractAddress": "0xbb46678a1f6c527bd79ecfbf85332b8ae83ceaf1",
      "function": "mint(address,uint256)",
      "arguments": [
        "0x10Db2E70118e5FBeDa30391ec957e608C9E4517E",
        "4000000000000000000000000"
      ],
      "transaction": {
        "from": "0x993461bbf7e553eb5bd1f5248a72b524c4a3b15d",
        "to": "0xbb46678a1f6c527bd79ecfbf85332b8ae83ceaf1",
        "gas": "0xc681",
        "value": "0x0",
        "input": "0x40c10f1900000000000000000000000010db2e70118e5fbeda30391ec957e608c9e4517e000000000000000000000000000000000000000000034f086f3b33b684000000",
        "nonce": "0x42d",
        "chainId": "0xaa36a7"
      },
      "additionalContracts": [],
      "isFixedGasLimit": false
    },
    {
      "hash": "0x4a92bf292efd08ae458690485267287ee9f71c8c7cd829a766611adcf586dae4",
      "transactionType": "CALL",
      "contractName": null,
      "contractAddress": "0xbb46678a1f6c527bd79ecfbf85332b8ae83ceaf1",
      "function": "approve(address,uint256)",
      "arguments": [
        "0xbdEbEF2ADF1065e4D28fCBFFe89aE4C410d4c171",
        "4000000000000000000000000"
      ],
      "transaction": {
        "from": "0x474b4e7fd1a143edea6b77aa845f429d443e6410",
        "to": "0xbb46678a1f6c527bd79ecfbf85332b8ae83ceaf1",
        "gas": "0xfd53",
        "value": "0x0",
        "input": "0x095ea7b3000000000000000000000000bdebef2adf1065e4d28fcbffe89ae4c410d4c171000000000000000000000000000000000000000000034f086f3b33b684000000",
        "nonce": "0x41",
        "chainId": "0xaa36a7"
      },
      "additionalContracts": [],
      "isFixedGasLimit": false
    },
    {
      "hash": "0xe1241ba3cfbc46cc9bddb2a02309af196bb026ace5267930c422f54d5c33ac31",
      "transactionType": "CALL",
      "contractName": "MarginVault",
      "contractAddress": "0xbdebef2adf1065e4d28fcbffe89ae4c410d4c171",
      "function": "depositMargin(bytes32,address,uint256)",
      "arguments": [
        "0x000000000000000000000000474b4e7fd1a143edea6b77aa845f429d443e6410",
        "0xbb46678a1F6C527bD79eCFBF85332B8Ae83ceaf1",
        "4000000000000000000000000"
      ],
      "transaction": {
        "from": "0x474b4e7fd1a143edea6b77aa845f429d443e6410",
        "to": "0xbdebef2adf1065e4d28fcbffe89ae4c410d4c171",
        "gas": "0x2cf03",
        "value": "0x0",
        "input": "0x6812d315000000000000000000000000474b4e7fd1a143edea6b77aa845f429d443e6410000000000000000000000000bb46678a1f6c527bd79ecfbf85332b8ae83ceaf1000000000000000000000000000000000000000000034f086f3b33b684000000",
        "nonce": "0x42",
        "chainId": "0xaa36a7"
      },
      "additionalContracts": [],
      "isFixedGasLimit": false
    },
    {
      "hash": "0x368468473f1870cde6b69373be9dbd0079e9099df15c91af14f0bfee4ff655cf",
      "transactionType": "CALL",
      "contractName": null,
      "contractAddress": "0xbb46678a1f6c527bd79ecfbf85332b8ae83ceaf1",
      "function": "approve(address,uint256)",
      "arguments": [
        "0xbdEbEF2ADF1065e4D28fCBFFe89aE4C410d4c171",
        "4000000000000000000000000"
      ],
      "transaction": {
        "from": "0xf68d9e0faa751ad61e0ed70852798bf9d9c04bf7",
        "to": "0xbb46678a1f6c527bd79ecfbf85332b8ae83ceaf1",
        "gas": "0xfd53",
        "value": "0x0",
        "input": "0x095ea7b3000000000000000000000000bdebef2adf1065e4d28fcbffe89ae4c410d4c171000000000000000000000000000000000000000000034f086f3b33b684000000",
        "nonce": "0x40",
        "chainId": "0xaa36a7"
      },
      "additionalContracts": [],
      "isFixedGasLimit": false
    },
    {
      "hash": "0xd7d7d0d745e5ed58ad2b5fb6f718678eebcc311bca4c7f3154a313c802493ab2",
      "transactionType": "CALL",
      "contractName": "MarginVault",
      "contractAddress": "0xbdebef2adf1065e4d28fcbffe89ae4c410d4c171",
      "function": "depositMargin(bytes32,address,uint256)",
      "arguments": [
        "0x000000000000000000000000f68d9e0faa751ad61e0ed70852798bf9d9c04bf7",
        "0xbb46678a1F6C527bD79eCFBF85332B8Ae83ceaf1",
        "4000000000000000000000000"
      ],
      "transaction": {
        "from": "0xf68d9e0faa751ad61e0ed70852798bf9d9c04bf7",
        "to": "0xbdebef2adf1065e4d28fcbffe89ae4c410d4c171",
        "gas": "0x24acd",
        "value": "0x0",
        "input": "0x6812d315000000000000000000000000f68d9e0faa751ad61e0ed70852798bf9d9c04bf7000000000000000000000000bb46678a1f6c527bd79ecfbf85332b8ae83ceaf1000000000000000000000000000000000000000000034f086f3b33b684000000",
        "nonce": "0x41",
        "chainId": "0xaa36a7"
      },
      "additionalContracts": [],
      "isFixedGasLimit": false
    },
    {
      "hash": "0xad52603b00dd225e3134f0156505d434cc185b371466c3d600a622a62a1b55fb",
      "transactionType": "CALL",
      "contractName": null,
      "contractAddress": "0xbb46678a1f6c527bd79ecfbf85332b8ae83ceaf1",
      "function": "approve(address,uint256)",
      "arguments": [
        "0xbdEbEF2ADF1065e4D28fCBFFe89aE4C410d4c171",
        "4000000000000000000000000"
      ],
      "transaction": {
        "from": "0x10db2e70118e5fbeda30391ec957e608c9e4517e",
        "to": "0xbb46678a1f6c527bd79ecfbf85332b8ae83ceaf1",
        "gas": "0xfd53",
        "value": "0x0",
        "input": "0x095ea7b3000000000000000000000000bdebef2adf1065e4d28fcbffe89ae4c410d4c171000000000000000000000000000000000000000000034f086f3b33b684000000",
        "nonce": "0xe",
        "chainId": "0xaa36a7"
      },
      "additionalContracts": [],
      "isFixedGasLimit": false
    },
    {
      "hash": "0x103764e953a004b3ea35cf6e666994b57830c0a468b2b35f73c9f1751251dc67",
      "transactionType": "CALL",
      "contractName": "MarginVault",
      "contractAddress": "0xbdebef2adf1065e4d28fcbffe89ae4c410d4c171",
      "function": "depositMargin(bytes32,address,uint256)",
      "arguments": [
        "0x00000000000000000000000010db2e70118e5fbeda30391ec957e608c9e4517e",
        "0xbb46678a1F6C527bD79eCFBF85332B8Ae83ceaf1",
        "4000000000000000000000000"
      ],
      "transaction": {
        "from": "0x10db2e70118e5fbeda30391ec957e608c9e4517e",
        "to": "0xbdebef2adf1065e4d28fcbffe89ae4c410d4c171",
        "gas": "0x24acd",
        "value": "0x0",
        "input": "0x6812d31500000000000000000000000010db2e70118e5fbeda30391ec957e608c9e4517e000000000000000000000000bb46678a1f6c527bd79ecfbf85332b8ae83ceaf1000000000000000000000000000000000000000000034f086f3b33b684000000",
        "nonce": "0xf",
        "chainId": "0xaa36a7"
      },
      "additionalContracts": [],
      "isFixedGasLimit": false
    }
  ],
  "receipts": [
    {
      "status": "0x1",
      "cumulativeGasUsed": "0x85a162",
      "logs": [
        {
          "address": "0xbb46678a1f6c527bd79ecfbf85332b8ae83ceaf1",
          "topics": [
            "0xddf252ad1be2c89b69c2b068fc378daa952ba7f163c4a11628f55a4df523b3ef",
            "0x0000000000000000000000000000000000000000000000000000000000000000",
            "0x000000000000000000000000474b4e7fd1a143edea6b77aa845f429d443e6410"
          ],
          "data": "0x000000000000000000000000000000000000000000034f086f3b33b684000000",
          "blockHash": "0x4c4a44aaee7d29d5394bbc2da32dcfe09491722623e36edd9362651822eb2fa0",
          "blockNumber": "0x9e8ec5",
          "blockTimestamp": "0x69a9cab8",
          "transactionHash": "0xfd35d69eb0e39aa0cd7554012de05323aaf4605781d9e15d8bde4259f06d48db",
          "transactionIndex": "0x75",
          "logIndex": "0xaa",
          "removed": false
        }
      ],
      "logsBloom": "0x00000000000000000000000000000000000000000000000000000000000000000000000000000000000000000000000000000000000000000000000000000000000000000000000000000008000000000000000000000000000000000000000000400000020000000000000000000800000000000000000000000010000000000100000008000000000000000000000000000000000000000000000000000000000000000000000000000000000000000000000000000000000100000000000000000002000000000000000000000000000000008000000000000010000020000000000000000000000000000000000000000000000000000000000000000000",
      "type": "0x2",
      "transactionHash": "0xfd35d69eb0e39aa0cd7554012de05323aaf4605781d9e15d8bde4259f06d48db",
      "transactionIndex": "0x75",
      "blockHash": "0x4c4a44aaee7d29d5394bbc2da32dcfe09491722623e36edd9362651822eb2fa0",
      "blockNumber": "0x9e8ec5",
      "gasUsed": "0x87bb",
      "effectiveGasPrice": "0xf424a",
      "from": "0x993461bbf7e553eb5bd1f5248a72b524c4a3b15d",
      "to": "0xbb46678a1f6c527bd79ecfbf85332b8ae83ceaf1",
      "contractAddress": null
    },
    {
      "status": "0x1",
      "cumulativeGasUsed": "0x7ea383",
      "logs": [
        {
          "address": "0xbb46678a1f6c527bd79ecfbf85332b8ae83ceaf1",
          "topics": [
            "0xddf252ad1be2c89b69c2b068fc378daa952ba7f163c4a11628f55a4df523b3ef",
            "0x0000000000000000000000000000000000000000000000000000000000000000",
            "0x000000000000000000000000f68d9e0faa751ad61e0ed70852798bf9d9c04bf7"
          ],
          "data": "0x000000000000000000000000000000000000000000034f086f3b33b684000000",
          "blockHash": "0x2af4488a07d3f49228a2bda060ca848b5246695cc5b0312e7a9d6cf6965bd031",
          "blockNumber": "0x9e8ec6",
          "blockTimestamp": "0x69a9cac4",
          "transactionHash": "0x80e8673c29381a9ec7015facd92d0411551a930afee27aac8fccac8bd3254978",
          "transactionIndex": "0x34",
          "logIndex": "0x56",
          "removed": false
        }
      ],
      "logsBloom": "0x00000000000000000000000000000000000000000000000000000000000000800000000000000000000000000000000000000000000000000000000000000000000000000000000000000008000000000000000000000000000000000000000000000000020000000000000000000800000000000000000000000010000000000100000008000000000000000000000000000000000000000000000000000000000000000000000000000000000000000400000000000000000000000000000000000002000000000000000000000001000000008000000000000000000020000000000000000000000000000000000000000000000000000000000000000000",
      "type": "0x2",
      "transactionHash": "0x80e8673c29381a9ec7015facd92d0411551a930afee27aac8fccac8bd3254978",
      "transactionIndex": "0x34",
      "blockHash": "0x2af4488a07d3f49228a2bda060ca848b5246695cc5b0312e7a9d6cf6965bd031",
      "blockNumber": "0x9e8ec6",
      "gasUsed": "0x87bb",
      "effectiveGasPrice": "0xf424a",
      "from": "0x993461bbf7e553eb5bd1f5248a72b524c4a3b15d",
      "to": "0xbb46678a1f6c527bd79ecfbf85332b8ae83ceaf1",
      "contractAddress": null
    },
    {
      "status": "0x1",
      "cumulativeGasUsed": "0x99e98c",
      "logs": [
        {
          "address": "0xbb46678a1f6c527bd79ecfbf85332b8ae83ceaf1",
          "topics": [
            "0xddf252ad1be2c89b69c2b068fc378daa952ba7f163c4a11628f55a4df523b3ef",
            "0x0000000000000000000000000000000000000000000000000000000000000000",
            "0x00000000000000000000000010db2e70118e5fbeda30391ec957e608c9e4517e"
          ],
          "data": "0x000000000000000000000000000000000000000000034f086f3b33b684000000",
          "blockHash": "0x6ea7ad7be6848b43f057a0938086b70dc22629df43f2b97324b23ce63bc3b440",
          "blockNumber": "0x9e8ec7",
          "blockTimestamp": "0x69a9cad0",
          "transactionHash": "0xf14f5537a6dd1816ab618c1131fbdba52a1c8906c3445fb647657610731d5493",
          "transactionIndex": "0x68",
          "logIndex": "0x9a",
          "removed": false
        }
      ],
      "logsBloom": "0x00000000000000000000000000000000000000000000000000000000000000000000000000000000000000000000000000000000000000000000000000000000000000000000000000000008000000000000000000000000000000000000000000000000020000000000000000000800000000000000000000000010000000000100000008000000000000000000000000000000000000000000000000000000000000000000000000000000000000000000000000000000000000000000000000000002000000000000000041000000000000008000000000000000000020000000000000000000000080000000000000000000000000000000000000000000",
      "type": "0x2",
      "transactionHash": "0xf14f5537a6dd1816ab618c1131fbdba52a1c8906c3445fb647657610731d5493",
      "transactionIndex": "0x68",
      "blockHash": "0x6ea7ad7be6848b43f057a0938086b70dc22629df43f2b97324b23ce63bc3b440",
      "blockNumber": "0x9e8ec7",
      "gasUsed": "0x87bb",
      "effectiveGasPrice": "0xf424a",
      "from": "0x993461bbf7e553eb5bd1f5248a72b524c4a3b15d",
      "to": "0xbb46678a1f6c527bd79ecfbf85332b8ae83ceaf1",
      "contractAddress": null
    },
    {
      "status": "0x1",
      "cumulativeGasUsed": "0xaf51c6",
      "logs": [
        {
          "address": "0xbb46678a1f6c527bd79ecfbf85332b8ae83ceaf1",
          "topics": [
            "0x8c5be1e5ebec7d5bd14f71427d1e84f3dd0314c0f7b2291e5b200ac8c7c3b925",
            "0x000000000000000000000000474b4e7fd1a143edea6b77aa845f429d443e6410",
            "0x000000000000000000000000bdebef2adf1065e4d28fcbffe89ae4c410d4c171"
          ],
          "data": "0x000000000000000000000000000000000000000000034f086f3b33b684000000",
          "blockHash": "0xab7606500ccc076af578f826efd1d0e2fed7b2af6d9a855d9f7f55c083b6beb0",
          "blockNumber": "0x9e8ec8",
          "blockTimestamp": "0x69a9cadc",
          "transactionHash": "0x4a92bf292efd08ae458690485267287ee9f71c8c7cd829a766611adcf586dae4",
          "transactionIndex": "0x5d",
          "logIndex": "0x79",
          "removed": false
        }
      ],
      "logsBloom": "0x00000000000000000000000000000000000000000000000000000000000000000000000000000000000000000800000000000000000000000000000000200000000000000000000000000000000000000000000000000000000000000000000000400000000000000000000000000000000000000000000000000000000000000100000008000000000000000000000000000000000000000000000000000000020000000000000000000000800000000000000000000000000100000000000000000000000100000000000000000000000000008000000000000010000000000010000000000000000000000000000000000000000000000000000000000000",
      "type": "0x2",
      "transactionHash": "0x4a92bf292efd08ae458690485267287ee9f71c8c7cd829a766611adcf586dae4",
      "transactionIndex": "0x5d",
      "blockHash": "0xab7606500ccc076af578f826efd1d0e2fed7b2af6d9a855d9f7f55c083b6beb0",
      "blockNumber": "0x9e8ec8",
      "gasUsed": "0xb768",
      "effectiveGasPrice": "0xf424a",
      "from": "0x474b4e7fd1a143edea6b77aa845f429d443e6410",
      "to": "0xbb46678a1f6c527bd79ecfbf85332b8ae83ceaf1",
      "contractAddress": null
    },
    {
      "status": "0x1",
      "cumulativeGasUsed": "0x8af8f9",
      "logs": [
        {
          "address": "0xbb46678a1f6c527bd79ecfbf85332b8ae83ceaf1",
          "topics": [
            "0xddf252ad1be2c89b69c2b068fc378daa952ba7f163c4a11628f55a4df523b3ef",
            "0x000000000000000000000000474b4e7fd1a143edea6b77aa845f429d443e6410",
            "0x000000000000000000000000bdebef2adf1065e4d28fcbffe89ae4c410d4c171"
          ],
          "data": "0x000000000000000000000000000000000000000000034f086f3b33b684000000",
          "blockHash": "0xb893658b0115f092eae86203d221cc41a39b3254c9122c576c4d8e5c559a4fbe",
          "blockNumber": "0x9e8ec9",
          "blockTimestamp": "0x69a9cae8",
          "transactionHash": "0xe1241ba3cfbc46cc9bddb2a02309af196bb026ace5267930c422f54d5c33ac31",
          "transactionIndex": "0x46",
          "logIndex": "0x66",
          "removed": false
        },
        {
          "address": "0xbdebef2adf1065e4d28fcbffe89ae4c410d4c171",
          "topics": [
            "0x30f6180e248310ab0c789da3026fbba7390872be072cfc5b3c20733f3a980c9e",
            "0x000000000000000000000000474b4e7fd1a143edea6b77aa845f429d443e6410",
            "0x000000000000000000000000bb46678a1f6c527bd79ecfbf85332b8ae83ceaf1"
          ],
          "data": "0x000000000000000000000000000000000000000000034f086f3b33b684000000",
          "blockHash": "0xb893658b0115f092eae86203d221cc41a39b3254c9122c576c4d8e5c559a4fbe",
          "blockNumber": "0x9e8ec9",
          "blockTimestamp": "0x69a9cae8",
          "transactionHash": "0xe1241ba3cfbc46cc9bddb2a02309af196bb026ace5267930c422f54d5c33ac31",
          "transactionIndex": "0x46",
          "logIndex": "0x67",
          "removed": false
        }
      ],
      "logsBloom": "0x00000000000000000000000000000000000000000000000000000000000000000002000000000000000000000800000000000000000000000000000000000000000000000000000000000008000000000000000000000000000000000000000000400000000000000000000000000000000000000000000000000010000000000100000008080001000002000000000000000000000000000000000000000000000000000000000000000000800000000000000040000000000100000000000000000002000101000000000000000001000800008000000000000010000000000000000000000000000000000000000000000000000000000000000400000000",
      "type": "0x2",
      "transactionHash": "0xe1241ba3cfbc46cc9bddb2a02309af196bb026ace5267930c422f54d5c33ac31",
      "transactionIndex": "0x46",
      "blockHash": "0xb893658b0115f092eae86203d221cc41a39b3254c9122c576c4d8e5c559a4fbe",
      "blockNumber": "0x9e8ec9",
      "gasUsed": "0x1eba2",
      "effectiveGasPrice": "0xf424a",
      "from": "0x474b4e7fd1a143edea6b77aa845f429d443e6410",
      "to": "0xbdebef2adf1065e4d28fcbffe89ae4c410d4c171",
      "contractAddress": null
    },
    {
      "status": "0x1",
      "cumulativeGasUsed": "0xae3823",
      "logs": [
        {
          "address": "0xbb46678a1f6c527bd79ecfbf85332b8ae83ceaf1",
          "topics": [
            "0x8c5be1e5ebec7d5bd14f71427d1e84f3dd0314c0f7b2291e5b200ac8c7c3b925",
            "0x000000000000000000000000f68d9e0faa751ad61e0ed70852798bf9d9c04bf7",
            "0x000000000000000000000000bdebef2adf1065e4d28fcbffe89ae4c410d4c171"
          ],
          "data": "0x000000000000000000000000000000000000000000034f086f3b33b684000000",
          "blockHash": "0x1e4921a98a5ebd05bd53d378b284e42217f2a8363b9325e645fa5e3d1eb5561a",
          "blockNumber": "0x9e8eca",
          "blockTimestamp": "0x69a9cb00",
          "transactionHash": "0x368468473f1870cde6b69373be9dbd0079e9099df15c91af14f0bfee4ff655cf",
          "transactionIndex": "0x84",
          "logIndex": "0xdf",
          "removed": false
        }
      ],
      "logsBloom": "0x00000000000000000000000000000000000000000000000000000000000000800000000000000000000000000800000000000000000000000000000000200000000000000000000000000000000000000000000000000000000000000000000000000000000000000000000000000000000000000000000000000000000000000100000008000000000000000000000000000000000000000000000000000000020000000000000000000000800000000400000000000000000000000000000000000000000100000000000000000001000000008000000000000000000000000010000000000000000000000000000000000000000000000000000000000000",
      "type": "0x2",
      "transactionHash": "0x368468473f1870cde6b69373be9dbd0079e9099df15c91af14f0bfee4ff655cf",
      "transactionIndex": "0x84",
      "blockHash": "0x1e4921a98a5ebd05bd53d378b284e42217f2a8363b9325e645fa5e3d1eb5561a",
      "blockNumber": "0x9e8eca",
      "gasUsed": "0xb768",
      "effectiveGasPrice": "0xf424a",
      "from": "0xf68d9e0faa751ad61e0ed70852798bf9d9c04bf7",
      "to": "0xbb46678a1f6c527bd79ecfbf85332b8ae83ceaf1",
      "contractAddress": null
    },
    {
      "status": "0x1",
      "cumulativeGasUsed": "0x443020",
      "logs": [
        {
          "address": "0xbb46678a1f6c527bd79ecfbf85332b8ae83ceaf1",
          "topics": [
            "0xddf252ad1be2c89b69c2b068fc378daa952ba7f163c4a11628f55a4df523b3ef",
            "0x000000000000000000000000f68d9e0faa751ad61e0ed70852798bf9d9c04bf7",
            "0x000000000000000000000000bdebef2adf1065e4d28fcbffe89ae4c410d4c171"
          ],
          "data": "0x000000000000000000000000000000000000000000034f086f3b33b684000000",
          "blockHash": "0x3d73714ae1b06ece0738f0e8e836a05de1951e5f7f27eaa3626f207faa4b33e1",
          "blockNumber": "0x9e8ecb",
          "blockTimestamp": "0x69a9cb0c",
          "transactionHash": "0xd7d7d0d745e5ed58ad2b5fb6f718678eebcc311bca4c7f3154a313c802493ab2",
          "transactionIndex": "0x37",
          "logIndex": "0x4f",
          "removed": false
        },
        {
          "address": "0xbdebef2adf1065e4d28fcbffe89ae4c410d4c171",
          "topics": [
            "0x30f6180e248310ab0c789da3026fbba7390872be072cfc5b3c20733f3a980c9e",
            "0x000000000000000000000000f68d9e0faa751ad61e0ed70852798bf9d9c04bf7",
            "0x000000000000000000000000bb46678a1f6c527bd79ecfbf85332b8ae83ceaf1"
          ],
          "data": "0x000000000000000000000000000000000000000000034f086f3b33b684000000",
          "blockHash": "0x3d73714ae1b06ece0738f0e8e836a05de1951e5f7f27eaa3626f207faa4b33e1",
          "blockNumber": "0x9e8ecb",
          "blockTimestamp": "0x69a9cb0c",
          "transactionHash": "0xd7d7d0d745e5ed58ad2b5fb6f718678eebcc311bca4c7f3154a313c802493ab2",
          "transactionIndex": "0x37",
          "logIndex": "0x50",
          "removed": false
        }
      ],
      "logsBloom": "0x00000000000000000000000000000000000000000000000000000000000000800002000000000000000000000800000000000000000000000000000000000000000000000000000000000008000000000000000000000000000000000000000000000000000000000000000000000000000000000000000000000010000000000100000008080001000002000000000000000000000000000000000000000000000000000000000000000000800000000400000040000000000000000000000000000002000101000000000000000001000800008000000000000000000000000000000000000000000000000000000000000000000000000000000400000000",
      "type": "0x2",
      "transactionHash": "0xd7d7d0d745e5ed58ad2b5fb6f718678eebcc311bca4c7f3154a313c802493ab2",
      "transactionIndex": "0x37",
      "blockHash": "0x3d73714ae1b06ece0738f0e8e836a05de1951e5f7f27eaa3626f207faa4b33e1",
      "blockNumber": "0x9e8ecb",
      "gasUsed": "0x1a8d6",
      "effectiveGasPrice": "0xf424a",
      "from": "0xf68d9e0faa751ad61e0ed70852798bf9d9c04bf7",
      "to": "0xbdebef2adf1065e4d28fcbffe89ae4c410d4c171",
      "contractAddress": null
    },
    {
      "status": "0x1",
      "cumulativeGasUsed": "0xfbf665",
      "logs": [
        {
          "address": "0xbb46678a1f6c527bd79ecfbf85332b8ae83ceaf1",
          "topics": [
            "0x8c5be1e5ebec7d5bd14f71427d1e84f3dd0314c0f7b2291e5b200ac8c7c3b925",
            "0x00000000000000000000000010db2e70118e5fbeda30391ec957e608c9e4517e",
            "0x000000000000000000000000bdebef2adf1065e4d28fcbffe89ae4c410d4c171"
          ],
          "data": "0x000000000000000000000000000000000000000000034f086f3b33b684000000",
          "blockHash": "0x773c73aee2230c98e3a7343eee990772ec715a5d33977c7ab6aa08d205d18718",
          "blockNumber": "0x9e8ecc",
          "blockTimestamp": "0x69a9cb24",
          "transactionHash": "0xad52603b00dd225e3134f0156505d434cc185b371466c3d600a622a62a1b55fb",
          "transactionIndex": "0xcb",
          "logIndex": "0x140",
          "removed": false
        }
      ],
      "logsBloom": "0x00000000000000000000000000000000000000000000000000000000000000000000000000000000000000000800000000000000000000000000000000200000000000000000000000000000000000000000000000000000000000000000000000000000000000000000000000000000000000000000000000000000000000000100000008000000000000000000000000000000000000000000000000000000020000000000000000000000800000000000000000000000000000000000000000000000000100000000000041000000000000008000000000000000000000000010000000000000000080000000000000000000000000000000000000000000",
      "type": "0x2",
      "transactionHash": "0xad52603b00dd225e3134f0156505d434cc185b371466c3d600a622a62a1b55fb",
      "transactionIndex": "0xcb",
      "blockHash": "0x773c73aee2230c98e3a7343eee990772ec715a5d33977c7ab6aa08d205d18718",
      "blockNumber": "0x9e8ecc",
      "gasUsed": "0xb768",
      "effectiveGasPrice": "0xf424a",
      "from": "0x10db2e70118e5fbeda30391ec957e608c9e4517e",
      "to": "0xbb46678a1f6c527bd79ecfbf85332b8ae83ceaf1",
      "contractAddress": null
    },
    {
      "status": "0x1",
      "cumulativeGasUsed": "0x82f136",
      "logs": [
        {
          "address": "0xbb46678a1f6c527bd79ecfbf85332b8ae83ceaf1",
          "topics": [
            "0xddf252ad1be2c89b69c2b068fc378daa952ba7f163c4a11628f55a4df523b3ef",
            "0x00000000000000000000000010db2e70118e5fbeda30391ec957e608c9e4517e",
            "0x000000000000000000000000bdebef2adf1065e4d28fcbffe89ae4c410d4c171"
          ],
          "data": "0x000000000000000000000000000000000000000000034f086f3b33b684000000",
          "blockHash": "0x2cc1d39b82e2275e33e4a219317ff11a72dfe7d349a2d39032f9d72c909b903e",
          "blockNumber": "0x9e8ecd",
          "blockTimestamp": "0x69a9cb30",
          "transactionHash": "0x103764e953a004b3ea35cf6e666994b57830c0a468b2b35f73c9f1751251dc67",
          "transactionIndex": "0x48",
          "logIndex": "0x6f",
          "removed": false
        },
        {
          "address": "0xbdebef2adf1065e4d28fcbffe89ae4c410d4c171",
          "topics": [
            "0x30f6180e248310ab0c789da3026fbba7390872be072cfc5b3c20733f3a980c9e",
            "0x00000000000000000000000010db2e70118e5fbeda30391ec957e608c9e4517e",
            "0x000000000000000000000000bb46678a1f6c527bd79ecfbf85332b8ae83ceaf1"
          ],
          "data": "0x000000000000000000000000000000000000000000034f086f3b33b684000000",
          "blockHash": "0x2cc1d39b82e2275e33e4a219317ff11a72dfe7d349a2d39032f9d72c909b903e",
          "blockNumber": "0x9e8ecd",
          "blockTimestamp": "0x69a9cb30",
          "transactionHash": "0x103764e953a004b3ea35cf6e666994b57830c0a468b2b35f73c9f1751251dc67",
          "transactionIndex": "0x48",
          "logIndex": "0x70",
          "removed": false
        }
      ],
      "logsBloom": "0x00000000000000000000000000000000000000000000000000000000000000000002000000000000000000000800000000000000000000000000000000000000000000000000000000000008000000000000000000000000000000000000000000000000000000000000000000000000000000000000000000000010000000000100000008080001000002000000000000000000000000000000000000000000000000000000000000000000800000000000000040000000000000000000000000000002000101000000000041000001000800008000000000000000000000000000000000000000000080000000000000000000000000000000000400000000",
      "type": "0x2",
      "transactionHash": "0x103764e953a004b3ea35cf6e666994b57830c0a468b2b35f73c9f1751251dc67",
      "transactionIndex": "0x48",
      "blockHash": "0x2cc1d39b82e2275e33e4a219317ff11a72dfe7d349a2d39032f9d72c909b903e",
      "blockNumber": "0x9e8ecd",
      "gasUsed": "0x1a8d6",
      "effectiveGasPrice": "0xf424a",
      "from": "0x10db2e70118e5fbeda30391ec957e608c9e4517e",
      "to": "0xbdebef2adf1065e4d28fcbffe89ae4c410d4c171",
      "contractAddress": null
    }
  ],
  "libraries": [],
  "pending": [],
  "returns": {},
  "timestamp": 1772735280442,
  "chain": 11155111,
  "commit": "bb4d776"
}