{
  "transactions": [
    {
      "hash": "0xc5a154355b330019a728567385f6bb5ef2f94dbcfb2462d9c8770c65b7dbf50d",
      "transactionType": "CALL",
      "contractName": null,
      "contractAddress": "0xbb46678a1f6c527bd79ecfbf85332b8ae83ceaf1",
      "function": "mint(address,uint256)",
      "arguments": [
        "0x474B4E7FD1A143eDea6b77aa845F429D443E6410",
        "4000000000000000000000000"
      ],
      "transaction": {
        "from": "0x993461bbf7e553eb5bd1f5248a72b524c4a3b15d",
        "to": "0xbb46678a1f6c527bd79ecfbf85332b8ae83ceaf1",
        "gas": "0xc681",
        "value": "0x0",
        "input": "0x40c10f19000000000000000000000000474b4e7fd1a143edea6b77aa845f429d443e6410000000000000000000000000000000000000000000034f086f3b33b684000000",
        "nonce": "0x53b",
        "chainId": "0xaa36a7"
      },
      "additionalContracts": [],
      "isFixedGasLimit": false
    },
    {
      "hash": "0x18d8dce8142a6326dcb621031820dfab5f7af28ba45ea1196a3c6c502c3e9dc2",
      "transactionType": "CALL",
      "contractName": null,
      "contractAddress": "0xbb46678a1f6c527bd79ecfbf85332b8ae83ceaf1",
      "function": "mint(address,uint256)",
      "arguments": [
        "0xf68D9e0fAa751AD61e0ED70852798bF9D9C04bF7",
        "4000000000000000000000000"
      ],
      "transaction": {
        "from": "0x993461bbf7e553eb5bd1f5248a72b524c4a3b15d",
        "to": "0xbb46678a1f6c527bd79ecfbf85332b8ae83ceaf1",
        "gas": "0xc681",
        "value": "0x0",
        "input": "0x40c10f19000000000000000000000000f68d9e0faa751ad61e0ed70852798bf9d9c04bf7000000000000000000000000000000000000000000034f086f3b33b684000000",
        "nonce": "0x53c",
        "chainId": "0xaa36a7"
      },
      "additionalContracts": [],
      "isFixedGasLimit": false
    },
    {
      "hash": "0xfe693edcefe9ab205cef1149389421e978559598f6763266375a067d6b358860",
      "transactionType": "CALL",
      "contractName": null,
      "contractAddress": "0xbb46678a1f6c527bd79ecfbf85332b8ae83ceaf1",
      "function": "mint(address,uint256)",
      "arguments": [
        "0x10Db2E70118e5FBeDa30391ec957e608C9E4517E",
        "4000000000000000000000000"
      ],
      "transaction": {
        "from": "0x993461bbf7e553eb5bd1f5248a72b524c4a3b15d",
        "to": "0xbb46678a1f6c527bd79ecfbf85332b8ae83ceaf1",
        "gas": "0xc681",
        "value": "0x0",
        "input": "0x40c10f1900000000000000000000000010db2e70118e5fbeda30391ec957e608c9e4517e000000000000000000000000000000000000000000034f086f3b33b684000000",
        "nonce": "0x53d",
        "chainId": "0xaa36a7"
      },
      "additionalContracts": [],
      "isFixedGasLimit": false
    },
    {
      "hash": "0xbf6252d5ecb7053fe884e892b016e20e6eec77f091120e4d39c28c045db29329",
      "transactionType": "CALL",
      "contractName": null,
      "contractAddress": "0xbb46678a1f6c527bd79ecfbf85332b8ae83ceaf1",
      "function": "approve(address,uint256)",
      "arguments": [
        "0x07b84fB318680Bc3c6af6f243552517c572D1ee8",
        "4000000000000000000000000"
      ],
      "transaction": {
        "from": "0x474b4e7fd1a143edea6b77aa845f429d443e6410",
        "to": "0xbb46678a1f6c527bd79ecfbf85332b8ae83ceaf1",
        "gas": "0xfd53",
        "value": "0x0",
        "input": "0x095ea7b300000000000000000000000007b84fb318680bc3c6af6f243552517c572d1ee8000000000000000000000000000000000000000000034f086f3b33b684000000",
        "nonce": "0x5b",
        "chainId": "0xaa36a7"
      },
      "additionalContracts": [],
      "isFixedGasLimit": false
    },
    {
      "hash": "0x444caf55ae07bc5266fc356f81e65315222dc773bb40f115d59bff885993e934",
      "transactionType": "CALL",
      "contractName": "MarginVault",
      "contractAddress": "0x07b84fb318680bc3c6af6f243552517c572d1ee8",
      "function": "depositMargin(bytes32,address,uint256)",
      "arguments": [
        "0x000000000000000000000000474b4e7fd1a143edea6b77aa845f429d443e6410",
        "0xbb46678a1F6C527bD79eCFBF85332B8Ae83ceaf1",
        "4000000000000000000000000"
      ],
      "transaction": {
        "from": "0x474b4e7fd1a143edea6b77aa845f429d443e6410",
        "to": "0x07b84fb318680bc3c6af6f243552517c572d1ee8",
        "gas": "0x2cf03",
        "value": "0x0",
        "input": "0x6812d315000000000000000000000000474b4e7fd1a143edea6b77aa845f429d443e6410000000000000000000000000bb46678a1f6c527bd79ecfbf85332b8ae83ceaf1000000000000000000000000000000000000000000034f086f3b33b684000000",
        "nonce": "0x5c",
        "chainId": "0xaa36a7"
      },
      "additionalContracts": [],
      "isFixedGasLimit": false
    },
    {
      "hash": "0x4afedd58c2fa63a52786fc374b11e3cc7e81ec7571da7bf6a6129d6d631706e1",
      "transactionType": "CALL",
      "contractName": null,
      "contractAddress": "0xbb46678a1f6c527bd79ecfbf85332b8ae83ceaf1",
      "function": "approve(address,uint256)",
      "arguments": [
        "0x07b84fB318680Bc3c6af6f243552517c572D1ee8",
        "4000000000000000000000000"
      ],
      "transaction": {
        "from": "0xf68d9e0faa751ad61e0ed70852798bf9d9c04bf7",
        "to": "0xbb46678a1f6c527bd79ecfbf85332b8ae83ceaf1",
        "gas": "0xfd53",
        "value": "0x0",
        "input": "0x095ea7b300000000000000000000000007b84fb318680bc3c6af6f243552517c572d1ee8000000000000000000000000000000000000000000034f086f3b33b684000000",
        "nonce": "0x59",
        "chainId": "0xaa36a7"
      },
      "additionalContracts": [],
      "isFixedGasLimit": false
    },
    {
      "hash": "0x1df087cee908a18d9d23b2a9c2199f1da4a9155637ba0a748f238a23591d3aae",
      "transactionType": "CALL",
      "contractName": "MarginVault",
      "contractAddress": "0x07b84fb318680bc3c6af6f243552517c572d1ee8",
      "function": "depositMargin(bytes32,address,uint256)",
      "arguments": [
        "0x000000000000000000000000f68d9e0faa751ad61e0ed70852798bf9d9c04bf7",
        "0xbb46678a1F6C527bD79eCFBF85332B8Ae83ceaf1",
        "4000000000000000000000000"
      ],
      "transaction": {
        "from": "0xf68d9e0faa751ad61e0ed70852798bf9d9c04bf7",
        "to": "0x07b84fb318680bc3c6af6f243552517c572d1ee8",
        "gas": "0x24acd",
        "value": "0x0",
        "input": "0x6812d315000000000000000000000000f68d9e0faa751ad61e0ed70852798bf9d9c04bf7000000000000000000000000bb46678a1f6c527bd79ecfbf85332b8ae83ceaf1000000000000000000000000000000000000000000034f086f3b33b684000000",
        "nonce": "0x5a",
        "chainId": "0xaa36a7"
      },
      "additionalContracts": [],
      "isFixedGasLimit": false
    },
    {
      "hash": "0x5e25d2dc4447b1d09a8fe7ed60874a71f71c8e9de3a7874264b4698b896ec5dd",
      "transactionType": "CALL",
      "contractName": null,
      "contractAddress": "0xbb46678a1f6c527bd79ecfbf85332b8ae83ceaf1",
      "function": "approve(address,uint256)",
      "arguments": [
        "0x07b84fB318680Bc3c6af6f243552517c572D1ee8",
        "4000000000000000000000000"
      ],
      "transaction": {
        "from": "0x10db2e70118e5fbeda30391ec957e608c9e4517e",
        "to": "0xbb46678a1f6c527bd79ecfbf85332b8ae83ceaf1",
        "gas": "0xfd53",
        "value": "0x0",
        "input": "0x095ea7b300000000000000000000000007b84fb318680bc3c6af6f243552517c572d1ee8000000000000000000000000000000000000000000034f086f3b33b684000000",
        "nonce": "0x26",
        "chainId": "0xaa36a7"
      },
      "additionalContracts": [],
      "isFixedGasLimit": false
    },
    {
      "hash": "0xc3cab9f5165e476a2e703653939b636e5f88c578a1cd64a9dfc92896033b5df3",
      "transactionType": "CALL",
      "contractName": "MarginVault",
      "contractAddress": "0x07b84fb318680bc3c6af6f243552517c572d1ee8",
      "function": "depositMargin(bytes32,address,uint256)",
      "arguments": [
        "0x00000000000000000000000010db2e70118e5fbeda30391ec957e608c9e4517e",
        "0xbb46678a1F6C527bD79eCFBF85332B8Ae83ceaf1",
        "4000000000000000000000000"
      ],
      "transaction": {
        "from": "0x10db2e70118e5fbeda30391ec957e608c9e4517e",
        "to": "0x07b84fb318680bc3c6af6f243552517c572d1ee8",
        "gas": "0x24acd",
        "value": "0x0",
        "input": "0x6812d31500000000000000000000000010db2e70118e5fbeda30391ec957e608c9e4517e000000000000000000000000bb46678a1f6c527bd79ecfbf85332b8ae83ceaf1000000000000000000000000000000000000000000034f086f3b33b684000000",
        "nonce": "0x27",
        "chainId": "0xaa36a7"
      },
      "additionalContracts": [],
      "isFixedGasLimit": false
    }
  ],
  "receipts": [
    {
      "status": "0x1",
      "cumulativeGasUsed": "0x1cddef2",
      "logs": [
        {
          "address": "0xbb46678a1f6c527bd79ecfbf85332b8ae83ceaf1",
          "topics": [
            "0xddf252ad1be2c89b69c2b068fc378daa952ba7f163c4a11628f55a4df523b3ef",
            "0x0000000000000000000000000000000000000000000000000000000000000000",
            "0x000000000000000000000000474b4e7fd1a143edea6b77aa845f429d443e6410"
          ],
          "data": "0x000000000000000000000000000000000000000000034f086f3b33b684000000",
          "blockHash": "0xda8c63a44bf3fada3e0030ca44ef22243c8860c8e05fdd537d059d55fbfd88c4",
          "blockNumber": "0x9ea11e",
          "blockTimestamp": "0x69aab8e4",
          "transactionHash": "0xc5a154355b330019a728567385f6bb5ef2f94dbcfb2462d9c8770c65b7dbf50d",
          "transactionIndex": "0x98",
          "logIndex": "0x1c2",
          "removed": false
        }
      ],
      "logsBloom": "0x00000000000000000000000000000000000000000000000000000000000000000000000000000000000000000000000000000000000000000000000000000000000000000000000000000008000000000000000000000000000000000000000000400000020000000000000000000800000000000000000000000010000000000100000008000000000000000000000000000000000000000000000000000000000000000000000000000000000000000000000000000000000100000000000000000002000000000000000000000000000000008000000000000010000020000000000000000000000000000000000000000000000000000000000000000000",
      "type": "0x2",
      "transactionHash": "0xc5a154355b330019a728567385f6bb5ef2f94dbcfb2462d9c8770c65b7dbf50d",
      "transactionIndex": "0x98",
      "blockHash": "0xda8c63a44bf3fada3e0030ca44ef22243c8860c8e05fdd537d059d55fbfd88c4",
      "blockNumber": "0x9ea11e",
      "gasUsed": "0x87bb",
      "effectiveGasPrice": "0x243fc8",
      "from": "0x993461bbf7e553eb5bd1f5248a72b524c4a3b15d",
      "to": "0xbb46678a1f6c527bd79ecfbf85332b8ae83ceaf1",
      "contractAddress": null
    },
    {
      "status": "0x1",
      "cumulativeGasUsed": "0xdec19f",
      "logs": [
        {
          "address": "0xbb46678a1f6c527bd79ecfbf85332b8ae83ceaf1",
          "topics": [
            "0xddf252ad1be2c89b69c2b068fc378daa952ba7f163c4a11628f55a4df523b3ef",
            "0x0000000000000000000000000000000000000000000000000000000000000000",
            "0x000000000000000000000000f68d9e0faa751ad61e0ed70852798bf9d9c04bf7"
          ],
          "data": "0x000000000000000000000000000000000000000000034f086f3b33b684000000",
          "blockHash": "0xc1b7936b8eee3e2c88a5bd065c7e4d4f97f02e5405c96262753f7318a41a5c6a",
          "blockNumber": "0x9ea11f",
          "blockTimestamp": "0x69aab908",
          "transactionHash": "0x18d8dce8142a6326dcb621031820dfab5f7af28ba45ea1196a3c6c502c3e9dc2",
          "transactionIndex": "0x82",
          "logIndex": "0x133",
          "removed": false
        }
      ],
      "logsBloom": "0x00000000000000000000000000000000000000000000000000000000000000800000000000000000000000000000000000000000000000000000000000000000000000000000000000000008000000000000000000000000000000000000000000000000020000000000000000000800000000000000000000000010000000000100000008000000000000000000000000000000000000000000000000000000000000000000000000000000000000000400000000000000000000000000000000000002000000000000000000000001000000008000000000000000000020000000000000000000000000000000000000000000000000000000000000000000",
      "type": "0x2",
      "transactionHash": "0x18d8dce8142a6326dcb621031820dfab5f7af28ba45ea1196a3c6c502c3e9dc2",
      "transactionIndex": "0x82",
      "blockHash": "0xc1b7936b8eee3e2c88a5bd065c7e4d4f97f02e5405c96262753f7318a41a5c6a",
      "blockNumber": "0x9ea11f",
      "gasUsed": "0x87bb",
      "effectiveGasPrice": "0x24515f",
      "from": "0x993461bbf7e553eb5bd1f5248a72b524c4a3b15d",
      "to": "0xbb46678a1f6c527bd79ecfbf85332b8ae83ceaf1",
      "contractAddress": null
    },
    {
      "status": "0x1",
      "cumulativeGasUsed": "0xa185b9",
      "logs": [
        {
          "address": "0xbb46678a1f6c527bd79ecfbf85332b8ae83ceaf1",
          "topics": [
            "0xddf252ad1be2c89b69c2b068fc378daa952ba7f163c4a11628f55a4df523b3ef",
            "0x0000000000000000000000000000000000000000000000000000000000000000",
            "0x00000000000000000000000010db2e70118e5fbeda30391ec957e608c9e4517e"
          ],
          "data": "0x000000000000000000000000000000000000000000034f086f3b33b684000000",
          "blockHash": "0x67839ed8f24eeac356c80812da0181a8f4d517e9a313cddb020db628c5ffb4c7",
          "blockNumber": "0x9ea120",
          "blockTimestamp": "0x69aab914",
          "transactionHash": "0xfe693edcefe9ab205cef1149389421e978559598f6763266375a067d6b358860",
          "transactionIndex": "0x52",
          "logIndex": "0x61",
          "removed": false
        }
      ],
      "logsBloom": "0x00000000000000000000000000000000000000000000000000000000000000000000000000000000000000000000000000000000000000000000000000000000000000000000000000000008000000000000000000000000000000000000000000000000020000000000000000000800000000000000000000000010000000000100000008000000000000000000000000000000000000000000000000000000000000000000000000000000000000000000000000000000000000000000000000000002000000000000000041000000000000008000000000000000000020000000000000000000000080000000000000000000000000000000000000000000",
      "type": "0x2",
      "transactionHash": "0xfe693edcefe9ab205cef1149389421e978559598f6763266375a067d6b358860",
      "transactionIndex": "0x52",
      "blockHash": "0x67839ed8f24eeac356c80812da0181a8f4d517e9a313cddb020db628c5ffb4c7",
      "blockNumber": "0x9ea120",
      "gasUsed": "0x87bb",
      "effectiveGasPrice": "0x255dfb",
      "from": "0x993461bbf7e553eb5bd1f5248a72b524c4a3b15d",
      "to": "0xbb46678a1f6c527bd79ecfbf85332b8ae83ceaf1",
      "contractAddress": null
    },
    {
      "status": "0x1",
      "cumulativeGasUsed": "0x95d056",
      "logs": [
        {
          "address": "0xbb46678a1f6c527bd79ecfbf85332b8ae83ceaf1",
          "topics": [
            "0x8c5be1e5ebec7d5bd14f71427d1e84f3dd0314c0f7b2291e5b200ac8c7c3b925",
            "0x000000000000000000000000474b4e7fd1a143edea6b77aa845f429d443e6410",
            "0x00000000000000000000000007b84fb318680bc3c6af6f243552517c572d1ee8"
          ],
          "data": "0x000000000000000000000000000000000000000000034f086f3b33b684000000",
          "blockHash": "0x26a93d292e0e7311d0fd9f34c54472ef6fb9c9c06d6ca1e08c2a623d809c7bbf",
          "blockNumber": "0x9ea121",
          "blockTimestamp": "0x69aab920",
          "transactionHash": "0xbf6252d5ecb7053fe884e892b016e20e6eec77f091120e4d39c28c045db29329",
          "transactionIndex": "0x4a",
          "logIndex": "0x83",
          "removed": false
        }
      ],
      "logsBloom": "0x00000000000000000000000000000000000000000000000000000000000000000000000000000000000000000000000000000000000000000000000000200000000000000000000000000000000000000000000000000000000000000000000000400000000000000000000000002000004000000000000000000000000000000100000008000000000000000000000000000000000000000000000000000000020000000000000000000000000000000000000000000000000100000000000000000000000000000000000000000000000000008000000000000010000000000010000000000000000000000000000000000000000000000000001000000000",
      "type": "0x2",
      "transactionHash": "0xbf6252d5ecb7053fe884e892b016e20e6eec77f091120e4d39c28c045db29329",
      "transactionIndex": "0x4a",
      "blockHash": "0x26a93d292e0e7311d0fd9f34c54472ef6fb9c9c06d6ca1e08c2a623d809c7bbf",
      "blockNumber": "0x9ea121",
      "gasUsed": "0xb768",
      "effectiveGasPrice": "0x24f4e3",
      "from": "0x474b4e7fd1a143edea6b77aa845f429d443e6410",
      "to": "0xbb46678a1f6c527bd79ecfbf85332b8ae83ceaf1",
      "contractAddress": null
    },
    {
      "status": "0x1",
      "cumulativeGasUsed": "0xcfe3e3",
      "logs": [
        {
          "address": "0xbb46678a1f6c527bd79ecfbf85332b8ae83ceaf1",
          "topics": [
            "0xddf252ad1be2c89b69c2b068fc378daa952ba7f163c4a11628f55a4df523b3ef",
            "0x000000000000000000000000474b4e7fd1a143edea6b77aa845f429d443e6410",
            "0x00000000000000000000000007b84fb318680bc3c6af6f243552517c572d1ee8"
          ],
          "data": "0x000000000000000000000000000000000000000000034f086f3b33b684000000",
          "blockHash": "0x51917aa1499f982a2144622ef286d0f3efd52d22f90c9601ce34e465623737e4",
          "blockNumber": "0x9ea122",
          "blockTimestamp": "0x69aab92c",
          "transactionHash": "0x444caf55ae07bc5266fc356f81e65315222dc773bb40f115d59bff885993e934",
          "transactionIndex": "0x46",
          "logIndex": "0x9c",
          "removed": false
        },
        {
          "address": "0x07b84fb318680bc3c6af6f243552517c572d1ee8",
          "topics": [
            "0x30f6180e248310ab0c789da3026fbba7390872be072cfc5b3c20733f3a980c9e",
            "0x000000000000000000000000474b4e7fd1a143edea6b77aa845f429d443e6410",
            "0x000000000000000000000000bb46678a1f6c527bd79ecfbf85332b8ae83ceaf1"
          ],
          "data": "0x000000000000000000000000000000000000000000034f086f3b33b684000000",
          "blockHash": "0x51917aa1499f982a2144622ef286d0f3efd52d22f90c9601ce34e465623737e4",
          "blockNumber": "0x9ea122",
          "blockTimestamp": "0x69aab92c",
          "transactionHash": "0x444caf55ae07bc5266fc356f81e65315222dc773bb40f115d59bff885993e934",
          "transactionIndex": "0x46",
          "logIndex": "0x9d",
          "removed": false
        }
      ],
      "logsBloom": "0x00000000000000000000000000000000000000000000000000000000000000000000000000000000000000020000000000000000000000000000000080000000000000000000000010000008000000000000000000000000000000000000000000400000000000000000000000002000004000000000000000000010000000000100000008000001000000000000000000000000000000000000000000000000000000000000000000000000000000000000000040000000000100000000000000000002000001000000000000000001000800008000000000000010000000000000000000000000000000000000000000000000000000000000001400000000",
      "type": "0x2",
      "transactionHash": "0x444caf55ae07bc5266fc356f81e65315222dc773bb40f115d59bff885993e934",
      "transactionIndex": "0x46",
      "blockHash": "0x51917aa1499f982a2144622ef286d0f3efd52d22f90c9601ce34e465623737e4",
      "blockNumber": "0x9ea122",
      "gasUsed": "0x1eba2",
      "effectiveGasPrice": "0x24b8af",
      "from": "0x474b4e7fd1a143edea6b77aa845f429d443e6410",
      "to": "0x07b84fb318680bc3c6af6f243552517c572d1ee8",
      "contractAddress": null
    },
    {
      "status": "0x1",
      "cumulativeGasUsed": "0xb0fb17",
      "logs": [
        {
          "address": "0xbb46678a1f6c527bd79ecfbf85332b8ae83ceaf1",
          "topics": [
            "0x8c5be1e5ebec7d5bd14f71427d1e84f3dd0314c0f7b2291e5b200ac8c7c3b925",
            "0x000000000000000000000000f68d9e0faa751ad61e0ed70852798bf9d9c04bf7",
            "0x00000000000000000000000007b84fb318680bc3c6af6f243552517c572d1ee8"
          ],
          "data": "0x000000000000000000000000000000000000000000034f086f3b33b684000000",
          "blockHash": "0x774608b75d4bfbb1994064eb54f9b20917a1cf9baed3cdeb6b8e6c2d9cb595f8",
          "blockNumber": "0x9ea123",
          "blockTimestamp": "0x69aab938",
          "transactionHash": "0x4afedd58c2fa63a52786fc374b11e3cc7e81ec7571da7bf6a6129d6d631706e1",
          "transactionIndex": "0x54",
          "logIndex": "0x8f",
          "removed": false
        }
      ],
      "logsBloom": "0x00000000000000000000000000000000000000000000000000000000000000800000000000000000000000000000000000000000000000000000000000200000000000000000000000000000000000000000000000000000000000000000000000000000000000000000000000002000004000000000000000000000000000000100000008000000000000000000000000000000000000000000000000000000020000000000000000000000000000000400000000000000000000000000000000000000000000000000000000000001000000008000000000000000000000000010000000000000000000000000000000000000000000000000001000000000",
      "type": "0x2",
      "transactionHash": "0x4afedd58c2fa63a52786fc374b11e3cc7e81ec7571da7bf6a6129d6d631706e1",
      "transactionIndex": "0x54",
      "blockHash": "0x774608b75d4bfbb1994064eb54f9b20917a1cf9baed3cdeb6b8e6c2d9cb595f8",
      "blockNumber": "0x9ea123",
      "gasUsed": "0xb768",
      "effectiveGasPrice": "0x247ba6",
      "from": "0xf68d9e0faa751ad61e0ed70852798bf9d9c04bf7",
      "to": "0xbb46678a1f6c527bd79ecfbf85332b8ae83ceaf1",
      "contractAddress": null
    },
    {
      "status": "0x1",
      "cumulativeGasUsed": "0x924766",
      "logs": [
        {
          "address": "0xbb46678a1f6c527bd79ecfbf85332b8ae83ceaf1",
          "topics": [
            "0xddf252ad1be2c89b69c2b068fc378daa952ba7f163c4a11628f55a4df523b3ef",
            "0x000000000000000000000000f68d9e0faa751ad61e0ed70852798bf9d9c04bf7",
            "0x00000000000000000000000007b84fb318680bc3c6af6f243552517c572d1ee8"
          ],
          "data": "0x000000000000000000000000000000000000000000034f086f3b33b684000000",
          "blockHash": "0xe1fcfb77ec0c21cd824d35fb931f59552894f420bf5c8129bc56355d2f9f0daa",
          "blockNumber": "0x9ea124",
          "blockTimestamp": "0x69aab944",
          "transactionHash": "0x1df087cee908a18d9d23b2a9c2199f1da4a9155637ba0a748f238a23591d3aae",
          "transactionIndex": "0x3f",
          "logIndex": "0x89",
          "removed": false
        },
        {
          "address": "0x07b84fb318680bc3c6af6f243552517c572d1ee8",
          "topics": [
            "0x30f6180e248310ab0c789da3026fbba7390872be072cfc5b3c20733f3a980c9e",
            "0x000000000000000000000000f68d9e0faa751ad61e0ed70852798bf9d9c04bf7",
            "0x000000000000000000000000bb46678a1f6c527bd79ecfbf85332b8ae83ceaf1"
          ],
          "data": "0x000000000000000000000000000000000000000000034f086f3b33b684000000",
          "blockHash": "0xe1fcfb77ec0c21cd824d35fb931f59552894f420bf5c8129bc56355d2f9f0daa",
          "blockNumber": "0x9ea124",
          "blockTimestamp": "0x69aab944",
          "transactionHash": "0x1df087cee908a18d9d23b2a9c2199f1da4a9155637ba0a748f238a23591d3aae",
          "transactionIndex": "0x3f",
          "logIndex": "0x8a",
          "removed": false
        }
      ],
      "logsBloom": "0x00000000000000000000000000000000000000000000000000000000000000800000000000000000000000020000000000000000000000000000000080000000000000000000000010000008000000000000000000000000000000000000000000000000000000000000000000002000004000000000000000000010000000000100000008000001000000000000000000000000000000000000000000000000000000000000000000000000000000000400000040000000000000000000000000000002000001000000000000000001000800008000000000000000000000000000000000000000000000000000000000000000000000000000001400000000",
      "type": "0x2",
      "transactionHash": "0x1df087cee908a18d9d23b2a9c2199f1da4a9155637ba0a748f238a23591d3aae",
      "transactionIndex": "0x3f",
      "blockHash": "0xe1fcfb77ec0c21cd824d35fb931f59552894f420bf5c8129bc56355d2f9f0daa",
      "blockNumber": "0x9ea124",
      "gasUsed": "0x1a8d6",
      "effectiveGasPrice": "0x249bc8",
      "from": "0xf68d9e0faa751ad61e0ed70852798bf9d9c04bf7",
      "to": "0x07b84fb318680bc3c6af6f243552517c572d1ee8",
      "contractAddress": null
    },
    {
      "status": "0x1",
      "cumulativeGasUsed": "0x200c86d",
      "logs": [
        {
          "address": "0xbb46678a1f6c527bd79ecfbf85332b8ae83ceaf1",
          "topics": [
            "0x8c5be1e5ebec7d5bd14f71427d1e84f3dd0314c0f7b2291e5b200ac8c7c3b925",
            "0x00000000000000000000000010db2e70118e5fbeda30391ec957e608c9e4517e",
            "0x00000000000000000000000007b84fb318680bc3c6af6f243552517c572d1ee8"
          ],
          "data": "0x000000000000000000000000000000000000000000034f086f3b33b684000000",
          "blockHash": "0x63d0902be296f6568cde89f7cdcc1e877e10cc7fd71e96e764b8b879e455357b",
          "blockNumber": "0x9ea125",
          "blockTimestamp": "0x69aab950",
          "transactionHash": "0x5e25d2dc4447b1d09a8fe7ed60874a71f71c8e9de3a7874264b4698b896ec5dd",
          "transactionIndex": "0x9b",
          "logIndex": "0x212",
          "removed": false
        }
      ],
      "logsBloom": "0x00000000000000000000000000000000000000000000000000000000000000000000000000000000000000000000000000000000000000000000000000200000000000000000000000000000000000000000000000000000000000000000000000000000000000000000000000002000004000000000000000000000000000000100000008000000000000000000000000000000000000000000000000000000020000000000000000000000000000000000000000000000000000000000000000000000000000000000000041000000000000008000000000000000000000000010000000000000000080000000000000000000000000000000001000000000",
      "type": "0x2",
      "transactionHash": "0x5e25d2dc4447b1d09a8fe7ed60874a71f71c8e9de3a7874264b4698b896ec5dd",
      "transactionIndex": "0x9b",
      "blockHash": "0x63d0902be296f6568cde89f7cdcc1e877e10cc7fd71e96e764b8b879e455357b",
      "blockNumber": "0x9ea125",
      "gasUsed": "0xb768",
      "effectiveGasPrice": "0x23eb67",
      "from": "0x10db2e70118e5fbeda30391ec957e608c9e4517e",
      "to": "0xbb46678a1f6c527bd79ecfbf85332b8ae83ceaf1",
      "contractAddress": null
    },
    {
      "status": "0x1",
      "cumulativeGasUsed": "0x65d80d",
      "logs": [
        {
          "address": "0xbb46678a1f6c527bd79ecfbf85332b8ae83ceaf1",
          "topics": [
            "0xddf252ad1be2c89b69c2b068fc378daa952ba7f163c4a11628f55a4df523b3ef",
            "0x00000000000000000000000010db2e70118e5fbeda30391ec957e608c9e4517e",
            "0x00000000000000000000000007b84fb318680bc3c6af6f243552517c572d1ee8"
          ],
          "data": "0x000000000000000000000000000000000000000000034f086f3b33b684000000",
          "blockHash": "0xb014d8a96d8e87dcfeb7270abb5e797ee3d78b2872bfb05fb41e986c85e7061d",
          "blockNumber": "0x9ea126",
          "blockTimestamp": "0x69aab95c",
          "transactionHash": "0xc3cab9f5165e476a2e703653939b636e5f88c578a1cd64a9dfc92896033b5df3",
          "transactionIndex": "0x4c",
          "logIndex": "0x6a",
          "removed": false
        },
        {
          "address": "0x07b84fb318680bc3c6af6f243552517c572d1ee8",
          "topics": [
            "0x30f6180e248310ab0c789da3026fbba7390872be072cfc5b3c20733f3a980c9e",
            "0x00000000000000000000000010db2e70118e5fbeda30391ec957e608c9e4517e",
            "0x000000000000000000000000bb46678a1f6c527bd79ecfbf85332b8ae83ceaf1"
          ],
          "data": "0x000000000000000000000000000000000000000000034f086f3b33b684000000",
          "blockHash": "0xb014d8a96d8e87dcfeb7270abb5e797ee3d78b2872bfb05fb41e986c85e7061d",
          "blockNumber": "0x9ea126",
          "blockTimestamp": "0x69aab95c",
          "transactionHash": "0xc3cab9f5165e476a2e703653939b636e5f88c578a1cd64a9dfc92896033b5df3",
          "transactionIndex": "0x4c",
          "logIndex": "0x6b",
          "removed": false
        }
      ],
      "logsBloom": "0x00000000000000000000000000000000000000000000000000000000000000000000000000000000000000020000000000000000000000000000000080000000000000000000000010000008000000000000000000000000000000000000000000000000000000000000000000002000004000000000000000000010000000000100000008000001000000000000000000000000000000000000000000000000000000000000000000000000000000000000000040000000000000000000000000000002000001000000000041000001000800008000000000000000000000000000000000000000000080000000000000000000000000000000001400000000",
      "type": "0x2",
      "transactionHash": "0xc3cab9f5165e476a2e703653939b636e5f88c578a1cd64a9dfc92896033b5df3",
      "transactionIndex": "0x4c",
      "blockHash": "0xb014d8a96d8e87dcfeb7270abb5e797ee3d78b2872bfb05fb41e986c85e7061d",
      "blockNumber": "0x9ea126",
      "gasUsed": "0x1a8d6",
      "effectiveGasPrice": "0x243a81",
      "from": "0x10db2e70118e5fbeda30391ec957e608c9e4517e",
      "to": "0x07b84fb318680bc3c6af6f243552517c572d1ee8",
      "contractAddress": null
    }
  ],
  "libraries": [],
  "pending": [],
  "returns": {},
  "timestamp": 1772796252460,
  "chain": 11155111,
  "commit": "bea2e8d"
}