{
  "transactions": [
    {
      "hash": "0x1931df2e5941db345533f47290abb1cbcb64a5d71c8973a0a43d540762625a97",
      "transactionType": "CALL",
      "contractName": null,
      "contractAddress": "0xbb46678a1f6c527bd79ecfbf85332b8ae83ceaf1",
      "function": "mint(address,uint256)",
      "arguments": [
        "0x474B4E7FD1A143eDea6b77aa845F429D443E6410",
        "4000000000000000000000000"
      ],
      "transaction": {
        "from": "0x993461bbf7e553eb5bd1f5248a72b524c4a3b15d",
        "to": "0xbb46678a1f6c527bd79ecfbf85332b8ae83ceaf1",
        "gas": "0xc681",
        "value": "0x0",
        "input": "0x40c10f19000000000000000000000000474b4e7fd1a143edea6b77aa845f429d443e6410000000000000000000000000000000000000000000034f086f3b33b684000000",
        "nonce": "0x4c1",
        "chainId": "0xaa36a7"
      },
      "additionalContracts": [],
      "isFixedGasLimit": false
    },
    {
      "hash": "0x904dc67dbd87a6351b2d38f2b2c857ccb49e880c2df305f2ac8b1585d91d5138",
      "transactionType": "CALL",
      "contractName": null,
      "contractAddress": "0xbb46678a1f6c527bd79ecfbf85332b8ae83ceaf1",
      "function": "mint(address,uint256)",
      "arguments": [
        "0xf68D9e0fAa751AD61e0ED70852798bF9D9C04bF7",
        "4000000000000000000000000"
      ],
      "transaction": {
        "from": "0x993461bbf7e553eb5bd1f5248a72b524c4a3b15d",
        "to": "0xbb46678a1f6c527bd79ecfbf85332b8ae83ceaf1",
        "gas": "0xc681",
        "value": "0x0",
        "input": "0x40c10f19000000000000000000000000f68d9e0faa751ad61e0ed70852798bf9d9c04bf7000000000000000000000000000000000000000000034f086f3b33b684000000",
        "nonce": "0x4c2",
        "chainId": "0xaa36a7"
      },
      "additionalContracts": [],
      "isFixedGasLimit": false
    },
    {
      "hash": "0xf92298578f72c8cb88057dac70d7292b4a81e7a7a92d36ca4c2fbba71342b8d1",
      "transactionType": "CALL",
      "contractName": null,
      "contractAddress": "0xbb46678a1f6c527bd79ecfbf85332b8ae83ceaf1",
      "function": "mint(address,uint256)",
      "arguments": [
        "0x10Db2E70118e5FBeDa30391ec957e608C9E4517E",
        "4000000000000000000000000"
      ],
      "transaction": {
        "from": "0x993461bbf7e553eb5bd1f5248a72b524c4a3b15d",
        "to": "0xbb46678a1f6c527bd79ecfbf85332b8ae83ceaf1",
        "gas": "0xc681",
        "value": "0x0",
        "input": "0x40c10f1900000000000000000000000010db2e70118e5fbeda30391ec957e608c9e4517e000000000000000000000000000000000000000000034f086f3b33b684000000",
        "nonce": "0x4c3",
        "chainId": "0xaa36a7"
      },
      "additionalContracts": [],
      "isFixedGasLimit": false
    },
    {
      "hash": "0xb3ca2dfb948a4376889985024650275f2fa8480695ff4822f9876793fa2848e1",
      "transactionType": "CALL",
      "contractName": null,
      "contractAddress": "0xbb46678a1f6c527bd79ecfbf85332b8ae83ceaf1",
      "function": "approve(address,uint256)",
      "arguments": [
        "0xEE00b21292BA7564996a2b372A0BA69E70915B31",
        "4000000000000000000000000"
      ],
      "transaction": {
        "from": "0x474b4e7fd1a143edea6b77aa845f429d443e6410",
        "to": "0xbb46678a1f6c527bd79ecfbf85332b8ae83ceaf1",
        "gas": "0xfd42",
        "value": "0x0",
        "input": "0x095ea7b3000000000000000000000000ee00b21292ba7564996a2b372a0ba69e70915b31000000000000000000000000000000000000000000034f086f3b33b684000000",
        "nonce": "0x51",
        "chainId": "0xaa36a7"
      },
      "additionalContracts": [],
      "isFixedGasLimit": false
    },
    {
      "hash": "0x2063050ad5720c719046a5b9f0d4e56ce7815a649370b4fe1a3451a360b93acb",
      "transactionType": "CALL",
      "contractName": "MarginVault",
      "contractAddress": "0xee00b21292ba7564996a2b372a0ba69e70915b31",
      "function": "depositMargin(bytes32,address,uint256)",
      "arguments": [
        "0x000000000000000000000000474b4e7fd1a143edea6b77aa845f429d443e6410",
        "0xbb46678a1F6C527bD79eCFBF85332B8Ae83ceaf1",
        "4000000000000000000000000"
      ],
      "transaction": {
        "from": "0x474b4e7fd1a143edea6b77aa845f429d443e6410",
        "to": "0xee00b21292ba7564996a2b372a0ba69e70915b31",
        "gas": "0x2cf03",
        "value": "0x0",
        "input": "0x6812d315000000000000000000000000474b4e7fd1a143edea6b77aa845f429d443e6410000000000000000000000000bb46678a1f6c527bd79ecfbf85332b8ae83ceaf1000000000000000000000000000000000000000000034f086f3b33b684000000",
        "nonce": "0x52",
        "chainId": "0xaa36a7"
      },
      "additionalContracts": [],
      "isFixedGasLimit": false
    },
    {
      "hash": "0xacc9703d86256a1bf3552da5ffa106adb68dcde4601b673af53e8a3117c13095",
      "transactionType": "CALL",
      "contractName": null,
      "contractAddress": "0xbb46678a1f6c527bd79ecfbf85332b8ae83ceaf1",
      "function": "approve(address,uint256)",
      "arguments": [
        "0xEE00b21292BA7564996a2b372A0BA69E70915B31",
        "4000000000000000000000000"
      ],
      "transaction": {
        "from": "0xf68d9e0faa751ad61e0ed70852798bf9d9c04bf7",
        "to": "0xbb46678a1f6c527bd79ecfbf85332b8ae83ceaf1",
        "gas": "0xfd42",
        "value": "0x0",
        "input": "0x095ea7b3000000000000000000000000ee00b21292ba7564996a2b372a0ba69e70915b31000000000000000000000000000000000000000000034f086f3b33b684000000",
        "nonce": "0x4f",
        "chainId": "0xaa36a7"
      },
      "additionalContracts": [],
      "isFixedGasLimit": false
    },
    {
      "hash": "0x80d34c9ae407b82e1a272a86ff49e49e05302b908f77274d5fffe7fdd74b3b98",
      "transactionType": "CALL",
      "contractName": "MarginVault",
      "contractAddress": "0xee00b21292ba7564996a2b372a0ba69e70915b31",
      "function": "depositMargin(bytes32,address,uint256)",
      "arguments": [
        "0x000000000000000000000000f68d9e0faa751ad61e0ed70852798bf9d9c04bf7",
        "0xbb46678a1F6C527bD79eCFBF85332B8Ae83ceaf1",
        "4000000000000000000000000"
      ],
      "transaction": {
        "from": "0xf68d9e0faa751ad61e0ed70852798bf9d9c04bf7",
        "to": "0xee00b21292ba7564996a2b372a0ba69e70915b31",
        "gas": "0x24acd",
        "value": "0x0",
        "input": "0x6812d315000000000000000000000000f68d9e0faa751ad61e0ed70852798bf9d9c04bf7000000000000000000000000bb46678a1f6c527bd79ecfbf85332b8ae83ceaf1000000000000000000000000000000000000000000034f086f3b33b684000000",
        "nonce": "0x50",
        "chainId": "0xaa36a7"
      },
      "additionalContracts": [],
      "isFixedGasLimit": false
    },
    {
      "hash": "0x94cea3815adb4428772d98a80b7987e7c09bbf949baca86e1e5e876db6644362",
      "transactionType": "CALL",
      "contractName": null,
      "contractAddress": "0xbb46678a1f6c527bd79ecfbf85332b8ae83ceaf1",
      "function": "approve(address,uint256)",
      "arguments": [
        "0xEE00b21292BA7564996a2b372A0BA69E70915B31",
        "4000000000000000000000000"
      ],
      "transaction": {
        "from": "0x10db2e70118e5fbeda30391ec957e608c9e4517e",
        "to": "0xbb46678a1f6c527bd79ecfbf85332b8ae83ceaf1",
        "gas": "0xfd42",
        "value": "0x0",
        "input": "0x095ea7b3000000000000000000000000ee00b21292ba7564996a2b372a0ba69e70915b31000000000000000000000000000000000000000000034f086f3b33b684000000",
        "nonce": "0x1c",
        "chainId": "0xaa36a7"
      },
      "additionalContracts": [],
      "isFixedGasLimit": false
    },
    {
      "hash": "0x399f62182e3c22025352287353a6cc175aff84fe40194523acf15b3252d837c9",
      "transactionType": "CALL",
      "contractName": "MarginVault",
      "contractAddress": "0xee00b21292ba7564996a2b372a0ba69e70915b31",
      "function": "depositMargin(bytes32,address,uint256)",
      "arguments": [
        "0x00000000000000000000000010db2e70118e5fbeda30391ec957e608c9e4517e",
        "0xbb46678a1F6C527bD79eCFBF85332B8Ae83ceaf1",
        "4000000000000000000000000"
      ],
      "transaction": {
        "from": "0x10db2e70118e5fbeda30391ec957e608c9e4517e",
        "to": "0xee00b21292ba7564996a2b372a0ba69e70915b31",
        "gas": "0x24acd",
        "value": "0x0",
        "input": "0x6812d31500000000000000000000000010db2e70118e5fbeda30391ec957e608c9e4517e000000000000000000000000bb46678a1f6c527bd79ecfbf85332b8ae83ceaf1000000000000000000000000000000000000000000034f086f3b33b684000000",
        "nonce": "0x1d",
        "chainId": "0xaa36a7"
      },
      "additionalContracts": [],
      "isFixedGasLimit": false
    }
  ],
  "receipts": [
    {
      "status": "0x1",
      "cumulativeGasUsed": "0x1c1a75b",
      "logs": [
        {
          "address": "0xbb46678a1f6c527bd79ecfbf85332b8ae83ceaf1",
          "topics": [
            "0xddf252ad1be2c89b69c2b068fc378daa952ba7f163c4a11628f55a4df523b3ef",
            "0x0000000000000000000000000000000000000000000000000000000000000000",
            "0x000000000000000000000000474b4e7fd1a143edea6b77aa845f429d443e6410"
          ],
          "data": "0x000000000000000000000000000000000000000000034f086f3b33b684000000",
          "blockHash": "0x972495bf7b13d1d77de28a4123a4792d477558d1fa5de3e3f2c1a348eedd8eac",
          "blockNumber": "0x9e9c6f",
          "blockTimestamp": "0x69aa7c84",
          "transactionHash": "0x1931df2e5941db345533f47290abb1cbcb64a5d71c8973a0a43d540762625a97",
          "transactionIndex": "0x84",
          "logIndex": "0xfc",
          "removed": false
        }
      ],
      "logsBloom": "0x00000000000000000000000000000000000000000000000000000000000000000000000000000000000000000000000000000000000000000000000000000000000000000000000000000008000000000000000000000000000000000000000000400000020000000000000000000800000000000000000000000010000000000100000008000000000000000000000000000000000000000000000000000000000000000000000000000000000000000000000000000000000100000000000000000002000000000000000000000000000000008000000000000010000020000000000000000000000000000000000000000000000000000000000000000000",
      "type": "0x2",
      "transactionHash": "0x1931df2e5941db345533f47290abb1cbcb64a5d71c8973a0a43d540762625a97",
      "transactionIndex": "0x84",
      "blockHash": "0x972495bf7b13d1d77de28a4123a4792d477558d1fa5de3e3f2c1a348eedd8eac",
      "blockNumber": "0x9e9c6f",
      "gasUsed": "0x87bb",
      "effectiveGasPrice": "0x1ab764f",
      "from": "0x993461bbf7e553eb5bd1f5248a72b524c4a3b15d",
      "to": "0xbb46678a1f6c527bd79ecfbf85332b8ae83ceaf1",
      "contractAddress": null
    },
    {
      "status": "0x1",
      "cumulativeGasUsed": "0x19faa6e",
      "logs": [
        {
          "address": "0xbb46678a1f6c527bd79ecfbf85332b8ae83ceaf1",
          "topics": [
            "0xddf252ad1be2c89b69c2b068fc378daa952ba7f163c4a11628f55a4df523b3ef",
            "0x0000000000000000000000000000000000000000000000000000000000000000",
            "0x000000000000000000000000f68d9e0faa751ad61e0ed70852798bf9d9c04bf7"
          ],
          "data": "0x000000000000000000000000000000000000000000034f086f3b33b684000000",
          "blockHash": "0x727ed0ec779a27cc351a73c858db8d133c95a7dccb8a4519336f07071a7bc405",
          "blockNumber": "0x9e9c70",
          "blockTimestamp": "0x69aa7c90",
          "transactionHash": "0x904dc67dbd87a6351b2d38f2b2c857ccb49e880c2df305f2ac8b1585d91d5138",
          "transactionIndex": "0x76",
          "logIndex": "0x10d",
          "removed": false
        }
      ],
      "logsBloom": "0x00000000000000000000000000000000000000000000000000000000000000800000000000000000000000000000000000000000000000000000000000000000000000000000000000000008000000000000000000000000000000000000000000000000020000000000000000000800000000000000000000000010000000000100000008000000000000000000000000000000000000000000000000000000000000000000000000000000000000000400000000000000000000000000000000000002000000000000000000000001000000008000000000000000000020000000000000000000000000000000000000000000000000000000000000000000",
      "type": "0x2",
      "transactionHash": "0x904dc67dbd87a6351b2d38f2b2c857ccb49e880c2df305f2ac8b1585d91d5138",
      "transactionIndex": "0x76",
      "blockHash": "0x727ed0ec779a27cc351a73c858db8d133c95a7dccb8a4519336f07071a7bc405",
      "blockNumber": "0x9e9c70",
      "gasUsed": "0x87bb",
      "effectiveGasPrice": "0x1d84b5f",
      "from": "0x993461bbf7e553eb5bd1f5248a72b524c4a3b15d",
      "to": "0xbb46678a1f6c527bd79ecfbf85332b8ae83ceaf1",
      "contractAddress": null
    },
    {
      "status": "0x1",
      "cumulativeGasUsed": "0x1be6d2f",
      "logs": [
        {
          "address": "0xbb46678a1f6c527bd79ecfbf85332b8ae83ceaf1",
          "topics": [
            "0xddf252ad1be2c89b69c2b068fc378daa952ba7f163c4a11628f55a4df523b3ef",
            "0x0000000000000000000000000000000000000000000000000000000000000000",
            "0x00000000000000000000000010db2e70118e5fbeda30391ec957e608c9e4517e"
          ],
          "data": "0x000000000000000000000000000000000000000000034f086f3b33b684000000",
          "blockHash": "0x97f1df05c3269ba8eaf9390479fb45e7242d1880b607025df12b5d04fd501fea",
          "blockNumber": "0x9e9c71",
          "blockTimestamp": "0x69aa7c9c",
          "transactionHash": "0xf92298578f72c8cb88057dac70d7292b4a81e7a7a92d36ca4c2fbba71342b8d1",
          "transactionIndex": "0x71",
          "logIndex": "0xf9",
          "removed": false
        }
      ],
      "logsBloom": "0x00000000000000000000000000000000000000000000000000000000000000000000000000000000000000000000000000000000000000000000000000000000000000000000000000000008000000000000000000000000000000000000000000000000020000000000000000000800000000000000000000000010000000000100000008000000000000000000000000000000000000000000000000000000000000000000000000000000000000000000000000000000000000000000000000000002000000000000000041000000000000008000000000000000000020000000000000000000000080000000000000000000000000000000000000000000",
      "type": "0x2",
      "transactionHash": "0xf92298578f72c8cb88057dac70d7292b4a81e7a7a92d36ca4c2fbba71342b8d1",
      "transactionIndex": "0x71",
      "blockHash": "0x97f1df05c3269ba8eaf9390479fb45e7242d1880b607025df12b5d04fd501fea",
      "blockNumber": "0x9e9c71",
      "gasUsed": "0x87bb",
      "effectiveGasPrice": "0x1e2e0f0",
      "from": "0x993461bbf7e553eb5bd1f5248a72b524c4a3b15d",
      "to": "0xbb46678a1f6c527bd79ecfbf85332b8ae83ceaf1",
      "contractAddress": null
    },
    {
      "status": "0x1",
      "cumulativeGasUsed": "0x17ddd8c",
      "logs": [
        {
          "address": "0xbb46678a1f6c527bd79ecfbf85332b8ae83ceaf1",
          "topics": [
            "0x8c5be1e5ebec7d5bd14f71427d1e84f3dd0314c0f7b2291e5b200ac8c7c3b925",
            "0x000000000000000000000000474b4e7fd1a143edea6b77aa845f429d443e6410",
            "0x000000000000000000000000ee00b21292ba7564996a2b372a0ba69e70915b31"
          ],
          "data": "0x000000000000000000000000000000000000000000034f086f3b33b684000000",
          "blockHash": "0xed1da48deca6b9233c2bc3b8d1411eeb56e80e3fe3836c6460ea5789bac2402e",
          "blockNumber": "0x9e9c72",
          "blockTimestamp": "0x69aa7ca8",
          "transactionHash": "0xb3ca2dfb948a4376889985024650275f2fa8480695ff4822f9876793fa2848e1",
          "transactionIndex": "0x7b",
          "logIndex": "0xbc",
          "removed": false
        }
      ],
      "logsBloom": "0x00000000000000001002000000000000008000000000000000000000000000000000000000000000000000000000000000000000000000000000000000200000000000000000000000000000000000000000000000000000000000000000000000400000000000000000000000000000000000000000000000000000000000000100000008000000000000000000000000000000000000000000000000000000020000000000000000000000000000000000000000000000000100000000000000000000000000000000000000000000000000008000000000000010000000000010000000000000000000000000000000000000000000000000000000000000",
      "type": "0x2",
      "transactionHash": "0xb3ca2dfb948a4376889985024650275f2fa8480695ff4822f9876793fa2848e1",
      "transactionIndex": "0x7b",
      "blockHash": "0xed1da48deca6b9233c2bc3b8d1411eeb56e80e3fe3836c6460ea5789bac2402e",
      "blockNumber": "0x9e9c72",
      "gasUsed": "0xb75c",
      "effectiveGasPrice": "0x1fe094e",
      "from": "0x474b4e7fd1a143edea6b77aa845f429d443e6410",
      "to": "0xbb46678a1f6c527bd79ecfbf85332b8ae83ceaf1",
      "contractAddress": null
    },
    {
      "status": "0x1",
      "cumulativeGasUsed": "0x204980a",
      "logs": [
        {
          "address": "0xbb46678a1f6c527bd79ecfbf85332b8ae83ceaf1",
          "topics": [
            "0xddf252ad1be2c89b69c2b068fc378daa952ba7f163c4a11628f55a4df523b3ef",
            "0x000000000000000000000000474b4e7fd1a143edea6b77aa845f429d443e6410",
            "0x000000000000000000000000ee00b21292ba7564996a2b372a0ba69e70915b31"
          ],
          "data": "0x000000000000000000000000000000000000000000034f086f3b33b684000000",
          "blockHash": "0xa32d5c10344a2cb3a93b2ec4bed627a94d42401fbcef614c09cb65944994482e",
          "blockNumber": "0x9e9c73",
          "blockTimestamp": "0x69aa7cb4",
          "transactionHash": "0x2063050ad5720c719046a5b9f0d4e56ce7815a649370b4fe1a3451a360b93acb",
          "transactionIndex": "0x6d",
          "logIndex": "0x182",
          "removed": false
        },
        {
          "address": "0xee00b21292ba7564996a2b372a0ba69e70915b31",
          "topics": [
            "0x30f6180e248310ab0c789da3026fbba7390872be072cfc5b3c20733f3a980c9e",
            "0x000000000000000000000000474b4e7fd1a143edea6b77aa845f429d443e6410",
            "0x000000000000000000000000bb46678a1f6c527bd79ecfbf85332b8ae83ceaf1"
          ],
          "data": "0x000000000000000000000000000000000000000000034f086f3b33b684000000",
          "blockHash": "0xa32d5c10344a2cb3a93b2ec4bed627a94d42401fbcef614c09cb65944994482e",
          "blockNumber": "0x9e9c73",
          "blockTimestamp": "0x69aa7cb4",
          "transactionHash": "0x2063050ad5720c719046a5b9f0d4e56ce7815a649370b4fe1a3451a360b93acb",
          "transactionIndex": "0x6d",
          "logIndex": "0x183",
          "removed": false
        }
      ],
      "logsBloom": "0x00000000000000001002000000000000008000000000000000000000000000000000000000000000000000000000000000000000000000000000000000000000000000000000000000000008000000000000000000000000000000020000000000400000000000000000000000000000000200000000000000000010000000000100000008000001000000000000000000000000000000000000000000000000000000000000000000000000000000000000000040000000000100000000000000000012000001000000000000000001000800008000000000000010000000000000000000000000000000000000000000000000000000000000000400000000",
      "type": "0x2",
      "transactionHash": "0x2063050ad5720c719046a5b9f0d4e56ce7815a649370b4fe1a3451a360b93acb",
      "transactionIndex": "0x6d",
      "blockHash": "0xa32d5c10344a2cb3a93b2ec4bed627a94d42401fbcef614c09cb65944994482e",
      "blockNumber": "0x9e9c73",
      "gasUsed": "0x1eba2",
      "effectiveGasPrice": "0x204cdde",
      "from": "0x474b4e7fd1a143edea6b77aa845f429d443e6410",
      "to": "0xee00b21292ba7564996a2b372a0ba69e70915b31",
      "contractAddress": null
    },
    {
      "status": "0x1",
      "cumulativeGasUsed": "0x23ac59c",
      "logs": [
        {
          "address": "0xbb46678a1f6c527bd79ecfbf85332b8ae83ceaf1",
          "topics": [
            "0x8c5be1e5ebec7d5bd14f71427d1e84f3dd0314c0f7b2291e5b200ac8c7c3b925",
            "0x000000000000000000000000f68d9e0faa751ad61e0ed70852798bf9d9c04bf7",
            "0x000000000000000000000000ee00b21292ba7564996a2b372a0ba69e70915b31"
          ],
          "data": "0x000000000000000000000000000000000000000000034f086f3b33b684000000",
          "blockHash": "0x9845df0a1e7e20210e64dd77cd4d6165addc0ab717c4e8f018377536268e3b37",
          "blockNumber": "0x9e9c74",
          "blockTimestamp": "0x69aa7cc0",
          "transactionHash": "0xacc9703d86256a1bf3552da5ffa106adb68dcde4601b673af53e8a3117c13095",
          "transactionIndex": "0x8e",
          "logIndex": "0x1da",
          "removed": false
        }
      ],
      "logsBloom": "0x00000000000000001002000000000000008000000000000000000000000000800000000000000000000000000000000000000000000000000000000000200000000000000000000000000000000000000000000000000000000000000000000000000000000000000000000000000000000000000000000000000000000000000100000008000000000000000000000000000000000000000000000000000000020000000000000000000000000000000400000000000000000000000000000000000000000000000000000000000001000000008000000000000000000000000010000000000000000000000000000000000000000000000000000000000000",
      "type": "0x2",
      "transactionHash": "0xacc9703d86256a1bf3552da5ffa106adb68dcde4601b673af53e8a3117c13095",
      "transactionIndex": "0x8e",
      "blockHash": "0x9845df0a1e7e20210e64dd77cd4d6165addc0ab717c4e8f018377536268e3b37",
      "blockNumber": "0x9e9c74",
      "gasUsed": "0xb75c",
      "effectiveGasPrice": "0x21217e7",
      "from": "0xf68d9e0faa751ad61e0ed70852798bf9d9c04bf7",
      "to": "0xbb46678a1f6c527bd79ecfbf85332b8ae83ceaf1",
      "contractAddress": null
    },
    {
      "status": "0x1",
      "cumulativeGasUsed": "0x249b6f0",
      "logs": [
        {
          "address": "0xbb46678a1f6c527bd79ecfbf85332b8ae83ceaf1",
          "topics": [
            "0xddf252ad1be2c89b69c2b068fc378daa952ba7f163c4a11628f55a4df523b3ef",
            "0x000000000000000000000000f68d9e0faa751ad61e0ed70852798bf9d9c04bf7",
            "0x000000000000000000000000ee00b21292ba7564996a2b372a0ba69e70915b31"
          ],
          "data": "0x000000000000000000000000000000000000000000034f086f3b33b684000000",
          "blockHash": "0x5ef3ca70048f8feddb0abc7ccde6bfce6a4099c71261e3c12b47a050ebb025dc",
          "blockNumber": "0x9e9c75",
          "blockTimestamp": "0x69aa7ccc",
          "transactionHash": "0x80d34c9ae407b82e1a272a86ff49e49e05302b908f77274d5fffe7fdd74b3b98",
          "transactionIndex": "0x85",
          "logIndex": "0x1ed",
          "removed": false
        },
        {
          "address": "0xee00b21292ba7564996a2b372a0ba69e70915b31",
          "topics": [
            "0x30f6180e248310ab0c789da3026fbba7390872be072cfc5b3c20733f3a980c9e",
            "0x000000000000000000000000f68d9e0faa751ad61e0ed70852798bf9d9c04bf7",
            "0x000000000000000000000000bb46678a1f6c527bd79ecfbf85332b8ae83ceaf1"
          ],
          "data": "0x000000000000000000000000000000000000000000034f086f3b33b684000000",
          "blockHash": "0x5ef3ca70048f8feddb0abc7ccde6bfce6a4099c71261e3c12b47a050ebb025dc",
          "blockNumber": "0x9e9c75",
          "blockTimestamp": "0x69aa7ccc",
          "transactionHash": "0x80d34c9ae407b82e1a272a86ff49e49e05302b908f77274d5fffe7fdd74b3b98",
          "transactionIndex": "0x85",
          "logIndex": "0x1ee",
          "removed": false
        }
      ],
      "logsBloom": "0x00000000000000001002000000000000008000000000000000000000000000800000000000000000000000000000000000000000000000000000000000000000000000000000000000000008000000000000000000000000000000020000000000000000000000000000000000000000000200000000000000000010000000000100000008000001000000000000000000000000000000000000000000000000000000000000000000000000000000000400000040000000000000000000000000000012000001000000000000000001000800008000000000000000000000000000000000000000000000000000000000000000000000000000000400000000",
      "type": "0x2",
      "transactionHash": "0x80d34c9ae407b82e1a272a86ff49e49e05302b908f77274d5fffe7fdd74b3b98",
      "transactionIndex": "0x85",
      "blockHash": "0x5ef3ca70048f8feddb0abc7ccde6bfce6a4099c71261e3c12b47a050ebb025dc",
      "blockNumber": "0x9e9c75",
      "gasUsed": "0x1a8d6",
      "effectiveGasPrice": "0x224154d",
      "from": "0xf68d9e0faa751ad61e0ed70852798bf9d9c04bf7",
      "to": "0xee00b21292ba7564996a2b372a0ba69e70915b31",
      "contractAddress": null
    },
    {
      "status": "0x1",
      "cumulativeGasUsed": "0x952463",
      "logs": [
        {
          "address": "0xbb46678a1f6c527bd79ecfbf85332b8ae83ceaf1",
          "topics": [
            "0x8c5be1e5ebec7d5bd14f71427d1e84f3dd0314c0f7b2291e5b200ac8c7c3b925",
            "0x00000000000000000000000010db2e70118e5fbeda30391ec957e608c9e4517e",
            "0x000000000000000000000000ee00b21292ba7564996a2b372a0ba69e70915b31"
          ],
          "data": "0x000000000000000000000000000000000000000000034f086f3b33b684000000",
          "blockHash": "0xd9d82a4ca079901278b45f176f0eb9cd82613d6a07425af9bafa3ce540600d0c",
          "blockNumber": "0x9e9c77",
          "blockTimestamp": "0x69aa7ce4",
          "transactionHash": "0x94cea3815adb4428772d98a80b7987e7c09bbf949baca86e1e5e876db6644362",
          "transactionIndex": "0x5a",
          "logIndex": "0xc9",
          "removed": false
        }
      ],
      "logsBloom": "0x00000000000000001002000000000000008000000000000000000000000000000000000000000000000000000000000000000000000000000000000000200000000000000000000000000000000000000000000000000000000000000000000000000000000000000000000000000000000000000000000000000000000000000100000008000000000000000000000000000000000000000000000000000000020000000000000000000000000000000000000000000000000000000000000000000000000000000000000041000000000000008000000000000000000000000010000000000000000080000000000000000000000000000000000000000000",
      "type": "0x2",
      "transactionHash": "0x94cea3815adb4428772d98a80b7987e7c09bbf949baca86e1e5e876db6644362",
      "transactionIndex": "0x5a",
      "blockHash": "0xd9d82a4ca079901278b45f176f0eb9cd82613d6a07425af9bafa3ce540600d0c",
      "blockNumber": "0x9e9c77",
      "gasUsed": "0xb75c",
      "effectiveGasPrice": "0x20d6997",
      "from": "0x10db2e70118e5fbeda30391ec957e608c9e4517e",
      "to": "0xbb46678a1f6c527bd79ecfbf85332b8ae83ceaf1",
      "contractAddress": null
    },
    {
      "status": "0x1",
      "cumulativeGasUsed": "0x1adf158",
      "logs": [
        {
          "address": "0xbb46678a1f6c527bd79ecfbf85332b8ae83ceaf1",
          "topics": [
            "0xddf252ad1be2c89b69c2b068fc378daa952ba7f163c4a11628f55a4df523b3ef",
            "0x00000000000000000000000010db2e70118e5fbeda30391ec957e608c9e4517e",
            "0x000000000000000000000000ee00b21292ba7564996a2b372a0ba69e70915b31"
          ],
          "data": "0x000000000000000000000000000000000000000000034f086f3b33b684000000",
          "blockHash": "0xc91a3d8d17b7cc3cd6a077330dfebb9f5d52a1076d90d4e3b378235026f3dee2",
          "blockNumber": "0x9e9c78",
          "blockTimestamp": "0x69aa7cf0",
          "transactionHash": "0x399f62182e3c22025352287353a6cc175aff84fe40194523acf15b3252d837c9",
          "transactionIndex": "0x5e",
          "logIndex": "0x119",
          "removed": false
        },
        {
          "address": "0xee00b21292ba7564996a2b372a0ba69e70915b31",
          "topics": [
            "0x30f6180e248310ab0c789da3026fbba7390872be072cfc5b3c20733f3a980c9e",
            "0x00000000000000000000000010db2e70118e5fbeda30391ec957e608c9e4517e",
            "0x000000000000000000000000bb46678a1f6c527bd79ecfbf85332b8ae83ceaf1"
          ],
          "data": "0x000000000000000000000000000000000000000000034f086f3b33b684000000",
          "blockHash": "0xc91a3d8d17b7cc3cd6a077330dfebb9f5d52a1076d90d4e3b378235026f3dee2",
          "blockNumber": "0x9e9c78",
          "blockTimestamp": "0x69aa7cf0",
          "transactionHash": "0x399f62182e3c22025352287353a6cc175aff84fe40194523acf15b3252d837c9",
          "transactionIndex": "0x5e",
          "logIndex": "0x11a",
          "removed": false
        }
      ],
      "logsBloom": "0x00000000000000001002000000000000008000000000000000000000000000000000000000000000000000000000000000000000000000000000000000000000000000000000000000000008000000000000000000000000000000020000000000000000000000000000000000000000000200000000000000000010000000000100000008000001000000000000000000000000000000000000000000000000000000000000000000000000000000000000000040000000000000000000000000000012000001000000000041000001000800008000000000000000000000000000000000000000000080000000000000000000000000000000000400000000",
      "type": "0x2",
      "transactionHash": "0x399f62182e3c22025352287353a6cc175aff84fe40194523acf15b3252d837c9",
      "transactionIndex": "0x5e",
      "blockHash": "0xc91a3d8d17b7cc3cd6a077330dfebb9f5d52a1076d90d4e3b378235026f3dee2",
      "blockNumber": "0x9e9c78",
      "gasUsed": "0x1a8d6",
      "effectiveGasPrice": "0x220b060",
      "from": "0x10db2e70118e5fbeda30391ec957e608c9e4517e",
      "to": "0xee00b21292ba7564996a2b372a0ba69e70915b31",
      "contractAddress": null
    }
  ],
  "libraries": [],
  "pending": [],
  "returns": {},
  "timestamp": 1772780786017,
  "chain": 11155111,
  "commit": "d835087"
}