{
  "transactions": [
    {
      "hash": "0x353964d77a5d695efe382762761065cf98767bd64616fb380682ee3aa1f77239",
      "transactionType": "CALL",
      "contractName": null,
      "contractAddress": "0xbb46678a1f6c527bd79ecfbf85332b8ae83ceaf1",
      "function": "mint(address,uint256)",
      "arguments": [
        "0x474B4E7FD1A143eDea6b77aa845F429D443E6410",
        "4000000000000000000000000"
      ],
      "transaction": {
        "from": "0x993461bbf7e553eb5bd1f5248a72b524c4a3b15d",
        "to": "0xbb46678a1f6c527bd79ecfbf85332b8ae83ceaf1",
        "gas": "0xc681",
        "value": "0x0",
        "input": "0x40c10f19000000000000000000000000474b4e7fd1a143edea6b77aa845f429d443e6410000000000000000000000000000000000000000000034f086f3b33b684000000",
        "nonce": "0x312",
        "chainId": "0xaa36a7"
      },
      "additionalContracts": [],
      "isFixedGasLimit": false
    },
    {
      "hash": "0xd04604518cebd8eb7873e039ca467b66eb2abbcee17fc4e5f2e66c3397d1d2ba",
      "transactionType": "CALL",
      "contractName": null,
      "contractAddress": "0xbb46678a1f6c527bd79ecfbf85332b8ae83ceaf1",
      "function": "mint(address,uint256)",
      "arguments": [
        "0xf68D9e0fAa751AD61e0ED70852798bF9D9C04bF7",
        "4000000000000000000000000"
      ],
      "transaction": {
        "from": "0x993461bbf7e553eb5bd1f5248a72b524c4a3b15d",
        "to": "0xbb46678a1f6c527bd79ecfbf85332b8ae83ceaf1",
        "gas": "0xc681",
        "value": "0x0",
        "input": "0x40c10f19000000000000000000000000f68d9e0faa751ad61e0ed70852798bf9d9c04bf7000000000000000000000000000000000000000000034f086f3b33b684000000",
        "nonce": "0x313",
        "chainId": "0xaa36a7"
      },
      "additionalContracts": [],
      "isFixedGasLimit": false
    },
    {
      "hash": "0x8f9d3e69c82ddd55dec115d7e1c312eebaea56a4bac06bff296f4cfb111022cb",
      "transactionType": "CALL",
      "contractName": null,
      "contractAddress": "0xbb46678a1f6c527bd79ecfbf85332b8ae83ceaf1",
      "function": "mint(address,uint256)",
      "arguments": [
        "0x10Db2E70118e5FBeDa30391ec957e608C9E4517E",
        "4000000000000000000000000"
      ],
      "transaction": {
        "from": "0x993461bbf7e553eb5bd1f5248a72b524c4a3b15d",
        "to": "0xbb46678a1f6c527bd79ecfbf85332b8ae83ceaf1",
        "gas": "0xc681",
        "value": "0x0",
        "input": "0x40c10f1900000000000000000000000010db2e70118e5fbeda30391ec957e608c9e4517e000000000000000000000000000000000000000000034f086f3b33b684000000",
        "nonce": "0x314",
        "chainId": "0xaa36a7"
      },
      "additionalContracts": [],
      "isFixedGasLimit": false
    },
    {
      "hash": "0x47c711af40fc026a5475dee17cfa0d05accb4c3a5aabc2b85e5769548921c129",
      "transactionType": "CALL",
      "contractName": null,
      "contractAddress": "0xbb46678a1f6c527bd79ecfbf85332b8ae83ceaf1",
      "function": "approve(address,uint256)",
      "arguments": [
        "0x354fE33d92A632188121C22bEdF6bC7D2C79d979",
        "4000000000000000000000000"
      ],
      "transaction": {
        "from": "0x474b4e7fd1a143edea6b77aa845f429d443e6410",
        "to": "0xbb46678a1f6c527bd79ecfbf85332b8ae83ceaf1",
        "gas": "0xfd53",
        "value": "0x0",
        "input": "0x095ea7b3000000000000000000000000354fe33d92a632188121c22bedf6bc7d2c79d979000000000000000000000000000000000000000000034f086f3b33b684000000",
        "nonce": "0x34",
        "chainId": "0xaa36a7"
      },
      "additionalContracts": [],
      "isFixedGasLimit": false
    },
    {
      "hash": "0x9f9c484c4556d6357ec6ccabdd006284a5b77b7a436114e866a79ee82bb66118",
      "transactionType": "CALL",
      "contractName": "MarginVault",
      "contractAddress": "0x354fe33d92a632188121c22bedf6bc7d2c79d979",
      "function": "depositMargin(bytes32,address,uint256)",
      "arguments": [
        "0x000000000000000000000000474b4e7fd1a143edea6b77aa845f429d443e6410",
        "0xbb46678a1F6C527bD79eCFBF85332B8Ae83ceaf1",
        "4000000000000000000000000"
      ],
      "transaction": {
        "from": "0x474b4e7fd1a143edea6b77aa845f429d443e6410",
        "to": "0x354fe33d92a632188121c22bedf6bc7d2c79d979",
        "gas": "0x18191",
        "value": "0x0",
        "input": "0x6812d315000000000000000000000000474b4e7fd1a143edea6b77aa845f429d443e6410000000000000000000000000bb46678a1f6c527bd79ecfbf85332b8ae83ceaf1000000000000000000000000000000000000000000034f086f3b33b684000000",
        "nonce": "0x35",
        "chainId": "0xaa36a7"
      },
      "additionalContracts": [],
      "isFixedGasLimit": false
    },
    {
      "hash": "0x4ec9b91e2356c31cd3590875b3d0323000306f949e305fe61728a9a6e2cc22c9",
      "transactionType": "CALL",
      "contractName": null,
      "contractAddress": "0xbb46678a1f6c527bd79ecfbf85332b8ae83ceaf1",
      "function": "approve(address,uint256)",
      "arguments": [
        "0x354fE33d92A632188121C22bEdF6bC7D2C79d979",
        "4000000000000000000000000"
      ],
      "transaction": {
        "from": "0xf68d9e0faa751ad61e0ed70852798bf9d9c04bf7",
        "to": "0xbb46678a1f6c527bd79ecfbf85332b8ae83ceaf1",
        "gas": "0xfd53",
        "value": "0x0",
        "input": "0x095ea7b3000000000000000000000000354fe33d92a632188121c22bedf6bc7d2c79d979000000000000000000000000000000000000000000034f086f3b33b684000000",
        "nonce": "0x33",
        "chainId": "0xaa36a7"
      },
      "additionalContracts": [],
      "isFixedGasLimit": false
    },
    {
      "hash": "0xea9d05fcb781e604377840ed3a6d6f350ebafcce636aa1f7040298cb084cc487",
      "transactionType": "CALL",
      "contractName": "MarginVault",
      "contractAddress": "0x354fe33d92a632188121c22bedf6bc7d2c79d979",
      "function": "depositMargin(bytes32,address,uint256)",
      "arguments": [
        "0x000000000000000000000000f68d9e0faa751ad61e0ed70852798bf9d9c04bf7",
        "0xbb46678a1F6C527bD79eCFBF85332B8Ae83ceaf1",
        "4000000000000000000000000"
      ],
      "transaction": {
        "from": "0xf68d9e0faa751ad61e0ed70852798bf9d9c04bf7",
        "to": "0x354fe33d92a632188121c22bedf6bc7d2c79d979",
        "gas": "0x18191",
        "value": "0x0",
        "input": "0x6812d315000000000000000000000000f68d9e0faa751ad61e0ed70852798bf9d9c04bf7000000000000000000000000bb46678a1f6c527bd79ecfbf85332b8ae83ceaf1000000000000000000000000000000000000000000034f086f3b33b684000000",
        "nonce": "0x34",
        "chainId": "0xaa36a7"
      },
      "additionalContracts": [],
      "isFixedGasLimit": false
    },
    {
      "hash": "0x67dc87eb766ea9b7f859f0755fc8a0236019b1119860b46a4f9477e5539d2c18",
      "transactionType": "CALL",
      "contractName": null,
      "contractAddress": "0xbb46678a1f6c527bd79ecfbf85332b8ae83ceaf1",
      "function": "approve(address,uint256)",
      "arguments": [
        "0x354fE33d92A632188121C22bEdF6bC7D2C79d979",
        "4000000000000000000000000"
      ],
      "transaction": {
        "from": "0x10db2e70118e5fbeda30391ec957e608c9e4517e",
        "to": "0xbb46678a1f6c527bd79ecfbf85332b8ae83ceaf1",
        "gas": "0xfd53",
        "value": "0x0",
        "input": "0x095ea7b3000000000000000000000000354fe33d92a632188121c22bedf6bc7d2c79d979000000000000000000000000000000000000000000034f086f3b33b684000000",
        "nonce": "0x2",
        "chainId": "0xaa36a7"
      },
      "additionalContracts": [],
      "isFixedGasLimit": false
    },
    {
      "hash": "0xfebf99c550c63a276129035c500a15e880df065d2d98d795c113e4e9c2fcc087",
      "transactionType": "CALL",
      "contractName": "MarginVault",
      "contractAddress": "0x354fe33d92a632188121c22bedf6bc7d2c79d979",
      "function": "depositMargin(bytes32,address,uint256)",
      "arguments": [
        "0x00000000000000000000000010db2e70118e5fbeda30391ec957e608c9e4517e",
        "0xbb46678a1F6C527bD79eCFBF85332B8Ae83ceaf1",
        "4000000000000000000000000"
      ],
      "transaction": {
        "from": "0x10db2e70118e5fbeda30391ec957e608c9e4517e",
        "to": "0x354fe33d92a632188121c22bedf6bc7d2c79d979",
        "gas": "0x18191",
        "value": "0x0",
        "input": "0x6812d31500000000000000000000000010db2e70118e5fbeda30391ec957e608c9e4517e000000000000000000000000bb46678a1f6c527bd79ecfbf85332b8ae83ceaf1000000000000000000000000000000000000000000034f086f3b33b684000000",
        "nonce": "0x3",
        "chainId": "0xaa36a7"
      },
      "additionalContracts": [],
      "isFixedGasLimit": false
    }
  ],
  "receipts": [
    {
      "status": "0x1",
      "cumulativeGasUsed": "0x1137b37",
      "logs": [
        {
          "address": "0xbb46678a1f6c527bd79ecfbf85332b8ae83ceaf1",
          "topics": [
            "0xddf252ad1be2c89b69c2b068fc378daa952ba7f163c4a11628f55a4df523b3ef",
            "0x0000000000000000000000000000000000000000000000000000000000000000",
            "0x000000000000000000000000474b4e7fd1a143edea6b77aa845f429d443e6410"
          ],
          "data": "0x000000000000000000000000000000000000000000034f086f3b33b684000000",
          "blockHash": "0x8efbc4060db3d50dc1d7c89c43d31ca05dbaa62f96667fd872d5f5e92eab9537",
          "blockNumber": "0x9e6a75",
          "blockTimestamp": "0x69a80a38",
          "transactionHash": "0x353964d77a5d695efe382762761065cf98767bd64616fb380682ee3aa1f77239",
          "transactionIndex": "0x95",
          "logIndex": "0x116",
          "removed": false
        }
      ],
      "logsBloom": "0x00000000000000000000000000000000000000000000000000000000000000000000000000000000000000000000000000000000000000000000000000000000000000000000000000000008000000000000000000000000000000000000000000400000020000000000000000000800000000000000000000000010000000000100000008000000000000000000000000000000000000000000000000000000000000000000000000000000000000000000000000000000000100000000000000000002000000000000000000000000000000008000000000000010000020000000000000000000000000000000000000000000000000000000000000000000",
      "type": "0x2",
      "transactionHash": "0x353964d77a5d695efe382762761065cf98767bd64616fb380682ee3aa1f77239",
      "transactionIndex": "0x95",
      "blockHash": "0x8efbc4060db3d50dc1d7c89c43d31ca05dbaa62f96667fd872d5f5e92eab9537",
      "blockNumber": "0x9e6a75",
      "gasUsed": "0x87bb",
      "effectiveGasPrice": "0xf423f",
      "from": "0x993461bbf7e553eb5bd1f5248a72b524c4a3b15d",
      "to": "0xbb46678a1f6c527bd79ecfbf85332b8ae83ceaf1",
      "contractAddress": null
    },
    {
      "status": "0x1",
      "cumulativeGasUsed": "0x69affc",
      "logs": [
        {
          "address": "0xbb46678a1f6c527bd79ecfbf85332b8ae83ceaf1",
          "topics": [
            "0xddf252ad1be2c89b69c2b068fc378daa952ba7f163c4a11628f55a4df523b3ef",
            "0x0000000000000000000000000000000000000000000000000000000000000000",
            "0x000000000000000000000000f68d9e0faa751ad61e0ed70852798bf9d9c04bf7"
          ],
          "data": "0x000000000000000000000000000000000000000000034f086f3b33b684000000",
          "blockHash": "0xf35f8653c75a1acb726ff9ee8d4cda9f0560eb1f8d77681b683de3c360f4be59",
          "blockNumber": "0x9e6a76",
          "blockTimestamp": "0x69a80a44",
          "transactionHash": "0xd04604518cebd8eb7873e039ca467b66eb2abbcee17fc4e5f2e66c3397d1d2ba",
          "transactionIndex": "0x5c",
          "logIndex": "0x7a",
          "removed": false
        }
      ],
      "logsBloom": "0x00000000000000000000000000000000000000000000000000000000000000800000000000000000000000000000000000000000000000000000000000000000000000000000000000000008000000000000000000000000000000000000000000000000020000000000000000000800000000000000000000000010000000000100000008000000000000000000000000000000000000000000000000000000000000000000000000000000000000000400000000000000000000000000000000000002000000000000000000000001000000008000000000000000000020000000000000000000000000000000000000000000000000000000000000000000",
      "type": "0x2",
      "transactionHash": "0xd04604518cebd8eb7873e039ca467b66eb2abbcee17fc4e5f2e66c3397d1d2ba",
      "transactionIndex": "0x5c",
      "blockHash": "0xf35f8653c75a1acb726ff9ee8d4cda9f0560eb1f8d77681b683de3c360f4be59",
      "blockNumber": "0x9e6a76",
      "gasUsed": "0x87bb",
      "effectiveGasPrice": "0xf4240",
      "from": "0x993461bbf7e553eb5bd1f5248a72b524c4a3b15d",
      "to": "0xbb46678a1f6c527bd79ecfbf85332b8ae83ceaf1",
      "contractAddress": null
    },
    {
      "status": "0x1",
      "cumulativeGasUsed": "0xac360f",
      "logs": [
        {
          "address": "0xbb46678a1f6c527bd79ecfbf85332b8ae83ceaf1",
          "topics": [
            "0xddf252ad1be2c89b69c2b068fc378daa952ba7f163c4a11628f55a4df523b3ef",
            "0x0000000000000000000000000000000000000000000000000000000000000000",
            "0x00000000000000000000000010db2e70118e5fbeda30391ec957e608c9e4517e"
          ],
          "data": "0x000000000000000000000000000000000000000000034f086f3b33b684000000",
          "blockHash": "0xec67ef10614382bb9ffef5df343fe771017caa5bb59e07e3c34e4c83b268de9f",
          "blockNumber": "0x9e6a7c",
          "blockTimestamp": "0x69a80a8c",
          "transactionHash": "0x8f9d3e69c82ddd55dec115d7e1c312eebaea56a4bac06bff296f4cfb111022cb",
          "transactionIndex": "0x7f",
          "logIndex": "0xc4",
          "removed": false
        }
      ],
      "logsBloom": "0x00000000000000000000000000000000000000000000000000000000000000000000000000000000000000000000000000000000000000000000000000000000000000000000000000000008000000000000000000000000000000000000000000000000020000000000000000000800000000000000000000000010000000000100000008000000000000000000000000000000000000000000000000000000000000000000000000000000000000000000000000000000000000000000000000000002000000000000000041000000000000008000000000000000000020000000000000000000000080000000000000000000000000000000000000000000",
      "type": "0x2",
      "transactionHash": "0x8f9d3e69c82ddd55dec115d7e1c312eebaea56a4bac06bff296f4cfb111022cb",
      "transactionIndex": "0x7f",
      "blockHash": "0xec67ef10614382bb9ffef5df343fe771017caa5bb59e07e3c34e4c83b268de9f",
      "blockNumber": "0x9e6a7c",
      "gasUsed": "0x87bb",
      "effectiveGasPrice": "0xf4240",
      "from": "0x993461bbf7e553eb5bd1f5248a72b524c4a3b15d",
      "to": "0xbb46678a1f6c527bd79ecfbf85332b8ae83ceaf1",
      "contractAddress": null
    },
    {
      "status": "0x1",
      "cumulativeGasUsed": "0x1acc150",
      "logs": [
        {
          "address": "0xbb46678a1f6c527bd79ecfbf85332b8ae83ceaf1",
          "topics": [
            "0x8c5be1e5ebec7d5bd14f71427d1e84f3dd0314c0f7b2291e5b200ac8c7c3b925",
            "0x000000000000000000000000474b4e7fd1a143edea6b77aa845f429d443e6410",
            "0x000000000000000000000000354fe33d92a632188121c22bedf6bc7d2c79d979"
          ],
          "data": "0x000000000000000000000000000000000000000000034f086f3b33b684000000",
          "blockHash": "0xf0ff0046694c138483fb3fd45e0188d57b36ae3f1f3b7c33de7aaf90a741e55c",
          "blockNumber": "0x9e6a7e",
          "blockTimestamp": "0x69a80aa4",
          "transactionHash": "0x47c711af40fc026a5475dee17cfa0d05accb4c3a5aabc2b85e5769548921c129",
          "transactionIndex": "0xac",
          "logIndex": "0x147",
          "removed": false
        }
      ],
      "logsBloom": "0x00000000000000000000000000000000000000000000000000000000000000000000000000000000000000000000000000000000000000000000000000200000000000000000000000000000000000080000000000000000000000000000000000400000000000010000000000000000000000000000000000000000000000000100000008000000000000000000000000000000000000000000000000000000020000000000000000000000000000000000000000000000000100000000000000000000004000000000000000000000000000008000000000000010000000000010000000000000000000000000000000000000000000000000000000000000",
      "type": "0x2",
      "transactionHash": "0x47c711af40fc026a5475dee17cfa0d05accb4c3a5aabc2b85e5769548921c129",
      "transactionIndex": "0xac",
      "blockHash": "0xf0ff0046694c138483fb3fd45e0188d57b36ae3f1f3b7c33de7aaf90a741e55c",
      "blockNumber": "0x9e6a7e",
      "gasUsed": "0xb768",
      "effectiveGasPrice": "0xf4240",
      "from": "0x474b4e7fd1a143edea6b77aa845f429d443e6410",
      "to": "0xbb46678a1f6c527bd79ecfbf85332b8ae83ceaf1",
      "contractAddress": null
    },
    {
      "status": "0x1",
      "cumulativeGasUsed": "0x974789",
      "logs": [
        {
          "address": "0xbb46678a1f6c527bd79ecfbf85332b8ae83ceaf1",
          "topics": [
            "0xddf252ad1be2c89b69c2b068fc378daa952ba7f163c4a11628f55a4df523b3ef",
            "0x000000000000000000000000474b4e7fd1a143edea6b77aa845f429d443e6410",
            "0x000000000000000000000000354fe33d92a632188121c22bedf6bc7d2c79d979"
          ],
          "data": "0x000000000000000000000000000000000000000000034f086f3b33b684000000",
          "blockHash": "0x88163115daac5a1ecb2f5489e7f34acfc9dd1b18890c8206c0eba11a3997ee15",
          "blockNumber": "0x9e6a7f",
          "blockTimestamp": "0x69a80ab0",
          "transactionHash": "0x9f9c484c4556d6357ec6ccabdd006284a5b77b7a436114e866a79ee82bb66118",
          "transactionIndex": "0x63",
          "logIndex": "0xad",
          "removed": false
        },
        {
          "address": "0x354fe33d92a632188121c22bedf6bc7d2c79d979",
          "topics": [
            "0x30f6180e248310ab0c789da3026fbba7390872be072cfc5b3c20733f3a980c9e",
            "0x000000000000000000000000474b4e7fd1a143edea6b77aa845f429d443e6410",
            "0x000000000000000000000000bb46678a1f6c527bd79ecfbf85332b8ae83ceaf1"
          ],
          "data": "0x000000000000000000000000000000000000000000034f086f3b33b684000000",
          "blockHash": "0x88163115daac5a1ecb2f5489e7f34acfc9dd1b18890c8206c0eba11a3997ee15",
          "blockNumber": "0x9e6a7f",
          "blockTimestamp": "0x69a80ab0",
          "transactionHash": "0x9f9c484c4556d6357ec6ccabdd006284a5b77b7a436114e866a79ee82bb66118",
          "transactionIndex": "0x63",
          "logIndex": "0xae",
          "removed": false
        }
      ],
      "logsBloom": "0x00000000000000000000000000000000000000000000000010000000000000000000000000000000000000000000000000000000000000000000000000000000000000000000000000000008000000080000000000000000000000000000000000400000000000010000000000000000000000000000008000000010000000000100000008000001000000000000000000000000000000000000000000000000000000000000000000000000000000000000000040000000000100000000000000000002004001000000000000000001000800008000000000000010000000000008000000000000000000000000000000000000000000000000000400000000",
      "type": "0x2",
      "transactionHash": "0x9f9c484c4556d6357ec6ccabdd006284a5b77b7a436114e866a79ee82bb66118",
      "transactionIndex": "0x63",
      "blockHash": "0x88163115daac5a1ecb2f5489e7f34acfc9dd1b18890c8206c0eba11a3997ee15",
      "blockNumber": "0x9e6a7f",
      "gasUsed": "0x11725",
      "effectiveGasPrice": "0xf4241",
      "from": "0x474b4e7fd1a143edea6b77aa845f429d443e6410",
      "to": "0x354fe33d92a632188121c22bedf6bc7d2c79d979",
      "contractAddress": null
    },
    {
      "status": "0x1",
      "cumulativeGasUsed": "0xc34615",
      "logs": [
        {
          "address": "0xbb46678a1f6c527bd79ecfbf85332b8ae83ceaf1",
          "topics": [
            "0x8c5be1e5ebec7d5bd14f71427d1e84f3dd0314c0f7b2291e5b200ac8c7c3b925",
            "0x000000000000000000000000f68d9e0faa751ad61e0ed70852798bf9d9c04bf7",
            "0x000000000000000000000000354fe33d92a632188121c22bedf6bc7d2c79d979"
          ],
          "data": "0x000000000000000000000000000000000000000000034f086f3b33b684000000",
          "blockHash": "0x6071d96e00151ede41982cd9b66e911ae03fde28e668c3f3ccb6a1679e01827d",
          "blockNumber": "0x9e6a80",
          "blockTimestamp": "0x69a80abc",
          "transactionHash": "0x4ec9b91e2356c31cd3590875b3d0323000306f949e305fe61728a9a6e2cc22c9",
          "transactionIndex": "0x86",
          "logIndex": "0xcd",
          "removed": false
        }
      ],
      "logsBloom": "0x00000000000000000000000000000000000000000000000000000000000000800000000000000000000000000000000000000000000000000000000000200000000000000000000000000000000000080000000000000000000000000000000000000000000000010000000000000000000000000000000000000000000000000100000008000000000000000000000000000000000000000000000000000000020000000000000000000000000000000400000000000000000000000000000000000000004000000000000000000001000000008000000000000000000000000010000000000000000000000000000000000000000000000000000000000000",
      "type": "0x2",
      "transactionHash": "0x4ec9b91e2356c31cd3590875b3d0323000306f949e305fe61728a9a6e2cc22c9",
      "transactionIndex": "0x86",
      "blockHash": "0x6071d96e00151ede41982cd9b66e911ae03fde28e668c3f3ccb6a1679e01827d",
      "blockNumber": "0x9e6a80",
      "gasUsed": "0xb768",
      "effectiveGasPrice": "0xf4241",
      "from": "0xf68d9e0faa751ad61e0ed70852798bf9d9c04bf7",
      "to": "0xbb46678a1f6c527bd79ecfbf85332b8ae83ceaf1",
      "contractAddress": null
    },
    {
      "status": "0x1",
      "cumulativeGasUsed": "0x1616302",
      "logs": [
        {
          "address": "0xbb46678a1f6c527bd79ecfbf85332b8ae83ceaf1",
          "topics": [
            "0xddf252ad1be2c89b69c2b068fc378daa952ba7f163c4a11628f55a4df523b3ef",
            "0x000000000000000000000000f68d9e0faa751ad61e0ed70852798bf9d9c04bf7",
            "0x000000000000000000000000354fe33d92a632188121c22bedf6bc7d2c79d979"
          ],
          "data": "0x000000000000000000000000000000000000000000034f086f3b33b684000000",
          "blockHash": "0xdc2d14b5a0730c5bb6c0150426e836d0ea29f057a8573db66a750beb41d7411d",
          "blockNumber": "0x9e6a81",
          "blockTimestamp": "0x69a80ad4",
          "transactionHash": "0xea9d05fcb781e604377840ed3a6d6f350ebafcce636aa1f7040298cb084cc487",
          "transactionIndex": "0xbc",
          "logIndex": "0x19e",
          "removed": false
        },
        {
          "address": "0x354fe33d92a632188121c22bedf6bc7d2c79d979",
          "topics": [
            "0x30f6180e248310ab0c789da3026fbba7390872be072cfc5b3c20733f3a980c9e",
            "0x000000000000000000000000f68d9e0faa751ad61e0ed70852798bf9d9c04bf7",
            "0x000000000000000000000000bb46678a1f6c527bd79ecfbf85332b8ae83ceaf1"
          ],
          "data": "0x000000000000000000000000000000000000000000034f086f3b33b684000000",
          "blockHash": "0xdc2d14b5a0730c5bb6c0150426e836d0ea29f057a8573db66a750beb41d7411d",
          "blockNumber": "0x9e6a81",
          "blockTimestamp": "0x69a80ad4",
          "transactionHash": "0xea9d05fcb781e604377840ed3a6d6f350ebafcce636aa1f7040298cb084cc487",
          "transactionIndex": "0xbc",
          "logIndex": "0x19f",
          "removed": false
        }
      ],
      "logsBloom": "0x00000000000000000000000000000000000000000000000010000000000000800000000000000000000000000000000000000000000000000000000000000000000000000000000000000008000000080000000000000000000000000000000000000000000000010000000000000000000000000000008000000010000000000100000008000001000000000000000000000000000000000000000000000000000000000000000000000000000000000400000040000000000000000000000000000002004001000000000000000001000800008000000000000000000000000008000000000000000000000000000000000000000000000000000400000000",
      "type": "0x2",
      "transactionHash": "0xea9d05fcb781e604377840ed3a6d6f350ebafcce636aa1f7040298cb084cc487",
      "transactionIndex": "0xbc",
      "blockHash": "0xdc2d14b5a0730c5bb6c0150426e836d0ea29f057a8573db66a750beb41d7411d",
      "blockNumber": "0x9e6a81",
      "gasUsed": "0x11725",
      "effectiveGasPrice": "0xf4241",
      "from": "0xf68d9e0faa751ad61e0ed70852798bf9d9c04bf7",
      "to": "0x354fe33d92a632188121c22bedf6bc7d2c79d979",
      "contractAddress": null
    },
    {
      "status": "0x1",
      "cumulativeGasUsed": "0x1d74866",
      "logs": [
        {
          "address": "0xbb46678a1f6c527bd79ecfbf85332b8ae83ceaf1",
          "topics": [
            "0x8c5be1e5ebec7d5bd14f71427d1e84f3dd0314c0f7b2291e5b200ac8c7c3b925",
            "0x00000000000000000000000010db2e70118e5fbeda30391ec957e608c9e4517e",
            "0x000000000000000000000000354fe33d92a632188121c22bedf6bc7d2c79d979"
          ],
          "data": "0x000000000000000000000000000000000000000000034f086f3b33b684000000",
          "blockHash": "0x73bda7094d1c1d673a87a871ec87fa3c7e33bec2c38d8058126c2aa62a5ec263",
          "blockNumber": "0x9e6a85",
          "blockTimestamp": "0x69a80b04",
          "transactionHash": "0x67dc87eb766ea9b7f859f0755fc8a0236019b1119860b46a4f9477e5539d2c18",
          "transactionIndex": "0x9d",
          "logIndex": "0x14c",
          "removed": false
        }
      ],
      "logsBloom": "0x00000000000000000000000000000000000000000000000000000000000000000000000000000000000000000000000000000000000000000000000000200000000000000000000000000000000000080000000000000000000000000000000000000000000000010000000000000000000000000000000000000000000000000100000008000000000000000000000000000000000000000000000000000000020000000000000000000000000000000000000000000000000000000000000000000000004000000000000041000000000000008000000000000000000000000010000000000000000080000000000000000000000000000000000000000000",
      "type": "0x2",
      "transactionHash": "0x67dc87eb766ea9b7f859f0755fc8a0236019b1119860b46a4f9477e5539d2c18",
      "transactionIndex": "0x9d",
      "blockHash": "0x73bda7094d1c1d673a87a871ec87fa3c7e33bec2c38d8058126c2aa62a5ec263",
      "blockNumber": "0x9e6a85",
      "gasUsed": "0xb768",
      "effectiveGasPrice": "0xf4240",
      "from": "0x10db2e70118e5fbeda30391ec957e608c9e4517e",
      "to": "0xbb46678a1f6c527bd79ecfbf85332b8ae83ceaf1",
      "contractAddress": null
    },
    {
      "status": "0x1",
      "cumulativeGasUsed": "0x1858ce8",
      "logs": [
        {
          "address": "0xbb46678a1f6c527bd79ecfbf85332b8ae83ceaf1",
          "topics": [
            "0xddf252ad1be2c89b69c2b068fc378daa952ba7f163c4a11628f55a4df523b3ef",
            "0x00000000000000000000000010db2e70118e5fbeda30391ec957e608c9e4517e",
            "0x000000000000000000000000354fe33d92a632188121c22bedf6bc7d2c79d979"
          ],
          "data": "0x000000000000000000000000000000000000000000034f086f3b33b684000000",
          "blockHash": "0xb6fb50f43c2cf006454feca7d7fe4346454cd68c6098f65ea26b9eb6bb6acc75",
          "blockNumber": "0x9e6a86",
          "blockTimestamp": "0x69a80b1c",
          "transactionHash": "0xfebf99c550c63a276129035c500a15e880df065d2d98d795c113e4e9c2fcc087",
          "transactionIndex": "0x111",
          "logIndex": "0x228",
          "removed": false
        },
        {
          "address": "0x354fe33d92a632188121c22bedf6bc7d2c79d979",
          "topics": [
            "0x30f6180e248310ab0c789da3026fbba7390872be072cfc5b3c20733f3a980c9e",
            "0x00000000000000000000000010db2e70118e5fbeda30391ec957e608c9e4517e",
            "0x000000000000000000000000bb46678a1f6c527bd79ecfbf85332b8ae83ceaf1"
          ],
          "data": "0x000000000000000000000000000000000000000000034f086f3b33b684000000",
          "blockHash": "0xb6fb50f43c2cf006454feca7d7fe4346454cd68c6098f65ea26b9eb6bb6acc75",
          "blockNumber": "0x9e6a86",
          "blockTimestamp": "0x69a80b1c",
          "transactionHash": "0xfebf99c550c63a276129035c500a15e880df065d2d98d795c113e4e9c2fcc087",
          "transactionIndex": "0x111",
          "logIndex": "0x229",
          "removed": false
        }
      ],
      "logsBloom": "0x00000000000000000000000000000000000000000000000010000000000000000000000000000000000000000000000000000000000000000000000000000000000000000000000000000008000000080000000000000000000000000000000000000000000000010000000000000000000000000000008000000010000000000100000008000001000000000000000000000000000000000000000000000000000000000000000000000000000000000000000040000000000000000000000000000002004001000000000041000001000800008000000000000000000000000008000000000000000080000000000000000000000000000000000400000000",
      "type": "0x2",
      "transactionHash": "0xfebf99c550c63a276129035c500a15e880df065d2d98d795c113e4e9c2fcc087",
      "transactionIndex": "0x111",
      "blockHash": "0xb6fb50f43c2cf006454feca7d7fe4346454cd68c6098f65ea26b9eb6bb6acc75",
      "blockNumber": "0x9e6a86",
      "gasUsed": "0x11725",
      "effectiveGasPrice": "0xf4241",
      "from": "0x10db2e70118e5fbeda30391ec957e608c9e4517e",
      "to": "0x354fe33d92a632188121c22bedf6bc7d2c79d979",
      "contractAddress": null
    }
  ],
  "libraries": [],
  "pending": [],
  "returns": {},
  "timestamp": 1772620575066,
  "chain": 11155111,
  "commit": "26cfe68"
}