{
  "transactions": [
    {
      "hash": "0x6bb8534d32045325f7b6ed6e625cdf6307ecf44af1e7fdd9a48057476318aa11",
      "transactionType": "CALL",
      "contractName": null,
      "contractAddress": "0xbb46678a1f6c527bd79ecfbf85332b8ae83ceaf1",
      "function": "mint(address,uint256)",
      "arguments": [
        "0x474B4E7FD1A143eDea6b77aa845F429D443E6410",
        "4000000000000000000000000"
      ],
      "transaction": {
        "from": "0x993461bbf7e553eb5bd1f5248a72b524c4a3b15d",
        "to": "0xbb46678a1f6c527bd79ecfbf85332b8ae83ceaf1",
        "gas": "0xc681",
        "value": "0x0",
        "input": "0x40c10f19000000000000000000000000474b4e7fd1a143edea6b77aa845f429d443e6410000000000000000000000000000000000000000000034f086f3b33b684000000",
        "nonce": "0x5fc",
        "chainId": "0xaa36a7"
      },
      "additionalContracts": [],
      "isFixedGasLimit": false
    },
    {
      "hash": "0x3b1146ed3cb04e34e5f0911578cfd2b43480b98d7a21e5bc1eb4291b1a790b64",
      "transactionType": "CALL",
      "contractName": null,
      "contractAddress": "0xbb46678a1f6c527bd79ecfbf85332b8ae83ceaf1",
      "function": "mint(address,uint256)",
      "arguments": [
        "0xf68D9e0fAa751AD61e0ED70852798bF9D9C04bF7",
        "4000000000000000000000000"
      ],
      "transaction": {
        "from": "0x993461bbf7e553eb5bd1f5248a72b524c4a3b15d",
        "to": "0xbb46678a1f6c527bd79ecfbf85332b8ae83ceaf1",
        "gas": "0xc681",
        "value": "0x0",
        "input": "0x40c10f19000000000000000000000000f68d9e0faa751ad61e0ed70852798bf9d9c04bf7000000000000000000000000000000000000000000034f086f3b33b684000000",
        "nonce": "0x5fd",
        "chainId": "0xaa36a7"
      },
      "additionalContracts": [],
      "isFixedGasLimit": false
    },
    {
      "hash": "0x7c2de9f9a4a3f28340c02d9bf5f41f021e3a1f4291bcb874e4dc3be16eefdcab",
      "transactionType": "CALL",
      "contractName": null,
      "contractAddress": "0xbb46678a1f6c527bd79ecfbf85332b8ae83ceaf1",
      "function": "mint(address,uint256)",
      "arguments": [
        "0x10Db2E70118e5FBeDa30391ec957e608C9E4517E",
        "4000000000000000000000000"
      ],
      "transaction": {
        "from": "0x993461bbf7e553eb5bd1f5248a72b524c4a3b15d",
        "to": "0xbb46678a1f6c527bd79ecfbf85332b8ae83ceaf1",
        "gas": "0xc681",
        "value": "0x0",
        "input": "0x40c10f1900000000000000000000000010db2e70118e5fbeda30391ec957e608c9e4517e000000000000000000000000000000000000000000034f086f3b33b684000000",
        "nonce": "0x5fe",
        "chainId": "0xaa36a7"
      },
      "additionalContracts": [],
      "isFixedGasLimit": false
    },
    {
      "hash": "0x98d98f4c9d6c124b8c247f6c4e7fb14b065ddaac4b1502f6128975ac9c3abbd8",
      "transactionType": "CALL",
      "contractName": null,
      "contractAddress": "0xbb46678a1f6c527bd79ecfbf85332b8ae83ceaf1",
      "function": "approve(address,uint256)",
      "arguments": [
        "0xFd3884cfA3ec01ECA0f615250149A7164EfdfEeB",
        "4000000000000000000000000"
      ],
      "transaction": {
        "from": "0x474b4e7fd1a143edea6b77aa845f429d443e6410",
        "to": "0xbb46678a1f6c527bd79ecfbf85332b8ae83ceaf1",
        "gas": "0xfd53",
        "value": "0x0",
        "input": "0x095ea7b3000000000000000000000000fd3884cfa3ec01eca0f615250149a7164efdfeeb000000000000000000000000000000000000000000034f086f3b33b684000000",
        "nonce": "0x74",
        "chainId": "0xaa36a7"
      },
      "additionalContracts": [],
      "isFixedGasLimit": false
    },
    {
      "hash": "0x7f32cfd0319e855bc4f841322977e6f4ee2377c19c76ef023879380672d3f228",
      "transactionType": "CALL",
      "contractName": "MarginVault",
      "contractAddress": "0xfd3884cfa3ec01eca0f615250149a7164efdfeeb",
      "function": "depositMargin(bytes32,address,uint256)",
      "arguments": [
        "0x000000000000000000000000474b4e7fd1a143edea6b77aa845f429d443e6410",
        "0xbb46678a1F6C527bD79eCFBF85332B8Ae83ceaf1",
        "4000000000000000000000000"
      ],
      "transaction": {
        "from": "0x474b4e7fd1a143edea6b77aa845f429d443e6410",
        "to": "0xfd3884cfa3ec01eca0f615250149a7164efdfeeb",
        "gas": "0x2cf03",
        "value": "0x0",
        "input": "0x6812d315000000000000000000000000474b4e7fd1a143edea6b77aa845f429d443e6410000000000000000000000000bb46678a1f6c527bd79ecfbf85332b8ae83ceaf1000000000000000000000000000000000000000000034f086f3b33b684000000",
        "nonce": "0x75",
        "chainId": "0xaa36a7"
      },
      "additionalContracts": [],
      "isFixedGasLimit": false
    },
    {
      "hash": "0x6f520126a09f2fa2ebcaae4847603d65401aca589a6ffa36668dde9df69ee842",
      "transactionType": "CALL",
      "contractName": null,
      "contractAddress": "0xbb46678a1f6c527bd79ecfbf85332b8ae83ceaf1",
      "function": "approve(address,uint256)",
      "arguments": [
        "0xFd3884cfA3ec01ECA0f615250149A7164EfdfEeB",
        "4000000000000000000000000"
      ],
      "transaction": {
        "from": "0xf68d9e0faa751ad61e0ed70852798bf9d9c04bf7",
        "to": "0xbb46678a1f6c527bd79ecfbf85332b8ae83ceaf1",
        "gas": "0xfd53",
        "value": "0x0",
        "input": "0x095ea7b3000000000000000000000000fd3884cfa3ec01eca0f615250149a7164efdfeeb000000000000000000000000000000000000000000034f086f3b33b684000000",
        "nonce": "0x6d",
        "chainId": "0xaa36a7"
      },
      "additionalContracts": [],
      "isFixedGasLimit": false
    },
    {
      "hash": "0x8bcbda0ee8e09d44f12c88e54d762e55409f1930ce4f641bc81d7eab712b871f",
      "transactionType": "CALL",
      "contractName": "MarginVault",
      "contractAddress": "0xfd3884cfa3ec01eca0f615250149a7164efdfeeb",
      "function": "depositMargin(bytes32,address,uint256)",
      "arguments": [
        "0x000000000000000000000000f68d9e0faa751ad61e0ed70852798bf9d9c04bf7",
        "0xbb46678a1F6C527bD79eCFBF85332B8Ae83ceaf1",
        "4000000000000000000000000"
      ],
      "transaction": {
        "from": "0xf68d9e0faa751ad61e0ed70852798bf9d9c04bf7",
        "to": "0xfd3884cfa3ec01eca0f615250149a7164efdfeeb",
        "gas": "0x24acd",
        "value": "0x0",
        "input": "0x6812d315000000000000000000000000f68d9e0faa751ad61e0ed70852798bf9d9c04bf7000000000000000000000000bb46678a1f6c527bd79ecfbf85332b8ae83ceaf1000000000000000000000000000000000000000000034f086f3b33b684000000",
        "nonce": "0x6e",
        "chainId": "0xaa36a7"
      },
      "additionalContracts": [],
      "isFixedGasLimit": false
    },
    {
      "hash": "0x8a06d75e9e7ef33e84db58d978fcebcd7b770817c50100dfadfb36a58fa30121",
      "transactionType": "CALL",
      "contractName": null,
      "contractAddress": "0xbb46678a1f6c527bd79ecfbf85332b8ae83ceaf1",
      "function": "approve(address,uint256)",
      "arguments": [
        "0xFd3884cfA3ec01ECA0f615250149A7164EfdfEeB",
        "4000000000000000000000000"
      ],
      "transaction": {
        "from": "0x10db2e70118e5fbeda30391ec957e608c9e4517e",
        "to": "0xbb46678a1f6c527bd79ecfbf85332b8ae83ceaf1",
        "gas": "0xfd53",
        "value": "0x0",
        "input": "0x095ea7b3000000000000000000000000fd3884cfa3ec01eca0f615250149a7164efdfeeb000000000000000000000000000000000000000000034f086f3b33b684000000",
        "nonce": "0x3a",
        "chainId": "0xaa36a7"
      },
      "additionalContracts": [],
      "isFixedGasLimit": false
    },
    {
      "hash": "0xcc19ce190ea09cb8dd5cfb3b0b9b139bebff91ae71843fe77f26d9dab18e5e9b",
      "transactionType": "CALL",
      "contractName": "MarginVault",
      "contractAddress": "0xfd3884cfa3ec01eca0f615250149a7164efdfeeb",
      "function": "depositMargin(bytes32,address,uint256)",
      "arguments": [
        "0x00000000000000000000000010db2e70118e5fbeda30391ec957e608c9e4517e",
        "0xbb46678a1F6C527bD79eCFBF85332B8Ae83ceaf1",
        "4000000000000000000000000"
      ],
      "transaction": {
        "from": "0x10db2e70118e5fbeda30391ec957e608c9e4517e",
        "to": "0xfd3884cfa3ec01eca0f615250149a7164efdfeeb",
        "gas": "0x24acd",
        "value": "0x0",
        "input": "0x6812d31500000000000000000000000010db2e70118e5fbeda30391ec957e608c9e4517e000000000000000000000000bb46678a1f6c527bd79ecfbf85332b8ae83ceaf1000000000000000000000000000000000000000000034f086f3b33b684000000",
        "nonce": "0x3b",
        "chainId": "0xaa36a7"
      },
      "additionalContracts": [],
      "isFixedGasLimit": false
    }
  ],
  "receipts": [
    {
      "status": "0x1",
      "cumulativeGasUsed": "0xbb004b",
      "logs": [
        {
          "address": "0xbb46678a1f6c527bd79ecfbf85332b8ae83ceaf1",
          "topics": [
            "0xddf252ad1be2c89b69c2b068fc378daa952ba7f163c4a11628f55a4df523b3ef",
            "0x0000000000000000000000000000000000000000000000000000000000000000",
            "0x000000000000000000000000474b4e7fd1a143edea6b77aa845f429d443e6410"
          ],
          "data": "0x000000000000000000000000000000000000000000034f086f3b33b684000000",
          "blockHash": "0x1387aff44da62c847c91a044e4d6f9bd7d5ff30461044ea34ea617eef5904f0d",
          "blockNumber": "0x9ed527",
          "blockTimestamp": "0x69ad8d70",
          "transactionHash": "0x6bb8534d32045325f7b6ed6e625cdf6307ecf44af1e7fdd9a48057476318aa11",
          "transactionIndex": "0x6f",
          "logIndex": "0x6b",
          "removed": false
        }
      ],
      "logsBloom": "0x00000000000000000000000000000000000000000000000000000000000000000000000000000000000000000000000000000000000000000000000000000000000000000000000000000008000000000000000000000000000000000000000000400000020000000000000000000800000000000000000000000010000000000100000008000000000000000000000000000000000000000000000000000000000000000000000000000000000000000000000000000000000100000000000000000002000000000000000000000000000000008000000000000010000020000000000000000000000000000000000000000000000000000000000000000000",
      "type": "0x2",
      "transactionHash": "0x6bb8534d32045325f7b6ed6e625cdf6307ecf44af1e7fdd9a48057476318aa11",
      "transactionIndex": "0x6f",
      "blockHash": "0x1387aff44da62c847c91a044e4d6f9bd7d5ff30461044ea34ea617eef5904f0d",
      "blockNumber": "0x9ed527",
      "gasUsed": "0x87bb",
      "effectiveGasPrice": "0xd497c0",
      "from": "0x993461bbf7e553eb5bd1f5248a72b524c4a3b15d",
      "to": "0xbb46678a1f6c527bd79ecfbf85332b8ae83ceaf1",
      "contractAddress": null
    },
    {
      "status": "0x1",
      "cumulativeGasUsed": "0x12aaf10",
      "logs": [
        {
          "address": "0xbb46678a1f6c527bd79ecfbf85332b8ae83ceaf1",
          "topics": [
            "0xddf252ad1be2c89b69c2b068fc378daa952ba7f163c4a11628f55a4df523b3ef",
            "0x0000000000000000000000000000000000000000000000000000000000000000",
            "0x000000000000000000000000f68d9e0faa751ad61e0ed70852798bf9d9c04bf7"
          ],
          "data": "0x000000000000000000000000000000000000000000034f086f3b33b684000000",
          "blockHash": "0x058c56a8d627241524c0f25847a9c2bad521f469f761f5ef8d87dc60dc14f857",
          "blockNumber": "0x9ed528",
          "blockTimestamp": "0x69ad8d7c",
          "transactionHash": "0x3b1146ed3cb04e34e5f0911578cfd2b43480b98d7a21e5bc1eb4291b1a790b64",
          "transactionIndex": "0x71",
          "logIndex": "0x193",
          "removed": false
        }
      ],
      "logsBloom": "0x00000000000000000000000000000000000000000000000000000000000000800000000000000000000000000000000000000000000000000000000000000000000000000000000000000008000000000000000000000000000000000000000000000000020000000000000000000800000000000000000000000010000000000100000008000000000000000000000000000000000000000000000000000000000000000000000000000000000000000400000000000000000000000000000000000002000000000000000000000001000000008000000000000000000020000000000000000000000000000000000000000000000000000000000000000000",
      "type": "0x2",
      "transactionHash": "0x3b1146ed3cb04e34e5f0911578cfd2b43480b98d7a21e5bc1eb4291b1a790b64",
      "transactionIndex": "0x71",
      "blockHash": "0x058c56a8d627241524c0f25847a9c2bad521f469f761f5ef8d87dc60dc14f857",
      "blockNumber": "0x9ed528",
      "gasUsed": "0x87bb",
      "effectiveGasPrice": "0xd497c1",
      "from": "0x993461bbf7e553eb5bd1f5248a72b524c4a3b15d",
      "to": "0xbb46678a1f6c527bd79ecfbf85332b8ae83ceaf1",
      "contractAddress": null
    },
    {
      "status": "0x1",
      "cumulativeGasUsed": "0x18b23b4",
      "logs": [
        {
          "address": "0xbb46678a1f6c527bd79ecfbf85332b8ae83ceaf1",
          "topics": [
            "0xddf252ad1be2c89b69c2b068fc378daa952ba7f163c4a11628f55a4df523b3ef",
            "0x0000000000000000000000000000000000000000000000000000000000000000",
            "0x00000000000000000000000010db2e70118e5fbeda30391ec957e608c9e4517e"
          ],
          "data": "0x000000000000000000000000000000000000000000034f086f3b33b684000000",
          "blockHash": "0x827210c4a5bcfefd65e3ed476e5581c494fe26b9b13c8ccb8affa39f35fa6276",
          "blockNumber": "0x9ed529",
          "blockTimestamp": "0x69ad8d88",
          "transactionHash": "0x7c2de9f9a4a3f28340c02d9bf5f41f021e3a1f4291bcb874e4dc3be16eefdcab",
          "transactionIndex": "0x76",
          "logIndex": "0x14b",
          "removed": false
        }
      ],
      "logsBloom": "0x00000000000000000000000000000000000000000000000000000000000000000000000000000000000000000000000000000000000000000000000000000000000000000000000000000008000000000000000000000000000000000000000000000000020000000000000000000800000000000000000000000010000000000100000008000000000000000000000000000000000000000000000000000000000000000000000000000000000000000000000000000000000000000000000000000002000000000000000041000000000000008000000000000000000020000000000000000000000080000000000000000000000000000000000000000000",
      "type": "0x2",
      "transactionHash": "0x7c2de9f9a4a3f28340c02d9bf5f41f021e3a1f4291bcb874e4dc3be16eefdcab",
      "transactionIndex": "0x76",
      "blockHash": "0x827210c4a5bcfefd65e3ed476e5581c494fe26b9b13c8ccb8affa39f35fa6276",
      "blockNumber": "0x9ed529",
      "gasUsed": "0x87bb",
      "effectiveGasPrice": "0xd497c1",
      "from": "0x993461bbf7e553eb5bd1f5248a72b524c4a3b15d",
      "to": "0xbb46678a1f6c527bd79ecfbf85332b8ae83ceaf1",
      "contractAddress": null
    },
    {
      "status": "0x1",
      "cumulativeGasUsed": "0xa5af73",
      "logs": [
        {
          "address": "0xbb46678a1f6c527bd79ecfbf85332b8ae83ceaf1",
          "topics": [
            "0x8c5be1e5ebec7d5bd14f71427d1e84f3dd0314c0f7b2291e5b200ac8c7c3b925",
            "0x000000000000000000000000474b4e7fd1a143edea6b77aa845f429d443e6410",
            "0x000000000000000000000000fd3884cfa3ec01eca0f615250149a7164efdfeeb"
          ],
          "data": "0x000000000000000000000000000000000000000000034f086f3b33b684000000",
          "blockHash": "0x67da2723faa9f61cf7c6ebf0b7ec74cb27b61f5b2d9de03d357f6ba5b62f9ad6",
          "blockNumber": "0x9ed52a",
          "blockTimestamp": "0x69ad8da0",
          "transactionHash": "0x98d98f4c9d6c124b8c247f6c4e7fb14b065ddaac4b1502f6128975ac9c3abbd8",
          "transactionIndex": "0x76",
          "logIndex": "0x92",
          "removed": false
        }
      ],
      "logsBloom": "0x00000000000000000000000000000000000000000000000000000000800000000000020000000000000000000000000000000000000000000000000000200000000000000000000000000000000000000000000000000000000000000000000000400000000000000000000000000000000000000000000000000000000000000100000008000000000000000000000000000020000000000000000000000000020000000000000000000000000000000000000000000000000100000000000000000000000000000000000000000000000000008000000000000010000000000010000000000000000000000000000000000000000000000000000000000000",
      "type": "0x2",
      "transactionHash": "0x98d98f4c9d6c124b8c247f6c4e7fb14b065ddaac4b1502f6128975ac9c3abbd8",
      "transactionIndex": "0x76",
      "blockHash": "0x67da2723faa9f61cf7c6ebf0b7ec74cb27b61f5b2d9de03d357f6ba5b62f9ad6",
      "blockNumber": "0x9ed52a",
      "gasUsed": "0xb768",
      "effectiveGasPrice": "0xd497c1",
      "from": "0x474b4e7fd1a143edea6b77aa845f429d443e6410",
      "to": "0xbb46678a1f6c527bd79ecfbf85332b8ae83ceaf1",
      "contractAddress": null
    },
    {
      "status": "0x1",
      "cumulativeGasUsed": "0x73b129",
      "logs": [
        {
          "address": "0xbb46678a1f6c527bd79ecfbf85332b8ae83ceaf1",
          "topics": [
            "0xddf252ad1be2c89b69c2b068fc378daa952ba7f163c4a11628f55a4df523b3ef",
            "0x000000000000000000000000474b4e7fd1a143edea6b77aa845f429d443e6410",
            "0x000000000000000000000000fd3884cfa3ec01eca0f615250149a7164efdfeeb"
          ],
          "data": "0x000000000000000000000000000000000000000000034f086f3b33b684000000",
          "blockHash": "0xfecad04bdb144fa5e27def641b4fb82f93f8ae42b3b3b3baf5e883a284eb1208",
          "blockNumber": "0x9ed52b",
          "blockTimestamp": "0x69ad8dac",
          "transactionHash": "0x7f32cfd0319e855bc4f841322977e6f4ee2377c19c76ef023879380672d3f228",
          "transactionIndex": "0x4d",
          "logIndex": "0x5b",
          "removed": false
        },
        {
          "address": "0xfd3884cfa3ec01eca0f615250149a7164efdfeeb",
          "topics": [
            "0x30f6180e248310ab0c789da3026fbba7390872be072cfc5b3c20733f3a980c9e",
            "0x000000000000000000000000474b4e7fd1a143edea6b77aa845f429d443e6410",
            "0x000000000000000000000000bb46678a1f6c527bd79ecfbf85332b8ae83ceaf1"
          ],
          "data": "0x000000000000000000000000000000000000000000034f086f3b33b684000000",
          "blockHash": "0xfecad04bdb144fa5e27def641b4fb82f93f8ae42b3b3b3baf5e883a284eb1208",
          "blockNumber": "0x9ed52b",
          "blockTimestamp": "0x69ad8dac",
          "transactionHash": "0x7f32cfd0319e855bc4f841322977e6f4ee2377c19c76ef023879380672d3f228",
          "transactionIndex": "0x4d",
          "logIndex": "0x5c",
          "removed": false
        }
      ],
      "logsBloom": "0x00000000000000000000000000000000000000000000000000000000800000000000020000000000000000000000000000000000000001000000000000000000000000000000000000000008000000000000000000000000000000000000000000400000000000000000000000000000000000000000000000000010000000000100000008000001000000000000000000000020000000000000000000000000000000000000000000000000000000000000000040000000000100000000000000000002000001000080000000000001000800008000000000000010000000000000000000002000000000000000000000000000000000000000000400000000",
      "type": "0x2",
      "transactionHash": "0x7f32cfd0319e855bc4f841322977e6f4ee2377c19c76ef023879380672d3f228",
      "transactionIndex": "0x4d",
      "blockHash": "0xfecad04bdb144fa5e27def641b4fb82f93f8ae42b3b3b3baf5e883a284eb1208",
      "blockNumber": "0x9ed52b",
      "gasUsed": "0x1eba2",
      "effectiveGasPrice": "0xd497c2",
      "from": "0x474b4e7fd1a143edea6b77aa845f429d443e6410",
      "to": "0xfd3884cfa3ec01eca0f615250149a7164efdfeeb",
      "contractAddress": null
    },
    {
      "status": "0x1",
      "cumulativeGasUsed": "0x5bd61f",
      "logs": [
        {
          "address": "0xbb46678a1f6c527bd79ecfbf85332b8ae83ceaf1",
          "topics": [
            "0x8c5be1e5ebec7d5bd14f71427d1e84f3dd0314c0f7b2291e5b200ac8c7c3b925",
            "0x000000000000000000000000f68d9e0faa751ad61e0ed70852798bf9d9c04bf7",
            "0x000000000000000000000000fd3884cfa3ec01eca0f615250149a7164efdfeeb"
          ],
          "data": "0x000000000000000000000000000000000000000000034f086f3b33b684000000",
          "blockHash": "0xcc2853c41e2265fe9e358572fb16dfccae7eff0a7ca1458276b7fd859924e276",
          "blockNumber": "0x9ed52c",
          "blockTimestamp": "0x69ad8db8",
          "transactionHash": "0x6f520126a09f2fa2ebcaae4847603d65401aca589a6ffa36668dde9df69ee842",
          "transactionIndex": "0x45",
          "logIndex": "0x64",
          "removed": false
        }
      ],
      "logsBloom": "0x00000000000000000000000000000000000000000000000000000000800000800000020000000000000000000000000000000000000000000000000000200000000000000000000000000000000000000000000000000000000000000000000000000000000000000000000000000000000000000000000000000000000000000100000008000000000000000000000000000020000000000000000000000000020000000000000000000000000000000400000000000000000000000000000000000000000000000000000000000001000000008000000000000000000000000010000000000000000000000000000000000000000000000000000000000000",
      "type": "0x2",
      "transactionHash": "0x6f520126a09f2fa2ebcaae4847603d65401aca589a6ffa36668dde9df69ee842",
      "transactionIndex": "0x45",
      "blockHash": "0xcc2853c41e2265fe9e358572fb16dfccae7eff0a7ca1458276b7fd859924e276",
      "blockNumber": "0x9ed52c",
      "gasUsed": "0xb768",
      "effectiveGasPrice": "0xd497c2",
      "from": "0xf68d9e0faa751ad61e0ed70852798bf9d9c04bf7",
      "to": "0xbb46678a1f6c527bd79ecfbf85332b8ae83ceaf1",
      "contractAddress": null
    },
    {
      "status": "0x1",
      "cumulativeGasUsed": "0x78c5a2",
      "logs": [
        {
          "address": "0xbb46678a1f6c527bd79ecfbf85332b8ae83ceaf1",
          "topics": [
            "0xddf252ad1be2c89b69c2b068fc378daa952ba7f163c4a11628f55a4df523b3ef",
            "0x000000000000000000000000f68d9e0faa751ad61e0ed70852798bf9d9c04bf7",
            "0x000000000000000000000000fd3884cfa3ec01eca0f615250149a7164efdfeeb"
          ],
          "data": "0x000000000000000000000000000000000000000000034f086f3b33b684000000",
          "blockHash": "0x5bd291edfdf20af8d066d3bb8ac22f01a522335cc14616b755f47b2bff113354",
          "blockNumber": "0x9ed52d",
          "blockTimestamp": "0x69ad8dc4",
          "transactionHash": "0x8bcbda0ee8e09d44f12c88e54d762e55409f1930ce4f641bc81d7eab712b871f",
          "transactionIndex": "0x3f",
          "logIndex": "0x49",
          "removed": false
        },
        {
          "address": "0xfd3884cfa3ec01eca0f615250149a7164efdfeeb",
          "topics": [
            "0x30f6180e248310ab0c789da3026fbba7390872be072cfc5b3c20733f3a980c9e",
            "0x000000000000000000000000f68d9e0faa751ad61e0ed70852798bf9d9c04bf7",
            "0x000000000000000000000000bb46678a1f6c527bd79ecfbf85332b8ae83ceaf1"
          ],
          "data": "0x000000000000000000000000000000000000000000034f086f3b33b684000000",
          "blockHash": "0x5bd291edfdf20af8d066d3bb8ac22f01a522335cc14616b755f47b2bff113354",
          "blockNumber": "0x9ed52d",
          "blockTimestamp": "0x69ad8dc4",
          "transactionHash": "0x8bcbda0ee8e09d44f12c88e54d762e55409f1930ce4f641bc81d7eab712b871f",
          "transactionIndex": "0x3f",
          "logIndex": "0x4a",
          "removed": false
        }
      ],
      "logsBloom": "0x00000000000000000000000000000000000000000000000000000000800000800000020000000000000000000000000000000000000001000000000000000000000000000000000000000008000000000000000000000000000000000000000000000000000000000000000000000000000000000000000000000010000000000100000008000001000000000000000000000020000000000000000000000000000000000000000000000000000000000400000040000000000000000000000000000002000001000080000000000001000800008000000000000000000000000000000000002000000000000000000000000000000000000000000400000000",
      "type": "0x2",
      "transactionHash": "0x8bcbda0ee8e09d44f12c88e54d762e55409f1930ce4f641bc81d7eab712b871f",
      "transactionIndex": "0x3f",
      "blockHash": "0x5bd291edfdf20af8d066d3bb8ac22f01a522335cc14616b755f47b2bff113354",
      "blockNumber": "0x9ed52d",
      "gasUsed": "0x1a8d6",
      "effectiveGasPrice": "0xd497c2",
      "from": "0xf68d9e0faa751ad61e0ed70852798bf9d9c04bf7",
      "to": "0xfd3884cfa3ec01eca0f615250149a7164efdfeeb",
      "contractAddress": null
    },
    {
      "status": "0x1",
      "cumulativeGasUsed": "0x47b07a",
      "logs": [
        {
          "address": "0xbb46678a1f6c527bd79ecfbf85332b8ae83ceaf1",
          "topics": [
            "0x8c5be1e5ebec7d5bd14f71427d1e84f3dd0314c0f7b2291e5b200ac8c7c3b925",
            "0x00000000000000000000000010db2e70118e5fbeda30391ec957e608c9e4517e",
            "0x000000000000000000000000fd3884cfa3ec01eca0f615250149a7164efdfeeb"
          ],
          "data": "0x000000000000000000000000000000000000000000034f086f3b33b684000000",
          "blockHash": "0x289a997493fffd20e80cb139dea1fe9ed21ff701dac1521b1dfa15f0767f2a9f",
          "blockNumber": "0x9ed52e",
          "blockTimestamp": "0x69ad8dd0",
          "transactionHash": "0x8a06d75e9e7ef33e84db58d978fcebcd7b770817c50100dfadfb36a58fa30121",
          "transactionIndex": "0x46",
          "logIndex": "0x3e",
          "removed": false
        }
      ],
      "logsBloom": "0x00000000000000000000000000000000000000000000000000000000800000000000020000000000000000000000000000000000000000000000000000200000000000000000000000000000000000000000000000000000000000000000000000000000000000000000000000000000000000000000000000000000000000000100000008000000000000000000000000000020000000000000000000000000020000000000000000000000000000000000000000000000000000000000000000000000000000000000000041000000000000008000000000000000000000000010000000000000000080000000000000000000000000000000000000000000",
      "type": "0x2",
      "transactionHash": "0x8a06d75e9e7ef33e84db58d978fcebcd7b770817c50100dfadfb36a58fa30121",
      "transactionIndex": "0x46",
      "blockHash": "0x289a997493fffd20e80cb139dea1fe9ed21ff701dac1521b1dfa15f0767f2a9f",
      "blockNumber": "0x9ed52e",
      "gasUsed": "0xb768",
      "effectiveGasPrice": "0xd497c2",
      "from": "0x10db2e70118e5fbeda30391ec957e608c9e4517e",
      "to": "0xbb46678a1f6c527bd79ecfbf85332b8ae83ceaf1",
      "contractAddress": null
    },
    {
      "status": "0x1",
      "cumulativeGasUsed": "0x3b7efd",
      "logs": [
        {
          "address": "0xbb46678a1f6c527bd79ecfbf85332b8ae83ceaf1",
          "topics": [
            "0xddf252ad1be2c89b69c2b068fc378daa952ba7f163c4a11628f55a4df523b3ef",
            "0x00000000000000000000000010db2e70118e5fbeda30391ec957e608c9e4517e",
            "0x000000000000000000000000fd3884cfa3ec01eca0f615250149a7164efdfeeb"
          ],
          "data": "0x000000000000000000000000000000000000000000034f086f3b33b684000000",
          "blockHash": "0xf771b662044c5e6a768675246bd69b4955751dcbf6cfbffca126c3666d0b6abd",
          "blockNumber": "0x9ed52f",
          "blockTimestamp": "0x69ad8ddc",
          "transactionHash": "0xcc19ce190ea09cb8dd5cfb3b0b9b139bebff91ae71843fe77f26d9dab18e5e9b",
          "transactionIndex": "0x32",
          "logIndex": "0x38",
          "removed": false
        },
        {
          "address": "0xfd3884cfa3ec01eca0f615250149a7164efdfeeb",
          "topics": [
            "0x30f6180e248310ab0c789da3026fbba7390872be072cfc5b3c20733f3a980c9e",
            "0x00000000000000000000000010db2e70118e5fbeda30391ec957e608c9e4517e",
            "0x000000000000000000000000bb46678a1f6c527bd79ecfbf85332b8ae83ceaf1"
          ],
          "data": "0x000000000000000000000000000000000000000000034f086f3b33b684000000",
          "blockHash": "0xf771b662044c5e6a768675246bd69b4955751dcbf6cfbffca126c3666d0b6abd",
          "blockNumber": "0x9ed52f",
          "blockTimestamp": "0x69ad8ddc",
          "transactionHash": "0xcc19ce190ea09cb8dd5cfb3b0b9b139bebff91ae71843fe77f26d9dab18e5e9b",
          "transactionIndex": "0x32",
          "logIndex": "0x39",
          "removed": false
        }
      ],
      "logsBloom": "0x00000000000000000000000000000000000000000000000000000000800000000000020000000000000000000000000000000000000001000000000000000000000000000000000000000008000000000000000000000000000000000000000000000000000000000000000000000000000000000000000000000010000000000100000008000001000000000000000000000020000000000000000000000000000000000000000000000000000000000000000040000000000000000000000000000002000001000080000041000001000800008000000000000000000000000000000000002000000080000000000000000000000000000000000400000000",
      "type": "0x2",
      "transactionHash": "0xcc19ce190ea09cb8dd5cfb3b0b9b139bebff91ae71843fe77f26d9dab18e5e9b",
      "transactionIndex": "0x32",
      "blockHash": "0xf771b662044c5e6a768675246bd69b4955751dcbf6cfbffca126c3666d0b6abd",
      "blockNumber": "0x9ed52f",
      "gasUsed": "0x1a8d6",
      "effectiveGasPrice": "0xd497c2",
      "from": "0x10db2e70118e5fbeda30391ec957e608c9e4517e",
      "to": "0xfd3884cfa3ec01eca0f615250149a7164efdfeeb",
      "contractAddress": null
    }
  ],
  "libraries": [],
  "pending": [],
  "returns": {},
  "timestamp": 1772981725676,
  "chain": 11155111,
  "commit": "0307850"
}