{
  "transactions": [
    {
      "hash": "0xf95d07e252c76f48133e844f73a0404492ded933231526cf0d5df197933773c9",
      "transactionType": "CALL",
      "contractName": null,
      "contractAddress": "0xbb46678a1f6c527bd79ecfbf85332b8ae83ceaf1",
      "function": "mint(address,uint256)",
      "arguments": [
        "0x474B4E7FD1A143eDea6b77aa845F429D443E6410",
        "4000000000000000000000000"
      ],
      "transaction": {
        "from": "0x993461bbf7e553eb5bd1f5248a72b524c4a3b15d",
        "to": "0xbb46678a1f6c527bd79ecfbf85332b8ae83ceaf1",
        "gas": "0xc681",
        "value": "0x0",
        "input": "0x40c10f19000000000000000000000000474b4e7fd1a143edea6b77aa845f429d443e6410000000000000000000000000000000000000000000034f086f3b33b684000000",
        "nonce": "0x476",
        "chainId": "0xaa36a7"
      },
      "additionalContracts": [],
      "isFixedGasLimit": false
    },
    {
      "hash": "0x2deea9306b7fdbc98a25ba6ce0ac98c9ffec3ea5b6694f1627da16dea276ea33",
      "transactionType": "CALL",
      "contractName": null,
      "contractAddress": "0xbb46678a1f6c527bd79ecfbf85332b8ae83ceaf1",
      "function": "mint(address,uint256)",
      "arguments": [
        "0xf68D9e0fAa751AD61e0ED70852798bF9D9C04bF7",
        "4000000000000000000000000"
      ],
      "transaction": {
        "from": "0x993461bbf7e553eb5bd1f5248a72b524c4a3b15d",
        "to": "0xbb46678a1f6c527bd79ecfbf85332b8ae83ceaf1",
        "gas": "0xc681",
        "value": "0x0",
        "input": "0x40c10f19000000000000000000000000f68d9e0faa751ad61e0ed70852798bf9d9c04bf7000000000000000000000000000000000000000000034f086f3b33b684000000",
        "nonce": "0x477",
        "chainId": "0xaa36a7"
      },
      "additionalContracts": [],
      "isFixedGasLimit": false
    },
    {
      "hash": "0x7103df950af9711836a0364bb6e2e093dead8100d2a2f1378ff2d96720c8b21a",
      "transactionType": "CALL",
      "contractName": null,
      "contractAddress": "0xbb46678a1f6c527bd79ecfbf85332b8ae83ceaf1",
      "function": "mint(address,uint256)",
      "arguments": [
        "0x10Db2E70118e5FBeDa30391ec957e608C9E4517E",
        "4000000000000000000000000"
      ],
      "transaction": {
        "from": "0x993461bbf7e553eb5bd1f5248a72b524c4a3b15d",
        "to": "0xbb46678a1f6c527bd79ecfbf85332b8ae83ceaf1",
        "gas": "0xc681",
        "value": "0x0",
        "input": "0x40c10f1900000000000000000000000010db2e70118e5fbeda30391ec957e608c9e4517e000000000000000000000000000000000000000000034f086f3b33b684000000",
        "nonce": "0x478",
        "chainId": "0xaa36a7"
      },
      "additionalContracts": [],
      "isFixedGasLimit": false
    },
    {
      "hash": "0xdbb02f18f962b83f4a54cab5b99caf650c6c62b5dc24f3c646622c5295ffc4c1",
      "transactionType": "CALL",
      "contractName": null,
      "contractAddress": "0xbb46678a1f6c527bd79ecfbf85332b8ae83ceaf1",
      "function": "approve(address,uint256)",
      "arguments": [
        "0xAB31aab4EAbCc02ae300Ae0EAD62180025E69902",
        "4000000000000000000000000"
      ],
      "transaction": {
        "from": "0x474b4e7fd1a143edea6b77aa845f429d443e6410",
        "to": "0xbb46678a1f6c527bd79ecfbf85332b8ae83ceaf1",
        "gas": "0xfd33",
        "value": "0x0",
        "input": "0x095ea7b3000000000000000000000000ab31aab4eabcc02ae300ae0ead62180025e69902000000000000000000000000000000000000000000034f086f3b33b684000000",
        "nonce": "0x4a",
        "chainId": "0xaa36a7"
      },
      "additionalContracts": [],
      "isFixedGasLimit": false
    },
    {
      "hash": "0x00f6d4fa404f76996048850c9da5cee71ea63a3b0d04b1dde787df39acc3babf",
      "transactionType": "CALL",
      "contractName": "MarginVault",
      "contractAddress": "0xab31aab4eabcc02ae300ae0ead62180025e69902",
      "function": "depositMargin(bytes32,address,uint256)",
      "arguments": [
        "0x000000000000000000000000474b4e7fd1a143edea6b77aa845f429d443e6410",
        "0xbb46678a1F6C527bD79eCFBF85332B8Ae83ceaf1",
        "4000000000000000000000000"
      ],
      "transaction": {
        "from": "0x474b4e7fd1a143edea6b77aa845f429d443e6410",
        "to": "0xab31aab4eabcc02ae300ae0ead62180025e69902",
        "gas": "0x2cf03",
        "value": "0x0",
        "input": "0x6812d315000000000000000000000000474b4e7fd1a143edea6b77aa845f429d443e6410000000000000000000000000bb46678a1f6c527bd79ecfbf85332b8ae83ceaf1000000000000000000000000000000000000000000034f086f3b33b684000000",
        "nonce": "0x4b",
        "chainId": "0xaa36a7"
      },
      "additionalContracts": [],
      "isFixedGasLimit": false
    },
    {
      "hash": "0xe03ba0c37e53a5dcf4c846ae07107616bbc3b7c01391e0cbe8c15c12e2197e6e",
      "transactionType": "CALL",
      "contractName": null,
      "contractAddress": "0xbb46678a1f6c527bd79ecfbf85332b8ae83ceaf1",
      "function": "approve(address,uint256)",
      "arguments": [
        "0xAB31aab4EAbCc02ae300Ae0EAD62180025E69902",
        "4000000000000000000000000"
      ],
      "transaction": {
        "from": "0xf68d9e0faa751ad61e0ed70852798bf9d9c04bf7",
        "to": "0xbb46678a1f6c527bd79ecfbf85332b8ae83ceaf1",
        "gas": "0xfd33",
        "value": "0x0",
        "input": "0x095ea7b3000000000000000000000000ab31aab4eabcc02ae300ae0ead62180025e69902000000000000000000000000000000000000000000034f086f3b33b684000000",
        "nonce": "0x49",
        "chainId": "0xaa36a7"
      },
      "additionalContracts": [],
      "isFixedGasLimit": false
    },
    {
      "hash": "0x858943a26a4b550e5f9bb880af96501b0fb37ba6e3264de476bc97f33aa168aa",
      "transactionType": "CALL",
      "contractName": "MarginVault",
      "contractAddress": "0xab31aab4eabcc02ae300ae0ead62180025e69902",
      "function": "depositMargin(bytes32,address,uint256)",
      "arguments": [
        "0x000000000000000000000000f68d9e0faa751ad61e0ed70852798bf9d9c04bf7",
        "0xbb46678a1F6C527bD79eCFBF85332B8Ae83ceaf1",
        "4000000000000000000000000"
      ],
      "transaction": {
        "from": "0xf68d9e0faa751ad61e0ed70852798bf9d9c04bf7",
        "to": "0xab31aab4eabcc02ae300ae0ead62180025e69902",
        "gas": "0x24acd",
        "value": "0x0",
        "input": "0x6812d315000000000000000000000000f68d9e0faa751ad61e0ed70852798bf9d9c04bf7000000000000000000000000bb46678a1f6c527bd79ecfbf85332b8ae83ceaf1000000000000000000000000000000000000000000034f086f3b33b684000000",
        "nonce": "0x4a",
        "chainId": "0xaa36a7"
      },
      "additionalContracts": [],
      "isFixedGasLimit": false
    },
    {
      "hash": "0x12d6c3539bf324c697d091f9532d3605868da051d40e27878ce90d96ac8bf71d",
      "transactionType": "CALL",
      "contractName": null,
      "contractAddress": "0xbb46678a1f6c527bd79ecfbf85332b8ae83ceaf1",
      "function": "approve(address,uint256)",
      "arguments": [
        "0xAB31aab4EAbCc02ae300Ae0EAD62180025E69902",
        "4000000000000000000000000"
      ],
      "transaction": {
        "from": "0x10db2e70118e5fbeda30391ec957e608c9e4517e",
        "to": "0xbb46678a1f6c527bd79ecfbf85332b8ae83ceaf1",
        "gas": "0xfd33",
        "value": "0x0",
        "input": "0x095ea7b3000000000000000000000000ab31aab4eabcc02ae300ae0ead62180025e69902000000000000000000000000000000000000000000034f086f3b33b684000000",
        "nonce": "0x17",
        "chainId": "0xaa36a7"
      },
      "additionalContracts": [],
      "isFixedGasLimit": false
    },
    {
      "hash": "0xa45c17bcf881698a28ab98d1d934c72babe60192e3351b74dd0e6a4b1ca5038a",
      "transactionType": "CALL",
      "contractName": "MarginVault",
      "contractAddress": "0xab31aab4eabcc02ae300ae0ead62180025e69902",
      "function": "depositMargin(bytes32,address,uint256)",
      "arguments": [
        "0x00000000000000000000000010db2e70118e5fbeda30391ec957e608c9e4517e",
        "0xbb46678a1F6C527bD79eCFBF85332B8Ae83ceaf1",
        "4000000000000000000000000"
      ],
      "transaction": {
        "from": "0x10db2e70118e5fbeda30391ec957e608c9e4517e",
        "to": "0xab31aab4eabcc02ae300ae0ead62180025e69902",
        "gas": "0x24acd",
        "value": "0x0",
        "input": "0x6812d31500000000000000000000000010db2e70118e5fbeda30391ec957e608c9e4517e000000000000000000000000bb46678a1f6c527bd79ecfbf85332b8ae83ceaf1000000000000000000000000000000000000000000034f086f3b33b684000000",
        "nonce": "0x18",
        "chainId": "0xaa36a7"
      },
      "additionalContracts": [],
      "isFixedGasLimit": false
    }
  ],
  "receipts": [
    {
      "status": "0x1",
      "cumulativeGasUsed": "0x2543913",
      "logs": [
        {
          "address": "0xbb46678a1f6c527bd79ecfbf85332b8ae83ceaf1",
          "topics": [
            "0xddf252ad1be2c89b69c2b068fc378daa952ba7f163c4a11628f55a4df523b3ef",
            "0x0000000000000000000000000000000000000000000000000000000000000000",
            "0x000000000000000000000000474b4e7fd1a143edea6b77aa845f429d443e6410"
          ],
          "data": "0x000000000000000000000000000000000000000000034f086f3b33b684000000",
          "blockHash": "0x2d714740425aba5a215df78bc408135b0afba7f41aed3171ebfd8ea46e83ed0e",
          "blockNumber": "0x9e9bd8",
          "blockTimestamp": "0x69aa74d4",
          "transactionHash": "0xf95d07e252c76f48133e844f73a0404492ded933231526cf0d5df197933773c9",
          "transactionIndex": "0x94",
          "logIndex": "0x1ce",
          "removed": false
        }
      ],
      "logsBloom": "0x00000000000000000000000000000000000000000000000000000000000000000000000000000000000000000000000000000000000000000000000000000000000000000000000000000008000000000000000000000000000000000000000000400000020000000000000000000800000000000000000000000010000000000100000008000000000000000000000000000000000000000000000000000000000000000000000000000000000000000000000000000000000100000000000000000002000000000000000000000000000000008000000000000010000020000000000000000000000000000000000000000000000000000000000000000000",
      "type": "0x2",
      "transactionHash": "0xf95d07e252c76f48133e844f73a0404492ded933231526cf0d5df197933773c9",
      "transactionIndex": "0x94",
      "blockHash": "0x2d714740425aba5a215df78bc408135b0afba7f41aed3171ebfd8ea46e83ed0e",
      "blockNumber": "0x9e9bd8",
      "gasUsed": "0x87bb",
      "effectiveGasPrice": "0x10218c",
      "from": "0x993461bbf7e553eb5bd1f5248a72b524c4a3b15d",
      "to": "0xbb46678a1f6c527bd79ecfbf85332b8ae83ceaf1",
      "contractAddress": null
    },
    {
      "status": "0x1",
      "cumulativeGasUsed": "0x5f5d9f",
      "logs": [
        {
          "address": "0xbb46678a1f6c527bd79ecfbf85332b8ae83ceaf1",
          "topics": [
            "0xddf252ad1be2c89b69c2b068fc378daa952ba7f163c4a11628f55a4df523b3ef",
            "0x0000000000000000000000000000000000000000000000000000000000000000",
            "0x000000000000000000000000f68d9e0faa751ad61e0ed70852798bf9d9c04bf7"
          ],
          "data": "0x000000000000000000000000000000000000000000034f086f3b33b684000000",
          "blockHash": "0x923240509ffc0469f0bf732021c59e2114cd8c00eee2220e1b3964c9f96f56a5",
          "blockNumber": "0x9e9bd9",
          "blockTimestamp": "0x69aa74e0",
          "transactionHash": "0x2deea9306b7fdbc98a25ba6ce0ac98c9ffec3ea5b6694f1627da16dea276ea33",
          "transactionIndex": "0x49",
          "logIndex": "0x5d",
          "removed": false
        }
      ],
      "logsBloom": "0x00000000000000000000000000000000000000000000000000000000000000800000000000000000000000000000000000000000000000000000000000000000000000000000000000000008000000000000000000000000000000000000000000000000020000000000000000000800000000000000000000000010000000000100000008000000000000000000000000000000000000000000000000000000000000000000000000000000000000000400000000000000000000000000000000000002000000000000000000000001000000008000000000000000000020000000000000000000000000000000000000000000000000000000000000000000",
      "type": "0x2",
      "transactionHash": "0x2deea9306b7fdbc98a25ba6ce0ac98c9ffec3ea5b6694f1627da16dea276ea33",
      "transactionIndex": "0x49",
      "blockHash": "0x923240509ffc0469f0bf732021c59e2114cd8c00eee2220e1b3964c9f96f56a5",
      "blockNumber": "0x9e9bd9",
      "gasUsed": "0x87bb",
      "effectiveGasPrice": "0x1029b4",
      "from": "0x993461bbf7e553eb5bd1f5248a72b524c4a3b15d",
      "to": "0xbb46678a1f6c527bd79ecfbf85332b8ae83ceaf1",
      "contractAddress": null
    },
    {
      "status": "0x1",
      "cumulativeGasUsed": "0x880323",
      "logs": [
        {
          "address": "0xbb46678a1f6c527bd79ecfbf85332b8ae83ceaf1",
          "topics": [
            "0xddf252ad1be2c89b69c2b068fc378daa952ba7f163c4a11628f55a4df523b3ef",
            "0x0000000000000000000000000000000000000000000000000000000000000000",
            "0x00000000000000000000000010db2e70118e5fbeda30391ec957e608c9e4517e"
          ],
          "data": "0x000000000000000000000000000000000000000000034f086f3b33b684000000",
          "blockHash": "0x8e98d8c1f395c50181fa2ea01168049fe8181f910d05620ef19a8041512487cc",
          "blockNumber": "0x9e9bda",
          "blockTimestamp": "0x69aa74ec",
          "transactionHash": "0x7103df950af9711836a0364bb6e2e093dead8100d2a2f1378ff2d96720c8b21a",
          "transactionIndex": "0x4e",
          "logIndex": "0x91",
          "removed": false
        }
      ],
      "logsBloom": "0x00000000000000000000000000000000000000000000000000000000000000000000000000000000000000000000000000000000000000000000000000000000000000000000000000000008000000000000000000000000000000000000000000000000020000000000000000000800000000000000000000000010000000000100000008000000000000000000000000000000000000000000000000000000000000000000000000000000000000000000000000000000000000000000000000000002000000000000000041000000000000008000000000000000000020000000000000000000000080000000000000000000000000000000000000000000",
      "type": "0x2",
      "transactionHash": "0x7103df950af9711836a0364bb6e2e093dead8100d2a2f1378ff2d96720c8b21a",
      "transactionIndex": "0x4e",
      "blockHash": "0x8e98d8c1f395c50181fa2ea01168049fe8181f910d05620ef19a8041512487cc",
      "blockNumber": "0x9e9bda",
      "gasUsed": "0x87bb",
      "effectiveGasPrice": "0x102d48",
      "from": "0x993461bbf7e553eb5bd1f5248a72b524c4a3b15d",
      "to": "0xbb46678a1f6c527bd79ecfbf85332b8ae83ceaf1",
      "contractAddress": null
    },
    {
      "status": "0x1",
      "cumulativeGasUsed": "0x5d8b5d",
      "logs": [
        {
          "address": "0xbb46678a1f6c527bd79ecfbf85332b8ae83ceaf1",
          "topics": [
            "0x8c5be1e5ebec7d5bd14f71427d1e84f3dd0314c0f7b2291e5b200ac8c7c3b925",
            "0x000000000000000000000000474b4e7fd1a143edea6b77aa845f429d443e6410",
            "0x000000000000000000000000ab31aab4eabcc02ae300ae0ead62180025e69902"
          ],
          "data": "0x000000000000000000000000000000000000000000034f086f3b33b684000000",
          "blockHash": "0x0026536d3090175484cb6baa75e5f69e1f48f149a23f9017f9d1805648eb3916",
          "blockNumber": "0x9e9bdb",
          "blockTimestamp": "0x69aa74f8",
          "transactionHash": "0xdbb02f18f962b83f4a54cab5b99caf650c6c62b5dc24f3c646622c5295ffc4c1",
          "transactionIndex": "0x44",
          "logIndex": "0x57",
          "removed": false
        }
      ],
      "logsBloom": "0x00000000000000000000000000000000000000000000000000000000000100000000000000000000000000000000000000000000000000000000000000200000000000000000000000000000000000000000000000000000000000000000000000400000000000000000000000000000000000000000000000000000000000000100000008000000000000000000000000000000000000000000000000000400020000000000000000000000000000000000000000000000000100000000000000000000000000000000000000000000000000008000000000000010000000000010000000000000000000000000000000000000040000000000000000000000",
      "type": "0x2",
      "transactionHash": "0xdbb02f18f962b83f4a54cab5b99caf650c6c62b5dc24f3c646622c5295ffc4c1",
      "transactionIndex": "0x44",
      "blockHash": "0x0026536d3090175484cb6baa75e5f69e1f48f149a23f9017f9d1805648eb3916",
      "blockNumber": "0x9e9bdb",
      "gasUsed": "0xb750",
      "effectiveGasPrice": "0x1036b8",
      "from": "0x474b4e7fd1a143edea6b77aa845f429d443e6410",
      "to": "0xbb46678a1f6c527bd79ecfbf85332b8ae83ceaf1",
      "contractAddress": null
    },
    {
      "status": "0x1",
      "cumulativeGasUsed": "0x222cab4",
      "logs": [
        {
          "address": "0xbb46678a1f6c527bd79ecfbf85332b8ae83ceaf1",
          "topics": [
            "0xddf252ad1be2c89b69c2b068fc378daa952ba7f163c4a11628f55a4df523b3ef",
            "0x000000000000000000000000474b4e7fd1a143edea6b77aa845f429d443e6410",
            "0x000000000000000000000000ab31aab4eabcc02ae300ae0ead62180025e69902"
          ],
          "data": "0x000000000000000000000000000000000000000000034f086f3b33b684000000",
          "blockHash": "0xcea766eaf63cd527295ecf458cf3e5dd6dee65133f89456819384387f42ade8c",
          "blockNumber": "0x9e9bdc",
          "blockTimestamp": "0x69aa7504",
          "transactionHash": "0x00f6d4fa404f76996048850c9da5cee71ea63a3b0d04b1dde787df39acc3babf",
          "transactionIndex": "0x7e",
          "logIndex": "0x1c4",
          "removed": false
        },
        {
          "address": "0xab31aab4eabcc02ae300ae0ead62180025e69902",
          "topics": [
            "0x30f6180e248310ab0c789da3026fbba7390872be072cfc5b3c20733f3a980c9e",
            "0x000000000000000000000000474b4e7fd1a143edea6b77aa845f429d443e6410",
            "0x000000000000000000000000bb46678a1f6c527bd79ecfbf85332b8ae83ceaf1"
          ],
          "data": "0x000000000000000000000000000000000000000000034f086f3b33b684000000",
          "blockHash": "0xcea766eaf63cd527295ecf458cf3e5dd6dee65133f89456819384387f42ade8c",
          "blockNumber": "0x9e9bdc",
          "blockTimestamp": "0x69aa7504",
          "transactionHash": "0x00f6d4fa404f76996048850c9da5cee71ea63a3b0d04b1dde787df39acc3babf",
          "transactionIndex": "0x7e",
          "logIndex": "0x1c5",
          "removed": false
        }
      ],
      "logsBloom": "0x00000000000000000000000000000100000000000000000000000000000100000000000000000000000000000000000000000000000000000000000000000000000000000000000000000008000000000000000000000000000000000000000000400000000000000000000000000000000000000000000000000010000000000100000008000001000000000000000000000000000000000000000000000400000000000000000000000000000000400000000040000000000100000000000000000002000001000000000000000001000800008000200000000010000000000000000000000000000000000000000000000000040000000000000400000000",
      "type": "0x2",
      "transactionHash": "0x00f6d4fa404f76996048850c9da5cee71ea63a3b0d04b1dde787df39acc3babf",
      "transactionIndex": "0x7e",
      "blockHash": "0xcea766eaf63cd527295ecf458cf3e5dd6dee65133f89456819384387f42ade8c",
      "blockNumber": "0x9e9bdc",
      "gasUsed": "0x1eba2",
      "effectiveGasPrice": "0x103d78",
      "from": "0x474b4e7fd1a143edea6b77aa845f429d443e6410",
      "to": "0xab31aab4eabcc02ae300ae0ead62180025e69902",
      "contractAddress": null
    },
    {
      "status": "0x1",
      "cumulativeGasUsed": "0x261c189",
      "logs": [
        {
          "address": "0xbb46678a1f6c527bd79ecfbf85332b8ae83ceaf1",
          "topics": [
            "0x8c5be1e5ebec7d5bd14f71427d1e84f3dd0314c0f7b2291e5b200ac8c7c3b925",
            "0x000000000000000000000000f68d9e0faa751ad61e0ed70852798bf9d9c04bf7",
            "0x000000000000000000000000ab31aab4eabcc02ae300ae0ead62180025e69902"
          ],
          "data": "0x000000000000000000000000000000000000000000034f086f3b33b684000000",
          "blockHash": "0xb71b56af24bf959dcdfdbab3f250d7c3b9886c2441d8bfa49292b7aed362b05c",
          "blockNumber": "0x9e9bdd",
          "blockTimestamp": "0x69aa7510",
          "transactionHash": "0xe03ba0c37e53a5dcf4c846ae07107616bbc3b7c01391e0cbe8c15c12e2197e6e",
          "transactionIndex": "0x9c",
          "logIndex": "0x1ff",
          "removed": false
        }
      ],
      "logsBloom": "0x00000000000000000000000000000000000000000000000000000000000100800000000000000000000000000000000000000000000000000000000000200000000000000000000000000000000000000000000000000000000000000000000000000000000000000000000000000000000000000000000000000000000000000100000008000000000000000000000000000000000000000000000000000400020000000000000000000000000000000400000000000000000000000000000000000000000000000000000000000001000000008000000000000000000000000010000000000000000000000000000000000000040000000000000000000000",
      "type": "0x2",
      "transactionHash": "0xe03ba0c37e53a5dcf4c846ae07107616bbc3b7c01391e0cbe8c15c12e2197e6e",
      "transactionIndex": "0x9c",
      "blockHash": "0xb71b56af24bf959dcdfdbab3f250d7c3b9886c2441d8bfa49292b7aed362b05c",
      "blockNumber": "0x9e9bdd",
      "gasUsed": "0xb750",
      "effectiveGasPrice": "0x1045b0",
      "from": "0xf68d9e0faa751ad61e0ed70852798bf9d9c04bf7",
      "to": "0xbb46678a1f6c527bd79ecfbf85332b8ae83ceaf1",
      "contractAddress": null
    },
    {
      "status": "0x1",
      "cumulativeGasUsed": "0xffedfe",
      "logs": [
        {
          "address": "0xbb46678a1f6c527bd79ecfbf85332b8ae83ceaf1",
          "topics": [
            "0xddf252ad1be2c89b69c2b068fc378daa952ba7f163c4a11628f55a4df523b3ef",
            "0x000000000000000000000000f68d9e0faa751ad61e0ed70852798bf9d9c04bf7",
            "0x000000000000000000000000ab31aab4eabcc02ae300ae0ead62180025e69902"
          ],
          "data": "0x000000000000000000000000000000000000000000034f086f3b33b684000000",
          "blockHash": "0xdeae5a12d815f54399c1abb5b6df381e20de043d867e5c52285e10a37f901082",
          "blockNumber": "0x9e9be0",
          "blockTimestamp": "0x69aa754c",
          "transactionHash": "0x858943a26a4b550e5f9bb880af96501b0fb37ba6e3264de476bc97f33aa168aa",
          "transactionIndex": "0x94",
          "logIndex": "0x140",
          "removed": false
        },
        {
          "address": "0xab31aab4eabcc02ae300ae0ead62180025e69902",
          "topics": [
            "0x30f6180e248310ab0c789da3026fbba7390872be072cfc5b3c20733f3a980c9e",
            "0x000000000000000000000000f68d9e0faa751ad61e0ed70852798bf9d9c04bf7",
            "0x000000000000000000000000bb46678a1f6c527bd79ecfbf85332b8ae83ceaf1"
          ],
          "data": "0x000000000000000000000000000000000000000000034f086f3b33b684000000",
          "blockHash": "0xdeae5a12d815f54399c1abb5b6df381e20de043d867e5c52285e10a37f901082",
          "blockNumber": "0x9e9be0",
          "blockTimestamp": "0x69aa754c",
          "transactionHash": "0x858943a26a4b550e5f9bb880af96501b0fb37ba6e3264de476bc97f33aa168aa",
          "transactionIndex": "0x94",
          "logIndex": "0x141",
          "removed": false
        }
      ],
      "logsBloom": "0x00000000000000000000000000000100000000000000000000000000000100800000000000000000000000000000000000000000000000000000000000000000000000000000000000000008000000000000000000000000000000000000000000000000000000000000000000000000000000000000000000000010000000000100000008000001000000000000000000000000000000000000000000000400000000000000000000000000000000400400000040000000000000000000000000000002000001000000000000000001000800008000200000000000000000000000000000000000000000000000000000000000040000000000000400000000",
      "type": "0x2",
      "transactionHash": "0x858943a26a4b550e5f9bb880af96501b0fb37ba6e3264de476bc97f33aa168aa",
      "transactionIndex": "0x94",
      "blockHash": "0xdeae5a12d815f54399c1abb5b6df381e20de043d867e5c52285e10a37f901082",
      "blockNumber": "0x9e9be0",
      "gasUsed": "0x1a8d6",
      "effectiveGasPrice": "0x106594",
      "from": "0xf68d9e0faa751ad61e0ed70852798bf9d9c04bf7",
      "to": "0xab31aab4eabcc02ae300ae0ead62180025e69902",
      "contractAddress": null
    },
    {
      "status": "0x1",
      "cumulativeGasUsed": "0x261225a",
      "logs": [
        {
          "address": "0xbb46678a1f6c527bd79ecfbf85332b8ae83ceaf1",
          "topics": [
            "0x8c5be1e5ebec7d5bd14f71427d1e84f3dd0314c0f7b2291e5b200ac8c7c3b925",
            "0x00000000000000000000000010db2e70118e5fbeda30391ec957e608c9e4517e",
            "0x000000000000000000000000ab31aab4eabcc02ae300ae0ead62180025e69902"
          ],
          "data": "0x000000000000000000000000000000000000000000034f086f3b33b684000000",
          "blockHash": "0xd575520f21cf9ad09804139e5d2b9154db4d14fc979ff95c9258c20aa370bdca",
          "blockNumber": "0x9e9be1",
          "blockTimestamp": "0x69aa7558",
          "transactionHash": "0x12d6c3539bf324c697d091f9532d3605868da051d40e27878ce90d96ac8bf71d",
          "transactionIndex": "0xa2",
          "logIndex": "0x21f",
          "removed": false
        }
      ],
      "logsBloom": "0x00000000000000000000000000000000000000000000000000000000000100000000000000000000000000000000000000000000000000000000000000200000000000000000000000000000000000000000000000000000000000000000000000000000000000000000000000000000000000000000000000000000000000000100000008000000000000000000000000000000000000000000000000000400020000000000000000000000000000000000000000000000000000000000000000000000000000000000000041000000000000008000000000000000000000000010000000000000000080000000000000000000040000000000000000000000",
      "type": "0x2",
      "transactionHash": "0x12d6c3539bf324c697d091f9532d3605868da051d40e27878ce90d96ac8bf71d",
      "transactionIndex": "0xa2",
      "blockHash": "0xd575520f21cf9ad09804139e5d2b9154db4d14fc979ff95c9258c20aa370bdca",
      "blockNumber": "0x9e9be1",
      "gasUsed": "0xb750",
      "effectiveGasPrice": "0x107b9d",
      "from": "0x10db2e70118e5fbeda30391ec957e608c9e4517e",
      "to": "0xbb46678a1f6c527bd79ecfbf85332b8ae83ceaf1",
      "contractAddress": null
    },
    {
      "status": "0x1",
      "cumulativeGasUsed": "0x601bb0",
      "logs": [
        {
          "address": "0xbb46678a1f6c527bd79ecfbf85332b8ae83ceaf1",
          "topics": [
            "0xddf252ad1be2c89b69c2b068fc378daa952ba7f163c4a11628f55a4df523b3ef",
            "0x00000000000000000000000010db2e70118e5fbeda30391ec957e608c9e4517e",
            "0x000000000000000000000000ab31aab4eabcc02ae300ae0ead62180025e69902"
          ],
          "data": "0x000000000000000000000000000000000000000000034f086f3b33b684000000",
          "blockHash": "0xdfe4d8870f87f06e81f5b91730f71ac8e686288e85176e23d6ee4d92b3ca2604",
          "blockNumber": "0x9e9be2",
          "blockTimestamp": "0x69aa7564",
          "transactionHash": "0xa45c17bcf881698a28ab98d1d934c72babe60192e3351b74dd0e6a4b1ca5038a",
          "transactionIndex": "0x3b",
          "logIndex": "0x60",
          "removed": false
        },
        {
          "address": "0xab31aab4eabcc02ae300ae0ead62180025e69902",
          "topics": [
            "0x30f6180e248310ab0c789da3026fbba7390872be072cfc5b3c20733f3a980c9e",
            "0x00000000000000000000000010db2e70118e5fbeda30391ec957e608c9e4517e",
            "0x000000000000000000000000bb46678a1f6c527bd79ecfbf85332b8ae83ceaf1"
          ],
          "data": "0x000000000000000000000000000000000000000000034f086f3b33b684000000",
          "blockHash": "0xdfe4d8870f87f06e81f5b91730f71ac8e686288e85176e23d6ee4d92b3ca2604",
          "blockNumber": "0x9e9be2",
          "blockTimestamp": "0x69aa7564",
          "transactionHash": "0xa45c17bcf881698a28ab98d1d934c72babe60192e3351b74dd0e6a4b1ca5038a",
          "transactionIndex": "0x3b",
          "logIndex": "0x61",
          "removed": false
        }
      ],
      "logsBloom": "0x00000000000000000000000000000100000000000000000000000000000100000000000000000000000000000000000000000000000000000000000000000000000000000000000000000008000000000000000000000000000000000000000000000000000000000000000000000000000000000000000000000010000000000100000008000001000000000000000000000000000000000000000000000400000000000000000000000000000000400000000040000000000000000000000000000002000001000000000041000001000800008000200000000000000000000000000000000000000080000000000000000000040000000000000400000000",
      "type": "0x2",
      "transactionHash": "0xa45c17bcf881698a28ab98d1d934c72babe60192e3351b74dd0e6a4b1ca5038a",
      "transactionIndex": "0x3b",
      "blockHash": "0xdfe4d8870f87f06e81f5b91730f71ac8e686288e85176e23d6ee4d92b3ca2604",
      "blockNumber": "0x9e9be2",
      "gasUsed": "0x1a8d6",
      "effectiveGasPrice": "0x10884b",
      "from": "0x10db2e70118e5fbeda30391ec957e608c9e4517e",
      "to": "0xab31aab4eabcc02ae300ae0ead62180025e69902",
      "contractAddress": null
    }
  ],
  "libraries": [],
  "pending": [],
  "returns": {},
  "timestamp": 1772778853642,
  "chain": 11155111,
  "commit": "d835087"
}