{
  "transactions": [
    {
      "hash": "0xce6d6aa19a9be0f9dcf33b6353bb4cb25c8a38d9467102d1baac3bb17f2c3f72",
      "transactionType": "CALL",
      "contractName": null,
      "contractAddress": "0xbb46678a1f6c527bd79ecfbf85332b8ae83ceaf1",
      "function": "mint(address,uint256)",
      "arguments": [
        "0x474B4E7FD1A143eDea6b77aa845F429D443E6410",
        "4000000000000000000000000"
      ],
      "transaction": {
        "from": "0x993461bbf7e553eb5bd1f5248a72b524c4a3b15d",
        "to": "0xbb46678a1f6c527bd79ecfbf85332b8ae83ceaf1",
        "gas": "0xc681",
        "value": "0x0",
        "input": "0x40c10f19000000000000000000000000474b4e7fd1a143edea6b77aa845f429d443e6410000000000000000000000000000000000000000000034f086f3b33b684000000",
        "nonce": "0x45d",
        "chainId": "0xaa36a7"
      },
      "additionalContracts": [],
      "isFixedGasLimit": false
    },
    {
      "hash": "0x40481d5f628d586f9d9543ca6cf4fb38325ee2f3b8b168af421296269b55eb36",
      "transactionType": "CALL",
      "contractName": null,
      "contractAddress": "0xbb46678a1f6c527bd79ecfbf85332b8ae83ceaf1",
      "function": "mint(address,uint256)",
      "arguments": [
        "0xf68D9e0fAa751AD61e0ED70852798bF9D9C04bF7",
        "4000000000000000000000000"
      ],
      "transaction": {
        "from": "0x993461bbf7e553eb5bd1f5248a72b524c4a3b15d",
        "to": "0xbb46678a1f6c527bd79ecfbf85332b8ae83ceaf1",
        "gas": "0xc681",
        "value": "0x0",
        "input": "0x40c10f19000000000000000000000000f68d9e0faa751ad61e0ed70852798bf9d9c04bf7000000000000000000000000000000000000000000034f086f3b33b684000000",
        "nonce": "0x45e",
        "chainId": "0xaa36a7"
      },
      "additionalContracts": [],
      "isFixedGasLimit": false
    },
    {
      "hash": "0xce9c7a88e6d8eac8414690b945223117506f8989d8e10390e08b198dda0f1bfc",
      "transactionType": "CALL",
      "contractName": null,
      "contractAddress": "0xbb46678a1f6c527bd79ecfbf85332b8ae83ceaf1",
      "function": "mint(address,uint256)",
      "arguments": [
        "0x10Db2E70118e5FBeDa30391ec957e608C9E4517E",
        "4000000000000000000000000"
      ],
      "transaction": {
        "from": "0x993461bbf7e553eb5bd1f5248a72b524c4a3b15d",
        "to": "0xbb46678a1f6c527bd79ecfbf85332b8ae83ceaf1",
        "gas": "0xc681",
        "value": "0x0",
        "input": "0x40c10f1900000000000000000000000010db2e70118e5fbeda30391ec957e608c9e4517e000000000000000000000000000000000000000000034f086f3b33b684000000",
        "nonce": "0x45f",
        "chainId": "0xaa36a7"
      },
      "additionalContracts": [],
      "isFixedGasLimit": false
    },
    {
      "hash": "0x0b36054988ecc2d125e0f831bdac94d8800f3562aa34f0bcd5695a0fe8d6436a",
      "transactionType": "CALL",
      "contractName": null,
      "contractAddress": "0xbb46678a1f6c527bd79ecfbf85332b8ae83ceaf1",
      "function": "approve(address,uint256)",
      "arguments": [
        "0x16b4e23f3287Eec6966E11446019AF79877ED4ef",
        "4000000000000000000000000"
      ],
      "transaction": {
        "from": "0x474b4e7fd1a143edea6b77aa845f429d443e6410",
        "to": "0xbb46678a1f6c527bd79ecfbf85332b8ae83ceaf1",
        "gas": "0xfd53",
        "value": "0x0",
        "input": "0x095ea7b300000000000000000000000016b4e23f3287eec6966e11446019af79877ed4ef000000000000000000000000000000000000000000034f086f3b33b684000000",
        "nonce": "0x47",
        "chainId": "0xaa36a7"
      },
      "additionalContracts": [],
      "isFixedGasLimit": false
    },
    {
      "hash": "0x68a2dbc0483375ae39dea9a74de646ac33539470f53660907bd654a8ac02b9e0",
      "transactionType": "CALL",
      "contractName": "MarginVault",
      "contractAddress": "0x16b4e23f3287eec6966e11446019af79877ed4ef",
      "function": "depositMargin(bytes32,address,uint256)",
      "arguments": [
        "0x000000000000000000000000474b4e7fd1a143edea6b77aa845f429d443e6410",
        "0xbb46678a1F6C527bD79eCFBF85332B8Ae83ceaf1",
        "4000000000000000000000000"
      ],
      "transaction": {
        "from": "0x474b4e7fd1a143edea6b77aa845f429d443e6410",
        "to": "0x16b4e23f3287eec6966e11446019af79877ed4ef",
        "gas": "0x2cf03",
        "value": "0x0",
        "input": "0x6812d315000000000000000000000000474b4e7fd1a143edea6b77aa845f429d443e6410000000000000000000000000bb46678a1f6c527bd79ecfbf85332b8ae83ceaf1000000000000000000000000000000000000000000034f086f3b33b684000000",
        "nonce": "0x48",
        "chainId": "0xaa36a7"
      },
      "additionalContracts": [],
      "isFixedGasLimit": false
    },
    {
      "hash": "0x7cf7c91184c3582b3e5c15d8f5b92dc87bd7bfcbf28ad2d089a22defd37b8066",
      "transactionType": "CALL",
      "contractName": null,
      "contractAddress": "0xbb46678a1f6c527bd79ecfbf85332b8ae83ceaf1",
      "function": "approve(address,uint256)",
      "arguments": [
        "0x16b4e23f3287Eec6966E11446019AF79877ED4ef",
        "4000000000000000000000000"
      ],
      "transaction": {
        "from": "0xf68d9e0faa751ad61e0ed70852798bf9d9c04bf7",
        "to": "0xbb46678a1f6c527bd79ecfbf85332b8ae83ceaf1",
        "gas": "0xfd53",
        "value": "0x0",
        "input": "0x095ea7b300000000000000000000000016b4e23f3287eec6966e11446019af79877ed4ef000000000000000000000000000000000000000000034f086f3b33b684000000",
        "nonce": "0x46",
        "chainId": "0xaa36a7"
      },
      "additionalContracts": [],
      "isFixedGasLimit": false
    },
    {
      "hash": "0xc349a953b44682e889a44f39b62e44d37449c51aadc83a5e00f5ab1b7e7cb963",
      "transactionType": "CALL",
      "contractName": "MarginVault",
      "contractAddress": "0x16b4e23f3287eec6966e11446019af79877ed4ef",
      "function": "depositMargin(bytes32,address,uint256)",
      "arguments": [
        "0x000000000000000000000000f68d9e0faa751ad61e0ed70852798bf9d9c04bf7",
        "0xbb46678a1F6C527bD79eCFBF85332B8Ae83ceaf1",
        "4000000000000000000000000"
      ],
      "transaction": {
        "from": "0xf68d9e0faa751ad61e0ed70852798bf9d9c04bf7",
        "to": "0x16b4e23f3287eec6966e11446019af79877ed4ef",
        "gas": "0x24acd",
        "value": "0x0",
        "input": "0x6812d315000000000000000000000000f68d9e0faa751ad61e0ed70852798bf9d9c04bf7000000000000000000000000bb46678a1f6c527bd79ecfbf85332b8ae83ceaf1000000000000000000000000000000000000000000034f086f3b33b684000000",
        "nonce": "0x47",
        "chainId": "0xaa36a7"
      },
      "additionalContracts": [],
      "isFixedGasLimit": false
    },
    {
      "hash": "0xd8f230dd89c650e9580045982effeca5204b370451d743398ac3304850c1fe4f",
      "transactionType": "CALL",
      "contractName": null,
      "contractAddress": "0xbb46678a1f6c527bd79ecfbf85332b8ae83ceaf1",
      "function": "approve(address,uint256)",
      "arguments": [
        "0x16b4e23f3287Eec6966E11446019AF79877ED4ef",
        "4000000000000000000000000"
      ],
      "transaction": {
        "from": "0x10db2e70118e5fbeda30391ec957e608c9e4517e",
        "to": "0xbb46678a1f6c527bd79ecfbf85332b8ae83ceaf1",
        "gas": "0xfd53",
        "value": "0x0",
        "input": "0x095ea7b300000000000000000000000016b4e23f3287eec6966e11446019af79877ed4ef000000000000000000000000000000000000000000034f086f3b33b684000000",
        "nonce": "0x14",
        "chainId": "0xaa36a7"
      },
      "additionalContracts": [],
      "isFixedGasLimit": false
    },
    {
      "hash": "0xe75a2f599b54265e67170d97d83d9d8ca675d023ce33a4f433e03cb1bde085c0",
      "transactionType": "CALL",
      "contractName": "MarginVault",
      "contractAddress": "0x16b4e23f3287eec6966e11446019af79877ed4ef",
      "function": "depositMargin(bytes32,address,uint256)",
      "arguments": [
        "0x00000000000000000000000010db2e70118e5fbeda30391ec957e608c9e4517e",
        "0xbb46678a1F6C527bD79eCFBF85332B8Ae83ceaf1",
        "4000000000000000000000000"
      ],
      "transaction": {
        "from": "0x10db2e70118e5fbeda30391ec957e608c9e4517e",
        "to": "0x16b4e23f3287eec6966e11446019af79877ed4ef",
        "gas": "0x24acd",
        "value": "0x0",
        "input": "0x6812d31500000000000000000000000010db2e70118e5fbeda30391ec957e608c9e4517e000000000000000000000000bb46678a1f6c527bd79ecfbf85332b8ae83ceaf1000000000000000000000000000000000000000000034f086f3b33b684000000",
        "nonce": "0x15",
        "chainId": "0xaa36a7"
      },
      "additionalContracts": [],
      "isFixedGasLimit": false
    }
  ],
  "receipts": [
    {
      "status": "0x1",
      "cumulativeGasUsed": "0xfb2287",
      "logs": [
        {
          "address": "0xbb46678a1f6c527bd79ecfbf85332b8ae83ceaf1",
          "topics": [
            "0xddf252ad1be2c89b69c2b068fc378daa952ba7f163c4a11628f55a4df523b3ef",
            "0x0000000000000000000000000000000000000000000000000000000000000000",
            "0x000000000000000000000000474b4e7fd1a143edea6b77aa845f429d443e6410"
          ],
          "data": "0x000000000000000000000000000000000000000000034f086f3b33b684000000",
          "blockHash": "0x3e39173902923410010a565003c5f407af712aa12ebfb11f07de6b99c012f9a5",
          "blockNumber": "0x9e9b9c",
          "blockTimestamp": "0x69aa7180",
          "transactionHash": "0xce6d6aa19a9be0f9dcf33b6353bb4cb25c8a38d9467102d1baac3bb17f2c3f72",
          "transactionIndex": "0x97",
          "logIndex": "0x164",
          "removed": false
        }
      ],
      "logsBloom": "0x00000000000000000000000000000000000000000000000000000000000000000000000000000000000000000000000000000000000000000000000000000000000000000000000000000008000000000000000000000000000000000000000000400000020000000000000000000800000000000000000000000010000000000100000008000000000000000000000000000000000000000000000000000000000000000000000000000000000000000000000000000000000100000000000000000002000000000000000000000000000000008000000000000010000020000000000000000000000000000000000000000000000000000000000000000000",
      "type": "0x2",
      "transactionHash": "0xce6d6aa19a9be0f9dcf33b6353bb4cb25c8a38d9467102d1baac3bb17f2c3f72",
      "transactionIndex": "0x97",
      "blockHash": "0x3e39173902923410010a565003c5f407af712aa12ebfb11f07de6b99c012f9a5",
      "blockNumber": "0x9e9b9c",
      "gasUsed": "0x87bb",
      "effectiveGasPrice": "0xf617f",
      "from": "0x993461bbf7e553eb5bd1f5248a72b524c4a3b15d",
      "to": "0xbb46678a1f6c527bd79ecfbf85332b8ae83ceaf1",
      "contractAddress": null
    },
    {
      "status": "0x1",
      "cumulativeGasUsed": "0x1dfd2b2",
      "logs": [
        {
          "address": "0xbb46678a1f6c527bd79ecfbf85332b8ae83ceaf1",
          "topics": [
            "0xddf252ad1be2c89b69c2b068fc378daa952ba7f163c4a11628f55a4df523b3ef",
            "0x0000000000000000000000000000000000000000000000000000000000000000",
            "0x000000000000000000000000f68d9e0faa751ad61e0ed70852798bf9d9c04bf7"
          ],
          "data": "0x000000000000000000000000000000000000000000034f086f3b33b684000000",
          "blockHash": "0xd1a9200d28d99d4d3c99b4f2107fedb55d9f24c880e3f63ea9399969bc793b78",
          "blockNumber": "0x9e9b9e",
          "blockTimestamp": "0x69aa71b0",
          "transactionHash": "0x40481d5f628d586f9d9543ca6cf4fb38325ee2f3b8b168af421296269b55eb36",
          "transactionIndex": "0xf5",
          "logIndex": "0x289",
          "removed": false
        }
      ],
      "logsBloom": "0x00000000000000000000000000000000000000000000000000000000000000800000000000000000000000000000000000000000000000000000000000000000000000000000000000000008000000000000000000000000000000000000000000000000020000000000000000000800000000000000000000000010000000000100000008000000000000000000000000000000000000000000000000000000000000000000000000000000000000000400000000000000000000000000000000000002000000000000000000000001000000008000000000000000000020000000000000000000000000000000000000000000000000000000000000000000",
      "type": "0x2",
      "transactionHash": "0x40481d5f628d586f9d9543ca6cf4fb38325ee2f3b8b168af421296269b55eb36",
      "transactionIndex": "0xf5",
      "blockHash": "0xd1a9200d28d99d4d3c99b4f2107fedb55d9f24c880e3f63ea9399969bc793b78",
      "blockNumber": "0x9e9b9e",
      "gasUsed": "0x87bb",
      "effectiveGasPrice": "0xf6564",
      "from": "0x993461bbf7e553eb5bd1f5248a72b524c4a3b15d",
      "to": "0xbb46678a1f6c527bd79ecfbf85332b8ae83ceaf1",
      "contractAddress": null
    },
    {
      "status": "0x1",
      "cumulativeGasUsed": "0x1a6731a",
      "logs": [
        {
          "address": "0xbb46678a1f6c527bd79ecfbf85332b8ae83ceaf1",
          "topics": [
            "0xddf252ad1be2c89b69c2b068fc378daa952ba7f163c4a11628f55a4df523b3ef",
            "0x0000000000000000000000000000000000000000000000000000000000000000",
            "0x00000000000000000000000010db2e70118e5fbeda30391ec957e608c9e4517e"
          ],
          "data": "0x000000000000000000000000000000000000000000034f086f3b33b684000000",
          "blockHash": "0x8be4baf8ea77d5bd60437c11d249f3fe23a3380c245b78450bfc50ef59f0877f",
          "blockNumber": "0x9e9ba1",
          "blockTimestamp": "0x69aa71ec",
          "transactionHash": "0xce9c7a88e6d8eac8414690b945223117506f8989d8e10390e08b198dda0f1bfc",
          "transactionIndex": "0xb9",
          "logIndex": "0x1f4",
          "removed": false
        }
      ],
      "logsBloom": "0x00000000000000000000000000000000000000000000000000000000000000000000000000000000000000000000000000000000000000000000000000000000000000000000000000000008000000000000000000000000000000000000000000000000020000000000000000000800000000000000000000000010000000000100000008000000000000000000000000000000000000000000000000000000000000000000000000000000000000000000000000000000000000000000000000000002000000000000000041000000000000008000000000000000000020000000000000000000000080000000000000000000000000000000000000000000",
      "type": "0x2",
      "transactionHash": "0xce9c7a88e6d8eac8414690b945223117506f8989d8e10390e08b198dda0f1bfc",
      "transactionIndex": "0xb9",
      "blockHash": "0x8be4baf8ea77d5bd60437c11d249f3fe23a3380c245b78450bfc50ef59f0877f",
      "blockNumber": "0x9e9ba1",
      "gasUsed": "0x87bb",
      "effectiveGasPrice": "0xf6ac9",
      "from": "0x993461bbf7e553eb5bd1f5248a72b524c4a3b15d",
      "to": "0xbb46678a1f6c527bd79ecfbf85332b8ae83ceaf1",
      "contractAddress": null
    },
    {
      "status": "0x1",
      "cumulativeGasUsed": "0x23ec23a",
      "logs": [
        {
          "address": "0xbb46678a1f6c527bd79ecfbf85332b8ae83ceaf1",
          "topics": [
            "0x8c5be1e5ebec7d5bd14f71427d1e84f3dd0314c0f7b2291e5b200ac8c7c3b925",
            "0x000000000000000000000000474b4e7fd1a143edea6b77aa845f429d443e6410",
            "0x00000000000000000000000016b4e23f3287eec6966e11446019af79877ed4ef"
          ],
          "data": "0x000000000000000000000000000000000000000000034f086f3b33b684000000",
          "blockHash": "0xb9e00bb18988e4190e3b34830f7014606e7d7a1b0bb0e2435a84df263b6a33c1",
          "blockNumber": "0x9e9ba3",
          "blockTimestamp": "0x69aa7210",
          "transactionHash": "0x0b36054988ecc2d125e0f831bdac94d8800f3562aa34f0bcd5695a0fe8d6436a",
          "transactionIndex": "0xf0",
          "logIndex": "0x2da",
          "removed": false
        }
      ],
      "logsBloom": "0x00000000000000000000000000000000000000000000000000000000000000000000000000000000000000000000001000000000000000000000000000200000000000000000000000000000000000000000000000000000000000000000000000400000000000000000000000000000000000000000000000000000000000000100000008000000000000000000000000000000000000000000000000000000020000000000100000000000000000000000000000000000000100000000000000000000000000000000000000000000000000008000000200000010000000000010000000000000000000000000000000000000000000000000000000000000",
      "type": "0x2",
      "transactionHash": "0x0b36054988ecc2d125e0f831bdac94d8800f3562aa34f0bcd5695a0fe8d6436a",
      "transactionIndex": "0xf0",
      "blockHash": "0xb9e00bb18988e4190e3b34830f7014606e7d7a1b0bb0e2435a84df263b6a33c1",
      "blockNumber": "0x9e9ba3",
      "gasUsed": "0xb768",
      "effectiveGasPrice": "0xf6ca5",
      "from": "0x474b4e7fd1a143edea6b77aa845f429d443e6410",
      "to": "0xbb46678a1f6c527bd79ecfbf85332b8ae83ceaf1",
      "contractAddress": null
    },
    {
      "status": "0x1",
      "cumulativeGasUsed": "0x1075bb8",
      "logs": [
        {
          "address": "0xbb46678a1f6c527bd79ecfbf85332b8ae83ceaf1",
          "topics": [
            "0xddf252ad1be2c89b69c2b068fc378daa952ba7f163c4a11628f55a4df523b3ef",
            "0x000000000000000000000000474b4e7fd1a143edea6b77aa845f429d443e6410",
            "0x00000000000000000000000016b4e23f3287eec6966e11446019af79877ed4ef"
          ],
          "data": "0x000000000000000000000000000000000000000000034f086f3b33b684000000",
          "blockHash": "0x14b3bfb744897ca917622181f961a6b775ce69732ab6c3e78aba90799c045a85",
          "blockNumber": "0x9e9ba4",
          "blockTimestamp": "0x69aa721c",
          "transactionHash": "0x68a2dbc0483375ae39dea9a74de646ac33539470f53660907bd654a8ac02b9e0",
          "transactionIndex": "0x85",
          "logIndex": "0x165",
          "removed": false
        },
        {
          "address": "0x16b4e23f3287eec6966e11446019af79877ed4ef",
          "topics": [
            "0x30f6180e248310ab0c789da3026fbba7390872be072cfc5b3c20733f3a980c9e",
            "0x000000000000000000000000474b4e7fd1a143edea6b77aa845f429d443e6410",
            "0x000000000000000000000000bb46678a1f6c527bd79ecfbf85332b8ae83ceaf1"
          ],
          "data": "0x000000000000000000000000000000000000000000034f086f3b33b684000000",
          "blockHash": "0x14b3bfb744897ca917622181f961a6b775ce69732ab6c3e78aba90799c045a85",
          "blockNumber": "0x9e9ba4",
          "blockTimestamp": "0x69aa721c",
          "transactionHash": "0x68a2dbc0483375ae39dea9a74de646ac33539470f53660907bd654a8ac02b9e0",
          "transactionIndex": "0x85",
          "logIndex": "0x166",
          "removed": false
        }
      ],
      "logsBloom": "0x00000000000000000000000000000000000000000000000000000000000000000000000000000000000000000000001000000000000000000000010000000000000000000000000008000008000000000000000000000000000000000000000000400000000000000000000000000000000000000000000000000010000000000100000008000001000000000000000000000000000000000000000000000000000000000000100000000000000000000100000040000000000100000000000000000002000001000000000000000001000800008000000200000010000000000000000000000000000000000000000000000000000000000000000400000000",
      "type": "0x2",
      "transactionHash": "0x68a2dbc0483375ae39dea9a74de646ac33539470f53660907bd654a8ac02b9e0",
      "transactionIndex": "0x85",
      "blockHash": "0x14b3bfb744897ca917622181f961a6b775ce69732ab6c3e78aba90799c045a85",
      "blockNumber": "0x9e9ba4",
      "gasUsed": "0x1eba2",
      "effectiveGasPrice": "0xf7215",
      "from": "0x474b4e7fd1a143edea6b77aa845f429d443e6410",
      "to": "0x16b4e23f3287eec6966e11446019af79877ed4ef",
      "contractAddress": null
    },
    {
      "status": "0x1",
      "cumulativeGasUsed": "0x13ef773",
      "logs": [
        {
          "address": "0xbb46678a1f6c527bd79ecfbf85332b8ae83ceaf1",
          "topics": [
            "0x8c5be1e5ebec7d5bd14f71427d1e84f3dd0314c0f7b2291e5b200ac8c7c3b925",
            "0x000000000000000000000000f68d9e0faa751ad61e0ed70852798bf9d9c04bf7",
            "0x00000000000000000000000016b4e23f3287eec6966e11446019af79877ed4ef"
          ],
          "data": "0x000000000000000000000000000000000000000000034f086f3b33b684000000",
          "blockHash": "0x2158fd659fbf30473824af2f6130fba920b8279d4011795578f9789e6fcd1bf7",
          "blockNumber": "0x9e9ba5",
          "blockTimestamp": "0x69aa7228",
          "transactionHash": "0x7cf7c91184c3582b3e5c15d8f5b92dc87bd7bfcbf28ad2d089a22defd37b8066",
          "transactionIndex": "0x8f",
          "logIndex": "0x184",
          "removed": false
        }
      ],
      "logsBloom": "0x00000000000000000000000000000000000000000000000000000000000000800000000000000000000000000000001000000000000000000000000000200000000000000000000000000000000000000000000000000000000000000000000000000000000000000000000000000000000000000000000000000000000000000100000008000000000000000000000000000000000000000000000000000000020000000000100000000000000000000400000000000000000000000000000000000000000000000000000000000001000000008000000200000000000000000010000000000000000000000000000000000000000000000000000000000000",
      "type": "0x2",
      "transactionHash": "0x7cf7c91184c3582b3e5c15d8f5b92dc87bd7bfcbf28ad2d089a22defd37b8066",
      "transactionIndex": "0x8f",
      "blockHash": "0x2158fd659fbf30473824af2f6130fba920b8279d4011795578f9789e6fcd1bf7",
      "blockNumber": "0x9e9ba5",
      "gasUsed": "0xb768",
      "effectiveGasPrice": "0xf7565",
      "from": "0xf68d9e0faa751ad61e0ed70852798bf9d9c04bf7",
      "to": "0xbb46678a1f6c527bd79ecfbf85332b8ae83ceaf1",
      "contractAddress": null
    },
    {
      "status": "0x1",
      "cumulativeGasUsed": "0x1a5a8ac",
      "logs": [
        {
          "address": "0xbb46678a1f6c527bd79ecfbf85332b8ae83ceaf1",
          "topics": [
            "0xddf252ad1be2c89b69c2b068fc378daa952ba7f163c4a11628f55a4df523b3ef",
            "0x000000000000000000000000f68d9e0faa751ad61e0ed70852798bf9d9c04bf7",
            "0x00000000000000000000000016b4e23f3287eec6966e11446019af79877ed4ef"
          ],
          "data": "0x000000000000000000000000000000000000000000034f086f3b33b684000000",
          "blockHash": "0xee6efeb31612c44c03b7bb0903137ab8ee78f44646eed58d9cdab38538b816c7",
          "blockNumber": "0x9e9ba6",
          "blockTimestamp": "0x69aa7234",
          "transactionHash": "0xc349a953b44682e889a44f39b62e44d37449c51aadc83a5e00f5ab1b7e7cb963",
          "transactionIndex": "0x9b",
          "logIndex": "0x1ce",
          "removed": false
        },
        {
          "address": "0x16b4e23f3287eec6966e11446019af79877ed4ef",
          "topics": [
            "0x30f6180e248310ab0c789da3026fbba7390872be072cfc5b3c20733f3a980c9e",
            "0x000000000000000000000000f68d9e0faa751ad61e0ed70852798bf9d9c04bf7",
            "0x000000000000000000000000bb46678a1f6c527bd79ecfbf85332b8ae83ceaf1"
          ],
          "data": "0x000000000000000000000000000000000000000000034f086f3b33b684000000",
          "blockHash": "0xee6efeb31612c44c03b7bb0903137ab8ee78f44646eed58d9cdab38538b816c7",
          "blockNumber": "0x9e9ba6",
          "blockTimestamp": "0x69aa7234",
          "transactionHash": "0xc349a953b44682e889a44f39b62e44d37449c51aadc83a5e00f5ab1b7e7cb963",
          "transactionIndex": "0x9b",
          "logIndex": "0x1cf",
          "removed": false
        }
      ],
      "logsBloom": "0x00000000000000000000000000000000000000000000000000000000000000800000000000000000000000000000001000000000000000000000010000000000000000000000000008000008000000000000000000000000000000000000000000000000000000000000000000000000000000000000000000000010000000000100000008000001000000000000000000000000000000000000000000000000000000000000100000000000000000000500000040000000000000000000000000000002000001000000000000000001000800008000000200000000000000000000000000000000000000000000000000000000000000000000000400000000",
      "type": "0x2",
      "transactionHash": "0xc349a953b44682e889a44f39b62e44d37449c51aadc83a5e00f5ab1b7e7cb963",
      "transactionIndex": "0x9b",
      "blockHash": "0xee6efeb31612c44c03b7bb0903137ab8ee78f44646eed58d9cdab38538b816c7",
      "blockNumber": "0x9e9ba6",
      "gasUsed": "0x1a8d6",
      "effectiveGasPrice": "0xf780e",
      "from": "0xf68d9e0faa751ad61e0ed70852798bf9d9c04bf7",
      "to": "0x16b4e23f3287eec6966e11446019af79877ed4ef",
      "contractAddress": null
    },
    {
      "status": "0x1",
      "cumulativeGasUsed": "0x2a07e50",
      "logs": [
        {
          "address": "0xbb46678a1f6c527bd79ecfbf85332b8ae83ceaf1",
          "topics": [
            "0x8c5be1e5ebec7d5bd14f71427d1e84f3dd0314c0f7b2291e5b200ac8c7c3b925",
            "0x00000000000000000000000010db2e70118e5fbeda30391ec957e608c9e4517e",
            "0x00000000000000000000000016b4e23f3287eec6966e11446019af79877ed4ef"
          ],
          "data": "0x000000000000000000000000000000000000000000034f086f3b33b684000000",
          "blockHash": "0x96c3d69f5d2c34713beb66e4567628df8ca48a2f5ed9bde60d5fa959e42327d5",
          "blockNumber": "0x9e9ba8",
          "blockTimestamp": "0x69aa724c",
          "transactionHash": "0xd8f230dd89c650e9580045982effeca5204b370451d743398ac3304850c1fe4f",
          "transactionIndex": "0xc0",
          "logIndex": "0x21d",
          "removed": false
        }
      ],
      "logsBloom": "0x00000000000000000000000000000000000000000000000000000000000000000000000000000000000000000000001000000000000000000000000000200000000000000000000000000000000000000000000000000000000000000000000000000000000000000000000000000000000000000000000000000000000000000100000008000000000000000000000000000000000000000000000000000000020000000000100000000000000000000000000000000000000000000000000000000000000000000000000041000000000000008000000200000000000000000010000000000000000080000000000000000000000000000000000000000000",
      "type": "0x2",
      "transactionHash": "0xd8f230dd89c650e9580045982effeca5204b370451d743398ac3304850c1fe4f",
      "transactionIndex": "0xc0",
      "blockHash": "0x96c3d69f5d2c34713beb66e4567628df8ca48a2f5ed9bde60d5fa959e42327d5",
      "blockNumber": "0x9e9ba8",
      "gasUsed": "0xb768",
      "effectiveGasPrice": "0xf780e",
      "from": "0x10db2e70118e5fbeda30391ec957e608c9e4517e",
      "to": "0xbb46678a1f6c527bd79ecfbf85332b8ae83ceaf1",
      "contractAddress": null
    },
    {
      "status": "0x1",
      "cumulativeGasUsed": "0x1b4471c",
      "logs": [
        {
          "address": "0xbb46678a1f6c527bd79ecfbf85332b8ae83ceaf1",
          "topics": [
            "0xddf252ad1be2c89b69c2b068fc378daa952ba7f163c4a11628f55a4df523b3ef",
            "0x00000000000000000000000010db2e70118e5fbeda30391ec957e608c9e4517e",
            "0x00000000000000000000000016b4e23f3287eec6966e11446019af79877ed4ef"
          ],
          "data": "0x000000000000000000000000000000000000000000034f086f3b33b684000000",
          "blockHash": "0x5aa35327f0e99a40e622e28e12bf0f2736b032d3ef4d8e7952e8ccdbde5e4329",
          "blockNumber": "0x9e9ba9",
          "blockTimestamp": "0x69aa7258",
          "transactionHash": "0xe75a2f599b54265e67170d97d83d9d8ca675d023ce33a4f433e03cb1bde085c0",
          "transactionIndex": "0x89",
          "logIndex": "0x111",
          "removed": false
        },
        {
          "address": "0x16b4e23f3287eec6966e11446019af79877ed4ef",
          "topics": [
            "0x30f6180e248310ab0c789da3026fbba7390872be072cfc5b3c20733f3a980c9e",
            "0x00000000000000000000000010db2e70118e5fbeda30391ec957e608c9e4517e",
            "0x000000000000000000000000bb46678a1f6c527bd79ecfbf85332b8ae83ceaf1"
          ],
          "data": "0x000000000000000000000000000000000000000000034f086f3b33b684000000",
          "blockHash": "0x5aa35327f0e99a40e622e28e12bf0f2736b032d3ef4d8e7952e8ccdbde5e4329",
          "blockNumber": "0x9e9ba9",
          "blockTimestamp": "0x69aa7258",
          "transactionHash": "0xe75a2f599b54265e67170d97d83d9d8ca675d023ce33a4f433e03cb1bde085c0",
          "transactionIndex": "0x89",
          "logIndex": "0x112",
          "removed": false
        }
      ],
      "logsBloom": "0x00000000000000000000000000000000000000000000000000000000000000000000000000000000000000000000001000000000000000000000010000000000000000000000000008000008000000000000000000000000000000000000000000000000000000000000000000000000000000000000000000000010000000000100000008000001000000000000000000000000000000000000000000000000000000000000100000000000000000000100000040000000000000000000000000000002000001000000000041000001000800008000000200000000000000000000000000000000000080000000000000000000000000000000000400000000",
      "type": "0x2",
      "transactionHash": "0xe75a2f599b54265e67170d97d83d9d8ca675d023ce33a4f433e03cb1bde085c0",
      "transactionIndex": "0x89",
      "blockHash": "0x5aa35327f0e99a40e622e28e12bf0f2736b032d3ef4d8e7952e8ccdbde5e4329",
      "blockNumber": "0x9e9ba9",
      "gasUsed": "0x1a8d6",
      "effectiveGasPrice": "0xf780e",
      "from": "0x10db2e70118e5fbeda30391ec957e608c9e4517e",
      "to": "0x16b4e23f3287eec6966e11446019af79877ed4ef",
      "contractAddress": null
    }
  ],
  "libraries": [],
  "pending": [],
  "returns": {},
  "timestamp": 1772778073258,
  "chain": 11155111,
  "commit": "d835087"
}