{
  "transactions": [
    {
      "hash": "0x2dd59903827aec884589bdabffc8c145f1b41410938efc39ee5583dadedc307a",
      "transactionType": "CALL",
      "contractName": null,
      "contractAddress": "0xbb46678a1f6c527bd79ecfbf85332b8ae83ceaf1",
      "function": "mint(address,uint256)",
      "arguments": [
        "0x474B4E7FD1A143eDea6b77aa845F429D443E6410",
        "4000000000000000000000000"
      ],
      "transaction": {
        "from": "0x993461bbf7e553eb5bd1f5248a72b524c4a3b15d",
        "to": "0xbb46678a1f6c527bd79ecfbf85332b8ae83ceaf1",
        "gas": "0xc681",
        "value": "0x0",
        "input": "0x40c10f19000000000000000000000000474b4e7fd1a143edea6b77aa845f429d443e6410000000000000000000000000000000000000000000034f086f3b33b684000000",
        "nonce": "0x29a",
        "chainId": "0xaa36a7"
      },
      "additionalContracts": [],
      "isFixedGasLimit": false
    },
    {
      "hash": "0x5dd400b25a1c0652ffda7d51c2801d81edf165379276e125ede09fda4e13900c",
      "transactionType": "CALL",
      "contractName": null,
      "contractAddress": "0xbb46678a1f6c527bd79ecfbf85332b8ae83ceaf1",
      "function": "mint(address,uint256)",
      "arguments": [
        "0xf68D9e0fAa751AD61e0ED70852798bF9D9C04bF7",
        "4000000000000000000000000"
      ],
      "transaction": {
        "from": "0x993461bbf7e553eb5bd1f5248a72b524c4a3b15d",
        "to": "0xbb46678a1f6c527bd79ecfbf85332b8ae83ceaf1",
        "gas": "0xc681",
        "value": "0x0",
        "input": "0x40c10f19000000000000000000000000f68d9e0faa751ad61e0ed70852798bf9d9c04bf7000000000000000000000000000000000000000000034f086f3b33b684000000",
        "nonce": "0x29b",
        "chainId": "0xaa36a7"
      },
      "additionalContracts": [],
      "isFixedGasLimit": false
    },
    {
      "hash": "0x8889c6d3bdd65fbe876e0b61129bf947cab53d351990c04c678e71f050c5763a",
      "transactionType": "CALL",
      "contractName": null,
      "contractAddress": "0xbb46678a1f6c527bd79ecfbf85332b8ae83ceaf1",
      "function": "approve(address,uint256)",
      "arguments": [
        "0x9036b1d7B51331d6F517b7081074fE181D494BC6",
        "4000000000000000000000000"
      ],
      "transaction": {
        "from": "0x474b4e7fd1a143edea6b77aa845f429d443e6410",
        "to": "0xbb46678a1f6c527bd79ecfbf85332b8ae83ceaf1",
        "gas": "0xfd53",
        "value": "0x0",
        "input": "0x095ea7b30000000000000000000000009036b1d7b51331d6f517b7081074fe181d494bc6000000000000000000000000000000000000000000034f086f3b33b684000000",
        "nonce": "0x1e",
        "chainId": "0xaa36a7"
      },
      "additionalContracts": [],
      "isFixedGasLimit": false
    },
    {
      "hash": "0xfea1f42d4a5fbe8d9adc1f47929457acb62ad64773eebbd92eef55d551dd0c2e",
      "transactionType": "CALL",
      "contractName": "MarginVault",
      "contractAddress": "0x9036b1d7b51331d6f517b7081074fe181d494bc6",
      "function": "depositMargin(bytes32,address,uint256)",
      "arguments": [
        "0x000000000000000000000000474b4e7fd1a143edea6b77aa845f429d443e6410",
        "0xbb46678a1F6C527bD79eCFBF85332B8Ae83ceaf1",
        "4000000000000000000000000"
      ],
      "transaction": {
        "from": "0x474b4e7fd1a143edea6b77aa845f429d443e6410",
        "to": "0x9036b1d7b51331d6f517b7081074fe181d494bc6",
        "gas": "0x31e64",
        "value": "0x0",
        "input": "0x6812d315000000000000000000000000474b4e7fd1a143edea6b77aa845f429d443e6410000000000000000000000000bb46678a1f6c527bd79ecfbf85332b8ae83ceaf1000000000000000000000000000000000000000000034f086f3b33b684000000",
        "nonce": "0x1f",
        "chainId": "0xaa36a7"
      },
      "additionalContracts": [],
      "isFixedGasLimit": false
    },
    {
      "hash": "0xd66ab8a1dc7e10d402480797b622be92108bf604b11288c183f52d26c8e2b0be",
      "transactionType": "CALL",
      "contractName": null,
      "contractAddress": "0xbb46678a1f6c527bd79ecfbf85332b8ae83ceaf1",
      "function": "approve(address,uint256)",
      "arguments": [
        "0x9036b1d7B51331d6F517b7081074fE181D494BC6",
        "4000000000000000000000000"
      ],
      "transaction": {
        "from": "0xf68d9e0faa751ad61e0ed70852798bf9d9c04bf7",
        "to": "0xbb46678a1f6c527bd79ecfbf85332b8ae83ceaf1",
        "gas": "0xfd53",
        "value": "0x0",
        "input": "0x095ea7b30000000000000000000000009036b1d7b51331d6f517b7081074fe181d494bc6000000000000000000000000000000000000000000034f086f3b33b684000000",
        "nonce": "0x1c",
        "chainId": "0xaa36a7"
      },
      "additionalContracts": [],
      "isFixedGasLimit": false
    },
    {
      "hash": "0x130d5e599433e3ea6248fa8625602e62b4d3150e5f68ce26d482f72d309a8923",
      "transactionType": "CALL",
      "contractName": "MarginVault",
      "contractAddress": "0x9036b1d7b51331d6f517b7081074fe181d494bc6",
      "function": "depositMargin(bytes32,address,uint256)",
      "arguments": [
        "0x000000000000000000000000f68d9e0faa751ad61e0ed70852798bf9d9c04bf7",
        "0xbb46678a1F6C527bD79eCFBF85332B8Ae83ceaf1",
        "4000000000000000000000000"
      ],
      "transaction": {
        "from": "0xf68d9e0faa751ad61e0ed70852798bf9d9c04bf7",
        "to": "0x9036b1d7b51331d6f517b7081074fe181d494bc6",
        "gas": "0x2ebaa",
        "value": "0x0",
        "input": "0x6812d315000000000000000000000000f68d9e0faa751ad61e0ed70852798bf9d9c04bf7000000000000000000000000bb46678a1f6c527bd79ecfbf85332b8ae83ceaf1000000000000000000000000000000000000000000034f086f3b33b684000000",
        "nonce": "0x1d",
        "chainId": "0xaa36a7"
      },
      "additionalContracts": [],
      "isFixedGasLimit": false
    }
  ],
  "receipts": [
    {
      "status": "0x1",
      "cumulativeGasUsed": "0xbaeafb",
      "logs": [
        {
          "address": "0xbb46678a1f6c527bd79ecfbf85332b8ae83ceaf1",
          "topics": [
            "0xddf252ad1be2c89b69c2b068fc378daa952ba7f163c4a11628f55a4df523b3ef",
            "0x0000000000000000000000000000000000000000000000000000000000000000",
            "0x000000000000000000000000474b4e7fd1a143edea6b77aa845f429d443e6410"
          ],
          "data": "0x000000000000000000000000000000000000000000034f086f3b33b684000000",
          "blockHash": "0x541399ee2ddd808ed0e7c460b87f8a266fc15205d88b35ff26f9f849ea4506a8",
          "blockNumber": "0x9e47dd",
          "blockTimestamp": "0x69a65e10",
          "transactionHash": "0x2dd59903827aec884589bdabffc8c145f1b41410938efc39ee5583dadedc307a",
          "transactionIndex": "0x68",
          "logIndex": "0xba",
          "removed": false
        }
      ],
      "logsBloom": "0x00000000000000000000000000000000000000000000000000000000000000000000000000000000000000000000000000000000000000000000000000000000000000000000000000000008000000000000000000000000000000000000000000400000020000000000000000000800000000000000000000000010000000000100000008000000000000000000000000000000000000000000000000000000000000000000000000000000000000000000000000000000000100000000000000000002000000000000000000000000000000008000000000000010000020000000000000000000000000000000000000000000000000000000000000000000",
      "type": "0x2",
      "transactionHash": "0x2dd59903827aec884589bdabffc8c145f1b41410938efc39ee5583dadedc307a",
      "transactionIndex": "0x68",
      "blockHash": "0x541399ee2ddd808ed0e7c460b87f8a266fc15205d88b35ff26f9f849ea4506a8",
      "blockNumber": "0x9e47dd",
      "gasUsed": "0x87bb",
      "effectiveGasPrice": "0xf424a",
      "from": "0x993461bbf7e553eb5bd1f5248a72b524c4a3b15d",
      "to": "0xbb46678a1f6c527bd79ecfbf85332b8ae83ceaf1",
      "contractAddress": null
    },
    {
      "status": "0x1",
      "cumulativeGasUsed": "0x86eff8",
      "logs": [
        {
          "address": "0xbb46678a1f6c527bd79ecfbf85332b8ae83ceaf1",
          "topics": [
            "0xddf252ad1be2c89b69c2b068fc378daa952ba7f163c4a11628f55a4df523b3ef",
            "0x0000000000000000000000000000000000000000000000000000000000000000",
            "0x000000000000000000000000f68d9e0faa751ad61e0ed70852798bf9d9c04bf7"
          ],
          "data": "0x000000000000000000000000000000000000000000034f086f3b33b684000000",
          "blockHash": "0x90d3dffae9a94ee8888c3a4c9092e1b4ab89f0709fdeda4a9ffee142426d550a",
          "blockNumber": "0x9e47de",
          "blockTimestamp": "0x69a65e1c",
          "transactionHash": "0x5dd400b25a1c0652ffda7d51c2801d81edf165379276e125ede09fda4e13900c",
          "transactionIndex": "0x56",
          "logIndex": "0xa5",
          "removed": false
        }
      ],
      "logsBloom": "0x00000000000000000000000000000000000000000000000000000000000000800000000000000000000000000000000000000000000000000000000000000000000000000000000000000008000000000000000000000000000000000000000000000000020000000000000000000800000000000000000000000010000000000100000008000000000000000000000000000000000000000000000000000000000000000000000000000000000000000400000000000000000000000000000000000002000000000000000000000001000000008000000000000000000020000000000000000000000000000000000000000000000000000000000000000000",
      "type": "0x2",
      "transactionHash": "0x5dd400b25a1c0652ffda7d51c2801d81edf165379276e125ede09fda4e13900c",
      "transactionIndex": "0x56",
      "blockHash": "0x90d3dffae9a94ee8888c3a4c9092e1b4ab89f0709fdeda4a9ffee142426d550a",
      "blockNumber": "0x9e47de",
      "gasUsed": "0x87bb",
      "effectiveGasPrice": "0xf424a",
      "from": "0x993461bbf7e553eb5bd1f5248a72b524c4a3b15d",
      "to": "0xbb46678a1f6c527bd79ecfbf85332b8ae83ceaf1",
      "contractAddress": null
    },
    {
      "status": "0x1",
      "cumulativeGasUsed": "0x14bdfef",
      "logs": [
        {
          "address": "0xbb46678a1f6c527bd79ecfbf85332b8ae83ceaf1",
          "topics": [
            "0x8c5be1e5ebec7d5bd14f71427d1e84f3dd0314c0f7b2291e5b200ac8c7c3b925",
            "0x000000000000000000000000474b4e7fd1a143edea6b77aa845f429d443e6410",
            "0x0000000000000000000000009036b1d7b51331d6f517b7081074fe181d494bc6"
          ],
          "data": "0x000000000000000000000000000000000000000000034f086f3b33b684000000",
          "blockHash": "0xec0c1e9af63614bdd8442b72384c0086d5767e6b486c8ba2d2bd4d6f9d8a706f",
          "blockNumber": "0x9e47df",
          "blockTimestamp": "0x69a65e34",
          "transactionHash": "0x8889c6d3bdd65fbe876e0b61129bf947cab53d351990c04c678e71f050c5763a",
          "transactionIndex": "0x70",
          "logIndex": "0xa7",
          "removed": false
        }
      ],
      "logsBloom": "0x00000000000000000000080000000000000000000000000000000000000000000000000000000000000000000000000000000000000000000000000000200000000000000000000000000000000000000000000000000000000000000000000000400000008000000000000000000000000000000000000000000000000000000100000008000000000000000000000000000000000000000000000000000000020000000000000000000000000000000000000000000000000100000000000000000000000000000000000000000000000000008000000080000010000000000010000000000000000000000000000000000000000000000000000000000000",
      "type": "0x2",
      "transactionHash": "0x8889c6d3bdd65fbe876e0b61129bf947cab53d351990c04c678e71f050c5763a",
      "transactionIndex": "0x70",
      "blockHash": "0xec0c1e9af63614bdd8442b72384c0086d5767e6b486c8ba2d2bd4d6f9d8a706f",
      "blockNumber": "0x9e47df",
      "gasUsed": "0xb768",
      "effectiveGasPrice": "0xf424a",
      "from": "0x474b4e7fd1a143edea6b77aa845f429d443e6410",
      "to": "0xbb46678a1f6c527bd79ecfbf85332b8ae83ceaf1",
      "contractAddress": null
    },
    {
      "status": "0x1",
      "cumulativeGasUsed": "0x5176ff",
      "logs": [
        {
          "address": "0xbb46678a1f6c527bd79ecfbf85332b8ae83ceaf1",
          "topics": [
            "0xddf252ad1be2c89b69c2b068fc378daa952ba7f163c4a11628f55a4df523b3ef",
            "0x000000000000000000000000474b4e7fd1a143edea6b77aa845f429d443e6410",
            "0x0000000000000000000000009036b1d7b51331d6f517b7081074fe181d494bc6"
          ],
          "data": "0x000000000000000000000000000000000000000000034f086f3b33b684000000",
          "blockHash": "0xac1610e26ca97b7454972b1dd1f124d9fd4b806c7ff7abb7a3e7e9660d669859",
          "blockNumber": "0x9e47e0",
          "blockTimestamp": "0x69a65e40",
          "transactionHash": "0xfea1f42d4a5fbe8d9adc1f47929457acb62ad64773eebbd92eef55d551dd0c2e",
          "transactionIndex": "0x3f",
          "logIndex": "0x68",
          "removed": false
        },
        {
          "address": "0x9036b1d7b51331d6f517b7081074fe181d494bc6",
          "topics": [
            "0x30f6180e248310ab0c789da3026fbba7390872be072cfc5b3c20733f3a980c9e",
            "0x000000000000000000000000474b4e7fd1a143edea6b77aa845f429d443e6410",
            "0x000000000000000000000000bb46678a1f6c527bd79ecfbf85332b8ae83ceaf1"
          ],
          "data": "0x000000000000000000000000000000000000000000034f086f3b33b684000000",
          "blockHash": "0xac1610e26ca97b7454972b1dd1f124d9fd4b806c7ff7abb7a3e7e9660d669859",
          "blockNumber": "0x9e47e0",
          "blockTimestamp": "0x69a65e40",
          "transactionHash": "0xfea1f42d4a5fbe8d9adc1f47929457acb62ad64773eebbd92eef55d551dd0c2e",
          "transactionIndex": "0x3f",
          "logIndex": "0x69",
          "removed": false
        }
      ],
      "logsBloom": "0x00000000000000000000080000000000000000000000000000000000000000000000000000000000000000000000000000000000000000000000000000000000000000000000000000000008000000000000000000000000000000000000000000400000008000000000000000000000000000000000000000000010000000000100000008000001000000000000000000080020000000000000000000000000000000000000000000000000000000000000000040000000000100000000000000000002000001000000000000000001000800008000000080000010000000000000000000000000000000000000000000000000000000000000000400000000",
      "type": "0x2",
      "transactionHash": "0xfea1f42d4a5fbe8d9adc1f47929457acb62ad64773eebbd92eef55d551dd0c2e",
      "transactionIndex": "0x3f",
      "blockHash": "0xac1610e26ca97b7454972b1dd1f124d9fd4b806c7ff7abb7a3e7e9660d669859",
      "blockNumber": "0x9e47e0",
      "gasUsed": "0x24206",
      "effectiveGasPrice": "0xf424b",
      "from": "0x474b4e7fd1a143edea6b77aa845f429d443e6410",
      "to": "0x9036b1d7b51331d6f517b7081074fe181d494bc6",
      "contractAddress": null
    },
    {
      "status": "0x1",
      "cumulativeGasUsed": "0x94c3ab",
      "logs": [
        {
          "address": "0xbb46678a1f6c527bd79ecfbf85332b8ae83ceaf1",
          "topics": [
            "0x8c5be1e5ebec7d5bd14f71427d1e84f3dd0314c0f7b2291e5b200ac8c7c3b925",
            "0x000000000000000000000000f68d9e0faa751ad61e0ed70852798bf9d9c04bf7",
            "0x0000000000000000000000009036b1d7b51331d6f517b7081074fe181d494bc6"
          ],
          "data": "0x000000000000000000000000000000000000000000034f086f3b33b684000000",
          "blockHash": "0x24f231b4ec29633168ac733febd734788d57d8e18574798a1354e615ebfa486d",
          "blockNumber": "0x9e47e1",
          "blockTimestamp": "0x69a65e4c",
          "transactionHash": "0xd66ab8a1dc7e10d402480797b622be92108bf604b11288c183f52d26c8e2b0be",
          "transactionIndex": "0x42",
          "logIndex": "0x4c",
          "removed": false
        }
      ],
      "logsBloom": "0x00000000000000000000080000000000000000000000000000000000000000800000000000000000000000000000000000000000000000000000000000200000000000000000000000000000000000000000000000000000000000000000000000000000008000000000000000000000000000000000000000000000000000000100000008000000000000000000000000000000000000000000000000000000020000000000000000000000000000000400000000000000000000000000000000000000000000000000000000000001000000008000000080000000000000000010000000000000000000000000000000000000000000000000000000000000",
      "type": "0x2",
      "transactionHash": "0xd66ab8a1dc7e10d402480797b622be92108bf604b11288c183f52d26c8e2b0be",
      "transactionIndex": "0x42",
      "blockHash": "0x24f231b4ec29633168ac733febd734788d57d8e18574798a1354e615ebfa486d",
      "blockNumber": "0x9e47e1",
      "gasUsed": "0xb768",
      "effectiveGasPrice": "0xf424a",
      "from": "0xf68d9e0faa751ad61e0ed70852798bf9d9c04bf7",
      "to": "0xbb46678a1f6c527bd79ecfbf85332b8ae83ceaf1",
      "contractAddress": null
    },
    {
      "status": "0x1",
      "cumulativeGasUsed": "0xbe3fbf",
      "logs": [
        {
          "address": "0xbb46678a1f6c527bd79ecfbf85332b8ae83ceaf1",
          "topics": [
            "0xddf252ad1be2c89b69c2b068fc378daa952ba7f163c4a11628f55a4df523b3ef",
            "0x000000000000000000000000f68d9e0faa751ad61e0ed70852798bf9d9c04bf7",
            "0x0000000000000000000000009036b1d7b51331d6f517b7081074fe181d494bc6"
          ],
          "data": "0x000000000000000000000000000000000000000000034f086f3b33b684000000",
          "blockHash": "0xf3136061b68dbd799f39538097568d0a28403b6f950bc8474d251d7a411b1932",
          "blockNumber": "0x9e47e2",
          "blockTimestamp": "0x69a65e64",
          "transactionHash": "0x130d5e599433e3ea6248fa8625602e62b4d3150e5f68ce26d482f72d309a8923",
          "transactionIndex": "0x85",
          "logIndex": "0xe2",
          "removed": false
        },
        {
          "address": "0x9036b1d7b51331d6f517b7081074fe181d494bc6",
          "topics": [
            "0x30f6180e248310ab0c789da3026fbba7390872be072cfc5b3c20733f3a980c9e",
            "0x000000000000000000000000f68d9e0faa751ad61e0ed70852798bf9d9c04bf7",
            "0x000000000000000000000000bb46678a1f6c527bd79ecfbf85332b8ae83ceaf1"
          ],
          "data": "0x000000000000000000000000000000000000000000034f086f3b33b684000000",
          "blockHash": "0xf3136061b68dbd799f39538097568d0a28403b6f950bc8474d251d7a411b1932",
          "blockNumber": "0x9e47e2",
          "blockTimestamp": "0x69a65e64",
          "transactionHash": "0x130d5e599433e3ea6248fa8625602e62b4d3150e5f68ce26d482f72d309a8923",
          "transactionIndex": "0x85",
          "logIndex": "0xe3",
          "removed": false
        }
      ],
      "logsBloom": "0x00000000000000000000080000000000000000000000000000000000000000800000000000000000000000000000000000000000000000000000000000000000000000000000000000000008000000000000000000000000000000000000000000000000008000000000000000000000000000000000000000000010000000000100000008000001000000000000000000080020000000000000000000000000000000000000000000000000000000000400000040000000000000000000000000000002000001000000000000000001000800008000000080000000000000000000000000000000000000000000000000000000000000000000000400000000",
      "type": "0x2",
      "transactionHash": "0x130d5e599433e3ea6248fa8625602e62b4d3150e5f68ce26d482f72d309a8923",
      "transactionIndex": "0x85",
      "blockHash": "0xf3136061b68dbd799f39538097568d0a28403b6f950bc8474d251d7a411b1932",
      "blockNumber": "0x9e47e2",
      "gasUsed": "0x1ff3a",
      "effectiveGasPrice": "0xf424a",
      "from": "0xf68d9e0faa751ad61e0ed70852798bf9d9c04bf7",
      "to": "0x9036b1d7b51331d6f517b7081074fe181d494bc6",
      "contractAddress": null
    }
  ],
  "libraries": [],
  "pending": [],
  "returns": {},
  "timestamp": 1772510820995,
  "chain": 11155111,
  "commit": "4acf207"
}