{
  "transactions": [
    {
      "hash": "0x9ae52750498ed267853a577d3fbaa863c29f2e7da249382fe81cc73351ff777d",
      "transactionType": "CALL",
      "contractName": null,
      "contractAddress": "0xbb46678a1f6c527bd79ecfbf85332b8ae83ceaf1",
      "function": "mint(address,uint256)",
      "arguments": [
        "0x474B4E7FD1A143eDea6b77aa845F429D443E6410",
        "4000000000000000000000000"
      ],
      "transaction": {
        "from": "0x993461bbf7e553eb5bd1f5248a72b524c4a3b15d",
        "to": "0xbb46678a1f6c527bd79ecfbf85332b8ae83ceaf1",
        "gas": "0xc681",
        "value": "0x0",
        "input": "0x40c10f19000000000000000000000000474b4e7fd1a143edea6b77aa845f429d443e6410000000000000000000000000000000000000000000034f086f3b33b684000000",
        "nonce": "0x2d8",
        "chainId": "0xaa36a7"
      },
      "additionalContracts": [],
      "isFixedGasLimit": false
    },
    {
      "hash": "0x597135c514d85f4b7559b97da04436ade892c553889848a38388233e5d25e398",
      "transactionType": "CALL",
      "contractName": null,
      "contractAddress": "0xbb46678a1f6c527bd79ecfbf85332b8ae83ceaf1",
      "function": "mint(address,uint256)",
      "arguments": [
        "0xf68D9e0fAa751AD61e0ED70852798bF9D9C04bF7",
        "4000000000000000000000000"
      ],
      "transaction": {
        "from": "0x993461bbf7e553eb5bd1f5248a72b524c4a3b15d",
        "to": "0xbb46678a1f6c527bd79ecfbf85332b8ae83ceaf1",
        "gas": "0xc681",
        "value": "0x0",
        "input": "0x40c10f19000000000000000000000000f68d9e0faa751ad61e0ed70852798bf9d9c04bf7000000000000000000000000000000000000000000034f086f3b33b684000000",
        "nonce": "0x2d9",
        "chainId": "0xaa36a7"
      },
      "additionalContracts": [],
      "isFixedGasLimit": false
    },
    {
      "hash": "0x100cf85527a4a818db7b410e67b1f2c646a30c61e05ca6ef846ecce7142f145a",
      "transactionType": "CALL",
      "contractName": null,
      "contractAddress": "0xbb46678a1f6c527bd79ecfbf85332b8ae83ceaf1",
      "function": "approve(address,uint256)",
      "arguments": [
        "0x46581C3B8aE1b92f773d966b39531d8Fb803d71f",
        "4000000000000000000000000"
      ],
      "transaction": {
        "from": "0x474b4e7fd1a143edea6b77aa845f429d443e6410",
        "to": "0xbb46678a1f6c527bd79ecfbf85332b8ae83ceaf1",
        "gas": "0xfd53",
        "value": "0x0",
        "input": "0x095ea7b300000000000000000000000046581c3b8ae1b92f773d966b39531d8fb803d71f000000000000000000000000000000000000000000034f086f3b33b684000000",
        "nonce": "0x2b",
        "chainId": "0xaa36a7"
      },
      "additionalContracts": [],
      "isFixedGasLimit": false
    },
    {
      "hash": "0xc2def02cc7518f7927184462012f7c00210358615c0fd4a6d1b2d9d7f1efd8f5",
      "transactionType": "CALL",
      "contractName": "MarginVault",
      "contractAddress": "0x46581c3b8ae1b92f773d966b39531d8fb803d71f",
      "function": "depositMargin(bytes32,address,uint256)",
      "arguments": [
        "0x000000000000000000000000474b4e7fd1a143edea6b77aa845f429d443e6410",
        "0xbb46678a1F6C527bD79eCFBF85332B8Ae83ceaf1",
        "4000000000000000000000000"
      ],
      "transaction": {
        "from": "0x474b4e7fd1a143edea6b77aa845f429d443e6410",
        "to": "0x46581c3b8ae1b92f773d966b39531d8fb803d71f",
        "gas": "0x2a72f",
        "value": "0x0",
        "input": "0x6812d315000000000000000000000000474b4e7fd1a143edea6b77aa845f429d443e6410000000000000000000000000bb46678a1f6c527bd79ecfbf85332b8ae83ceaf1000000000000000000000000000000000000000000034f086f3b33b684000000",
        "nonce": "0x2c",
        "chainId": "0xaa36a7"
      },
      "additionalContracts": [],
      "isFixedGasLimit": false
    },
    {
      "hash": "0x1c1abd328fe96db4fd8b78a8657acc5fbc06b318f973ea5f7fcfea9d06ac4d41",
      "transactionType": "CALL",
      "contractName": null,
      "contractAddress": "0xbb46678a1f6c527bd79ecfbf85332b8ae83ceaf1",
      "function": "approve(address,uint256)",
      "arguments": [
        "0x46581C3B8aE1b92f773d966b39531d8Fb803d71f",
        "4000000000000000000000000"
      ],
      "transaction": {
        "from": "0xf68d9e0faa751ad61e0ed70852798bf9d9c04bf7",
        "to": "0xbb46678a1f6c527bd79ecfbf85332b8ae83ceaf1",
        "gas": "0xfd53",
        "value": "0x0",
        "input": "0x095ea7b300000000000000000000000046581c3b8ae1b92f773d966b39531d8fb803d71f000000000000000000000000000000000000000000034f086f3b33b684000000",
        "nonce": "0x29",
        "chainId": "0xaa36a7"
      },
      "additionalContracts": [],
      "isFixedGasLimit": false
    },
    {
      "hash": "0x31e500c647dfd3cb26572fa806f6795b0f87e97dd51da2101c5a5beb16438217",
      "transactionType": "CALL",
      "contractName": "MarginVault",
      "contractAddress": "0x46581c3b8ae1b92f773d966b39531d8fb803d71f",
      "function": "depositMargin(bytes32,address,uint256)",
      "arguments": [
        "0x000000000000000000000000f68d9e0faa751ad61e0ed70852798bf9d9c04bf7",
        "0xbb46678a1F6C527bD79eCFBF85332B8Ae83ceaf1",
        "4000000000000000000000000"
      ],
      "transaction": {
        "from": "0xf68d9e0faa751ad61e0ed70852798bf9d9c04bf7",
        "to": "0x46581c3b8ae1b92f773d966b39531d8fb803d71f",
        "gas": "0x24aeb",
        "value": "0x0",
        "input": "0x6812d315000000000000000000000000f68d9e0faa751ad61e0ed70852798bf9d9c04bf7000000000000000000000000bb46678a1f6c527bd79ecfbf85332b8ae83ceaf1000000000000000000000000000000000000000000034f086f3b33b684000000",
        "nonce": "0x2a",
        "chainId": "0xaa36a7"
      },
      "additionalContracts": [],
      "isFixedGasLimit": false
    }
  ],
  "receipts": [
    {
      "status": "0x1",
      "cumulativeGasUsed": "0xe92655",
      "logs": [
        {
          "address": "0xbb46678a1f6c527bd79ecfbf85332b8ae83ceaf1",
          "topics": [
            "0xddf252ad1be2c89b69c2b068fc378daa952ba7f163c4a11628f55a4df523b3ef",
            "0x0000000000000000000000000000000000000000000000000000000000000000",
            "0x000000000000000000000000474b4e7fd1a143edea6b77aa845f429d443e6410"
          ],
          "data": "0x000000000000000000000000000000000000000000034f086f3b33b684000000",
          "blockHash": "0x9618d57ef57b09c00f0d8ea158b39a9c598385ce315bb812139679b5f622ec71",
          "blockNumber": "0x9e4fb8",
          "blockTimestamp": "0x69a6bf3c",
          "transactionHash": "0x9ae52750498ed267853a577d3fbaa863c29f2e7da249382fe81cc73351ff777d",
          "transactionIndex": "0x64",
          "logIndex": "0xef",
          "removed": false
        }
      ],
      "logsBloom": "0x00000000000000000000000000000000000000000000000000000000000000000000000000000000000000000000000000000000000000000000000000000000000000000000000000000008000000000000000000000000000000000000000000400000020000000000000000000800000000000000000000000010000000000100000008000000000000000000000000000000000000000000000000000000000000000000000000000000000000000000000000000000000100000000000000000002000000000000000000000000000000008000000000000010000020000000000000000000000000000000000000000000000000000000000000000000",
      "type": "0x2",
      "transactionHash": "0x9ae52750498ed267853a577d3fbaa863c29f2e7da249382fe81cc73351ff777d",
      "transactionIndex": "0x64",
      "blockHash": "0x9618d57ef57b09c00f0d8ea158b39a9c598385ce315bb812139679b5f622ec71",
      "blockNumber": "0x9e4fb8",
      "gasUsed": "0x87bb",
      "effectiveGasPrice": "0xf424c",
      "from": "0x993461bbf7e553eb5bd1f5248a72b524c4a3b15d",
      "to": "0xbb46678a1f6c527bd79ecfbf85332b8ae83ceaf1",
      "contractAddress": null
    },
    {
      "status": "0x1",
      "cumulativeGasUsed": "0xf7a496",
      "logs": [
        {
          "address": "0xbb46678a1f6c527bd79ecfbf85332b8ae83ceaf1",
          "topics": [
            "0xddf252ad1be2c89b69c2b068fc378daa952ba7f163c4a11628f55a4df523b3ef",
            "0x0000000000000000000000000000000000000000000000000000000000000000",
            "0x000000000000000000000000f68d9e0faa751ad61e0ed70852798bf9d9c04bf7"
          ],
          "data": "0x000000000000000000000000000000000000000000034f086f3b33b684000000",
          "blockHash": "0xbeb19e388a7c316a7e916fc042fd8a368aaa37d073d46002da98e1d7f9730201",
          "blockNumber": "0x9e4fb9",
          "blockTimestamp": "0x69a6bf48",
          "transactionHash": "0x597135c514d85f4b7559b97da04436ade892c553889848a38388233e5d25e398",
          "transactionIndex": "0x54",
          "logIndex": "0x6d",
          "removed": false
        }
      ],
      "logsBloom": "0x00000000000000000000000000000000000000000000000000000000000000800000000000000000000000000000000000000000000000000000000000000000000000000000000000000008000000000000000000000000000000000000000000000000020000000000000000000800000000000000000000000010000000000100000008000000000000000000000000000000000000000000000000000000000000000000000000000000000000000400000000000000000000000000000000000002000000000000000000000001000000008000000000000000000020000000000000000000000000000000000000000000000000000000000000000000",
      "type": "0x2",
      "transactionHash": "0x597135c514d85f4b7559b97da04436ade892c553889848a38388233e5d25e398",
      "transactionIndex": "0x54",
      "blockHash": "0xbeb19e388a7c316a7e916fc042fd8a368aaa37d073d46002da98e1d7f9730201",
      "blockNumber": "0x9e4fb9",
      "gasUsed": "0x87bb",
      "effectiveGasPrice": "0xf424c",
      "from": "0x993461bbf7e553eb5bd1f5248a72b524c4a3b15d",
      "to": "0xbb46678a1f6c527bd79ecfbf85332b8ae83ceaf1",
      "contractAddress": null
    },
    {
      "status": "0x1",
      "cumulativeGasUsed": "0x722fd3",
      "logs": [
        {
          "address": "0xbb46678a1f6c527bd79ecfbf85332b8ae83ceaf1",
          "topics": [
            "0x8c5be1e5ebec7d5bd14f71427d1e84f3dd0314c0f7b2291e5b200ac8c7c3b925",
            "0x000000000000000000000000474b4e7fd1a143edea6b77aa845f429d443e6410",
            "0x00000000000000000000000046581c3b8ae1b92f773d966b39531d8fb803d71f"
          ],
          "data": "0x000000000000000000000000000000000000000000034f086f3b33b684000000",
          "blockHash": "0x7de95dd74a1bf7f8de51b13809c14abe09e7325203cbd851c825a13fc1c1233f",
          "blockNumber": "0x9e4fba",
          "blockTimestamp": "0x69a6bf54",
          "transactionHash": "0x100cf85527a4a818db7b410e67b1f2c646a30c61e05ca6ef846ecce7142f145a",
          "transactionIndex": "0x56",
          "logIndex": "0xb2",
          "removed": false
        }
      ],
      "logsBloom": "0x00000000000000000000000000000000000000000000000000000000000000000000000000000000000000000000000000000000000000000000000000200000000000000000000000000000000000000000000000400000000000000000000000400000000000000000000000080000000000000000000000000000000000000100000008000000000000000000000000000000000000000000000000000000020000000000000000000000100000000000000000000000000100000000000000000000000000000000000000000000000000008000000000000010000000000010000000000000000000000000000000000000000000000000000000000000",
      "type": "0x2",
      "transactionHash": "0x100cf85527a4a818db7b410e67b1f2c646a30c61e05ca6ef846ecce7142f145a",
      "transactionIndex": "0x56",
      "blockHash": "0x7de95dd74a1bf7f8de51b13809c14abe09e7325203cbd851c825a13fc1c1233f",
      "blockNumber": "0x9e4fba",
      "gasUsed": "0xb768",
      "effectiveGasPrice": "0xf424c",
      "from": "0x474b4e7fd1a143edea6b77aa845f429d443e6410",
      "to": "0xbb46678a1f6c527bd79ecfbf85332b8ae83ceaf1",
      "contractAddress": null
    },
    {
      "status": "0x1",
      "cumulativeGasUsed": "0xcd87a4",
      "logs": [
        {
          "address": "0xbb46678a1f6c527bd79ecfbf85332b8ae83ceaf1",
          "topics": [
            "0xddf252ad1be2c89b69c2b068fc378daa952ba7f163c4a11628f55a4df523b3ef",
            "0x000000000000000000000000474b4e7fd1a143edea6b77aa845f429d443e6410",
            "0x00000000000000000000000046581c3b8ae1b92f773d966b39531d8fb803d71f"
          ],
          "data": "0x000000000000000000000000000000000000000000034f086f3b33b684000000",
          "blockHash": "0x33d7e80645e9b4d65c2393aa3e03c1a2d5007000392066f6f2d568610a3dfadf",
          "blockNumber": "0x9e4fbb",
          "blockTimestamp": "0x69a6bf60",
          "transactionHash": "0xc2def02cc7518f7927184462012f7c00210358615c0fd4a6d1b2d9d7f1efd8f5",
          "transactionIndex": "0x64",
          "logIndex": "0xd4",
          "removed": false
        },
        {
          "address": "0x46581c3b8ae1b92f773d966b39531d8fb803d71f",
          "topics": [
            "0x30f6180e248310ab0c789da3026fbba7390872be072cfc5b3c20733f3a980c9e",
            "0x000000000000000000000000474b4e7fd1a143edea6b77aa845f429d443e6410",
            "0x000000000000000000000000bb46678a1f6c527bd79ecfbf85332b8ae83ceaf1"
          ],
          "data": "0x000000000000000000000000000000000000000000034f086f3b33b684000000",
          "blockHash": "0x33d7e80645e9b4d65c2393aa3e03c1a2d5007000392066f6f2d568610a3dfadf",
          "blockNumber": "0x9e4fbb",
          "blockTimestamp": "0x69a6bf60",
          "transactionHash": "0xc2def02cc7518f7927184462012f7c00210358615c0fd4a6d1b2d9d7f1efd8f5",
          "transactionIndex": "0x64",
          "logIndex": "0xd5",
          "removed": false
        }
      ],
      "logsBloom": "0x00000000000000000000000000000000000000000000000000000000000000000000000000000000000000000000000000000000000002000000000000000000000000000000000040000008000000000000000000400000000000000000000000400000000000000000000000080000000000000000000000000010000000000100000008000001000000000000000000000000000000000000000000000000000000000000000000400000100000000000000040000000000100000000000000000002000001000000000000000001000800008000000000000010000000000000000000000000000000000000000000000000000000000000000400000000",
      "type": "0x2",
      "transactionHash": "0xc2def02cc7518f7927184462012f7c00210358615c0fd4a6d1b2d9d7f1efd8f5",
      "transactionIndex": "0x64",
      "blockHash": "0x33d7e80645e9b4d65c2393aa3e03c1a2d5007000392066f6f2d568610a3dfadf",
      "blockNumber": "0x9e4fbb",
      "gasUsed": "0x1ebb8",
      "effectiveGasPrice": "0xf424b",
      "from": "0x474b4e7fd1a143edea6b77aa845f429d443e6410",
      "to": "0x46581c3b8ae1b92f773d966b39531d8fb803d71f",
      "contractAddress": null
    },
    {
      "status": "0x1",
      "cumulativeGasUsed": "0x80f490",
      "logs": [
        {
          "address": "0xbb46678a1f6c527bd79ecfbf85332b8ae83ceaf1",
          "topics": [
            "0x8c5be1e5ebec7d5bd14f71427d1e84f3dd0314c0f7b2291e5b200ac8c7c3b925",
            "0x000000000000000000000000f68d9e0faa751ad61e0ed70852798bf9d9c04bf7",
            "0x00000000000000000000000046581c3b8ae1b92f773d966b39531d8fb803d71f"
          ],
          "data": "0x000000000000000000000000000000000000000000034f086f3b33b684000000",
          "blockHash": "0x75142e1063e26863d71544b24ca9acacd6a3924e9dda89fab5304c8992a81194",
          "blockNumber": "0x9e4fbc",
          "blockTimestamp": "0x69a6bf6c",
          "transactionHash": "0x1c1abd328fe96db4fd8b78a8657acc5fbc06b318f973ea5f7fcfea9d06ac4d41",
          "transactionIndex": "0x4d",
          "logIndex": "0xb6",
          "removed": false
        }
      ],
      "logsBloom": "0x00000000000000000000000000000000000000000000000000000000000000800000000000000000000000000000000000000000000000000000000000200000000000000000000000000000000000000000000000400000000000000000000000000000000000000000000000080000000000000000000000000000000000000100000008000000000000000000000000000000000000000000000000000000020000000000000000000000100000000400000000000000000000000000000000000000000000000000000000000001000000008000000000000000000000000010000000000000000000000000000000000000000000000000000000000000",
      "type": "0x2",
      "transactionHash": "0x1c1abd328fe96db4fd8b78a8657acc5fbc06b318f973ea5f7fcfea9d06ac4d41",
      "transactionIndex": "0x4d",
      "blockHash": "0x75142e1063e26863d71544b24ca9acacd6a3924e9dda89fab5304c8992a81194",
      "blockNumber": "0x9e4fbc",
      "gasUsed": "0xb768",
      "effectiveGasPrice": "0xf424b",
      "from": "0xf68d9e0faa751ad61e0ed70852798bf9d9c04bf7",
      "to": "0xbb46678a1f6c527bd79ecfbf85332b8ae83ceaf1",
      "contractAddress": null
    },
    {
      "status": "0x1",
      "cumulativeGasUsed": "0xecfa5e",
      "logs": [
        {
          "address": "0xbb46678a1f6c527bd79ecfbf85332b8ae83ceaf1",
          "topics": [
            "0xddf252ad1be2c89b69c2b068fc378daa952ba7f163c4a11628f55a4df523b3ef",
            "0x000000000000000000000000f68d9e0faa751ad61e0ed70852798bf9d9c04bf7",
            "0x00000000000000000000000046581c3b8ae1b92f773d966b39531d8fb803d71f"
          ],
          "data": "0x000000000000000000000000000000000000000000034f086f3b33b684000000",
          "blockHash": "0x89fc5a0d9d0c6a1557ed9743ffdf05d0d5c3dcf815c913fba835cc35b381e0f8",
          "blockNumber": "0x9e4fbd",
          "blockTimestamp": "0x69a6bf78",
          "transactionHash": "0x31e500c647dfd3cb26572fa806f6795b0f87e97dd51da2101c5a5beb16438217",
          "transactionIndex": "0x66",
          "logIndex": "0xce",
          "removed": false
        },
        {
          "address": "0x46581c3b8ae1b92f773d966b39531d8fb803d71f",
          "topics": [
            "0x30f6180e248310ab0c789da3026fbba7390872be072cfc5b3c20733f3a980c9e",
            "0x000000000000000000000000f68d9e0faa751ad61e0ed70852798bf9d9c04bf7",
            "0x000000000000000000000000bb46678a1f6c527bd79ecfbf85332b8ae83ceaf1"
          ],
          "data": "0x000000000000000000000000000000000000000000034f086f3b33b684000000",
          "blockHash": "0x89fc5a0d9d0c6a1557ed9743ffdf05d0d5c3dcf815c913fba835cc35b381e0f8",
          "blockNumber": "0x9e4fbd",
          "blockTimestamp": "0x69a6bf78",
          "transactionHash": "0x31e500c647dfd3cb26572fa806f6795b0f87e97dd51da2101c5a5beb16438217",
          "transactionIndex": "0x66",
          "logIndex": "0xcf",
          "removed": false
        }
      ],
      "logsBloom": "0x00000000000000000000000000000000000000000000000000000000000000800000000000000000000000000000000000000000000002000000000000000000000000000000000040000008000000000000000000400000000000000000000000000000000000000000000000080000000000000000000000000010000000000100000008000001000000000000000000000000000000000000000000000000000000000000000000400000100000000400000040000000000000000000000000000002000001000000000000000001000800008000000000000000000000000000000000000000000000000000000000000000000000000000000400000000",
      "type": "0x2",
      "transactionHash": "0x31e500c647dfd3cb26572fa806f6795b0f87e97dd51da2101c5a5beb16438217",
      "transactionIndex": "0x66",
      "blockHash": "0x89fc5a0d9d0c6a1557ed9743ffdf05d0d5c3dcf815c913fba835cc35b381e0f8",
      "blockNumber": "0x9e4fbd",
      "gasUsed": "0x1a8ec",
      "effectiveGasPrice": "0xf424b",
      "from": "0xf68d9e0faa751ad61e0ed70852798bf9d9c04bf7",
      "to": "0x46581c3b8ae1b92f773d966b39531d8fb803d71f",
      "contractAddress": null
    }
  ],
  "libraries": [],
  "pending": [],
  "returns": {},
  "timestamp": 1772535673510,
  "chain": 11155111,
  "commit": "b8160eb"
}