{
  "transactions": [
    {
      "hash": "0x04281f0765cb78a83f0d8f8770c6d91f3fda830369a71456a1331a18e3dcf7ed",
      "transactionType": "CALL",
      "contractName": null,
      "contractAddress": "0xbb46678a1f6c527bd79ecfbf85332b8ae83ceaf1",
      "function": "mint(address,uint256)",
      "arguments": [
        "0x474B4E7FD1A143eDea6b77aa845F429D443E6410",
        "4000000000000000000000000"
      ],
      "transaction": {
        "from": "0x993461bbf7e553eb5bd1f5248a72b524c4a3b15d",
        "to": "0xbb46678a1f6c527bd79ecfbf85332b8ae83ceaf1",
        "gas": "0xc681",
        "value": "0x0",
        "input": "0x40c10f19000000000000000000000000474b4e7fd1a143edea6b77aa845f429d443e6410000000000000000000000000000000000000000000034f086f3b33b684000000",
        "nonce": "0x4da",
        "chainId": "0xaa36a7"
      },
      "additionalContracts": [],
      "isFixedGasLimit": false
    },
    {
      "hash": "0xfa56d18ff7657f9852c206b34b5335130e4d931e27054c84a0247a763049b3cc",
      "transactionType": "CALL",
      "contractName": null,
      "contractAddress": "0xbb46678a1f6c527bd79ecfbf85332b8ae83ceaf1",
      "function": "mint(address,uint256)",
      "arguments": [
        "0xf68D9e0fAa751AD61e0ED70852798bF9D9C04bF7",
        "4000000000000000000000000"
      ],
      "transaction": {
        "from": "0x993461bbf7e553eb5bd1f5248a72b524c4a3b15d",
        "to": "0xbb46678a1f6c527bd79ecfbf85332b8ae83ceaf1",
        "gas": "0xc681",
        "value": "0x0",
        "input": "0x40c10f19000000000000000000000000f68d9e0faa751ad61e0ed70852798bf9d9c04bf7000000000000000000000000000000000000000000034f086f3b33b684000000",
        "nonce": "0x4db",
        "chainId": "0xaa36a7"
      },
      "additionalContracts": [],
      "isFixedGasLimit": false
    },
    {
      "hash": "0xc2c68c126551dd1f93dda56c546c9ee5d53881101ea4e8996495768b2e8df992",
      "transactionType": "CALL",
      "contractName": null,
      "contractAddress": "0xbb46678a1f6c527bd79ecfbf85332b8ae83ceaf1",
      "function": "mint(address,uint256)",
      "arguments": [
        "0x10Db2E70118e5FBeDa30391ec957e608C9E4517E",
        "4000000000000000000000000"
      ],
      "transaction": {
        "from": "0x993461bbf7e553eb5bd1f5248a72b524c4a3b15d",
        "to": "0xbb46678a1f6c527bd79ecfbf85332b8ae83ceaf1",
        "gas": "0xc681",
        "value": "0x0",
        "input": "0x40c10f1900000000000000000000000010db2e70118e5fbeda30391ec957e608c9e4517e000000000000000000000000000000000000000000034f086f3b33b684000000",
        "nonce": "0x4dc",
        "chainId": "0xaa36a7"
      },
      "additionalContracts": [],
      "isFixedGasLimit": false
    },
    {
      "hash": "0xb67980ff62f4bfc342b0241a0458e0cfdfb097b92a4dda6a371425221c22b1e9",
      "transactionType": "CALL",
      "contractName": null,
      "contractAddress": "0xbb46678a1f6c527bd79ecfbf85332b8ae83ceaf1",
      "function": "approve(address,uint256)",
      "arguments": [
        "0xB3ded68B70Fc782bc9E32FF64d2a3b19AC724481",
        "4000000000000000000000000"
      ],
      "transaction": {
        "from": "0x474b4e7fd1a143edea6b77aa845f429d443e6410",
        "to": "0xbb46678a1f6c527bd79ecfbf85332b8ae83ceaf1",
        "gas": "0xfd53",
        "value": "0x0",
        "input": "0x095ea7b3000000000000000000000000b3ded68b70fc782bc9e32ff64d2a3b19ac724481000000000000000000000000000000000000000000034f086f3b33b684000000",
        "nonce": "0x54",
        "chainId": "0xaa36a7"
      },
      "additionalContracts": [],
      "isFixedGasLimit": false
    },
    {
      "hash": "0x68d888c81544aab3779f476a9fe9a6c510eb526cf2f15cf3afbf70d9d92cccb1",
      "transactionType": "CALL",
      "contractName": "MarginVault",
      "contractAddress": "0xb3ded68b70fc782bc9e32ff64d2a3b19ac724481",
      "function": "depositMargin(bytes32,address,uint256)",
      "arguments": [
        "0x000000000000000000000000474b4e7fd1a143edea6b77aa845f429d443e6410",
        "0xbb46678a1F6C527bD79eCFBF85332B8Ae83ceaf1",
        "4000000000000000000000000"
      ],
      "transaction": {
        "from": "0x474b4e7fd1a143edea6b77aa845f429d443e6410",
        "to": "0xb3ded68b70fc782bc9e32ff64d2a3b19ac724481",
        "gas": "0x2cf03",
        "value": "0x0",
        "input": "0x6812d315000000000000000000000000474b4e7fd1a143edea6b77aa845f429d443e6410000000000000000000000000bb46678a1f6c527bd79ecfbf85332b8ae83ceaf1000000000000000000000000000000000000000000034f086f3b33b684000000",
        "nonce": "0x55",
        "chainId": "0xaa36a7"
      },
      "additionalContracts": [],
      "isFixedGasLimit": false
    },
    {
      "hash": "0xa33854826d402a93c1f2ba859773936d9fa3e61ac8eb6ffa338ac4c4591027b4",
      "transactionType": "CALL",
      "contractName": null,
      "contractAddress": "0xbb46678a1f6c527bd79ecfbf85332b8ae83ceaf1",
      "function": "approve(address,uint256)",
      "arguments": [
        "0xB3ded68B70Fc782bc9E32FF64d2a3b19AC724481",
        "4000000000000000000000000"
      ],
      "transaction": {
        "from": "0xf68d9e0faa751ad61e0ed70852798bf9d9c04bf7",
        "to": "0xbb46678a1f6c527bd79ecfbf85332b8ae83ceaf1",
        "gas": "0xfd53",
        "value": "0x0",
        "input": "0x095ea7b3000000000000000000000000b3ded68b70fc782bc9e32ff64d2a3b19ac724481000000000000000000000000000000000000000000034f086f3b33b684000000",
        "nonce": "0x52",
        "chainId": "0xaa36a7"
      },
      "additionalContracts": [],
      "isFixedGasLimit": false
    },
    {
      "hash": "0x1d47f22a409368a8cf5eb83fc39565bd22f322e311b930464473ce1ed0bf7b81",
      "transactionType": "CALL",
      "contractName": "MarginVault",
      "contractAddress": "0xb3ded68b70fc782bc9e32ff64d2a3b19ac724481",
      "function": "depositMargin(bytes32,address,uint256)",
      "arguments": [
        "0x000000000000000000000000f68d9e0faa751ad61e0ed70852798bf9d9c04bf7",
        "0xbb46678a1F6C527bD79eCFBF85332B8Ae83ceaf1",
        "4000000000000000000000000"
      ],
      "transaction": {
        "from": "0xf68d9e0faa751ad61e0ed70852798bf9d9c04bf7",
        "to": "0xb3ded68b70fc782bc9e32ff64d2a3b19ac724481",
        "gas": "0x24acd",
        "value": "0x0",
        "input": "0x6812d315000000000000000000000000f68d9e0faa751ad61e0ed70852798bf9d9c04bf7000000000000000000000000bb46678a1f6c527bd79ecfbf85332b8ae83ceaf1000000000000000000000000000000000000000000034f086f3b33b684000000",
        "nonce": "0x53",
        "chainId": "0xaa36a7"
      },
      "additionalContracts": [],
      "isFixedGasLimit": false
    },
    {
      "hash": "0xa626e1e01295ce6bc29832af90de791487b228d16cb8179e404c0bf857fd5265",
      "transactionType": "CALL",
      "contractName": null,
      "contractAddress": "0xbb46678a1f6c527bd79ecfbf85332b8ae83ceaf1",
      "function": "approve(address,uint256)",
      "arguments": [
        "0xB3ded68B70Fc782bc9E32FF64d2a3b19AC724481",
        "4000000000000000000000000"
      ],
      "transaction": {
        "from": "0x10db2e70118e5fbeda30391ec957e608c9e4517e",
        "to": "0xbb46678a1f6c527bd79ecfbf85332b8ae83ceaf1",
        "gas": "0xfd53",
        "value": "0x0",
        "input": "0x095ea7b3000000000000000000000000b3ded68b70fc782bc9e32ff64d2a3b19ac724481000000000000000000000000000000000000000000034f086f3b33b684000000",
        "nonce": "0x1f",
        "chainId": "0xaa36a7"
      },
      "additionalContracts": [],
      "isFixedGasLimit": false
    },
    {
      "hash": "0x57ab7ee383a714d70c561cdf2b917e0efed7a3f3157f67c99ead8aadde374a47",
      "transactionType": "CALL",
      "contractName": "MarginVault",
      "contractAddress": "0xb3ded68b70fc782bc9e32ff64d2a3b19ac724481",
      "function": "depositMargin(bytes32,address,uint256)",
      "arguments": [
        "0x00000000000000000000000010db2e70118e5fbeda30391ec957e608c9e4517e",
        "0xbb46678a1F6C527bD79eCFBF85332B8Ae83ceaf1",
        "4000000000000000000000000"
      ],
      "transaction": {
        "from": "0x10db2e70118e5fbeda30391ec957e608c9e4517e",
        "to": "0xb3ded68b70fc782bc9e32ff64d2a3b19ac724481",
        "gas": "0x24acd",
        "value": "0x0",
        "input": "0x6812d31500000000000000000000000010db2e70118e5fbeda30391ec957e608c9e4517e000000000000000000000000bb46678a1f6c527bd79ecfbf85332b8ae83ceaf1000000000000000000000000000000000000000000034f086f3b33b684000000",
        "nonce": "0x20",
        "chainId": "0xaa36a7"
      },
      "additionalContracts": [],
      "isFixedGasLimit": false
    }
  ],
  "receipts": [
    {
      "status": "0x1",
      "cumulativeGasUsed": "0xf4555d",
      "logs": [
        {
          "address": "0xbb46678a1f6c527bd79ecfbf85332b8ae83ceaf1",
          "topics": [
            "0xddf252ad1be2c89b69c2b068fc378daa952ba7f163c4a11628f55a4df523b3ef",
            "0x0000000000000000000000000000000000000000000000000000000000000000",
            "0x000000000000000000000000474b4e7fd1a143edea6b77aa845f429d443e6410"
          ],
          "data": "0x000000000000000000000000000000000000000000034f086f3b33b684000000",
          "blockHash": "0x1cff2594955ff33f59efcae4289fdb3ff3bf4a4841b070610e892de20eae21b5",
          "blockNumber": "0x9e9e7e",
          "blockTimestamp": "0x69aa970c",
          "transactionHash": "0x04281f0765cb78a83f0d8f8770c6d91f3fda830369a71456a1331a18e3dcf7ed",
          "transactionIndex": "0x91",
          "logIndex": "0x116",
          "removed": false
        }
      ],
      "logsBloom": "0x00000000000000000000000000000000000000000000000000000000000000000000000000000000000000000000000000000000000000000000000000000000000000000000000000000008000000000000000000000000000000000000000000400000020000000000000000000800000000000000000000000010000000000100000008000000000000000000000000000000000000000000000000000000000000000000000000000000000000000000000000000000000100000000000000000002000000000000000000000000000000008000000000000010000020000000000000000000000000000000000000000000000000000000000000000000",
      "type": "0x2",
      "transactionHash": "0x04281f0765cb78a83f0d8f8770c6d91f3fda830369a71456a1331a18e3dcf7ed",
      "transactionIndex": "0x91",
      "blockHash": "0x1cff2594955ff33f59efcae4289fdb3ff3bf4a4841b070610e892de20eae21b5",
      "blockNumber": "0x9e9e7e",
      "gasUsed": "0x87bb",
      "effectiveGasPrice": "0x2073cf25",
      "from": "0x993461bbf7e553eb5bd1f5248a72b524c4a3b15d",
      "to": "0xbb46678a1f6c527bd79ecfbf85332b8ae83ceaf1",
      "contractAddress": null
    },
    {
      "status": "0x1",
      "cumulativeGasUsed": "0x7bfe30",
      "logs": [
        {
          "address": "0xbb46678a1f6c527bd79ecfbf85332b8ae83ceaf1",
          "topics": [
            "0xddf252ad1be2c89b69c2b068fc378daa952ba7f163c4a11628f55a4df523b3ef",
            "0x0000000000000000000000000000000000000000000000000000000000000000",
            "0x000000000000000000000000f68d9e0faa751ad61e0ed70852798bf9d9c04bf7"
          ],
          "data": "0x000000000000000000000000000000000000000000034f086f3b33b684000000",
          "blockHash": "0x8ee26ea917f35320d3ab943e49d457c3a866634677fd743858dabd0a98241690",
          "blockNumber": "0x9e9e7f",
          "blockTimestamp": "0x69aa9718",
          "transactionHash": "0xfa56d18ff7657f9852c206b34b5335130e4d931e27054c84a0247a763049b3cc",
          "transactionIndex": "0x4a",
          "logIndex": "0x8c",
          "removed": false
        }
      ],
      "logsBloom": "0x00000000000000000000000000000000000000000000000000000000000000800000000000000000000000000000000000000000000000000000000000000000000000000000000000000008000000000000000000000000000000000000000000000000020000000000000000000800000000000000000000000010000000000100000008000000000000000000000000000000000000000000000000000000000000000000000000000000000000000400000000000000000000000000000000000002000000000000000000000001000000008000000000000000000020000000000000000000000000000000000000000000000000000000000000000000",
      "type": "0x2",
      "transactionHash": "0xfa56d18ff7657f9852c206b34b5335130e4d931e27054c84a0247a763049b3cc",
      "transactionIndex": "0x4a",
      "blockHash": "0x8ee26ea917f35320d3ab943e49d457c3a866634677fd743858dabd0a98241690",
      "blockNumber": "0x9e9e7f",
      "gasUsed": "0x87bb",
      "effectiveGasPrice": "0x2225f921",
      "from": "0x993461bbf7e553eb5bd1f5248a72b524c4a3b15d",
      "to": "0xbb46678a1f6c527bd79ecfbf85332b8ae83ceaf1",
      "contractAddress": null
    },
    {
      "status": "0x1",
      "cumulativeGasUsed": "0xb06a7c",
      "logs": [
        {
          "address": "0xbb46678a1f6c527bd79ecfbf85332b8ae83ceaf1",
          "topics": [
            "0xddf252ad1be2c89b69c2b068fc378daa952ba7f163c4a11628f55a4df523b3ef",
            "0x0000000000000000000000000000000000000000000000000000000000000000",
            "0x00000000000000000000000010db2e70118e5fbeda30391ec957e608c9e4517e"
          ],
          "data": "0x000000000000000000000000000000000000000000034f086f3b33b684000000",
          "blockHash": "0xd6755c8f2a370db8daf9e913d0055ffa38f618fd97c6aa327c86b7665b7155b9",
          "blockNumber": "0x9e9e80",
          "blockTimestamp": "0x69aa9724",
          "transactionHash": "0xc2c68c126551dd1f93dda56c546c9ee5d53881101ea4e8996495768b2e8df992",
          "transactionIndex": "0x5b",
          "logIndex": "0x97",
          "removed": false
        }
      ],
      "logsBloom": "0x00000000000000000000000000000000000000000000000000000000000000000000000000000000000000000000000000000000000000000000000000000000000000000000000000000008000000000000000000000000000000000000000000000000020000000000000000000800000000000000000000000010000000000100000008000000000000000000000000000000000000000000000000000000000000000000000000000000000000000000000000000000000000000000000000000002000000000000000041000000000000008000000000000000000020000000000000000000000080000000000000000000000000000000000000000000",
      "type": "0x2",
      "transactionHash": "0xc2c68c126551dd1f93dda56c546c9ee5d53881101ea4e8996495768b2e8df992",
      "transactionIndex": "0x5b",
      "blockHash": "0xd6755c8f2a370db8daf9e913d0055ffa38f618fd97c6aa327c86b7665b7155b9",
      "blockNumber": "0x9e9e80",
      "gasUsed": "0x87bb",
      "effectiveGasPrice": "0x211e1d52",
      "from": "0x993461bbf7e553eb5bd1f5248a72b524c4a3b15d",
      "to": "0xbb46678a1f6c527bd79ecfbf85332b8ae83ceaf1",
      "contractAddress": null
    },
    {
      "status": "0x1",
      "cumulativeGasUsed": "0xd9555d",
      "logs": [
        {
          "address": "0xbb46678a1f6c527bd79ecfbf85332b8ae83ceaf1",
          "topics": [
            "0x8c5be1e5ebec7d5bd14f71427d1e84f3dd0314c0f7b2291e5b200ac8c7c3b925",
            "0x000000000000000000000000474b4e7fd1a143edea6b77aa845f429d443e6410",
            "0x000000000000000000000000b3ded68b70fc782bc9e32ff64d2a3b19ac724481"
          ],
          "data": "0x000000000000000000000000000000000000000000034f086f3b33b684000000",
          "blockHash": "0xed1bdeefbafe595753fc08eb4e37a11cb430c9315ab6464385ac82bd05012304",
          "blockNumber": "0x9e9e81",
          "blockTimestamp": "0x69aa9730",
          "transactionHash": "0xb67980ff62f4bfc342b0241a0458e0cfdfb097b92a4dda6a371425221c22b1e9",
          "transactionIndex": "0x6d",
          "logIndex": "0xbd",
          "removed": false
        }
      ],
      "logsBloom": "0x00000000000000000000000000000000000000000000020000000000000000000000000000800000000000000000000000000000000000000000000000200000000000000000000000000000000000000000000000000000000000000000000000400000000000000000000000000000000000000000000000000000000000000100000008000000000000000000000000000000000000000000000000000000020000000000000000000000000000000000000000000000000100000000000000000000000000000000000000000000000000008000000000000010000000000010020000000000000000000000000000000000000000000000000000000000",
      "type": "0x2",
      "transactionHash": "0xb67980ff62f4bfc342b0241a0458e0cfdfb097b92a4dda6a371425221c22b1e9",
      "transactionIndex": "0x6d",
      "blockHash": "0xed1bdeefbafe595753fc08eb4e37a11cb430c9315ab6464385ac82bd05012304",
      "blockNumber": "0x9e9e81",
      "gasUsed": "0xb768",
      "effectiveGasPrice": "0x20bc985c",
      "from": "0x474b4e7fd1a143edea6b77aa845f429d443e6410",
      "to": "0xbb46678a1f6c527bd79ecfbf85332b8ae83ceaf1",
      "contractAddress": null
    },
    {
      "status": "0x1",
      "cumulativeGasUsed": "0x125b904",
      "logs": [
        {
          "address": "0xbb46678a1f6c527bd79ecfbf85332b8ae83ceaf1",
          "topics": [
            "0xddf252ad1be2c89b69c2b068fc378daa952ba7f163c4a11628f55a4df523b3ef",
            "0x000000000000000000000000474b4e7fd1a143edea6b77aa845f429d443e6410",
            "0x000000000000000000000000b3ded68b70fc782bc9e32ff64d2a3b19ac724481"
          ],
          "data": "0x000000000000000000000000000000000000000000034f086f3b33b684000000",
          "blockHash": "0x8d50c467f4acc139af6a04cd1e2fa0ea5f63494385d24dad6570d850a5550f30",
          "blockNumber": "0x9e9e82",
          "blockTimestamp": "0x69aa973c",
          "transactionHash": "0x68d888c81544aab3779f476a9fe9a6c510eb526cf2f15cf3afbf70d9d92cccb1",
          "transactionIndex": "0x77",
          "logIndex": "0x14a",
          "removed": false
        },
        {
          "address": "0xb3ded68b70fc782bc9e32ff64d2a3b19ac724481",
          "topics": [
            "0x30f6180e248310ab0c789da3026fbba7390872be072cfc5b3c20733f3a980c9e",
            "0x000000000000000000000000474b4e7fd1a143edea6b77aa845f429d443e6410",
            "0x000000000000000000000000bb46678a1f6c527bd79ecfbf85332b8ae83ceaf1"
          ],
          "data": "0x000000000000000000000000000000000000000000034f086f3b33b684000000",
          "blockHash": "0x8d50c467f4acc139af6a04cd1e2fa0ea5f63494385d24dad6570d850a5550f30",
          "blockNumber": "0x9e9e82",
          "blockTimestamp": "0x69aa973c",
          "transactionHash": "0x68d888c81544aab3779f476a9fe9a6c510eb526cf2f15cf3afbf70d9d92cccb1",
          "transactionIndex": "0x77",
          "logIndex": "0x14b",
          "removed": false
        }
      ],
      "logsBloom": "0x00200000000000000000000000000000000000000000020000000000000000000000000000800000000000000000000000000000000000000000000000000000000000000000000000000008000000000000000000000000000000000000000000400000000000000000000000000000000000000000000000000010000000000100000008000001000000000000000000000000000000000000000000000000200000000000000000000000000000000002000040000000000100000000000000000002000001000000000000000001000800008000000000000010000000000000020000000000000000000000000000000000000000000000000400000000",
      "type": "0x2",
      "transactionHash": "0x68d888c81544aab3779f476a9fe9a6c510eb526cf2f15cf3afbf70d9d92cccb1",
      "transactionIndex": "0x77",
      "blockHash": "0x8d50c467f4acc139af6a04cd1e2fa0ea5f63494385d24dad6570d850a5550f30",
      "blockNumber": "0x9e9e82",
      "gasUsed": "0x1eba2",
      "effectiveGasPrice": "0x20145765",
      "from": "0x474b4e7fd1a143edea6b77aa845f429d443e6410",
      "to": "0xb3ded68b70fc782bc9e32ff64d2a3b19ac724481",
      "contractAddress": null
    },
    {
      "status": "0x1",
      "cumulativeGasUsed": "0x9bb94c",
      "logs": [
        {
          "address": "0xbb46678a1f6c527bd79ecfbf85332b8ae83ceaf1",
          "topics": [
            "0x8c5be1e5ebec7d5bd14f71427d1e84f3dd0314c0f7b2291e5b200ac8c7c3b925",
            "0x000000000000000000000000f68d9e0faa751ad61e0ed70852798bf9d9c04bf7",
            "0x000000000000000000000000b3ded68b70fc782bc9e32ff64d2a3b19ac724481"
          ],
          "data": "0x000000000000000000000000000000000000000000034f086f3b33b684000000",
          "blockHash": "0x26e503dfeda3fa66da4793b4c8ae5835cdec727229de721c113967606a017d2a",
          "blockNumber": "0x9e9e83",
          "blockTimestamp": "0x69aa9748",
          "transactionHash": "0xa33854826d402a93c1f2ba859773936d9fa3e61ac8eb6ffa338ac4c4591027b4",
          "transactionIndex": "0x6f",
          "logIndex": "0xaf",
          "removed": false
        }
      ],
      "logsBloom": "0x00000000000000000000000000000000000000000000020000000000000000800000000000800000000000000000000000000000000000000000000000200000000000000000000000000000000000000000000000000000000000000000000000000000000000000000000000000000000000000000000000000000000000000100000008000000000000000000000000000000000000000000000000000000020000000000000000000000000000000400000000000000000000000000000000000000000000000000000000000001000000008000000000000000000000000010020000000000000000000000000000000000000000000000000000000000",
      "type": "0x2",
      "transactionHash": "0xa33854826d402a93c1f2ba859773936d9fa3e61ac8eb6ffa338ac4c4591027b4",
      "transactionIndex": "0x6f",
      "blockHash": "0x26e503dfeda3fa66da4793b4c8ae5835cdec727229de721c113967606a017d2a",
      "blockNumber": "0x9e9e83",
      "gasUsed": "0xb768",
      "effectiveGasPrice": "0x201d2de7",
      "from": "0xf68d9e0faa751ad61e0ed70852798bf9d9c04bf7",
      "to": "0xbb46678a1f6c527bd79ecfbf85332b8ae83ceaf1",
      "contractAddress": null
    },
    {
      "status": "0x1",
      "cumulativeGasUsed": "0xa6098b",
      "logs": [
        {
          "address": "0xbb46678a1f6c527bd79ecfbf85332b8ae83ceaf1",
          "topics": [
            "0xddf252ad1be2c89b69c2b068fc378daa952ba7f163c4a11628f55a4df523b3ef",
            "0x000000000000000000000000f68d9e0faa751ad61e0ed70852798bf9d9c04bf7",
            "0x000000000000000000000000b3ded68b70fc782bc9e32ff64d2a3b19ac724481"
          ],
          "data": "0x000000000000000000000000000000000000000000034f086f3b33b684000000",
          "blockHash": "0x6d59d8184c1b8ffc34dc5ef2dc31f54a25e94ace02f2bf13bcdb6c1572f40832",
          "blockNumber": "0x9e9e84",
          "blockTimestamp": "0x69aa9754",
          "transactionHash": "0x1d47f22a409368a8cf5eb83fc39565bd22f322e311b930464473ce1ed0bf7b81",
          "transactionIndex": "0x53",
          "logIndex": "0xb7",
          "removed": false
        },
        {
          "address": "0xb3ded68b70fc782bc9e32ff64d2a3b19ac724481",
          "topics": [
            "0x30f6180e248310ab0c789da3026fbba7390872be072cfc5b3c20733f3a980c9e",
            "0x000000000000000000000000f68d9e0faa751ad61e0ed70852798bf9d9c04bf7",
            "0x000000000000000000000000bb46678a1f6c527bd79ecfbf85332b8ae83ceaf1"
          ],
          "data": "0x000000000000000000000000000000000000000000034f086f3b33b684000000",
          "blockHash": "0x6d59d8184c1b8ffc34dc5ef2dc31f54a25e94ace02f2bf13bcdb6c1572f40832",
          "blockNumber": "0x9e9e84",
          "blockTimestamp": "0x69aa9754",
          "transactionHash": "0x1d47f22a409368a8cf5eb83fc39565bd22f322e311b930464473ce1ed0bf7b81",
          "transactionIndex": "0x53",
          "logIndex": "0xb8",
          "removed": false
        }
      ],
      "logsBloom": "0x00200000000000000000000000000000000000000000020000000000000000800000000000800000000000000000000000000000000000000000000000000000000000000000000000000008000000000000000000000000000000000000000000000000000000000000000000000000000000000000000000000010000000000100000008000001000000000000000000000000000000000000000000000000200000000000000000000000000000000402000040000000000000000000000000000002000001000000000000000001000800008000000000000000000000000000020000000000000000000000000000000000000000000000000400000000",
      "type": "0x2",
      "transactionHash": "0x1d47f22a409368a8cf5eb83fc39565bd22f322e311b930464473ce1ed0bf7b81",
      "transactionIndex": "0x53",
      "blockHash": "0x6d59d8184c1b8ffc34dc5ef2dc31f54a25e94ace02f2bf13bcdb6c1572f40832",
      "blockNumber": "0x9e9e84",
      "gasUsed": "0x1a8d6",
      "effectiveGasPrice": "0x205b0975",
      "from": "0xf68d9e0faa751ad61e0ed70852798bf9d9c04bf7",
      "to": "0xb3ded68b70fc782bc9e32ff64d2a3b19ac724481",
      "contractAddress": null
    },
    {
      "status": "0x1",
      "cumulativeGasUsed": "0xf0b330",
      "logs": [
        {
          "address": "0xbb46678a1f6c527bd79ecfbf85332b8ae83ceaf1",
          "topics": [
            "0x8c5be1e5ebec7d5bd14f71427d1e84f3dd0314c0f7b2291e5b200ac8c7c3b925",
            "0x00000000000000000000000010db2e70118e5fbeda30391ec957e608c9e4517e",
            "0x000000000000000000000000b3ded68b70fc782bc9e32ff64d2a3b19ac724481"
          ],
          "data": "0x000000000000000000000000000000000000000000034f086f3b33b684000000",
          "blockHash": "0x78a8d806ac97a10d7348a1fa3b03ac56772a61a12b8570c01498e4e9aed6a4b8",
          "blockNumber": "0x9e9e85",
          "blockTimestamp": "0x69aa9760",
          "transactionHash": "0xa626e1e01295ce6bc29832af90de791487b228d16cb8179e404c0bf857fd5265",
          "transactionIndex": "0x6e",
          "logIndex": "0xd6",
          "removed": false
        }
      ],
      "logsBloom": "0x00000000000000000000000000000000000000000000020000000000000000000000000000800000000000000000000000000000000000000000000000200000000000000000000000000000000000000000000000000000000000000000000000000000000000000000000000000000000000000000000000000000000000000100000008000000000000000000000000000000000000000000000000000000020000000000000000000000000000000000000000000000000000000000000000000000000000000000000041000000000000008000000000000000000000000010020000000000000080000000000000000000000000000000000000000000",
      "type": "0x2",
      "transactionHash": "0xa626e1e01295ce6bc29832af90de791487b228d16cb8179e404c0bf857fd5265",
      "transactionIndex": "0x6e",
      "blockHash": "0x78a8d806ac97a10d7348a1fa3b03ac56772a61a12b8570c01498e4e9aed6a4b8",
      "blockNumber": "0x9e9e85",
      "gasUsed": "0xb768",
      "effectiveGasPrice": "0x1f5e1b31",
      "from": "0x10db2e70118e5fbeda30391ec957e608c9e4517e",
      "to": "0xbb46678a1f6c527bd79ecfbf85332b8ae83ceaf1",
      "contractAddress": null
    },
    {
      "status": "0x1",
      "cumulativeGasUsed": "0xcab0c2",
      "logs": [
        {
          "address": "0xbb46678a1f6c527bd79ecfbf85332b8ae83ceaf1",
          "topics": [
            "0xddf252ad1be2c89b69c2b068fc378daa952ba7f163c4a11628f55a4df523b3ef",
            "0x00000000000000000000000010db2e70118e5fbeda30391ec957e608c9e4517e",
            "0x000000000000000000000000b3ded68b70fc782bc9e32ff64d2a3b19ac724481"
          ],
          "data": "0x000000000000000000000000000000000000000000034f086f3b33b684000000",
          "blockHash": "0x7b9fe9c3821d11adbdafce1d629fe3c5792ef09c3068eb73f4f7490add15338d",
          "blockNumber": "0x9e9e86",
          "blockTimestamp": "0x69aa976c",
          "transactionHash": "0x57ab7ee383a714d70c561cdf2b917e0efed7a3f3157f67c99ead8aadde374a47",
          "transactionIndex": "0x94",
          "logIndex": "0xb2",
          "removed": false
        },
        {
          "address": "0xb3ded68b70fc782bc9e32ff64d2a3b19ac724481",
          "topics": [
            "0x30f6180e248310ab0c789da3026fbba7390872be072cfc5b3c20733f3a980c9e",
            "0x00000000000000000000000010db2e70118e5fbeda30391ec957e608c9e4517e",
            "0x000000000000000000000000bb46678a1f6c527bd79ecfbf85332b8ae83ceaf1"
          ],
          "data": "0x000000000000000000000000000000000000000000034f086f3b33b684000000",
          "blockHash": "0x7b9fe9c3821d11adbdafce1d629fe3c5792ef09c3068eb73f4f7490add15338d",
          "blockNumber": "0x9e9e86",
          "blockTimestamp": "0x69aa976c",
          "transactionHash": "0x57ab7ee383a714d70c561cdf2b917e0efed7a3f3157f67c99ead8aadde374a47",
          "transactionIndex": "0x94",
          "logIndex": "0xb3",
          "removed": false
        }
      ],
      "logsBloom": "0x00200000000000000000000000000000000000000000020000000000000000000000000000800000000000000000000000000000000000000000000000000000000000000000000000000008000000000000000000000000000000000000000000000000000000000000000000000000000000000000000000000010000000000100000008000001000000000000000000000000000000000000000000000000200000000000000000000000000000000002000040000000000000000000000000000002000001000000000041000001000800008000000000000000000000000000020000000000000080000000000000000000000000000000000400000000",
      "type": "0x2",
      "transactionHash": "0x57ab7ee383a714d70c561cdf2b917e0efed7a3f3157f67c99ead8aadde374a47",
      "transactionIndex": "0x94",
      "blockHash": "0x7b9fe9c3821d11adbdafce1d629fe3c5792ef09c3068eb73f4f7490add15338d",
      "blockNumber": "0x9e9e86",
      "gasUsed": "0x1a8d6",
      "effectiveGasPrice": "0x1ee63760",
      "from": "0x10db2e70118e5fbeda30391ec957e608c9e4517e",
      "to": "0xb3ded68b70fc782bc9e32ff64d2a3b19ac724481",
      "contractAddress": null
    }
  ],
  "libraries": [],
  "pending": [],
  "returns": {},
  "timestamp": 1772787565713,
  "chain": 11155111,
  "commit": "6cd6e4d"
}