{
  "transactions": [
    {
      "hash": "0xdcb7ea050856e9284af689acae4b23418f22002ac784b3439014b646d0453402",
      "transactionType": "CALL",
      "contractName": null,
      "contractAddress": "0xbb46678a1f6c527bd79ecfbf85332b8ae83ceaf1",
      "function": "mint(address,uint256)",
      "arguments": [
        "0x474B4E7FD1A143eDea6b77aa845F429D443E6410",
        "4000000000000000000000000"
      ],
      "transaction": {
        "from": "0x993461bbf7e553eb5bd1f5248a72b524c4a3b15d",
        "to": "0xbb46678a1f6c527bd79ecfbf85332b8ae83ceaf1",
        "gas": "0xc681",
        "value": "0x0",
        "input": "0x40c10f19000000000000000000000000474b4e7fd1a143edea6b77aa845f429d443e6410000000000000000000000000000000000000000000034f086f3b33b684000000",
        "nonce": "0x29c",
        "chainId": "0xaa36a7"
      },
      "additionalContracts": [],
      "isFixedGasLimit": false
    },
    {
      "hash": "0x8fd598274665ce14ae1a30404a1f94aca270ae0b0e6a79a86dd7c8fddfbdb977",
      "transactionType": "CALL",
      "contractName": null,
      "contractAddress": "0xbb46678a1f6c527bd79ecfbf85332b8ae83ceaf1",
      "function": "mint(address,uint256)",
      "arguments": [
        "0xf68D9e0fAa751AD61e0ED70852798bF9D9C04bF7",
        "4000000000000000000000000"
      ],
      "transaction": {
        "from": "0x993461bbf7e553eb5bd1f5248a72b524c4a3b15d",
        "to": "0xbb46678a1f6c527bd79ecfbf85332b8ae83ceaf1",
        "gas": "0xc681",
        "value": "0x0",
        "input": "0x40c10f19000000000000000000000000f68d9e0faa751ad61e0ed70852798bf9d9c04bf7000000000000000000000000000000000000000000034f086f3b33b684000000",
        "nonce": "0x29d",
        "chainId": "0xaa36a7"
      },
      "additionalContracts": [],
      "isFixedGasLimit": false
    },
    {
      "hash": "0x616ed0de6d5860474c07c5f0a54cadc4f41a0c871e844f7d499c60915c8bd69d",
      "transactionType": "CALL",
      "contractName": null,
      "contractAddress": "0xbb46678a1f6c527bd79ecfbf85332b8ae83ceaf1",
      "function": "approve(address,uint256)",
      "arguments": [
        "0x9036b1d7B51331d6F517b7081074fE181D494BC6",
        "4000000000000000000000000"
      ],
      "transaction": {
        "from": "0x474b4e7fd1a143edea6b77aa845f429d443e6410",
        "to": "0xbb46678a1f6c527bd79ecfbf85332b8ae83ceaf1",
        "gas": "0xfd53",
        "value": "0x0",
        "input": "0x095ea7b30000000000000000000000009036b1d7b51331d6f517b7081074fe181d494bc6000000000000000000000000000000000000000000034f086f3b33b684000000",
        "nonce": "0x20",
        "chainId": "0xaa36a7"
      },
      "additionalContracts": [],
      "isFixedGasLimit": false
    },
    {
      "hash": "0xdeb4a55cfa4bafa17e69fa566240ce3dd02d963b6c9fa7303992c5ea320bcd43",
      "transactionType": "CALL",
      "contractName": "MarginVault",
      "contractAddress": "0x9036b1d7b51331d6f517b7081074fe181d494bc6",
      "function": "depositMargin(bytes32,address,uint256)",
      "arguments": [
        "0x000000000000000000000000474b4e7fd1a143edea6b77aa845f429d443e6410",
        "0xbb46678a1F6C527bD79eCFBF85332B8Ae83ceaf1",
        "4000000000000000000000000"
      ],
      "transaction": {
        "from": "0x474b4e7fd1a143edea6b77aa845f429d443e6410",
        "to": "0x9036b1d7b51331d6f517b7081074fe181d494bc6",
        "gas": "0x19d7f",
        "value": "0x0",
        "input": "0x6812d315000000000000000000000000474b4e7fd1a143edea6b77aa845f429d443e6410000000000000000000000000bb46678a1f6c527bd79ecfbf85332b8ae83ceaf1000000000000000000000000000000000000000000034f086f3b33b684000000",
        "nonce": "0x21",
        "chainId": "0xaa36a7"
      },
      "additionalContracts": [],
      "isFixedGasLimit": false
    },
    {
      "hash": "0x09f22122f83efa8e0a3cdbe5a25787eedddc7570e0c5f5a94a5f250c7869b534",
      "transactionType": "CALL",
      "contractName": null,
      "contractAddress": "0xbb46678a1f6c527bd79ecfbf85332b8ae83ceaf1",
      "function": "approve(address,uint256)",
      "arguments": [
        "0x9036b1d7B51331d6F517b7081074fE181D494BC6",
        "4000000000000000000000000"
      ],
      "transaction": {
        "from": "0xf68d9e0faa751ad61e0ed70852798bf9d9c04bf7",
        "to": "0xbb46678a1f6c527bd79ecfbf85332b8ae83ceaf1",
        "gas": "0xfd53",
        "value": "0x0",
        "input": "0x095ea7b30000000000000000000000009036b1d7b51331d6f517b7081074fe181d494bc6000000000000000000000000000000000000000000034f086f3b33b684000000",
        "nonce": "0x1e",
        "chainId": "0xaa36a7"
      },
      "additionalContracts": [],
      "isFixedGasLimit": false
    },
    {
      "hash": "0x5dd881758dbf6268634de7dc35df643ac9af63a84fb51f4f06eee389e433c8de",
      "transactionType": "CALL",
      "contractName": "MarginVault",
      "contractAddress": "0x9036b1d7b51331d6f517b7081074fe181d494bc6",
      "function": "depositMargin(bytes32,address,uint256)",
      "arguments": [
        "0x000000000000000000000000f68d9e0faa751ad61e0ed70852798bf9d9c04bf7",
        "0xbb46678a1F6C527bD79eCFBF85332B8Ae83ceaf1",
        "4000000000000000000000000"
      ],
      "transaction": {
        "from": "0xf68d9e0faa751ad61e0ed70852798bf9d9c04bf7",
        "to": "0x9036b1d7b51331d6f517b7081074fe181d494bc6",
        "gas": "0x19d7f",
        "value": "0x0",
        "input": "0x6812d315000000000000000000000000f68d9e0faa751ad61e0ed70852798bf9d9c04bf7000000000000000000000000bb46678a1f6c527bd79ecfbf85332b8ae83ceaf1000000000000000000000000000000000000000000034f086f3b33b684000000",
        "nonce": "0x1f",
        "chainId": "0xaa36a7"
      },
      "additionalContracts": [],
      "isFixedGasLimit": false
    }
  ],
  "receipts": [
    {
      "status": "0x1",
      "cumulativeGasUsed": "0x10cf72f",
      "logs": [
        {
          "address": "0xbb46678a1f6c527bd79ecfbf85332b8ae83ceaf1",
          "topics": [
            "0xddf252ad1be2c89b69c2b068fc378daa952ba7f163c4a11628f55a4df523b3ef",
            "0x0000000000000000000000000000000000000000000000000000000000000000",
            "0x000000000000000000000000474b4e7fd1a143edea6b77aa845f429d443e6410"
          ],
          "data": "0x000000000000000000000000000000000000000000034f086f3b33b684000000",
          "blockHash": "0x11fd5b2c37f76be76ab6f88e7e4fd79b0d8d90ded410085b34fd17b8a93d5f65",
          "blockNumber": "0x9e4813",
          "blockTimestamp": "0x69a660d4",
          "transactionHash": "0xdcb7ea050856e9284af689acae4b23418f22002ac784b3439014b646d0453402",
          "transactionIndex": "0x8a",
          "logIndex": "0xf9",
          "removed": false
        }
      ],
      "logsBloom": "0x00000000000000000000000000000000000000000000000000000000000000000000000000000000000000000000000000000000000000000000000000000000000000000000000000000008000000000000000000000000000000000000000000400000020000000000000000000800000000000000000000000010000000000100000008000000000000000000000000000000000000000000000000000000000000000000000000000000000000000000000000000000000100000000000000000002000000000000000000000000000000008000000000000010000020000000000000000000000000000000000000000000000000000000000000000000",
      "type": "0x2",
      "transactionHash": "0xdcb7ea050856e9284af689acae4b23418f22002ac784b3439014b646d0453402",
      "transactionIndex": "0x8a",
      "blockHash": "0x11fd5b2c37f76be76ab6f88e7e4fd79b0d8d90ded410085b34fd17b8a93d5f65",
      "blockNumber": "0x9e4813",
      "gasUsed": "0x87bb",
      "effectiveGasPrice": "0xf4249",
      "from": "0x993461bbf7e553eb5bd1f5248a72b524c4a3b15d",
      "to": "0xbb46678a1f6c527bd79ecfbf85332b8ae83ceaf1",
      "contractAddress": null
    },
    {
      "status": "0x1",
      "cumulativeGasUsed": "0x69afb6",
      "logs": [
        {
          "address": "0xbb46678a1f6c527bd79ecfbf85332b8ae83ceaf1",
          "topics": [
            "0xddf252ad1be2c89b69c2b068fc378daa952ba7f163c4a11628f55a4df523b3ef",
            "0x0000000000000000000000000000000000000000000000000000000000000000",
            "0x000000000000000000000000f68d9e0faa751ad61e0ed70852798bf9d9c04bf7"
          ],
          "data": "0x000000000000000000000000000000000000000000034f086f3b33b684000000",
          "blockHash": "0x2fb219a8f0d6f84d2bdad8dcbe1dc3fa923c27215dce573d4b1fdb5815675480",
          "blockNumber": "0x9e4814",
          "blockTimestamp": "0x69a660e0",
          "transactionHash": "0x8fd598274665ce14ae1a30404a1f94aca270ae0b0e6a79a86dd7c8fddfbdb977",
          "transactionIndex": "0x46",
          "logIndex": "0x64",
          "removed": false
        }
      ],
      "logsBloom": "0x00000000000000000000000000000000000000000000000000000000000000800000000000000000000000000000000000000000000000000000000000000000000000000000000000000008000000000000000000000000000000000000000000000000020000000000000000000800000000000000000000000010000000000100000008000000000000000000000000000000000000000000000000000000000000000000000000000000000000000400000000000000000000000000000000000002000000000000000000000001000000008000000000000000000020000000000000000000000000000000000000000000000000000000000000000000",
      "type": "0x2",
      "transactionHash": "0x8fd598274665ce14ae1a30404a1f94aca270ae0b0e6a79a86dd7c8fddfbdb977",
      "transactionIndex": "0x46",
      "blockHash": "0x2fb219a8f0d6f84d2bdad8dcbe1dc3fa923c27215dce573d4b1fdb5815675480",
      "blockNumber": "0x9e4814",
      "gasUsed": "0x87bb",
      "effectiveGasPrice": "0xf4249",
      "from": "0x993461bbf7e553eb5bd1f5248a72b524c4a3b15d",
      "to": "0xbb46678a1f6c527bd79ecfbf85332b8ae83ceaf1",
      "contractAddress": null
    },
    {
      "status": "0x1",
      "cumulativeGasUsed": "0x6292d2",
      "logs": [
        {
          "address": "0xbb46678a1f6c527bd79ecfbf85332b8ae83ceaf1",
          "topics": [
            "0x8c5be1e5ebec7d5bd14f71427d1e84f3dd0314c0f7b2291e5b200ac8c7c3b925",
            "0x000000000000000000000000474b4e7fd1a143edea6b77aa845f429d443e6410",
            "0x0000000000000000000000009036b1d7b51331d6f517b7081074fe181d494bc6"
          ],
          "data": "0x000000000000000000000000000000000000000000034f086f3b33b684000000",
          "blockHash": "0xc028247df69f59d3f1b18d3b2b916ffad0f96bb3410415fcfb87f5989c89ae17",
          "blockNumber": "0x9e4815",
          "blockTimestamp": "0x69a660ec",
          "transactionHash": "0x616ed0de6d5860474c07c5f0a54cadc4f41a0c871e844f7d499c60915c8bd69d",
          "transactionIndex": "0x3c",
          "logIndex": "0x51",
          "removed": false
        }
      ],
      "logsBloom": "0x00000000000000000000080000000000000000000000000000000000000000000000000000000000000000000000000000000000000000000000000000200000000000000000000000000000000000000000000000000000000000000000000000400000008000000000000000000000000000000000000000000000000000000100000008000000000000000000000000000000000000000000000000000000020000000000000000000000000000000000000000000000000100000000000000000000000000000000000000000000000000008000000080000010000000000010000000000000000000000000000000000000000000000000000000000000",
      "type": "0x2",
      "transactionHash": "0x616ed0de6d5860474c07c5f0a54cadc4f41a0c871e844f7d499c60915c8bd69d",
      "transactionIndex": "0x3c",
      "blockHash": "0xc028247df69f59d3f1b18d3b2b916ffad0f96bb3410415fcfb87f5989c89ae17",
      "blockNumber": "0x9e4815",
      "gasUsed": "0xb768",
      "effectiveGasPrice": "0xf4249",
      "from": "0x474b4e7fd1a143edea6b77aa845f429d443e6410",
      "to": "0xbb46678a1f6c527bd79ecfbf85332b8ae83ceaf1",
      "contractAddress": null
    },
    {
      "status": "0x1",
      "cumulativeGasUsed": "0x42049d",
      "logs": [
        {
          "address": "0xbb46678a1f6c527bd79ecfbf85332b8ae83ceaf1",
          "topics": [
            "0xddf252ad1be2c89b69c2b068fc378daa952ba7f163c4a11628f55a4df523b3ef",
            "0x000000000000000000000000474b4e7fd1a143edea6b77aa845f429d443e6410",
            "0x0000000000000000000000009036b1d7b51331d6f517b7081074fe181d494bc6"
          ],
          "data": "0x000000000000000000000000000000000000000000034f086f3b33b684000000",
          "blockHash": "0x76fbcf9a8e2eed9e0e9552e34821c15a8f09ac5bd2fb1ca53064dbb7009fbdd9",
          "blockNumber": "0x9e4816",
          "blockTimestamp": "0x69a660f8",
          "transactionHash": "0xdeb4a55cfa4bafa17e69fa566240ce3dd02d963b6c9fa7303992c5ea320bcd43",
          "transactionIndex": "0x2c",
          "logIndex": "0x45",
          "removed": false
        },
        {
          "address": "0x9036b1d7b51331d6f517b7081074fe181d494bc6",
          "topics": [
            "0x30f6180e248310ab0c789da3026fbba7390872be072cfc5b3c20733f3a980c9e",
            "0x000000000000000000000000474b4e7fd1a143edea6b77aa845f429d443e6410",
            "0x000000000000000000000000bb46678a1f6c527bd79ecfbf85332b8ae83ceaf1"
          ],
          "data": "0x000000000000000000000000000000000000000000034f086f3b33b684000000",
          "blockHash": "0x76fbcf9a8e2eed9e0e9552e34821c15a8f09ac5bd2fb1ca53064dbb7009fbdd9",
          "blockNumber": "0x9e4816",
          "blockTimestamp": "0x69a660f8",
          "transactionHash": "0xdeb4a55cfa4bafa17e69fa566240ce3dd02d963b6c9fa7303992c5ea320bcd43",
          "transactionIndex": "0x2c",
          "logIndex": "0x46",
          "removed": false
        }
      ],
      "logsBloom": "0x00000000000000000000080000000000000000000000000000000000000000000000000000000000000000000000000000000000000000000000000000000000000000000000000000000008000000000000000000000000000000000000000000400000008000000000000000000000000000000000000000000010000000000100000008000001000000000000000000080020000000000000000000000000000000000000000000000000000000000000000040000000000100000000000000000002000001000000000000000001000800008000000080000010000000000000000000000000000000000000000000000000000000000000000400000000",
      "type": "0x2",
      "transactionHash": "0xdeb4a55cfa4bafa17e69fa566240ce3dd02d963b6c9fa7303992c5ea320bcd43",
      "transactionIndex": "0x2c",
      "blockHash": "0x76fbcf9a8e2eed9e0e9552e34821c15a8f09ac5bd2fb1ca53064dbb7009fbdd9",
      "blockNumber": "0x9e4816",
      "gasUsed": "0x12b5e",
      "effectiveGasPrice": "0xf4249",
      "from": "0x474b4e7fd1a143edea6b77aa845f429d443e6410",
      "to": "0x9036b1d7b51331d6f517b7081074fe181d494bc6",
      "contractAddress": null
    },
    {
      "status": "0x1",
      "cumulativeGasUsed": "0x71110b",
      "logs": [
        {
          "address": "0xbb46678a1f6c527bd79ecfbf85332b8ae83ceaf1",
          "topics": [
            "0x8c5be1e5ebec7d5bd14f71427d1e84f3dd0314c0f7b2291e5b200ac8c7c3b925",
            "0x000000000000000000000000f68d9e0faa751ad61e0ed70852798bf9d9c04bf7",
            "0x0000000000000000000000009036b1d7b51331d6f517b7081074fe181d494bc6"
          ],
          "data": "0x000000000000000000000000000000000000000000034f086f3b33b684000000",
          "blockHash": "0x4bcb5201feafc5ab701c12a99ba28d2c5bf7486e82f59b839e508f923e9ee02f",
          "blockNumber": "0x9e4817",
          "blockTimestamp": "0x69a66104",
          "transactionHash": "0x09f22122f83efa8e0a3cdbe5a25787eedddc7570e0c5f5a94a5f250c7869b534",
          "transactionIndex": "0x4e",
          "logIndex": "0x93",
          "removed": false
        }
      ],
      "logsBloom": "0x00000000000000000000080000000000000000000000000000000000000000800000000000000000000000000000000000000000000000000000000000200000000000000000000000000000000000000000000000000000000000000000000000000000008000000000000000000000000000000000000000000000000000000100000008000000000000000000000000000000000000000000000000000000020000000000000000000000000000000400000000000000000000000000000000000000000000000000000000000001000000008000000080000000000000000010000000000000000000000000000000000000000000000000000000000000",
      "type": "0x2",
      "transactionHash": "0x09f22122f83efa8e0a3cdbe5a25787eedddc7570e0c5f5a94a5f250c7869b534",
      "transactionIndex": "0x4e",
      "blockHash": "0x4bcb5201feafc5ab701c12a99ba28d2c5bf7486e82f59b839e508f923e9ee02f",
      "blockNumber": "0x9e4817",
      "gasUsed": "0xb768",
      "effectiveGasPrice": "0xf4249",
      "from": "0xf68d9e0faa751ad61e0ed70852798bf9d9c04bf7",
      "to": "0xbb46678a1f6c527bd79ecfbf85332b8ae83ceaf1",
      "contractAddress": null
    },
    {
      "status": "0x1",
      "cumulativeGasUsed": "0x3b7c6f",
      "logs": [
        {
          "address": "0xbb46678a1f6c527bd79ecfbf85332b8ae83ceaf1",
          "topics": [
            "0xddf252ad1be2c89b69c2b068fc378daa952ba7f163c4a11628f55a4df523b3ef",
            "0x000000000000000000000000f68d9e0faa751ad61e0ed70852798bf9d9c04bf7",
            "0x0000000000000000000000009036b1d7b51331d6f517b7081074fe181d494bc6"
          ],
          "data": "0x000000000000000000000000000000000000000000034f086f3b33b684000000",
          "blockHash": "0x9e165574304f3026b4636a5c0676709e010f66fb06b63a65cdba4b193fcd07ce",
          "blockNumber": "0x9e4818",
          "blockTimestamp": "0x69a66110",
          "transactionHash": "0x5dd881758dbf6268634de7dc35df643ac9af63a84fb51f4f06eee389e433c8de",
          "transactionIndex": "0x2d",
          "logIndex": "0x4d",
          "removed": false
        },
        {
          "address": "0x9036b1d7b51331d6f517b7081074fe181d494bc6",
          "topics": [
            "0x30f6180e248310ab0c789da3026fbba7390872be072cfc5b3c20733f3a980c9e",
            "0x000000000000000000000000f68d9e0faa751ad61e0ed70852798bf9d9c04bf7",
            "0x000000000000000000000000bb46678a1f6c527bd79ecfbf85332b8ae83ceaf1"
          ],
          "data": "0x000000000000000000000000000000000000000000034f086f3b33b684000000",
          "blockHash": "0x9e165574304f3026b4636a5c0676709e010f66fb06b63a65cdba4b193fcd07ce",
          "blockNumber": "0x9e4818",
          "blockTimestamp": "0x69a66110",
          "transactionHash": "0x5dd881758dbf6268634de7dc35df643ac9af63a84fb51f4f06eee389e433c8de",
          "transactionIndex": "0x2d",
          "logIndex": "0x4e",
          "removed": false
        }
      ],
      "logsBloom": "0x00000000000000000000080000000000000000000000000000000000000000800000000000000000000000000000000000000000000000000000000000000000000000000000000000000008000000000000000000000000000000000000000000000000008000000000000000000000000000000000000000000010000000000100000008000001000000000000000000080020000000000000000000000000000000000000000000000000000000000400000040000000000000000000000000000002000001000000000000000001000800008000000080000000000000000000000000000000000000000000000000000000000000000000000400000000",
      "type": "0x2",
      "transactionHash": "0x5dd881758dbf6268634de7dc35df643ac9af63a84fb51f4f06eee389e433c8de",
      "transactionIndex": "0x2d",
      "blockHash": "0x9e165574304f3026b4636a5c0676709e010f66fb06b63a65cdba4b193fcd07ce",
      "blockNumber": "0x9e4818",
      "gasUsed": "0x12b5e",
      "effectiveGasPrice": "0xf4249",
      "from": "0xf68d9e0faa751ad61e0ed70852798bf9d9c04bf7",
      "to": "0x9036b1d7b51331d6f517b7081074fe181d494bc6",
      "contractAddress": null
    }
  ],
  "libraries": [],
  "pending": [],
  "returns": {},
  "timestamp": 1772511505905,
  "chain": 11155111,
  "commit": "4acf207"
}