{
  "transactions": [
    {
      "hash": "0x9dffd740a57b88b08812cbc8cc6a15e1cdb1431613e342304318260601c769be",
      "transactionType": "CALL",
      "contractName": null,
      "contractAddress": "0xbb46678a1f6c527bd79ecfbf85332b8ae83ceaf1",
      "function": "mint(address,uint256)",
      "arguments": [
        "0x474B4E7FD1A143eDea6b77aa845F429D443E6410",
        "4000000000000000000000000"
      ],
      "transaction": {
        "from": "0x993461bbf7e553eb5bd1f5248a72b524c4a3b15d",
        "to": "0xbb46678a1f6c527bd79ecfbf85332b8ae83ceaf1",
        "gas": "0xc681",
        "value": "0x0",
        "input": "0x40c10f19000000000000000000000000474b4e7fd1a143edea6b77aa845f429d443e6410000000000000000000000000000000000000000000034f086f3b33b684000000",
        "nonce": "0x4f3",
        "chainId": "0xaa36a7"
      },
      "additionalContracts": [],
      "isFixedGasLimit": false
    },
    {
      "hash": "0x976772587dccf20821e81712a7cb014ce286fd5e05059d8b36003ae5de8d1629",
      "transactionType": "CALL",
      "contractName": null,
      "contractAddress": "0xbb46678a1f6c527bd79ecfbf85332b8ae83ceaf1",
      "function": "mint(address,uint256)",
      "arguments": [
        "0xf68D9e0fAa751AD61e0ED70852798bF9D9C04bF7",
        "4000000000000000000000000"
      ],
      "transaction": {
        "from": "0x993461bbf7e553eb5bd1f5248a72b524c4a3b15d",
        "to": "0xbb46678a1f6c527bd79ecfbf85332b8ae83ceaf1",
        "gas": "0xc681",
        "value": "0x0",
        "input": "0x40c10f19000000000000000000000000f68d9e0faa751ad61e0ed70852798bf9d9c04bf7000000000000000000000000000000000000000000034f086f3b33b684000000",
        "nonce": "0x4f4",
        "chainId": "0xaa36a7"
      },
      "additionalContracts": [],
      "isFixedGasLimit": false
    },
    {
      "hash": "0x7aa622561f2ddc258f1e0a988c72851d1e4bf8881023693f7d3fdf8234c10f57",
      "transactionType": "CALL",
      "contractName": null,
      "contractAddress": "0xbb46678a1f6c527bd79ecfbf85332b8ae83ceaf1",
      "function": "mint(address,uint256)",
      "arguments": [
        "0x10Db2E70118e5FBeDa30391ec957e608C9E4517E",
        "4000000000000000000000000"
      ],
      "transaction": {
        "from": "0x993461bbf7e553eb5bd1f5248a72b524c4a3b15d",
        "to": "0xbb46678a1f6c527bd79ecfbf85332b8ae83ceaf1",
        "gas": "0xc681",
        "value": "0x0",
        "input": "0x40c10f1900000000000000000000000010db2e70118e5fbeda30391ec957e608c9e4517e000000000000000000000000000000000000000000034f086f3b33b684000000",
        "nonce": "0x4f5",
        "chainId": "0xaa36a7"
      },
      "additionalContracts": [],
      "isFixedGasLimit": false
    },
    {
      "hash": "0x956faab279dfcd050c613e293449e7678121131b82e7ff51407640995f736455",
      "transactionType": "CALL",
      "contractName": null,
      "contractAddress": "0xbb46678a1f6c527bd79ecfbf85332b8ae83ceaf1",
      "function": "approve(address,uint256)",
      "arguments": [
        "0xB63b14b682A2be40DaFc7013544239D8E28D457E",
        "4000000000000000000000000"
      ],
      "transaction": {
        "from": "0x474b4e7fd1a143edea6b77aa845f429d443e6410",
        "to": "0xbb46678a1f6c527bd79ecfbf85332b8ae83ceaf1",
        "gas": "0xfd53",
        "value": "0x0",
        "input": "0x095ea7b3000000000000000000000000b63b14b682a2be40dafc7013544239d8e28d457e000000000000000000000000000000000000000000034f086f3b33b684000000",
        "nonce": "0x56",
        "chainId": "0xaa36a7"
      },
      "additionalContracts": [],
      "isFixedGasLimit": false
    },
    {
      "hash": "0xb964f3c2bd53d6fb14183731c1170c2f5daf1b0f321b51f2d05a72a60fd386af",
      "transactionType": "CALL",
      "contractName": "MarginVault",
      "contractAddress": "0xb63b14b682a2be40dafc7013544239d8e28d457e",
      "function": "depositMargin(bytes32,address,uint256)",
      "arguments": [
        "0x000000000000000000000000474b4e7fd1a143edea6b77aa845f429d443e6410",
        "0xbb46678a1F6C527bD79eCFBF85332B8Ae83ceaf1",
        "4000000000000000000000000"
      ],
      "transaction": {
        "from": "0x474b4e7fd1a143edea6b77aa845f429d443e6410",
        "to": "0xb63b14b682a2be40dafc7013544239d8e28d457e",
        "gas": "0x2cf03",
        "value": "0x0",
        "input": "0x6812d315000000000000000000000000474b4e7fd1a143edea6b77aa845f429d443e6410000000000000000000000000bb46678a1f6c527bd79ecfbf85332b8ae83ceaf1000000000000000000000000000000000000000000034f086f3b33b684000000",
        "nonce": "0x57",
        "chainId": "0xaa36a7"
      },
      "additionalContracts": [],
      "isFixedGasLimit": false
    },
    {
      "hash": "0xa289bc56a74b9c55928273e05ad6db58cf5ee1cc39faa3a9295483d492106ccc",
      "transactionType": "CALL",
      "contractName": null,
      "contractAddress": "0xbb46678a1f6c527bd79ecfbf85332b8ae83ceaf1",
      "function": "approve(address,uint256)",
      "arguments": [
        "0xB63b14b682A2be40DaFc7013544239D8E28D457E",
        "4000000000000000000000000"
      ],
      "transaction": {
        "from": "0xf68d9e0faa751ad61e0ed70852798bf9d9c04bf7",
        "to": "0xbb46678a1f6c527bd79ecfbf85332b8ae83ceaf1",
        "gas": "0xfd53",
        "value": "0x0",
        "input": "0x095ea7b3000000000000000000000000b63b14b682a2be40dafc7013544239d8e28d457e000000000000000000000000000000000000000000034f086f3b33b684000000",
        "nonce": "0x54",
        "chainId": "0xaa36a7"
      },
      "additionalContracts": [],
      "isFixedGasLimit": false
    },
    {
      "hash": "0xc68c59acbc8108cd204451475a4271dca6045177257d18d70259c629fde27678",
      "transactionType": "CALL",
      "contractName": "MarginVault",
      "contractAddress": "0xb63b14b682a2be40dafc7013544239d8e28d457e",
      "function": "depositMargin(bytes32,address,uint256)",
      "arguments": [
        "0x000000000000000000000000f68d9e0faa751ad61e0ed70852798bf9d9c04bf7",
        "0xbb46678a1F6C527bD79eCFBF85332B8Ae83ceaf1",
        "4000000000000000000000000"
      ],
      "transaction": {
        "from": "0xf68d9e0faa751ad61e0ed70852798bf9d9c04bf7",
        "to": "0xb63b14b682a2be40dafc7013544239d8e28d457e",
        "gas": "0x24acd",
        "value": "0x0",
        "input": "0x6812d315000000000000000000000000f68d9e0faa751ad61e0ed70852798bf9d9c04bf7000000000000000000000000bb46678a1f6c527bd79ecfbf85332b8ae83ceaf1000000000000000000000000000000000000000000034f086f3b33b684000000",
        "nonce": "0x55",
        "chainId": "0xaa36a7"
      },
      "additionalContracts": [],
      "isFixedGasLimit": false
    },
    {
      "hash": "0x8e0973eaa5379a6a4d01b980218b122b826e8583e0ea58cc13ae4f5c48957d2b",
      "transactionType": "CALL",
      "contractName": null,
      "contractAddress": "0xbb46678a1f6c527bd79ecfbf85332b8ae83ceaf1",
      "function": "approve(address,uint256)",
      "arguments": [
        "0xB63b14b682A2be40DaFc7013544239D8E28D457E",
        "4000000000000000000000000"
      ],
      "transaction": {
        "from": "0x10db2e70118e5fbeda30391ec957e608c9e4517e",
        "to": "0xbb46678a1f6c527bd79ecfbf85332b8ae83ceaf1",
        "gas": "0xfd53",
        "value": "0x0",
        "input": "0x095ea7b3000000000000000000000000b63b14b682a2be40dafc7013544239d8e28d457e000000000000000000000000000000000000000000034f086f3b33b684000000",
        "nonce": "0x21",
        "chainId": "0xaa36a7"
      },
      "additionalContracts": [],
      "isFixedGasLimit": false
    },
    {
      "hash": "0xbfdff3c333d6fd5cb6ff20676f50bdf4f9230033860ce98df181a736fca1a534",
      "transactionType": "CALL",
      "contractName": "MarginVault",
      "contractAddress": "0xb63b14b682a2be40dafc7013544239d8e28d457e",
      "function": "depositMargin(bytes32,address,uint256)",
      "arguments": [
        "0x00000000000000000000000010db2e70118e5fbeda30391ec957e608c9e4517e",
        "0xbb46678a1F6C527bD79eCFBF85332B8Ae83ceaf1",
        "4000000000000000000000000"
      ],
      "transaction": {
        "from": "0x10db2e70118e5fbeda30391ec957e608c9e4517e",
        "to": "0xb63b14b682a2be40dafc7013544239d8e28d457e",
        "gas": "0x24acd",
        "value": "0x0",
        "input": "0x6812d31500000000000000000000000010db2e70118e5fbeda30391ec957e608c9e4517e000000000000000000000000bb46678a1f6c527bd79ecfbf85332b8ae83ceaf1000000000000000000000000000000000000000000034f086f3b33b684000000",
        "nonce": "0x22",
        "chainId": "0xaa36a7"
      },
      "additionalContracts": [],
      "isFixedGasLimit": false
    }
  ],
  "receipts": [
    {
      "status": "0x1",
      "cumulativeGasUsed": "0x86735f",
      "logs": [
        {
          "address": "0xbb46678a1f6c527bd79ecfbf85332b8ae83ceaf1",
          "topics": [
            "0xddf252ad1be2c89b69c2b068fc378daa952ba7f163c4a11628f55a4df523b3ef",
            "0x0000000000000000000000000000000000000000000000000000000000000000",
            "0x000000000000000000000000474b4e7fd1a143edea6b77aa845f429d443e6410"
          ],
          "data": "0x000000000000000000000000000000000000000000034f086f3b33b684000000",
          "blockHash": "0x8921adf713ab8bb504439ee3888b0f8ae0ba845028bdab70e439f903de1c5a9a",
          "blockNumber": "0x9e9eb4",
          "blockTimestamp": "0x69aa99c4",
          "transactionHash": "0x9dffd740a57b88b08812cbc8cc6a15e1cdb1431613e342304318260601c769be",
          "transactionIndex": "0x48",
          "logIndex": "0x94",
          "removed": false
        }
      ],
      "logsBloom": "0x00000000000000000000000000000000000000000000000000000000000000000000000000000000000000000000000000000000000000000000000000000000000000000000000000000008000000000000000000000000000000000000000000400000020000000000000000000800000000000000000000000010000000000100000008000000000000000000000000000000000000000000000000000000000000000000000000000000000000000000000000000000000100000000000000000002000000000000000000000000000000008000000000000010000020000000000000000000000000000000000000000000000000000000000000000000",
      "type": "0x2",
      "transactionHash": "0x9dffd740a57b88b08812cbc8cc6a15e1cdb1431613e342304318260601c769be",
      "transactionIndex": "0x48",
      "blockHash": "0x8921adf713ab8bb504439ee3888b0f8ae0ba845028bdab70e439f903de1c5a9a",
      "blockNumber": "0x9e9eb4",
      "gasUsed": "0x87bb",
      "effectiveGasPrice": "0x3eb71591",
      "from": "0x993461bbf7e553eb5bd1f5248a72b524c4a3b15d",
      "to": "0xbb46678a1f6c527bd79ecfbf85332b8ae83ceaf1",
      "contractAddress": null
    },
    {
      "status": "0x1",
      "cumulativeGasUsed": "0x16646a5",
      "logs": [
        {
          "address": "0xbb46678a1f6c527bd79ecfbf85332b8ae83ceaf1",
          "topics": [
            "0xddf252ad1be2c89b69c2b068fc378daa952ba7f163c4a11628f55a4df523b3ef",
            "0x0000000000000000000000000000000000000000000000000000000000000000",
            "0x000000000000000000000000f68d9e0faa751ad61e0ed70852798bf9d9c04bf7"
          ],
          "data": "0x000000000000000000000000000000000000000000034f086f3b33b684000000",
          "blockHash": "0xdc9456ad6ddfc71c7c9250860456817da2f67939f5bae4d03aacbb7f7a470fb9",
          "blockNumber": "0x9e9eb5",
          "blockTimestamp": "0x69aa99d0",
          "transactionHash": "0x976772587dccf20821e81712a7cb014ce286fd5e05059d8b36003ae5de8d1629",
          "transactionIndex": "0x8e",
          "logIndex": "0xfe",
          "removed": false
        }
      ],
      "logsBloom": "0x00000000000000000000000000000000000000000000000000000000000000800000000000000000000000000000000000000000000000000000000000000000000000000000000000000008000000000000000000000000000000000000000000000000020000000000000000000800000000000000000000000010000000000100000008000000000000000000000000000000000000000000000000000000000000000000000000000000000000000400000000000000000000000000000000000002000000000000000000000001000000008000000000000000000020000000000000000000000000000000000000000000000000000000000000000000",
      "type": "0x2",
      "transactionHash": "0x976772587dccf20821e81712a7cb014ce286fd5e05059d8b36003ae5de8d1629",
      "transactionIndex": "0x8e",
      "blockHash": "0xdc9456ad6ddfc71c7c9250860456817da2f67939f5bae4d03aacbb7f7a470fb9",
      "blockNumber": "0x9e9eb5",
      "gasUsed": "0x87bb",
      "effectiveGasPrice": "0x3ba85870",
      "from": "0x993461bbf7e553eb5bd1f5248a72b524c4a3b15d",
      "to": "0xbb46678a1f6c527bd79ecfbf85332b8ae83ceaf1",
      "contractAddress": null
    },
    {
      "status": "0x1",
      "cumulativeGasUsed": "0xc1c70d",
      "logs": [
        {
          "address": "0xbb46678a1f6c527bd79ecfbf85332b8ae83ceaf1",
          "topics": [
            "0xddf252ad1be2c89b69c2b068fc378daa952ba7f163c4a11628f55a4df523b3ef",
            "0x0000000000000000000000000000000000000000000000000000000000000000",
            "0x00000000000000000000000010db2e70118e5fbeda30391ec957e608c9e4517e"
          ],
          "data": "0x000000000000000000000000000000000000000000034f086f3b33b684000000",
          "blockHash": "0x525169652bac81a3e93a3cb00af45634dd507e6bced5ab0b6f34ad26f264d9af",
          "blockNumber": "0x9e9eb6",
          "blockTimestamp": "0x69aa99dc",
          "transactionHash": "0x7aa622561f2ddc258f1e0a988c72851d1e4bf8881023693f7d3fdf8234c10f57",
          "transactionIndex": "0x6d",
          "logIndex": "0xd9",
          "removed": false
        }
      ],
      "logsBloom": "0x00000000000000000000000000000000000000000000000000000000000000000000000000000000000000000000000000000000000000000000000000000000000000000000000000000008000000000000000000000000000000000000000000000000020000000000000000000800000000000000000000000010000000000100000008000000000000000000000000000000000000000000000000000000000000000000000000000000000000000000000000000000000000000000000000000002000000000000000041000000000000008000000000000000000020000000000000000000000080000000000000000000000000000000000000000000",
      "type": "0x2",
      "transactionHash": "0x7aa622561f2ddc258f1e0a988c72851d1e4bf8881023693f7d3fdf8234c10f57",
      "transactionIndex": "0x6d",
      "blockHash": "0x525169652bac81a3e93a3cb00af45634dd507e6bced5ab0b6f34ad26f264d9af",
      "blockNumber": "0x9e9eb6",
      "gasUsed": "0x87bb",
      "effectiveGasPrice": "0x3d46c1eb",
      "from": "0x993461bbf7e553eb5bd1f5248a72b524c4a3b15d",
      "to": "0xbb46678a1f6c527bd79ecfbf85332b8ae83ceaf1",
      "contractAddress": null
    },
    {
      "status": "0x1",
      "cumulativeGasUsed": "0x1604521",
      "logs": [
        {
          "address": "0xbb46678a1f6c527bd79ecfbf85332b8ae83ceaf1",
          "topics": [
            "0x8c5be1e5ebec7d5bd14f71427d1e84f3dd0314c0f7b2291e5b200ac8c7c3b925",
            "0x000000000000000000000000474b4e7fd1a143edea6b77aa845f429d443e6410",
            "0x000000000000000000000000b63b14b682a2be40dafc7013544239d8e28d457e"
          ],
          "data": "0x000000000000000000000000000000000000000000034f086f3b33b684000000",
          "blockHash": "0xef1b4a6024fc0108e38d68ede6dab76a53b27131c6b288e71e52f418b9dfd87a",
          "blockNumber": "0x9e9eb7",
          "blockTimestamp": "0x69aa99e8",
          "transactionHash": "0x956faab279dfcd050c613e293449e7678121131b82e7ff51407640995f736455",
          "transactionIndex": "0x60",
          "logIndex": "0xb3",
          "removed": false
        }
      ],
      "logsBloom": "0x00000000000000000000000000000000000000000000000000000000000000000000000000000000000000000000000000000000000000000000000000200000000000000000000000000000000000000000000000000000000000000000000000400000000000000000000000000000000000000000080000000000000000000100000008000400000000000000000000000000000000000000000000000000020000000000000000000000000000000000000000000000000100000000000000000000000000000000000000000000000000008000000000000010000000000010000200000000000000000000000000000000000000000000000000000000",
      "type": "0x2",
      "transactionHash": "0x956faab279dfcd050c613e293449e7678121131b82e7ff51407640995f736455",
      "transactionIndex": "0x60",
      "blockHash": "0xef1b4a6024fc0108e38d68ede6dab76a53b27131c6b288e71e52f418b9dfd87a",
      "blockNumber": "0x9e9eb7",
      "gasUsed": "0xb768",
      "effectiveGasPrice": "0x3bba5ecc",
      "from": "0x474b4e7fd1a143edea6b77aa845f429d443e6410",
      "to": "0xbb46678a1f6c527bd79ecfbf85332b8ae83ceaf1",
      "contractAddress": null
    },
    {
      "status": "0x1",
      "cumulativeGasUsed": "0x1a3b27b",
      "logs": [
        {
          "address": "0xbb46678a1f6c527bd79ecfbf85332b8ae83ceaf1",
          "topics": [
            "0xddf252ad1be2c89b69c2b068fc378daa952ba7f163c4a11628f55a4df523b3ef",
            "0x000000000000000000000000474b4e7fd1a143edea6b77aa845f429d443e6410",
            "0x000000000000000000000000b63b14b682a2be40dafc7013544239d8e28d457e"
          ],
          "data": "0x000000000000000000000000000000000000000000034f086f3b33b684000000",
          "blockHash": "0xcc78eb8bcc66bd8b840516c550e02038869845f9bab35c813d057cf421210601",
          "blockNumber": "0x9e9eb8",
          "blockTimestamp": "0x69aa99f4",
          "transactionHash": "0xb964f3c2bd53d6fb14183731c1170c2f5daf1b0f321b51f2d05a72a60fd386af",
          "transactionIndex": "0x87",
          "logIndex": "0x14e",
          "removed": false
        },
        {
          "address": "0xb63b14b682a2be40dafc7013544239d8e28d457e",
          "topics": [
            "0x30f6180e248310ab0c789da3026fbba7390872be072cfc5b3c20733f3a980c9e",
            "0x000000000000000000000000474b4e7fd1a143edea6b77aa845f429d443e6410",
            "0x000000000000000000000000bb46678a1f6c527bd79ecfbf85332b8ae83ceaf1"
          ],
          "data": "0x000000000000000000000000000000000000000000034f086f3b33b684000000",
          "blockHash": "0xcc78eb8bcc66bd8b840516c550e02038869845f9bab35c813d057cf421210601",
          "blockNumber": "0x9e9eb8",
          "blockTimestamp": "0x69aa99f4",
          "transactionHash": "0xb964f3c2bd53d6fb14183731c1170c2f5daf1b0f321b51f2d05a72a60fd386af",
          "transactionIndex": "0x87",
          "logIndex": "0x14f",
          "removed": false
        }
      ],
      "logsBloom": "0x00000000000000000000000000000000000000040000000000000000000000000000000000000000000000000000000000000000000000000000000000000000000000000000000020000008000000000000000000000000000000000000000000400000000008000000000000000000000000000000080000000010000000000100000008000401000000000000000000000000000000000000000000000000000000000000000000000000000000000000000040000000000100000000000000000002000001000000000000000001000800008000000000000010000000000000000200000000000000000000000000000000000000000000000400000000",
      "type": "0x2",
      "transactionHash": "0xb964f3c2bd53d6fb14183731c1170c2f5daf1b0f321b51f2d05a72a60fd386af",
      "transactionIndex": "0x87",
      "blockHash": "0xcc78eb8bcc66bd8b840516c550e02038869845f9bab35c813d057cf421210601",
      "blockNumber": "0x9e9eb8",
      "gasUsed": "0x1eba2",
      "effectiveGasPrice": "0x3d10c6b9",
      "from": "0x474b4e7fd1a143edea6b77aa845f429d443e6410",
      "to": "0xb63b14b682a2be40dafc7013544239d8e28d457e",
      "contractAddress": null
    },
    {
      "status": "0x1",
      "cumulativeGasUsed": "0xee359f",
      "logs": [
        {
          "address": "0xbb46678a1f6c527bd79ecfbf85332b8ae83ceaf1",
          "topics": [
            "0x8c5be1e5ebec7d5bd14f71427d1e84f3dd0314c0f7b2291e5b200ac8c7c3b925",
            "0x000000000000000000000000f68d9e0faa751ad61e0ed70852798bf9d9c04bf7",
            "0x000000000000000000000000b63b14b682a2be40dafc7013544239d8e28d457e"
          ],
          "data": "0x000000000000000000000000000000000000000000034f086f3b33b684000000",
          "blockHash": "0x12385d19d1410f29332fb79233e2f9d36375c5a507d1c98ead93f84e851f8d47",
          "blockNumber": "0x9e9eb9",
          "blockTimestamp": "0x69aa9a00",
          "transactionHash": "0xa289bc56a74b9c55928273e05ad6db58cf5ee1cc39faa3a9295483d492106ccc",
          "transactionIndex": "0x60",
          "logIndex": "0xe9",
          "removed": false
        }
      ],
      "logsBloom": "0x00000000000000000000000000000000000000000000000000000000000000800000000000000000000000000000000000000000000000000000000000200000000000000000000000000000000000000000000000000000000000000000000000000000000000000000000000000000000000000000080000000000000000000100000008000400000000000000000000000000000000000000000000000000020000000000000000000000000000000400000000000000000000000000000000000000000000000000000000000001000000008000000000000000000000000010000200000000000000000000000000000000000000000000000000000000",
      "type": "0x2",
      "transactionHash": "0xa289bc56a74b9c55928273e05ad6db58cf5ee1cc39faa3a9295483d492106ccc",
      "transactionIndex": "0x60",
      "blockHash": "0x12385d19d1410f29332fb79233e2f9d36375c5a507d1c98ead93f84e851f8d47",
      "blockNumber": "0x9e9eb9",
      "gasUsed": "0xb768",
      "effectiveGasPrice": "0x3fa75d28",
      "from": "0xf68d9e0faa751ad61e0ed70852798bf9d9c04bf7",
      "to": "0xbb46678a1f6c527bd79ecfbf85332b8ae83ceaf1",
      "contractAddress": null
    },
    {
      "status": "0x1",
      "cumulativeGasUsed": "0x11bb28b",
      "logs": [
        {
          "address": "0xbb46678a1f6c527bd79ecfbf85332b8ae83ceaf1",
          "topics": [
            "0xddf252ad1be2c89b69c2b068fc378daa952ba7f163c4a11628f55a4df523b3ef",
            "0x000000000000000000000000f68d9e0faa751ad61e0ed70852798bf9d9c04bf7",
            "0x000000000000000000000000b63b14b682a2be40dafc7013544239d8e28d457e"
          ],
          "data": "0x000000000000000000000000000000000000000000034f086f3b33b684000000",
          "blockHash": "0x656da2571c39068c18aec3d3e0c6d0638daa1e126373d63057d5893f762176c6",
          "blockNumber": "0x9e9eba",
          "blockTimestamp": "0x69aa9a0c",
          "transactionHash": "0xc68c59acbc8108cd204451475a4271dca6045177257d18d70259c629fde27678",
          "transactionIndex": "0x67",
          "logIndex": "0xc0",
          "removed": false
        },
        {
          "address": "0xb63b14b682a2be40dafc7013544239d8e28d457e",
          "topics": [
            "0x30f6180e248310ab0c789da3026fbba7390872be072cfc5b3c20733f3a980c9e",
            "0x000000000000000000000000f68d9e0faa751ad61e0ed70852798bf9d9c04bf7",
            "0x000000000000000000000000bb46678a1f6c527bd79ecfbf85332b8ae83ceaf1"
          ],
          "data": "0x000000000000000000000000000000000000000000034f086f3b33b684000000",
          "blockHash": "0x656da2571c39068c18aec3d3e0c6d0638daa1e126373d63057d5893f762176c6",
          "blockNumber": "0x9e9eba",
          "blockTimestamp": "0x69aa9a0c",
          "transactionHash": "0xc68c59acbc8108cd204451475a4271dca6045177257d18d70259c629fde27678",
          "transactionIndex": "0x67",
          "logIndex": "0xc1",
          "removed": false
        }
      ],
      "logsBloom": "0x00000000000000000000000000000000000000040000000000000000000000800000000000000000000000000000000000000000000000000000000000000000000000000000000020000008000000000000000000000000000000000000000000000000000008000000000000000000000000000000080000000010000000000100000008000401000000000000000000000000000000000000000000000000000000000000000000000000000000000400000040000000000000000000000000000002000001000000000000000001000800008000000000000000000000000000000200000000000000000000000000000000000000000000000400000000",
      "type": "0x2",
      "transactionHash": "0xc68c59acbc8108cd204451475a4271dca6045177257d18d70259c629fde27678",
      "transactionIndex": "0x67",
      "blockHash": "0x656da2571c39068c18aec3d3e0c6d0638daa1e126373d63057d5893f762176c6",
      "blockNumber": "0x9e9eba",
      "gasUsed": "0x1a8d6",
      "effectiveGasPrice": "0x3e4fbb46",
      "from": "0xf68d9e0faa751ad61e0ed70852798bf9d9c04bf7",
      "to": "0xb63b14b682a2be40dafc7013544239d8e28d457e",
      "contractAddress": null
    },
    {
      "status": "0x1",
      "cumulativeGasUsed": "0x87778a",
      "logs": [
        {
          "address": "0xbb46678a1f6c527bd79ecfbf85332b8ae83ceaf1",
          "topics": [
            "0x8c5be1e5ebec7d5bd14f71427d1e84f3dd0314c0f7b2291e5b200ac8c7c3b925",
            "0x00000000000000000000000010db2e70118e5fbeda30391ec957e608c9e4517e",
            "0x000000000000000000000000b63b14b682a2be40dafc7013544239d8e28d457e"
          ],
          "data": "0x000000000000000000000000000000000000000000034f086f3b33b684000000",
          "blockHash": "0x1e6b4627044ee1ddebfe98e4f9623d9aaa0d7899b06049dfd0c743e3882cf225",
          "blockNumber": "0x9e9ebb",
          "blockTimestamp": "0x69aa9a18",
          "transactionHash": "0x8e0973eaa5379a6a4d01b980218b122b826e8583e0ea58cc13ae4f5c48957d2b",
          "transactionIndex": "0x61",
          "logIndex": "0xa9",
          "removed": false
        }
      ],
      "logsBloom": "0x00000000000000000000000000000000000000000000000000000000000000000000000000000000000000000000000000000000000000000000000000200000000000000000000000000000000000000000000000000000000000000000000000000000000000000000000000000000000000000000080000000000000000000100000008000400000000000000000000000000000000000000000000000000020000000000000000000000000000000000000000000000000000000000000000000000000000000000000041000000000000008000000000000000000000000010000200000000000080000000000000000000000000000000000000000000",
      "type": "0x2",
      "transactionHash": "0x8e0973eaa5379a6a4d01b980218b122b826e8583e0ea58cc13ae4f5c48957d2b",
      "transactionIndex": "0x61",
      "blockHash": "0x1e6b4627044ee1ddebfe98e4f9623d9aaa0d7899b06049dfd0c743e3882cf225",
      "blockNumber": "0x9e9ebb",
      "gasUsed": "0xb768",
      "effectiveGasPrice": "0x3f26569f",
      "from": "0x10db2e70118e5fbeda30391ec957e608c9e4517e",
      "to": "0xbb46678a1f6c527bd79ecfbf85332b8ae83ceaf1",
      "contractAddress": null
    },
    {
      "status": "0x1",
      "cumulativeGasUsed": "0x847a42",
      "logs": [
        {
          "address": "0xbb46678a1f6c527bd79ecfbf85332b8ae83ceaf1",
          "topics": [
            "0xddf252ad1be2c89b69c2b068fc378daa952ba7f163c4a11628f55a4df523b3ef",
            "0x00000000000000000000000010db2e70118e5fbeda30391ec957e608c9e4517e",
            "0x000000000000000000000000b63b14b682a2be40dafc7013544239d8e28d457e"
          ],
          "data": "0x000000000000000000000000000000000000000000034f086f3b33b684000000",
          "blockHash": "0xf3df7edc379551b702100e578959b90f0402674ab862d2bb246e92de28814761",
          "blockNumber": "0x9e9ebc",
          "blockTimestamp": "0x69aa9a24",
          "transactionHash": "0xbfdff3c333d6fd5cb6ff20676f50bdf4f9230033860ce98df181a736fca1a534",
          "transactionIndex": "0x65",
          "logIndex": "0x93",
          "removed": false
        },
        {
          "address": "0xb63b14b682a2be40dafc7013544239d8e28d457e",
          "topics": [
            "0x30f6180e248310ab0c789da3026fbba7390872be072cfc5b3c20733f3a980c9e",
            "0x00000000000000000000000010db2e70118e5fbeda30391ec957e608c9e4517e",
            "0x000000000000000000000000bb46678a1f6c527bd79ecfbf85332b8ae83ceaf1"
          ],
          "data": "0x000000000000000000000000000000000000000000034f086f3b33b684000000",
          "blockHash": "0xf3df7edc379551b702100e578959b90f0402674ab862d2bb246e92de28814761",
          "blockNumber": "0x9e9ebc",
          "blockTimestamp": "0x69aa9a24",
          "transactionHash": "0xbfdff3c333d6fd5cb6ff20676f50bdf4f9230033860ce98df181a736fca1a534",
          "transactionIndex": "0x65",
          "logIndex": "0x94",
          "removed": false
        }
      ],
      "logsBloom": "0x00000000000000000000000000000000000000040000000000000000000000000000000000000000000000000000000000000000000000000000000000000000000000000000000020000008000000000000000000000000000000000000000000000000000008000000000000000000000000000000080000000010000000000100000008000401000000000000000000000000000000000000000000000000000000000000000000000000000000000000000040000000000000000000000000000002000001000000000041000001000800008000000000000000000000000000000200000000000080000000000000000000000000000000000400000000",
      "type": "0x2",
      "transactionHash": "0xbfdff3c333d6fd5cb6ff20676f50bdf4f9230033860ce98df181a736fca1a534",
      "transactionIndex": "0x65",
      "blockHash": "0xf3df7edc379551b702100e578959b90f0402674ab862d2bb246e92de28814761",
      "blockNumber": "0x9e9ebc",
      "gasUsed": "0x1a8d6",
      "effectiveGasPrice": "0x3cd73fbd",
      "from": "0x10db2e70118e5fbeda30391ec957e608c9e4517e",
      "to": "0xb63b14b682a2be40dafc7013544239d8e28d457e",
      "contractAddress": null
    }
  ],
  "libraries": [],
  "pending": [],
  "returns": {},
  "timestamp": 1772788260522,
  "chain": 11155111,
  "commit": "6cd6e4d"
}