{
  "transactions": [
    {
      "hash": "0x5ddf68b89cdf71db03771e033d919eebadb186eabbe11d79a435de8db04d8dfd",
      "transactionType": "CALL",
      "contractName": null,
      "contractAddress": "0xbb46678a1f6c527bd79ecfbf85332b8ae83ceaf1",
      "function": "mint(address,uint256)",
      "arguments": [
        "0x474B4E7FD1A143eDea6b77aa845F429D443E6410",
        "4000000000000000000000000"
      ],
      "transaction": {
        "from": "0x993461bbf7e553eb5bd1f5248a72b524c4a3b15d",
        "to": "0xbb46678a1f6c527bd79ecfbf85332b8ae83ceaf1",
        "gas": "0xc681",
        "value": "0x0",
        "input": "0x40c10f19000000000000000000000000474b4e7fd1a143edea6b77aa845f429d443e6410000000000000000000000000000000000000000000034f086f3b33b684000000",
        "nonce": "0x5e4",
        "chainId": "0xaa36a7"
      },
      "additionalContracts": [],
      "isFixedGasLimit": false
    },
    {
      "hash": "0x3a3b15c30156e88a2043d43a08cb4da8452ea473a1267109d4cd5708acd72416",
      "transactionType": "CALL",
      "contractName": null,
      "contractAddress": "0xbb46678a1f6c527bd79ecfbf85332b8ae83ceaf1",
      "function": "mint(address,uint256)",
      "arguments": [
        "0xf68D9e0fAa751AD61e0ED70852798bF9D9C04bF7",
        "4000000000000000000000000"
      ],
      "transaction": {
        "from": "0x993461bbf7e553eb5bd1f5248a72b524c4a3b15d",
        "to": "0xbb46678a1f6c527bd79ecfbf85332b8ae83ceaf1",
        "gas": "0xc681",
        "value": "0x0",
        "input": "0x40c10f19000000000000000000000000f68d9e0faa751ad61e0ed70852798bf9d9c04bf7000000000000000000000000000000000000000000034f086f3b33b684000000",
        "nonce": "0x5e5",
        "chainId": "0xaa36a7"
      },
      "additionalContracts": [],
      "isFixedGasLimit": false
    },
    {
      "hash": "0x6c29c3fc7e0394fc6829a69833ce32b2cb30837fb15844542b562b25041393a0",
      "transactionType": "CALL",
      "contractName": null,
      "contractAddress": "0xbb46678a1f6c527bd79ecfbf85332b8ae83ceaf1",
      "function": "mint(address,uint256)",
      "arguments": [
        "0x10Db2E70118e5FBeDa30391ec957e608C9E4517E",
        "4000000000000000000000000"
      ],
      "transaction": {
        "from": "0x993461bbf7e553eb5bd1f5248a72b524c4a3b15d",
        "to": "0xbb46678a1f6c527bd79ecfbf85332b8ae83ceaf1",
        "gas": "0xc681",
        "value": "0x0",
        "input": "0x40c10f1900000000000000000000000010db2e70118e5fbeda30391ec957e608c9e4517e000000000000000000000000000000000000000000034f086f3b33b684000000",
        "nonce": "0x5e6",
        "chainId": "0xaa36a7"
      },
      "additionalContracts": [],
      "isFixedGasLimit": false
    },
    {
      "hash": "0x5e64c2b71b8c0ef36f474dd2ff8700e0d25deaae8386f6defea8fc1352ced942",
      "transactionType": "CALL",
      "contractName": null,
      "contractAddress": "0xbb46678a1f6c527bd79ecfbf85332b8ae83ceaf1",
      "function": "approve(address,uint256)",
      "arguments": [
        "0xF4f79B481508b5856203ee23C675fBd6e66daEB3",
        "4000000000000000000000000"
      ],
      "transaction": {
        "from": "0x474b4e7fd1a143edea6b77aa845f429d443e6410",
        "to": "0xbb46678a1f6c527bd79ecfbf85332b8ae83ceaf1",
        "gas": "0xfd53",
        "value": "0x0",
        "input": "0x095ea7b3000000000000000000000000f4f79b481508b5856203ee23c675fbd6e66daeb3000000000000000000000000000000000000000000034f086f3b33b684000000",
        "nonce": "0x70",
        "chainId": "0xaa36a7"
      },
      "additionalContracts": [],
      "isFixedGasLimit": false
    },
    {
      "hash": "0xa4e40f53018edb34e9470c98de4d04b471ade61aae4af253c942d7653b05b6db",
      "transactionType": "CALL",
      "contractName": "MarginVault",
      "contractAddress": "0xf4f79b481508b5856203ee23c675fbd6e66daeb3",
      "function": "depositMargin(bytes32,address,uint256)",
      "arguments": [
        "0x000000000000000000000000474b4e7fd1a143edea6b77aa845f429d443e6410",
        "0xbb46678a1F6C527bD79eCFBF85332B8Ae83ceaf1",
        "4000000000000000000000000"
      ],
      "transaction": {
        "from": "0x474b4e7fd1a143edea6b77aa845f429d443e6410",
        "to": "0xf4f79b481508b5856203ee23c675fbd6e66daeb3",
        "gas": "0x2cf03",
        "value": "0x0",
        "input": "0x6812d315000000000000000000000000474b4e7fd1a143edea6b77aa845f429d443e6410000000000000000000000000bb46678a1f6c527bd79ecfbf85332b8ae83ceaf1000000000000000000000000000000000000000000034f086f3b33b684000000",
        "nonce": "0x71",
        "chainId": "0xaa36a7"
      },
      "additionalContracts": [],
      "isFixedGasLimit": false
    },
    {
      "hash": "0x088332aa5fc14e1a145edf02277b83b6b2a9891318e6715e5af74b3aed582ec5",
      "transactionType": "CALL",
      "contractName": null,
      "contractAddress": "0xbb46678a1f6c527bd79ecfbf85332b8ae83ceaf1",
      "function": "approve(address,uint256)",
      "arguments": [
        "0xF4f79B481508b5856203ee23C675fBd6e66daEB3",
        "4000000000000000000000000"
      ],
      "transaction": {
        "from": "0xf68d9e0faa751ad61e0ed70852798bf9d9c04bf7",
        "to": "0xbb46678a1f6c527bd79ecfbf85332b8ae83ceaf1",
        "gas": "0xfd53",
        "value": "0x0",
        "input": "0x095ea7b3000000000000000000000000f4f79b481508b5856203ee23c675fbd6e66daeb3000000000000000000000000000000000000000000034f086f3b33b684000000",
        "nonce": "0x6a",
        "chainId": "0xaa36a7"
      },
      "additionalContracts": [],
      "isFixedGasLimit": false
    },
    {
      "hash": "0x293aee67ee2d34b8c50e89b5869286c9d6abaa6c80b87b3aaa7674b593a2df42",
      "transactionType": "CALL",
      "contractName": "MarginVault",
      "contractAddress": "0xf4f79b481508b5856203ee23c675fbd6e66daeb3",
      "function": "depositMargin(bytes32,address,uint256)",
      "arguments": [
        "0x000000000000000000000000f68d9e0faa751ad61e0ed70852798bf9d9c04bf7",
        "0xbb46678a1F6C527bD79eCFBF85332B8Ae83ceaf1",
        "4000000000000000000000000"
      ],
      "transaction": {
        "from": "0xf68d9e0faa751ad61e0ed70852798bf9d9c04bf7",
        "to": "0xf4f79b481508b5856203ee23c675fbd6e66daeb3",
        "gas": "0x24acd",
        "value": "0x0",
        "input": "0x6812d315000000000000000000000000f68d9e0faa751ad61e0ed70852798bf9d9c04bf7000000000000000000000000bb46678a1f6c527bd79ecfbf85332b8ae83ceaf1000000000000000000000000000000000000000000034f086f3b33b684000000",
        "nonce": "0x6b",
        "chainId": "0xaa36a7"
      },
      "additionalContracts": [],
      "isFixedGasLimit": false
    },
    {
      "hash": "0x1722edb4f7d36af6c20760b29e724e17ad42e0a63e0a6d99b2fa1993e4aabc84",
      "transactionType": "CALL",
      "contractName": null,
      "contractAddress": "0xbb46678a1f6c527bd79ecfbf85332b8ae83ceaf1",
      "function": "approve(address,uint256)",
      "arguments": [
        "0xF4f79B481508b5856203ee23C675fBd6e66daEB3",
        "4000000000000000000000000"
      ],
      "transaction": {
        "from": "0x10db2e70118e5fbeda30391ec957e608c9e4517e",
        "to": "0xbb46678a1f6c527bd79ecfbf85332b8ae83ceaf1",
        "gas": "0xfd53",
        "value": "0x0",
        "input": "0x095ea7b3000000000000000000000000f4f79b481508b5856203ee23c675fbd6e66daeb3000000000000000000000000000000000000000000034f086f3b33b684000000",
        "nonce": "0x37",
        "chainId": "0xaa36a7"
      },
      "additionalContracts": [],
      "isFixedGasLimit": false
    },
    {
      "hash": "0xa1ecc507dc6eb9f0cc037ba3dbb8beef5d4adaaa064f6a1e7499074cbf37707a",
      "transactionType": "CALL",
      "contractName": "MarginVault",
      "contractAddress": "0xf4f79b481508b5856203ee23c675fbd6e66daeb3",
      "function": "depositMargin(bytes32,address,uint256)",
      "arguments": [
        "0x00000000000000000000000010db2e70118e5fbeda30391ec957e608c9e4517e",
        "0xbb46678a1F6C527bD79eCFBF85332B8Ae83ceaf1",
        "4000000000000000000000000"
      ],
      "transaction": {
        "from": "0x10db2e70118e5fbeda30391ec957e608c9e4517e",
        "to": "0xf4f79b481508b5856203ee23c675fbd6e66daeb3",
        "gas": "0x24acd",
        "value": "0x0",
        "input": "0x6812d31500000000000000000000000010db2e70118e5fbeda30391ec957e608c9e4517e000000000000000000000000bb46678a1f6c527bd79ecfbf85332b8ae83ceaf1000000000000000000000000000000000000000000034f086f3b33b684000000",
        "nonce": "0x38",
        "chainId": "0xaa36a7"
      },
      "additionalContracts": [],
      "isFixedGasLimit": false
    }
  ],
  "receipts": [
    {
      "status": "0x1",
      "cumulativeGasUsed": "0x29a2ace",
      "logs": [
        {
          "address": "0xbb46678a1f6c527bd79ecfbf85332b8ae83ceaf1",
          "topics": [
            "0xddf252ad1be2c89b69c2b068fc378daa952ba7f163c4a11628f55a4df523b3ef",
            "0x0000000000000000000000000000000000000000000000000000000000000000",
            "0x000000000000000000000000474b4e7fd1a143edea6b77aa845f429d443e6410"
          ],
          "data": "0x000000000000000000000000000000000000000000034f086f3b33b684000000",
          "blockHash": "0x7ed94a84229e0ace4c4d802e903f951579c717265aac91b52d4286448b3439a3",
          "blockNumber": "0x9ed0c4",
          "blockTimestamp": "0x69ad5110",
          "transactionHash": "0x5ddf68b89cdf71db03771e033d919eebadb186eabbe11d79a435de8db04d8dfd",
          "transactionIndex": "0xa0",
          "logIndex": "0x231",
          "removed": false
        }
      ],
      "logsBloom": "0x00000000000000000000000000000000000000000000000000000000000000000000000000000000000000000000000000000000000000000000000000000000000000000000000000000008000000000000000000000000000000000000000000400000020000000000000000000800000000000000000000000010000000000100000008000000000000000000000000000000000000000000000000000000000000000000000000000000000000000000000000000000000100000000000000000002000000000000000000000000000000008000000000000010000020000000000000000000000000000000000000000000000000000000000000000000",
      "type": "0x2",
      "transactionHash": "0x5ddf68b89cdf71db03771e033d919eebadb186eabbe11d79a435de8db04d8dfd",
      "transactionIndex": "0xa0",
      "blockHash": "0x7ed94a84229e0ace4c4d802e903f951579c717265aac91b52d4286448b3439a3",
      "blockNumber": "0x9ed0c4",
      "gasUsed": "0x87bb",
      "effectiveGasPrice": "0x360313b6",
      "from": "0x993461bbf7e553eb5bd1f5248a72b524c4a3b15d",
      "to": "0xbb46678a1f6c527bd79ecfbf85332b8ae83ceaf1",
      "contractAddress": null
    },
    {
      "status": "0x1",
      "cumulativeGasUsed": "0xbc6176",
      "logs": [
        {
          "address": "0xbb46678a1f6c527bd79ecfbf85332b8ae83ceaf1",
          "topics": [
            "0xddf252ad1be2c89b69c2b068fc378daa952ba7f163c4a11628f55a4df523b3ef",
            "0x0000000000000000000000000000000000000000000000000000000000000000",
            "0x000000000000000000000000f68d9e0faa751ad61e0ed70852798bf9d9c04bf7"
          ],
          "data": "0x000000000000000000000000000000000000000000034f086f3b33b684000000",
          "blockHash": "0x59872105747b04d791cfc77ac6e978b44892b3aaaddcee42d8154d6c11072971",
          "blockNumber": "0x9ed0c5",
          "blockTimestamp": "0x69ad511c",
          "transactionHash": "0x3a3b15c30156e88a2043d43a08cb4da8452ea473a1267109d4cd5708acd72416",
          "transactionIndex": "0x5e",
          "logIndex": "0x82",
          "removed": false
        }
      ],
      "logsBloom": "0x00000000000000000000000000000000000000000000000000000000000000800000000000000000000000000000000000000000000000000000000000000000000000000000000000000008000000000000000000000000000000000000000000000000020000000000000000000800000000000000000000000010000000000100000008000000000000000000000000000000000000000000000000000000000000000000000000000000000000000400000000000000000000000000000000000002000000000000000000000001000000008000000000000000000020000000000000000000000000000000000000000000000000000000000000000000",
      "type": "0x2",
      "transactionHash": "0x3a3b15c30156e88a2043d43a08cb4da8452ea473a1267109d4cd5708acd72416",
      "transactionIndex": "0x5e",
      "blockHash": "0x59872105747b04d791cfc77ac6e978b44892b3aaaddcee42d8154d6c11072971",
      "blockNumber": "0x9ed0c5",
      "gasUsed": "0x87bb",
      "effectiveGasPrice": "0x3921cf28",
      "from": "0x993461bbf7e553eb5bd1f5248a72b524c4a3b15d",
      "to": "0xbb46678a1f6c527bd79ecfbf85332b8ae83ceaf1",
      "contractAddress": null
    },
    {
      "status": "0x1",
      "cumulativeGasUsed": "0x12ea7a6",
      "logs": [
        {
          "address": "0xbb46678a1f6c527bd79ecfbf85332b8ae83ceaf1",
          "topics": [
            "0xddf252ad1be2c89b69c2b068fc378daa952ba7f163c4a11628f55a4df523b3ef",
            "0x0000000000000000000000000000000000000000000000000000000000000000",
            "0x00000000000000000000000010db2e70118e5fbeda30391ec957e608c9e4517e"
          ],
          "data": "0x000000000000000000000000000000000000000000034f086f3b33b684000000",
          "blockHash": "0xe746fd99120ecc59bd1302a867f0ae6d037e497552d7c3c42c56a0bc03db7186",
          "blockNumber": "0x9ed0c6",
          "blockTimestamp": "0x69ad5134",
          "transactionHash": "0x6c29c3fc7e0394fc6829a69833ce32b2cb30837fb15844542b562b25041393a0",
          "transactionIndex": "0xb6",
          "logIndex": "0x123",
          "removed": false
        }
      ],
      "logsBloom": "0x00000000000000000000000000000000000000000000000000000000000000000000000000000000000000000000000000000000000000000000000000000000000000000000000000000008000000000000000000000000000000000000000000000000020000000000000000000800000000000000000000000010000000000100000008000000000000000000000000000000000000000000000000000000000000000000000000000000000000000000000000000000000000000000000000000002000000000000000041000000000000008000000000000000000020000000000000000000000080000000000000000000000000000000000000000000",
      "type": "0x2",
      "transactionHash": "0x6c29c3fc7e0394fc6829a69833ce32b2cb30837fb15844542b562b25041393a0",
      "transactionIndex": "0xb6",
      "blockHash": "0xe746fd99120ecc59bd1302a867f0ae6d037e497552d7c3c42c56a0bc03db7186",
      "blockNumber": "0x9ed0c6",
      "gasUsed": "0x87bb",
      "effectiveGasPrice": "0x3bac4611",
      "from": "0x993461bbf7e553eb5bd1f5248a72b524c4a3b15d",
      "to": "0xbb46678a1f6c527bd79ecfbf85332b8ae83ceaf1",
      "contractAddress": null
    },
    {
      "status": "0x1",
      "cumulativeGasUsed": "0xc7522d",
      "logs": [
        {
          "address": "0xbb46678a1f6c527bd79ecfbf85332b8ae83ceaf1",
          "topics": [
            "0x8c5be1e5ebec7d5bd14f71427d1e84f3dd0314c0f7b2291e5b200ac8c7c3b925",
            "0x000000000000000000000000474b4e7fd1a143edea6b77aa845f429d443e6410",
            "0x000000000000000000000000f4f79b481508b5856203ee23c675fbd6e66daeb3"
          ],
          "data": "0x000000000000000000000000000000000000000000034f086f3b33b684000000",
          "blockHash": "0xc8d8566cd326759fbd3858ae1df723f6a2f00a5748ae93242ac1f520841dff72",
          "blockNumber": "0x9ed0c7",
          "blockTimestamp": "0x69ad5140",
          "transactionHash": "0x5e64c2b71b8c0ef36f474dd2ff8700e0d25deaae8386f6defea8fc1352ced942",
          "transactionIndex": "0x51",
          "logIndex": "0x61",
          "removed": false
        }
      ],
      "logsBloom": "0x00000000004000000000000000000000000000000000000000000000000000000000000000000000000000000000000000000000000000000000000000200000000000000000000000000000000000000000000000000000000000000000000000400000000000000000000000000000000000000000000000000000000000000100000008000000000000000000000000000000004000000000000000000000020000000000000000000000000000000000000000000000000100000000000000000000000000000000010000000000000000008000000000000010000000000010000000000000000000000000000000000000000000000000000000000000",
      "type": "0x2",
      "transactionHash": "0x5e64c2b71b8c0ef36f474dd2ff8700e0d25deaae8386f6defea8fc1352ced942",
      "transactionIndex": "0x51",
      "blockHash": "0xc8d8566cd326759fbd3858ae1df723f6a2f00a5748ae93242ac1f520841dff72",
      "blockNumber": "0x9ed0c7",
      "gasUsed": "0xb768",
      "effectiveGasPrice": "0x4116315e",
      "from": "0x474b4e7fd1a143edea6b77aa845f429d443e6410",
      "to": "0xbb46678a1f6c527bd79ecfbf85332b8ae83ceaf1",
      "contractAddress": null
    },
    {
      "status": "0x1",
      "cumulativeGasUsed": "0x6ef0fb",
      "logs": [
        {
          "address": "0xbb46678a1f6c527bd79ecfbf85332b8ae83ceaf1",
          "topics": [
            "0xddf252ad1be2c89b69c2b068fc378daa952ba7f163c4a11628f55a4df523b3ef",
            "0x000000000000000000000000474b4e7fd1a143edea6b77aa845f429d443e6410",
            "0x000000000000000000000000f4f79b481508b5856203ee23c675fbd6e66daeb3"
          ],
          "data": "0x000000000000000000000000000000000000000000034f086f3b33b684000000",
          "blockHash": "0x5b5d806ec82173cab59f055d46f18b78b23db46cd011cbd67e136744507229b4",
          "blockNumber": "0x9ed0c8",
          "blockTimestamp": "0x69ad514c",
          "transactionHash": "0xa4e40f53018edb34e9470c98de4d04b471ade61aae4af253c942d7653b05b6db",
          "transactionIndex": "0x50",
          "logIndex": "0x81",
          "removed": false
        },
        {
          "address": "0xf4f79b481508b5856203ee23c675fbd6e66daeb3",
          "topics": [
            "0x30f6180e248310ab0c789da3026fbba7390872be072cfc5b3c20733f3a980c9e",
            "0x000000000000000000000000474b4e7fd1a143edea6b77aa845f429d443e6410",
            "0x000000000000000000000000bb46678a1f6c527bd79ecfbf85332b8ae83ceaf1"
          ],
          "data": "0x000000000000000000000000000000000000000000034f086f3b33b684000000",
          "blockHash": "0x5b5d806ec82173cab59f055d46f18b78b23db46cd011cbd67e136744507229b4",
          "blockNumber": "0x9ed0c8",
          "blockTimestamp": "0x69ad514c",
          "transactionHash": "0xa4e40f53018edb34e9470c98de4d04b471ade61aae4af253c942d7653b05b6db",
          "transactionIndex": "0x50",
          "logIndex": "0x82",
          "removed": false
        }
      ],
      "logsBloom": "0x00000000004080000000000000000000000000000000000000000000000000000000000000000000000000000000000000000000000000000000000000000000000000000000000000000008000000000000000000000000000000000000000000400000000000000000000000000000000000000000000000000010000000000100000008000001000000000000000000000000004000000000000000000080000000000001000000000000000000000000000040000000000100000000000000000002000001000000010000000001000800008000000000000010000000000000000000000000000000000000000000000000000000000000000400000000",
      "type": "0x2",
      "transactionHash": "0xa4e40f53018edb34e9470c98de4d04b471ade61aae4af253c942d7653b05b6db",
      "transactionIndex": "0x50",
      "blockHash": "0x5b5d806ec82173cab59f055d46f18b78b23db46cd011cbd67e136744507229b4",
      "blockNumber": "0x9ed0c8",
      "gasUsed": "0x1eba2",
      "effectiveGasPrice": "0x4518422a",
      "from": "0x474b4e7fd1a143edea6b77aa845f429d443e6410",
      "to": "0xf4f79b481508b5856203ee23c675fbd6e66daeb3",
      "contractAddress": null
    },
    {
      "status": "0x1",
      "cumulativeGasUsed": "0xf1f4a4",
      "logs": [
        {
          "address": "0xbb46678a1f6c527bd79ecfbf85332b8ae83ceaf1",
          "topics": [
            "0x8c5be1e5ebec7d5bd14f71427d1e84f3dd0314c0f7b2291e5b200ac8c7c3b925",
            "0x000000000000000000000000f68d9e0faa751ad61e0ed70852798bf9d9c04bf7",
            "0x000000000000000000000000f4f79b481508b5856203ee23c675fbd6e66daeb3"
          ],
          "data": "0x000000000000000000000000000000000000000000034f086f3b33b684000000",
          "blockHash": "0xb29c4a8458f49e1b335be25de6fa7260cae3cfeed0c57d33b0c3384c37318a32",
          "blockNumber": "0x9ed0c9",
          "blockTimestamp": "0x69ad5164",
          "transactionHash": "0x088332aa5fc14e1a145edf02277b83b6b2a9891318e6715e5af74b3aed582ec5",
          "transactionIndex": "0x93",
          "logIndex": "0xe5",
          "removed": false
        }
      ],
      "logsBloom": "0x00000000004000000000000000000000000000000000000000000000000000800000000000000000000000000000000000000000000000000000000000200000000000000000000000000000000000000000000000000000000000000000000000000000000000000000000000000000000000000000000000000000000000000100000008000000000000000000000000000000004000000000000000000000020000000000000000000000000000000400000000000000000000000000000000000000000000000000010000000001000000008000000000000000000000000010000000000000000000000000000000000000000000000000000000000000",
      "type": "0x2",
      "transactionHash": "0x088332aa5fc14e1a145edf02277b83b6b2a9891318e6715e5af74b3aed582ec5",
      "transactionIndex": "0x93",
      "blockHash": "0xb29c4a8458f49e1b335be25de6fa7260cae3cfeed0c57d33b0c3384c37318a32",
      "blockNumber": "0x9ed0c9",
      "gasUsed": "0xb768",
      "effectiveGasPrice": "0x4572e68a",
      "from": "0xf68d9e0faa751ad61e0ed70852798bf9d9c04bf7",
      "to": "0xbb46678a1f6c527bd79ecfbf85332b8ae83ceaf1",
      "contractAddress": null
    },
    {
      "status": "0x1",
      "cumulativeGasUsed": "0xf8a42b",
      "logs": [
        {
          "address": "0xbb46678a1f6c527bd79ecfbf85332b8ae83ceaf1",
          "topics": [
            "0xddf252ad1be2c89b69c2b068fc378daa952ba7f163c4a11628f55a4df523b3ef",
            "0x000000000000000000000000f68d9e0faa751ad61e0ed70852798bf9d9c04bf7",
            "0x000000000000000000000000f4f79b481508b5856203ee23c675fbd6e66daeb3"
          ],
          "data": "0x000000000000000000000000000000000000000000034f086f3b33b684000000",
          "blockHash": "0x4ffb4714007927e3dadf86ef137d9294f48eb4979e5355d11a13debe6caa302c",
          "blockNumber": "0x9ed0ca",
          "blockTimestamp": "0x69ad5170",
          "transactionHash": "0x293aee67ee2d34b8c50e89b5869286c9d6abaa6c80b87b3aaa7674b593a2df42",
          "transactionIndex": "0x60",
          "logIndex": "0xb5",
          "removed": false
        },
        {
          "address": "0xf4f79b481508b5856203ee23c675fbd6e66daeb3",
          "topics": [
            "0x30f6180e248310ab0c789da3026fbba7390872be072cfc5b3c20733f3a980c9e",
            "0x000000000000000000000000f68d9e0faa751ad61e0ed70852798bf9d9c04bf7",
            "0x000000000000000000000000bb46678a1f6c527bd79ecfbf85332b8ae83ceaf1"
          ],
          "data": "0x000000000000000000000000000000000000000000034f086f3b33b684000000",
          "blockHash": "0x4ffb4714007927e3dadf86ef137d9294f48eb4979e5355d11a13debe6caa302c",
          "blockNumber": "0x9ed0ca",
          "blockTimestamp": "0x69ad5170",
          "transactionHash": "0x293aee67ee2d34b8c50e89b5869286c9d6abaa6c80b87b3aaa7674b593a2df42",
          "transactionIndex": "0x60",
          "logIndex": "0xb6",
          "removed": false
        }
      ],
      "logsBloom": "0x00000000004080000000000000000000000000000000000000000000000000800000000000000000000000000000000000000000000000000000000000000000000000000000000000000008000000000000000000000000000000000000000000000000000000000000000000000000000000000000000000000010000000000100000008000001000000000000000000000000004000000000000000000080000000000001000000000000000000000400000040000000000000000000000000000002000001000000010000000001000800008000000000000000000000000000000000000000000000000000000000000000000000000000000400000000",
      "type": "0x2",
      "transactionHash": "0x293aee67ee2d34b8c50e89b5869286c9d6abaa6c80b87b3aaa7674b593a2df42",
      "transactionIndex": "0x60",
      "blockHash": "0x4ffb4714007927e3dadf86ef137d9294f48eb4979e5355d11a13debe6caa302c",
      "blockNumber": "0x9ed0ca",
      "gasUsed": "0x1a8d6",
      "effectiveGasPrice": "0x499f8001",
      "from": "0xf68d9e0faa751ad61e0ed70852798bf9d9c04bf7",
      "to": "0xf4f79b481508b5856203ee23c675fbd6e66daeb3",
      "contractAddress": null
    },
    {
      "status": "0x1",
      "cumulativeGasUsed": "0x9f281b",
      "logs": [
        {
          "address": "0xbb46678a1f6c527bd79ecfbf85332b8ae83ceaf1",
          "topics": [
            "0x8c5be1e5ebec7d5bd14f71427d1e84f3dd0314c0f7b2291e5b200ac8c7c3b925",
            "0x00000000000000000000000010db2e70118e5fbeda30391ec957e608c9e4517e",
            "0x000000000000000000000000f4f79b481508b5856203ee23c675fbd6e66daeb3"
          ],
          "data": "0x000000000000000000000000000000000000000000034f086f3b33b684000000",
          "blockHash": "0x04778efdeaac8e7456a7e6308a718fc365fb29d0f6f7b8004203e8b6071e21f5",
          "blockNumber": "0x9ed0cb",
          "blockTimestamp": "0x69ad517c",
          "transactionHash": "0x1722edb4f7d36af6c20760b29e724e17ad42e0a63e0a6d99b2fa1993e4aabc84",
          "transactionIndex": "0x5b",
          "logIndex": "0xb2",
          "removed": false
        }
      ],
      "logsBloom": "0x00000000004000000000000000000000000000000000000000000000000000000000000000000000000000000000000000000000000000000000000000200000000000000000000000000000000000000000000000000000000000000000000000000000000000000000000000000000000000000000000000000000000000000100000008000000000000000000000000000000004000000000000000000000020000000000000000000000000000000000000000000000000000000000000000000000000000000000010041000000000000008000000000000000000000000010000000000000000080000000000000000000000000000000000000000000",
      "type": "0x2",
      "transactionHash": "0x1722edb4f7d36af6c20760b29e724e17ad42e0a63e0a6d99b2fa1993e4aabc84",
      "transactionIndex": "0x5b",
      "blockHash": "0x04778efdeaac8e7456a7e6308a718fc365fb29d0f6f7b8004203e8b6071e21f5",
      "blockNumber": "0x9ed0cb",
      "gasUsed": "0xb768",
      "effectiveGasPrice": "0x4c6d21de",
      "from": "0x10db2e70118e5fbeda30391ec957e608c9e4517e",
      "to": "0xbb46678a1f6c527bd79ecfbf85332b8ae83ceaf1",
      "contractAddress": null
    },
    {
      "status": "0x1",
      "cumulativeGasUsed": "0xf7e0a3",
      "logs": [
        {
          "address": "0xbb46678a1f6c527bd79ecfbf85332b8ae83ceaf1",
          "topics": [
            "0xddf252ad1be2c89b69c2b068fc378daa952ba7f163c4a11628f55a4df523b3ef",
            "0x00000000000000000000000010db2e70118e5fbeda30391ec957e608c9e4517e",
            "0x000000000000000000000000f4f79b481508b5856203ee23c675fbd6e66daeb3"
          ],
          "data": "0x000000000000000000000000000000000000000000034f086f3b33b684000000",
          "blockHash": "0x76b65cf3a3dfdbf683fdd7cf35cb9b182e2c001e4db8adbafd4ce37f4932a90a",
          "blockNumber": "0x9ed0cc",
          "blockTimestamp": "0x69ad5188",
          "transactionHash": "0xa1ecc507dc6eb9f0cc037ba3dbb8beef5d4adaaa064f6a1e7499074cbf37707a",
          "transactionIndex": "0x60",
          "logIndex": "0x96",
          "removed": false
        },
        {
          "address": "0xf4f79b481508b5856203ee23c675fbd6e66daeb3",
          "topics": [
            "0x30f6180e248310ab0c789da3026fbba7390872be072cfc5b3c20733f3a980c9e",
            "0x00000000000000000000000010db2e70118e5fbeda30391ec957e608c9e4517e",
            "0x000000000000000000000000bb46678a1f6c527bd79ecfbf85332b8ae83ceaf1"
          ],
          "data": "0x000000000000000000000000000000000000000000034f086f3b33b684000000",
          "blockHash": "0x76b65cf3a3dfdbf683fdd7cf35cb9b182e2c001e4db8adbafd4ce37f4932a90a",
          "blockNumber": "0x9ed0cc",
          "blockTimestamp": "0x69ad5188",
          "transactionHash": "0xa1ecc507dc6eb9f0cc037ba3dbb8beef5d4adaaa064f6a1e7499074cbf37707a",
          "transactionIndex": "0x60",
          "logIndex": "0x97",
          "removed": false
        }
      ],
      "logsBloom": "0x00000000004080000000000000000000000000000000000000000000000000000000000000000000000000000000000000000000000000000000000000000000000000000000000000000008000000000000000000000000000000000000000000000000000000000000000000000000000000000000000000000010000000000100000008000001000000000000000000000000004000000000000000000080000000000001000000000000000000000000000040000000000000000000000000000002000001000000010041000001000800008000000000000000000000000000000000000000000080000000000000000000000000000000000400000000",
      "type": "0x2",
      "transactionHash": "0xa1ecc507dc6eb9f0cc037ba3dbb8beef5d4adaaa064f6a1e7499074cbf37707a",
      "transactionIndex": "0x60",
      "blockHash": "0x76b65cf3a3dfdbf683fdd7cf35cb9b182e2c001e4db8adbafd4ce37f4932a90a",
      "blockNumber": "0x9ed0cc",
      "gasUsed": "0x1a8d6",
      "effectiveGasPrice": "0x4c862437",
      "from": "0x10db2e70118e5fbeda30391ec957e608c9e4517e",
      "to": "0xf4f79b481508b5856203ee23c675fbd6e66daeb3",
      "contractAddress": null
    }
  ],
  "libraries": [],
  "pending": [],
  "returns": {},
  "timestamp": 1772966280985,
  "chain": 11155111,
  "commit": "eb687bb"
}