{
  "transactions": [
    {
      "hash": "0xbc1b43bc2ca73f9a83a4b92bceab81f3fa9af96fbfca86ab02d88017fe0a9bad",
      "transactionType": "CALL",
      "contractName": null,
      "contractAddress": "0xbb46678a1f6c527bd79ecfbf85332b8ae83ceaf1",
      "function": "mint(address,uint256)",
      "arguments": [
        "0x474B4E7FD1A143eDea6b77aa845F429D443E6410",
        "4000000000000000000000000"
      ],
      "transaction": {
        "from": "0x993461bbf7e553eb5bd1f5248a72b524c4a3b15d",
        "to": "0xbb46678a1f6c527bd79ecfbf85332b8ae83ceaf1",
        "gas": "0xc681",
        "value": "0x0",
        "input": "0x40c10f19000000000000000000000000474b4e7fd1a143edea6b77aa845f429d443e6410000000000000000000000000000000000000000000034f086f3b33b684000000",
        "nonce": "0x2a5",
        "chainId": "0xaa36a7"
      },
      "additionalContracts": [],
      "isFixedGasLimit": false
    },
    {
      "hash": "0x37b7401d6b8b980d14339f53b40e797df65c9a85be6773bca9d20cf7af1c122b",
      "transactionType": "CALL",
      "contractName": null,
      "contractAddress": "0xbb46678a1f6c527bd79ecfbf85332b8ae83ceaf1",
      "function": "mint(address,uint256)",
      "arguments": [
        "0xf68D9e0fAa751AD61e0ED70852798bF9D9C04bF7",
        "4000000000000000000000000"
      ],
      "transaction": {
        "from": "0x993461bbf7e553eb5bd1f5248a72b524c4a3b15d",
        "to": "0xbb46678a1f6c527bd79ecfbf85332b8ae83ceaf1",
        "gas": "0xc681",
        "value": "0x0",
        "input": "0x40c10f19000000000000000000000000f68d9e0faa751ad61e0ed70852798bf9d9c04bf7000000000000000000000000000000000000000000034f086f3b33b684000000",
        "nonce": "0x2a6",
        "chainId": "0xaa36a7"
      },
      "additionalContracts": [],
      "isFixedGasLimit": false
    },
    {
      "hash": "0x82b3e25b0185d0c79736689e4d2c618b592bb557c9d10ca26f0cf3ecf9bd876f",
      "transactionType": "CALL",
      "contractName": null,
      "contractAddress": "0xbb46678a1f6c527bd79ecfbf85332b8ae83ceaf1",
      "function": "approve(address,uint256)",
      "arguments": [
        "0x9036b1d7B51331d6F517b7081074fE181D494BC6",
        "4000000000000000000000000"
      ],
      "transaction": {
        "from": "0x474b4e7fd1a143edea6b77aa845f429d443e6410",
        "to": "0xbb46678a1f6c527bd79ecfbf85332b8ae83ceaf1",
        "gas": "0xfd53",
        "value": "0x0",
        "input": "0x095ea7b30000000000000000000000009036b1d7b51331d6f517b7081074fe181d494bc6000000000000000000000000000000000000000000034f086f3b33b684000000",
        "nonce": "0x27",
        "chainId": "0xaa36a7"
      },
      "additionalContracts": [],
      "isFixedGasLimit": false
    },
    {
      "hash": "0x275b88d21e24c49b55fa2f8dac2e03619b40913814a79ba0d2baa9489b1db051",
      "transactionType": "CALL",
      "contractName": "MarginVault",
      "contractAddress": "0x9036b1d7b51331d6f517b7081074fe181d494bc6",
      "function": "depositMargin(bytes32,address,uint256)",
      "arguments": [
        "0x000000000000000000000000474b4e7fd1a143edea6b77aa845f429d443e6410",
        "0xbb46678a1F6C527bD79eCFBF85332B8Ae83ceaf1",
        "4000000000000000000000000"
      ],
      "transaction": {
        "from": "0x474b4e7fd1a143edea6b77aa845f429d443e6410",
        "to": "0x9036b1d7b51331d6f517b7081074fe181d494bc6",
        "gas": "0x19d7f",
        "value": "0x0",
        "input": "0x6812d315000000000000000000000000474b4e7fd1a143edea6b77aa845f429d443e6410000000000000000000000000bb46678a1f6c527bd79ecfbf85332b8ae83ceaf1000000000000000000000000000000000000000000034f086f3b33b684000000",
        "nonce": "0x28",
        "chainId": "0xaa36a7"
      },
      "additionalContracts": [],
      "isFixedGasLimit": false
    },
    {
      "hash": "0x1dca4c61f8c6f2b87e3bbef538cffe510f3fc7fc99e1077df8fd83096c0275bd",
      "transactionType": "CALL",
      "contractName": null,
      "contractAddress": "0xbb46678a1f6c527bd79ecfbf85332b8ae83ceaf1",
      "function": "approve(address,uint256)",
      "arguments": [
        "0x9036b1d7B51331d6F517b7081074fE181D494BC6",
        "4000000000000000000000000"
      ],
      "transaction": {
        "from": "0xf68d9e0faa751ad61e0ed70852798bf9d9c04bf7",
        "to": "0xbb46678a1f6c527bd79ecfbf85332b8ae83ceaf1",
        "gas": "0xfd53",
        "value": "0x0",
        "input": "0x095ea7b30000000000000000000000009036b1d7b51331d6f517b7081074fe181d494bc6000000000000000000000000000000000000000000034f086f3b33b684000000",
        "nonce": "0x25",
        "chainId": "0xaa36a7"
      },
      "additionalContracts": [],
      "isFixedGasLimit": false
    },
    {
      "hash": "0x25d459f5a57072cadd2a8a68e6d83e239c8698fedc454c8ef3eb179debc39f8a",
      "transactionType": "CALL",
      "contractName": "MarginVault",
      "contractAddress": "0x9036b1d7b51331d6f517b7081074fe181d494bc6",
      "function": "depositMargin(bytes32,address,uint256)",
      "arguments": [
        "0x000000000000000000000000f68d9e0faa751ad61e0ed70852798bf9d9c04bf7",
        "0xbb46678a1F6C527bD79eCFBF85332B8Ae83ceaf1",
        "4000000000000000000000000"
      ],
      "transaction": {
        "from": "0xf68d9e0faa751ad61e0ed70852798bf9d9c04bf7",
        "to": "0x9036b1d7b51331d6f517b7081074fe181d494bc6",
        "gas": "0x19d7f",
        "value": "0x0",
        "input": "0x6812d315000000000000000000000000f68d9e0faa751ad61e0ed70852798bf9d9c04bf7000000000000000000000000bb46678a1f6c527bd79ecfbf85332b8ae83ceaf1000000000000000000000000000000000000000000034f086f3b33b684000000",
        "nonce": "0x26",
        "chainId": "0xaa36a7"
      },
      "additionalContracts": [],
      "isFixedGasLimit": false
    }
  ],
  "receipts": [
    {
      "status": "0x1",
      "cumulativeGasUsed": "0x8cfef8",
      "logs": [
        {
          "address": "0xbb46678a1f6c527bd79ecfbf85332b8ae83ceaf1",
          "topics": [
            "0xddf252ad1be2c89b69c2b068fc378daa952ba7f163c4a11628f55a4df523b3ef",
            "0x0000000000000000000000000000000000000000000000000000000000000000",
            "0x000000000000000000000000474b4e7fd1a143edea6b77aa845f429d443e6410"
          ],
          "data": "0x000000000000000000000000000000000000000000034f086f3b33b684000000",
          "blockHash": "0xe1a7c24c1c2c8d08bb5972ed8e96c5070d97431b2b063df61d7813046d95f55f",
          "blockNumber": "0x9e4d69",
          "blockTimestamp": "0x69a6a2e0",
          "transactionHash": "0xbc1b43bc2ca73f9a83a4b92bceab81f3fa9af96fbfca86ab02d88017fe0a9bad",
          "transactionIndex": "0x59",
          "logIndex": "0x7f",
          "removed": false
        }
      ],
      "logsBloom": "0x00000000000000000000000000000000000000000000000000000000000000000000000000000000000000000000000000000000000000000000000000000000000000000000000000000008000000000000000000000000000000000000000000400000020000000000000000000800000000000000000000000010000000000100000008000000000000000000000000000000000000000000000000000000000000000000000000000000000000000000000000000000000100000000000000000002000000000000000000000000000000008000000000000010000020000000000000000000000000000000000000000000000000000000000000000000",
      "type": "0x2",
      "transactionHash": "0xbc1b43bc2ca73f9a83a4b92bceab81f3fa9af96fbfca86ab02d88017fe0a9bad",
      "transactionIndex": "0x59",
      "blockHash": "0xe1a7c24c1c2c8d08bb5972ed8e96c5070d97431b2b063df61d7813046d95f55f",
      "blockNumber": "0x9e4d69",
      "gasUsed": "0x87bb",
      "effectiveGasPrice": "0xf424b",
      "from": "0x993461bbf7e553eb5bd1f5248a72b524c4a3b15d",
      "to": "0xbb46678a1f6c527bd79ecfbf85332b8ae83ceaf1",
      "contractAddress": null
    },
    {
      "status": "0x1",
      "cumulativeGasUsed": "0x62c984",
      "logs": [
        {
          "address": "0xbb46678a1f6c527bd79ecfbf85332b8ae83ceaf1",
          "topics": [
            "0xddf252ad1be2c89b69c2b068fc378daa952ba7f163c4a11628f55a4df523b3ef",
            "0x0000000000000000000000000000000000000000000000000000000000000000",
            "0x000000000000000000000000f68d9e0faa751ad61e0ed70852798bf9d9c04bf7"
          ],
          "data": "0x000000000000000000000000000000000000000000034f086f3b33b684000000",
          "blockHash": "0xadd386f7145c1acb524246c12bc7974baef3a4e6364aff6ee4fa5532f6e57fa6",
          "blockNumber": "0x9e4d6a",
          "blockTimestamp": "0x69a6a2ec",
          "transactionHash": "0x37b7401d6b8b980d14339f53b40e797df65c9a85be6773bca9d20cf7af1c122b",
          "transactionIndex": "0x59",
          "logIndex": "0x80",
          "removed": false
        }
      ],
      "logsBloom": "0x00000000000000000000000000000000000000000000000000000000000000800000000000000000000000000000000000000000000000000000000000000000000000000000000000000008000000000000000000000000000000000000000000000000020000000000000000000800000000000000000000000010000000000100000008000000000000000000000000000000000000000000000000000000000000000000000000000000000000000400000000000000000000000000000000000002000000000000000000000001000000008000000000000000000020000000000000000000000000000000000000000000000000000000000000000000",
      "type": "0x2",
      "transactionHash": "0x37b7401d6b8b980d14339f53b40e797df65c9a85be6773bca9d20cf7af1c122b",
      "transactionIndex": "0x59",
      "blockHash": "0xadd386f7145c1acb524246c12bc7974baef3a4e6364aff6ee4fa5532f6e57fa6",
      "blockNumber": "0x9e4d6a",
      "gasUsed": "0x87bb",
      "effectiveGasPrice": "0xf424b",
      "from": "0x993461bbf7e553eb5bd1f5248a72b524c4a3b15d",
      "to": "0xbb46678a1f6c527bd79ecfbf85332b8ae83ceaf1",
      "contractAddress": null
    },
    {
      "status": "0x1",
      "cumulativeGasUsed": "0xb12185",
      "logs": [
        {
          "address": "0xbb46678a1f6c527bd79ecfbf85332b8ae83ceaf1",
          "topics": [
            "0x8c5be1e5ebec7d5bd14f71427d1e84f3dd0314c0f7b2291e5b200ac8c7c3b925",
            "0x000000000000000000000000474b4e7fd1a143edea6b77aa845f429d443e6410",
            "0x0000000000000000000000009036b1d7b51331d6f517b7081074fe181d494bc6"
          ],
          "data": "0x000000000000000000000000000000000000000000034f086f3b33b684000000",
          "blockHash": "0xb9868ba2a83b14668a7825ce93c9f7cbdb4ba22a4eaf6a64c5904502a551f9de",
          "blockNumber": "0x9e4d6b",
          "blockTimestamp": "0x69a6a2f8",
          "transactionHash": "0x82b3e25b0185d0c79736689e4d2c618b592bb557c9d10ca26f0cf3ecf9bd876f",
          "transactionIndex": "0x5f",
          "logIndex": "0x96",
          "removed": false
        }
      ],
      "logsBloom": "0x00000000000000000000080000000000000000000000000000000000000000000000000000000000000000000000000000000000000000000000000000200000000000000000000000000000000000000000000000000000000000000000000000400000008000000000000000000000000000000000000000000000000000000100000008000000000000000000000000000000000000000000000000000000020000000000000000000000000000000000000000000000000100000000000000000000000000000000000000000000000000008000000080000010000000000010000000000000000000000000000000000000000000000000000000000000",
      "type": "0x2",
      "transactionHash": "0x82b3e25b0185d0c79736689e4d2c618b592bb557c9d10ca26f0cf3ecf9bd876f",
      "transactionIndex": "0x5f",
      "blockHash": "0xb9868ba2a83b14668a7825ce93c9f7cbdb4ba22a4eaf6a64c5904502a551f9de",
      "blockNumber": "0x9e4d6b",
      "gasUsed": "0xb768",
      "effectiveGasPrice": "0xf424a",
      "from": "0x474b4e7fd1a143edea6b77aa845f429d443e6410",
      "to": "0xbb46678a1f6c527bd79ecfbf85332b8ae83ceaf1",
      "contractAddress": null
    },
    {
      "status": "0x1",
      "cumulativeGasUsed": "0x3b56f6",
      "logs": [
        {
          "address": "0xbb46678a1f6c527bd79ecfbf85332b8ae83ceaf1",
          "topics": [
            "0xddf252ad1be2c89b69c2b068fc378daa952ba7f163c4a11628f55a4df523b3ef",
            "0x000000000000000000000000474b4e7fd1a143edea6b77aa845f429d443e6410",
            "0x0000000000000000000000009036b1d7b51331d6f517b7081074fe181d494bc6"
          ],
          "data": "0x000000000000000000000000000000000000000000034f086f3b33b684000000",
          "blockHash": "0xb475a1f47ddc22d0ae004a04132faf4a64918e5a131893acd7b0e262ddf14c63",
          "blockNumber": "0x9e4d6c",
          "blockTimestamp": "0x69a6a304",
          "transactionHash": "0x275b88d21e24c49b55fa2f8dac2e03619b40913814a79ba0d2baa9489b1db051",
          "transactionIndex": "0x3c",
          "logIndex": "0x50",
          "removed": false
        },
        {
          "address": "0x9036b1d7b51331d6f517b7081074fe181d494bc6",
          "topics": [
            "0x30f6180e248310ab0c789da3026fbba7390872be072cfc5b3c20733f3a980c9e",
            "0x000000000000000000000000474b4e7fd1a143edea6b77aa845f429d443e6410",
            "0x000000000000000000000000bb46678a1f6c527bd79ecfbf85332b8ae83ceaf1"
          ],
          "data": "0x000000000000000000000000000000000000000000034f086f3b33b684000000",
          "blockHash": "0xb475a1f47ddc22d0ae004a04132faf4a64918e5a131893acd7b0e262ddf14c63",
          "blockNumber": "0x9e4d6c",
          "blockTimestamp": "0x69a6a304",
          "transactionHash": "0x275b88d21e24c49b55fa2f8dac2e03619b40913814a79ba0d2baa9489b1db051",
          "transactionIndex": "0x3c",
          "logIndex": "0x51",
          "removed": false
        }
      ],
      "logsBloom": "0x00000000000000000000080000000000000000000000000000000000000000000000000000000000000000000000000000000000000000000000000000000000000000000000000000000008000000000000000000000000000000000000000000400000008000000000000000000000000000000000000000000010000000000100000008000001000000000000000000080020000000000000000000000000000000000000000000000000000000000000000040000000000100000000000000000002000001000000000000000001000800008000000080000010000000000000000000000000000000000000000000000000000000000000000400000000",
      "type": "0x2",
      "transactionHash": "0x275b88d21e24c49b55fa2f8dac2e03619b40913814a79ba0d2baa9489b1db051",
      "transactionIndex": "0x3c",
      "blockHash": "0xb475a1f47ddc22d0ae004a04132faf4a64918e5a131893acd7b0e262ddf14c63",
      "blockNumber": "0x9e4d6c",
      "gasUsed": "0x12b5e",
      "effectiveGasPrice": "0xf424a",
      "from": "0x474b4e7fd1a143edea6b77aa845f429d443e6410",
      "to": "0x9036b1d7b51331d6f517b7081074fe181d494bc6",
      "contractAddress": null
    },
    {
      "status": "0x1",
      "cumulativeGasUsed": "0xa572ff",
      "logs": [
        {
          "address": "0xbb46678a1f6c527bd79ecfbf85332b8ae83ceaf1",
          "topics": [
            "0x8c5be1e5ebec7d5bd14f71427d1e84f3dd0314c0f7b2291e5b200ac8c7c3b925",
            "0x000000000000000000000000f68d9e0faa751ad61e0ed70852798bf9d9c04bf7",
            "0x0000000000000000000000009036b1d7b51331d6f517b7081074fe181d494bc6"
          ],
          "data": "0x000000000000000000000000000000000000000000034f086f3b33b684000000",
          "blockHash": "0xaddad28aefd371f990c23fa0d279d93410082b9bffc229fc162dbff4ca968aef",
          "blockNumber": "0x9e4d6d",
          "blockTimestamp": "0x69a6a310",
          "transactionHash": "0x1dca4c61f8c6f2b87e3bbef538cffe510f3fc7fc99e1077df8fd83096c0275bd",
          "transactionIndex": "0x54",
          "logIndex": "0x96",
          "removed": false
        }
      ],
      "logsBloom": "0x00000000000000000000080000000000000000000000000000000000000000800000000000000000000000000000000000000000000000000000000000200000000000000000000000000000000000000000000000000000000000000000000000000000008000000000000000000000000000000000000000000000000000000100000008000000000000000000000000000000000000000000000000000000020000000000000000000000000000000400000000000000000000000000000000000000000000000000000000000001000000008000000080000000000000000010000000000000000000000000000000000000000000000000000000000000",
      "type": "0x2",
      "transactionHash": "0x1dca4c61f8c6f2b87e3bbef538cffe510f3fc7fc99e1077df8fd83096c0275bd",
      "transactionIndex": "0x54",
      "blockHash": "0xaddad28aefd371f990c23fa0d279d93410082b9bffc229fc162dbff4ca968aef",
      "blockNumber": "0x9e4d6d",
      "gasUsed": "0xb768",
      "effectiveGasPrice": "0xf424a",
      "from": "0xf68d9e0faa751ad61e0ed70852798bf9d9c04bf7",
      "to": "0xbb46678a1f6c527bd79ecfbf85332b8ae83ceaf1",
      "contractAddress": null
    },
    {
      "status": "0x1",
      "cumulativeGasUsed": "0x8c8b75",
      "logs": [
        {
          "address": "0xbb46678a1f6c527bd79ecfbf85332b8ae83ceaf1",
          "topics": [
            "0xddf252ad1be2c89b69c2b068fc378daa952ba7f163c4a11628f55a4df523b3ef",
            "0x000000000000000000000000f68d9e0faa751ad61e0ed70852798bf9d9c04bf7",
            "0x0000000000000000000000009036b1d7b51331d6f517b7081074fe181d494bc6"
          ],
          "data": "0x000000000000000000000000000000000000000000034f086f3b33b684000000",
          "blockHash": "0xf92e81d6359a2e5b98f782c6785771798a090e85d60dc2013bc24fece2b85f58",
          "blockNumber": "0x9e4d6e",
          "blockTimestamp": "0x69a6a31c",
          "transactionHash": "0x25d459f5a57072cadd2a8a68e6d83e239c8698fedc454c8ef3eb179debc39f8a",
          "transactionIndex": "0x65",
          "logIndex": "0x9b",
          "removed": false
        },
        {
          "address": "0x9036b1d7b51331d6f517b7081074fe181d494bc6",
          "topics": [
            "0x30f6180e248310ab0c789da3026fbba7390872be072cfc5b3c20733f3a980c9e",
            "0x000000000000000000000000f68d9e0faa751ad61e0ed70852798bf9d9c04bf7",
            "0x000000000000000000000000bb46678a1f6c527bd79ecfbf85332b8ae83ceaf1"
          ],
          "data": "0x000000000000000000000000000000000000000000034f086f3b33b684000000",
          "blockHash": "0xf92e81d6359a2e5b98f782c6785771798a090e85d60dc2013bc24fece2b85f58",
          "blockNumber": "0x9e4d6e",
          "blockTimestamp": "0x69a6a31c",
          "transactionHash": "0x25d459f5a57072cadd2a8a68e6d83e239c8698fedc454c8ef3eb179debc39f8a",
          "transactionIndex": "0x65",
          "logIndex": "0x9c",
          "removed": false
        }
      ],
      "logsBloom": "0x00000000000000000000080000000000000000000000000000000000000000800000000000000000000000000000000000000000000000000000000000000000000000000000000000000008000000000000000000000000000000000000000000000000008000000000000000000000000000000000000000000010000000000100000008000001000000000000000000080020000000000000000000000000000000000000000000000000000000000400000040000000000000000000000000000002000001000000000000000001000800008000000080000000000000000000000000000000000000000000000000000000000000000000000400000000",
      "type": "0x2",
      "transactionHash": "0x25d459f5a57072cadd2a8a68e6d83e239c8698fedc454c8ef3eb179debc39f8a",
      "transactionIndex": "0x65",
      "blockHash": "0xf92e81d6359a2e5b98f782c6785771798a090e85d60dc2013bc24fece2b85f58",
      "blockNumber": "0x9e4d6e",
      "gasUsed": "0x12b5e",
      "effectiveGasPrice": "0xf424a",
      "from": "0xf68d9e0faa751ad61e0ed70852798bf9d9c04bf7",
      "to": "0x9036b1d7b51331d6f517b7081074fe181d494bc6",
      "contractAddress": null
    }
  ],
  "libraries": [],
  "pending": [],
  "returns": {},
  "timestamp": 1772528412412,
  "chain": 11155111,
  "commit": "b8160eb"
}