{
  "transactions": [
    {
      "hash": "0x9df0958c2b52b3f20014453ce6e533dab4e6929a92bf06615e7706dff9a5cc4a",
      "transactionType": "CALL",
      "contractName": null,
      "contractAddress": "0xbb46678a1f6c527bd79ecfbf85332b8ae83ceaf1",
      "function": "mint(address,uint256)",
      "arguments": [
        "0x474B4E7FD1A143eDea6b77aa845F429D443E6410",
        "4000000000000000000000000"
      ],
      "transaction": {
        "from": "0x993461bbf7e553eb5bd1f5248a72b524c4a3b15d",
        "to": "0xbb46678a1f6c527bd79ecfbf85332b8ae83ceaf1",
        "gas": "0xc681",
        "value": "0x0",
        "input": "0x40c10f19000000000000000000000000474b4e7fd1a143edea6b77aa845f429d443e6410000000000000000000000000000000000000000000034f086f3b33b684000000",
        "nonce": "0x48f",
        "chainId": "0xaa36a7"
      },
      "additionalContracts": [],
      "isFixedGasLimit": false
    },
    {
      "hash": "0xdecbf5a745904bb34c7bdb9d1f951a0e0e9d80b876534b3d1c268c0d900f3106",
      "transactionType": "CALL",
      "contractName": null,
      "contractAddress": "0xbb46678a1f6c527bd79ecfbf85332b8ae83ceaf1",
      "function": "mint(address,uint256)",
      "arguments": [
        "0xf68D9e0fAa751AD61e0ED70852798bF9D9C04bF7",
        "4000000000000000000000000"
      ],
      "transaction": {
        "from": "0x993461bbf7e553eb5bd1f5248a72b524c4a3b15d",
        "to": "0xbb46678a1f6c527bd79ecfbf85332b8ae83ceaf1",
        "gas": "0xc681",
        "value": "0x0",
        "input": "0x40c10f19000000000000000000000000f68d9e0faa751ad61e0ed70852798bf9d9c04bf7000000000000000000000000000000000000000000034f086f3b33b684000000",
        "nonce": "0x490",
        "chainId": "0xaa36a7"
      },
      "additionalContracts": [],
      "isFixedGasLimit": false
    },
    {
      "hash": "0xd0d6ae79ef37e96f2d66d78ad321b2d87b65af0402c7cbcdde089d7f1312597c",
      "transactionType": "CALL",
      "contractName": null,
      "contractAddress": "0xbb46678a1f6c527bd79ecfbf85332b8ae83ceaf1",
      "function": "mint(address,uint256)",
      "arguments": [
        "0x10Db2E70118e5FBeDa30391ec957e608C9E4517E",
        "4000000000000000000000000"
      ],
      "transaction": {
        "from": "0x993461bbf7e553eb5bd1f5248a72b524c4a3b15d",
        "to": "0xbb46678a1f6c527bd79ecfbf85332b8ae83ceaf1",
        "gas": "0xc681",
        "value": "0x0",
        "input": "0x40c10f1900000000000000000000000010db2e70118e5fbeda30391ec957e608c9e4517e000000000000000000000000000000000000000000034f086f3b33b684000000",
        "nonce": "0x491",
        "chainId": "0xaa36a7"
      },
      "additionalContracts": [],
      "isFixedGasLimit": false
    },
    {
      "hash": "0x36a1df2c6d2931ceb22d1a2a90187b414ab7f36621a2a25bb0cd2d8230da9d13",
      "transactionType": "CALL",
      "contractName": null,
      "contractAddress": "0xbb46678a1f6c527bd79ecfbf85332b8ae83ceaf1",
      "function": "approve(address,uint256)",
      "arguments": [
        "0x5d5331c02041e0452BA6De4779DEA7A998d81864",
        "4000000000000000000000000"
      ],
      "transaction": {
        "from": "0x474b4e7fd1a143edea6b77aa845f429d443e6410",
        "to": "0xbb46678a1f6c527bd79ecfbf85332b8ae83ceaf1",
        "gas": "0xfd53",
        "value": "0x0",
        "input": "0x095ea7b30000000000000000000000005d5331c02041e0452ba6de4779dea7a998d81864000000000000000000000000000000000000000000034f086f3b33b684000000",
        "nonce": "0x4c",
        "chainId": "0xaa36a7"
      },
      "additionalContracts": [],
      "isFixedGasLimit": false
    },
    {
      "hash": "0xfa2b90f79cebf340c4b7c5baa7401fa2131c30c5723dd00be1efa1b6827cd787",
      "transactionType": "CALL",
      "contractName": "MarginVault",
      "contractAddress": "0x5d5331c02041e0452ba6de4779dea7a998d81864",
      "function": "depositMargin(bytes32,address,uint256)",
      "arguments": [
        "0x000000000000000000000000474b4e7fd1a143edea6b77aa845f429d443e6410",
        "0xbb46678a1F6C527bD79eCFBF85332B8Ae83ceaf1",
        "4000000000000000000000000"
      ],
      "transaction": {
        "from": "0x474b4e7fd1a143edea6b77aa845f429d443e6410",
        "to": "0x5d5331c02041e0452ba6de4779dea7a998d81864",
        "gas": "0x2cf03",
        "value": "0x0",
        "input": "0x6812d315000000000000000000000000474b4e7fd1a143edea6b77aa845f429d443e6410000000000000000000000000bb46678a1f6c527bd79ecfbf85332b8ae83ceaf1000000000000000000000000000000000000000000034f086f3b33b684000000",
        "nonce": "0x4d",
        "chainId": "0xaa36a7"
      },
      "additionalContracts": [],
      "isFixedGasLimit": false
    },
    {
      "hash": "0x229fefba3d203d248cff0f3bdafeafcea5aa73be4cb0a584a8412fc274c0ced3",
      "transactionType": "CALL",
      "contractName": null,
      "contractAddress": "0xbb46678a1f6c527bd79ecfbf85332b8ae83ceaf1",
      "function": "approve(address,uint256)",
      "arguments": [
        "0x5d5331c02041e0452BA6De4779DEA7A998d81864",
        "4000000000000000000000000"
      ],
      "transaction": {
        "from": "0xf68d9e0faa751ad61e0ed70852798bf9d9c04bf7",
        "to": "0xbb46678a1f6c527bd79ecfbf85332b8ae83ceaf1",
        "gas": "0xfd53",
        "value": "0x0",
        "input": "0x095ea7b30000000000000000000000005d5331c02041e0452ba6de4779dea7a998d81864000000000000000000000000000000000000000000034f086f3b33b684000000",
        "nonce": "0x4b",
        "chainId": "0xaa36a7"
      },
      "additionalContracts": [],
      "isFixedGasLimit": false
    },
    {
      "hash": "0x58e1b8c95205dac6e0cbb8201ba8bed47cd7b4d6596b261370fa85957e2e1b63",
      "transactionType": "CALL",
      "contractName": "MarginVault",
      "contractAddress": "0x5d5331c02041e0452ba6de4779dea7a998d81864",
      "function": "depositMargin(bytes32,address,uint256)",
      "arguments": [
        "0x000000000000000000000000f68d9e0faa751ad61e0ed70852798bf9d9c04bf7",
        "0xbb46678a1F6C527bD79eCFBF85332B8Ae83ceaf1",
        "4000000000000000000000000"
      ],
      "transaction": {
        "from": "0xf68d9e0faa751ad61e0ed70852798bf9d9c04bf7",
        "to": "0x5d5331c02041e0452ba6de4779dea7a998d81864",
        "gas": "0x24acd",
        "value": "0x0",
        "input": "0x6812d315000000000000000000000000f68d9e0faa751ad61e0ed70852798bf9d9c04bf7000000000000000000000000bb46678a1f6c527bd79ecfbf85332b8ae83ceaf1000000000000000000000000000000000000000000034f086f3b33b684000000",
        "nonce": "0x4c",
        "chainId": "0xaa36a7"
      },
      "additionalContracts": [],
      "isFixedGasLimit": false
    },
    {
      "hash": "0x8d38088fcebf0c1837c13d993f5fb6510f245f743b054c7ec68efb47926e18ec",
      "transactionType": "CALL",
      "contractName": null,
      "contractAddress": "0xbb46678a1f6c527bd79ecfbf85332b8ae83ceaf1",
      "function": "approve(address,uint256)",
      "arguments": [
        "0x5d5331c02041e0452BA6De4779DEA7A998d81864",
        "4000000000000000000000000"
      ],
      "transaction": {
        "from": "0x10db2e70118e5fbeda30391ec957e608c9e4517e",
        "to": "0xbb46678a1f6c527bd79ecfbf85332b8ae83ceaf1",
        "gas": "0xfd53",
        "value": "0x0",
        "input": "0x095ea7b30000000000000000000000005d5331c02041e0452ba6de4779dea7a998d81864000000000000000000000000000000000000000000034f086f3b33b684000000",
        "nonce": "0x19",
        "chainId": "0xaa36a7"
      },
      "additionalContracts": [],
      "isFixedGasLimit": false
    },
    {
      "hash": "0x2c1635b3e78ef6a66e619348ae1074e0b9d041eded6120eae4873e080f3bab24",
      "transactionType": "CALL",
      "contractName": "MarginVault",
      "contractAddress": "0x5d5331c02041e0452ba6de4779dea7a998d81864",
      "function": "depositMargin(bytes32,address,uint256)",
      "arguments": [
        "0x00000000000000000000000010db2e70118e5fbeda30391ec957e608c9e4517e",
        "0xbb46678a1F6C527bD79eCFBF85332B8Ae83ceaf1",
        "4000000000000000000000000"
      ],
      "transaction": {
        "from": "0x10db2e70118e5fbeda30391ec957e608c9e4517e",
        "to": "0x5d5331c02041e0452ba6de4779dea7a998d81864",
        "gas": "0x24acd",
        "value": "0x0",
        "input": "0x6812d31500000000000000000000000010db2e70118e5fbeda30391ec957e608c9e4517e000000000000000000000000bb46678a1f6c527bd79ecfbf85332b8ae83ceaf1000000000000000000000000000000000000000000034f086f3b33b684000000",
        "nonce": "0x1a",
        "chainId": "0xaa36a7"
      },
      "additionalContracts": [],
      "isFixedGasLimit": false
    }
  ],
  "receipts": [
    {
      "status": "0x1",
      "cumulativeGasUsed": "0x1223f2d",
      "logs": [
        {
          "address": "0xbb46678a1f6c527bd79ecfbf85332b8ae83ceaf1",
          "topics": [
            "0xddf252ad1be2c89b69c2b068fc378daa952ba7f163c4a11628f55a4df523b3ef",
            "0x0000000000000000000000000000000000000000000000000000000000000000",
            "0x000000000000000000000000474b4e7fd1a143edea6b77aa845f429d443e6410"
          ],
          "data": "0x000000000000000000000000000000000000000000034f086f3b33b684000000",
          "blockHash": "0xd55d464c2ded76a9bcfbc058beda43ab9bf384e766a474984dedc0a40ce6ee55",
          "blockNumber": "0x9e9bf9",
          "blockTimestamp": "0x69aa7684",
          "transactionHash": "0x9df0958c2b52b3f20014453ce6e533dab4e6929a92bf06615e7706dff9a5cc4a",
          "transactionIndex": "0x72",
          "logIndex": "0x193",
          "removed": false
        }
      ],
      "logsBloom": "0x00000000000000000000000000000000000000000000000000000000000000000000000000000000000000000000000000000000000000000000000000000000000000000000000000000008000000000000000000000000000000000000000000400000020000000000000000000800000000000000000000000010000000000100000008000000000000000000000000000000000000000000000000000000000000000000000000000000000000000000000000000000000100000000000000000002000000000000000000000000000000008000000000000010000020000000000000000000000000000000000000000000000000000000000000000000",
      "type": "0x2",
      "transactionHash": "0x9df0958c2b52b3f20014453ce6e533dab4e6929a92bf06615e7706dff9a5cc4a",
      "transactionIndex": "0x72",
      "blockHash": "0xd55d464c2ded76a9bcfbc058beda43ab9bf384e766a474984dedc0a40ce6ee55",
      "blockNumber": "0x9e9bf9",
      "gasUsed": "0x87bb",
      "effectiveGasPrice": "0x12cec5",
      "from": "0x993461bbf7e553eb5bd1f5248a72b524c4a3b15d",
      "to": "0xbb46678a1f6c527bd79ecfbf85332b8ae83ceaf1",
      "contractAddress": null
    },
    {
      "status": "0x1",
      "cumulativeGasUsed": "0x14da325",
      "logs": [
        {
          "address": "0xbb46678a1f6c527bd79ecfbf85332b8ae83ceaf1",
          "topics": [
            "0xddf252ad1be2c89b69c2b068fc378daa952ba7f163c4a11628f55a4df523b3ef",
            "0x0000000000000000000000000000000000000000000000000000000000000000",
            "0x000000000000000000000000f68d9e0faa751ad61e0ed70852798bf9d9c04bf7"
          ],
          "data": "0x000000000000000000000000000000000000000000034f086f3b33b684000000",
          "blockHash": "0x9ffe674dd36fc9176444414f5324ae650749fe77c6bd5f763194f69b22bb492d",
          "blockNumber": "0x9e9bfa",
          "blockTimestamp": "0x69aa7690",
          "transactionHash": "0xdecbf5a745904bb34c7bdb9d1f951a0e0e9d80b876534b3d1c268c0d900f3106",
          "transactionIndex": "0x95",
          "logIndex": "0x1b1",
          "removed": false
        }
      ],
      "logsBloom": "0x00000000000000000000000000000000000000000000000000000000000000800000000000000000000000000000000000000000000000000000000000000000000000000000000000000008000000000000000000000000000000000000000000000000020000000000000000000800000000000000000000000010000000000100000008000000000000000000000000000000000000000000000000000000000000000000000000000000000000000400000000000000000000000000000000000002000000000000000000000001000000008000000000000000000020000000000000000000000000000000000000000000000000000000000000000000",
      "type": "0x2",
      "transactionHash": "0xdecbf5a745904bb34c7bdb9d1f951a0e0e9d80b876534b3d1c268c0d900f3106",
      "transactionIndex": "0x95",
      "blockHash": "0x9ffe674dd36fc9176444414f5324ae650749fe77c6bd5f763194f69b22bb492d",
      "blockNumber": "0x9e9bfa",
      "gasUsed": "0x87bb",
      "effectiveGasPrice": "0x12e2fb",
      "from": "0x993461bbf7e553eb5bd1f5248a72b524c4a3b15d",
      "to": "0xbb46678a1f6c527bd79ecfbf85332b8ae83ceaf1",
      "contractAddress": null
    },
    {
      "status": "0x1",
      "cumulativeGasUsed": "0x1d1e96d",
      "logs": [
        {
          "address": "0xbb46678a1f6c527bd79ecfbf85332b8ae83ceaf1",
          "topics": [
            "0xddf252ad1be2c89b69c2b068fc378daa952ba7f163c4a11628f55a4df523b3ef",
            "0x0000000000000000000000000000000000000000000000000000000000000000",
            "0x00000000000000000000000010db2e70118e5fbeda30391ec957e608c9e4517e"
          ],
          "data": "0x000000000000000000000000000000000000000000034f086f3b33b684000000",
          "blockHash": "0xf273f43d8e7f9c33c0aa5c99dee272b73ed47c404fb7c4aae5663ddd762d7f0e",
          "blockNumber": "0x9e9bfb",
          "blockTimestamp": "0x69aa769c",
          "transactionHash": "0xd0d6ae79ef37e96f2d66d78ad321b2d87b65af0402c7cbcdde089d7f1312597c",
          "transactionIndex": "0xa9",
          "logIndex": "0x1fb",
          "removed": false
        }
      ],
      "logsBloom": "0x00000000000000000000000000000000000000000000000000000000000000000000000000000000000000000000000000000000000000000000000000000000000000000000000000000008000000000000000000000000000000000000000000000000020000000000000000000800000000000000000000000010000000000100000008000000000000000000000000000000000000000000000000000000000000000000000000000000000000000000000000000000000000000000000000000002000000000000000041000000000000008000000000000000000020000000000000000000000080000000000000000000000000000000000000000000",
      "type": "0x2",
      "transactionHash": "0xd0d6ae79ef37e96f2d66d78ad321b2d87b65af0402c7cbcdde089d7f1312597c",
      "transactionIndex": "0xa9",
      "blockHash": "0xf273f43d8e7f9c33c0aa5c99dee272b73ed47c404fb7c4aae5663ddd762d7f0e",
      "blockNumber": "0x9e9bfb",
      "gasUsed": "0x87bb",
      "effectiveGasPrice": "0x1303c2",
      "from": "0x993461bbf7e553eb5bd1f5248a72b524c4a3b15d",
      "to": "0xbb46678a1f6c527bd79ecfbf85332b8ae83ceaf1",
      "contractAddress": null
    },
    {
      "status": "0x1",
      "cumulativeGasUsed": "0x1816564",
      "logs": [
        {
          "address": "0xbb46678a1f6c527bd79ecfbf85332b8ae83ceaf1",
          "topics": [
            "0x8c5be1e5ebec7d5bd14f71427d1e84f3dd0314c0f7b2291e5b200ac8c7c3b925",
            "0x000000000000000000000000474b4e7fd1a143edea6b77aa845f429d443e6410",
            "0x0000000000000000000000005d5331c02041e0452ba6de4779dea7a998d81864"
          ],
          "data": "0x000000000000000000000000000000000000000000034f086f3b33b684000000",
          "blockHash": "0x486c573fda824339e63d2bf83a8a08e8e448effa34672d23b5ad4421d60b830b",
          "blockNumber": "0x9e9bfc",
          "blockTimestamp": "0x69aa76a8",
          "transactionHash": "0x36a1df2c6d2931ceb22d1a2a90187b414ab7f36621a2a25bb0cd2d8230da9d13",
          "transactionIndex": "0x95",
          "logIndex": "0x1e9",
          "removed": false
        }
      ],
      "logsBloom": "0x00000000000000000000000080000000000000000000000000000000000000000000000000000000000000000000000000000000000000000000000000200000000000000000000000000000000000000000000010000000000000000000000000400000000000000000000000000000000000000000000000000000000000000100000008000000000000000000000000000000000000000000000000000000020000000000000000000000000000000000000000000000000100000000000000000000000000000000000000000000000000008000000000000010000000000010020000000000000000000000000000000000000000000000000000000000",
      "type": "0x2",
      "transactionHash": "0x36a1df2c6d2931ceb22d1a2a90187b414ab7f36621a2a25bb0cd2d8230da9d13",
      "transactionIndex": "0x95",
      "blockHash": "0x486c573fda824339e63d2bf83a8a08e8e448effa34672d23b5ad4421d60b830b",
      "blockNumber": "0x9e9bfc",
      "gasUsed": "0xb768",
      "effectiveGasPrice": "0x134e61",
      "from": "0x474b4e7fd1a143edea6b77aa845f429d443e6410",
      "to": "0xbb46678a1f6c527bd79ecfbf85332b8ae83ceaf1",
      "contractAddress": null
    },
    {
      "status": "0x1",
      "cumulativeGasUsed": "0x2998b50",
      "logs": [
        {
          "address": "0xbb46678a1f6c527bd79ecfbf85332b8ae83ceaf1",
          "topics": [
            "0xddf252ad1be2c89b69c2b068fc378daa952ba7f163c4a11628f55a4df523b3ef",
            "0x000000000000000000000000474b4e7fd1a143edea6b77aa845f429d443e6410",
            "0x0000000000000000000000005d5331c02041e0452ba6de4779dea7a998d81864"
          ],
          "data": "0x000000000000000000000000000000000000000000034f086f3b33b684000000",
          "blockHash": "0xc4e5a560e5a2ce6776ceea9620236ff0521bbc3577de7182f47a5e183c3ceee9",
          "blockNumber": "0x9e9bfd",
          "blockTimestamp": "0x69aa76c0",
          "transactionHash": "0xfa2b90f79cebf340c4b7c5baa7401fa2131c30c5723dd00be1efa1b6827cd787",
          "transactionIndex": "0xce",
          "logIndex": "0x2f3",
          "removed": false
        },
        {
          "address": "0x5d5331c02041e0452ba6de4779dea7a998d81864",
          "topics": [
            "0x30f6180e248310ab0c789da3026fbba7390872be072cfc5b3c20733f3a980c9e",
            "0x000000000000000000000000474b4e7fd1a143edea6b77aa845f429d443e6410",
            "0x000000000000000000000000bb46678a1f6c527bd79ecfbf85332b8ae83ceaf1"
          ],
          "data": "0x000000000000000000000000000000000000000000034f086f3b33b684000000",
          "blockHash": "0xc4e5a560e5a2ce6776ceea9620236ff0521bbc3577de7182f47a5e183c3ceee9",
          "blockNumber": "0x9e9bfd",
          "blockTimestamp": "0x69aa76c0",
          "transactionHash": "0xfa2b90f79cebf340c4b7c5baa7401fa2131c30c5723dd00be1efa1b6827cd787",
          "transactionIndex": "0xce",
          "logIndex": "0x2f4",
          "removed": false
        }
      ],
      "logsBloom": "0x00000000000000000000000080000000000000000000000000000000000000000000000000008000000000000000000000000000000000000000000000000000000000000000000000000008000000000000000010000000000000000000040000400000000000000000000000000000000000000000000000100010000000000100000008000001000000000000000000000000000000000000000000000000000000000000000000000000000000000000000040000000000100000000000000000002000001000000000000000001000800008000000000000010000000000000020000000000000000000000000000000000000000000000000400000000",
      "type": "0x2",
      "transactionHash": "0xfa2b90f79cebf340c4b7c5baa7401fa2131c30c5723dd00be1efa1b6827cd787",
      "transactionIndex": "0xce",
      "blockHash": "0xc4e5a560e5a2ce6776ceea9620236ff0521bbc3577de7182f47a5e183c3ceee9",
      "blockNumber": "0x9e9bfd",
      "gasUsed": "0x1eba2",
      "effectiveGasPrice": "0x139f04",
      "from": "0x474b4e7fd1a143edea6b77aa845f429d443e6410",
      "to": "0x5d5331c02041e0452ba6de4779dea7a998d81864",
      "contractAddress": null
    },
    {
      "status": "0x1",
      "cumulativeGasUsed": "0x24cbe81",
      "logs": [
        {
          "address": "0xbb46678a1f6c527bd79ecfbf85332b8ae83ceaf1",
          "topics": [
            "0x8c5be1e5ebec7d5bd14f71427d1e84f3dd0314c0f7b2291e5b200ac8c7c3b925",
            "0x000000000000000000000000f68d9e0faa751ad61e0ed70852798bf9d9c04bf7",
            "0x0000000000000000000000005d5331c02041e0452ba6de4779dea7a998d81864"
          ],
          "data": "0x000000000000000000000000000000000000000000034f086f3b33b684000000",
          "blockHash": "0x933683c0e19dd9d4674a6cf6137bc95ff0b967e9ed22b5960f3ddd376817e3fc",
          "blockNumber": "0x9e9bfe",
          "blockTimestamp": "0x69aa76cc",
          "transactionHash": "0x229fefba3d203d248cff0f3bdafeafcea5aa73be4cb0a584a8412fc274c0ced3",
          "transactionIndex": "0xa6",
          "logIndex": "0x1b3",
          "removed": false
        }
      ],
      "logsBloom": "0x00000000000000000000000080000000000000000000000000000000000000800000000000000000000000000000000000000000000000000000000000200000000000000000000000000000000000000000000010000000000000000000000000000000000000000000000000000000000000000000000000000000000000000100000008000000000000000000000000000000000000000000000000000000020000000000000000000000000000000400000000000000000000000000000000000000000000000000000000000001000000008000000000000000000000000010020000000000000000000000000000000000000000000000000000000000",
      "type": "0x2",
      "transactionHash": "0x229fefba3d203d248cff0f3bdafeafcea5aa73be4cb0a584a8412fc274c0ced3",
      "transactionIndex": "0xa6",
      "blockHash": "0x933683c0e19dd9d4674a6cf6137bc95ff0b967e9ed22b5960f3ddd376817e3fc",
      "blockNumber": "0x9e9bfe",
      "gasUsed": "0xb768",
      "effectiveGasPrice": "0x140914",
      "from": "0xf68d9e0faa751ad61e0ed70852798bf9d9c04bf7",
      "to": "0xbb46678a1f6c527bd79ecfbf85332b8ae83ceaf1",
      "contractAddress": null
    },
    {
      "status": "0x1",
      "cumulativeGasUsed": "0x24b1b31",
      "logs": [
        {
          "address": "0xbb46678a1f6c527bd79ecfbf85332b8ae83ceaf1",
          "topics": [
            "0xddf252ad1be2c89b69c2b068fc378daa952ba7f163c4a11628f55a4df523b3ef",
            "0x000000000000000000000000f68d9e0faa751ad61e0ed70852798bf9d9c04bf7",
            "0x0000000000000000000000005d5331c02041e0452ba6de4779dea7a998d81864"
          ],
          "data": "0x000000000000000000000000000000000000000000034f086f3b33b684000000",
          "blockHash": "0xcf2e63ddbbce6f9345eb450c3741cf0d0579214ac38a0c5a50d937a213711cad",
          "blockNumber": "0x9e9bff",
          "blockTimestamp": "0x69aa76e4",
          "transactionHash": "0x58e1b8c95205dac6e0cbb8201ba8bed47cd7b4d6596b261370fa85957e2e1b63",
          "transactionIndex": "0xda",
          "logIndex": "0x2fd",
          "removed": false
        },
        {
          "address": "0x5d5331c02041e0452ba6de4779dea7a998d81864",
          "topics": [
            "0x30f6180e248310ab0c789da3026fbba7390872be072cfc5b3c20733f3a980c9e",
            "0x000000000000000000000000f68d9e0faa751ad61e0ed70852798bf9d9c04bf7",
            "0x000000000000000000000000bb46678a1f6c527bd79ecfbf85332b8ae83ceaf1"
          ],
          "data": "0x000000000000000000000000000000000000000000034f086f3b33b684000000",
          "blockHash": "0xcf2e63ddbbce6f9345eb450c3741cf0d0579214ac38a0c5a50d937a213711cad",
          "blockNumber": "0x9e9bff",
          "blockTimestamp": "0x69aa76e4",
          "transactionHash": "0x58e1b8c95205dac6e0cbb8201ba8bed47cd7b4d6596b261370fa85957e2e1b63",
          "transactionIndex": "0xda",
          "logIndex": "0x2fe",
          "removed": false
        }
      ],
      "logsBloom": "0x00000000000000000000000080000000000000000000000000000000000000800000000000008000000000000000000000000000000000000000000000000000000000000000000000000008000000000000000010000000000000000000040000000000000000000000000000000000000000000000000000100010000000000100000008000001000000000000000000000000000000000000000000000000000000000000000000000000000000000400000040000000000000000000000000000002000001000000000000000001000800008000000000000000000000000000020000000000000000000000000000000000000000000000000400000000",
      "type": "0x2",
      "transactionHash": "0x58e1b8c95205dac6e0cbb8201ba8bed47cd7b4d6596b261370fa85957e2e1b63",
      "transactionIndex": "0xda",
      "blockHash": "0xcf2e63ddbbce6f9345eb450c3741cf0d0579214ac38a0c5a50d937a213711cad",
      "blockNumber": "0x9e9bff",
      "gasUsed": "0x1a8d6",
      "effectiveGasPrice": "0x1445fb",
      "from": "0xf68d9e0faa751ad61e0ed70852798bf9d9c04bf7",
      "to": "0x5d5331c02041e0452ba6de4779dea7a998d81864",
      "contractAddress": null
    },
    {
      "status": "0x1",
      "cumulativeGasUsed": "0x16695c9",
      "logs": [
        {
          "address": "0xbb46678a1f6c527bd79ecfbf85332b8ae83ceaf1",
          "topics": [
            "0x8c5be1e5ebec7d5bd14f71427d1e84f3dd0314c0f7b2291e5b200ac8c7c3b925",
            "0x00000000000000000000000010db2e70118e5fbeda30391ec957e608c9e4517e",
            "0x0000000000000000000000005d5331c02041e0452ba6de4779dea7a998d81864"
          ],
          "data": "0x000000000000000000000000000000000000000000034f086f3b33b684000000",
          "blockHash": "0xa51cc11a1f6ff0bdb606b95a924f902f30c9e9ffdcdcc75dfa072290cb5cb419",
          "blockNumber": "0x9e9c00",
          "blockTimestamp": "0x69aa76f0",
          "transactionHash": "0x8d38088fcebf0c1837c13d993f5fb6510f245f743b054c7ec68efb47926e18ec",
          "transactionIndex": "0xa0",
          "logIndex": "0x1cc",
          "removed": false
        }
      ],
      "logsBloom": "0x00000000000000000000000080000000000000000000000000000000000000000000000000000000000000000000000000000000000000000000000000200000000000000000000000000000000000000000000010000000000000000000000000000000000000000000000000000000000000000000000000000000000000000100000008000000000000000000000000000000000000000000000000000000020000000000000000000000000000000000000000000000000000000000000000000000000000000000000041000000000000008000000000000000000000000010020000000000000080000000000000000000000000000000000000000000",
      "type": "0x2",
      "transactionHash": "0x8d38088fcebf0c1837c13d993f5fb6510f245f743b054c7ec68efb47926e18ec",
      "transactionIndex": "0xa0",
      "blockHash": "0xa51cc11a1f6ff0bdb606b95a924f902f30c9e9ffdcdcc75dfa072290cb5cb419",
      "blockNumber": "0x9e9c00",
      "gasUsed": "0xb768",
      "effectiveGasPrice": "0x14da07",
      "from": "0x10db2e70118e5fbeda30391ec957e608c9e4517e",
      "to": "0xbb46678a1f6c527bd79ecfbf85332b8ae83ceaf1",
      "contractAddress": null
    },
    {
      "status": "0x1",
      "cumulativeGasUsed": "0x1e6c9a7",
      "logs": [
        {
          "address": "0xbb46678a1f6c527bd79ecfbf85332b8ae83ceaf1",
          "topics": [
            "0xddf252ad1be2c89b69c2b068fc378daa952ba7f163c4a11628f55a4df523b3ef",
            "0x00000000000000000000000010db2e70118e5fbeda30391ec957e608c9e4517e",
            "0x0000000000000000000000005d5331c02041e0452ba6de4779dea7a998d81864"
          ],
          "data": "0x000000000000000000000000000000000000000000034f086f3b33b684000000",
          "blockHash": "0x275f26e0e61bc129f8f8377cb3cb33ce87153e5db59086c3625c139c110a9f76",
          "blockNumber": "0x9e9c01",
          "blockTimestamp": "0x69aa76fc",
          "transactionHash": "0x2c1635b3e78ef6a66e619348ae1074e0b9d041eded6120eae4873e080f3bab24",
          "transactionIndex": "0x83",
          "logIndex": "0x225",
          "removed": false
        },
        {
          "address": "0x5d5331c02041e0452ba6de4779dea7a998d81864",
          "topics": [
            "0x30f6180e248310ab0c789da3026fbba7390872be072cfc5b3c20733f3a980c9e",
            "0x00000000000000000000000010db2e70118e5fbeda30391ec957e608c9e4517e",
            "0x000000000000000000000000bb46678a1f6c527bd79ecfbf85332b8ae83ceaf1"
          ],
          "data": "0x000000000000000000000000000000000000000000034f086f3b33b684000000",
          "blockHash": "0x275f26e0e61bc129f8f8377cb3cb33ce87153e5db59086c3625c139c110a9f76",
          "blockNumber": "0x9e9c01",
          "blockTimestamp": "0x69aa76fc",
          "transactionHash": "0x2c1635b3e78ef6a66e619348ae1074e0b9d041eded6120eae4873e080f3bab24",
          "transactionIndex": "0x83",
          "logIndex": "0x226",
          "removed": false
        }
      ],
      "logsBloom": "0x00000000000000000000000080000000000000000000000000000000000000000000000000008000000000000000000000000000000000000000000000000000000000000000000000000008000000000000000010000000000000000000040000000000000000000000000000000000000000000000000000100010000000000100000008000001000000000000000000000000000000000000000000000000000000000000000000000000000000000000000040000000000000000000000000000002000001000000000041000001000800008000000000000000000000000000020000000000000080000000000000000000000000000000000400000000",
      "type": "0x2",
      "transactionHash": "0x2c1635b3e78ef6a66e619348ae1074e0b9d041eded6120eae4873e080f3bab24",
      "transactionIndex": "0x83",
      "blockHash": "0x275f26e0e61bc129f8f8377cb3cb33ce87153e5db59086c3625c139c110a9f76",
      "blockNumber": "0x9e9c01",
      "gasUsed": "0x1a8d6",
      "effectiveGasPrice": "0x1528cd",
      "from": "0x10db2e70118e5fbeda30391ec957e608c9e4517e",
      "to": "0x5d5331c02041e0452ba6de4779dea7a998d81864",
      "contractAddress": null
    }
  ],
  "libraries": [],
  "pending": [],
  "returns": {},
  "timestamp": 1772779261806,
  "chain": 11155111,
  "commit": "d835087"
}