{
  "transactions": [
    {
      "hash": "0x033bcd2a516606b164f9e0a06d16a7941e9689d009e060e6cbe803a5a54ec2f4",
      "transactionType": "CALL",
      "contractName": null,
      "contractAddress": "0xbb46678a1f6c527bd79ecfbf85332b8ae83ceaf1",
      "function": "mint(address,uint256)",
      "arguments": [
        "0x474B4E7FD1A143eDea6b77aa845F429D443E6410",
        "4000000000000000000000000"
      ],
      "transaction": {
        "from": "0x993461bbf7e553eb5bd1f5248a72b524c4a3b15d",
        "to": "0xbb46678a1f6c527bd79ecfbf85332b8ae83ceaf1",
        "gas": "0xc681",
        "value": "0x0",
        "input": "0x40c10f19000000000000000000000000474b4e7fd1a143edea6b77aa845f429d443e6410000000000000000000000000000000000000000000034f086f3b33b684000000",
        "nonce": "0x586",
        "chainId": "0xaa36a7"
      },
      "additionalContracts": [],
      "isFixedGasLimit": false
    },
    {
      "hash": "0x728a89948817ae2269f03c4dc5d8c486e37b5aeeef9842761b4e69bc869fb57d",
      "transactionType": "CALL",
      "contractName": null,
      "contractAddress": "0xbb46678a1f6c527bd79ecfbf85332b8ae83ceaf1",
      "function": "mint(address,uint256)",
      "arguments": [
        "0xf68D9e0fAa751AD61e0ED70852798bF9D9C04bF7",
        "4000000000000000000000000"
      ],
      "transaction": {
        "from": "0x993461bbf7e553eb5bd1f5248a72b524c4a3b15d",
        "to": "0xbb46678a1f6c527bd79ecfbf85332b8ae83ceaf1",
        "gas": "0xc681",
        "value": "0x0",
        "input": "0x40c10f19000000000000000000000000f68d9e0faa751ad61e0ed70852798bf9d9c04bf7000000000000000000000000000000000000000000034f086f3b33b684000000",
        "nonce": "0x587",
        "chainId": "0xaa36a7"
      },
      "additionalContracts": [],
      "isFixedGasLimit": false
    },
    {
      "hash": "0xd83a657d4b594c753d237efc4ad68a4e1032b8fc88a701bacd20b3c630028dc0",
      "transactionType": "CALL",
      "contractName": null,
      "contractAddress": "0xbb46678a1f6c527bd79ecfbf85332b8ae83ceaf1",
      "function": "mint(address,uint256)",
      "arguments": [
        "0x10Db2E70118e5FBeDa30391ec957e608C9E4517E",
        "4000000000000000000000000"
      ],
      "transaction": {
        "from": "0x993461bbf7e553eb5bd1f5248a72b524c4a3b15d",
        "to": "0xbb46678a1f6c527bd79ecfbf85332b8ae83ceaf1",
        "gas": "0xc681",
        "value": "0x0",
        "input": "0x40c10f1900000000000000000000000010db2e70118e5fbeda30391ec957e608c9e4517e000000000000000000000000000000000000000000034f086f3b33b684000000",
        "nonce": "0x588",
        "chainId": "0xaa36a7"
      },
      "additionalContracts": [],
      "isFixedGasLimit": false
    },
    {
      "hash": "0xc93ff07b7bd5bbc15d23aed13e8bb4756200fabb9436a97169a8e497f994bbd1",
      "transactionType": "CALL",
      "contractName": null,
      "contractAddress": "0xbb46678a1f6c527bd79ecfbf85332b8ae83ceaf1",
      "function": "approve(address,uint256)",
      "arguments": [
        "0x5611665b9c65C127f3B063d821229694B06085cd",
        "4000000000000000000000000"
      ],
      "transaction": {
        "from": "0x474b4e7fd1a143edea6b77aa845f429d443e6410",
        "to": "0xbb46678a1f6c527bd79ecfbf85332b8ae83ceaf1",
        "gas": "0xfd53",
        "value": "0x0",
        "input": "0x095ea7b30000000000000000000000005611665b9c65c127f3b063d821229694b06085cd000000000000000000000000000000000000000000034f086f3b33b684000000",
        "nonce": "0x64",
        "chainId": "0xaa36a7"
      },
      "additionalContracts": [],
      "isFixedGasLimit": false
    },
    {
      "hash": "0x01711daa154cbd5e18a8fe80560ce295bc22ff842a6c5e95f0f9a0ccb78b0d53",
      "transactionType": "CALL",
      "contractName": "MarginVault",
      "contractAddress": "0x5611665b9c65c127f3b063d821229694b06085cd",
      "function": "depositMargin(bytes32,address,uint256)",
      "arguments": [
        "0x000000000000000000000000474b4e7fd1a143edea6b77aa845f429d443e6410",
        "0xbb46678a1F6C527bD79eCFBF85332B8Ae83ceaf1",
        "4000000000000000000000000"
      ],
      "transaction": {
        "from": "0x474b4e7fd1a143edea6b77aa845f429d443e6410",
        "to": "0x5611665b9c65c127f3b063d821229694b06085cd",
        "gas": "0x2cf03",
        "value": "0x0",
        "input": "0x6812d315000000000000000000000000474b4e7fd1a143edea6b77aa845f429d443e6410000000000000000000000000bb46678a1f6c527bd79ecfbf85332b8ae83ceaf1000000000000000000000000000000000000000000034f086f3b33b684000000",
        "nonce": "0x65",
        "chainId": "0xaa36a7"
      },
      "additionalContracts": [],
      "isFixedGasLimit": false
    },
    {
      "hash": "0x9908a893a042508a068255c5ebe3e189bdcf21a38052d66bf4d01a5a5f95717c",
      "transactionType": "CALL",
      "contractName": null,
      "contractAddress": "0xbb46678a1f6c527bd79ecfbf85332b8ae83ceaf1",
      "function": "approve(address,uint256)",
      "arguments": [
        "0x5611665b9c65C127f3B063d821229694B06085cd",
        "4000000000000000000000000"
      ],
      "transaction": {
        "from": "0xf68d9e0faa751ad61e0ed70852798bf9d9c04bf7",
        "to": "0xbb46678a1f6c527bd79ecfbf85332b8ae83ceaf1",
        "gas": "0xfd53",
        "value": "0x0",
        "input": "0x095ea7b30000000000000000000000005611665b9c65c127f3b063d821229694b06085cd000000000000000000000000000000000000000000034f086f3b33b684000000",
        "nonce": "0x61",
        "chainId": "0xaa36a7"
      },
      "additionalContracts": [],
      "isFixedGasLimit": false
    },
    {
      "hash": "0x5d45b7ead48fc349dbee449c811f8b4128d543584cdd5e5f6f6b265f8beddfda",
      "transactionType": "CALL",
      "contractName": "MarginVault",
      "contractAddress": "0x5611665b9c65c127f3b063d821229694b06085cd",
      "function": "depositMargin(bytes32,address,uint256)",
      "arguments": [
        "0x000000000000000000000000f68d9e0faa751ad61e0ed70852798bf9d9c04bf7",
        "0xbb46678a1F6C527bD79eCFBF85332B8Ae83ceaf1",
        "4000000000000000000000000"
      ],
      "transaction": {
        "from": "0xf68d9e0faa751ad61e0ed70852798bf9d9c04bf7",
        "to": "0x5611665b9c65c127f3b063d821229694b06085cd",
        "gas": "0x24acd",
        "value": "0x0",
        "input": "0x6812d315000000000000000000000000f68d9e0faa751ad61e0ed70852798bf9d9c04bf7000000000000000000000000bb46678a1f6c527bd79ecfbf85332b8ae83ceaf1000000000000000000000000000000000000000000034f086f3b33b684000000",
        "nonce": "0x62",
        "chainId": "0xaa36a7"
      },
      "additionalContracts": [],
      "isFixedGasLimit": false
    },
    {
      "hash": "0x05afc40da383b4660d6deb4c25975faedda9ce750107ee579ba1ffae0547da69",
      "transactionType": "CALL",
      "contractName": null,
      "contractAddress": "0xbb46678a1f6c527bd79ecfbf85332b8ae83ceaf1",
      "function": "approve(address,uint256)",
      "arguments": [
        "0x5611665b9c65C127f3B063d821229694B06085cd",
        "4000000000000000000000000"
      ],
      "transaction": {
        "from": "0x10db2e70118e5fbeda30391ec957e608c9e4517e",
        "to": "0xbb46678a1f6c527bd79ecfbf85332b8ae83ceaf1",
        "gas": "0xfd53",
        "value": "0x0",
        "input": "0x095ea7b30000000000000000000000005611665b9c65c127f3b063d821229694b06085cd000000000000000000000000000000000000000000034f086f3b33b684000000",
        "nonce": "0x2e",
        "chainId": "0xaa36a7"
      },
      "additionalContracts": [],
      "isFixedGasLimit": false
    },
    {
      "hash": "0x2678c0dfbb1c898230cff8767e36743b52189574a832ef337215a12d5092a7d0",
      "transactionType": "CALL",
      "contractName": "MarginVault",
      "contractAddress": "0x5611665b9c65c127f3b063d821229694b06085cd",
      "function": "depositMargin(bytes32,address,uint256)",
      "arguments": [
        "0x00000000000000000000000010db2e70118e5fbeda30391ec957e608c9e4517e",
        "0xbb46678a1F6C527bD79eCFBF85332B8Ae83ceaf1",
        "4000000000000000000000000"
      ],
      "transaction": {
        "from": "0x10db2e70118e5fbeda30391ec957e608c9e4517e",
        "to": "0x5611665b9c65c127f3b063d821229694b06085cd",
        "gas": "0x24acd",
        "value": "0x0",
        "input": "0x6812d31500000000000000000000000010db2e70118e5fbeda30391ec957e608c9e4517e000000000000000000000000bb46678a1f6c527bd79ecfbf85332b8ae83ceaf1000000000000000000000000000000000000000000034f086f3b33b684000000",
        "nonce": "0x2f",
        "chainId": "0xaa36a7"
      },
      "additionalContracts": [],
      "isFixedGasLimit": false
    }
  ],
  "receipts": [
    {
      "status": "0x1",
      "cumulativeGasUsed": "0x1d6ee0d",
      "logs": [
        {
          "address": "0xbb46678a1f6c527bd79ecfbf85332b8ae83ceaf1",
          "topics": [
            "0xddf252ad1be2c89b69c2b068fc378daa952ba7f163c4a11628f55a4df523b3ef",
            "0x0000000000000000000000000000000000000000000000000000000000000000",
            "0x000000000000000000000000474b4e7fd1a143edea6b77aa845f429d443e6410"
          ],
          "data": "0x000000000000000000000000000000000000000000034f086f3b33b684000000",
          "blockHash": "0x6686a8af40a2d66f645bd10f2bfb26e6a2d1131a1c68d68efd90fa015ca5f36b",
          "blockNumber": "0x9ea41e",
          "blockTimestamp": "0x69aae254",
          "transactionHash": "0x033bcd2a516606b164f9e0a06d16a7941e9689d009e060e6cbe803a5a54ec2f4",
          "transactionIndex": "0xa5",
          "logIndex": "0x298",
          "removed": false
        }
      ],
      "logsBloom": "0x00000000000000000000000000000000000000000000000000000000000000000000000000000000000000000000000000000000000000000000000000000000000000000000000000000008000000000000000000000000000000000000000000400000020000000000000000000800000000000000000000000010000000000100000008000000000000000000000000000000000000000000000000000000000000000000000000000000000000000000000000000000000100000000000000000002000000000000000000000000000000008000000000000010000020000000000000000000000000000000000000000000000000000000000000000000",
      "type": "0x2",
      "transactionHash": "0x033bcd2a516606b164f9e0a06d16a7941e9689d009e060e6cbe803a5a54ec2f4",
      "transactionIndex": "0xa5",
      "blockHash": "0x6686a8af40a2d66f645bd10f2bfb26e6a2d1131a1c68d68efd90fa015ca5f36b",
      "blockNumber": "0x9ea41e",
      "gasUsed": "0x87bb",
      "effectiveGasPrice": "0x28eb0a4",
      "from": "0x993461bbf7e553eb5bd1f5248a72b524c4a3b15d",
      "to": "0xbb46678a1f6c527bd79ecfbf85332b8ae83ceaf1",
      "contractAddress": null
    },
    {
      "status": "0x1",
      "cumulativeGasUsed": "0x1493e34",
      "logs": [
        {
          "address": "0xbb46678a1f6c527bd79ecfbf85332b8ae83ceaf1",
          "topics": [
            "0xddf252ad1be2c89b69c2b068fc378daa952ba7f163c4a11628f55a4df523b3ef",
            "0x0000000000000000000000000000000000000000000000000000000000000000",
            "0x000000000000000000000000f68d9e0faa751ad61e0ed70852798bf9d9c04bf7"
          ],
          "data": "0x000000000000000000000000000000000000000000034f086f3b33b684000000",
          "blockHash": "0x74caa84dbdc544a81c1a1982ff8e65885e18ca008f2d459b689ea664dfd1f3e4",
          "blockNumber": "0x9ea41f",
          "blockTimestamp": "0x69aae260",
          "transactionHash": "0x728a89948817ae2269f03c4dc5d8c486e37b5aeeef9842761b4e69bc869fb57d",
          "transactionIndex": "0x8f",
          "logIndex": "0x19b",
          "removed": false
        }
      ],
      "logsBloom": "0x00000000000000000000000000000000000000000000000000000000000000800000000000000000000000000000000000000000000000000000000000000000000000000000000000000008000000000000000000000000000000000000000000000000020000000000000000000800000000000000000000000010000000000100000008000000000000000000000000000000000000000000000000000000000000000000000000000000000000000400000000000000000000000000000000000002000000000000000000000001000000008000000000000000000020000000000000000000000000000000000000000000000000000000000000000000",
      "type": "0x2",
      "transactionHash": "0x728a89948817ae2269f03c4dc5d8c486e37b5aeeef9842761b4e69bc869fb57d",
      "transactionIndex": "0x8f",
      "blockHash": "0x74caa84dbdc544a81c1a1982ff8e65885e18ca008f2d459b689ea664dfd1f3e4",
      "blockNumber": "0x9ea41f",
      "gasUsed": "0x87bb",
      "effectiveGasPrice": "0x28f4f0e",
      "from": "0x993461bbf7e553eb5bd1f5248a72b524c4a3b15d",
      "to": "0xbb46678a1f6c527bd79ecfbf85332b8ae83ceaf1",
      "contractAddress": null
    },
    {
      "status": "0x1",
      "cumulativeGasUsed": "0x15758e6",
      "logs": [
        {
          "address": "0xbb46678a1f6c527bd79ecfbf85332b8ae83ceaf1",
          "topics": [
            "0xddf252ad1be2c89b69c2b068fc378daa952ba7f163c4a11628f55a4df523b3ef",
            "0x0000000000000000000000000000000000000000000000000000000000000000",
            "0x00000000000000000000000010db2e70118e5fbeda30391ec957e608c9e4517e"
          ],
          "data": "0x000000000000000000000000000000000000000000034f086f3b33b684000000",
          "blockHash": "0x42702fd51f05ace23c896ec6c2f37b0dd8f2eda639ea278686fad405bab2a168",
          "blockNumber": "0x9ea420",
          "blockTimestamp": "0x69aae26c",
          "transactionHash": "0xd83a657d4b594c753d237efc4ad68a4e1032b8fc88a701bacd20b3c630028dc0",
          "transactionIndex": "0x90",
          "logIndex": "0x192",
          "removed": false
        }
      ],
      "logsBloom": "0x00000000000000000000000000000000000000000000000000000000000000000000000000000000000000000000000000000000000000000000000000000000000000000000000000000008000000000000000000000000000000000000000000000000020000000000000000000800000000000000000000000010000000000100000008000000000000000000000000000000000000000000000000000000000000000000000000000000000000000000000000000000000000000000000000000002000000000000000041000000000000008000000000000000000020000000000000000000000080000000000000000000000000000000000000000000",
      "type": "0x2",
      "transactionHash": "0xd83a657d4b594c753d237efc4ad68a4e1032b8fc88a701bacd20b3c630028dc0",
      "transactionIndex": "0x90",
      "blockHash": "0x42702fd51f05ace23c896ec6c2f37b0dd8f2eda639ea278686fad405bab2a168",
      "blockNumber": "0x9ea420",
      "gasUsed": "0x87bb",
      "effectiveGasPrice": "0x28eb765",
      "from": "0x993461bbf7e553eb5bd1f5248a72b524c4a3b15d",
      "to": "0xbb46678a1f6c527bd79ecfbf85332b8ae83ceaf1",
      "contractAddress": null
    },
    {
      "status": "0x1",
      "cumulativeGasUsed": "0x1c64ee4",
      "logs": [
        {
          "address": "0xbb46678a1f6c527bd79ecfbf85332b8ae83ceaf1",
          "topics": [
            "0x8c5be1e5ebec7d5bd14f71427d1e84f3dd0314c0f7b2291e5b200ac8c7c3b925",
            "0x000000000000000000000000474b4e7fd1a143edea6b77aa845f429d443e6410",
            "0x0000000000000000000000005611665b9c65c127f3b063d821229694b06085cd"
          ],
          "data": "0x000000000000000000000000000000000000000000034f086f3b33b684000000",
          "blockHash": "0x49d00085e0e302a54a28a8660b2fb29959b5660633ba89d0b494cfb629179cff",
          "blockNumber": "0x9ea421",
          "blockTimestamp": "0x69aae278",
          "transactionHash": "0xc93ff07b7bd5bbc15d23aed13e8bb4756200fabb9436a97169a8e497f994bbd1",
          "transactionIndex": "0xaa",
          "logIndex": "0x213",
          "removed": false
        }
      ],
      "logsBloom": "0x00000000000000000000000000000000000000000000000000000000000000000000000002000000000000000000000000000000000000000000000000200000000000000000000000000000000000000000000000000000000800020000000000400000000000000000000000000000000000000000000000000000000000000100000008000000000000000000000000000000000000000000000000000000020000000000000000000000000000000000000000000000000100000000000000000000000000000000000000000000000000008000000000000010000000000010000000000000000000000000000000000000000000000000000000000000",
      "type": "0x2",
      "transactionHash": "0xc93ff07b7bd5bbc15d23aed13e8bb4756200fabb9436a97169a8e497f994bbd1",
      "transactionIndex": "0xaa",
      "blockHash": "0x49d00085e0e302a54a28a8660b2fb29959b5660633ba89d0b494cfb629179cff",
      "blockNumber": "0x9ea421",
      "gasUsed": "0xb768",
      "effectiveGasPrice": "0x28e2b77",
      "from": "0x474b4e7fd1a143edea6b77aa845f429d443e6410",
      "to": "0xbb46678a1f6c527bd79ecfbf85332b8ae83ceaf1",
      "contractAddress": null
    },
    {
      "status": "0x1",
      "cumulativeGasUsed": "0x1f5b060",
      "logs": [
        {
          "address": "0xbb46678a1f6c527bd79ecfbf85332b8ae83ceaf1",
          "topics": [
            "0xddf252ad1be2c89b69c2b068fc378daa952ba7f163c4a11628f55a4df523b3ef",
            "0x000000000000000000000000474b4e7fd1a143edea6b77aa845f429d443e6410",
            "0x0000000000000000000000005611665b9c65c127f3b063d821229694b06085cd"
          ],
          "data": "0x000000000000000000000000000000000000000000034f086f3b33b684000000",
          "blockHash": "0x4f9fae146743bd883eab9c88fe81cf98a89f8c474db5df763138c42a6361f9b4",
          "blockNumber": "0x9ea422",
          "blockTimestamp": "0x69aae284",
          "transactionHash": "0x01711daa154cbd5e18a8fe80560ce295bc22ff842a6c5e95f0f9a0ccb78b0d53",
          "transactionIndex": "0x91",
          "logIndex": "0x1ed",
          "removed": false
        },
        {
          "address": "0x5611665b9c65c127f3b063d821229694b06085cd",
          "topics": [
            "0x30f6180e248310ab0c789da3026fbba7390872be072cfc5b3c20733f3a980c9e",
            "0x000000000000000000000000474b4e7fd1a143edea6b77aa845f429d443e6410",
            "0x000000000000000000000000bb46678a1f6c527bd79ecfbf85332b8ae83ceaf1"
          ],
          "data": "0x000000000000000000000000000000000000000000034f086f3b33b684000000",
          "blockHash": "0x4f9fae146743bd883eab9c88fe81cf98a89f8c474db5df763138c42a6361f9b4",
          "blockNumber": "0x9ea422",
          "blockTimestamp": "0x69aae284",
          "transactionHash": "0x01711daa154cbd5e18a8fe80560ce295bc22ff842a6c5e95f0f9a0ccb78b0d53",
          "transactionIndex": "0x91",
          "logIndex": "0x1ee",
          "removed": false
        }
      ],
      "logsBloom": "0x00000000000000000000000000000000000000000000000000000000000000000000000002000000000000000000000000000000000000000000000000000000000000000000000000000008000000000000000000000000000800020000000000400000000000000000000000000000000080040000000000000010000000000120000008000001000000000000000000000000000000000000000000000000000000000000000000000000000000000000000040000000000100000000000000000002000001000000000000000001000800008000000000000010000000000000000000000000000000000000000000000000000000000000000400000000",
      "type": "0x2",
      "transactionHash": "0x01711daa154cbd5e18a8fe80560ce295bc22ff842a6c5e95f0f9a0ccb78b0d53",
      "transactionIndex": "0x91",
      "blockHash": "0x4f9fae146743bd883eab9c88fe81cf98a89f8c474db5df763138c42a6361f9b4",
      "blockNumber": "0x9ea422",
      "gasUsed": "0x1eba2",
      "effectiveGasPrice": "0x28e57d6",
      "from": "0x474b4e7fd1a143edea6b77aa845f429d443e6410",
      "to": "0x5611665b9c65c127f3b063d821229694b06085cd",
      "contractAddress": null
    },
    {
      "status": "0x1",
      "cumulativeGasUsed": "0xfcfd27",
      "logs": [
        {
          "address": "0xbb46678a1f6c527bd79ecfbf85332b8ae83ceaf1",
          "topics": [
            "0x8c5be1e5ebec7d5bd14f71427d1e84f3dd0314c0f7b2291e5b200ac8c7c3b925",
            "0x000000000000000000000000f68d9e0faa751ad61e0ed70852798bf9d9c04bf7",
            "0x0000000000000000000000005611665b9c65c127f3b063d821229694b06085cd"
          ],
          "data": "0x000000000000000000000000000000000000000000034f086f3b33b684000000",
          "blockHash": "0xd0caa9d378eced68db074d2dbcf59d00212a3c729ceebe4d9744602ef4033b20",
          "blockNumber": "0x9ea423",
          "blockTimestamp": "0x69aae290",
          "transactionHash": "0x9908a893a042508a068255c5ebe3e189bdcf21a38052d66bf4d01a5a5f95717c",
          "transactionIndex": "0x78",
          "logIndex": "0x16d",
          "removed": false
        }
      ],
      "logsBloom": "0x00000000000000000000000000000000000000000000000000000000000000800000000002000000000000000000000000000000000000000000000000200000000000000000000000000000000000000000000000000000000800020000000000000000000000000000000000000000000000000000000000000000000000000100000008000000000000000000000000000000000000000000000000000000020000000000000000000000000000000400000000000000000000000000000000000000000000000000000000000001000000008000000000000000000000000010000000000000000000000000000000000000000000000000000000000000",
      "type": "0x2",
      "transactionHash": "0x9908a893a042508a068255c5ebe3e189bdcf21a38052d66bf4d01a5a5f95717c",
      "transactionIndex": "0x78",
      "blockHash": "0xd0caa9d378eced68db074d2dbcf59d00212a3c729ceebe4d9744602ef4033b20",
      "blockNumber": "0x9ea423",
      "gasUsed": "0xb768",
      "effectiveGasPrice": "0x28f6cb2",
      "from": "0xf68d9e0faa751ad61e0ed70852798bf9d9c04bf7",
      "to": "0xbb46678a1f6c527bd79ecfbf85332b8ae83ceaf1",
      "contractAddress": null
    },
    {
      "status": "0x1",
      "cumulativeGasUsed": "0x21f4b75",
      "logs": [
        {
          "address": "0xbb46678a1f6c527bd79ecfbf85332b8ae83ceaf1",
          "topics": [
            "0xddf252ad1be2c89b69c2b068fc378daa952ba7f163c4a11628f55a4df523b3ef",
            "0x000000000000000000000000f68d9e0faa751ad61e0ed70852798bf9d9c04bf7",
            "0x0000000000000000000000005611665b9c65c127f3b063d821229694b06085cd"
          ],
          "data": "0x000000000000000000000000000000000000000000034f086f3b33b684000000",
          "blockHash": "0xe1d0ad0d959a4b994e51c4bfe3f0203c329b3b22a991652ea119460606d25907",
          "blockNumber": "0x9ea424",
          "blockTimestamp": "0x69aae29c",
          "transactionHash": "0x5d45b7ead48fc349dbee449c811f8b4128d543584cdd5e5f6f6b265f8beddfda",
          "transactionIndex": "0xc1",
          "logIndex": "0x2cd",
          "removed": false
        },
        {
          "address": "0x5611665b9c65c127f3b063d821229694b06085cd",
          "topics": [
            "0x30f6180e248310ab0c789da3026fbba7390872be072cfc5b3c20733f3a980c9e",
            "0x000000000000000000000000f68d9e0faa751ad61e0ed70852798bf9d9c04bf7",
            "0x000000000000000000000000bb46678a1f6c527bd79ecfbf85332b8ae83ceaf1"
          ],
          "data": "0x000000000000000000000000000000000000000000034f086f3b33b684000000",
          "blockHash": "0xe1d0ad0d959a4b994e51c4bfe3f0203c329b3b22a991652ea119460606d25907",
          "blockNumber": "0x9ea424",
          "blockTimestamp": "0x69aae29c",
          "transactionHash": "0x5d45b7ead48fc349dbee449c811f8b4128d543584cdd5e5f6f6b265f8beddfda",
          "transactionIndex": "0xc1",
          "logIndex": "0x2ce",
          "removed": false
        }
      ],
      "logsBloom": "0x00000000000000000000000000000000000000000000000000000000000000800000000002000000000000000000000000000000000000000000000000000000000000000000000000000008000000000000000000000000000800020000000000000000000000000000000000000000000080040000000000000010000000000120000008000001000000000000000000000000000000000000000000000000000000000000000000000000000000000400000040000000000000000000000000000002000001000000000000000001000800008000000000000000000000000000000000000000000000000000000000000000000000000000000400000000",
      "type": "0x2",
      "transactionHash": "0x5d45b7ead48fc349dbee449c811f8b4128d543584cdd5e5f6f6b265f8beddfda",
      "transactionIndex": "0xc1",
      "blockHash": "0xe1d0ad0d959a4b994e51c4bfe3f0203c329b3b22a991652ea119460606d25907",
      "blockNumber": "0x9ea424",
      "gasUsed": "0x1a8d6",
      "effectiveGasPrice": "0x28ddddf",
      "from": "0xf68d9e0faa751ad61e0ed70852798bf9d9c04bf7",
      "to": "0x5611665b9c65c127f3b063d821229694b06085cd",
      "contractAddress": null
    },
    {
      "status": "0x1",
      "cumulativeGasUsed": "0x132e331",
      "logs": [
        {
          "address": "0xbb46678a1f6c527bd79ecfbf85332b8ae83ceaf1",
          "topics": [
            "0x8c5be1e5ebec7d5bd14f71427d1e84f3dd0314c0f7b2291e5b200ac8c7c3b925",
            "0x00000000000000000000000010db2e70118e5fbeda30391ec957e608c9e4517e",
            "0x0000000000000000000000005611665b9c65c127f3b063d821229694b06085cd"
          ],
          "data": "0x000000000000000000000000000000000000000000034f086f3b33b684000000",
          "blockHash": "0x26e5c51b337a7f5cca0c37b1cf619a79ec0379511bff5afd9444eea58a619292",
          "blockNumber": "0x9ea425",
          "blockTimestamp": "0x69aae2a8",
          "transactionHash": "0x05afc40da383b4660d6deb4c25975faedda9ce750107ee579ba1ffae0547da69",
          "transactionIndex": "0x98",
          "logIndex": "0x1e3",
          "removed": false
        }
      ],
      "logsBloom": "0x00000000000000000000000000000000000000000000000000000000000000000000000002000000000000000000000000000000000000000000000000200000000000000000000000000000000000000000000000000000000800020000000000000000000000000000000000000000000000000000000000000000000000000100000008000000000000000000000000000000000000000000000000000000020000000000000000000000000000000000000000000000000000000000000000000000000000000000000041000000000000008000000000000000000000000010000000000000000080000000000000000000000000000000000000000000",
      "type": "0x2",
      "transactionHash": "0x05afc40da383b4660d6deb4c25975faedda9ce750107ee579ba1ffae0547da69",
      "transactionIndex": "0x98",
      "blockHash": "0x26e5c51b337a7f5cca0c37b1cf619a79ec0379511bff5afd9444eea58a619292",
      "blockNumber": "0x9ea425",
      "gasUsed": "0xb768",
      "effectiveGasPrice": "0x28f1252",
      "from": "0x10db2e70118e5fbeda30391ec957e608c9e4517e",
      "to": "0xbb46678a1f6c527bd79ecfbf85332b8ae83ceaf1",
      "contractAddress": null
    },
    {
      "status": "0x1",
      "cumulativeGasUsed": "0x15cbf4f",
      "logs": [
        {
          "address": "0xbb46678a1f6c527bd79ecfbf85332b8ae83ceaf1",
          "topics": [
            "0xddf252ad1be2c89b69c2b068fc378daa952ba7f163c4a11628f55a4df523b3ef",
            "0x00000000000000000000000010db2e70118e5fbeda30391ec957e608c9e4517e",
            "0x0000000000000000000000005611665b9c65c127f3b063d821229694b06085cd"
          ],
          "data": "0x000000000000000000000000000000000000000000034f086f3b33b684000000",
          "blockHash": "0xfe8734385e219b891f0068f0e67773cd0e6a4d1f91fea8c5db36e43dd4f44af1",
          "blockNumber": "0x9ea426",
          "blockTimestamp": "0x69aae2b4",
          "transactionHash": "0x2678c0dfbb1c898230cff8767e36743b52189574a832ef337215a12d5092a7d0",
          "transactionIndex": "0x9b",
          "logIndex": "0x1dc",
          "removed": false
        },
        {
          "address": "0x5611665b9c65c127f3b063d821229694b06085cd",
          "topics": [
            "0x30f6180e248310ab0c789da3026fbba7390872be072cfc5b3c20733f3a980c9e",
            "0x00000000000000000000000010db2e70118e5fbeda30391ec957e608c9e4517e",
            "0x000000000000000000000000bb46678a1f6c527bd79ecfbf85332b8ae83ceaf1"
          ],
          "data": "0x000000000000000000000000000000000000000000034f086f3b33b684000000",
          "blockHash": "0xfe8734385e219b891f0068f0e67773cd0e6a4d1f91fea8c5db36e43dd4f44af1",
          "blockNumber": "0x9ea426",
          "blockTimestamp": "0x69aae2b4",
          "transactionHash": "0x2678c0dfbb1c898230cff8767e36743b52189574a832ef337215a12d5092a7d0",
          "transactionIndex": "0x9b",
          "logIndex": "0x1dd",
          "removed": false
        }
      ],
      "logsBloom": "0x00000000000000000000000000000000000000000000000000000000000000000000000002000000000000000000000000000000000000000000000000000000000000000000000000000008000000000000000000000000000800020000000000000000000000000000000000000000000080040000000000000010000000000120000008000001000000000000000000000000000000000000000000000000000000000000000000000000000000000000000040000000000000000000000000000002000001000000000041000001000800008000000000000000000000000000000000000000000080000000000000000000000000000000000400000000",
      "type": "0x2",
      "transactionHash": "0x2678c0dfbb1c898230cff8767e36743b52189574a832ef337215a12d5092a7d0",
      "transactionIndex": "0x9b",
      "blockHash": "0xfe8734385e219b891f0068f0e67773cd0e6a4d1f91fea8c5db36e43dd4f44af1",
      "blockNumber": "0x9ea426",
      "gasUsed": "0x1a8d6",
      "effectiveGasPrice": "0x28ed151",
      "from": "0x10db2e70118e5fbeda30391ec957e608c9e4517e",
      "to": "0x5611665b9c65c127f3b063d821229694b06085cd",
      "contractAddress": null
    }
  ],
  "libraries": [],
  "pending": [],
  "returns": {},
  "timestamp": 1772806837756,
  "chain": 11155111,
  "commit": "abef103"
}