{
  "transactions": [
    {
      "hash": "0x0ad58c7b75b27713e45237760615ea2d13446247b0fdaaf03f12b14cc945031b",
      "transactionType": "CALL",
      "contractName": null,
      "contractAddress": "0xbb46678a1f6c527bd79ecfbf85332b8ae83ceaf1",
      "function": "mint(address,uint256)",
      "arguments": [
        "0x474B4E7FD1A143eDea6b77aa845F429D443E6410",
        "4000000000000000000000000"
      ],
      "transaction": {
        "from": "0x993461bbf7e553eb5bd1f5248a72b524c4a3b15d",
        "to": "0xbb46678a1f6c527bd79ecfbf85332b8ae83ceaf1",
        "gas": "0xc681",
        "value": "0x0",
        "input": "0x40c10f19000000000000000000000000474b4e7fd1a143edea6b77aa845f429d443e6410000000000000000000000000000000000000000000034f086f3b33b684000000",
        "nonce": "0x32e",
        "chainId": "0xaa36a7"
      },
      "additionalContracts": [],
      "isFixedGasLimit": false
    },
    {
      "hash": "0x4756d41f71dbafb9d4dbb376d2357e4685a6b3ed8c42f4409f8ae61d45784d06",
      "transactionType": "CALL",
      "contractName": null,
      "contractAddress": "0xbb46678a1f6c527bd79ecfbf85332b8ae83ceaf1",
      "function": "mint(address,uint256)",
      "arguments": [
        "0xf68D9e0fAa751AD61e0ED70852798bF9D9C04bF7",
        "4000000000000000000000000"
      ],
      "transaction": {
        "from": "0x993461bbf7e553eb5bd1f5248a72b524c4a3b15d",
        "to": "0xbb46678a1f6c527bd79ecfbf85332b8ae83ceaf1",
        "gas": "0xc681",
        "value": "0x0",
        "input": "0x40c10f19000000000000000000000000f68d9e0faa751ad61e0ed70852798bf9d9c04bf7000000000000000000000000000000000000000000034f086f3b33b684000000",
        "nonce": "0x32f",
        "chainId": "0xaa36a7"
      },
      "additionalContracts": [],
      "isFixedGasLimit": false
    },
    {
      "hash": "0xc3ca09bdba42347ea3f4552d46476b6a5ad526b2dd5803d9ec9c644910c993b3",
      "transactionType": "CALL",
      "contractName": null,
      "contractAddress": "0xbb46678a1f6c527bd79ecfbf85332b8ae83ceaf1",
      "function": "mint(address,uint256)",
      "arguments": [
        "0x10Db2E70118e5FBeDa30391ec957e608C9E4517E",
        "4000000000000000000000000"
      ],
      "transaction": {
        "from": "0x993461bbf7e553eb5bd1f5248a72b524c4a3b15d",
        "to": "0xbb46678a1f6c527bd79ecfbf85332b8ae83ceaf1",
        "gas": "0xc681",
        "value": "0x0",
        "input": "0x40c10f1900000000000000000000000010db2e70118e5fbeda30391ec957e608c9e4517e000000000000000000000000000000000000000000034f086f3b33b684000000",
        "nonce": "0x330",
        "chainId": "0xaa36a7"
      },
      "additionalContracts": [],
      "isFixedGasLimit": false
    },
    {
      "hash": "0xd0e79df3f213c42e5c721395b4c06accef2c9ee8d0517968894fcf28f1f878e7",
      "transactionType": "CALL",
      "contractName": null,
      "contractAddress": "0xbb46678a1f6c527bd79ecfbf85332b8ae83ceaf1",
      "function": "approve(address,uint256)",
      "arguments": [
        "0x8C5D49eBCbBcc4aA4D65a2D2629eEBE53b67027f",
        "4000000000000000000000000"
      ],
      "transaction": {
        "from": "0x474b4e7fd1a143edea6b77aa845f429d443e6410",
        "to": "0xbb46678a1f6c527bd79ecfbf85332b8ae83ceaf1",
        "gas": "0xfd53",
        "value": "0x0",
        "input": "0x095ea7b30000000000000000000000008c5d49ebcbbcc4aa4d65a2d2629eebe53b67027f000000000000000000000000000000000000000000034f086f3b33b684000000",
        "nonce": "0x36",
        "chainId": "0xaa36a7"
      },
      "additionalContracts": [],
      "isFixedGasLimit": false
    },
    {
      "hash": "0x90b4579889934658cbd95751f1a40a4d64782b06b921d4f3651baf94ce93c01d",
      "transactionType": "CALL",
      "contractName": "MarginVault",
      "contractAddress": "0x8c5d49ebcbbcc4aa4d65a2d2629eebe53b67027f",
      "function": "depositMargin(bytes32,address,uint256)",
      "arguments": [
        "0x000000000000000000000000474b4e7fd1a143edea6b77aa845f429d443e6410",
        "0xbb46678a1F6C527bD79eCFBF85332B8Ae83ceaf1",
        "4000000000000000000000000"
      ],
      "transaction": {
        "from": "0x474b4e7fd1a143edea6b77aa845f429d443e6410",
        "to": "0x8c5d49ebcbbcc4aa4d65a2d2629eebe53b67027f",
        "gas": "0x2cf03",
        "value": "0x0",
        "input": "0x6812d315000000000000000000000000474b4e7fd1a143edea6b77aa845f429d443e6410000000000000000000000000bb46678a1f6c527bd79ecfbf85332b8ae83ceaf1000000000000000000000000000000000000000000034f086f3b33b684000000",
        "nonce": "0x37",
        "chainId": "0xaa36a7"
      },
      "additionalContracts": [],
      "isFixedGasLimit": false
    },
    {
      "hash": "0x101861cb0ae91778b8a47a451eb6944955d40cc73b0fa7e475b09618e043efaf",
      "transactionType": "CALL",
      "contractName": null,
      "contractAddress": "0xbb46678a1f6c527bd79ecfbf85332b8ae83ceaf1",
      "function": "approve(address,uint256)",
      "arguments": [
        "0x8C5D49eBCbBcc4aA4D65a2D2629eEBE53b67027f",
        "4000000000000000000000000"
      ],
      "transaction": {
        "from": "0xf68d9e0faa751ad61e0ed70852798bf9d9c04bf7",
        "to": "0xbb46678a1f6c527bd79ecfbf85332b8ae83ceaf1",
        "gas": "0xfd53",
        "value": "0x0",
        "input": "0x095ea7b30000000000000000000000008c5d49ebcbbcc4aa4d65a2d2629eebe53b67027f000000000000000000000000000000000000000000034f086f3b33b684000000",
        "nonce": "0x35",
        "chainId": "0xaa36a7"
      },
      "additionalContracts": [],
      "isFixedGasLimit": false
    },
    {
      "hash": "0x7fd114cb9bb173bf5588a0f1b406c3796b528f8b969b37b4fdf859fbc990f9c0",
      "transactionType": "CALL",
      "contractName": "MarginVault",
      "contractAddress": "0x8c5d49ebcbbcc4aa4d65a2d2629eebe53b67027f",
      "function": "depositMargin(bytes32,address,uint256)",
      "arguments": [
        "0x000000000000000000000000f68d9e0faa751ad61e0ed70852798bf9d9c04bf7",
        "0xbb46678a1F6C527bD79eCFBF85332B8Ae83ceaf1",
        "4000000000000000000000000"
      ],
      "transaction": {
        "from": "0xf68d9e0faa751ad61e0ed70852798bf9d9c04bf7",
        "to": "0x8c5d49ebcbbcc4aa4d65a2d2629eebe53b67027f",
        "gas": "0x24acd",
        "value": "0x0",
        "input": "0x6812d315000000000000000000000000f68d9e0faa751ad61e0ed70852798bf9d9c04bf7000000000000000000000000bb46678a1f6c527bd79ecfbf85332b8ae83ceaf1000000000000000000000000000000000000000000034f086f3b33b684000000",
        "nonce": "0x36",
        "chainId": "0xaa36a7"
      },
      "additionalContracts": [],
      "isFixedGasLimit": false
    },
    {
      "hash": "0x4b9f85bcdef37f01aeaa262dedf1a35072ace594a61d4b9af7241f366a4dced7",
      "transactionType": "CALL",
      "contractName": null,
      "contractAddress": "0xbb46678a1f6c527bd79ecfbf85332b8ae83ceaf1",
      "function": "approve(address,uint256)",
      "arguments": [
        "0x8C5D49eBCbBcc4aA4D65a2D2629eEBE53b67027f",
        "4000000000000000000000000"
      ],
      "transaction": {
        "from": "0x10db2e70118e5fbeda30391ec957e608c9e4517e",
        "to": "0xbb46678a1f6c527bd79ecfbf85332b8ae83ceaf1",
        "gas": "0xfd53",
        "value": "0x0",
        "input": "0x095ea7b30000000000000000000000008c5d49ebcbbcc4aa4d65a2d2629eebe53b67027f000000000000000000000000000000000000000000034f086f3b33b684000000",
        "nonce": "0x4",
        "chainId": "0xaa36a7"
      },
      "additionalContracts": [],
      "isFixedGasLimit": false
    },
    {
      "hash": "0x4bbddaaffc1360cfb054552ab612d2a099cd3f5505f2e6a2e2c9332a27b98e4d",
      "transactionType": "CALL",
      "contractName": "MarginVault",
      "contractAddress": "0x8c5d49ebcbbcc4aa4d65a2d2629eebe53b67027f",
      "function": "depositMargin(bytes32,address,uint256)",
      "arguments": [
        "0x00000000000000000000000010db2e70118e5fbeda30391ec957e608c9e4517e",
        "0xbb46678a1F6C527bD79eCFBF85332B8Ae83ceaf1",
        "4000000000000000000000000"
      ],
      "transaction": {
        "from": "0x10db2e70118e5fbeda30391ec957e608c9e4517e",
        "to": "0x8c5d49ebcbbcc4aa4d65a2d2629eebe53b67027f",
        "gas": "0x24acd",
        "value": "0x0",
        "input": "0x6812d31500000000000000000000000010db2e70118e5fbeda30391ec957e608c9e4517e000000000000000000000000bb46678a1f6c527bd79ecfbf85332b8ae83ceaf1000000000000000000000000000000000000000000034f086f3b33b684000000",
        "nonce": "0x5",
        "chainId": "0xaa36a7"
      },
      "additionalContracts": [],
      "isFixedGasLimit": false
    }
  ],
  "receipts": [
    {
      "status": "0x1",
      "cumulativeGasUsed": "0x9a956c",
      "logs": [
        {
          "address": "0xbb46678a1f6c527bd79ecfbf85332b8ae83ceaf1",
          "topics": [
            "0xddf252ad1be2c89b69c2b068fc378daa952ba7f163c4a11628f55a4df523b3ef",
            "0x0000000000000000000000000000000000000000000000000000000000000000",
            "0x000000000000000000000000474b4e7fd1a143edea6b77aa845f429d443e6410"
          ],
          "data": "0x000000000000000000000000000000000000000000034f086f3b33b684000000",
          "blockHash": "0xbe09c718b46d0ef69e719f4e1a841d739f7f96e2f3d70a96dff4f65c58caa7d7",
          "blockNumber": "0x9e6bc2",
          "blockTimestamp": "0x69a81a64",
          "transactionHash": "0x0ad58c7b75b27713e45237760615ea2d13446247b0fdaaf03f12b14cc945031b",
          "transactionIndex": "0x7b",
          "logIndex": "0xe5",
          "removed": false
        }
      ],
      "logsBloom": "0x00000000000000000000000000000000000000000000000000000000000000000000000000000000000000000000000000000000000000000000000000000000000000000000000000000008000000000000000000000000000000000000000000400000020000000000000000000800000000000000000000000010000000000100000008000000000000000000000000000000000000000000000000000000000000000000000000000000000000000000000000000000000100000000000000000002000000000000000000000000000000008000000000000010000020000000000000000000000000000000000000000000000000000000000000000000",
      "type": "0x2",
      "transactionHash": "0x0ad58c7b75b27713e45237760615ea2d13446247b0fdaaf03f12b14cc945031b",
      "transactionIndex": "0x7b",
      "blockHash": "0xbe09c718b46d0ef69e719f4e1a841d739f7f96e2f3d70a96dff4f65c58caa7d7",
      "blockNumber": "0x9e6bc2",
      "gasUsed": "0x87bb",
      "effectiveGasPrice": "0xf423e",
      "from": "0x993461bbf7e553eb5bd1f5248a72b524c4a3b15d",
      "to": "0xbb46678a1f6c527bd79ecfbf85332b8ae83ceaf1",
      "contractAddress": null
    },
    {
      "status": "0x1",
      "cumulativeGasUsed": "0x745917",
      "logs": [
        {
          "address": "0xbb46678a1f6c527bd79ecfbf85332b8ae83ceaf1",
          "topics": [
            "0xddf252ad1be2c89b69c2b068fc378daa952ba7f163c4a11628f55a4df523b3ef",
            "0x0000000000000000000000000000000000000000000000000000000000000000",
            "0x000000000000000000000000f68d9e0faa751ad61e0ed70852798bf9d9c04bf7"
          ],
          "data": "0x000000000000000000000000000000000000000000034f086f3b33b684000000",
          "blockHash": "0xfcab68f80636110acfbcb9bdd42978dd9dff0a1f982d2b0682ab66bbd2862ac1",
          "blockNumber": "0x9e6bc3",
          "blockTimestamp": "0x69a81a70",
          "transactionHash": "0x4756d41f71dbafb9d4dbb376d2357e4685a6b3ed8c42f4409f8ae61d45784d06",
          "transactionIndex": "0x5d",
          "logIndex": "0x9e",
          "removed": false
        }
      ],
      "logsBloom": "0x00000000000000000000000000000000000000000000000000000000000000800000000000000000000000000000000000000000000000000000000000000000000000000000000000000008000000000000000000000000000000000000000000000000020000000000000000000800000000000000000000000010000000000100000008000000000000000000000000000000000000000000000000000000000000000000000000000000000000000400000000000000000000000000000000000002000000000000000000000001000000008000000000000000000020000000000000000000000000000000000000000000000000000000000000000000",
      "type": "0x2",
      "transactionHash": "0x4756d41f71dbafb9d4dbb376d2357e4685a6b3ed8c42f4409f8ae61d45784d06",
      "transactionIndex": "0x5d",
      "blockHash": "0xfcab68f80636110acfbcb9bdd42978dd9dff0a1f982d2b0682ab66bbd2862ac1",
      "blockNumber": "0x9e6bc3",
      "gasUsed": "0x87bb",
      "effectiveGasPrice": "0xf423e",
      "from": "0x993461bbf7e553eb5bd1f5248a72b524c4a3b15d",
      "to": "0xbb46678a1f6c527bd79ecfbf85332b8ae83ceaf1",
      "contractAddress": null
    },
    {
      "status": "0x1",
      "cumulativeGasUsed": "0x9f1420",
      "logs": [
        {
          "address": "0xbb46678a1f6c527bd79ecfbf85332b8ae83ceaf1",
          "topics": [
            "0xddf252ad1be2c89b69c2b068fc378daa952ba7f163c4a11628f55a4df523b3ef",
            "0x0000000000000000000000000000000000000000000000000000000000000000",
            "0x00000000000000000000000010db2e70118e5fbeda30391ec957e608c9e4517e"
          ],
          "data": "0x000000000000000000000000000000000000000000034f086f3b33b684000000",
          "blockHash": "0x164c34032c1373237967804e2988859887d70e35fcf904eaf2ead734e93920f2",
          "blockNumber": "0x9e6bc5",
          "blockTimestamp": "0x69a81a88",
          "transactionHash": "0xc3ca09bdba42347ea3f4552d46476b6a5ad526b2dd5803d9ec9c644910c993b3",
          "transactionIndex": "0x7e",
          "logIndex": "0xe4",
          "removed": false
        }
      ],
      "logsBloom": "0x00000000000000000000000000000000000000000000000000000000000000000000000000000000000000000000000000000000000000000000000000000000000000000000000000000008000000000000000000000000000000000000000000000000020000000000000000000800000000000000000000000010000000000100000008000000000000000000000000000000000000000000000000000000000000000000000000000000000000000000000000000000000000000000000000000002000000000000000041000000000000008000000000000000000020000000000000000000000080000000000000000000000000000000000000000000",
      "type": "0x2",
      "transactionHash": "0xc3ca09bdba42347ea3f4552d46476b6a5ad526b2dd5803d9ec9c644910c993b3",
      "transactionIndex": "0x7e",
      "blockHash": "0x164c34032c1373237967804e2988859887d70e35fcf904eaf2ead734e93920f2",
      "blockNumber": "0x9e6bc5",
      "gasUsed": "0x87bb",
      "effectiveGasPrice": "0xf423e",
      "from": "0x993461bbf7e553eb5bd1f5248a72b524c4a3b15d",
      "to": "0xbb46678a1f6c527bd79ecfbf85332b8ae83ceaf1",
      "contractAddress": null
    },
    {
      "status": "0x1",
      "cumulativeGasUsed": "0xc34b0f",
      "logs": [
        {
          "address": "0xbb46678a1f6c527bd79ecfbf85332b8ae83ceaf1",
          "topics": [
            "0x8c5be1e5ebec7d5bd14f71427d1e84f3dd0314c0f7b2291e5b200ac8c7c3b925",
            "0x000000000000000000000000474b4e7fd1a143edea6b77aa845f429d443e6410",
            "0x0000000000000000000000008c5d49ebcbbcc4aa4d65a2d2629eebe53b67027f"
          ],
          "data": "0x000000000000000000000000000000000000000000034f086f3b33b684000000",
          "blockHash": "0xa4d13ebcb115d561f98b9cdbb6aaaa0676c1bbbfa316d29c84e7262db7a6dfa2",
          "blockNumber": "0x9e6bc6",
          "blockTimestamp": "0x69a81a94",
          "transactionHash": "0xd0e79df3f213c42e5c721395b4c06accef2c9ee8d0517968894fcf28f1f878e7",
          "transactionIndex": "0x82",
          "logIndex": "0x114",
          "removed": false
        }
      ],
      "logsBloom": "0x00000010000000000000000000000000000000000000000000000000000000000000000000000000000000000000000000000000000000000000000000200000002000000000000000000000000000000000000000000000000000000000000000400000000080000000000000000000000000000000000000000000000000000100000008000000000000000000000000000000000000000000000000000000020000000000000000000000000000000000000000000000000100000000000000000000000000000000000000000000000000008000000000000010000000000010000000000000000000000000000000000000000000000000000000000000",
      "type": "0x2",
      "transactionHash": "0xd0e79df3f213c42e5c721395b4c06accef2c9ee8d0517968894fcf28f1f878e7",
      "transactionIndex": "0x82",
      "blockHash": "0xa4d13ebcb115d561f98b9cdbb6aaaa0676c1bbbfa316d29c84e7262db7a6dfa2",
      "blockNumber": "0x9e6bc6",
      "gasUsed": "0xb768",
      "effectiveGasPrice": "0xf423e",
      "from": "0x474b4e7fd1a143edea6b77aa845f429d443e6410",
      "to": "0xbb46678a1f6c527bd79ecfbf85332b8ae83ceaf1",
      "contractAddress": null
    },
    {
      "status": "0x1",
      "cumulativeGasUsed": "0x944bbc",
      "logs": [
        {
          "address": "0xbb46678a1f6c527bd79ecfbf85332b8ae83ceaf1",
          "topics": [
            "0xddf252ad1be2c89b69c2b068fc378daa952ba7f163c4a11628f55a4df523b3ef",
            "0x000000000000000000000000474b4e7fd1a143edea6b77aa845f429d443e6410",
            "0x0000000000000000000000008c5d49ebcbbcc4aa4d65a2d2629eebe53b67027f"
          ],
          "data": "0x000000000000000000000000000000000000000000034f086f3b33b684000000",
          "blockHash": "0x8ed9300333c6e909f87a1cb22c405e3d3f8872e89350399f05d97304c3321649",
          "blockNumber": "0x9e6bc7",
          "blockTimestamp": "0x69a81aa0",
          "transactionHash": "0x90b4579889934658cbd95751f1a40a4d64782b06b921d4f3651baf94ce93c01d",
          "transactionIndex": "0x73",
          "logIndex": "0xe2",
          "removed": false
        },
        {
          "address": "0x8c5d49ebcbbcc4aa4d65a2d2629eebe53b67027f",
          "topics": [
            "0x30f6180e248310ab0c789da3026fbba7390872be072cfc5b3c20733f3a980c9e",
            "0x000000000000000000000000474b4e7fd1a143edea6b77aa845f429d443e6410",
            "0x000000000000000000000000bb46678a1f6c527bd79ecfbf85332b8ae83ceaf1"
          ],
          "data": "0x000000000000000000000000000000000000000000034f086f3b33b684000000",
          "blockHash": "0x8ed9300333c6e909f87a1cb22c405e3d3f8872e89350399f05d97304c3321649",
          "blockNumber": "0x9e6bc7",
          "blockTimestamp": "0x69a81aa0",
          "transactionHash": "0x90b4579889934658cbd95751f1a40a4d64782b06b921d4f3651baf94ce93c01d",
          "transactionIndex": "0x73",
          "logIndex": "0xe3",
          "removed": false
        }
      ],
      "logsBloom": "0x00000010000000000000000000000000000000000000000000000000000000000000000000000000000000000000000000000000000000000000000000000000002000000000000000000008000020000000000000000000000000000000000000400000000080000000000000000000000000000000000000100010000000000100000008000001000000000000000000000000000000000000000000000000000000000000000000000000000000100000000040000000000100000000000000000002000001000000000000000001000800008000000000000010000000000000000000000000000000000000000000000000000000000000000400000000",
      "type": "0x2",
      "transactionHash": "0x90b4579889934658cbd95751f1a40a4d64782b06b921d4f3651baf94ce93c01d",
      "transactionIndex": "0x73",
      "blockHash": "0x8ed9300333c6e909f87a1cb22c405e3d3f8872e89350399f05d97304c3321649",
      "blockNumber": "0x9e6bc7",
      "gasUsed": "0x1eba2",
      "effectiveGasPrice": "0xf423e",
      "from": "0x474b4e7fd1a143edea6b77aa845f429d443e6410",
      "to": "0x8c5d49ebcbbcc4aa4d65a2d2629eebe53b67027f",
      "contractAddress": null
    },
    {
      "status": "0x1",
      "cumulativeGasUsed": "0x8da4c7",
      "logs": [
        {
          "address": "0xbb46678a1f6c527bd79ecfbf85332b8ae83ceaf1",
          "topics": [
            "0x8c5be1e5ebec7d5bd14f71427d1e84f3dd0314c0f7b2291e5b200ac8c7c3b925",
            "0x000000000000000000000000f68d9e0faa751ad61e0ed70852798bf9d9c04bf7",
            "0x0000000000000000000000008c5d49ebcbbcc4aa4d65a2d2629eebe53b67027f"
          ],
          "data": "0x000000000000000000000000000000000000000000034f086f3b33b684000000",
          "blockHash": "0xf79866c27d49de75a7da137a2e13246d323d06ad215901f4d2a41767764b457d",
          "blockNumber": "0x9e6bc8",
          "blockTimestamp": "0x69a81aac",
          "transactionHash": "0x101861cb0ae91778b8a47a451eb6944955d40cc73b0fa7e475b09618e043efaf",
          "transactionIndex": "0x69",
          "logIndex": "0xc9",
          "removed": false
        }
      ],
      "logsBloom": "0x00000010000000000000000000000000000000000000000000000000000000800000000000000000000000000000000000000000000000000000000000200000002000000000000000000000000000000000000000000000000000000000000000000000000080000000000000000000000000000000000000000000000000000100000008000000000000000000000000000000000000000000000000000000020000000000000000000000000000000400000000000000000000000000000000000000000000000000000000000001000000008000000000000000000000000010000000000000000000000000000000000000000000000000000000000000",
      "type": "0x2",
      "transactionHash": "0x101861cb0ae91778b8a47a451eb6944955d40cc73b0fa7e475b09618e043efaf",
      "transactionIndex": "0x69",
      "blockHash": "0xf79866c27d49de75a7da137a2e13246d323d06ad215901f4d2a41767764b457d",
      "blockNumber": "0x9e6bc8",
      "gasUsed": "0xb768",
      "effectiveGasPrice": "0xf423e",
      "from": "0xf68d9e0faa751ad61e0ed70852798bf9d9c04bf7",
      "to": "0xbb46678a1f6c527bd79ecfbf85332b8ae83ceaf1",
      "contractAddress": null
    },
    {
      "status": "0x1",
      "cumulativeGasUsed": "0x69917c",
      "logs": [
        {
          "address": "0xbb46678a1f6c527bd79ecfbf85332b8ae83ceaf1",
          "topics": [
            "0xddf252ad1be2c89b69c2b068fc378daa952ba7f163c4a11628f55a4df523b3ef",
            "0x000000000000000000000000f68d9e0faa751ad61e0ed70852798bf9d9c04bf7",
            "0x0000000000000000000000008c5d49ebcbbcc4aa4d65a2d2629eebe53b67027f"
          ],
          "data": "0x000000000000000000000000000000000000000000034f086f3b33b684000000",
          "blockHash": "0x531f6023098ef6c725879530c85da0968ff6e9544463909d07688f1edc90dcc9",
          "blockNumber": "0x9e6bc9",
          "blockTimestamp": "0x69a81ab8",
          "transactionHash": "0x7fd114cb9bb173bf5588a0f1b406c3796b528f8b969b37b4fdf859fbc990f9c0",
          "transactionIndex": "0x6b",
          "logIndex": "0x7c",
          "removed": false
        },
        {
          "address": "0x8c5d49ebcbbcc4aa4d65a2d2629eebe53b67027f",
          "topics": [
            "0x30f6180e248310ab0c789da3026fbba7390872be072cfc5b3c20733f3a980c9e",
            "0x000000000000000000000000f68d9e0faa751ad61e0ed70852798bf9d9c04bf7",
            "0x000000000000000000000000bb46678a1f6c527bd79ecfbf85332b8ae83ceaf1"
          ],
          "data": "0x000000000000000000000000000000000000000000034f086f3b33b684000000",
          "blockHash": "0x531f6023098ef6c725879530c85da0968ff6e9544463909d07688f1edc90dcc9",
          "blockNumber": "0x9e6bc9",
          "blockTimestamp": "0x69a81ab8",
          "transactionHash": "0x7fd114cb9bb173bf5588a0f1b406c3796b528f8b969b37b4fdf859fbc990f9c0",
          "transactionIndex": "0x6b",
          "logIndex": "0x7d",
          "removed": false
        }
      ],
      "logsBloom": "0x00000010000000000000000000000000000000000000000000000000000000800000000000000000000000000000000000000000000000000000000000000000002000000000000000000008000020000000000000000000000000000000000000000000000080000000000000000000000000000000000000100010000000000100000008000001000000000000000000000000000000000000000000000000000000000000000000000000000000100400000040000000000000000000000000000002000001000000000000000001000800008000000000000000000000000000000000000000000000000000000000000000000000000000000400000000",
      "type": "0x2",
      "transactionHash": "0x7fd114cb9bb173bf5588a0f1b406c3796b528f8b969b37b4fdf859fbc990f9c0",
      "transactionIndex": "0x6b",
      "blockHash": "0x531f6023098ef6c725879530c85da0968ff6e9544463909d07688f1edc90dcc9",
      "blockNumber": "0x9e6bc9",
      "gasUsed": "0x1a8d6",
      "effectiveGasPrice": "0xf423e",
      "from": "0xf68d9e0faa751ad61e0ed70852798bf9d9c04bf7",
      "to": "0x8c5d49ebcbbcc4aa4d65a2d2629eebe53b67027f",
      "contractAddress": null
    },
    {
      "status": "0x1",
      "cumulativeGasUsed": "0x7d8cf8",
      "logs": [
        {
          "address": "0xbb46678a1f6c527bd79ecfbf85332b8ae83ceaf1",
          "topics": [
            "0x8c5be1e5ebec7d5bd14f71427d1e84f3dd0314c0f7b2291e5b200ac8c7c3b925",
            "0x00000000000000000000000010db2e70118e5fbeda30391ec957e608c9e4517e",
            "0x0000000000000000000000008c5d49ebcbbcc4aa4d65a2d2629eebe53b67027f"
          ],
          "data": "0x000000000000000000000000000000000000000000034f086f3b33b684000000",
          "blockHash": "0xb65928b0ce9184ea4082c8d7b9b85d5b046194e9a905a1fcbe0a982853105f25",
          "blockNumber": "0x9e6bca",
          "blockTimestamp": "0x69a81ac4",
          "transactionHash": "0x4b9f85bcdef37f01aeaa262dedf1a35072ace594a61d4b9af7241f366a4dced7",
          "transactionIndex": "0x6a",
          "logIndex": "0xb6",
          "removed": false
        }
      ],
      "logsBloom": "0x00000010000000000000000000000000000000000000000000000000000000000000000000000000000000000000000000000000000000000000000000200000002000000000000000000000000000000000000000000000000000000000000000000000000080000000000000000000000000000000000000000000000000000100000008000000000000000000000000000000000000000000000000000000020000000000000000000000000000000000000000000000000000000000000000000000000000000000000041000000000000008000000000000000000000000010000000000000000080000000000000000000000000000000000000000000",
      "type": "0x2",
      "transactionHash": "0x4b9f85bcdef37f01aeaa262dedf1a35072ace594a61d4b9af7241f366a4dced7",
      "transactionIndex": "0x6a",
      "blockHash": "0xb65928b0ce9184ea4082c8d7b9b85d5b046194e9a905a1fcbe0a982853105f25",
      "blockNumber": "0x9e6bca",
      "gasUsed": "0xb768",
      "effectiveGasPrice": "0xf423e",
      "from": "0x10db2e70118e5fbeda30391ec957e608c9e4517e",
      "to": "0xbb46678a1f6c527bd79ecfbf85332b8ae83ceaf1",
      "contractAddress": null
    },
    {
      "status": "0x1",
      "cumulativeGasUsed": "0xc1a9c8",
      "logs": [
        {
          "address": "0xbb46678a1f6c527bd79ecfbf85332b8ae83ceaf1",
          "topics": [
            "0xddf252ad1be2c89b69c2b068fc378daa952ba7f163c4a11628f55a4df523b3ef",
            "0x00000000000000000000000010db2e70118e5fbeda30391ec957e608c9e4517e",
            "0x0000000000000000000000008c5d49ebcbbcc4aa4d65a2d2629eebe53b67027f"
          ],
          "data": "0x000000000000000000000000000000000000000000034f086f3b33b684000000",
          "blockHash": "0x8a105a6d9b6549d601b3dd878bf1f593f9656f834011742a794f9f01a3dc6212",
          "blockNumber": "0x9e6bcc",
          "blockTimestamp": "0x69a81adc",
          "transactionHash": "0x4bbddaaffc1360cfb054552ab612d2a099cd3f5505f2e6a2e2c9332a27b98e4d",
          "transactionIndex": "0x77",
          "logIndex": "0xc9",
          "removed": false
        },
        {
          "address": "0x8c5d49ebcbbcc4aa4d65a2d2629eebe53b67027f",
          "topics": [
            "0x30f6180e248310ab0c789da3026fbba7390872be072cfc5b3c20733f3a980c9e",
            "0x00000000000000000000000010db2e70118e5fbeda30391ec957e608c9e4517e",
            "0x000000000000000000000000bb46678a1f6c527bd79ecfbf85332b8ae83ceaf1"
          ],
          "data": "0x000000000000000000000000000000000000000000034f086f3b33b684000000",
          "blockHash": "0x8a105a6d9b6549d601b3dd878bf1f593f9656f834011742a794f9f01a3dc6212",
          "blockNumber": "0x9e6bcc",
          "blockTimestamp": "0x69a81adc",
          "transactionHash": "0x4bbddaaffc1360cfb054552ab612d2a099cd3f5505f2e6a2e2c9332a27b98e4d",
          "transactionIndex": "0x77",
          "logIndex": "0xca",
          "removed": false
        }
      ],
      "logsBloom": "0x00000010000000000000000000000000000000000000000000000000000000000000000000000000000000000000000000000000000000000000000000000000002000000000000000000008000020000000000000000000000000000000000000000000000080000000000000000000000000000000000000100010000000000100000008000001000000000000000000000000000000000000000000000000000000000000000000000000000000100000000040000000000000000000000000000002000001000000000041000001000800008000000000000000000000000000000000000000000080000000000000000000000000000000000400000000",
      "type": "0x2",
      "transactionHash": "0x4bbddaaffc1360cfb054552ab612d2a099cd3f5505f2e6a2e2c9332a27b98e4d",
      "transactionIndex": "0x77",
      "blockHash": "0x8a105a6d9b6549d601b3dd878bf1f593f9656f834011742a794f9f01a3dc6212",
      "blockNumber": "0x9e6bcc",
      "gasUsed": "0x1a8d6",
      "effectiveGasPrice": "0xf423e",
      "from": "0x10db2e70118e5fbeda30391ec957e608c9e4517e",
      "to": "0x8c5d49ebcbbcc4aa4d65a2d2629eebe53b67027f",
      "contractAddress": null
    }
  ],
  "libraries": [],
  "pending": [],
  "returns": {},
  "timestamp": 1772624604824,
  "chain": 11155111,
  "commit": "7621ae8"
}