{
  "transactions": [
    {
      "hash": "0xa430a8a2ba20db968d8c00586fc7112c3a0f1dc22ed637a06e39dd08e5b8724f",
      "transactionType": "CALL",
      "contractName": null,
      "contractAddress": "0xbb46678a1f6c527bd79ecfbf85332b8ae83ceaf1",
      "function": "mint(address,uint256)",
      "arguments": [
        "0x474B4E7FD1A143eDea6b77aa845F429D443E6410",
        "4000000000000000000000000"
      ],
      "transaction": {
        "from": "0x993461bbf7e553eb5bd1f5248a72b524c4a3b15d",
        "to": "0xbb46678a1f6c527bd79ecfbf85332b8ae83ceaf1",
        "gas": "0xc681",
        "value": "0x0",
        "input": "0x40c10f19000000000000000000000000474b4e7fd1a143edea6b77aa845f429d443e6410000000000000000000000000000000000000000000034f086f3b33b684000000",
        "nonce": "0x2a1",
        "chainId": "0xaa36a7"
      },
      "additionalContracts": [],
      "isFixedGasLimit": false
    },
    {
      "hash": "0x429baeb40f682f41444691cd8a27ea203c2a586bdd0cf57ba00bb39a5fbf138a",
      "transactionType": "CALL",
      "contractName": null,
      "contractAddress": "0xbb46678a1f6c527bd79ecfbf85332b8ae83ceaf1",
      "function": "mint(address,uint256)",
      "arguments": [
        "0xf68D9e0fAa751AD61e0ED70852798bF9D9C04bF7",
        "4000000000000000000000000"
      ],
      "transaction": {
        "from": "0x993461bbf7e553eb5bd1f5248a72b524c4a3b15d",
        "to": "0xbb46678a1f6c527bd79ecfbf85332b8ae83ceaf1",
        "gas": "0xc681",
        "value": "0x0",
        "input": "0x40c10f19000000000000000000000000f68d9e0faa751ad61e0ed70852798bf9d9c04bf7000000000000000000000000000000000000000000034f086f3b33b684000000",
        "nonce": "0x2a2",
        "chainId": "0xaa36a7"
      },
      "additionalContracts": [],
      "isFixedGasLimit": false
    },
    {
      "hash": "0xbabd0b39acd92fa0f202c3a8562c268bf18b1b19a27d7a0748fe6b47563702e8",
      "transactionType": "CALL",
      "contractName": null,
      "contractAddress": "0xbb46678a1f6c527bd79ecfbf85332b8ae83ceaf1",
      "function": "approve(address,uint256)",
      "arguments": [
        "0x9036b1d7B51331d6F517b7081074fE181D494BC6",
        "4000000000000000000000000"
      ],
      "transaction": {
        "from": "0x474b4e7fd1a143edea6b77aa845f429d443e6410",
        "to": "0xbb46678a1f6c527bd79ecfbf85332b8ae83ceaf1",
        "gas": "0xfd53",
        "value": "0x0",
        "input": "0x095ea7b30000000000000000000000009036b1d7b51331d6f517b7081074fe181d494bc6000000000000000000000000000000000000000000034f086f3b33b684000000",
        "nonce": "0x22",
        "chainId": "0xaa36a7"
      },
      "additionalContracts": [],
      "isFixedGasLimit": false
    },
    {
      "hash": "0x0b8660c116590168f3826a9d72f6ba6e228a6fcd1f0172e271565aade83005c9",
      "transactionType": "CALL",
      "contractName": "MarginVault",
      "contractAddress": "0x9036b1d7b51331d6f517b7081074fe181d494bc6",
      "function": "depositMargin(bytes32,address,uint256)",
      "arguments": [
        "0x000000000000000000000000474b4e7fd1a143edea6b77aa845f429d443e6410",
        "0xbb46678a1F6C527bD79eCFBF85332B8Ae83ceaf1",
        "4000000000000000000000000"
      ],
      "transaction": {
        "from": "0x474b4e7fd1a143edea6b77aa845f429d443e6410",
        "to": "0x9036b1d7b51331d6f517b7081074fe181d494bc6",
        "gas": "0x19d7f",
        "value": "0x0",
        "input": "0x6812d315000000000000000000000000474b4e7fd1a143edea6b77aa845f429d443e6410000000000000000000000000bb46678a1f6c527bd79ecfbf85332b8ae83ceaf1000000000000000000000000000000000000000000034f086f3b33b684000000",
        "nonce": "0x23",
        "chainId": "0xaa36a7"
      },
      "additionalContracts": [],
      "isFixedGasLimit": false
    },
    {
      "hash": "0x7f48ec7e8150cd58d981371ffa24ac2edd5934fb99f8bef9cf9c18d4a0576a78",
      "transactionType": "CALL",
      "contractName": null,
      "contractAddress": "0xbb46678a1f6c527bd79ecfbf85332b8ae83ceaf1",
      "function": "approve(address,uint256)",
      "arguments": [
        "0x9036b1d7B51331d6F517b7081074fE181D494BC6",
        "4000000000000000000000000"
      ],
      "transaction": {
        "from": "0xf68d9e0faa751ad61e0ed70852798bf9d9c04bf7",
        "to": "0xbb46678a1f6c527bd79ecfbf85332b8ae83ceaf1",
        "gas": "0xfd53",
        "value": "0x0",
        "input": "0x095ea7b30000000000000000000000009036b1d7b51331d6f517b7081074fe181d494bc6000000000000000000000000000000000000000000034f086f3b33b684000000",
        "nonce": "0x20",
        "chainId": "0xaa36a7"
      },
      "additionalContracts": [],
      "isFixedGasLimit": false
    },
    {
      "hash": "0xed502478983eab98a657745d13166709f5d97700547ef8917abd5711e1a95a29",
      "transactionType": "CALL",
      "contractName": "MarginVault",
      "contractAddress": "0x9036b1d7b51331d6f517b7081074fe181d494bc6",
      "function": "depositMargin(bytes32,address,uint256)",
      "arguments": [
        "0x000000000000000000000000f68d9e0faa751ad61e0ed70852798bf9d9c04bf7",
        "0xbb46678a1F6C527bD79eCFBF85332B8Ae83ceaf1",
        "4000000000000000000000000"
      ],
      "transaction": {
        "from": "0xf68d9e0faa751ad61e0ed70852798bf9d9c04bf7",
        "to": "0x9036b1d7b51331d6f517b7081074fe181d494bc6",
        "gas": "0x19d7f",
        "value": "0x0",
        "input": "0x6812d315000000000000000000000000f68d9e0faa751ad61e0ed70852798bf9d9c04bf7000000000000000000000000bb46678a1f6c527bd79ecfbf85332b8ae83ceaf1000000000000000000000000000000000000000000034f086f3b33b684000000",
        "nonce": "0x21",
        "chainId": "0xaa36a7"
      },
      "additionalContracts": [],
      "isFixedGasLimit": false
    }
  ],
  "receipts": [
    {
      "status": "0x1",
      "cumulativeGasUsed": "0x8f7247",
      "logs": [
        {
          "address": "0xbb46678a1f6c527bd79ecfbf85332b8ae83ceaf1",
          "topics": [
            "0xddf252ad1be2c89b69c2b068fc378daa952ba7f163c4a11628f55a4df523b3ef",
            "0x0000000000000000000000000000000000000000000000000000000000000000",
            "0x000000000000000000000000474b4e7fd1a143edea6b77aa845f429d443e6410"
          ],
          "data": "0x000000000000000000000000000000000000000000034f086f3b33b684000000",
          "blockHash": "0x4dd5149cec0089f217be495dfec51abbfa8f75d138970aca0b353e2e4f77a13f",
          "blockNumber": "0x9e4a50",
          "blockTimestamp": "0x69a67cac",
          "transactionHash": "0xa430a8a2ba20db968d8c00586fc7112c3a0f1dc22ed637a06e39dd08e5b8724f",
          "transactionIndex": "0x50",
          "logIndex": "0xa9",
          "removed": false
        }
      ],
      "logsBloom": "0x00000000000000000000000000000000000000000000000000000000000000000000000000000000000000000000000000000000000000000000000000000000000000000000000000000008000000000000000000000000000000000000000000400000020000000000000000000800000000000000000000000010000000000100000008000000000000000000000000000000000000000000000000000000000000000000000000000000000000000000000000000000000100000000000000000002000000000000000000000000000000008000000000000010000020000000000000000000000000000000000000000000000000000000000000000000",
      "type": "0x2",
      "transactionHash": "0xa430a8a2ba20db968d8c00586fc7112c3a0f1dc22ed637a06e39dd08e5b8724f",
      "transactionIndex": "0x50",
      "blockHash": "0x4dd5149cec0089f217be495dfec51abbfa8f75d138970aca0b353e2e4f77a13f",
      "blockNumber": "0x9e4a50",
      "gasUsed": "0x87bb",
      "effectiveGasPrice": "0xf424c",
      "from": "0x993461bbf7e553eb5bd1f5248a72b524c4a3b15d",
      "to": "0xbb46678a1f6c527bd79ecfbf85332b8ae83ceaf1",
      "contractAddress": null
    },
    {
      "status": "0x1",
      "cumulativeGasUsed": "0xf27b06",
      "logs": [
        {
          "address": "0xbb46678a1f6c527bd79ecfbf85332b8ae83ceaf1",
          "topics": [
            "0xddf252ad1be2c89b69c2b068fc378daa952ba7f163c4a11628f55a4df523b3ef",
            "0x0000000000000000000000000000000000000000000000000000000000000000",
            "0x000000000000000000000000f68d9e0faa751ad61e0ed70852798bf9d9c04bf7"
          ],
          "data": "0x000000000000000000000000000000000000000000034f086f3b33b684000000",
          "blockHash": "0x86a6ec10f0daed2addcf8944e4cafe8de84f243ba33b89bbc2d4f5d94bd7e437",
          "blockNumber": "0x9e4a51",
          "blockTimestamp": "0x69a67cb8",
          "transactionHash": "0x429baeb40f682f41444691cd8a27ea203c2a586bdd0cf57ba00bb39a5fbf138a",
          "transactionIndex": "0x54",
          "logIndex": "0x74",
          "removed": false
        }
      ],
      "logsBloom": "0x00000000000000000000000000000000000000000000000000000000000000800000000000000000000000000000000000000000000000000000000000000000000000000000000000000008000000000000000000000000000000000000000000000000020000000000000000000800000000000000000000000010000000000100000008000000000000000000000000000000000000000000000000000000000000000000000000000000000000000400000000000000000000000000000000000002000000000000000000000001000000008000000000000000000020000000000000000000000000000000000000000000000000000000000000000000",
      "type": "0x2",
      "transactionHash": "0x429baeb40f682f41444691cd8a27ea203c2a586bdd0cf57ba00bb39a5fbf138a",
      "transactionIndex": "0x54",
      "blockHash": "0x86a6ec10f0daed2addcf8944e4cafe8de84f243ba33b89bbc2d4f5d94bd7e437",
      "blockNumber": "0x9e4a51",
      "gasUsed": "0x87bb",
      "effectiveGasPrice": "0xf424c",
      "from": "0x993461bbf7e553eb5bd1f5248a72b524c4a3b15d",
      "to": "0xbb46678a1f6c527bd79ecfbf85332b8ae83ceaf1",
      "contractAddress": null
    },
    {
      "status": "0x1",
      "cumulativeGasUsed": "0xc473fc",
      "logs": [
        {
          "address": "0xbb46678a1f6c527bd79ecfbf85332b8ae83ceaf1",
          "topics": [
            "0x8c5be1e5ebec7d5bd14f71427d1e84f3dd0314c0f7b2291e5b200ac8c7c3b925",
            "0x000000000000000000000000474b4e7fd1a143edea6b77aa845f429d443e6410",
            "0x0000000000000000000000009036b1d7b51331d6f517b7081074fe181d494bc6"
          ],
          "data": "0x000000000000000000000000000000000000000000034f086f3b33b684000000",
          "blockHash": "0x6b618224051f311cea9313db8185768308ff40292acf486563970750616b1fac",
          "blockNumber": "0x9e4a52",
          "blockTimestamp": "0x69a67cc4",
          "transactionHash": "0xbabd0b39acd92fa0f202c3a8562c268bf18b1b19a27d7a0748fe6b47563702e8",
          "transactionIndex": "0x67",
          "logIndex": "0xb2",
          "removed": false
        }
      ],
      "logsBloom": "0x00000000000000000000080000000000000000000000000000000000000000000000000000000000000000000000000000000000000000000000000000200000000000000000000000000000000000000000000000000000000000000000000000400000008000000000000000000000000000000000000000000000000000000100000008000000000000000000000000000000000000000000000000000000020000000000000000000000000000000000000000000000000100000000000000000000000000000000000000000000000000008000000080000010000000000010000000000000000000000000000000000000000000000000000000000000",
      "type": "0x2",
      "transactionHash": "0xbabd0b39acd92fa0f202c3a8562c268bf18b1b19a27d7a0748fe6b47563702e8",
      "transactionIndex": "0x67",
      "blockHash": "0x6b618224051f311cea9313db8185768308ff40292acf486563970750616b1fac",
      "blockNumber": "0x9e4a52",
      "gasUsed": "0xb768",
      "effectiveGasPrice": "0xf424c",
      "from": "0x474b4e7fd1a143edea6b77aa845f429d443e6410",
      "to": "0xbb46678a1f6c527bd79ecfbf85332b8ae83ceaf1",
      "contractAddress": null
    },
    {
      "status": "0x1",
      "cumulativeGasUsed": "0x14ad736",
      "logs": [
        {
          "address": "0xbb46678a1f6c527bd79ecfbf85332b8ae83ceaf1",
          "topics": [
            "0xddf252ad1be2c89b69c2b068fc378daa952ba7f163c4a11628f55a4df523b3ef",
            "0x000000000000000000000000474b4e7fd1a143edea6b77aa845f429d443e6410",
            "0x0000000000000000000000009036b1d7b51331d6f517b7081074fe181d494bc6"
          ],
          "data": "0x000000000000000000000000000000000000000000034f086f3b33b684000000",
          "blockHash": "0x64994f9e9e4f56fa477f264be451b68acc4907c3d8b8dda6bf3f28adec2cfe60",
          "blockNumber": "0x9e4a53",
          "blockTimestamp": "0x69a67cd0",
          "transactionHash": "0x0b8660c116590168f3826a9d72f6ba6e228a6fcd1f0172e271565aade83005c9",
          "transactionIndex": "0x48",
          "logIndex": "0x70",
          "removed": false
        },
        {
          "address": "0x9036b1d7b51331d6f517b7081074fe181d494bc6",
          "topics": [
            "0x30f6180e248310ab0c789da3026fbba7390872be072cfc5b3c20733f3a980c9e",
            "0x000000000000000000000000474b4e7fd1a143edea6b77aa845f429d443e6410",
            "0x000000000000000000000000bb46678a1f6c527bd79ecfbf85332b8ae83ceaf1"
          ],
          "data": "0x000000000000000000000000000000000000000000034f086f3b33b684000000",
          "blockHash": "0x64994f9e9e4f56fa477f264be451b68acc4907c3d8b8dda6bf3f28adec2cfe60",
          "blockNumber": "0x9e4a53",
          "blockTimestamp": "0x69a67cd0",
          "transactionHash": "0x0b8660c116590168f3826a9d72f6ba6e228a6fcd1f0172e271565aade83005c9",
          "transactionIndex": "0x48",
          "logIndex": "0x71",
          "removed": false
        }
      ],
      "logsBloom": "0x00000000000000000000080000000000000000000000000000000000000000000000000000000000000000000000000000000000000000000000000000000000000000000000000000000008000000000000000000000000000000000000000000400000008000000000000000000000000000000000000000000010000000000100000008000001000000000000000000080020000000000000000000000000000000000000000000000000000000000000000040000000000100000000000000000002000001000000000000000001000800008000000080000010000000000000000000000000000000000000000000000000000000000000000400000000",
      "type": "0x2",
      "transactionHash": "0x0b8660c116590168f3826a9d72f6ba6e228a6fcd1f0172e271565aade83005c9",
      "transactionIndex": "0x48",
      "blockHash": "0x64994f9e9e4f56fa477f264be451b68acc4907c3d8b8dda6bf3f28adec2cfe60",
      "blockNumber": "0x9e4a53",
      "gasUsed": "0x12b5e",
      "effectiveGasPrice": "0xf424c",
      "from": "0x474b4e7fd1a143edea6b77aa845f429d443e6410",
      "to": "0x9036b1d7b51331d6f517b7081074fe181d494bc6",
      "contractAddress": null
    },
    {
      "status": "0x1",
      "cumulativeGasUsed": "0x8df183",
      "logs": [
        {
          "address": "0xbb46678a1f6c527bd79ecfbf85332b8ae83ceaf1",
          "topics": [
            "0x8c5be1e5ebec7d5bd14f71427d1e84f3dd0314c0f7b2291e5b200ac8c7c3b925",
            "0x000000000000000000000000f68d9e0faa751ad61e0ed70852798bf9d9c04bf7",
            "0x0000000000000000000000009036b1d7b51331d6f517b7081074fe181d494bc6"
          ],
          "data": "0x000000000000000000000000000000000000000000034f086f3b33b684000000",
          "blockHash": "0x66d63b421b3a90227eb667ff3cd921facb9c788741dae6c75e2b9a2ee2e53b85",
          "blockNumber": "0x9e4a54",
          "blockTimestamp": "0x69a67cdc",
          "transactionHash": "0x7f48ec7e8150cd58d981371ffa24ac2edd5934fb99f8bef9cf9c18d4a0576a78",
          "transactionIndex": "0x6d",
          "logIndex": "0xb1",
          "removed": false
        }
      ],
      "logsBloom": "0x00000000000000000000080000000000000000000000000000000000000000800000000000000000000000000000000000000000000000000000000000200000000000000000000000000000000000000000000000000000000000000000000000000000008000000000000000000000000000000000000000000000000000000100000008000000000000000000000000000000000000000000000000000000020000000000000000000000000000000400000000000000000000000000000000000000000000000000000000000001000000008000000080000000000000000010000000000000000000000000000000000000000000000000000000000000",
      "type": "0x2",
      "transactionHash": "0x7f48ec7e8150cd58d981371ffa24ac2edd5934fb99f8bef9cf9c18d4a0576a78",
      "transactionIndex": "0x6d",
      "blockHash": "0x66d63b421b3a90227eb667ff3cd921facb9c788741dae6c75e2b9a2ee2e53b85",
      "blockNumber": "0x9e4a54",
      "gasUsed": "0xb768",
      "effectiveGasPrice": "0xf424c",
      "from": "0xf68d9e0faa751ad61e0ed70852798bf9d9c04bf7",
      "to": "0xbb46678a1f6c527bd79ecfbf85332b8ae83ceaf1",
      "contractAddress": null
    },
    {
      "status": "0x1",
      "cumulativeGasUsed": "0x681ad6",
      "logs": [
        {
          "address": "0xbb46678a1f6c527bd79ecfbf85332b8ae83ceaf1",
          "topics": [
            "0xddf252ad1be2c89b69c2b068fc378daa952ba7f163c4a11628f55a4df523b3ef",
            "0x000000000000000000000000f68d9e0faa751ad61e0ed70852798bf9d9c04bf7",
            "0x0000000000000000000000009036b1d7b51331d6f517b7081074fe181d494bc6"
          ],
          "data": "0x000000000000000000000000000000000000000000034f086f3b33b684000000",
          "blockHash": "0x7a353a3be9f4e9ef94e9d5f0d4f946970642cb05692b4f15a826613d4309e426",
          "blockNumber": "0x9e4a55",
          "blockTimestamp": "0x69a67ce8",
          "transactionHash": "0xed502478983eab98a657745d13166709f5d97700547ef8917abd5711e1a95a29",
          "transactionIndex": "0x58",
          "logIndex": "0x8d",
          "removed": false
        },
        {
          "address": "0x9036b1d7b51331d6f517b7081074fe181d494bc6",
          "topics": [
            "0x30f6180e248310ab0c789da3026fbba7390872be072cfc5b3c20733f3a980c9e",
            "0x000000000000000000000000f68d9e0faa751ad61e0ed70852798bf9d9c04bf7",
            "0x000000000000000000000000bb46678a1f6c527bd79ecfbf85332b8ae83ceaf1"
          ],
          "data": "0x000000000000000000000000000000000000000000034f086f3b33b684000000",
          "blockHash": "0x7a353a3be9f4e9ef94e9d5f0d4f946970642cb05692b4f15a826613d4309e426",
          "blockNumber": "0x9e4a55",
          "blockTimestamp": "0x69a67ce8",
          "transactionHash": "0xed502478983eab98a657745d13166709f5d97700547ef8917abd5711e1a95a29",
          "transactionIndex": "0x58",
          "logIndex": "0x8e",
          "removed": false
        }
      ],
      "logsBloom": "0x00000000000000000000080000000000000000000000000000000000000000800000000000000000000000000000000000000000000000000000000000000000000000000000000000000008000000000000000000000000000000000000000000000000008000000000000000000000000000000000000000000010000000000100000008000001000000000000000000080020000000000000000000000000000000000000000000000000000000000400000040000000000000000000000000000002000001000000000000000001000800008000000080000000000000000000000000000000000000000000000000000000000000000000000400000000",
      "type": "0x2",
      "transactionHash": "0xed502478983eab98a657745d13166709f5d97700547ef8917abd5711e1a95a29",
      "transactionIndex": "0x58",
      "blockHash": "0x7a353a3be9f4e9ef94e9d5f0d4f946970642cb05692b4f15a826613d4309e426",
      "blockNumber": "0x9e4a55",
      "gasUsed": "0x12b5e",
      "effectiveGasPrice": "0xf424c",
      "from": "0xf68d9e0faa751ad61e0ed70852798bf9d9c04bf7",
      "to": "0x9036b1d7b51331d6f517b7081074fe181d494bc6",
      "contractAddress": null
    }
  ],
  "libraries": [],
  "pending": [],
  "returns": {},
  "timestamp": 1772518633082,
  "chain": 11155111,
  "commit": "f5742d5"
}