{
  "transactions": [
    {
      "hash": "0x93c51288a6a97a8e363e801bfcf6163680a95c6764868deb35ab6c417cf77294",
      "transactionType": "CALL",
      "contractName": null,
      "contractAddress": "0xbb46678a1f6c527bd79ecfbf85332b8ae83ceaf1",
      "function": "mint(address,uint256)",
      "arguments": [
        "0x474B4E7FD1A143eDea6b77aa845F429D443E6410",
        "4000000000000000000000000"
      ],
      "transaction": {
        "from": "0x993461bbf7e553eb5bd1f5248a72b524c4a3b15d",
        "to": "0xbb46678a1f6c527bd79ecfbf85332b8ae83ceaf1",
        "gas": "0xc681",
        "value": "0x0",
        "input": "0x40c10f19000000000000000000000000474b4e7fd1a143edea6b77aa845f429d443e6410000000000000000000000000000000000000000000034f086f3b33b684000000",
        "nonce": "0x554",
        "chainId": "0xaa36a7"
      },
      "additionalContracts": [],
      "isFixedGasLimit": false
    },
    {
      "hash": "0x9c511653584f8b563e6c41e6b90d9f8e98efcee174a10134b57ee0f6fafb4c4e",
      "transactionType": "CALL",
      "contractName": null,
      "contractAddress": "0xbb46678a1f6c527bd79ecfbf85332b8ae83ceaf1",
      "function": "mint(address,uint256)",
      "arguments": [
        "0xf68D9e0fAa751AD61e0ED70852798bF9D9C04bF7",
        "4000000000000000000000000"
      ],
      "transaction": {
        "from": "0x993461bbf7e553eb5bd1f5248a72b524c4a3b15d",
        "to": "0xbb46678a1f6c527bd79ecfbf85332b8ae83ceaf1",
        "gas": "0xc681",
        "value": "0x0",
        "input": "0x40c10f19000000000000000000000000f68d9e0faa751ad61e0ed70852798bf9d9c04bf7000000000000000000000000000000000000000000034f086f3b33b684000000",
        "nonce": "0x555",
        "chainId": "0xaa36a7"
      },
      "additionalContracts": [],
      "isFixedGasLimit": false
    },
    {
      "hash": "0x73c04d3f8b93b17073aad70a2040b3d54bade2592c10be782ab04d47deca2c66",
      "transactionType": "CALL",
      "contractName": null,
      "contractAddress": "0xbb46678a1f6c527bd79ecfbf85332b8ae83ceaf1",
      "function": "mint(address,uint256)",
      "arguments": [
        "0x10Db2E70118e5FBeDa30391ec957e608C9E4517E",
        "4000000000000000000000000"
      ],
      "transaction": {
        "from": "0x993461bbf7e553eb5bd1f5248a72b524c4a3b15d",
        "to": "0xbb46678a1f6c527bd79ecfbf85332b8ae83ceaf1",
        "gas": "0xc681",
        "value": "0x0",
        "input": "0x40c10f1900000000000000000000000010db2e70118e5fbeda30391ec957e608c9e4517e000000000000000000000000000000000000000000034f086f3b33b684000000",
        "nonce": "0x556",
        "chainId": "0xaa36a7"
      },
      "additionalContracts": [],
      "isFixedGasLimit": false
    },
    {
      "hash": "0x1c6519cf544e779842a4451d89dde907483b69bbab505c1e008a9c40ae4f2765",
      "transactionType": "CALL",
      "contractName": null,
      "contractAddress": "0xbb46678a1f6c527bd79ecfbf85332b8ae83ceaf1",
      "function": "approve(address,uint256)",
      "arguments": [
        "0xcB275374DF701324033958067D3bf1aacC7551Bd",
        "4000000000000000000000000"
      ],
      "transaction": {
        "from": "0x474b4e7fd1a143edea6b77aa845f429d443e6410",
        "to": "0xbb46678a1f6c527bd79ecfbf85332b8ae83ceaf1",
        "gas": "0xfd53",
        "value": "0x0",
        "input": "0x095ea7b3000000000000000000000000cb275374df701324033958067d3bf1aacc7551bd000000000000000000000000000000000000000000034f086f3b33b684000000",
        "nonce": "0x5d",
        "chainId": "0xaa36a7"
      },
      "additionalContracts": [],
      "isFixedGasLimit": false
    },
    {
      "hash": "0x1a0d44dbc546beda12784f5f57a6151ae58983feb5d56c1d32137c98a7e81d10",
      "transactionType": "CALL",
      "contractName": "MarginVault",
      "contractAddress": "0xcb275374df701324033958067d3bf1aacc7551bd",
      "function": "depositMargin(bytes32,address,uint256)",
      "arguments": [
        "0x000000000000000000000000474b4e7fd1a143edea6b77aa845f429d443e6410",
        "0xbb46678a1F6C527bD79eCFBF85332B8Ae83ceaf1",
        "4000000000000000000000000"
      ],
      "transaction": {
        "from": "0x474b4e7fd1a143edea6b77aa845f429d443e6410",
        "to": "0xcb275374df701324033958067d3bf1aacc7551bd",
        "gas": "0x2cf03",
        "value": "0x0",
        "input": "0x6812d315000000000000000000000000474b4e7fd1a143edea6b77aa845f429d443e6410000000000000000000000000bb46678a1f6c527bd79ecfbf85332b8ae83ceaf1000000000000000000000000000000000000000000034f086f3b33b684000000",
        "nonce": "0x5e",
        "chainId": "0xaa36a7"
      },
      "additionalContracts": [],
      "isFixedGasLimit": false
    },
    {
      "hash": "0xcb3704a18df676cd1054099cd3224e4f8e1934c03631c8be862412399c5bacd6",
      "transactionType": "CALL",
      "contractName": null,
      "contractAddress": "0xbb46678a1f6c527bd79ecfbf85332b8ae83ceaf1",
      "function": "approve(address,uint256)",
      "arguments": [
        "0xcB275374DF701324033958067D3bf1aacC7551Bd",
        "4000000000000000000000000"
      ],
      "transaction": {
        "from": "0xf68d9e0faa751ad61e0ed70852798bf9d9c04bf7",
        "to": "0xbb46678a1f6c527bd79ecfbf85332b8ae83ceaf1",
        "gas": "0xfd53",
        "value": "0x0",
        "input": "0x095ea7b3000000000000000000000000cb275374df701324033958067d3bf1aacc7551bd000000000000000000000000000000000000000000034f086f3b33b684000000",
        "nonce": "0x5b",
        "chainId": "0xaa36a7"
      },
      "additionalContracts": [],
      "isFixedGasLimit": false
    },
    {
      "hash": "0xb5ae29505a7c63bdffb400c1e34eefef11c7e8e5d257bb7a570aa23b0ab9fa6e",
      "transactionType": "CALL",
      "contractName": "MarginVault",
      "contractAddress": "0xcb275374df701324033958067d3bf1aacc7551bd",
      "function": "depositMargin(bytes32,address,uint256)",
      "arguments": [
        "0x000000000000000000000000f68d9e0faa751ad61e0ed70852798bf9d9c04bf7",
        "0xbb46678a1F6C527bD79eCFBF85332B8Ae83ceaf1",
        "4000000000000000000000000"
      ],
      "transaction": {
        "from": "0xf68d9e0faa751ad61e0ed70852798bf9d9c04bf7",
        "to": "0xcb275374df701324033958067d3bf1aacc7551bd",
        "gas": "0x24acd",
        "value": "0x0",
        "input": "0x6812d315000000000000000000000000f68d9e0faa751ad61e0ed70852798bf9d9c04bf7000000000000000000000000bb46678a1f6c527bd79ecfbf85332b8ae83ceaf1000000000000000000000000000000000000000000034f086f3b33b684000000",
        "nonce": "0x5c",
        "chainId": "0xaa36a7"
      },
      "additionalContracts": [],
      "isFixedGasLimit": false
    },
    {
      "hash": "0x519d65ab0976a6a8ca8bad81601721b4d2029b7a61d74fc3b40e37e3828d5bc0",
      "transactionType": "CALL",
      "contractName": null,
      "contractAddress": "0xbb46678a1f6c527bd79ecfbf85332b8ae83ceaf1",
      "function": "approve(address,uint256)",
      "arguments": [
        "0xcB275374DF701324033958067D3bf1aacC7551Bd",
        "4000000000000000000000000"
      ],
      "transaction": {
        "from": "0x10db2e70118e5fbeda30391ec957e608c9e4517e",
        "to": "0xbb46678a1f6c527bd79ecfbf85332b8ae83ceaf1",
        "gas": "0xfd53",
        "value": "0x0",
        "input": "0x095ea7b3000000000000000000000000cb275374df701324033958067d3bf1aacc7551bd000000000000000000000000000000000000000000034f086f3b33b684000000",
        "nonce": "0x28",
        "chainId": "0xaa36a7"
      },
      "additionalContracts": [],
      "isFixedGasLimit": false
    },
    {
      "hash": "0xa91b67b210c4f4430d18abe05a8a61110cc0dbf80c67c1ba7dc5e2df28a17fd5",
      "transactionType": "CALL",
      "contractName": "MarginVault",
      "contractAddress": "0xcb275374df701324033958067d3bf1aacc7551bd",
      "function": "depositMargin(bytes32,address,uint256)",
      "arguments": [
        "0x00000000000000000000000010db2e70118e5fbeda30391ec957e608c9e4517e",
        "0xbb46678a1F6C527bD79eCFBF85332B8Ae83ceaf1",
        "4000000000000000000000000"
      ],
      "transaction": {
        "from": "0x10db2e70118e5fbeda30391ec957e608c9e4517e",
        "to": "0xcb275374df701324033958067d3bf1aacc7551bd",
        "gas": "0x24acd",
        "value": "0x0",
        "input": "0x6812d31500000000000000000000000010db2e70118e5fbeda30391ec957e608c9e4517e000000000000000000000000bb46678a1f6c527bd79ecfbf85332b8ae83ceaf1000000000000000000000000000000000000000000034f086f3b33b684000000",
        "nonce": "0x29",
        "chainId": "0xaa36a7"
      },
      "additionalContracts": [],
      "isFixedGasLimit": false
    }
  ],
  "receipts": [
    {
      "status": "0x1",
      "cumulativeGasUsed": "0x173c986",
      "logs": [
        {
          "address": "0xbb46678a1f6c527bd79ecfbf85332b8ae83ceaf1",
          "topics": [
            "0xddf252ad1be2c89b69c2b068fc378daa952ba7f163c4a11628f55a4df523b3ef",
            "0x0000000000000000000000000000000000000000000000000000000000000000",
            "0x000000000000000000000000474b4e7fd1a143edea6b77aa845f429d443e6410"
          ],
          "data": "0x000000000000000000000000000000000000000000034f086f3b33b684000000",
          "blockHash": "0x85c0d0fdc706c8f52d367aaed0c87980dce745acac0e3c67e416ebafc24bc3e7",
          "blockNumber": "0x9ea15a",
          "blockTimestamp": "0x69aabc20",
          "transactionHash": "0x93c51288a6a97a8e363e801bfcf6163680a95c6764868deb35ab6c417cf77294",
          "transactionIndex": "0x81",
          "logIndex": "0x1d6",
          "removed": false
        }
      ],
      "logsBloom": "0x00000000000000000000000000000000000000000000000000000000000000000000000000000000000000000000000000000000000000000000000000000000000000000000000000000008000000000000000000000000000000000000000000400000020000000000000000000800000000000000000000000010000000000100000008000000000000000000000000000000000000000000000000000000000000000000000000000000000000000000000000000000000100000000000000000002000000000000000000000000000000008000000000000010000020000000000000000000000000000000000000000000000000000000000000000000",
      "type": "0x2",
      "transactionHash": "0x93c51288a6a97a8e363e801bfcf6163680a95c6764868deb35ab6c417cf77294",
      "transactionIndex": "0x81",
      "blockHash": "0x85c0d0fdc706c8f52d367aaed0c87980dce745acac0e3c67e416ebafc24bc3e7",
      "blockNumber": "0x9ea15a",
      "gasUsed": "0x87bb",
      "effectiveGasPrice": "0x2a6c61",
      "from": "0x993461bbf7e553eb5bd1f5248a72b524c4a3b15d",
      "to": "0xbb46678a1f6c527bd79ecfbf85332b8ae83ceaf1",
      "contractAddress": null
    },
    {
      "status": "0x1",
      "cumulativeGasUsed": "0x126738b",
      "logs": [
        {
          "address": "0xbb46678a1f6c527bd79ecfbf85332b8ae83ceaf1",
          "topics": [
            "0xddf252ad1be2c89b69c2b068fc378daa952ba7f163c4a11628f55a4df523b3ef",
            "0x0000000000000000000000000000000000000000000000000000000000000000",
            "0x000000000000000000000000f68d9e0faa751ad61e0ed70852798bf9d9c04bf7"
          ],
          "data": "0x000000000000000000000000000000000000000000034f086f3b33b684000000",
          "blockHash": "0x1c88236867391d7c044522cbd7083a6d4c7c3c7079826a453c2c90e850e8f348",
          "blockNumber": "0x9ea15b",
          "blockTimestamp": "0x69aabc2c",
          "transactionHash": "0x9c511653584f8b563e6c41e6b90d9f8e98efcee174a10134b57ee0f6fafb4c4e",
          "transactionIndex": "0x6b",
          "logIndex": "0x173",
          "removed": false
        }
      ],
      "logsBloom": "0x00000000000000000000000000000000000000000000000000000000000000800000000000000000000000000000000000000000000000000000000000000000000000000000000000000008000000000000000000000000000000000000000000000000020000000000000000000800000000000000000000000010000000000100000008000000000000000000000000000000000000000000000000000000000000000000000000000000000000000400000000000000000000000000000000000002000000000000000000000001000000008000000000000000000020000000000000000000000000000000000000000000000000000000000000000000",
      "type": "0x2",
      "transactionHash": "0x9c511653584f8b563e6c41e6b90d9f8e98efcee174a10134b57ee0f6fafb4c4e",
      "transactionIndex": "0x6b",
      "blockHash": "0x1c88236867391d7c044522cbd7083a6d4c7c3c7079826a453c2c90e850e8f348",
      "blockNumber": "0x9ea15b",
      "gasUsed": "0x87bb",
      "effectiveGasPrice": "0x2a471a",
      "from": "0x993461bbf7e553eb5bd1f5248a72b524c4a3b15d",
      "to": "0xbb46678a1f6c527bd79ecfbf85332b8ae83ceaf1",
      "contractAddress": null
    },
    {
      "status": "0x1",
      "cumulativeGasUsed": "0x1cf3ec8",
      "logs": [
        {
          "address": "0xbb46678a1f6c527bd79ecfbf85332b8ae83ceaf1",
          "topics": [
            "0xddf252ad1be2c89b69c2b068fc378daa952ba7f163c4a11628f55a4df523b3ef",
            "0x0000000000000000000000000000000000000000000000000000000000000000",
            "0x00000000000000000000000010db2e70118e5fbeda30391ec957e608c9e4517e"
          ],
          "data": "0x000000000000000000000000000000000000000000034f086f3b33b684000000",
          "blockHash": "0xcb0a794eaf667a5bcceede0a9620ff852467d53999fea3fb440f0b9728c0623e",
          "blockNumber": "0x9ea15c",
          "blockTimestamp": "0x69aabc44",
          "transactionHash": "0x73c04d3f8b93b17073aad70a2040b3d54bade2592c10be782ab04d47deca2c66",
          "transactionIndex": "0xc5",
          "logIndex": "0x211",
          "removed": false
        }
      ],
      "logsBloom": "0x00000000000000000000000000000000000000000000000000000000000000000000000000000000000000000000000000000000000000000000000000000000000000000000000000000008000000000000000000000000000000000000000000000000020000000000000000000800000000000000000000000010000000000100000008000000000000000000000000000000000000000000000000000000000000000000000000000000000000000000000000000000000000000000000000000002000000000000000041000000000000008000000000000000000020000000000000000000000080000000000000000000000000000000000000000000",
      "type": "0x2",
      "transactionHash": "0x73c04d3f8b93b17073aad70a2040b3d54bade2592c10be782ab04d47deca2c66",
      "transactionIndex": "0xc5",
      "blockHash": "0xcb0a794eaf667a5bcceede0a9620ff852467d53999fea3fb440f0b9728c0623e",
      "blockNumber": "0x9ea15c",
      "gasUsed": "0x87bb",
      "effectiveGasPrice": "0x29cb7a",
      "from": "0x993461bbf7e553eb5bd1f5248a72b524c4a3b15d",
      "to": "0xbb46678a1f6c527bd79ecfbf85332b8ae83ceaf1",
      "contractAddress": null
    },
    {
      "status": "0x1",
      "cumulativeGasUsed": "0x18d5f47",
      "logs": [
        {
          "address": "0xbb46678a1f6c527bd79ecfbf85332b8ae83ceaf1",
          "topics": [
            "0x8c5be1e5ebec7d5bd14f71427d1e84f3dd0314c0f7b2291e5b200ac8c7c3b925",
            "0x000000000000000000000000474b4e7fd1a143edea6b77aa845f429d443e6410",
            "0x000000000000000000000000cb275374df701324033958067d3bf1aacc7551bd"
          ],
          "data": "0x000000000000000000000000000000000000000000034f086f3b33b684000000",
          "blockHash": "0xbdb74786c7ac1a38467b4e841b4c614967b4ec17ec6ea12f54720cc96ac4faef",
          "blockNumber": "0x9ea15d",
          "blockTimestamp": "0x69aabc50",
          "transactionHash": "0x1c6519cf544e779842a4451d89dde907483b69bbab505c1e008a9c40ae4f2765",
          "transactionIndex": "0xaa",
          "logIndex": "0x1e5",
          "removed": false
        }
      ],
      "logsBloom": "0x00000000000000000000000000000000000000000000000000000000000001000000000000000000000000000000000000000000000000000000000000200000000000000000000000000000000000000000000000000000000000000000000000400000000000000000000000000000000000000000000000000000000000000100010008000000000000000000000004000000000000000000000000000000020000000000000000000000000000000000000000000000000100000000000000000000000000000000000000000000000000008000000000000010000000000010000000000000000000000000000000000000000000000000000000000000",
      "type": "0x2",
      "transactionHash": "0x1c6519cf544e779842a4451d89dde907483b69bbab505c1e008a9c40ae4f2765",
      "transactionIndex": "0xaa",
      "blockHash": "0xbdb74786c7ac1a38467b4e841b4c614967b4ec17ec6ea12f54720cc96ac4faef",
      "blockNumber": "0x9ea15d",
      "gasUsed": "0xb768",
      "effectiveGasPrice": "0x2a0e3d",
      "from": "0x474b4e7fd1a143edea6b77aa845f429d443e6410",
      "to": "0xbb46678a1f6c527bd79ecfbf85332b8ae83ceaf1",
      "contractAddress": null
    },
    {
      "status": "0x1",
      "cumulativeGasUsed": "0x239a6e1",
      "logs": [
        {
          "address": "0xbb46678a1f6c527bd79ecfbf85332b8ae83ceaf1",
          "topics": [
            "0xddf252ad1be2c89b69c2b068fc378daa952ba7f163c4a11628f55a4df523b3ef",
            "0x000000000000000000000000474b4e7fd1a143edea6b77aa845f429d443e6410",
            "0x000000000000000000000000cb275374df701324033958067d3bf1aacc7551bd"
          ],
          "data": "0x000000000000000000000000000000000000000000034f086f3b33b684000000",
          "blockHash": "0x9674416d1f0d09f76305d0521171ac7b45d1b9cae51779891cb576b44c6f7b2e",
          "blockNumber": "0x9ea15e",
          "blockTimestamp": "0x69aabc68",
          "transactionHash": "0x1a0d44dbc546beda12784f5f57a6151ae58983feb5d56c1d32137c98a7e81d10",
          "transactionIndex": "0xc0",
          "logIndex": "0x290",
          "removed": false
        },
        {
          "address": "0xcb275374df701324033958067d3bf1aacc7551bd",
          "topics": [
            "0x30f6180e248310ab0c789da3026fbba7390872be072cfc5b3c20733f3a980c9e",
            "0x000000000000000000000000474b4e7fd1a143edea6b77aa845f429d443e6410",
            "0x000000000000000000000000bb46678a1f6c527bd79ecfbf85332b8ae83ceaf1"
          ],
          "data": "0x000000000000000000000000000000000000000000034f086f3b33b684000000",
          "blockHash": "0x9674416d1f0d09f76305d0521171ac7b45d1b9cae51779891cb576b44c6f7b2e",
          "blockNumber": "0x9ea15e",
          "blockTimestamp": "0x69aabc68",
          "transactionHash": "0x1a0d44dbc546beda12784f5f57a6151ae58983feb5d56c1d32137c98a7e81d10",
          "transactionIndex": "0xc0",
          "logIndex": "0x291",
          "removed": false
        }
      ],
      "logsBloom": "0x00000000000000000000000000000000000000000000000000000000000001000000000000020000000000000000000000000000000000000000800000000000000000000000000000000008000000000000000000000000000000000000000000400000000000000080000000000000000000000000000000000010000000000100010008000001000000000000000004000000000000000000000000000000000000000000000000000000000000000000000040000000000100000000000000000002000001000000000000000001000800008000000000000010000000000000000000000000000000000000000000000000000000000000000400000000",
      "type": "0x2",
      "transactionHash": "0x1a0d44dbc546beda12784f5f57a6151ae58983feb5d56c1d32137c98a7e81d10",
      "transactionIndex": "0xc0",
      "blockHash": "0x9674416d1f0d09f76305d0521171ac7b45d1b9cae51779891cb576b44c6f7b2e",
      "blockNumber": "0x9ea15e",
      "gasUsed": "0x1eba2",
      "effectiveGasPrice": "0x2a0b21",
      "from": "0x474b4e7fd1a143edea6b77aa845f429d443e6410",
      "to": "0xcb275374df701324033958067d3bf1aacc7551bd",
      "contractAddress": null
    },
    {
      "status": "0x1",
      "cumulativeGasUsed": "0x12016b8",
      "logs": [
        {
          "address": "0xbb46678a1f6c527bd79ecfbf85332b8ae83ceaf1",
          "topics": [
            "0x8c5be1e5ebec7d5bd14f71427d1e84f3dd0314c0f7b2291e5b200ac8c7c3b925",
            "0x000000000000000000000000f68d9e0faa751ad61e0ed70852798bf9d9c04bf7",
            "0x000000000000000000000000cb275374df701324033958067d3bf1aacc7551bd"
          ],
          "data": "0x000000000000000000000000000000000000000000034f086f3b33b684000000",
          "blockHash": "0x382c49a016fddf44415fb1073f4bc343150e726868d75393b6835d1a4c7f50d0",
          "blockNumber": "0x9ea15f",
          "blockTimestamp": "0x69aabc74",
          "transactionHash": "0xcb3704a18df676cd1054099cd3224e4f8e1934c03631c8be862412399c5bacd6",
          "transactionIndex": "0x76",
          "logIndex": "0x150",
          "removed": false
        }
      ],
      "logsBloom": "0x00000000000000000000000000000000000000000000000000000000000001800000000000000000000000000000000000000000000000000000000000200000000000000000000000000000000000000000000000000000000000000000000000000000000000000000000000000000000000000000000000000000000000000100010008000000000000000000000004000000000000000000000000000000020000000000000000000000000000000400000000000000000000000000000000000000000000000000000000000001000000008000000000000000000000000010000000000000000000000000000000000000000000000000000000000000",
      "type": "0x2",
      "transactionHash": "0xcb3704a18df676cd1054099cd3224e4f8e1934c03631c8be862412399c5bacd6",
      "transactionIndex": "0x76",
      "blockHash": "0x382c49a016fddf44415fb1073f4bc343150e726868d75393b6835d1a4c7f50d0",
      "blockNumber": "0x9ea15f",
      "gasUsed": "0xb768",
      "effectiveGasPrice": "0x2b4b4c",
      "from": "0xf68d9e0faa751ad61e0ed70852798bf9d9c04bf7",
      "to": "0xbb46678a1f6c527bd79ecfbf85332b8ae83ceaf1",
      "contractAddress": null
    },
    {
      "status": "0x1",
      "cumulativeGasUsed": "0x18b137d",
      "logs": [
        {
          "address": "0xbb46678a1f6c527bd79ecfbf85332b8ae83ceaf1",
          "topics": [
            "0xddf252ad1be2c89b69c2b068fc378daa952ba7f163c4a11628f55a4df523b3ef",
            "0x000000000000000000000000f68d9e0faa751ad61e0ed70852798bf9d9c04bf7",
            "0x000000000000000000000000cb275374df701324033958067d3bf1aacc7551bd"
          ],
          "data": "0x000000000000000000000000000000000000000000034f086f3b33b684000000",
          "blockHash": "0x266ce71457d9525b3dd51d3574a60202d881ac7b0a9b5f7549b4299d33545335",
          "blockNumber": "0x9ea160",
          "blockTimestamp": "0x69aabc80",
          "transactionHash": "0xb5ae29505a7c63bdffb400c1e34eefef11c7e8e5d257bb7a570aa23b0ab9fa6e",
          "transactionIndex": "0x92",
          "logIndex": "0x1d5",
          "removed": false
        },
        {
          "address": "0xcb275374df701324033958067d3bf1aacc7551bd",
          "topics": [
            "0x30f6180e248310ab0c789da3026fbba7390872be072cfc5b3c20733f3a980c9e",
            "0x000000000000000000000000f68d9e0faa751ad61e0ed70852798bf9d9c04bf7",
            "0x000000000000000000000000bb46678a1f6c527bd79ecfbf85332b8ae83ceaf1"
          ],
          "data": "0x000000000000000000000000000000000000000000034f086f3b33b684000000",
          "blockHash": "0x266ce71457d9525b3dd51d3574a60202d881ac7b0a9b5f7549b4299d33545335",
          "blockNumber": "0x9ea160",
          "blockTimestamp": "0x69aabc80",
          "transactionHash": "0xb5ae29505a7c63bdffb400c1e34eefef11c7e8e5d257bb7a570aa23b0ab9fa6e",
          "transactionIndex": "0x92",
          "logIndex": "0x1d6",
          "removed": false
        }
      ],
      "logsBloom": "0x00000000000000000000000000000000000000000000000000000000000001800000000000020000000000000000000000000000000000000000800000000000000000000000000000000008000000000000000000000000000000000000000000000000000000000080000000000000000000000000000000000010000000000100010008000001000000000000000004000000000000000000000000000000000000000000000000000000000000000400000040000000000000000000000000000002000001000000000000000001000800008000000000000000000000000000000000000000000000000000000000000000000000000000000400000000",
      "type": "0x2",
      "transactionHash": "0xb5ae29505a7c63bdffb400c1e34eefef11c7e8e5d257bb7a570aa23b0ab9fa6e",
      "transactionIndex": "0x92",
      "blockHash": "0x266ce71457d9525b3dd51d3574a60202d881ac7b0a9b5f7549b4299d33545335",
      "blockNumber": "0x9ea160",
      "gasUsed": "0x1a8d6",
      "effectiveGasPrice": "0x2af9c7",
      "from": "0xf68d9e0faa751ad61e0ed70852798bf9d9c04bf7",
      "to": "0xcb275374df701324033958067d3bf1aacc7551bd",
      "contractAddress": null
    },
    {
      "status": "0x1",
      "cumulativeGasUsed": "0x1084da7",
      "logs": [
        {
          "address": "0xbb46678a1f6c527bd79ecfbf85332b8ae83ceaf1",
          "topics": [
            "0x8c5be1e5ebec7d5bd14f71427d1e84f3dd0314c0f7b2291e5b200ac8c7c3b925",
            "0x00000000000000000000000010db2e70118e5fbeda30391ec957e608c9e4517e",
            "0x000000000000000000000000cb275374df701324033958067d3bf1aacc7551bd"
          ],
          "data": "0x000000000000000000000000000000000000000000034f086f3b33b684000000",
          "blockHash": "0x35f6dce8f186c267d6786bf720bf9eae4523cd0eca0d73ab972a957f2a8e425a",
          "blockNumber": "0x9ea161",
          "blockTimestamp": "0x69aabc8c",
          "transactionHash": "0x519d65ab0976a6a8ca8bad81601721b4d2029b7a61d74fc3b40e37e3828d5bc0",
          "transactionIndex": "0x70",
          "logIndex": "0x137",
          "removed": false
        }
      ],
      "logsBloom": "0x00000000000000000000000000000000000000000000000000000000000001000000000000000000000000000000000000000000000000000000000000200000000000000000000000000000000000000000000000000000000000000000000000000000000000000000000000000000000000000000000000000000000000000100010008000000000000000000000004000000000000000000000000000000020000000000000000000000000000000000000000000000000000000000000000000000000000000000000041000000000000008000000000000000000000000010000000000000000080000000000000000000000000000000000000000000",
      "type": "0x2",
      "transactionHash": "0x519d65ab0976a6a8ca8bad81601721b4d2029b7a61d74fc3b40e37e3828d5bc0",
      "transactionIndex": "0x70",
      "blockHash": "0x35f6dce8f186c267d6786bf720bf9eae4523cd0eca0d73ab972a957f2a8e425a",
      "blockNumber": "0x9ea161",
      "gasUsed": "0xb768",
      "effectiveGasPrice": "0x2aec69",
      "from": "0x10db2e70118e5fbeda30391ec957e608c9e4517e",
      "to": "0xbb46678a1f6c527bd79ecfbf85332b8ae83ceaf1",
      "contractAddress": null
    },
    {
      "status": "0x1",
      "cumulativeGasUsed": "0x1586ab7",
      "logs": [
        {
          "address": "0xbb46678a1f6c527bd79ecfbf85332b8ae83ceaf1",
          "topics": [
            "0xddf252ad1be2c89b69c2b068fc378daa952ba7f163c4a11628f55a4df523b3ef",
            "0x00000000000000000000000010db2e70118e5fbeda30391ec957e608c9e4517e",
            "0x000000000000000000000000cb275374df701324033958067d3bf1aacc7551bd"
          ],
          "data": "0x000000000000000000000000000000000000000000034f086f3b33b684000000",
          "blockHash": "0x5b73460b10231719a2112bc02c95a87f5fe95c9881737b8a95c3d14198527fc2",
          "blockNumber": "0x9ea162",
          "blockTimestamp": "0x69aabc98",
          "transactionHash": "0xa91b67b210c4f4430d18abe05a8a61110cc0dbf80c67c1ba7dc5e2df28a17fd5",
          "transactionIndex": "0x84",
          "logIndex": "0x1af",
          "removed": false
        },
        {
          "address": "0xcb275374df701324033958067d3bf1aacc7551bd",
          "topics": [
            "0x30f6180e248310ab0c789da3026fbba7390872be072cfc5b3c20733f3a980c9e",
            "0x00000000000000000000000010db2e70118e5fbeda30391ec957e608c9e4517e",
            "0x000000000000000000000000bb46678a1f6c527bd79ecfbf85332b8ae83ceaf1"
          ],
          "data": "0x000000000000000000000000000000000000000000034f086f3b33b684000000",
          "blockHash": "0x5b73460b10231719a2112bc02c95a87f5fe95c9881737b8a95c3d14198527fc2",
          "blockNumber": "0x9ea162",
          "blockTimestamp": "0x69aabc98",
          "transactionHash": "0xa91b67b210c4f4430d18abe05a8a61110cc0dbf80c67c1ba7dc5e2df28a17fd5",
          "transactionIndex": "0x84",
          "logIndex": "0x1b0",
          "removed": false
        }
      ],
      "logsBloom": "0x00000000000000000000000000000000000000000000000000000000000001000000000000020000000000000000000000000000000000000000800000000000000000000000000000000008000000000000000000000000000000000000000000000000000000000080000000000000000000000000000000000010000000000100010008000001000000000000000004000000000000000000000000000000000000000000000000000000000000000000000040000000000000000000000000000002000001000000000041000001000800008000000000000000000000000000000000000000000080000000000000000000000000000000000400000000",
      "type": "0x2",
      "transactionHash": "0xa91b67b210c4f4430d18abe05a8a61110cc0dbf80c67c1ba7dc5e2df28a17fd5",
      "transactionIndex": "0x84",
      "blockHash": "0x5b73460b10231719a2112bc02c95a87f5fe95c9881737b8a95c3d14198527fc2",
      "blockNumber": "0x9ea162",
      "gasUsed": "0x1a8d6",
      "effectiveGasPrice": "0x2ab92c",
      "from": "0x10db2e70118e5fbeda30391ec957e608c9e4517e",
      "to": "0xcb275374df701324033958067d3bf1aacc7551bd",
      "contractAddress": null
    }
  ],
  "libraries": [],
  "pending": [],
  "returns": {},
  "timestamp": 1772797081013,
  "chain": 11155111,
  "commit": "bea2e8d"
}