{
  "transactions": [
    {
      "hash": "0xd8d8c9b0e80c2ad1ff58257d6080e77a7b1d13c9316fc00d2fc98c2b1fa1adda",
      "transactionType": "CALL",
      "contractName": null,
      "contractAddress": "0xbb46678a1f6c527bd79ecfbf85332b8ae83ceaf1",
      "function": "mint(address,uint256)",
      "arguments": [
        "0x474B4E7FD1A143eDea6b77aa845F429D443E6410",
        "4000000000000000000000000"
      ],
      "transaction": {
        "from": "0x993461bbf7e553eb5bd1f5248a72b524c4a3b15d",
        "to": "0xbb46678a1f6c527bd79ecfbf85332b8ae83ceaf1",
        "gas": "0xc681",
        "value": "0x0",
        "input": "0x40c10f19000000000000000000000000474b4e7fd1a143edea6b77aa845f429d443e6410000000000000000000000000000000000000000000034f086f3b33b684000000",
        "nonce": "0x614",
        "chainId": "0xaa36a7"
      },
      "additionalContracts": [],
      "isFixedGasLimit": false
    },
    {
      "hash": "0xdf70935b7d0e39b3b1be4744dc7c041f2f44da94af8ee2b7f8bb20f13e7b3e7e",
      "transactionType": "CALL",
      "contractName": null,
      "contractAddress": "0xbb46678a1f6c527bd79ecfbf85332b8ae83ceaf1",
      "function": "mint(address,uint256)",
      "arguments": [
        "0xf68D9e0fAa751AD61e0ED70852798bF9D9C04bF7",
        "4000000000000000000000000"
      ],
      "transaction": {
        "from": "0x993461bbf7e553eb5bd1f5248a72b524c4a3b15d",
        "to": "0xbb46678a1f6c527bd79ecfbf85332b8ae83ceaf1",
        "gas": "0xc681",
        "value": "0x0",
        "input": "0x40c10f19000000000000000000000000f68d9e0faa751ad61e0ed70852798bf9d9c04bf7000000000000000000000000000000000000000000034f086f3b33b684000000",
        "nonce": "0x615",
        "chainId": "0xaa36a7"
      },
      "additionalContracts": [],
      "isFixedGasLimit": false
    },
    {
      "hash": "0x5e544a6e598fd8d7f709cb8cc615648b8f67b5ed2c3c57888d39403fdf811875",
      "transactionType": "CALL",
      "contractName": null,
      "contractAddress": "0xbb46678a1f6c527bd79ecfbf85332b8ae83ceaf1",
      "function": "mint(address,uint256)",
      "arguments": [
        "0x10Db2E70118e5FBeDa30391ec957e608C9E4517E",
        "4000000000000000000000000"
      ],
      "transaction": {
        "from": "0x993461bbf7e553eb5bd1f5248a72b524c4a3b15d",
        "to": "0xbb46678a1f6c527bd79ecfbf85332b8ae83ceaf1",
        "gas": "0xc681",
        "value": "0x0",
        "input": "0x40c10f1900000000000000000000000010db2e70118e5fbeda30391ec957e608c9e4517e000000000000000000000000000000000000000000034f086f3b33b684000000",
        "nonce": "0x616",
        "chainId": "0xaa36a7"
      },
      "additionalContracts": [],
      "isFixedGasLimit": false
    },
    {
      "hash": "0xfd3a85731971e048542a8f77dbf80b6f18220e155768089282c9bdf6a8a91509",
      "transactionType": "CALL",
      "contractName": null,
      "contractAddress": "0xbb46678a1f6c527bd79ecfbf85332b8ae83ceaf1",
      "function": "approve(address,uint256)",
      "arguments": [
        "0xC6b4E4C2540D649BF655ADb352F910F50026aF1F",
        "4000000000000000000000000"
      ],
      "transaction": {
        "from": "0x474b4e7fd1a143edea6b77aa845f429d443e6410",
        "to": "0xbb46678a1f6c527bd79ecfbf85332b8ae83ceaf1",
        "gas": "0xfd42",
        "value": "0x0",
        "input": "0x095ea7b3000000000000000000000000c6b4e4c2540d649bf655adb352f910f50026af1f000000000000000000000000000000000000000000034f086f3b33b684000000",
        "nonce": "0x76",
        "chainId": "0xaa36a7"
      },
      "additionalContracts": [],
      "isFixedGasLimit": false
    },
    {
      "hash": "0x40a918dc6304a23343dc78d93ff8262e759b20d57749ec4f6b30571c3955c306",
      "transactionType": "CALL",
      "contractName": "MarginVault",
      "contractAddress": "0xc6b4e4c2540d649bf655adb352f910f50026af1f",
      "function": "depositMargin(bytes32,address,uint256)",
      "arguments": [
        "0x000000000000000000000000474b4e7fd1a143edea6b77aa845f429d443e6410",
        "0xbb46678a1F6C527bD79eCFBF85332B8Ae83ceaf1",
        "4000000000000000000000000"
      ],
      "transaction": {
        "from": "0x474b4e7fd1a143edea6b77aa845f429d443e6410",
        "to": "0xc6b4e4c2540d649bf655adb352f910f50026af1f",
        "gas": "0x2cf03",
        "value": "0x0",
        "input": "0x6812d315000000000000000000000000474b4e7fd1a143edea6b77aa845f429d443e6410000000000000000000000000bb46678a1f6c527bd79ecfbf85332b8ae83ceaf1000000000000000000000000000000000000000000034f086f3b33b684000000",
        "nonce": "0x77",
        "chainId": "0xaa36a7"
      },
      "additionalContracts": [],
      "isFixedGasLimit": false
    },
    {
      "hash": "0x6865dca2038db9cf816c8336f3acfd5921624a7e65cba9314690ef9f7d7367c1",
      "transactionType": "CALL",
      "contractName": null,
      "contractAddress": "0xbb46678a1f6c527bd79ecfbf85332b8ae83ceaf1",
      "function": "approve(address,uint256)",
      "arguments": [
        "0xC6b4E4C2540D649BF655ADb352F910F50026aF1F",
        "4000000000000000000000000"
      ],
      "transaction": {
        "from": "0xf68d9e0faa751ad61e0ed70852798bf9d9c04bf7",
        "to": "0xbb46678a1f6c527bd79ecfbf85332b8ae83ceaf1",
        "gas": "0xfd42",
        "value": "0x0",
        "input": "0x095ea7b3000000000000000000000000c6b4e4c2540d649bf655adb352f910f50026af1f000000000000000000000000000000000000000000034f086f3b33b684000000",
        "nonce": "0x6f",
        "chainId": "0xaa36a7"
      },
      "additionalContracts": [],
      "isFixedGasLimit": false
    },
    {
      "hash": "0xec3dbfa3f1ed7e21664f962ea24c8551a13b2e4cdc606c7539cba4d35ad68373",
      "transactionType": "CALL",
      "contractName": "MarginVault",
      "contractAddress": "0xc6b4e4c2540d649bf655adb352f910f50026af1f",
      "function": "depositMargin(bytes32,address,uint256)",
      "arguments": [
        "0x000000000000000000000000f68d9e0faa751ad61e0ed70852798bf9d9c04bf7",
        "0xbb46678a1F6C527bD79eCFBF85332B8Ae83ceaf1",
        "4000000000000000000000000"
      ],
      "transaction": {
        "from": "0xf68d9e0faa751ad61e0ed70852798bf9d9c04bf7",
        "to": "0xc6b4e4c2540d649bf655adb352f910f50026af1f",
        "gas": "0x24acd",
        "value": "0x0",
        "input": "0x6812d315000000000000000000000000f68d9e0faa751ad61e0ed70852798bf9d9c04bf7000000000000000000000000bb46678a1f6c527bd79ecfbf85332b8ae83ceaf1000000000000000000000000000000000000000000034f086f3b33b684000000",
        "nonce": "0x70",
        "chainId": "0xaa36a7"
      },
      "additionalContracts": [],
      "isFixedGasLimit": false
    },
    {
      "hash": "0x2d76e84908e37df55abf651970066e5ab5e8a121e8c091e56eefccbb7b30e170",
      "transactionType": "CALL",
      "contractName": null,
      "contractAddress": "0xbb46678a1f6c527bd79ecfbf85332b8ae83ceaf1",
      "function": "approve(address,uint256)",
      "arguments": [
        "0xC6b4E4C2540D649BF655ADb352F910F50026aF1F",
        "4000000000000000000000000"
      ],
      "transaction": {
        "from": "0x10db2e70118e5fbeda30391ec957e608c9e4517e",
        "to": "0xbb46678a1f6c527bd79ecfbf85332b8ae83ceaf1",
        "gas": "0xfd42",
        "value": "0x0",
        "input": "0x095ea7b3000000000000000000000000c6b4e4c2540d649bf655adb352f910f50026af1f000000000000000000000000000000000000000000034f086f3b33b684000000",
        "nonce": "0x3c",
        "chainId": "0xaa36a7"
      },
      "additionalContracts": [],
      "isFixedGasLimit": false
    },
    {
      "hash": "0xd7801b14511304a6d9e31cd4605c3187d739b7824ead68bfc9c5ef8e60fd5065",
      "transactionType": "CALL",
      "contractName": "MarginVault",
      "contractAddress": "0xc6b4e4c2540d649bf655adb352f910f50026af1f",
      "function": "depositMargin(bytes32,address,uint256)",
      "arguments": [
        "0x00000000000000000000000010db2e70118e5fbeda30391ec957e608c9e4517e",
        "0xbb46678a1F6C527bD79eCFBF85332B8Ae83ceaf1",
        "4000000000000000000000000"
      ],
      "transaction": {
        "from": "0x10db2e70118e5fbeda30391ec957e608c9e4517e",
        "to": "0xc6b4e4c2540d649bf655adb352f910f50026af1f",
        "gas": "0x24acd",
        "value": "0x0",
        "input": "0x6812d31500000000000000000000000010db2e70118e5fbeda30391ec957e608c9e4517e000000000000000000000000bb46678a1f6c527bd79ecfbf85332b8ae83ceaf1000000000000000000000000000000000000000000034f086f3b33b684000000",
        "nonce": "0x3d",
        "chainId": "0xaa36a7"
      },
      "additionalContracts": [],
      "isFixedGasLimit": false
    }
  ],
  "receipts": [
    {
      "status": "0x1",
      "cumulativeGasUsed": "0x14e0b36",
      "logs": [
        {
          "address": "0xbb46678a1f6c527bd79ecfbf85332b8ae83ceaf1",
          "topics": [
            "0xddf252ad1be2c89b69c2b068fc378daa952ba7f163c4a11628f55a4df523b3ef",
            "0x0000000000000000000000000000000000000000000000000000000000000000",
            "0x000000000000000000000000474b4e7fd1a143edea6b77aa845f429d443e6410"
          ],
          "data": "0x000000000000000000000000000000000000000000034f086f3b33b684000000",
          "blockHash": "0xa267441637896e8d552090c5de1bf3b2813a31a37a045ccaf1c5191412f550e9",
          "blockNumber": "0x9ed548",
          "blockTimestamp": "0x69ad8f44",
          "transactionHash": "0xd8d8c9b0e80c2ad1ff58257d6080e77a7b1d13c9316fc00d2fc98c2b1fa1adda",
          "transactionIndex": "0x74",
          "logIndex": "0x19d",
          "removed": false
        }
      ],
      "logsBloom": "0x00000000000000000000000000000000000000000000000000000000000000000000000000000000000000000000000000000000000000000000000000000000000000000000000000000008000000000000000000000000000000000000000000400000020000000000000000000800000000000000000000000010000000000100000008000000000000000000000000000000000000000000000000000000000000000000000000000000000000000000000000000000000100000000000000000002000000000000000000000000000000008000000000000010000020000000000000000000000000000000000000000000000000000000000000000000",
      "type": "0x2",
      "transactionHash": "0xd8d8c9b0e80c2ad1ff58257d6080e77a7b1d13c9316fc00d2fc98c2b1fa1adda",
      "transactionIndex": "0x74",
      "blockHash": "0xa267441637896e8d552090c5de1bf3b2813a31a37a045ccaf1c5191412f550e9",
      "blockNumber": "0x9ed548",
      "gasUsed": "0x87bb",
      "effectiveGasPrice": "0x889f60",
      "from": "0x993461bbf7e553eb5bd1f5248a72b524c4a3b15d",
      "to": "0xbb46678a1f6c527bd79ecfbf85332b8ae83ceaf1",
      "contractAddress": null
    },
    {
      "status": "0x1",
      "cumulativeGasUsed": "0x13ddc00",
      "logs": [
        {
          "address": "0xbb46678a1f6c527bd79ecfbf85332b8ae83ceaf1",
          "topics": [
            "0xddf252ad1be2c89b69c2b068fc378daa952ba7f163c4a11628f55a4df523b3ef",
            "0x0000000000000000000000000000000000000000000000000000000000000000",
            "0x000000000000000000000000f68d9e0faa751ad61e0ed70852798bf9d9c04bf7"
          ],
          "data": "0x000000000000000000000000000000000000000000034f086f3b33b684000000",
          "blockHash": "0x664c67b5eee3a26951810be800948c3ef63f3fffab283b33e069ba0c812f5216",
          "blockNumber": "0x9ed549",
          "blockTimestamp": "0x69ad8f50",
          "transactionHash": "0xdf70935b7d0e39b3b1be4744dc7c041f2f44da94af8ee2b7f8bb20f13e7b3e7e",
          "transactionIndex": "0x63",
          "logIndex": "0x16b",
          "removed": false
        }
      ],
      "logsBloom": "0x00000000000000000000000000000000000000000000000000000000000000800000000000000000000000000000000000000000000000000000000000000000000000000000000000000008000000000000000000000000000000000000000000000000020000000000000000000800000000000000000000000010000000000100000008000000000000000000000000000000000000000000000000000000000000000000000000000000000000000400000000000000000000000000000000000002000000000000000000000001000000008000000000000000000020000000000000000000000000000000000000000000000000000000000000000000",
      "type": "0x2",
      "transactionHash": "0xdf70935b7d0e39b3b1be4744dc7c041f2f44da94af8ee2b7f8bb20f13e7b3e7e",
      "transactionIndex": "0x63",
      "blockHash": "0x664c67b5eee3a26951810be800948c3ef63f3fffab283b33e069ba0c812f5216",
      "blockNumber": "0x9ed549",
      "gasUsed": "0x87bb",
      "effectiveGasPrice": "0x889f60",
      "from": "0x993461bbf7e553eb5bd1f5248a72b524c4a3b15d",
      "to": "0xbb46678a1f6c527bd79ecfbf85332b8ae83ceaf1",
      "contractAddress": null
    },
    {
      "status": "0x1",
      "cumulativeGasUsed": "0x13698bd",
      "logs": [
        {
          "address": "0xbb46678a1f6c527bd79ecfbf85332b8ae83ceaf1",
          "topics": [
            "0xddf252ad1be2c89b69c2b068fc378daa952ba7f163c4a11628f55a4df523b3ef",
            "0x0000000000000000000000000000000000000000000000000000000000000000",
            "0x00000000000000000000000010db2e70118e5fbeda30391ec957e608c9e4517e"
          ],
          "data": "0x000000000000000000000000000000000000000000034f086f3b33b684000000",
          "blockHash": "0xb6d762dd32e7b338db929ecc749ba6e167091a0ffe834b7f835bb2d364e751cc",
          "blockNumber": "0x9ed54a",
          "blockTimestamp": "0x69ad8f5c",
          "transactionHash": "0x5e544a6e598fd8d7f709cb8cc615648b8f67b5ed2c3c57888d39403fdf811875",
          "transactionIndex": "0x78",
          "logIndex": "0x194",
          "removed": false
        }
      ],
      "logsBloom": "0x00000000000000000000000000000000000000000000000000000000000000000000000000000000000000000000000000000000000000000000000000000000000000000000000000000008000000000000000000000000000000000000000000000000020000000000000000000800000000000000000000000010000000000100000008000000000000000000000000000000000000000000000000000000000000000000000000000000000000000000000000000000000000000000000000000002000000000000000041000000000000008000000000000000000020000000000000000000000080000000000000000000000000000000000000000000",
      "type": "0x2",
      "transactionHash": "0x5e544a6e598fd8d7f709cb8cc615648b8f67b5ed2c3c57888d39403fdf811875",
      "transactionIndex": "0x78",
      "blockHash": "0xb6d762dd32e7b338db929ecc749ba6e167091a0ffe834b7f835bb2d364e751cc",
      "blockNumber": "0x9ed54a",
      "gasUsed": "0x87bb",
      "effectiveGasPrice": "0x889f61",
      "from": "0x993461bbf7e553eb5bd1f5248a72b524c4a3b15d",
      "to": "0xbb46678a1f6c527bd79ecfbf85332b8ae83ceaf1",
      "contractAddress": null
    },
    {
      "status": "0x1",
      "cumulativeGasUsed": "0x10e840d",
      "logs": [
        {
          "address": "0xbb46678a1f6c527bd79ecfbf85332b8ae83ceaf1",
          "topics": [
            "0x8c5be1e5ebec7d5bd14f71427d1e84f3dd0314c0f7b2291e5b200ac8c7c3b925",
            "0x000000000000000000000000474b4e7fd1a143edea6b77aa845f429d443e6410",
            "0x000000000000000000000000c6b4e4c2540d649bf655adb352f910f50026af1f"
          ],
          "data": "0x000000000000000000000000000000000000000000034f086f3b33b684000000",
          "blockHash": "0x95c1143ba32ffd06973a2f674fa7ac5fb18c9a0556987bc3e0ba4e22092e2349",
          "blockNumber": "0x9ed54b",
          "blockTimestamp": "0x69ad8f68",
          "transactionHash": "0xfd3a85731971e048542a8f77dbf80b6f18220e155768089282c9bdf6a8a91509",
          "transactionIndex": "0x71",
          "logIndex": "0x170",
          "removed": false
        }
      ],
      "logsBloom": "0x00000000000000000000000000000000000000000000000000000000000000000000000000000000000000000000000000000000000000000000000000200000000000000000000000000000000000000000000000000000000000000000000000440000000000000000000000000000000000000000000000000000000000000100000008000000000000000000000000000000000000080000000000000000020000000000000000000000000000000000000000000000000100000000000000000000000000000000000000000000000000008000000000000010000000000010000000000000000000000000000000020000000000000000000000000000",
      "type": "0x2",
      "transactionHash": "0xfd3a85731971e048542a8f77dbf80b6f18220e155768089282c9bdf6a8a91509",
      "transactionIndex": "0x71",
      "blockHash": "0x95c1143ba32ffd06973a2f674fa7ac5fb18c9a0556987bc3e0ba4e22092e2349",
      "blockNumber": "0x9ed54b",
      "gasUsed": "0xb75c",
      "effectiveGasPrice": "0x889f61",
      "from": "0x474b4e7fd1a143edea6b77aa845f429d443e6410",
      "to": "0xbb46678a1f6c527bd79ecfbf85332b8ae83ceaf1",
      "contractAddress": null
    },
    {
      "status": "0x1",
      "cumulativeGasUsed": "0x11719ea",
      "logs": [
        {
          "address": "0xbb46678a1f6c527bd79ecfbf85332b8ae83ceaf1",
          "topics": [
            "0xddf252ad1be2c89b69c2b068fc378daa952ba7f163c4a11628f55a4df523b3ef",
            "0x000000000000000000000000474b4e7fd1a143edea6b77aa845f429d443e6410",
            "0x000000000000000000000000c6b4e4c2540d649bf655adb352f910f50026af1f"
          ],
          "data": "0x000000000000000000000000000000000000000000034f086f3b33b684000000",
          "blockHash": "0x94a2a1a33f72672157e1d42da9255d410122aa767b4ec91cc09cbbd6b3d03f72",
          "blockNumber": "0x9ed54c",
          "blockTimestamp": "0x69ad8f74",
          "transactionHash": "0x40a918dc6304a23343dc78d93ff8262e759b20d57749ec4f6b30571c3955c306",
          "transactionIndex": "0x71",
          "logIndex": "0x162",
          "removed": false
        },
        {
          "address": "0xc6b4e4c2540d649bf655adb352f910f50026af1f",
          "topics": [
            "0x30f6180e248310ab0c789da3026fbba7390872be072cfc5b3c20733f3a980c9e",
            "0x000000000000000000000000474b4e7fd1a143edea6b77aa845f429d443e6410",
            "0x000000000000000000000000bb46678a1f6c527bd79ecfbf85332b8ae83ceaf1"
          ],
          "data": "0x000000000000000000000000000000000000000000034f086f3b33b684000000",
          "blockHash": "0x94a2a1a33f72672157e1d42da9255d410122aa767b4ec91cc09cbbd6b3d03f72",
          "blockNumber": "0x9ed54c",
          "blockTimestamp": "0x69ad8f74",
          "transactionHash": "0x40a918dc6304a23343dc78d93ff8262e759b20d57749ec4f6b30571c3955c306",
          "transactionIndex": "0x71",
          "logIndex": "0x163",
          "removed": false
        }
      ],
      "logsBloom": "0x00000000000000000000200000000000000000000000000000000000000000000000000000000000000000000000000000000000000000000000000000000000000000000000000000000008000000000000000000000000000000000000000000440000000000000000000000000000000000000000000000000010000000000100000008000001000000000000000000000000000000080000000000000000000000000000000000000000000000000000000040000000000100000000000000000002000003000000000000000001000800008000000000000010000000000000000000000000000000000000000000020000000000000000000400040000",
      "type": "0x2",
      "transactionHash": "0x40a918dc6304a23343dc78d93ff8262e759b20d57749ec4f6b30571c3955c306",
      "transactionIndex": "0x71",
      "blockHash": "0x94a2a1a33f72672157e1d42da9255d410122aa767b4ec91cc09cbbd6b3d03f72",
      "blockNumber": "0x9ed54c",
      "gasUsed": "0x1eba2",
      "effectiveGasPrice": "0x889f60",
      "from": "0x474b4e7fd1a143edea6b77aa845f429d443e6410",
      "to": "0xc6b4e4c2540d649bf655adb352f910f50026af1f",
      "contractAddress": null
    },
    {
      "status": "0x1",
      "cumulativeGasUsed": "0xf4959f",
      "logs": [
        {
          "address": "0xbb46678a1f6c527bd79ecfbf85332b8ae83ceaf1",
          "topics": [
            "0x8c5be1e5ebec7d5bd14f71427d1e84f3dd0314c0f7b2291e5b200ac8c7c3b925",
            "0x000000000000000000000000f68d9e0faa751ad61e0ed70852798bf9d9c04bf7",
            "0x000000000000000000000000c6b4e4c2540d649bf655adb352f910f50026af1f"
          ],
          "data": "0x000000000000000000000000000000000000000000034f086f3b33b684000000",
          "blockHash": "0xf7a9a40df9de528edad2938da3cd11ada88bf129a22fdfec406ff9c24669f53e",
          "blockNumber": "0x9ed54d",
          "blockTimestamp": "0x69ad8f80",
          "transactionHash": "0x6865dca2038db9cf816c8336f3acfd5921624a7e65cba9314690ef9f7d7367c1",
          "transactionIndex": "0x62",
          "logIndex": "0x154",
          "removed": false
        }
      ],
      "logsBloom": "0x00000000000000000000000000000000000000000000000000000000000000800000000000000000000000000000000000000000000000000000000000200000000000000000000000000000000000000000000000000000000000000000000000040000000000000000000000000000000000000000000000000000000000000100000008000000000000000000000000000000000000080000000000000000020000000000000000000000000000000400000000000000000000000000000000000000000000000000000000000001000000008000000000000000000000000010000000000000000000000000000000020000000000000000000000000000",
      "type": "0x2",
      "transactionHash": "0x6865dca2038db9cf816c8336f3acfd5921624a7e65cba9314690ef9f7d7367c1",
      "transactionIndex": "0x62",
      "blockHash": "0xf7a9a40df9de528edad2938da3cd11ada88bf129a22fdfec406ff9c24669f53e",
      "blockNumber": "0x9ed54d",
      "gasUsed": "0xb75c",
      "effectiveGasPrice": "0x889f60",
      "from": "0xf68d9e0faa751ad61e0ed70852798bf9d9c04bf7",
      "to": "0xbb46678a1f6c527bd79ecfbf85332b8ae83ceaf1",
      "contractAddress": null
    },
    {
      "status": "0x1",
      "cumulativeGasUsed": "0x125dcb8",
      "logs": [
        {
          "address": "0xbb46678a1f6c527bd79ecfbf85332b8ae83ceaf1",
          "topics": [
            "0xddf252ad1be2c89b69c2b068fc378daa952ba7f163c4a11628f55a4df523b3ef",
            "0x000000000000000000000000f68d9e0faa751ad61e0ed70852798bf9d9c04bf7",
            "0x000000000000000000000000c6b4e4c2540d649bf655adb352f910f50026af1f"
          ],
          "data": "0x000000000000000000000000000000000000000000034f086f3b33b684000000",
          "blockHash": "0xc48e085d3243a21fe6c53dac0701fcd247805657c9028dfd54d02c6e7b079b42",
          "blockNumber": "0x9ed54e",
          "blockTimestamp": "0x69ad8f8c",
          "transactionHash": "0xec3dbfa3f1ed7e21664f962ea24c8551a13b2e4cdc606c7539cba4d35ad68373",
          "transactionIndex": "0x6a",
          "logIndex": "0x172",
          "removed": false
        },
        {
          "address": "0xc6b4e4c2540d649bf655adb352f910f50026af1f",
          "topics": [
            "0x30f6180e248310ab0c789da3026fbba7390872be072cfc5b3c20733f3a980c9e",
            "0x000000000000000000000000f68d9e0faa751ad61e0ed70852798bf9d9c04bf7",
            "0x000000000000000000000000bb46678a1f6c527bd79ecfbf85332b8ae83ceaf1"
          ],
          "data": "0x000000000000000000000000000000000000000000034f086f3b33b684000000",
          "blockHash": "0xc48e085d3243a21fe6c53dac0701fcd247805657c9028dfd54d02c6e7b079b42",
          "blockNumber": "0x9ed54e",
          "blockTimestamp": "0x69ad8f8c",
          "transactionHash": "0xec3dbfa3f1ed7e21664f962ea24c8551a13b2e4cdc606c7539cba4d35ad68373",
          "transactionIndex": "0x6a",
          "logIndex": "0x173",
          "removed": false
        }
      ],
      "logsBloom": "0x00000000000000000000200000000000000000000000000000000000000000800000000000000000000000000000000000000000000000000000000000000000000000000000000000000008000000000000000000000000000000000000000000040000000000000000000000000000000000000000000000000010000000000100000008000001000000000000000000000000000000080000000000000000000000000000000000000000000000000400000040000000000000000000000000000002000003000000000000000001000800008000000000000000000000000000000000000000000000000000000000020000000000000000000400040000",
      "type": "0x2",
      "transactionHash": "0xec3dbfa3f1ed7e21664f962ea24c8551a13b2e4cdc606c7539cba4d35ad68373",
      "transactionIndex": "0x6a",
      "blockHash": "0xc48e085d3243a21fe6c53dac0701fcd247805657c9028dfd54d02c6e7b079b42",
      "blockNumber": "0x9ed54e",
      "gasUsed": "0x1a8d6",
      "effectiveGasPrice": "0x889f5f",
      "from": "0xf68d9e0faa751ad61e0ed70852798bf9d9c04bf7",
      "to": "0xc6b4e4c2540d649bf655adb352f910f50026af1f",
      "contractAddress": null
    },
    {
      "status": "0x1",
      "cumulativeGasUsed": "0x15d59cc",
      "logs": [
        {
          "address": "0xbb46678a1f6c527bd79ecfbf85332b8ae83ceaf1",
          "topics": [
            "0x8c5be1e5ebec7d5bd14f71427d1e84f3dd0314c0f7b2291e5b200ac8c7c3b925",
            "0x00000000000000000000000010db2e70118e5fbeda30391ec957e608c9e4517e",
            "0x000000000000000000000000c6b4e4c2540d649bf655adb352f910f50026af1f"
          ],
          "data": "0x000000000000000000000000000000000000000000034f086f3b33b684000000",
          "blockHash": "0xe65af46729abaf3507d86497f3144613588a6d235713b132004fb72b0b9595fc",
          "blockNumber": "0x9ed54f",
          "blockTimestamp": "0x69ad8f98",
          "transactionHash": "0x2d76e84908e37df55abf651970066e5ab5e8a121e8c091e56eefccbb7b30e170",
          "transactionIndex": "0x67",
          "logIndex": "0x185",
          "removed": false
        }
      ],
      "logsBloom": "0x00000000000000000000000000000000000000000000000000000000000000000000000000000000000000000000000000000000000000000000000000200000000000000000000000000000000000000000000000000000000000000000000000040000000000000000000000000000000000000000000000000000000000000100000008000000000000000000000000000000000000080000000000000000020000000000000000000000000000000000000000000000000000000000000000000000000000000000000041000000000000008000000000000000000000000010000000000000000080000000000000020000000000000000000000000000",
      "type": "0x2",
      "transactionHash": "0x2d76e84908e37df55abf651970066e5ab5e8a121e8c091e56eefccbb7b30e170",
      "transactionIndex": "0x67",
      "blockHash": "0xe65af46729abaf3507d86497f3144613588a6d235713b132004fb72b0b9595fc",
      "blockNumber": "0x9ed54f",
      "gasUsed": "0xb75c",
      "effectiveGasPrice": "0x889f5e",
      "from": "0x10db2e70118e5fbeda30391ec957e608c9e4517e",
      "to": "0xbb46678a1f6c527bd79ecfbf85332b8ae83ceaf1",
      "contractAddress": null
    },
    {
      "status": "0x1",
      "cumulativeGasUsed": "0x16b3619",
      "logs": [
        {
          "address": "0xbb46678a1f6c527bd79ecfbf85332b8ae83ceaf1",
          "topics": [
            "0xddf252ad1be2c89b69c2b068fc378daa952ba7f163c4a11628f55a4df523b3ef",
            "0x00000000000000000000000010db2e70118e5fbeda30391ec957e608c9e4517e",
            "0x000000000000000000000000c6b4e4c2540d649bf655adb352f910f50026af1f"
          ],
          "data": "0x000000000000000000000000000000000000000000034f086f3b33b684000000",
          "blockHash": "0x22eac18656086f910249c0a91dcbb2f7d72fdb8a5445506d56d8baf12471b267",
          "blockNumber": "0x9ed550",
          "blockTimestamp": "0x69ad8fa4",
          "transactionHash": "0xd7801b14511304a6d9e31cd4605c3187d739b7824ead68bfc9c5ef8e60fd5065",
          "transactionIndex": "0x72",
          "logIndex": "0x191",
          "removed": false
        },
        {
          "address": "0xc6b4e4c2540d649bf655adb352f910f50026af1f",
          "topics": [
            "0x30f6180e248310ab0c789da3026fbba7390872be072cfc5b3c20733f3a980c9e",
            "0x00000000000000000000000010db2e70118e5fbeda30391ec957e608c9e4517e",
            "0x000000000000000000000000bb46678a1f6c527bd79ecfbf85332b8ae83ceaf1"
          ],
          "data": "0x000000000000000000000000000000000000000000034f086f3b33b684000000",
          "blockHash": "0x22eac18656086f910249c0a91dcbb2f7d72fdb8a5445506d56d8baf12471b267",
          "blockNumber": "0x9ed550",
          "blockTimestamp": "0x69ad8fa4",
          "transactionHash": "0xd7801b14511304a6d9e31cd4605c3187d739b7824ead68bfc9c5ef8e60fd5065",
          "transactionIndex": "0x72",
          "logIndex": "0x192",
          "removed": false
        }
      ],
      "logsBloom": "0x00000000000000000000200000000000000000000000000000000000000000000000000000000000000000000000000000000000000000000000000000000000000000000000000000000008000000000000000000000000000000000000000000040000000000000000000000000000000000000000000000000010000000000100000008000001000000000000000000000000000000080000000000000000000000000000000000000000000000000000000040000000000000000000000000000002000003000000000041000001000800008000000000000000000000000000000000000000000080000000000000020000000000000000000400040000",
      "type": "0x2",
      "transactionHash": "0xd7801b14511304a6d9e31cd4605c3187d739b7824ead68bfc9c5ef8e60fd5065",
      "transactionIndex": "0x72",
      "blockHash": "0x22eac18656086f910249c0a91dcbb2f7d72fdb8a5445506d56d8baf12471b267",
      "blockNumber": "0x9ed550",
      "gasUsed": "0x1a8d6",
      "effectiveGasPrice": "0x889f5e",
      "from": "0x10db2e70118e5fbeda30391ec957e608c9e4517e",
      "to": "0xc6b4e4c2540d649bf655adb352f910f50026af1f",
      "contractAddress": null
    }
  ],
  "libraries": [],
  "pending": [],
  "returns": {},
  "timestamp": 1772982181672,
  "chain": 11155111,
  "commit": "0307850"
}