{
  "transactions": [
    {
      "hash": "0x469a9b7ca85c2d0a0145ab4583956932c051ba36023e97ce718ea67b46f0905d",
      "transactionType": "CALL",
      "contractName": null,
      "contractAddress": "0xbb46678a1f6c527bd79ecfbf85332b8ae83ceaf1",
      "function": "mint(address,uint256)",
      "arguments": [
        "0x474B4E7FD1A143eDea6b77aa845F429D443E6410",
        "4000000000000000000000000"
      ],
      "transaction": {
        "from": "0x993461bbf7e553eb5bd1f5248a72b524c4a3b15d",
        "to": "0xbb46678a1f6c527bd79ecfbf85332b8ae83ceaf1",
        "gas": "0xc681",
        "value": "0x0",
        "input": "0x40c10f19000000000000000000000000474b4e7fd1a143edea6b77aa845f429d443e6410000000000000000000000000000000000000000000034f086f3b33b684000000",
        "nonce": "0x56d",
        "chainId": "0xaa36a7"
      },
      "additionalContracts": [],
      "isFixedGasLimit": false
    },
    {
      "hash": "0x6d07392059f48c6f0728e46ebba0d79e5d58339fa59cc61853584664925b03b9",
      "transactionType": "CALL",
      "contractName": null,
      "contractAddress": "0xbb46678a1f6c527bd79ecfbf85332b8ae83ceaf1",
      "function": "mint(address,uint256)",
      "arguments": [
        "0xf68D9e0fAa751AD61e0ED70852798bF9D9C04bF7",
        "4000000000000000000000000"
      ],
      "transaction": {
        "from": "0x993461bbf7e553eb5bd1f5248a72b524c4a3b15d",
        "to": "0xbb46678a1f6c527bd79ecfbf85332b8ae83ceaf1",
        "gas": "0xc681",
        "value": "0x0",
        "input": "0x40c10f19000000000000000000000000f68d9e0faa751ad61e0ed70852798bf9d9c04bf7000000000000000000000000000000000000000000034f086f3b33b684000000",
        "nonce": "0x56e",
        "chainId": "0xaa36a7"
      },
      "additionalContracts": [],
      "isFixedGasLimit": false
    },
    {
      "hash": "0x76b4933b4ddf8e0401d7fdba96f7dc1dcfdffbd027a2d8ae78bb4b06c657ff4f",
      "transactionType": "CALL",
      "contractName": null,
      "contractAddress": "0xbb46678a1f6c527bd79ecfbf85332b8ae83ceaf1",
      "function": "mint(address,uint256)",
      "arguments": [
        "0x10Db2E70118e5FBeDa30391ec957e608C9E4517E",
        "4000000000000000000000000"
      ],
      "transaction": {
        "from": "0x993461bbf7e553eb5bd1f5248a72b524c4a3b15d",
        "to": "0xbb46678a1f6c527bd79ecfbf85332b8ae83ceaf1",
        "gas": "0xc681",
        "value": "0x0",
        "input": "0x40c10f1900000000000000000000000010db2e70118e5fbeda30391ec957e608c9e4517e000000000000000000000000000000000000000000034f086f3b33b684000000",
        "nonce": "0x56f",
        "chainId": "0xaa36a7"
      },
      "additionalContracts": [],
      "isFixedGasLimit": false
    },
    {
      "hash": "0xb8bd1ca856ecd703ad9face0a4d6baab86fafdbf4f1d0c934c4c6467f76940b8",
      "transactionType": "CALL",
      "contractName": null,
      "contractAddress": "0xbb46678a1f6c527bd79ecfbf85332b8ae83ceaf1",
      "function": "approve(address,uint256)",
      "arguments": [
        "0x54d168BD60EA85931b1238A6aE17F55eB101fb8E",
        "4000000000000000000000000"
      ],
      "transaction": {
        "from": "0x474b4e7fd1a143edea6b77aa845f429d443e6410",
        "to": "0xbb46678a1f6c527bd79ecfbf85332b8ae83ceaf1",
        "gas": "0xfd53",
        "value": "0x0",
        "input": "0x095ea7b300000000000000000000000054d168bd60ea85931b1238a6ae17f55eb101fb8e000000000000000000000000000000000000000000034f086f3b33b684000000",
        "nonce": "0x60",
        "chainId": "0xaa36a7"
      },
      "additionalContracts": [],
      "isFixedGasLimit": false
    },
    {
      "hash": "0xea0a4b76646ab411f856c70b5b74e98683eae1a6d78f6b5161b7495c7bef29a0",
      "transactionType": "CALL",
      "contractName": "MarginVault",
      "contractAddress": "0x54d168bd60ea85931b1238a6ae17f55eb101fb8e",
      "function": "depositMargin(bytes32,address,uint256)",
      "arguments": [
        "0x000000000000000000000000474b4e7fd1a143edea6b77aa845f429d443e6410",
        "0xbb46678a1F6C527bD79eCFBF85332B8Ae83ceaf1",
        "4000000000000000000000000"
      ],
      "transaction": {
        "from": "0x474b4e7fd1a143edea6b77aa845f429d443e6410",
        "to": "0x54d168bd60ea85931b1238a6ae17f55eb101fb8e",
        "gas": "0x2cf03",
        "value": "0x0",
        "input": "0x6812d315000000000000000000000000474b4e7fd1a143edea6b77aa845f429d443e6410000000000000000000000000bb46678a1f6c527bd79ecfbf85332b8ae83ceaf1000000000000000000000000000000000000000000034f086f3b33b684000000",
        "nonce": "0x61",
        "chainId": "0xaa36a7"
      },
      "additionalContracts": [],
      "isFixedGasLimit": false
    },
    {
      "hash": "0x7c4e59cd9686ebd74e5b62e2287c409ddebd8d1471503bf5028c0cb0a0b18d5c",
      "transactionType": "CALL",
      "contractName": null,
      "contractAddress": "0xbb46678a1f6c527bd79ecfbf85332b8ae83ceaf1",
      "function": "approve(address,uint256)",
      "arguments": [
        "0x54d168BD60EA85931b1238A6aE17F55eB101fb8E",
        "4000000000000000000000000"
      ],
      "transaction": {
        "from": "0xf68d9e0faa751ad61e0ed70852798bf9d9c04bf7",
        "to": "0xbb46678a1f6c527bd79ecfbf85332b8ae83ceaf1",
        "gas": "0xfd53",
        "value": "0x0",
        "input": "0x095ea7b300000000000000000000000054d168bd60ea85931b1238a6ae17f55eb101fb8e000000000000000000000000000000000000000000034f086f3b33b684000000",
        "nonce": "0x5e",
        "chainId": "0xaa36a7"
      },
      "additionalContracts": [],
      "isFixedGasLimit": false
    },
    {
      "hash": "0x8343abe785b8239c7d873bdb6537c0859ab6cc589cbc143d05841f11399ee639",
      "transactionType": "CALL",
      "contractName": "MarginVault",
      "contractAddress": "0x54d168bd60ea85931b1238a6ae17f55eb101fb8e",
      "function": "depositMargin(bytes32,address,uint256)",
      "arguments": [
        "0x000000000000000000000000f68d9e0faa751ad61e0ed70852798bf9d9c04bf7",
        "0xbb46678a1F6C527bD79eCFBF85332B8Ae83ceaf1",
        "4000000000000000000000000"
      ],
      "transaction": {
        "from": "0xf68d9e0faa751ad61e0ed70852798bf9d9c04bf7",
        "to": "0x54d168bd60ea85931b1238a6ae17f55eb101fb8e",
        "gas": "0x24acd",
        "value": "0x0",
        "input": "0x6812d315000000000000000000000000f68d9e0faa751ad61e0ed70852798bf9d9c04bf7000000000000000000000000bb46678a1f6c527bd79ecfbf85332b8ae83ceaf1000000000000000000000000000000000000000000034f086f3b33b684000000",
        "nonce": "0x5f",
        "chainId": "0xaa36a7"
      },
      "additionalContracts": [],
      "isFixedGasLimit": false
    },
    {
      "hash": "0xa05850aa7decf694a710e460078fbda70c99f5560ec9777c54b46df169a6d291",
      "transactionType": "CALL",
      "contractName": null,
      "contractAddress": "0xbb46678a1f6c527bd79ecfbf85332b8ae83ceaf1",
      "function": "approve(address,uint256)",
      "arguments": [
        "0x54d168BD60EA85931b1238A6aE17F55eB101fb8E",
        "4000000000000000000000000"
      ],
      "transaction": {
        "from": "0x10db2e70118e5fbeda30391ec957e608c9e4517e",
        "to": "0xbb46678a1f6c527bd79ecfbf85332b8ae83ceaf1",
        "gas": "0xfd53",
        "value": "0x0",
        "input": "0x095ea7b300000000000000000000000054d168bd60ea85931b1238a6ae17f55eb101fb8e000000000000000000000000000000000000000000034f086f3b33b684000000",
        "nonce": "0x2b",
        "chainId": "0xaa36a7"
      },
      "additionalContracts": [],
      "isFixedGasLimit": false
    },
    {
      "hash": "0xc2a06e5e6525466fe2cec9a80ab1102d4286771be4833a78d66589a499c20c8a",
      "transactionType": "CALL",
      "contractName": "MarginVault",
      "contractAddress": "0x54d168bd60ea85931b1238a6ae17f55eb101fb8e",
      "function": "depositMargin(bytes32,address,uint256)",
      "arguments": [
        "0x00000000000000000000000010db2e70118e5fbeda30391ec957e608c9e4517e",
        "0xbb46678a1F6C527bD79eCFBF85332B8Ae83ceaf1",
        "4000000000000000000000000"
      ],
      "transaction": {
        "from": "0x10db2e70118e5fbeda30391ec957e608c9e4517e",
        "to": "0x54d168bd60ea85931b1238a6ae17f55eb101fb8e",
        "gas": "0x24acd",
        "value": "0x0",
        "input": "0x6812d31500000000000000000000000010db2e70118e5fbeda30391ec957e608c9e4517e000000000000000000000000bb46678a1f6c527bd79ecfbf85332b8ae83ceaf1000000000000000000000000000000000000000000034f086f3b33b684000000",
        "nonce": "0x2c",
        "chainId": "0xaa36a7"
      },
      "additionalContracts": [],
      "isFixedGasLimit": false
    }
  ],
  "receipts": [
    {
      "status": "0x1",
      "cumulativeGasUsed": "0x7a29c5",
      "logs": [
        {
          "address": "0xbb46678a1f6c527bd79ecfbf85332b8ae83ceaf1",
          "topics": [
            "0xddf252ad1be2c89b69c2b068fc378daa952ba7f163c4a11628f55a4df523b3ef",
            "0x0000000000000000000000000000000000000000000000000000000000000000",
            "0x000000000000000000000000474b4e7fd1a143edea6b77aa845f429d443e6410"
          ],
          "data": "0x000000000000000000000000000000000000000000034f086f3b33b684000000",
          "blockHash": "0x2c396fc6823c006761038d69fe3afcac5c7e353a102c042774ed3a0bd75f90ae",
          "blockNumber": "0x9ea3bd",
          "blockTimestamp": "0x69aadd2c",
          "transactionHash": "0x469a9b7ca85c2d0a0145ab4583956932c051ba36023e97ce718ea67b46f0905d",
          "transactionIndex": "0x5d",
          "logIndex": "0x6b",
          "removed": false
        }
      ],
      "logsBloom": "0x00000000000000000000000000000000000000000000000000000000000000000000000000000000000000000000000000000000000000000000000000000000000000000000000000000008000000000000000000000000000000000000000000400000020000000000000000000800000000000000000000000010000000000100000008000000000000000000000000000000000000000000000000000000000000000000000000000000000000000000000000000000000100000000000000000002000000000000000000000000000000008000000000000010000020000000000000000000000000000000000000000000000000000000000000000000",
      "type": "0x2",
      "transactionHash": "0x469a9b7ca85c2d0a0145ab4583956932c051ba36023e97ce718ea67b46f0905d",
      "transactionIndex": "0x5d",
      "blockHash": "0x2c396fc6823c006761038d69fe3afcac5c7e353a102c042774ed3a0bd75f90ae",
      "blockNumber": "0x9ea3bd",
      "gasUsed": "0x87bb",
      "effectiveGasPrice": "0x21c3c7",
      "from": "0x993461bbf7e553eb5bd1f5248a72b524c4a3b15d",
      "to": "0xbb46678a1f6c527bd79ecfbf85332b8ae83ceaf1",
      "contractAddress": null
    },
    {
      "status": "0x1",
      "cumulativeGasUsed": "0xc28a21",
      "logs": [
        {
          "address": "0xbb46678a1f6c527bd79ecfbf85332b8ae83ceaf1",
          "topics": [
            "0xddf252ad1be2c89b69c2b068fc378daa952ba7f163c4a11628f55a4df523b3ef",
            "0x0000000000000000000000000000000000000000000000000000000000000000",
            "0x000000000000000000000000f68d9e0faa751ad61e0ed70852798bf9d9c04bf7"
          ],
          "data": "0x000000000000000000000000000000000000000000034f086f3b33b684000000",
          "blockHash": "0x196d4868674266441af29ff61965bf19b17e0a8206879a7781175bd2c22c5fd9",
          "blockNumber": "0x9ea3be",
          "blockTimestamp": "0x69aadd44",
          "transactionHash": "0x6d07392059f48c6f0728e46ebba0d79e5d58339fa59cc61853584664925b03b9",
          "transactionIndex": "0x91",
          "logIndex": "0xbc",
          "removed": false
        }
      ],
      "logsBloom": "0x00000000000000000000000000000000000000000000000000000000000000800000000000000000000000000000000000000000000000000000000000000000000000000000000000000008000000000000000000000000000000000000000000000000020000000000000000000800000000000000000000000010000000000100000008000000000000000000000000000000000000000000000000000000000000000000000000000000000000000400000000000000000000000000000000000002000000000000000000000001000000008000000000000000000020000000000000000000000000000000000000000000000000000000000000000000",
      "type": "0x2",
      "transactionHash": "0x6d07392059f48c6f0728e46ebba0d79e5d58339fa59cc61853584664925b03b9",
      "transactionIndex": "0x91",
      "blockHash": "0x196d4868674266441af29ff61965bf19b17e0a8206879a7781175bd2c22c5fd9",
      "blockNumber": "0x9ea3be",
      "gasUsed": "0x87bb",
      "effectiveGasPrice": "0x21e676",
      "from": "0x993461bbf7e553eb5bd1f5248a72b524c4a3b15d",
      "to": "0xbb46678a1f6c527bd79ecfbf85332b8ae83ceaf1",
      "contractAddress": null
    },
    {
      "status": "0x1",
      "cumulativeGasUsed": "0x81cf30",
      "logs": [
        {
          "address": "0xbb46678a1f6c527bd79ecfbf85332b8ae83ceaf1",
          "topics": [
            "0xddf252ad1be2c89b69c2b068fc378daa952ba7f163c4a11628f55a4df523b3ef",
            "0x0000000000000000000000000000000000000000000000000000000000000000",
            "0x00000000000000000000000010db2e70118e5fbeda30391ec957e608c9e4517e"
          ],
          "data": "0x000000000000000000000000000000000000000000034f086f3b33b684000000",
          "blockHash": "0xa2a9441c15cd1af7a1bd0c8eefaddd559cb8288d799cb54fd207f1f89e6cfb67",
          "blockNumber": "0x9ea3bf",
          "blockTimestamp": "0x69aadd50",
          "transactionHash": "0x76b4933b4ddf8e0401d7fdba96f7dc1dcfdffbd027a2d8ae78bb4b06c657ff4f",
          "transactionIndex": "0x62",
          "logIndex": "0x9e",
          "removed": false
        }
      ],
      "logsBloom": "0x00000000000000000000000000000000000000000000000000000000000000000000000000000000000000000000000000000000000000000000000000000000000000000000000000000008000000000000000000000000000000000000000000000000020000000000000000000800000000000000000000000010000000000100000008000000000000000000000000000000000000000000000000000000000000000000000000000000000000000000000000000000000000000000000000000002000000000000000041000000000000008000000000000000000020000000000000000000000080000000000000000000000000000000000000000000",
      "type": "0x2",
      "transactionHash": "0x76b4933b4ddf8e0401d7fdba96f7dc1dcfdffbd027a2d8ae78bb4b06c657ff4f",
      "transactionIndex": "0x62",
      "blockHash": "0xa2a9441c15cd1af7a1bd0c8eefaddd559cb8288d799cb54fd207f1f89e6cfb67",
      "blockNumber": "0x9ea3bf",
      "gasUsed": "0x87bb",
      "effectiveGasPrice": "0x225306",
      "from": "0x993461bbf7e553eb5bd1f5248a72b524c4a3b15d",
      "to": "0xbb46678a1f6c527bd79ecfbf85332b8ae83ceaf1",
      "contractAddress": null
    },
    {
      "status": "0x1",
      "cumulativeGasUsed": "0x961c27",
      "logs": [
        {
          "address": "0xbb46678a1f6c527bd79ecfbf85332b8ae83ceaf1",
          "topics": [
            "0x8c5be1e5ebec7d5bd14f71427d1e84f3dd0314c0f7b2291e5b200ac8c7c3b925",
            "0x000000000000000000000000474b4e7fd1a143edea6b77aa845f429d443e6410",
            "0x00000000000000000000000054d168bd60ea85931b1238a6ae17f55eb101fb8e"
          ],
          "data": "0x000000000000000000000000000000000000000000034f086f3b33b684000000",
          "blockHash": "0x3a600d8ee957d3aa3fb109581cb58fb1e6b9124faa42c048f25eee91d741f427",
          "blockNumber": "0x9ea3c0",
          "blockTimestamp": "0x69aadd5c",
          "transactionHash": "0xb8bd1ca856ecd703ad9face0a4d6baab86fafdbf4f1d0c934c4c6467f76940b8",
          "transactionIndex": "0x6e",
          "logIndex": "0xb1",
          "removed": false
        }
      ],
      "logsBloom": "0x00000000000000000000000000000000000000000000000000000000000000000000000004000000000000000000000000000000000000000000000000200000000000000000000000000000000000000008000000000000000000000000000000400000000000000000000000000000000000000000000000000000000000000100000008000000000000000000000000000000000000000000000000000000020000000000000000000000000000000000000000000000000100000000000000000000000000000000000000000000000000008000000000000010000000000010000000000000000000000000000000000000000000000100000000000000",
      "type": "0x2",
      "transactionHash": "0xb8bd1ca856ecd703ad9face0a4d6baab86fafdbf4f1d0c934c4c6467f76940b8",
      "transactionIndex": "0x6e",
      "blockHash": "0x3a600d8ee957d3aa3fb109581cb58fb1e6b9124faa42c048f25eee91d741f427",
      "blockNumber": "0x9ea3c0",
      "gasUsed": "0xb768",
      "effectiveGasPrice": "0x21d9e5",
      "from": "0x474b4e7fd1a143edea6b77aa845f429d443e6410",
      "to": "0xbb46678a1f6c527bd79ecfbf85332b8ae83ceaf1",
      "contractAddress": null
    },
    {
      "status": "0x1",
      "cumulativeGasUsed": "0x6e3999",
      "logs": [
        {
          "address": "0xbb46678a1f6c527bd79ecfbf85332b8ae83ceaf1",
          "topics": [
            "0xddf252ad1be2c89b69c2b068fc378daa952ba7f163c4a11628f55a4df523b3ef",
            "0x000000000000000000000000474b4e7fd1a143edea6b77aa845f429d443e6410",
            "0x00000000000000000000000054d168bd60ea85931b1238a6ae17f55eb101fb8e"
          ],
          "data": "0x000000000000000000000000000000000000000000034f086f3b33b684000000",
          "blockHash": "0xbe01a2fdc8ee99f606225508b6bc38264ed9ad249a30b71c3645310570798556",
          "blockNumber": "0x9ea3c1",
          "blockTimestamp": "0x69aadd68",
          "transactionHash": "0xea0a4b76646ab411f856c70b5b74e98683eae1a6d78f6b5161b7495c7bef29a0",
          "transactionIndex": "0x4c",
          "logIndex": "0x7f",
          "removed": false
        },
        {
          "address": "0x54d168bd60ea85931b1238a6ae17f55eb101fb8e",
          "topics": [
            "0x30f6180e248310ab0c789da3026fbba7390872be072cfc5b3c20733f3a980c9e",
            "0x000000000000000000000000474b4e7fd1a143edea6b77aa845f429d443e6410",
            "0x000000000000000000000000bb46678a1f6c527bd79ecfbf85332b8ae83ceaf1"
          ],
          "data": "0x000000000000000000000000000000000000000000034f086f3b33b684000000",
          "blockHash": "0xbe01a2fdc8ee99f606225508b6bc38264ed9ad249a30b71c3645310570798556",
          "blockNumber": "0x9ea3c1",
          "blockTimestamp": "0x69aadd68",
          "transactionHash": "0xea0a4b76646ab411f856c70b5b74e98683eae1a6d78f6b5161b7495c7bef29a0",
          "transactionIndex": "0x4c",
          "logIndex": "0x80",
          "removed": false
        }
      ],
      "logsBloom": "0x00000000000000000000000000000000000000000000000000000000000000000000000004800000000000000000000000000000000000000000000000000000000000000000000000000008000000000008000000000000000000000000000000400000000000000000000000000000000000000000000000000010000000080100000008000001000000000000000000000000000000000000000000000000000000000000000000000000000000000000000040000000000100000000000000000002000001000000000000000001000800008000000000000010000000400000000000000000000000000000000000000000000000000100000400000000",
      "type": "0x2",
      "transactionHash": "0xea0a4b76646ab411f856c70b5b74e98683eae1a6d78f6b5161b7495c7bef29a0",
      "transactionIndex": "0x4c",
      "blockHash": "0xbe01a2fdc8ee99f606225508b6bc38264ed9ad249a30b71c3645310570798556",
      "blockNumber": "0x9ea3c1",
      "gasUsed": "0x1eba2",
      "effectiveGasPrice": "0x2237af",
      "from": "0x474b4e7fd1a143edea6b77aa845f429d443e6410",
      "to": "0x54d168bd60ea85931b1238a6ae17f55eb101fb8e",
      "contractAddress": null
    },
    {
      "status": "0x1",
      "cumulativeGasUsed": "0xa046c0",
      "logs": [
        {
          "address": "0xbb46678a1f6c527bd79ecfbf85332b8ae83ceaf1",
          "topics": [
            "0x8c5be1e5ebec7d5bd14f71427d1e84f3dd0314c0f7b2291e5b200ac8c7c3b925",
            "0x000000000000000000000000f68d9e0faa751ad61e0ed70852798bf9d9c04bf7",
            "0x00000000000000000000000054d168bd60ea85931b1238a6ae17f55eb101fb8e"
          ],
          "data": "0x000000000000000000000000000000000000000000034f086f3b33b684000000",
          "blockHash": "0xb9a26533b026c660eedd0b577694913cefedce8a458a92fd9ce3e63ec274752a",
          "blockNumber": "0x9ea3c2",
          "blockTimestamp": "0x69aadd74",
          "transactionHash": "0x7c4e59cd9686ebd74e5b62e2287c409ddebd8d1471503bf5028c0cb0a0b18d5c",
          "transactionIndex": "0x6b",
          "logIndex": "0x9e",
          "removed": false
        }
      ],
      "logsBloom": "0x00000000000000000000000000000000000000000000000000000000000000800000000004000000000000000000000000000000000000000000000000200000000000000000000000000000000000000008000000000000000000000000000000000000000000000000000000000000000000000000000000000000000000000100000008000000000000000000000000000000000000000000000000000000020000000000000000000000000000000400000000000000000000000000000000000000000000000000000000000001000000008000000000000000000000000010000000000000000000000000000000000000000000000100000000000000",
      "type": "0x2",
      "transactionHash": "0x7c4e59cd9686ebd74e5b62e2287c409ddebd8d1471503bf5028c0cb0a0b18d5c",
      "transactionIndex": "0x6b",
      "blockHash": "0xb9a26533b026c660eedd0b577694913cefedce8a458a92fd9ce3e63ec274752a",
      "blockNumber": "0x9ea3c2",
      "gasUsed": "0xb768",
      "effectiveGasPrice": "0x21dd48",
      "from": "0xf68d9e0faa751ad61e0ed70852798bf9d9c04bf7",
      "to": "0xbb46678a1f6c527bd79ecfbf85332b8ae83ceaf1",
      "contractAddress": null
    },
    {
      "status": "0x1",
      "cumulativeGasUsed": "0x9a5d5a",
      "logs": [
        {
          "address": "0xbb46678a1f6c527bd79ecfbf85332b8ae83ceaf1",
          "topics": [
            "0xddf252ad1be2c89b69c2b068fc378daa952ba7f163c4a11628f55a4df523b3ef",
            "0x000000000000000000000000f68d9e0faa751ad61e0ed70852798bf9d9c04bf7",
            "0x00000000000000000000000054d168bd60ea85931b1238a6ae17f55eb101fb8e"
          ],
          "data": "0x000000000000000000000000000000000000000000034f086f3b33b684000000",
          "blockHash": "0xcb5f00717bda4cc782ef8c66bb3fe5a5fc0d0df2968e4a3a75cddf24ca83d44a",
          "blockNumber": "0x9ea3c3",
          "blockTimestamp": "0x69aadd80",
          "transactionHash": "0x8343abe785b8239c7d873bdb6537c0859ab6cc589cbc143d05841f11399ee639",
          "transactionIndex": "0x69",
          "logIndex": "0xc0",
          "removed": false
        },
        {
          "address": "0x54d168bd60ea85931b1238a6ae17f55eb101fb8e",
          "topics": [
            "0x30f6180e248310ab0c789da3026fbba7390872be072cfc5b3c20733f3a980c9e",
            "0x000000000000000000000000f68d9e0faa751ad61e0ed70852798bf9d9c04bf7",
            "0x000000000000000000000000bb46678a1f6c527bd79ecfbf85332b8ae83ceaf1"
          ],
          "data": "0x000000000000000000000000000000000000000000034f086f3b33b684000000",
          "blockHash": "0xcb5f00717bda4cc782ef8c66bb3fe5a5fc0d0df2968e4a3a75cddf24ca83d44a",
          "blockNumber": "0x9ea3c3",
          "blockTimestamp": "0x69aadd80",
          "transactionHash": "0x8343abe785b8239c7d873bdb6537c0859ab6cc589cbc143d05841f11399ee639",
          "transactionIndex": "0x69",
          "logIndex": "0xc1",
          "removed": false
        }
      ],
      "logsBloom": "0x00000000000000000000000000000000000000000000000000000000000000800000000004800000000000000000000000000000000000000000000000000000000000000000000000000008000000000008000000000000000000000000000000000000000000000000000000000000000000000000000000000010000000080100000008000001000000000000000000000000000000000000000000000000000000000000000000000000000000000400000040000000000000000000000000000002000001000000000000000001000800008000000000000000000000400000000000000000000000000000000000000000000000000100000400000000",
      "type": "0x2",
      "transactionHash": "0x8343abe785b8239c7d873bdb6537c0859ab6cc589cbc143d05841f11399ee639",
      "transactionIndex": "0x69",
      "blockHash": "0xcb5f00717bda4cc782ef8c66bb3fe5a5fc0d0df2968e4a3a75cddf24ca83d44a",
      "blockNumber": "0x9ea3c3",
      "gasUsed": "0x1a8d6",
      "effectiveGasPrice": "0x21be9d",
      "from": "0xf68d9e0faa751ad61e0ed70852798bf9d9c04bf7",
      "to": "0x54d168bd60ea85931b1238a6ae17f55eb101fb8e",
      "contractAddress": null
    },
    {
      "status": "0x1",
      "cumulativeGasUsed": "0x58378a",
      "logs": [
        {
          "address": "0xbb46678a1f6c527bd79ecfbf85332b8ae83ceaf1",
          "topics": [
            "0x8c5be1e5ebec7d5bd14f71427d1e84f3dd0314c0f7b2291e5b200ac8c7c3b925",
            "0x00000000000000000000000010db2e70118e5fbeda30391ec957e608c9e4517e",
            "0x00000000000000000000000054d168bd60ea85931b1238a6ae17f55eb101fb8e"
          ],
          "data": "0x000000000000000000000000000000000000000000034f086f3b33b684000000",
          "blockHash": "0x7a50e82731c88472dec79f70e05586b266874a9bc34177e339a6f0233e7eefa5",
          "blockNumber": "0x9ea3c4",
          "blockTimestamp": "0x69aadd8c",
          "transactionHash": "0xa05850aa7decf694a710e460078fbda70c99f5560ec9777c54b46df169a6d291",
          "transactionIndex": "0x4a",
          "logIndex": "0x5c",
          "removed": false
        }
      ],
      "logsBloom": "0x00000000000000000000000000000000000000000000000000000000000000000000000004000000000000000000000000000000000000000000000000200000000000000000000000000000000000000008000000000000000000000000000000000000000000000000000000000000000000000000000000000000000000000100000008000000000000000000000000000000000000000000000000000000020000000000000000000000000000000000000000000000000000000000000000000000000000000000000041000000000000008000000000000000000000000010000000000000000080000000000000000000000000000100000000000000",
      "type": "0x2",
      "transactionHash": "0xa05850aa7decf694a710e460078fbda70c99f5560ec9777c54b46df169a6d291",
      "transactionIndex": "0x4a",
      "blockHash": "0x7a50e82731c88472dec79f70e05586b266874a9bc34177e339a6f0233e7eefa5",
      "blockNumber": "0x9ea3c4",
      "gasUsed": "0xb768",
      "effectiveGasPrice": "0x21ef23",
      "from": "0x10db2e70118e5fbeda30391ec957e608c9e4517e",
      "to": "0xbb46678a1f6c527bd79ecfbf85332b8ae83ceaf1",
      "contractAddress": null
    },
    {
      "status": "0x1",
      "cumulativeGasUsed": "0xa4609d",
      "logs": [
        {
          "address": "0xbb46678a1f6c527bd79ecfbf85332b8ae83ceaf1",
          "topics": [
            "0xddf252ad1be2c89b69c2b068fc378daa952ba7f163c4a11628f55a4df523b3ef",
            "0x00000000000000000000000010db2e70118e5fbeda30391ec957e608c9e4517e",
            "0x00000000000000000000000054d168bd60ea85931b1238a6ae17f55eb101fb8e"
          ],
          "data": "0x000000000000000000000000000000000000000000034f086f3b33b684000000",
          "blockHash": "0x87b62aabff34eeb0d4e9ae48caf83c1c53022dcd767e4ed67baca24776ef4f7c",
          "blockNumber": "0x9ea3c5",
          "blockTimestamp": "0x69aadd98",
          "transactionHash": "0xc2a06e5e6525466fe2cec9a80ab1102d4286771be4833a78d66589a499c20c8a",
          "transactionIndex": "0x8b",
          "logIndex": "0xc1",
          "removed": false
        },
        {
          "address": "0x54d168bd60ea85931b1238a6ae17f55eb101fb8e",
          "topics": [
            "0x30f6180e248310ab0c789da3026fbba7390872be072cfc5b3c20733f3a980c9e",
            "0x00000000000000000000000010db2e70118e5fbeda30391ec957e608c9e4517e",
            "0x000000000000000000000000bb46678a1f6c527bd79ecfbf85332b8ae83ceaf1"
          ],
          "data": "0x000000000000000000000000000000000000000000034f086f3b33b684000000",
          "blockHash": "0x87b62aabff34eeb0d4e9ae48caf83c1c53022dcd767e4ed67baca24776ef4f7c",
          "blockNumber": "0x9ea3c5",
          "blockTimestamp": "0x69aadd98",
          "transactionHash": "0xc2a06e5e6525466fe2cec9a80ab1102d4286771be4833a78d66589a499c20c8a",
          "transactionIndex": "0x8b",
          "logIndex": "0xc2",
          "removed": false
        }
      ],
      "logsBloom": "0x00000000000000000000000000000000000000000000000000000000000000000000000004800000000000000000000000000000000000000000000000000000000000000000000000000008000000000008000000000000000000000000000000000000000000000000000000000000000000000000000000000010000000080100000008000001000000000000000000000000000000000000000000000000000000000000000000000000000000000000000040000000000000000000000000000002000001000000000041000001000800008000000000000000000000400000000000000000000080000000000000000000000000000100000400000000",
      "type": "0x2",
      "transactionHash": "0xc2a06e5e6525466fe2cec9a80ab1102d4286771be4833a78d66589a499c20c8a",
      "transactionIndex": "0x8b",
      "blockHash": "0x87b62aabff34eeb0d4e9ae48caf83c1c53022dcd767e4ed67baca24776ef4f7c",
      "blockNumber": "0x9ea3c5",
      "gasUsed": "0x1a8d6",
      "effectiveGasPrice": "0x21aa5a",
      "from": "0x10db2e70118e5fbeda30391ec957e608c9e4517e",
      "to": "0x54d168bd60ea85931b1238a6ae17f55eb101fb8e",
      "contractAddress": null
    }
  ],
  "libraries": [],
  "pending": [],
  "returns": {},
  "timestamp": 1772805530361,
  "chain": 11155111,
  "commit": "bea2e8d"
}