{
  "transactions": [
    {
      "hash": "0xc344dd422e7d495378ca05e7461c3ca6062ce04839f7ebf557114d1aa25334d2",
      "transactionType": "CALL",
      "contractName": null,
      "contractAddress": "0xbb46678a1f6c527bd79ecfbf85332b8ae83ceaf1",
      "function": "mint(address,uint256)",
      "arguments": [
        "0x474B4E7FD1A143eDea6b77aa845F429D443E6410",
        "4000000000000000000000000"
      ],
      "transaction": {
        "from": "0x993461bbf7e553eb5bd1f5248a72b524c4a3b15d",
        "to": "0xbb46678a1f6c527bd79ecfbf85332b8ae83ceaf1",
        "gas": "0xc681",
        "value": "0x0",
        "input": "0x40c10f19000000000000000000000000474b4e7fd1a143edea6b77aa845f429d443e6410000000000000000000000000000000000000000000034f086f3b33b684000000",
        "nonce": "0x3ae",
        "chainId": "0xaa36a7"
      },
      "additionalContracts": [],
      "isFixedGasLimit": false
    },
    {
      "hash": "0x855b43bf68e8eea5dc98d81aa4372191efb1002cd1aab46dcd82d5b6570597e9",
      "transactionType": "CALL",
      "contractName": null,
      "contractAddress": "0xbb46678a1f6c527bd79ecfbf85332b8ae83ceaf1",
      "function": "mint(address,uint256)",
      "arguments": [
        "0xf68D9e0fAa751AD61e0ED70852798bF9D9C04bF7",
        "4000000000000000000000000"
      ],
      "transaction": {
        "from": "0x993461bbf7e553eb5bd1f5248a72b524c4a3b15d",
        "to": "0xbb46678a1f6c527bd79ecfbf85332b8ae83ceaf1",
        "gas": "0xc681",
        "value": "0x0",
        "input": "0x40c10f19000000000000000000000000f68d9e0faa751ad61e0ed70852798bf9d9c04bf7000000000000000000000000000000000000000000034f086f3b33b684000000",
        "nonce": "0x3af",
        "chainId": "0xaa36a7"
      },
      "additionalContracts": [],
      "isFixedGasLimit": false
    },
    {
      "hash": "0xf87264b84c9b1702c31d339100af4aeeb93444262868dc2aab4ee663a5c39c0a",
      "transactionType": "CALL",
      "contractName": null,
      "contractAddress": "0xbb46678a1f6c527bd79ecfbf85332b8ae83ceaf1",
      "function": "mint(address,uint256)",
      "arguments": [
        "0x10Db2E70118e5FBeDa30391ec957e608C9E4517E",
        "4000000000000000000000000"
      ],
      "transaction": {
        "from": "0x993461bbf7e553eb5bd1f5248a72b524c4a3b15d",
        "to": "0xbb46678a1f6c527bd79ecfbf85332b8ae83ceaf1",
        "gas": "0xc681",
        "value": "0x0",
        "input": "0x40c10f1900000000000000000000000010db2e70118e5fbeda30391ec957e608c9e4517e000000000000000000000000000000000000000000034f086f3b33b684000000",
        "nonce": "0x3b0",
        "chainId": "0xaa36a7"
      },
      "additionalContracts": [],
      "isFixedGasLimit": false
    },
    {
      "hash": "0x01a487dd2241acb1a16f9befbdf6e191e7d2a019b209a0cf19eee8bc8bbdd295",
      "transactionType": "CALL",
      "contractName": null,
      "contractAddress": "0xbb46678a1f6c527bd79ecfbf85332b8ae83ceaf1",
      "function": "approve(address,uint256)",
      "arguments": [
        "0x15A1b1984C291A0117C99bC03c5d13225Fa7880b",
        "4000000000000000000000000"
      ],
      "transaction": {
        "from": "0x474b4e7fd1a143edea6b77aa845f429d443e6410",
        "to": "0xbb46678a1f6c527bd79ecfbf85332b8ae83ceaf1",
        "gas": "0xfd53",
        "value": "0x0",
        "input": "0x095ea7b300000000000000000000000015a1b1984c291a0117c99bc03c5d13225fa7880b000000000000000000000000000000000000000000034f086f3b33b684000000",
        "nonce": "0x39",
        "chainId": "0xaa36a7"
      },
      "additionalContracts": [],
      "isFixedGasLimit": false
    },
    {
      "hash": "0xcad62cdb3cbcf46cbda1c8fe9e457ecad04eded0452edc4c6f6d216163c0fcb0",
      "transactionType": "CALL",
      "contractName": "MarginVault",
      "contractAddress": "0x15a1b1984c291a0117c99bc03c5d13225fa7880b",
      "function": "depositMargin(bytes32,address,uint256)",
      "arguments": [
        "0x000000000000000000000000474b4e7fd1a143edea6b77aa845f429d443e6410",
        "0xbb46678a1F6C527bD79eCFBF85332B8Ae83ceaf1",
        "4000000000000000000000000"
      ],
      "transaction": {
        "from": "0x474b4e7fd1a143edea6b77aa845f429d443e6410",
        "to": "0x15a1b1984c291a0117c99bc03c5d13225fa7880b",
        "gas": "0x2cf03",
        "value": "0x0",
        "input": "0x6812d315000000000000000000000000474b4e7fd1a143edea6b77aa845f429d443e6410000000000000000000000000bb46678a1f6c527bd79ecfbf85332b8ae83ceaf1000000000000000000000000000000000000000000034f086f3b33b684000000",
        "nonce": "0x3a",
        "chainId": "0xaa36a7"
      },
      "additionalContracts": [],
      "isFixedGasLimit": false
    },
    {
      "hash": "0x1916ab668139013f68c6288e0ee7a8e6168d1b5a03c7a0300c2d2a5d5d78a7cb",
      "transactionType": "CALL",
      "contractName": null,
      "contractAddress": "0xbb46678a1f6c527bd79ecfbf85332b8ae83ceaf1",
      "function": "approve(address,uint256)",
      "arguments": [
        "0x15A1b1984C291A0117C99bC03c5d13225Fa7880b",
        "4000000000000000000000000"
      ],
      "transaction": {
        "from": "0xf68d9e0faa751ad61e0ed70852798bf9d9c04bf7",
        "to": "0xbb46678a1f6c527bd79ecfbf85332b8ae83ceaf1",
        "gas": "0xfd53",
        "value": "0x0",
        "input": "0x095ea7b300000000000000000000000015a1b1984c291a0117c99bc03c5d13225fa7880b000000000000000000000000000000000000000000034f086f3b33b684000000",
        "nonce": "0x38",
        "chainId": "0xaa36a7"
      },
      "additionalContracts": [],
      "isFixedGasLimit": false
    },
    {
      "hash": "0x283ef328d95b27e4a69d995270786270075f65d9d832ba044b723790f3630e9e",
      "transactionType": "CALL",
      "contractName": "MarginVault",
      "contractAddress": "0x15a1b1984c291a0117c99bc03c5d13225fa7880b",
      "function": "depositMargin(bytes32,address,uint256)",
      "arguments": [
        "0x000000000000000000000000f68d9e0faa751ad61e0ed70852798bf9d9c04bf7",
        "0xbb46678a1F6C527bD79eCFBF85332B8Ae83ceaf1",
        "4000000000000000000000000"
      ],
      "transaction": {
        "from": "0xf68d9e0faa751ad61e0ed70852798bf9d9c04bf7",
        "to": "0x15a1b1984c291a0117c99bc03c5d13225fa7880b",
        "gas": "0x24acd",
        "value": "0x0",
        "input": "0x6812d315000000000000000000000000f68d9e0faa751ad61e0ed70852798bf9d9c04bf7000000000000000000000000bb46678a1f6c527bd79ecfbf85332b8ae83ceaf1000000000000000000000000000000000000000000034f086f3b33b684000000",
        "nonce": "0x39",
        "chainId": "0xaa36a7"
      },
      "additionalContracts": [],
      "isFixedGasLimit": false
    },
    {
      "hash": "0xd562d14bcc29171a406b1c4f0b5e0b7c5465fcd9d4dde624ae0c1d8472e687fa",
      "transactionType": "CALL",
      "contractName": null,
      "contractAddress": "0xbb46678a1f6c527bd79ecfbf85332b8ae83ceaf1",
      "function": "approve(address,uint256)",
      "arguments": [
        "0x15A1b1984C291A0117C99bC03c5d13225Fa7880b",
        "4000000000000000000000000"
      ],
      "transaction": {
        "from": "0x10db2e70118e5fbeda30391ec957e608c9e4517e",
        "to": "0xbb46678a1f6c527bd79ecfbf85332b8ae83ceaf1",
        "gas": "0xfd53",
        "value": "0x0",
        "input": "0x095ea7b300000000000000000000000015a1b1984c291a0117c99bc03c5d13225fa7880b000000000000000000000000000000000000000000034f086f3b33b684000000",
        "nonce": "0x6",
        "chainId": "0xaa36a7"
      },
      "additionalContracts": [],
      "isFixedGasLimit": false
    },
    {
      "hash": "0x1304f4e63996294a3abfca886e80a135e6c5e4deb5c97e294c9cd5e225db12bf",
      "transactionType": "CALL",
      "contractName": "MarginVault",
      "contractAddress": "0x15a1b1984c291a0117c99bc03c5d13225fa7880b",
      "function": "depositMargin(bytes32,address,uint256)",
      "arguments": [
        "0x00000000000000000000000010db2e70118e5fbeda30391ec957e608c9e4517e",
        "0xbb46678a1F6C527bD79eCFBF85332B8Ae83ceaf1",
        "4000000000000000000000000"
      ],
      "transaction": {
        "from": "0x10db2e70118e5fbeda30391ec957e608c9e4517e",
        "to": "0x15a1b1984c291a0117c99bc03c5d13225fa7880b",
        "gas": "0x24acd",
        "value": "0x0",
        "input": "0x6812d31500000000000000000000000010db2e70118e5fbeda30391ec957e608c9e4517e000000000000000000000000bb46678a1f6c527bd79ecfbf85332b8ae83ceaf1000000000000000000000000000000000000000000034f086f3b33b684000000",
        "nonce": "0x7",
        "chainId": "0xaa36a7"
      },
      "additionalContracts": [],
      "isFixedGasLimit": false
    }
  ],
  "receipts": [
    {
      "status": "0x1",
      "cumulativeGasUsed": "0xdddb1f",
      "logs": [
        {
          "address": "0xbb46678a1f6c527bd79ecfbf85332b8ae83ceaf1",
          "topics": [
            "0xddf252ad1be2c89b69c2b068fc378daa952ba7f163c4a11628f55a4df523b3ef",
            "0x0000000000000000000000000000000000000000000000000000000000000000",
            "0x000000000000000000000000474b4e7fd1a143edea6b77aa845f429d443e6410"
          ],
          "data": "0x000000000000000000000000000000000000000000034f086f3b33b684000000",
          "blockHash": "0xd40c8df89eab36825c7cd4329b20385ab81b269843e49b4b55d2e7e7f6083c0a",
          "blockNumber": "0x9e6ea0",
          "blockTimestamp": "0x69a83dbc",
          "transactionHash": "0xc344dd422e7d495378ca05e7461c3ca6062ce04839f7ebf557114d1aa25334d2",
          "transactionIndex": "0x9f",
          "logIndex": "0x117",
          "removed": false
        }
      ],
      "logsBloom": "0x00000000000000000000000000000000000000000000000000000000000000000000000000000000000000000000000000000000000000000000000000000000000000000000000000000008000000000000000000000000000000000000000000400000020000000000000000000800000000000000000000000010000000000100000008000000000000000000000000000000000000000000000000000000000000000000000000000000000000000000000000000000000100000000000000000002000000000000000000000000000000008000000000000010000020000000000000000000000000000000000000000000000000000000000000000000",
      "type": "0x2",
      "transactionHash": "0xc344dd422e7d495378ca05e7461c3ca6062ce04839f7ebf557114d1aa25334d2",
      "transactionIndex": "0x9f",
      "blockHash": "0xd40c8df89eab36825c7cd4329b20385ab81b269843e49b4b55d2e7e7f6083c0a",
      "blockNumber": "0x9e6ea0",
      "gasUsed": "0x87bb",
      "effectiveGasPrice": "0xf424b",
      "from": "0x993461bbf7e553eb5bd1f5248a72b524c4a3b15d",
      "to": "0xbb46678a1f6c527bd79ecfbf85332b8ae83ceaf1",
      "contractAddress": null
    },
    {
      "status": "0x1",
      "cumulativeGasUsed": "0x71232b",
      "logs": [
        {
          "address": "0xbb46678a1f6c527bd79ecfbf85332b8ae83ceaf1",
          "topics": [
            "0xddf252ad1be2c89b69c2b068fc378daa952ba7f163c4a11628f55a4df523b3ef",
            "0x0000000000000000000000000000000000000000000000000000000000000000",
            "0x000000000000000000000000f68d9e0faa751ad61e0ed70852798bf9d9c04bf7"
          ],
          "data": "0x000000000000000000000000000000000000000000034f086f3b33b684000000",
          "blockHash": "0x34bdb94b4b260153b00c5f7c5a3edfdff64ec92caff953f3f5662e26231d6cb7",
          "blockNumber": "0x9e6ea1",
          "blockTimestamp": "0x69a83dc8",
          "transactionHash": "0x855b43bf68e8eea5dc98d81aa4372191efb1002cd1aab46dcd82d5b6570597e9",
          "transactionIndex": "0x76",
          "logIndex": "0x8f",
          "removed": false
        }
      ],
      "logsBloom": "0x00000000000000000000000000000000000000000000000000000000000000800000000000000000000000000000000000000000000000000000000000000000000000000000000000000008000000000000000000000000000000000000000000000000020000000000000000000800000000000000000000000010000000000100000008000000000000000000000000000000000000000000000000000000000000000000000000000000000000000400000000000000000000000000000000000002000000000000000000000001000000008000000000000000000020000000000000000000000000000000000000000000000000000000000000000000",
      "type": "0x2",
      "transactionHash": "0x855b43bf68e8eea5dc98d81aa4372191efb1002cd1aab46dcd82d5b6570597e9",
      "transactionIndex": "0x76",
      "blockHash": "0x34bdb94b4b260153b00c5f7c5a3edfdff64ec92caff953f3f5662e26231d6cb7",
      "blockNumber": "0x9e6ea1",
      "gasUsed": "0x87bb",
      "effectiveGasPrice": "0xf424b",
      "from": "0x993461bbf7e553eb5bd1f5248a72b524c4a3b15d",
      "to": "0xbb46678a1f6c527bd79ecfbf85332b8ae83ceaf1",
      "contractAddress": null
    },
    {
      "status": "0x1",
      "cumulativeGasUsed": "0x975d17",
      "logs": [
        {
          "address": "0xbb46678a1f6c527bd79ecfbf85332b8ae83ceaf1",
          "topics": [
            "0xddf252ad1be2c89b69c2b068fc378daa952ba7f163c4a11628f55a4df523b3ef",
            "0x0000000000000000000000000000000000000000000000000000000000000000",
            "0x00000000000000000000000010db2e70118e5fbeda30391ec957e608c9e4517e"
          ],
          "data": "0x000000000000000000000000000000000000000000034f086f3b33b684000000",
          "blockHash": "0x1df5007848484086e2e9978ee8b69f19983e931b9404231bacf8ac17b46c9930",
          "blockNumber": "0x9e6ea2",
          "blockTimestamp": "0x69a83dd4",
          "transactionHash": "0xf87264b84c9b1702c31d339100af4aeeb93444262868dc2aab4ee663a5c39c0a",
          "transactionIndex": "0x9e",
          "logIndex": "0xe3",
          "removed": false
        }
      ],
      "logsBloom": "0x00000000000000000000000000000000000000000000000000000000000000000000000000000000000000000000000000000000000000000000000000000000000000000000000000000008000000000000000000000000000000000000000000000000020000000000000000000800000000000000000000000010000000000100000008000000000000000000000000000000000000000000000000000000000000000000000000000000000000000000000000000000000000000000000000000002000000000000000041000000000000008000000000000000000020000000000000000000000080000000000000000000000000000000000000000000",
      "type": "0x2",
      "transactionHash": "0xf87264b84c9b1702c31d339100af4aeeb93444262868dc2aab4ee663a5c39c0a",
      "transactionIndex": "0x9e",
      "blockHash": "0x1df5007848484086e2e9978ee8b69f19983e931b9404231bacf8ac17b46c9930",
      "blockNumber": "0x9e6ea2",
      "gasUsed": "0x87bb",
      "effectiveGasPrice": "0xf424b",
      "from": "0x993461bbf7e553eb5bd1f5248a72b524c4a3b15d",
      "to": "0xbb46678a1f6c527bd79ecfbf85332b8ae83ceaf1",
      "contractAddress": null
    },
    {
      "status": "0x1",
      "cumulativeGasUsed": "0x8e0159",
      "logs": [
        {
          "address": "0xbb46678a1f6c527bd79ecfbf85332b8ae83ceaf1",
          "topics": [
            "0x8c5be1e5ebec7d5bd14f71427d1e84f3dd0314c0f7b2291e5b200ac8c7c3b925",
            "0x000000000000000000000000474b4e7fd1a143edea6b77aa845f429d443e6410",
            "0x00000000000000000000000015a1b1984c291a0117c99bc03c5d13225fa7880b"
          ],
          "data": "0x000000000000000000000000000000000000000000034f086f3b33b684000000",
          "blockHash": "0x11d4cd1315285f22594d9e0baf1510fd6f1dbac31a449deaacdfd930f52c59ae",
          "blockNumber": "0x9e6ea3",
          "blockTimestamp": "0x69a83de0",
          "transactionHash": "0x01a487dd2241acb1a16f9befbdf6e191e7d2a019b209a0cf19eee8bc8bbdd295",
          "transactionIndex": "0x76",
          "logIndex": "0x9d",
          "removed": false
        }
      ],
      "logsBloom": "0x00000000000000080000000000000000000000000000000000000000000000000000000000000000000000000000200000000000000000000000000000200000000000000000000000000000000000000000000000000000000000000000000000400000000000000000000000000000000000000000000000000000000000000100000008000000000000000000000000000000000000000000000000000000020000000000000000000000000000000000000000000000000100000000000000000000000000000000000000001000000000008000000000000010000000000010000000000000000000000000000000000000000000000000000000000000",
      "type": "0x2",
      "transactionHash": "0x01a487dd2241acb1a16f9befbdf6e191e7d2a019b209a0cf19eee8bc8bbdd295",
      "transactionIndex": "0x76",
      "blockHash": "0x11d4cd1315285f22594d9e0baf1510fd6f1dbac31a449deaacdfd930f52c59ae",
      "blockNumber": "0x9e6ea3",
      "gasUsed": "0xb768",
      "effectiveGasPrice": "0xf424b",
      "from": "0x474b4e7fd1a143edea6b77aa845f429d443e6410",
      "to": "0xbb46678a1f6c527bd79ecfbf85332b8ae83ceaf1",
      "contractAddress": null
    },
    {
      "status": "0x1",
      "cumulativeGasUsed": "0x98e52f",
      "logs": [
        {
          "address": "0xbb46678a1f6c527bd79ecfbf85332b8ae83ceaf1",
          "topics": [
            "0xddf252ad1be2c89b69c2b068fc378daa952ba7f163c4a11628f55a4df523b3ef",
            "0x000000000000000000000000474b4e7fd1a143edea6b77aa845f429d443e6410",
            "0x00000000000000000000000015a1b1984c291a0117c99bc03c5d13225fa7880b"
          ],
          "data": "0x000000000000000000000000000000000000000000034f086f3b33b684000000",
          "blockHash": "0xe460cca235a61d3bb1e49251cbb2294c9957a94f39502f9b9b89247ebb31f08d",
          "blockNumber": "0x9e6ea4",
          "blockTimestamp": "0x69a83dec",
          "transactionHash": "0xcad62cdb3cbcf46cbda1c8fe9e457ecad04eded0452edc4c6f6d216163c0fcb0",
          "transactionIndex": "0x6f",
          "logIndex": "0x8a",
          "removed": false
        },
        {
          "address": "0x15a1b1984c291a0117c99bc03c5d13225fa7880b",
          "topics": [
            "0x30f6180e248310ab0c789da3026fbba7390872be072cfc5b3c20733f3a980c9e",
            "0x000000000000000000000000474b4e7fd1a143edea6b77aa845f429d443e6410",
            "0x000000000000000000000000bb46678a1f6c527bd79ecfbf85332b8ae83ceaf1"
          ],
          "data": "0x000000000000000000000000000000000000000000034f086f3b33b684000000",
          "blockHash": "0xe460cca235a61d3bb1e49251cbb2294c9957a94f39502f9b9b89247ebb31f08d",
          "blockNumber": "0x9e6ea4",
          "blockTimestamp": "0x69a83dec",
          "transactionHash": "0xcad62cdb3cbcf46cbda1c8fe9e457ecad04eded0452edc4c6f6d216163c0fcb0",
          "transactionIndex": "0x6f",
          "logIndex": "0x8b",
          "removed": false
        }
      ],
      "logsBloom": "0x00000000000000080000000000000000000000000000000000000000000000000000000000000000000000000000200000000000000000000008000000000000000000000000000000400008000000000000000000000000000000000000000000400000000000000000000000000000000000000000000000000010000000000100000008000001000000000000000000000000000000000000000000000000000000000000000000000000000000000000000040000000000100000000000000000002000001000000000000001001000800008000000000000010000000000000000000000000000000000000000000000010000000000000000400000000",
      "type": "0x2",
      "transactionHash": "0xcad62cdb3cbcf46cbda1c8fe9e457ecad04eded0452edc4c6f6d216163c0fcb0",
      "transactionIndex": "0x6f",
      "blockHash": "0xe460cca235a61d3bb1e49251cbb2294c9957a94f39502f9b9b89247ebb31f08d",
      "blockNumber": "0x9e6ea4",
      "gasUsed": "0x1eba2",
      "effectiveGasPrice": "0xf424b",
      "from": "0x474b4e7fd1a143edea6b77aa845f429d443e6410",
      "to": "0x15a1b1984c291a0117c99bc03c5d13225fa7880b",
      "contractAddress": null
    },
    {
      "status": "0x1",
      "cumulativeGasUsed": "0xe591eb",
      "logs": [
        {
          "address": "0xbb46678a1f6c527bd79ecfbf85332b8ae83ceaf1",
          "topics": [
            "0x8c5be1e5ebec7d5bd14f71427d1e84f3dd0314c0f7b2291e5b200ac8c7c3b925",
            "0x000000000000000000000000f68d9e0faa751ad61e0ed70852798bf9d9c04bf7",
            "0x00000000000000000000000015a1b1984c291a0117c99bc03c5d13225fa7880b"
          ],
          "data": "0x000000000000000000000000000000000000000000034f086f3b33b684000000",
          "blockHash": "0xcca114bd94b49e1994a6e9945d83f11e8a6829a9a0c747eb6b96796bd118a208",
          "blockNumber": "0x9e6ea5",
          "blockTimestamp": "0x69a83df8",
          "transactionHash": "0x1916ab668139013f68c6288e0ee7a8e6168d1b5a03c7a0300c2d2a5d5d78a7cb",
          "transactionIndex": "0x9f",
          "logIndex": "0xde",
          "removed": false
        }
      ],
      "logsBloom": "0x00000000000000080000000000000000000000000000000000000000000000800000000000000000000000000000200000000000000000000000000000200000000000000000000000000000000000000000000000000000000000000000000000000000000000000000000000000000000000000000000000000000000000000100000008000000000000000000000000000000000000000000000000000000020000000000000000000000000000000400000000000000000000000000000000000000000000000000000000001001000000008000000000000000000000000010000000000000000000000000000000000000000000000000000000000000",
      "type": "0x2",
      "transactionHash": "0x1916ab668139013f68c6288e0ee7a8e6168d1b5a03c7a0300c2d2a5d5d78a7cb",
      "transactionIndex": "0x9f",
      "blockHash": "0xcca114bd94b49e1994a6e9945d83f11e8a6829a9a0c747eb6b96796bd118a208",
      "blockNumber": "0x9e6ea5",
      "gasUsed": "0xb768",
      "effectiveGasPrice": "0xf424b",
      "from": "0xf68d9e0faa751ad61e0ed70852798bf9d9c04bf7",
      "to": "0xbb46678a1f6c527bd79ecfbf85332b8ae83ceaf1",
      "contractAddress": null
    },
    {
      "status": "0x1",
      "cumulativeGasUsed": "0x7fd744",
      "logs": [
        {
          "address": "0xbb46678a1f6c527bd79ecfbf85332b8ae83ceaf1",
          "topics": [
            "0xddf252ad1be2c89b69c2b068fc378daa952ba7f163c4a11628f55a4df523b3ef",
            "0x000000000000000000000000f68d9e0faa751ad61e0ed70852798bf9d9c04bf7",
            "0x00000000000000000000000015a1b1984c291a0117c99bc03c5d13225fa7880b"
          ],
          "data": "0x000000000000000000000000000000000000000000034f086f3b33b684000000",
          "blockHash": "0x32c4226b37c0b4b02da811e5cbb64a95f67406fa5294408732639a2ff0dec11e",
          "blockNumber": "0x9e6ea6",
          "blockTimestamp": "0x69a83e04",
          "transactionHash": "0x283ef328d95b27e4a69d995270786270075f65d9d832ba044b723790f3630e9e",
          "transactionIndex": "0x6f",
          "logIndex": "0xa7",
          "removed": false
        },
        {
          "address": "0x15a1b1984c291a0117c99bc03c5d13225fa7880b",
          "topics": [
            "0x30f6180e248310ab0c789da3026fbba7390872be072cfc5b3c20733f3a980c9e",
            "0x000000000000000000000000f68d9e0faa751ad61e0ed70852798bf9d9c04bf7",
            "0x000000000000000000000000bb46678a1f6c527bd79ecfbf85332b8ae83ceaf1"
          ],
          "data": "0x000000000000000000000000000000000000000000034f086f3b33b684000000",
          "blockHash": "0x32c4226b37c0b4b02da811e5cbb64a95f67406fa5294408732639a2ff0dec11e",
          "blockNumber": "0x9e6ea6",
          "blockTimestamp": "0x69a83e04",
          "transactionHash": "0x283ef328d95b27e4a69d995270786270075f65d9d832ba044b723790f3630e9e",
          "transactionIndex": "0x6f",
          "logIndex": "0xa8",
          "removed": false
        }
      ],
      "logsBloom": "0x00000000000000080000000000000000000000000000000000000000000000800000000000000000000000000000200000000000000000000008000000000000000000000000000000400008000000000000000000000000000000000000000000000000000000000000000000000000000000000000000000000010000000000100000008000001000000000000000000000000000000000000000000000000000000000000000000000000000000000400000040000000000000000000000000000002000001000000000000001001000800008000000000000000000000000000000000000000000000000000000000000010000000000000000400000000",
      "type": "0x2",
      "transactionHash": "0x283ef328d95b27e4a69d995270786270075f65d9d832ba044b723790f3630e9e",
      "transactionIndex": "0x6f",
      "blockHash": "0x32c4226b37c0b4b02da811e5cbb64a95f67406fa5294408732639a2ff0dec11e",
      "blockNumber": "0x9e6ea6",
      "gasUsed": "0x1a8d6",
      "effectiveGasPrice": "0xf424b",
      "from": "0xf68d9e0faa751ad61e0ed70852798bf9d9c04bf7",
      "to": "0x15a1b1984c291a0117c99bc03c5d13225fa7880b",
      "contractAddress": null
    },
    {
      "status": "0x1",
      "cumulativeGasUsed": "0x66354d",
      "logs": [
        {
          "address": "0xbb46678a1f6c527bd79ecfbf85332b8ae83ceaf1",
          "topics": [
            "0x8c5be1e5ebec7d5bd14f71427d1e84f3dd0314c0f7b2291e5b200ac8c7c3b925",
            "0x00000000000000000000000010db2e70118e5fbeda30391ec957e608c9e4517e",
            "0x00000000000000000000000015a1b1984c291a0117c99bc03c5d13225fa7880b"
          ],
          "data": "0x000000000000000000000000000000000000000000034f086f3b33b684000000",
          "blockHash": "0x907cb16f571c3e98ba335a232263def6ab08354b7112e83343ed299e22ab09c9",
          "blockNumber": "0x9e6ea7",
          "blockTimestamp": "0x69a83e10",
          "transactionHash": "0xd562d14bcc29171a406b1c4f0b5e0b7c5465fcd9d4dde624ae0c1d8472e687fa",
          "transactionIndex": "0x70",
          "logIndex": "0x78",
          "removed": false
        }
      ],
      "logsBloom": "0x00000000000000080000000000000000000000000000000000000000000000000000000000000000000000000000200000000000000000000000000000200000000000000000000000000000000000000000000000000000000000000000000000000000000000000000000000000000000000000000000000000000000000000100000008000000000000000000000000000000000000000000000000000000020000000000000000000000000000000000000000000000000000000000000000000000000000000000000041001000000000008000000000000000000000000010000000000000000080000000000000000000000000000000000000000000",
      "type": "0x2",
      "transactionHash": "0xd562d14bcc29171a406b1c4f0b5e0b7c5465fcd9d4dde624ae0c1d8472e687fa",
      "transactionIndex": "0x70",
      "blockHash": "0x907cb16f571c3e98ba335a232263def6ab08354b7112e83343ed299e22ab09c9",
      "blockNumber": "0x9e6ea7",
      "gasUsed": "0xb768",
      "effectiveGasPrice": "0xf424b",
      "from": "0x10db2e70118e5fbeda30391ec957e608c9e4517e",
      "to": "0xbb46678a1f6c527bd79ecfbf85332b8ae83ceaf1",
      "contractAddress": null
    },
    {
      "status": "0x1",
      "cumulativeGasUsed": "0xa0e4b3",
      "logs": [
        {
          "address": "0xbb46678a1f6c527bd79ecfbf85332b8ae83ceaf1",
          "topics": [
            "0xddf252ad1be2c89b69c2b068fc378daa952ba7f163c4a11628f55a4df523b3ef",
            "0x00000000000000000000000010db2e70118e5fbeda30391ec957e608c9e4517e",
            "0x00000000000000000000000015a1b1984c291a0117c99bc03c5d13225fa7880b"
          ],
          "data": "0x000000000000000000000000000000000000000000034f086f3b33b684000000",
          "blockHash": "0xff7d5848b3a8053d4968cfea4d272c23abafd55f49aae8456d56e080f6386214",
          "blockNumber": "0x9e6ea8",
          "blockTimestamp": "0x69a83e1c",
          "transactionHash": "0x1304f4e63996294a3abfca886e80a135e6c5e4deb5c97e294c9cd5e225db12bf",
          "transactionIndex": "0x98",
          "logIndex": "0xd3",
          "removed": false
        },
        {
          "address": "0x15a1b1984c291a0117c99bc03c5d13225fa7880b",
          "topics": [
            "0x30f6180e248310ab0c789da3026fbba7390872be072cfc5b3c20733f3a980c9e",
            "0x00000000000000000000000010db2e70118e5fbeda30391ec957e608c9e4517e",
            "0x000000000000000000000000bb46678a1f6c527bd79ecfbf85332b8ae83ceaf1"
          ],
          "data": "0x000000000000000000000000000000000000000000034f086f3b33b684000000",
          "blockHash": "0xff7d5848b3a8053d4968cfea4d272c23abafd55f49aae8456d56e080f6386214",
          "blockNumber": "0x9e6ea8",
          "blockTimestamp": "0x69a83e1c",
          "transactionHash": "0x1304f4e63996294a3abfca886e80a135e6c5e4deb5c97e294c9cd5e225db12bf",
          "transactionIndex": "0x98",
          "logIndex": "0xd4",
          "removed": false
        }
      ],
      "logsBloom": "0x00000000000000080000000000000000000000000000000000000000000000000000000000000000000000000000200000000000000000000008000000000000000000000000000000400008000000000000000000000000000000000000000000000000000000000000000000000000000000000000000000000010000000000100000008000001000000000000000000000000000000000000000000000000000000000000000000000000000000000000000040000000000000000000000000000002000001000000000041001001000800008000000000000000000000000000000000000000000080000000000000000010000000000000000400000000",
      "type": "0x2",
      "transactionHash": "0x1304f4e63996294a3abfca886e80a135e6c5e4deb5c97e294c9cd5e225db12bf",
      "transactionIndex": "0x98",
      "blockHash": "0xff7d5848b3a8053d4968cfea4d272c23abafd55f49aae8456d56e080f6386214",
      "blockNumber": "0x9e6ea8",
      "gasUsed": "0x1a8d6",
      "effectiveGasPrice": "0xf424b",
      "from": "0x10db2e70118e5fbeda30391ec957e608c9e4517e",
      "to": "0x15a1b1984c291a0117c99bc03c5d13225fa7880b",
      "contractAddress": null
    }
  ],
  "libraries": [],
  "pending": [],
  "returns": {},
  "timestamp": 1772633629698,
  "chain": 11155111,
  "commit": "7621ae8"
}