{
  "transactions": [
    {
      "hash": "0x03454381a67da766e7fdaeaf1cec4a5e06511a59494903473d419c5d80990fe3",
      "transactionType": "CALL",
      "contractName": null,
      "contractAddress": "0xbb46678a1f6c527bd79ecfbf85332b8ae83ceaf1",
      "function": null,
      "arguments": null,
      "transaction": {
        "from": "0x993461bbf7e553eb5bd1f5248a72b524c4a3b15d",
        "to": "0xbb46678a1f6c527bd79ecfbf85332b8ae83ceaf1",
        "gas": "0xc681",
        "value": "0x0",
        "input": "0x40c10f19000000000000000000000000474b4e7fd1a143edea6b77aa845f429d443e6410000000000000000000000000000000000000000000034f086f3b33b684000000",
        "nonce": "0x30f",
        "chainId": "0xaa36a7"
      },
      "additionalContracts": [],
      "isFixedGasLimit": false
    },
    {
      "hash": "0x831d3ae8d630fe1a62d24626bcf66bb0beea87494a36e617d7eb59069f1beab7",
      "transactionType": "CALL",
      "contractName": null,
      "contractAddress": "0xbb46678a1f6c527bd79ecfbf85332b8ae83ceaf1",
      "function": null,
      "arguments": null,
      "transaction": {
        "from": "0x993461bbf7e553eb5bd1f5248a72b524c4a3b15d",
        "to": "0xbb46678a1f6c527bd79ecfbf85332b8ae83ceaf1",
        "gas": "0xc681",
        "value": "0x0",
        "input": "0x40c10f19000000000000000000000000f68d9e0faa751ad61e0ed70852798bf9d9c04bf7000000000000000000000000000000000000000000034f086f3b33b684000000",
        "nonce": "0x310",
        "chainId": "0xaa36a7"
      },
      "additionalContracts": [],
      "isFixedGasLimit": false
    },
    {
      "hash": "0x18f53c082ae9d3a35b3e2865a3f152284fb4233231f1457f38aa8401c0de4553",
      "transactionType": "CALL",
      "contractName": null,
      "contractAddress": "0xbb46678a1f6c527bd79ecfbf85332b8ae83ceaf1",
      "function": null,
      "arguments": null,
      "transaction": {
        "from": "0x993461bbf7e553eb5bd1f5248a72b524c4a3b15d",
        "to": "0xbb46678a1f6c527bd79ecfbf85332b8ae83ceaf1",
        "gas": "0xc681",
        "value": "0x0",
        "input": "0x40c10f1900000000000000000000000010db2e70118e5fbeda30391ec957e608c9e4517e000000000000000000000000000000000000000000034f086f3b33b684000000",
        "nonce": "0x311",
        "chainId": "0xaa36a7"
      },
      "additionalContracts": [],
      "isFixedGasLimit": false
    },
    {
      "hash": "0x71ff386727d310ce652c6a667b963b40067ce922576558ca524df2d5b7146b70",
      "transactionType": "CALL",
      "contractName": null,
      "contractAddress": "0xbb46678a1f6c527bd79ecfbf85332b8ae83ceaf1",
      "function": "approve(address,uint256)",
      "arguments": [
        "0x354fE33d92A632188121C22bEdF6bC7D2C79d979",
        "4000000000000000000000000"
      ],
      "transaction": {
        "from": "0x474b4e7fd1a143edea6b77aa845f429d443e6410",
        "to": "0xbb46678a1f6c527bd79ecfbf85332b8ae83ceaf1",
        "gas": "0xfd53",
        "value": "0x0",
        "input": "0x095ea7b3000000000000000000000000354fe33d92a632188121c22bedf6bc7d2c79d979000000000000000000000000000000000000000000034f086f3b33b684000000",
        "nonce": "0x32",
        "chainId": "0xaa36a7"
      },
      "additionalContracts": [],
      "isFixedGasLimit": false
    },
    {
      "hash": "0xc203bcb2a0ba6b831497d37d9c15b9f4eb32c7268958a49ab5b697103311ae03",
      "transactionType": "CALL",
      "contractName": "MarginVault",
      "contractAddress": "0x354fe33d92a632188121c22bedf6bc7d2c79d979",
      "function": "depositMargin(bytes32,address,uint256)",
      "arguments": [
        "0x000000000000000000000000474b4e7fd1a143edea6b77aa845f429d443e6410",
        "0xbb46678a1F6C527bD79eCFBF85332B8Ae83ceaf1",
        "4000000000000000000000000"
      ],
      "transaction": {
        "from": "0x474b4e7fd1a143edea6b77aa845f429d443e6410",
        "to": "0x354fe33d92a632188121c22bedf6bc7d2c79d979",
        "gas": "0x2cf03",
        "value": "0x0",
        "input": "0x6812d315000000000000000000000000474b4e7fd1a143edea6b77aa845f429d443e6410000000000000000000000000bb46678a1f6c527bd79ecfbf85332b8ae83ceaf1000000000000000000000000000000000000000000034f086f3b33b684000000",
        "nonce": "0x33",
        "chainId": "0xaa36a7"
      },
      "additionalContracts": [],
      "isFixedGasLimit": false
    },
    {
      "hash": "0x5a0d6b3c6673480e48800a2b072a577af80311240d2c83e9805db696fdcc7466",
      "transactionType": "CALL",
      "contractName": null,
      "contractAddress": "0xbb46678a1f6c527bd79ecfbf85332b8ae83ceaf1",
      "function": "approve(address,uint256)",
      "arguments": [
        "0x354fE33d92A632188121C22bEdF6bC7D2C79d979",
        "4000000000000000000000000"
      ],
      "transaction": {
        "from": "0xf68d9e0faa751ad61e0ed70852798bf9d9c04bf7",
        "to": "0xbb46678a1f6c527bd79ecfbf85332b8ae83ceaf1",
        "gas": "0xfd53",
        "value": "0x0",
        "input": "0x095ea7b3000000000000000000000000354fe33d92a632188121c22bedf6bc7d2c79d979000000000000000000000000000000000000000000034f086f3b33b684000000",
        "nonce": "0x31",
        "chainId": "0xaa36a7"
      },
      "additionalContracts": [],
      "isFixedGasLimit": false
    },
    {
      "hash": "0xbec38caddbd0deee091cca932c8629bd1a7caaa014495bb648b2a1a1de2d7d8f",
      "transactionType": "CALL",
      "contractName": "MarginVault",
      "contractAddress": "0x354fe33d92a632188121c22bedf6bc7d2c79d979",
      "function": "depositMargin(bytes32,address,uint256)",
      "arguments": [
        "0x000000000000000000000000f68d9e0faa751ad61e0ed70852798bf9d9c04bf7",
        "0xbb46678a1F6C527bD79eCFBF85332B8Ae83ceaf1",
        "4000000000000000000000000"
      ],
      "transaction": {
        "from": "0xf68d9e0faa751ad61e0ed70852798bf9d9c04bf7",
        "to": "0x354fe33d92a632188121c22bedf6bc7d2c79d979",
        "gas": "0x24acd",
        "value": "0x0",
        "input": "0x6812d315000000000000000000000000f68d9e0faa751ad61e0ed70852798bf9d9c04bf7000000000000000000000000bb46678a1f6c527bd79ecfbf85332b8ae83ceaf1000000000000000000000000000000000000000000034f086f3b33b684000000",
        "nonce": "0x32",
        "chainId": "0xaa36a7"
      },
      "additionalContracts": [],
      "isFixedGasLimit": false
    },
    {
      "hash": "0xe072c68d48891f6dd1bcd29af4ad29b04eff4a1a9cc5fc9de053f825925cff3b",
      "transactionType": "CALL",
      "contractName": null,
      "contractAddress": "0xbb46678a1f6c527bd79ecfbf85332b8ae83ceaf1",
      "function": "approve(address,uint256)",
      "arguments": [
        "0x354fE33d92A632188121C22bEdF6bC7D2C79d979",
        "4000000000000000000000000"
      ],
      "transaction": {
        "from": "0x10db2e70118e5fbeda30391ec957e608c9e4517e",
        "to": "0xbb46678a1f6c527bd79ecfbf85332b8ae83ceaf1",
        "gas": "0xfd53",
        "value": "0x0",
        "input": "0x095ea7b3000000000000000000000000354fe33d92a632188121c22bedf6bc7d2c79d979000000000000000000000000000000000000000000034f086f3b33b684000000",
        "nonce": "0x0",
        "chainId": "0xaa36a7"
      },
      "additionalContracts": [],
      "isFixedGasLimit": false
    },
    {
      "hash": "0xe32f07b092d03f7309a5544ad31187257012b15af5433685b7ad232017298935",
      "transactionType": "CALL",
      "contractName": "MarginVault",
      "contractAddress": "0x354fe33d92a632188121c22bedf6bc7d2c79d979",
      "function": "depositMargin(bytes32,address,uint256)",
      "arguments": [
        "0x00000000000000000000000010db2e70118e5fbeda30391ec957e608c9e4517e",
        "0xbb46678a1F6C527bD79eCFBF85332B8Ae83ceaf1",
        "4000000000000000000000000"
      ],
      "transaction": {
        "from": "0x10db2e70118e5fbeda30391ec957e608c9e4517e",
        "to": "0x354fe33d92a632188121c22bedf6bc7d2c79d979",
        "gas": "0x24acd",
        "value": "0x0",
        "input": "0x6812d31500000000000000000000000010db2e70118e5fbeda30391ec957e608c9e4517e000000000000000000000000bb46678a1f6c527bd79ecfbf85332b8ae83ceaf1000000000000000000000000000000000000000000034f086f3b33b684000000",
        "nonce": "0x1",
        "chainId": "0xaa36a7"
      },
      "additionalContracts": [],
      "isFixedGasLimit": false
    }
  ],
  "receipts": [
    {
      "status": "0x1",
      "cumulativeGasUsed": "0x1cd9acd",
      "logs": [
        {
          "address": "0xbb46678a1f6c527bd79ecfbf85332b8ae83ceaf1",
          "topics": [
            "0xddf252ad1be2c89b69c2b068fc378daa952ba7f163c4a11628f55a4df523b3ef",
            "0x0000000000000000000000000000000000000000000000000000000000000000",
            "0x000000000000000000000000474b4e7fd1a143edea6b77aa845f429d443e6410"
          ],
          "data": "0x000000000000000000000000000000000000000000034f086f3b33b684000000",
          "blockHash": "0x62e09f70f224c3431aea942ad84af455e94ef0d33568aa4021b09c623b0b0456",
          "blockNumber": "0x9e6a25",
          "blockTimestamp": "0x69a80654",
          "transactionHash": "0x03454381a67da766e7fdaeaf1cec4a5e06511a59494903473d419c5d80990fe3",
          "transactionIndex": "0x10c",
          "logIndex": "0x244",
          "removed": false
        }
      ],
      "logsBloom": "0x00000000000000000000000000000000000000000000000000000000000000000000000000000000000000000000000000000000000000000000000000000000000000000000000000000008000000000000000000000000000000000000000000400000020000000000000000000800000000000000000000000010000000000100000008000000000000000000000000000000000000000000000000000000000000000000000000000000000000000000000000000000000100000000000000000002000000000000000000000000000000008000000000000010000020000000000000000000000000000000000000000000000000000000000000000000",
      "type": "0x2",
      "transactionHash": "0x03454381a67da766e7fdaeaf1cec4a5e06511a59494903473d419c5d80990fe3",
      "transactionIndex": "0x10c",
      "blockHash": "0x62e09f70f224c3431aea942ad84af455e94ef0d33568aa4021b09c623b0b0456",
      "blockNumber": "0x9e6a25",
      "gasUsed": "0x87bb",
      "effectiveGasPrice": "0xf424b",
      "from": "0x993461bbf7e553eb5bd1f5248a72b524c4a3b15d",
      "to": "0xbb46678a1f6c527bd79ecfbf85332b8ae83ceaf1",
      "contractAddress": null
    },
    {
      "status": "0x1",
      "cumulativeGasUsed": "0xaac53c",
      "logs": [
        {
          "address": "0xbb46678a1f6c527bd79ecfbf85332b8ae83ceaf1",
          "topics": [
            "0xddf252ad1be2c89b69c2b068fc378daa952ba7f163c4a11628f55a4df523b3ef",
            "0x0000000000000000000000000000000000000000000000000000000000000000",
            "0x000000000000000000000000f68d9e0faa751ad61e0ed70852798bf9d9c04bf7"
          ],
          "data": "0x000000000000000000000000000000000000000000034f086f3b33b684000000",
          "blockHash": "0xb4c5296ba4f053c4d5ef20a61b83211999163ce4c16a3da0888dd325a07be966",
          "blockNumber": "0x9e6a26",
          "blockTimestamp": "0x69a80660",
          "transactionHash": "0x831d3ae8d630fe1a62d24626bcf66bb0beea87494a36e617d7eb59069f1beab7",
          "transactionIndex": "0x54",
          "logIndex": "0x7b",
          "removed": false
        }
      ],
      "logsBloom": "0x00000000000000000000000000000000000000000000000000000000000000800000000000000000000000000000000000000000000000000000000000000000000000000000000000000008000000000000000000000000000000000000000000000000020000000000000000000800000000000000000000000010000000000100000008000000000000000000000000000000000000000000000000000000000000000000000000000000000000000400000000000000000000000000000000000002000000000000000000000001000000008000000000000000000020000000000000000000000000000000000000000000000000000000000000000000",
      "type": "0x2",
      "transactionHash": "0x831d3ae8d630fe1a62d24626bcf66bb0beea87494a36e617d7eb59069f1beab7",
      "transactionIndex": "0x54",
      "blockHash": "0xb4c5296ba4f053c4d5ef20a61b83211999163ce4c16a3da0888dd325a07be966",
      "blockNumber": "0x9e6a26",
      "gasUsed": "0x87bb",
      "effectiveGasPrice": "0xf424c",
      "from": "0x993461bbf7e553eb5bd1f5248a72b524c4a3b15d",
      "to": "0xbb46678a1f6c527bd79ecfbf85332b8ae83ceaf1",
      "contractAddress": null
    },
    {
      "status": "0x1",
      "cumulativeGasUsed": "0x1521e9e",
      "logs": [
        {
          "address": "0xbb46678a1f6c527bd79ecfbf85332b8ae83ceaf1",
          "topics": [
            "0xddf252ad1be2c89b69c2b068fc378daa952ba7f163c4a11628f55a4df523b3ef",
            "0x0000000000000000000000000000000000000000000000000000000000000000",
            "0x00000000000000000000000010db2e70118e5fbeda30391ec957e608c9e4517e"
          ],
          "data": "0x000000000000000000000000000000000000000000034f086f3b33b684000000",
          "blockHash": "0x34664e9bd660f68ae497ecdc14a6f2dd4e81bb188b1b326db8d5f3c3428e9ee4",
          "blockNumber": "0x9e6a27",
          "blockTimestamp": "0x69a8066c",
          "transactionHash": "0x18f53c082ae9d3a35b3e2865a3f152284fb4233231f1457f38aa8401c0de4553",
          "transactionIndex": "0x79",
          "logIndex": "0x12e",
          "removed": false
        }
      ],
      "logsBloom": "0x00000000000000000000000000000000000000000000000000000000000000000000000000000000000000000000000000000000000000000000000000000000000000000000000000000008000000000000000000000000000000000000000000000000020000000000000000000800000000000000000000000010000000000100000008000000000000000000000000000000000000000000000000000000000000000000000000000000000000000000000000000000000000000000000000000002000000000000000041000000000000008000000000000000000020000000000000000000000080000000000000000000000000000000000000000000",
      "type": "0x2",
      "transactionHash": "0x18f53c082ae9d3a35b3e2865a3f152284fb4233231f1457f38aa8401c0de4553",
      "transactionIndex": "0x79",
      "blockHash": "0x34664e9bd660f68ae497ecdc14a6f2dd4e81bb188b1b326db8d5f3c3428e9ee4",
      "blockNumber": "0x9e6a27",
      "gasUsed": "0x87bb",
      "effectiveGasPrice": "0xf424c",
      "from": "0x993461bbf7e553eb5bd1f5248a72b524c4a3b15d",
      "to": "0xbb46678a1f6c527bd79ecfbf85332b8ae83ceaf1",
      "contractAddress": null
    },
    {
      "status": "0x1",
      "cumulativeGasUsed": "0x12f0993",
      "logs": [
        {
          "address": "0xbb46678a1f6c527bd79ecfbf85332b8ae83ceaf1",
          "topics": [
            "0x8c5be1e5ebec7d5bd14f71427d1e84f3dd0314c0f7b2291e5b200ac8c7c3b925",
            "0x000000000000000000000000474b4e7fd1a143edea6b77aa845f429d443e6410",
            "0x000000000000000000000000354fe33d92a632188121c22bedf6bc7d2c79d979"
          ],
          "data": "0x000000000000000000000000000000000000000000034f086f3b33b684000000",
          "blockHash": "0x1da8f36f33d9ece6b050f2cf016baf9b8bc7f4bfb4f62157771ee43de65a49e7",
          "blockNumber": "0x9e6a28",
          "blockTimestamp": "0x69a80678",
          "transactionHash": "0x71ff386727d310ce652c6a667b963b40067ce922576558ca524df2d5b7146b70",
          "transactionIndex": "0x61",
          "logIndex": "0xf8",
          "removed": false
        }
      ],
      "logsBloom": "0x00000000000000000000000000000000000000000000000000000000000000000000000000000000000000000000000000000000000000000000000000200000000000000000000000000000000000080000000000000000000000000000000000400000000000010000000000000000000000000000000000000000000000000100000008000000000000000000000000000000000000000000000000000000020000000000000000000000000000000000000000000000000100000000000000000000004000000000000000000000000000008000000000000010000000000010000000000000000000000000000000000000000000000000000000000000",
      "type": "0x2",
      "transactionHash": "0x71ff386727d310ce652c6a667b963b40067ce922576558ca524df2d5b7146b70",
      "transactionIndex": "0x61",
      "blockHash": "0x1da8f36f33d9ece6b050f2cf016baf9b8bc7f4bfb4f62157771ee43de65a49e7",
      "blockNumber": "0x9e6a28",
      "gasUsed": "0xb768",
      "effectiveGasPrice": "0xf424c",
      "from": "0x474b4e7fd1a143edea6b77aa845f429d443e6410",
      "to": "0xbb46678a1f6c527bd79ecfbf85332b8ae83ceaf1",
      "contractAddress": null
    },
    {
      "status": "0x1",
      "cumulativeGasUsed": "0xb5539e",
      "logs": [
        {
          "address": "0xbb46678a1f6c527bd79ecfbf85332b8ae83ceaf1",
          "topics": [
            "0xddf252ad1be2c89b69c2b068fc378daa952ba7f163c4a11628f55a4df523b3ef",
            "0x000000000000000000000000474b4e7fd1a143edea6b77aa845f429d443e6410",
            "0x000000000000000000000000354fe33d92a632188121c22bedf6bc7d2c79d979"
          ],
          "data": "0x000000000000000000000000000000000000000000034f086f3b33b684000000",
          "blockHash": "0x47402cdfe92b90dd883a214d03d34460bd25438dd18a8ec0c30addb1779d01ab",
          "blockNumber": "0x9e6a29",
          "blockTimestamp": "0x69a80684",
          "transactionHash": "0xc203bcb2a0ba6b831497d37d9c15b9f4eb32c7268958a49ab5b697103311ae03",
          "transactionIndex": "0x5a",
          "logIndex": "0x86",
          "removed": false
        },
        {
          "address": "0x354fe33d92a632188121c22bedf6bc7d2c79d979",
          "topics": [
            "0x30f6180e248310ab0c789da3026fbba7390872be072cfc5b3c20733f3a980c9e",
            "0x000000000000000000000000474b4e7fd1a143edea6b77aa845f429d443e6410",
            "0x000000000000000000000000bb46678a1f6c527bd79ecfbf85332b8ae83ceaf1"
          ],
          "data": "0x000000000000000000000000000000000000000000034f086f3b33b684000000",
          "blockHash": "0x47402cdfe92b90dd883a214d03d34460bd25438dd18a8ec0c30addb1779d01ab",
          "blockNumber": "0x9e6a29",
          "blockTimestamp": "0x69a80684",
          "transactionHash": "0xc203bcb2a0ba6b831497d37d9c15b9f4eb32c7268958a49ab5b697103311ae03",
          "transactionIndex": "0x5a",
          "logIndex": "0x87",
          "removed": false
        }
      ],
      "logsBloom": "0x00000000000000000000000000000000000000000000000010000000000000000000000000000000000000000000000000000000000000000000000000000000000000000000000000000008000000080000000000000000000000000000000000400000000000010000000000000000000000000000008000000010000000000100000008000001000000000000000000000000000000000000000000000000000000000000000000000000000000000000000040000000000100000000000000000002004001000000000000000001000800008000000000000010000000000008000000000000000000000000000000000000000000000000000400000000",
      "type": "0x2",
      "transactionHash": "0xc203bcb2a0ba6b831497d37d9c15b9f4eb32c7268958a49ab5b697103311ae03",
      "transactionIndex": "0x5a",
      "blockHash": "0x47402cdfe92b90dd883a214d03d34460bd25438dd18a8ec0c30addb1779d01ab",
      "blockNumber": "0x9e6a29",
      "gasUsed": "0x1eba2",
      "effectiveGasPrice": "0xf424c",
      "from": "0x474b4e7fd1a143edea6b77aa845f429d443e6410",
      "to": "0x354fe33d92a632188121c22bedf6bc7d2c79d979",
      "contractAddress": null
    },
    {
      "status": "0x1",
      "cumulativeGasUsed": "0xadd033",
      "logs": [
        {
          "address": "0xbb46678a1f6c527bd79ecfbf85332b8ae83ceaf1",
          "topics": [
            "0x8c5be1e5ebec7d5bd14f71427d1e84f3dd0314c0f7b2291e5b200ac8c7c3b925",
            "0x000000000000000000000000f68d9e0faa751ad61e0ed70852798bf9d9c04bf7",
            "0x000000000000000000000000354fe33d92a632188121c22bedf6bc7d2c79d979"
          ],
          "data": "0x000000000000000000000000000000000000000000034f086f3b33b684000000",
          "blockHash": "0x84a964b22766c5f5a38a206147e4f49b02c6e0f5440743e2335b88b5b20dd2d6",
          "blockNumber": "0x9e6a2a",
          "blockTimestamp": "0x69a80690",
          "transactionHash": "0x5a0d6b3c6673480e48800a2b072a577af80311240d2c83e9805db696fdcc7466",
          "transactionIndex": "0x7f",
          "logIndex": "0xda",
          "removed": false
        }
      ],
      "logsBloom": "0x00000000000000000000000000000000000000000000000000000000000000800000000000000000000000000000000000000000000000000000000000200000000000000000000000000000000000080000000000000000000000000000000000000000000000010000000000000000000000000000000000000000000000000100000008000000000000000000000000000000000000000000000000000000020000000000000000000000000000000400000000000000000000000000000000000000004000000000000000000001000000008000000000000000000000000010000000000000000000000000000000000000000000000000000000000000",
      "type": "0x2",
      "transactionHash": "0x5a0d6b3c6673480e48800a2b072a577af80311240d2c83e9805db696fdcc7466",
      "transactionIndex": "0x7f",
      "blockHash": "0x84a964b22766c5f5a38a206147e4f49b02c6e0f5440743e2335b88b5b20dd2d6",
      "blockNumber": "0x9e6a2a",
      "gasUsed": "0xb768",
      "effectiveGasPrice": "0xf424c",
      "from": "0xf68d9e0faa751ad61e0ed70852798bf9d9c04bf7",
      "to": "0xbb46678a1f6c527bd79ecfbf85332b8ae83ceaf1",
      "contractAddress": null
    },
    {
      "status": "0x1",
      "cumulativeGasUsed": "0x860e5f",
      "logs": [
        {
          "address": "0xbb46678a1f6c527bd79ecfbf85332b8ae83ceaf1",
          "topics": [
            "0xddf252ad1be2c89b69c2b068fc378daa952ba7f163c4a11628f55a4df523b3ef",
            "0x000000000000000000000000f68d9e0faa751ad61e0ed70852798bf9d9c04bf7",
            "0x000000000000000000000000354fe33d92a632188121c22bedf6bc7d2c79d979"
          ],
          "data": "0x000000000000000000000000000000000000000000034f086f3b33b684000000",
          "blockHash": "0xdb049820ee2ae085efa9b923a085e88a3cbdfbdc35a7e4cef1617697b0bcf2d2",
          "blockNumber": "0x9e6a2b",
          "blockTimestamp": "0x69a8069c",
          "transactionHash": "0xbec38caddbd0deee091cca932c8629bd1a7caaa014495bb648b2a1a1de2d7d8f",
          "transactionIndex": "0x5e",
          "logIndex": "0x97",
          "removed": false
        },
        {
          "address": "0x354fe33d92a632188121c22bedf6bc7d2c79d979",
          "topics": [
            "0x30f6180e248310ab0c789da3026fbba7390872be072cfc5b3c20733f3a980c9e",
            "0x000000000000000000000000f68d9e0faa751ad61e0ed70852798bf9d9c04bf7",
            "0x000000000000000000000000bb46678a1f6c527bd79ecfbf85332b8ae83ceaf1"
          ],
          "data": "0x000000000000000000000000000000000000000000034f086f3b33b684000000",
          "blockHash": "0xdb049820ee2ae085efa9b923a085e88a3cbdfbdc35a7e4cef1617697b0bcf2d2",
          "blockNumber": "0x9e6a2b",
          "blockTimestamp": "0x69a8069c",
          "transactionHash": "0xbec38caddbd0deee091cca932c8629bd1a7caaa014495bb648b2a1a1de2d7d8f",
          "transactionIndex": "0x5e",
          "logIndex": "0x98",
          "removed": false
        }
      ],
      "logsBloom": "0x00000000000000000000000000000000000000000000000010000000000000800000000000000000000000000000000000000000000000000000000000000000000000000000000000000008000000080000000000000000000000000000000000000000000000010000000000000000000000000000008000000010000000000100000008000001000000000000000000000000000000000000000000000000000000000000000000000000000000000400000040000000000000000000000000000002004001000000000000000001000800008000000000000000000000000008000000000000000000000000000000000000000000000000000400000000",
      "type": "0x2",
      "transactionHash": "0xbec38caddbd0deee091cca932c8629bd1a7caaa014495bb648b2a1a1de2d7d8f",
      "transactionIndex": "0x5e",
      "blockHash": "0xdb049820ee2ae085efa9b923a085e88a3cbdfbdc35a7e4cef1617697b0bcf2d2",
      "blockNumber": "0x9e6a2b",
      "gasUsed": "0x1a8d6",
      "effectiveGasPrice": "0xf424c",
      "from": "0xf68d9e0faa751ad61e0ed70852798bf9d9c04bf7",
      "to": "0x354fe33d92a632188121c22bedf6bc7d2c79d979",
      "contractAddress": null
    },
    {
      "status": "0x1",
      "cumulativeGasUsed": "0x724a6e",
      "logs": [
        {
          "address": "0xbb46678a1f6c527bd79ecfbf85332b8ae83ceaf1",
          "topics": [
            "0x8c5be1e5ebec7d5bd14f71427d1e84f3dd0314c0f7b2291e5b200ac8c7c3b925",
            "0x00000000000000000000000010db2e70118e5fbeda30391ec957e608c9e4517e",
            "0x000000000000000000000000354fe33d92a632188121c22bedf6bc7d2c79d979"
          ],
          "data": "0x000000000000000000000000000000000000000000034f086f3b33b684000000",
          "blockHash": "0xef89cbd4e200753d4d47b8e524a82273d1d27d4b1469f7ec2db84ac176b5d29e",
          "blockNumber": "0x9e6a2c",
          "blockTimestamp": "0x69a806a8",
          "transactionHash": "0xe072c68d48891f6dd1bcd29af4ad29b04eff4a1a9cc5fc9de053f825925cff3b",
          "transactionIndex": "0x65",
          "logIndex": "0x87",
          "removed": false
        }
      ],
      "logsBloom": "0x00000000000000000000000000000000000000000000000000000000000000000000000000000000000000000000000000000000000000000000000000200000000000000000000000000000000000080000000000000000000000000000000000000000000000010000000000000000000000000000000000000000000000000100000008000000000000000000000000000000000000000000000000000000020000000000000000000000000000000000000000000000000000000000000000000000004000000000000041000000000000008000000000000000000000000010000000000000000080000000000000000000000000000000000000000000",
      "type": "0x2",
      "transactionHash": "0xe072c68d48891f6dd1bcd29af4ad29b04eff4a1a9cc5fc9de053f825925cff3b",
      "transactionIndex": "0x65",
      "blockHash": "0xef89cbd4e200753d4d47b8e524a82273d1d27d4b1469f7ec2db84ac176b5d29e",
      "blockNumber": "0x9e6a2c",
      "gasUsed": "0xb768",
      "effectiveGasPrice": "0xf424c",
      "from": "0x10db2e70118e5fbeda30391ec957e608c9e4517e",
      "to": "0xbb46678a1f6c527bd79ecfbf85332b8ae83ceaf1",
      "contractAddress": null
    },
    {
      "status": "0x1",
      "cumulativeGasUsed": "0xb4d1ee",
      "logs": [
        {
          "address": "0xbb46678a1f6c527bd79ecfbf85332b8ae83ceaf1",
          "topics": [
            "0xddf252ad1be2c89b69c2b068fc378daa952ba7f163c4a11628f55a4df523b3ef",
            "0x00000000000000000000000010db2e70118e5fbeda30391ec957e608c9e4517e",
            "0x000000000000000000000000354fe33d92a632188121c22bedf6bc7d2c79d979"
          ],
          "data": "0x000000000000000000000000000000000000000000034f086f3b33b684000000",
          "blockHash": "0x515b92a993a27faff216461fda13d48a923e9afcdcb46bd3e88207518e1ed59b",
          "blockNumber": "0x9e6a2d",
          "blockTimestamp": "0x69a806b4",
          "transactionHash": "0xe32f07b092d03f7309a5544ad31187257012b15af5433685b7ad232017298935",
          "transactionIndex": "0x53",
          "logIndex": "0xae",
          "removed": false
        },
        {
          "address": "0x354fe33d92a632188121c22bedf6bc7d2c79d979",
          "topics": [
            "0x30f6180e248310ab0c789da3026fbba7390872be072cfc5b3c20733f3a980c9e",
            "0x00000000000000000000000010db2e70118e5fbeda30391ec957e608c9e4517e",
            "0x000000000000000000000000bb46678a1f6c527bd79ecfbf85332b8ae83ceaf1"
          ],
          "data": "0x000000000000000000000000000000000000000000034f086f3b33b684000000",
          "blockHash": "0x515b92a993a27faff216461fda13d48a923e9afcdcb46bd3e88207518e1ed59b",
          "blockNumber": "0x9e6a2d",
          "blockTimestamp": "0x69a806b4",
          "transactionHash": "0xe32f07b092d03f7309a5544ad31187257012b15af5433685b7ad232017298935",
          "transactionIndex": "0x53",
          "logIndex": "0xaf",
          "removed": false
        }
      ],
      "logsBloom": "0x00000000000000000000000000000000000000000000000010000000000000000000000000000000000000000000000000000000000000000000000000000000000000000000000000000008000000080000000000000000000000000000000000000000000000010000000000000000000000000000008000000010000000000100000008000001000000000000000000000000000000000000000000000000000000000000000000000000000000000000000040000000000000000000000000000002004001000000000041000001000800008000000000000000000000000008000000000000000080000000000000000000000000000000000400000000",
      "type": "0x2",
      "transactionHash": "0xe32f07b092d03f7309a5544ad31187257012b15af5433685b7ad232017298935",
      "transactionIndex": "0x53",
      "blockHash": "0x515b92a993a27faff216461fda13d48a923e9afcdcb46bd3e88207518e1ed59b",
      "blockNumber": "0x9e6a2d",
      "gasUsed": "0x1a8d6",
      "effectiveGasPrice": "0xf424c",
      "from": "0x10db2e70118e5fbeda30391ec957e608c9e4517e",
      "to": "0x354fe33d92a632188121c22bedf6bc7d2c79d979",
      "contractAddress": null
    }
  ],
  "libraries": [],
  "pending": [],
  "returns": {},
  "timestamp": 1772619445086,
  "chain": 11155111,
  "commit": "26cfe68"
}