{
  "transactions": [
    {
      "hash": "0xeae04c9bd002a9829bd94e6fa39fe9236dcd3cca8ea157deb6e72806f72e3419",
      "transactionType": "CALL",
      "contractName": "MarginVault",
      "contractAddress": "0xcb275374df701324033958067d3bf1aacc7551bd",
      "function": "withdrawMargin(bytes32,address,uint256,address)",
      "arguments": [
        "0x000000000000000000000000474b4e7fd1a143edea6b77aa845f429d443e6410",
        "0xbb46678a1F6C527bD79eCFBF85332B8Ae83ceaf1",
        "3995200000000000000000000",
        "0x474B4E7FD1A143eDea6b77aa845F429D443E6410"
      ],
      "transaction": {
        "from": "0x474b4e7fd1a143edea6b77aa845f429d443e6410",
        "to": "0xcb275374df701324033958067d3bf1aacc7551bd",
        "gas": "0x19a26",
        "value": "0x0",
        "input": "0xe0a88ebd000000000000000000000000474b4e7fd1a143edea6b77aa845f429d443e6410000000000000000000000000bb46678a1f6c527bd79ecfbf85332b8ae83ceaf1000000000000000000000000000000000000000000034e0439d98b33f1000000000000000000000000000000474b4e7fd1a143edea6b77aa845f429d443e6410",
        "nonce": "0x5f",
        "chainId": "0xaa36a7"
      },
      "additionalContracts": [],
      "isFixedGasLimit": false
    },
    {
      "hash": "0xa9c9b420eb6ffcb63817f737c22b18650f31b0684bf3d2a1f0ccee4cffa680e7",
      "transactionType": "CALL",
      "contractName": "MarginVault",
      "contractAddress": "0xcb275374df701324033958067d3bf1aacc7551bd",
      "function": "withdrawMargin(bytes32,address,uint256,address)",
      "arguments": [
        "0x000000000000000000000000f68d9e0faa751ad61e0ed70852798bf9d9c04bf7",
        "0xbb46678a1F6C527bD79eCFBF85332B8Ae83ceaf1",
        "3965200000000000000000000",
        "0xf68D9e0fAa751AD61e0ED70852798bF9D9C04bF7"
      ],
      "transaction": {
        "from": "0xf68d9e0faa751ad61e0ed70852798bf9d9c04bf7",
        "to": "0xcb275374df701324033958067d3bf1aacc7551bd",
        "gas": "0x1836c",
        "value": "0x0",
        "input": "0xe0a88ebd000000000000000000000000f68d9e0faa751ad61e0ed70852798bf9d9c04bf7000000000000000000000000bb46678a1f6c527bd79ecfbf85332b8ae83ceaf10000000000000000000000000000000000000000000347a9ec372e03da400000000000000000000000000000f68d9e0faa751ad61e0ed70852798bf9d9c04bf7",
        "nonce": "0x5d",
        "chainId": "0xaa36a7"
      },
      "additionalContracts": [],
      "isFixedGasLimit": false
    }
  ],
  "receipts": [
    {
      "status": "0x1",
      "cumulativeGasUsed": "0x7477f2",
      "logs": [
        {
          "address": "0xbb46678a1f6c527bd79ecfbf85332b8ae83ceaf1",
          "topics": [
            "0xddf252ad1be2c89b69c2b068fc378daa952ba7f163c4a11628f55a4df523b3ef",
            "0x000000000000000000000000cb275374df701324033958067d3bf1aacc7551bd",
            "0x000000000000000000000000474b4e7fd1a143edea6b77aa845f429d443e6410"
          ],
          "data": "0x000000000000000000000000000000000000000000034e0439d98b33f1000000",
          "blockHash": "0x4882bcf1dc5886cbe60bde3ca645797e2654e0084bb5954545376eb9946b28cf",
          "blockNumber": "0x9ea180",
          "blockTimestamp": "0x69aabe48",
          "transactionHash": "0xeae04c9bd002a9829bd94e6fa39fe9236dcd3cca8ea157deb6e72806f72e3419",
          "transactionIndex": "0x4d",
          "logIndex": "0x61",
          "removed": false
        },
        {
          "address": "0xcb275374df701324033958067d3bf1aacc7551bd",
          "topics": [
            "0x2b005b2b2dd86a46e800eb8759dd1c1d0274d7f87d24bf2e59086a870fdc034a",
            "0x000000000000000000000000474b4e7fd1a143edea6b77aa845f429d443e6410",
            "0x000000000000000000000000bb46678a1f6c527bd79ecfbf85332b8ae83ceaf1"
          ],
          "data": "0x000000000000000000000000000000000000000000034e0439d98b33f1000000",
          "blockHash": "0x4882bcf1dc5886cbe60bde3ca645797e2654e0084bb5954545376eb9946b28cf",
          "blockNumber": "0x9ea180",
          "blockTimestamp": "0x69aabe48",
          "transactionHash": "0xeae04c9bd002a9829bd94e6fa39fe9236dcd3cca8ea157deb6e72806f72e3419",
          "transactionIndex": "0x4d",
          "logIndex": "0x62",
          "removed": false
        }
      ],
      "logsBloom": "0x00000000000000000000000000000000000000000000000000000000000001000000000000020000000000000000000002000000000000000000800000000000000000000000000000000008000000000000000000000000000000000000000000400000000000000080000000000000000000000000000000000010000000000100010008000001000000000002000004000000000000000000000000000000000000000000000000000000000000000000000040000000000100000000000000000002000000000000000000000001000000008000000000000010000000000000000000000000000000000001000000000000000000000000000000000000",
      "type": "0x2",
      "transactionHash": "0xeae04c9bd002a9829bd94e6fa39fe9236dcd3cca8ea157deb6e72806f72e3419",
      "transactionIndex": "0x4d",
      "blockHash": "0x4882bcf1dc5886cbe60bde3ca645797e2654e0084bb5954545376eb9946b28cf",
      "blockNumber": "0x9ea180",
      "gasUsed": "0x11872",
      "effectiveGasPrice": "0xf879dd",
      "from": "0x474b4e7fd1a143edea6b77aa845f429d443e6410",
      "to": "0xcb275374df701324033958067d3bf1aacc7551bd",
      "contractAddress": null
    },
    {
      "status": "0x1",
      "cumulativeGasUsed": "0x63365c",
      "logs": [
        {
          "address": "0xbb46678a1f6c527bd79ecfbf85332b8ae83ceaf1",
          "topics": [
            "0xddf252ad1be2c89b69c2b068fc378daa952ba7f163c4a11628f55a4df523b3ef",
            "0x000000000000000000000000cb275374df701324033958067d3bf1aacc7551bd",
            "0x000000000000000000000000f68d9e0faa751ad61e0ed70852798bf9d9c04bf7"
          ],
          "data": "0x0000000000000000000000000000000000000000000347a9ec372e03da400000",
          "blockHash": "0xb888b2c41bf06b63415be557217599df4dc7ab7421c5aad56b1ee014a43856d7",
          "blockNumber": "0x9ea181",
          "blockTimestamp": "0x69aabe54",
          "transactionHash": "0xa9c9b420eb6ffcb63817f737c22b18650f31b0684bf3d2a1f0ccee4cffa680e7",
          "transactionIndex": "0x46",
          "logIndex": "0x4a",
          "removed": false
        },
        {
          "address": "0xcb275374df701324033958067d3bf1aacc7551bd",
          "topics": [
            "0x2b005b2b2dd86a46e800eb8759dd1c1d0274d7f87d24bf2e59086a870fdc034a",
            "0x000000000000000000000000f68d9e0faa751ad61e0ed70852798bf9d9c04bf7",
            "0x000000000000000000000000bb46678a1f6c527bd79ecfbf85332b8ae83ceaf1"
          ],
          "data": "0x0000000000000000000000000000000000000000000347a9ec372e03da400000",
          "blockHash": "0xb888b2c41bf06b63415be557217599df4dc7ab7421c5aad56b1ee014a43856d7",
          "blockNumber": "0x9ea181",
          "blockTimestamp": "0x69aabe54",
          "transactionHash": "0xa9c9b420eb6ffcb63817f737c22b18650f31b0684bf3d2a1f0ccee4cffa680e7",
          "transactionIndex": "0x46",
          "logIndex": "0x4b",
          "removed": false
        }
      ],
      "logsBloom": "0x00000000000000000000000000000000000000000000000000000000000001800000000000020000000000000000000002000000000000000000800000000000000000000000000000000008000000000000000000000000000000000000000000000000000000000080000000000000000000000000000000000010000000000100010008000001000000000002000004000000000000000000000000000000000000000000000000000000000000000400000040000000000000000000000000000002000000000000000000000001000000008000000000000000000000000000000000000000000000000001000000000000000000000000000000000000",
      "type": "0x2",
      "transactionHash": "0xa9c9b420eb6ffcb63817f737c22b18650f31b0684bf3d2a1f0ccee4cffa680e7",
      "transactionIndex": "0x46",
      "blockHash": "0xb888b2c41bf06b63415be557217599df4dc7ab7421c5aad56b1ee014a43856d7",
      "blockNumber": "0x9ea181",
      "gasUsed": "0x1187e",
      "effectiveGasPrice": "0xf82f23",
      "from": "0xf68d9e0faa751ad61e0ed70852798bf9d9c04bf7",
      "to": "0xcb275374df701324033958067d3bf1aacc7551bd",
      "contractAddress": null
    }
  ],
  "libraries": [],
  "pending": [],
  "returns": {},
  "timestamp": 1772797525040,
  "chain": 11155111,
  "commit": "bea2e8d"
}