{
  "transactions": [
    {
      "hash": "0xd67a970eef24b1c95d46a1c674607e6783e5066fc55a9064235da590c57c80e7",
      "transactionType": "CALL",
      "contractName": "MarginVault",
      "contractAddress": "0x47a45c5b6bfbc9711c40b7de3f50ed4ad70bc965",
      "function": "withdrawMargin(bytes32,address,uint256,address)",
      "arguments": [
        "0x000000000000000000000000474b4e7fd1a143edea6b77aa845f429d443e6410",
        "0xbb46678a1F6C527bD79eCFBF85332B8Ae83ceaf1",
        "3990200000000000000000000",
        "0x474B4E7FD1A143eDea6b77aa845F429D443E6410"
      ],
      "transaction": {
        "from": "0x474b4e7fd1a143edea6b77aa845f429d443e6410",
        "to": "0x47a45c5b6bfbc9711c40b7de3f50ed4ad70bc965",
        "gas": "0x1836c",
        "value": "0x0",
        "input": "0xe0a88ebd000000000000000000000000474b4e7fd1a143edea6b77aa845f429d443e6410000000000000000000000000bb46678a1f6c527bd79ecfbf85332b8ae83ceaf1000000000000000000000000000000000000000000034cf52ce9265697e00000000000000000000000000000474b4e7fd1a143edea6b77aa845f429d443e6410",
        "nonce": "0x3e",
        "chainId": "0xaa36a7"
      },
      "additionalContracts": [],
      "isFixedGasLimit": false
    },
    {
      "hash": "0x66f52498e856fe17064055f6ea98a93c0e69bd696ee2930727c1f1b17e74310a",
      "transactionType": "CALL",
      "contractName": "MarginVault",
      "contractAddress": "0x47a45c5b6bfbc9711c40b7de3f50ed4ad70bc965",
      "function": "withdrawMargin(bytes32,address,uint256,address)",
      "arguments": [
        "0x000000000000000000000000f68d9e0faa751ad61e0ed70852798bf9d9c04bf7",
        "0xbb46678a1F6C527bD79eCFBF85332B8Ae83ceaf1",
        "3970200000000000000000000",
        "0xf68D9e0fAa751AD61e0ED70852798bF9D9C04bF7"
      ],
      "transaction": {
        "from": "0xf68d9e0faa751ad61e0ed70852798bf9d9c04bf7",
        "to": "0x47a45c5b6bfbc9711c40b7de3f50ed4ad70bc965",
        "gas": "0x1836c",
        "value": "0x0",
        "input": "0xe0a88ebd000000000000000000000000f68d9e0faa751ad61e0ed70852798bf9d9c04bf7000000000000000000000000bb46678a1f6c527bd79ecfbf85332b8ae83ceaf10000000000000000000000000000000000000000000348b8f92792e133600000000000000000000000000000f68d9e0faa751ad61e0ed70852798bf9d9c04bf7",
        "nonce": "0x3d",
        "chainId": "0xaa36a7"
      },
      "additionalContracts": [],
      "isFixedGasLimit": false
    }
  ],
  "receipts": [
    {
      "status": "0x1",
      "cumulativeGasUsed": "0x2bf7a92",
      "logs": [
        {
          "address": "0xbb46678a1f6c527bd79ecfbf85332b8ae83ceaf1",
          "topics": [
            "0xddf252ad1be2c89b69c2b068fc378daa952ba7f163c4a11628f55a4df523b3ef",
            "0x00000000000000000000000047a45c5b6bfbc9711c40b7de3f50ed4ad70bc965",
            "0x000000000000000000000000474b4e7fd1a143edea6b77aa845f429d443e6410"
          ],
          "data": "0x000000000000000000000000000000000000000000034cf52ce9265697e00000",
          "blockHash": "0x10121830e8a2f690e43778d7c8c46141199c1f8af51aea8d87d4c44452634fb9",
          "blockNumber": "0x9e6f5e",
          "blockTimestamp": "0x69a84704",
          "transactionHash": "0xd67a970eef24b1c95d46a1c674607e6783e5066fc55a9064235da590c57c80e7",
          "transactionIndex": "0x131",
          "logIndex": "0x230",
          "removed": false
        },
        {
          "address": "0x47a45c5b6bfbc9711c40b7de3f50ed4ad70bc965",
          "topics": [
            "0x2b005b2b2dd86a46e800eb8759dd1c1d0274d7f87d24bf2e59086a870fdc034a",
            "0x000000000000000000000000474b4e7fd1a143edea6b77aa845f429d443e6410",
            "0x000000000000000000000000bb46678a1f6c527bd79ecfbf85332b8ae83ceaf1"
          ],
          "data": "0x000000000000000000000000000000000000000000034cf52ce9265697e00000",
          "blockHash": "0x10121830e8a2f690e43778d7c8c46141199c1f8af51aea8d87d4c44452634fb9",
          "blockNumber": "0x9e6f5e",
          "blockTimestamp": "0x69a84704",
          "transactionHash": "0xd67a970eef24b1c95d46a1c674607e6783e5066fc55a9064235da590c57c80e7",
          "transactionIndex": "0x131",
          "logIndex": "0x231",
          "removed": false
        }
      ],
      "logsBloom": "0x00020000000000000000000000000000000000000000000000000000000000000000000000000000000000000000000002000000000000000000000000000000000000000000000000000008000000000000000000000000000000000000000020400000000000000000000000000000000000000000000800000010000000000100008008000001000000000002000000000000000000000000000000000000000000000000000000000000000000008000000040000000000100000000000000000002000000000000000000000001000000008000000000000010000000000000000400000000000000000001000000000000000000000000000000000000",
      "type": "0x2",
      "transactionHash": "0xd67a970eef24b1c95d46a1c674607e6783e5066fc55a9064235da590c57c80e7",
      "transactionIndex": "0x131",
      "blockHash": "0x10121830e8a2f690e43778d7c8c46141199c1f8af51aea8d87d4c44452634fb9",
      "blockNumber": "0x9e6f5e",
      "gasUsed": "0x1187e",
      "effectiveGasPrice": "0xf424d",
      "from": "0x474b4e7fd1a143edea6b77aa845f429d443e6410",
      "to": "0x47a45c5b6bfbc9711c40b7de3f50ed4ad70bc965",
      "contractAddress": null
    },
    {
      "status": "0x1",
      "cumulativeGasUsed": "0x12841a0",
      "logs": [
        {
          "address": "0xbb46678a1f6c527bd79ecfbf85332b8ae83ceaf1",
          "topics": [
            "0xddf252ad1be2c89b69c2b068fc378daa952ba7f163c4a11628f55a4df523b3ef",
            "0x00000000000000000000000047a45c5b6bfbc9711c40b7de3f50ed4ad70bc965",
            "0x000000000000000000000000f68d9e0faa751ad61e0ed70852798bf9d9c04bf7"
          ],
          "data": "0x0000000000000000000000000000000000000000000348b8f92792e133600000",
          "blockHash": "0xc970d2f7c202258366585066d3189eaee20f943a2558fff13ba57dc39b61cef0",
          "blockNumber": "0x9e6f5f",
          "blockTimestamp": "0x69a84710",
          "transactionHash": "0x66f52498e856fe17064055f6ea98a93c0e69bd696ee2930727c1f1b17e74310a",
          "transactionIndex": "0xa8",
          "logIndex": "0xfd",
          "removed": false
        },
        {
          "address": "0x47a45c5b6bfbc9711c40b7de3f50ed4ad70bc965",
          "topics": [
            "0x2b005b2b2dd86a46e800eb8759dd1c1d0274d7f87d24bf2e59086a870fdc034a",
            "0x000000000000000000000000f68d9e0faa751ad61e0ed70852798bf9d9c04bf7",
            "0x000000000000000000000000bb46678a1f6c527bd79ecfbf85332b8ae83ceaf1"
          ],
          "data": "0x0000000000000000000000000000000000000000000348b8f92792e133600000",
          "blockHash": "0xc970d2f7c202258366585066d3189eaee20f943a2558fff13ba57dc39b61cef0",
          "blockNumber": "0x9e6f5f",
          "blockTimestamp": "0x69a84710",
          "transactionHash": "0x66f52498e856fe17064055f6ea98a93c0e69bd696ee2930727c1f1b17e74310a",
          "transactionIndex": "0xa8",
          "logIndex": "0xfe",
          "removed": false
        }
      ],
      "logsBloom": "0x00020000000000000000000000000000000000000000000000000000000000800000000000000000000000000000000002000000000000000000000000000000000000000000000000000008000000000000000000000000000000000000000020000000000000000000000000000000000000000000000800000010000000000100008008000001000000000002000000000000000000000000000000000000000000000000000000000000000000008400000040000000000000000000000000000002000000000000000000000001000000008000000000000000000000000000000400000000000000000001000000000000000000000000000000000000",
      "type": "0x2",
      "transactionHash": "0x66f52498e856fe17064055f6ea98a93c0e69bd696ee2930727c1f1b17e74310a",
      "transactionIndex": "0xa8",
      "blockHash": "0xc970d2f7c202258366585066d3189eaee20f943a2558fff13ba57dc39b61cef0",
      "blockNumber": "0x9e6f5f",
      "gasUsed": "0x1187e",
      "effectiveGasPrice": "0xf424e",
      "from": "0xf68d9e0faa751ad61e0ed70852798bf9d9c04bf7",
      "to": "0x47a45c5b6bfbc9711c40b7de3f50ed4ad70bc965",
      "contractAddress": null
    }
  ],
  "libraries": [],
  "pending": [],
  "returns": {},
  "timestamp": 1772635922160,
  "chain": 11155111,
  "commit": "7621ae8"
}