{
  "transactions": [
    {
      "hash": "0x11e29242513333678206fdeee3cdcfdb4cb9135d8b8160304de672b758dc10f1",
      "transactionType": "CALL",
      "contractName": "MarginVault",
      "contractAddress": "0xbdebef2adf1065e4d28fcbffe89ae4c410d4c171",
      "function": "withdrawMargin(bytes32,address,uint256,address)",
      "arguments": [
        "0x000000000000000000000000474b4e7fd1a143edea6b77aa845f429d443e6410",
        "0xbb46678a1F6C527bD79eCFBF85332B8Ae83ceaf1",
        "3990200000000000000000000",
        "0x474B4E7FD1A143eDea6b77aa845F429D443E6410"
      ],
      "transaction": {
        "from": "0x474b4e7fd1a143edea6b77aa845f429d443e6410",
        "to": "0xbdebef2adf1065e4d28fcbffe89ae4c410d4c171",
        "gas": "0x1836c",
        "value": "0x0",
        "input": "0xe0a88ebd000000000000000000000000474b4e7fd1a143edea6b77aa845f429d443e6410000000000000000000000000bb46678a1f6c527bd79ecfbf85332b8ae83ceaf1000000000000000000000000000000000000000000034cf52ce9265697e00000000000000000000000000000474b4e7fd1a143edea6b77aa845f429d443e6410",
        "nonce": "0x43",
        "chainId": "0xaa36a7"
      },
      "additionalContracts": [],
      "isFixedGasLimit": false
    },
    {
      "hash": "0x898000710989f44fdd4812950cc7ac772510000c33d0ac1b3b8624d2a6523ea9",
      "transactionType": "CALL",
      "contractName": "MarginVault",
      "contractAddress": "0xbdebef2adf1065e4d28fcbffe89ae4c410d4c171",
      "function": "withdrawMargin(bytes32,address,uint256,address)",
      "arguments": [
        "0x000000000000000000000000f68d9e0faa751ad61e0ed70852798bf9d9c04bf7",
        "0xbb46678a1F6C527bD79eCFBF85332B8Ae83ceaf1",
        "3970200000000000000000000",
        "0xf68D9e0fAa751AD61e0ED70852798bF9D9C04bF7"
      ],
      "transaction": {
        "from": "0xf68d9e0faa751ad61e0ed70852798bf9d9c04bf7",
        "to": "0xbdebef2adf1065e4d28fcbffe89ae4c410d4c171",
        "gas": "0x1836c",
        "value": "0x0",
        "input": "0xe0a88ebd000000000000000000000000f68d9e0faa751ad61e0ed70852798bf9d9c04bf7000000000000000000000000bb46678a1f6c527bd79ecfbf85332b8ae83ceaf10000000000000000000000000000000000000000000348b8f92792e133600000000000000000000000000000f68d9e0faa751ad61e0ed70852798bf9d9c04bf7",
        "nonce": "0x42",
        "chainId": "0xaa36a7"
      },
      "additionalContracts": [],
      "isFixedGasLimit": false
    }
  ],
  "receipts": [
    {
      "status": "0x1",
      "cumulativeGasUsed": "0x11bb088",
      "logs": [
        {
          "address": "0xbb46678a1f6c527bd79ecfbf85332b8ae83ceaf1",
          "topics": [
            "0xddf252ad1be2c89b69c2b068fc378daa952ba7f163c4a11628f55a4df523b3ef",
            "0x000000000000000000000000bdebef2adf1065e4d28fcbffe89ae4c410d4c171",
            "0x000000000000000000000000474b4e7fd1a143edea6b77aa845f429d443e6410"
          ],
          "data": "0x000000000000000000000000000000000000000000034cf52ce9265697e00000",
          "blockHash": "0xcb6217ca8534dd293e23ee7d030874249aa30a262ccf4719e7dff3430c6e180a",
          "blockNumber": "0x9e9887",
          "blockTimestamp": "0x69aa4888",
          "transactionHash": "0x11e29242513333678206fdeee3cdcfdb4cb9135d8b8160304de672b758dc10f1",
          "transactionIndex": "0x87",
          "logIndex": "0x184",
          "removed": false
        },
        {
          "address": "0xbdebef2adf1065e4d28fcbffe89ae4c410d4c171",
          "topics": [
            "0x2b005b2b2dd86a46e800eb8759dd1c1d0274d7f87d24bf2e59086a870fdc034a",
            "0x000000000000000000000000474b4e7fd1a143edea6b77aa845f429d443e6410",
            "0x000000000000000000000000bb46678a1f6c527bd79ecfbf85332b8ae83ceaf1"
          ],
          "data": "0x000000000000000000000000000000000000000000034cf52ce9265697e00000",
          "blockHash": "0xcb6217ca8534dd293e23ee7d030874249aa30a262ccf4719e7dff3430c6e180a",
          "blockNumber": "0x9e9887",
          "blockTimestamp": "0x69aa4888",
          "transactionHash": "0x11e29242513333678206fdeee3cdcfdb4cb9135d8b8160304de672b758dc10f1",
          "transactionIndex": "0x87",
          "logIndex": "0x185",
          "removed": false
        }
      ],
      "logsBloom": "0x00000000000000000000000000000000000000000000000000000000000000000002000000000000000000000800000002000000000000000000000000000000000000000000000000000008000000000000000000000000000000000000000000400000000000000000000000000000000000000000000000000010000000000100000008080001000002000002000000000000000000000000000000000000000000000000000000000000800000000000000040000000000100000000000000000002000100000000000000000001000000008000000000000010000000000000000000000000000000000001000000000000000000000000000000000000",
      "type": "0x2",
      "transactionHash": "0x11e29242513333678206fdeee3cdcfdb4cb9135d8b8160304de672b758dc10f1",
      "transactionIndex": "0x87",
      "blockHash": "0xcb6217ca8534dd293e23ee7d030874249aa30a262ccf4719e7dff3430c6e180a",
      "blockNumber": "0x9e9887",
      "gasUsed": "0x1187e",
      "effectiveGasPrice": "0x121183",
      "from": "0x474b4e7fd1a143edea6b77aa845f429d443e6410",
      "to": "0xbdebef2adf1065e4d28fcbffe89ae4c410d4c171",
      "contractAddress": null
    },
    {
      "status": "0x1",
      "cumulativeGasUsed": "0x158c090",
      "logs": [
        {
          "address": "0xbb46678a1f6c527bd79ecfbf85332b8ae83ceaf1",
          "topics": [
            "0xddf252ad1be2c89b69c2b068fc378daa952ba7f163c4a11628f55a4df523b3ef",
            "0x000000000000000000000000bdebef2adf1065e4d28fcbffe89ae4c410d4c171",
            "0x000000000000000000000000f68d9e0faa751ad61e0ed70852798bf9d9c04bf7"
          ],
          "data": "0x0000000000000000000000000000000000000000000348b8f92792e133600000",
          "blockHash": "0x31d47dcd57e118450415c2f60fe438f63728be1e3040155b3be732b465a06344",
          "blockNumber": "0x9e9888",
          "blockTimestamp": "0x69aa4894",
          "transactionHash": "0x898000710989f44fdd4812950cc7ac772510000c33d0ac1b3b8624d2a6523ea9",
          "transactionIndex": "0x8f",
          "logIndex": "0x202",
          "removed": false
        },
        {
          "address": "0xbdebef2adf1065e4d28fcbffe89ae4c410d4c171",
          "topics": [
            "0x2b005b2b2dd86a46e800eb8759dd1c1d0274d7f87d24bf2e59086a870fdc034a",
            "0x000000000000000000000000f68d9e0faa751ad61e0ed70852798bf9d9c04bf7",
            "0x000000000000000000000000bb46678a1f6c527bd79ecfbf85332b8ae83ceaf1"
          ],
          "data": "0x0000000000000000000000000000000000000000000348b8f92792e133600000",
          "blockHash": "0x31d47dcd57e118450415c2f60fe438f63728be1e3040155b3be732b465a06344",
          "blockNumber": "0x9e9888",
          "blockTimestamp": "0x69aa4894",
          "transactionHash": "0x898000710989f44fdd4812950cc7ac772510000c33d0ac1b3b8624d2a6523ea9",
          "transactionIndex": "0x8f",
          "logIndex": "0x203",
          "removed": false
        }
      ],
      "logsBloom": "0x00000000000000000000000000000000000000000000000000000000000000800002000000000000000000000800000002000000000000000000000000000000000000000000000000000008000000000000000000000000000000000000000000000000000000000000000000000000000000000000000000000010000000000100000008080001000002000002000000000000000000000000000000000000000000000000000000000000800000000400000040000000000000000000000000000002000100000000000000000001000000008000000000000000000000000000000000000000000000000001000000000000000000000000000000000000",
      "type": "0x2",
      "transactionHash": "0x898000710989f44fdd4812950cc7ac772510000c33d0ac1b3b8624d2a6523ea9",
      "transactionIndex": "0x8f",
      "blockHash": "0x31d47dcd57e118450415c2f60fe438f63728be1e3040155b3be732b465a06344",
      "blockNumber": "0x9e9888",
      "gasUsed": "0x1187e",
      "effectiveGasPrice": "0x121162",
      "from": "0xf68d9e0faa751ad61e0ed70852798bf9d9c04bf7",
      "to": "0xbdebef2adf1065e4d28fcbffe89ae4c410d4c171",
      "contractAddress": null
    }
  ],
  "libraries": [],
  "pending": [],
  "returns": {},
  "timestamp": 1772767381481,
  "chain": 11155111,
  "commit": "bb4d776"
}