{
  "transactions": [
    {
      "hash": "0xc2151d8ab1ddf979f1d35d126adbac3c843341df9d81e5ea7fa6e98a275829bd",
      "transactionType": "CALL",
      "contractName": "MarginVault",
      "contractAddress": "0xed8f1d9dc67d0c5073832ce09214315fc584b4e8",
      "function": "withdrawMargin(bytes32,address,uint256,address)",
      "arguments": [
        "0x0000000000000000000000000000000000000000000000000000000000000001",
        "0xbb46678a1F6C527bD79eCFBF85332B8Ae83ceaf1",
        "4000003000000000000000000",
        "0x474B4E7FD1A143eDea6b77aa845F429D443E6410"
      ],
      "transaction": {
        "from": "0x474b4e7fd1a143edea6b77aa845f429d443e6410",
        "to": "0xed8f1d9dc67d0c5073832ce09214315fc584b4e8",
        "gas": "0x1439f",
        "value": "0x0",
        "input": "0xe0a88ebd0000000000000000000000000000000000000000000000000000000000000001000000000000000000000000bb46678a1f6c527bd79ecfbf85332b8ae83ceaf1000000000000000000000000000000000000000000034f0898dd57d17a2c0000000000000000000000000000474b4e7fd1a143edea6b77aa845f429d443e6410",
        "nonce": "0x14",
        "chainId": "0xaa36a7"
      },
      "additionalContracts": [],
      "isFixedGasLimit": false
    },
    {
      "hash": "0xf030a06276889f159d37f90a0ffc94de91ec06e076de96c57408eae8d4108837",
      "transactionType": "CALL",
      "contractName": "MarginVault",
      "contractAddress": "0xed8f1d9dc67d0c5073832ce09214315fc584b4e8",
      "function": "withdrawMargin(bytes32,address,uint256,address)",
      "arguments": [
        "0x0000000000000000000000000000000000000000000000000000000000000002",
        "0xbb46678a1F6C527bD79eCFBF85332B8Ae83ceaf1",
        "3999997000000000000000000",
        "0xf68D9e0fAa751AD61e0ED70852798bF9D9C04bF7"
      ],
      "transaction": {
        "from": "0xf68d9e0faa751ad61e0ed70852798bf9d9c04bf7",
        "to": "0xed8f1d9dc67d0c5073832ce09214315fc584b4e8",
        "gas": "0x14acd",
        "value": "0x0",
        "input": "0xe0a88ebd0000000000000000000000000000000000000000000000000000000000000002000000000000000000000000bb46678a1f6c527bd79ecfbf85332b8ae83ceaf1000000000000000000000000000000000000000000034f0845990f9b8dd40000000000000000000000000000f68d9e0faa751ad61e0ed70852798bf9d9c04bf7",
        "nonce": "0x12",
        "chainId": "0xaa36a7"
      },
      "additionalContracts": [],
      "isFixedGasLimit": false
    }
  ],
  "receipts": [
    {
      "status": "0x1",
      "cumulativeGasUsed": "0x9f5e5c",
      "logs": [
        {
          "address": "0xbb46678a1f6c527bd79ecfbf85332b8ae83ceaf1",
          "topics": [
            "0xddf252ad1be2c89b69c2b068fc378daa952ba7f163c4a11628f55a4df523b3ef",
            "0x000000000000000000000000ed8f1d9dc67d0c5073832ce09214315fc584b4e8",
            "0x000000000000000000000000474b4e7fd1a143edea6b77aa845f429d443e6410"
          ],
          "data": "0x000000000000000000000000000000000000000000034f0898dd57d17a2c0000",
          "blockHash": "0x2d7d9a75e471688ed13969fad24be45b86fb50467d23015a88f61846032c4017",
          "blockNumber": "0x9df5f0",
          "blockTimestamp": "0x69a26a50",
          "transactionHash": "0xc2151d8ab1ddf979f1d35d126adbac3c843341df9d81e5ea7fa6e98a275829bd",
          "transactionIndex": "0x93",
          "logIndex": "0x8f",
          "removed": false
        },
        {
          "address": "0xed8f1d9dc67d0c5073832ce09214315fc584b4e8",
          "topics": [
            "0x2b005b2b2dd86a46e800eb8759dd1c1d0274d7f87d24bf2e59086a870fdc034a",
            "0x0000000000000000000000000000000000000000000000000000000000000001",
            "0x000000000000000000000000bb46678a1f6c527bd79ecfbf85332b8ae83ceaf1"
          ],
          "data": "0x000000000000000000000000000000000000000000034f0898dd57d17a2c0000",
          "blockHash": "0x2d7d9a75e471688ed13969fad24be45b86fb50467d23015a88f61846032c4017",
          "blockNumber": "0x9df5f0",
          "blockTimestamp": "0x69a26a50",
          "transactionHash": "0xc2151d8ab1ddf979f1d35d126adbac3c843341df9d81e5ea7fa6e98a275829bd",
          "transactionIndex": "0x93",
          "logIndex": "0x90",
          "removed": false
        }
      ],
      "logsBloom": "0x00000000000000000000000000000000000000000000000000000000000000000000010000000000000000000000000002000000000000000000000000040000000000000000000000000008000000000000000000040000000000800000000000400000000000000000000000000000000002000000000000000010000000000100000008000001000000000002000080000000000000000000000000000000000000000000000000000000000000000000000040000000000100000000000000000002000000000000000000000001002000008000000000000010000040000000000000000000000000000001000000000000000000000000000000000100",
      "type": "0x2",
      "transactionHash": "0xc2151d8ab1ddf979f1d35d126adbac3c843341df9d81e5ea7fa6e98a275829bd",
      "transactionIndex": "0x93",
      "blockHash": "0x2d7d9a75e471688ed13969fad24be45b86fb50467d23015a88f61846032c4017",
      "blockNumber": "0x9df5f0",
      "gasUsed": "0xea4d",
      "effectiveGasPrice": "0x100cd6",
      "from": "0x474b4e7fd1a143edea6b77aa845f429d443e6410",
      "to": "0xed8f1d9dc67d0c5073832ce09214315fc584b4e8",
      "contractAddress": null
    },
    {
      "status": "0x1",
      "cumulativeGasUsed": "0x16dce5f",
      "logs": [
        {
          "address": "0xbb46678a1f6c527bd79ecfbf85332b8ae83ceaf1",
          "topics": [
            "0xddf252ad1be2c89b69c2b068fc378daa952ba7f163c4a11628f55a4df523b3ef",
            "0x000000000000000000000000ed8f1d9dc67d0c5073832ce09214315fc584b4e8",
            "0x000000000000000000000000f68d9e0faa751ad61e0ed70852798bf9d9c04bf7"
          ],
          "data": "0x000000000000000000000000000000000000000000034f0845990f9b8dd40000",
          "blockHash": "0x0725abb4c9f55275a66f818ae68b5970918e22bf64849946e9daea641d612693",
          "blockNumber": "0x9df5f1",
          "blockTimestamp": "0x69a26a5c",
          "transactionHash": "0xf030a06276889f159d37f90a0ffc94de91ec06e076de96c57408eae8d4108837",
          "transactionIndex": "0x7d",
          "logIndex": "0x11a",
          "removed": false
        },
        {
          "address": "0xed8f1d9dc67d0c5073832ce09214315fc584b4e8",
          "topics": [
            "0x2b005b2b2dd86a46e800eb8759dd1c1d0274d7f87d24bf2e59086a870fdc034a",
            "0x0000000000000000000000000000000000000000000000000000000000000002",
            "0x000000000000000000000000bb46678a1f6c527bd79ecfbf85332b8ae83ceaf1"
          ],
          "data": "0x000000000000000000000000000000000000000000034f0845990f9b8dd40000",
          "blockHash": "0x0725abb4c9f55275a66f818ae68b5970918e22bf64849946e9daea641d612693",
          "blockNumber": "0x9df5f1",
          "blockTimestamp": "0x69a26a5c",
          "transactionHash": "0xf030a06276889f159d37f90a0ffc94de91ec06e076de96c57408eae8d4108837",
          "transactionIndex": "0x7d",
          "logIndex": "0x11b",
          "removed": false
        }
      ],
      "logsBloom": "0x04000000000000000000000000000000000000000000000000000000000000800000010000000000000000000000000002000000000000000000000000000000000000000000000000000008000000000000000000000000000000800000000000000000000000000000000000000000000002000000000000000010000000000100000008000001000000000002000080000000000000000000000000000000000000000000000000000100000000000400000040000000000000000000000000000002000000000000000000000001002000008000000000000000000000000000000000000000000000000001000000000000008000000000000000000100",
      "type": "0x2",
      "transactionHash": "0xf030a06276889f159d37f90a0ffc94de91ec06e076de96c57408eae8d4108837",
      "transactionIndex": "0x7d",
      "blockHash": "0x0725abb4c9f55275a66f818ae68b5970918e22bf64849946e9daea641d612693",
      "blockNumber": "0x9df5f1",
      "gasUsed": "0xe231",
      "effectiveGasPrice": "0x100cd4",
      "from": "0xf68d9e0faa751ad61e0ed70852798bf9d9c04bf7",
      "to": "0xed8f1d9dc67d0c5073832ce09214315fc584b4e8",
      "contractAddress": null
    }
  ],
  "libraries": [],
  "pending": [],
  "returns": {},
  "timestamp": 1772251740991,
  "chain": 11155111,
  "commit": "f843746"
}