{
  "transactions": [
    {
      "hash": "0x3ce609f6a5b4262fc409cc6ce144801792d1bd6539e75fb5bd137e79e924150f",
      "transactionType": "CALL",
      "contractName": "MarginVault",
      "contractAddress": "0x76d1a769c3b13696f40523c0483ac5ea7cb32a84",
      "function": "withdrawMargin(bytes32,address,uint256,address)",
      "arguments": [
        "0x000000000000000000000000474b4e7fd1a143edea6b77aa845f429d443e6410",
        "0xbb46678a1F6C527bD79eCFBF85332B8Ae83ceaf1",
        "3980200000000000000000000",
        "0x474B4E7FD1A143eDea6b77aa845F429D443E6410"
      ],
      "transaction": {
        "from": "0x474b4e7fd1a143edea6b77aa845f429d443e6410",
        "to": "0x76d1a769c3b13696f40523c0483ac5ea7cb32a84",
        "gas": "0x1836c",
        "value": "0x0",
        "input": "0xe0a88ebd000000000000000000000000474b4e7fd1a143edea6b77aa845f429d443e6410000000000000000000000000bb46678a1f6c527bd79ecfbf85332b8ae83ceaf1000000000000000000000000000000000000000000034ad713085c9be5a00000000000000000000000000000474b4e7fd1a143edea6b77aa845f429d443e6410",
        "nonce": "0x6a",
        "chainId": "0xaa36a7"
      },
      "additionalContracts": [],
      "isFixedGasLimit": false
    },
    {
      "hash": "0xd179948e538076691e28fe8c09c915eab171be3d0ab54755e4ccbfed8b0ef1d4",
      "transactionType": "CALL",
      "contractName": "MarginVault",
      "contractAddress": "0x76d1a769c3b13696f40523c0483ac5ea7cb32a84",
      "function": "withdrawMargin(bytes32,address,uint256,address)",
      "arguments": [
        "0x000000000000000000000000f68d9e0faa751ad61e0ed70852798bf9d9c04bf7",
        "0xbb46678a1F6C527bD79eCFBF85332B8Ae83ceaf1",
        "3980200000000000000000000",
        "0xf68D9e0fAa751AD61e0ED70852798bF9D9C04bF7"
      ],
      "transaction": {
        "from": "0xf68d9e0faa751ad61e0ed70852798bf9d9c04bf7",
        "to": "0x76d1a769c3b13696f40523c0483ac5ea7cb32a84",
        "gas": "0x1836c",
        "value": "0x0",
        "input": "0xe0a88ebd000000000000000000000000f68d9e0faa751ad61e0ed70852798bf9d9c04bf7000000000000000000000000bb46678a1f6c527bd79ecfbf85332b8ae83ceaf1000000000000000000000000000000000000000000034ad713085c9be5a00000000000000000000000000000f68d9e0faa751ad61e0ed70852798bf9d9c04bf7",
        "nonce": "0x66",
        "chainId": "0xaa36a7"
      },
      "additionalContracts": [],
      "isFixedGasLimit": false
    }
  ],
  "receipts": [
    {
      "status": "0x1",
      "cumulativeGasUsed": "0x112c13c",
      "logs": [
        {
          "address": "0xbb46678a1f6c527bd79ecfbf85332b8ae83ceaf1",
          "topics": [
            "0xddf252ad1be2c89b69c2b068fc378daa952ba7f163c4a11628f55a4df523b3ef",
            "0x00000000000000000000000076d1a769c3b13696f40523c0483ac5ea7cb32a84",
            "0x000000000000000000000000474b4e7fd1a143edea6b77aa845f429d443e6410"
          ],
          "data": "0x000000000000000000000000000000000000000000034ad713085c9be5a00000",
          "blockHash": "0xb196d30ea5380c01bc7eb8c73ae46152df830d12956dfb91086b63e9cc2191f0",
          "blockNumber": "0x9ea4ce",
          "blockTimestamp": "0x69aaec14",
          "transactionHash": "0x3ce609f6a5b4262fc409cc6ce144801792d1bd6539e75fb5bd137e79e924150f",
          "transactionIndex": "0x73",
          "logIndex": "0xca",
          "removed": false
        },
        {
          "address": "0x76d1a769c3b13696f40523c0483ac5ea7cb32a84",
          "topics": [
            "0x2b005b2b2dd86a46e800eb8759dd1c1d0274d7f87d24bf2e59086a870fdc034a",
            "0x000000000000000000000000474b4e7fd1a143edea6b77aa845f429d443e6410",
            "0x000000000000000000000000bb46678a1f6c527bd79ecfbf85332b8ae83ceaf1"
          ],
          "data": "0x000000000000000000000000000000000000000000034ad713085c9be5a00000",
          "blockHash": "0xb196d30ea5380c01bc7eb8c73ae46152df830d12956dfb91086b63e9cc2191f0",
          "blockNumber": "0x9ea4ce",
          "blockTimestamp": "0x69aaec14",
          "transactionHash": "0x3ce609f6a5b4262fc409cc6ce144801792d1bd6539e75fb5bd137e79e924150f",
          "transactionIndex": "0x73",
          "logIndex": "0xcb",
          "removed": false
        }
      ],
      "logsBloom": "0x00000010000000000000000000000000000000000000000000000000000000000000000000000000000000000000000002000000000000000000000000000000000000000000000000000008000000000000000000000000000000000000000000400000000000000000000000002000000000000000000000000010000000000100000008000001000000400002000000000000000000000000000000000000000000000000000000000000000000000000000040000000100100000000400000000002000000000000000000000001000000008000000000000010000000000000000000000400000000000001000000000000000000000000000000000000",
      "type": "0x2",
      "transactionHash": "0x3ce609f6a5b4262fc409cc6ce144801792d1bd6539e75fb5bd137e79e924150f",
      "transactionIndex": "0x73",
      "blockHash": "0xb196d30ea5380c01bc7eb8c73ae46152df830d12956dfb91086b63e9cc2191f0",
      "blockNumber": "0x9ea4ce",
      "gasUsed": "0x1187e",
      "effectiveGasPrice": "0x148a46c",
      "from": "0x474b4e7fd1a143edea6b77aa845f429d443e6410",
      "to": "0x76d1a769c3b13696f40523c0483ac5ea7cb32a84",
      "contractAddress": null
    },
    {
      "status": "0x1",
      "cumulativeGasUsed": "0x2a0fc56",
      "logs": [
        {
          "address": "0xbb46678a1f6c527bd79ecfbf85332b8ae83ceaf1",
          "topics": [
            "0xddf252ad1be2c89b69c2b068fc378daa952ba7f163c4a11628f55a4df523b3ef",
            "0x00000000000000000000000076d1a769c3b13696f40523c0483ac5ea7cb32a84",
            "0x000000000000000000000000f68d9e0faa751ad61e0ed70852798bf9d9c04bf7"
          ],
          "data": "0x000000000000000000000000000000000000000000034ad713085c9be5a00000",
          "blockHash": "0xa21fc34adadeec8094dfe3e636f942dd3568bfce9df2cf572be7ad5353c2d10b",
          "blockNumber": "0x9ea4d1",
          "blockTimestamp": "0x69aaec5c",
          "transactionHash": "0xd179948e538076691e28fe8c09c915eab171be3d0ab54755e4ccbfed8b0ef1d4",
          "transactionIndex": "0x104",
          "logIndex": "0x358",
          "removed": false
        },
        {
          "address": "0x76d1a769c3b13696f40523c0483ac5ea7cb32a84",
          "topics": [
            "0x2b005b2b2dd86a46e800eb8759dd1c1d0274d7f87d24bf2e59086a870fdc034a",
            "0x000000000000000000000000f68d9e0faa751ad61e0ed70852798bf9d9c04bf7",
            "0x000000000000000000000000bb46678a1f6c527bd79ecfbf85332b8ae83ceaf1"
          ],
          "data": "0x000000000000000000000000000000000000000000034ad713085c9be5a00000",
          "blockHash": "0xa21fc34adadeec8094dfe3e636f942dd3568bfce9df2cf572be7ad5353c2d10b",
          "blockNumber": "0x9ea4d1",
          "blockTimestamp": "0x69aaec5c",
          "transactionHash": "0xd179948e538076691e28fe8c09c915eab171be3d0ab54755e4ccbfed8b0ef1d4",
          "transactionIndex": "0x104",
          "logIndex": "0x359",
          "removed": false
        }
      ],
      "logsBloom": "0x00000010000000000000000000000000000000000000000000000000000000800000000000000000000000000000000002000000000000000000000000000000000000000000000000000008000000000000000000000000000000000000000000000000000000000000000000002000000000000000000000000010000000000100000008000001000000400002000000000000000000000000000000000000000000000000000000000000000000000400000040000000100000000000400000000002000000000000000000000001000000008000000000000000000000000000000000000400000000000001000000000000000000000000000000000000",
      "type": "0x2",
      "transactionHash": "0xd179948e538076691e28fe8c09c915eab171be3d0ab54755e4ccbfed8b0ef1d4",
      "transactionIndex": "0x104",
      "blockHash": "0xa21fc34adadeec8094dfe3e636f942dd3568bfce9df2cf572be7ad5353c2d10b",
      "blockNumber": "0x9ea4d1",
      "gasUsed": "0x1187e",
      "effectiveGasPrice": "0x1a0b3d6",
      "from": "0xf68d9e0faa751ad61e0ed70852798bf9d9c04bf7",
      "to": "0x76d1a769c3b13696f40523c0483ac5ea7cb32a84",
      "contractAddress": null
    }
  ],
  "libraries": [],
  "pending": [],
  "returns": {},
  "timestamp": 1772809308953,
  "chain": 11155111,
  "commit": "abef103"
}