{
  "transactions": [
    {
      "hash": "0x933e642bd8cd335c7de7f86566e9cefabc35046614f24c8aa3af1d5a12580ad1",
      "transactionType": "CALL",
      "contractName": null,
      "contractAddress": "0x90de233d936bfb7f1df877c992ecdf6097864cce",
      "function": "withdrawMargin(bytes32,address,uint256,address)",
      "arguments": [
        "0x0000000000000000000000000000000000000000000000000000000000000001",
        "0xbb46678a1F6C527bD79eCFBF85332B8Ae83ceaf1",
        "4000003000000000000000000",
        "0x474B4E7FD1A143eDea6b77aa845F429D443E6410"
      ],
      "transaction": {
        "from": "0x474b4e7fd1a143edea6b77aa845f429d443e6410",
        "to": "0x90de233d936bfb7f1df877c992ecdf6097864cce",
        "gas": "0x15649",
        "value": "0x0",
        "input": "0xe0a88ebd0000000000000000000000000000000000000000000000000000000000000001000000000000000000000000bb46678a1f6c527bd79ecfbf85332b8ae83ceaf1000000000000000000000000000000000000000000034f0898dd57d17a2c0000000000000000000000000000474b4e7fd1a143edea6b77aa845f429d443e6410",
        "nonce": "0x11",
        "chainId": "0xaa36a7"
      },
      "additionalContracts": [],
      "isFixedGasLimit": false
    },
    {
      "hash": "0x1fe699b9d2810617be8aec5edfd65a6df8f2103525f051323db5a156951befba",
      "transactionType": "CALL",
      "contractName": null,
      "contractAddress": "0x90de233d936bfb7f1df877c992ecdf6097864cce",
      "function": "withdrawMargin(bytes32,address,uint256,address)",
      "arguments": [
        "0x0000000000000000000000000000000000000000000000000000000000000002",
        "0xbb46678a1F6C527bD79eCFBF85332B8Ae83ceaf1",
        "3999997000000000000000000",
        "0xf68D9e0fAa751AD61e0ED70852798bF9D9C04bF7"
      ],
      "transaction": {
        "from": "0xf68d9e0faa751ad61e0ed70852798bf9d9c04bf7",
        "to": "0x90de233d936bfb7f1df877c992ecdf6097864cce",
        "gas": "0x13823",
        "value": "0x0",
        "input": "0xe0a88ebd0000000000000000000000000000000000000000000000000000000000000002000000000000000000000000bb46678a1f6c527bd79ecfbf85332b8ae83ceaf1000000000000000000000000000000000000000000034f0845990f9b8dd40000000000000000000000000000f68d9e0faa751ad61e0ed70852798bf9d9c04bf7",
        "nonce": "0xf",
        "chainId": "0xaa36a7"
      },
      "additionalContracts": [],
      "isFixedGasLimit": false
    }
  ],
  "receipts": [
    {
      "status": "0x1",
      "cumulativeGasUsed": "0x1a58ff1",
      "logs": [
        {
          "address": "0xbb46678a1f6c527bd79ecfbf85332b8ae83ceaf1",
          "topics": [
            "0xddf252ad1be2c89b69c2b068fc378daa952ba7f163c4a11628f55a4df523b3ef",
            "0x00000000000000000000000090de233d936bfb7f1df877c992ecdf6097864cce",
            "0x000000000000000000000000474b4e7fd1a143edea6b77aa845f429d443e6410"
          ],
          "data": "0x000000000000000000000000000000000000000000034f0898dd57d17a2c0000",
          "blockHash": "0x00c970c0376ac56359b5748724c0bd9b10f01a200b3a9b7efaf14beeb9dd5291",
          "blockNumber": "0x9de1be",
          "blockTimestamp": "0x69a16f94",
          "transactionHash": "0x933e642bd8cd335c7de7f86566e9cefabc35046614f24c8aa3af1d5a12580ad1",
          "transactionIndex": "0xa4",
          "logIndex": "0x262",
          "removed": false
        },
        {
          "address": "0x90de233d936bfb7f1df877c992ecdf6097864cce",
          "topics": [
            "0x2b005b2b2dd86a46e800eb8759dd1c1d0274d7f87d24bf2e59086a870fdc034a",
            "0x0000000000000000000000000000000000000000000000000000000000000001",
            "0x000000000000000000000000bb46678a1f6c527bd79ecfbf85332b8ae83ceaf1"
          ],
          "data": "0x000000000000000000000000000000000000000000034f0898dd57d17a2c0000",
          "blockHash": "0x00c970c0376ac56359b5748724c0bd9b10f01a200b3a9b7efaf14beeb9dd5291",
          "blockNumber": "0x9de1be",
          "blockTimestamp": "0x69a16f94",
          "transactionHash": "0x933e642bd8cd335c7de7f86566e9cefabc35046614f24c8aa3af1d5a12580ad1",
          "transactionIndex": "0xa4",
          "logIndex": "0x263",
          "removed": false
        }
      ],
      "logsBloom": "0x00000000000000000000000080000000000000000000000000000000001000000000000000000000000000000000000002000000000000000000000000040000000000000000000000010008000000000000000000040000010000000000000000400000000000000000000000000000000000000000000000000010000000000100000008000001000000000002000000000000000000000000000000000000000000000000020000000000000000000000000040000000000100000000000000000002000000000000000000000001000000008000000000000010000040000000000000000000000000000001000000000000008000000000000000000000",
      "type": "0x2",
      "transactionHash": "0x933e642bd8cd335c7de7f86566e9cefabc35046614f24c8aa3af1d5a12580ad1",
      "transactionIndex": "0xa4",
      "blockHash": "0x00c970c0376ac56359b5748724c0bd9b10f01a200b3a9b7efaf14beeb9dd5291",
      "blockNumber": "0x9de1be",
      "gasUsed": "0xea0b",
      "effectiveGasPrice": "0xf4302",
      "from": "0x474b4e7fd1a143edea6b77aa845f429d443e6410",
      "to": "0x90de233d936bfb7f1df877c992ecdf6097864cce",
      "contractAddress": null
    },
    {
      "status": "0x1",
      "cumulativeGasUsed": "0x11e790f",
      "logs": [
        {
          "address": "0xbb46678a1f6c527bd79ecfbf85332b8ae83ceaf1",
          "topics": [
            "0xddf252ad1be2c89b69c2b068fc378daa952ba7f163c4a11628f55a4df523b3ef",
            "0x00000000000000000000000090de233d936bfb7f1df877c992ecdf6097864cce",
            "0x000000000000000000000000f68d9e0faa751ad61e0ed70852798bf9d9c04bf7"
          ],
          "data": "0x000000000000000000000000000000000000000000034f0845990f9b8dd40000",
          "blockHash": "0xc0bf65dbfa69fc27904cb7ebe38f571b543da2c6704c0d00723df34a6588f12b",
          "blockNumber": "0x9de1bf",
          "blockTimestamp": "0x69a16fa0",
          "transactionHash": "0x1fe699b9d2810617be8aec5edfd65a6df8f2103525f051323db5a156951befba",
          "transactionIndex": "0x72",
          "logIndex": "0x181",
          "removed": false
        },
        {
          "address": "0x90de233d936bfb7f1df877c992ecdf6097864cce",
          "topics": [
            "0x2b005b2b2dd86a46e800eb8759dd1c1d0274d7f87d24bf2e59086a870fdc034a",
            "0x0000000000000000000000000000000000000000000000000000000000000002",
            "0x000000000000000000000000bb46678a1f6c527bd79ecfbf85332b8ae83ceaf1"
          ],
          "data": "0x000000000000000000000000000000000000000000034f0845990f9b8dd40000",
          "blockHash": "0xc0bf65dbfa69fc27904cb7ebe38f571b543da2c6704c0d00723df34a6588f12b",
          "blockNumber": "0x9de1bf",
          "blockTimestamp": "0x69a16fa0",
          "transactionHash": "0x1fe699b9d2810617be8aec5edfd65a6df8f2103525f051323db5a156951befba",
          "transactionIndex": "0x72",
          "logIndex": "0x182",
          "removed": false
        }
      ],
      "logsBloom": "0x04000000000000000000000080000000000000000000000000000000001000800000000000000000000000000000000002000000000000000000000000000000000000000000000000010008000000000000000000000000010000000000000000000000000000000000000000000000000000000000000000000010000000000100000008000001000000000002000000000000000000000000000000000000000000000000020000000100000000000400000040000000000000000000000000000002000000000000000000000001000000008000000000000000000000000000000000000000000000000001000000000000008000000000000000000000",
      "type": "0x2",
      "transactionHash": "0x1fe699b9d2810617be8aec5edfd65a6df8f2103525f051323db5a156951befba",
      "transactionIndex": "0x72",
      "blockHash": "0xc0bf65dbfa69fc27904cb7ebe38f571b543da2c6704c0d00723df34a6588f12b",
      "blockNumber": "0x9de1bf",
      "gasUsed": "0xe1fc",
      "effectiveGasPrice": "0xf4302",
      "from": "0xf68d9e0faa751ad61e0ed70852798bf9d9c04bf7",
      "to": "0x90de233d936bfb7f1df877c992ecdf6097864cce",
      "contractAddress": null
    }
  ],
  "libraries": [],
  "pending": [],
  "returns": {},
  "timestamp": 1772187553345,
  "chain": 11155111,
  "commit": "5c0c491"
}