{
  "transactions": [
    {
      "hash": "0x9ce8436bd5f653ec99c552efb7d72683200729ac2c88d4d11c984fae6e70c9e2",
      "transactionType": "CALL",
      "contractName": "MarginVault",
      "contractAddress": "0xc6b4e4c2540d649bf655adb352f910f50026af1f",
      "function": "withdrawMargin(bytes32,address,uint256,address)",
      "arguments": [
        "0x000000000000000000000000474b4e7fd1a143edea6b77aa845f429d443e6410",
        "0xbb46678a1F6C527bD79eCFBF85332B8Ae83ceaf1",
        "3985200000000000000000000",
        "0x474B4E7FD1A143eDea6b77aa845F429D443E6410"
      ],
      "transaction": {
        "from": "0x474b4e7fd1a143edea6b77aa845f429d443e6410",
        "to": "0xc6b4e4c2540d649bf655adb352f910f50026af1f",
        "gas": "0x1836c",
        "value": "0x0",
        "input": "0xe0a88ebd000000000000000000000000474b4e7fd1a143edea6b77aa845f429d443e6410000000000000000000000000bb46678a1f6c527bd79ecfbf85332b8ae83ceaf1000000000000000000000000000000000000000000034be61ff8c1793ec00000000000000000000000000000474b4e7fd1a143edea6b77aa845f429d443e6410",
        "nonce": "0x78",
        "chainId": "0xaa36a7"
      },
      "additionalContracts": [],
      "isFixedGasLimit": false
    },
    {
      "hash": "0x57e92b605a57d2a293753a173d2e8a27b27ca2b02a9515f1e1f1a6ffa2c5fa9a",
      "transactionType": "CALL",
      "contractName": "MarginVault",
      "contractAddress": "0xc6b4e4c2540d649bf655adb352f910f50026af1f",
      "function": "withdrawMargin(bytes32,address,uint256,address)",
      "arguments": [
        "0x000000000000000000000000f68d9e0faa751ad61e0ed70852798bf9d9c04bf7",
        "0xbb46678a1F6C527bD79eCFBF85332B8Ae83ceaf1",
        "3975200000000000000000000",
        "0xf68D9e0fAa751AD61e0ED70852798bF9D9C04bF7"
      ],
      "transaction": {
        "from": "0xf68d9e0faa751ad61e0ed70852798bf9d9c04bf7",
        "to": "0xc6b4e4c2540d649bf655adb352f910f50026af1f",
        "gas": "0x1836c",
        "value": "0x0",
        "input": "0xe0a88ebd000000000000000000000000f68d9e0faa751ad61e0ed70852798bf9d9c04bf7000000000000000000000000bb46678a1f6c527bd79ecfbf85332b8ae83ceaf10000000000000000000000000000000000000000000349c80617f7be8c800000000000000000000000000000f68d9e0faa751ad61e0ed70852798bf9d9c04bf7",
        "nonce": "0x71",
        "chainId": "0xaa36a7"
      },
      "additionalContracts": [],
      "isFixedGasLimit": false
    }
  ],
  "receipts": [
    {
      "status": "0x1",
      "cumulativeGasUsed": "0x11c1f05",
      "logs": [
        {
          "address": "0xbb46678a1f6c527bd79ecfbf85332b8ae83ceaf1",
          "topics": [
            "0xddf252ad1be2c89b69c2b068fc378daa952ba7f163c4a11628f55a4df523b3ef",
            "0x000000000000000000000000c6b4e4c2540d649bf655adb352f910f50026af1f",
            "0x000000000000000000000000474b4e7fd1a143edea6b77aa845f429d443e6410"
          ],
          "data": "0x000000000000000000000000000000000000000000034be61ff8c1793ec00000",
          "blockHash": "0x35f2f1c672289884dffacd696c11c9005a428825a17a6d114dfef64156b26ab4",
          "blockNumber": "0x9ed558",
          "blockTimestamp": "0x69ad9034",
          "transactionHash": "0x9ce8436bd5f653ec99c552efb7d72683200729ac2c88d4d11c984fae6e70c9e2",
          "transactionIndex": "0x70",
          "logIndex": "0x190",
          "removed": false
        },
        {
          "address": "0xc6b4e4c2540d649bf655adb352f910f50026af1f",
          "topics": [
            "0x2b005b2b2dd86a46e800eb8759dd1c1d0274d7f87d24bf2e59086a870fdc034a",
            "0x000000000000000000000000474b4e7fd1a143edea6b77aa845f429d443e6410",
            "0x000000000000000000000000bb46678a1f6c527bd79ecfbf85332b8ae83ceaf1"
          ],
          "data": "0x000000000000000000000000000000000000000000034be61ff8c1793ec00000",
          "blockHash": "0x35f2f1c672289884dffacd696c11c9005a428825a17a6d114dfef64156b26ab4",
          "blockNumber": "0x9ed558",
          "blockTimestamp": "0x69ad9034",
          "transactionHash": "0x9ce8436bd5f653ec99c552efb7d72683200729ac2c88d4d11c984fae6e70c9e2",
          "transactionIndex": "0x70",
          "logIndex": "0x191",
          "removed": false
        }
      ],
      "logsBloom": "0x00000000000000000000200000000000000000000000000000000000000000000000000000000000000000000000000002000000000000000000000000000000000000000000000000000008000000000000000000000000000000000000000000440000000000000000000000000000000000000000000000000010000000000100000008000001000000000002000000000000000000080000000000000000000000000000000000000000000000000000000040000000000100000000000000000002000002000000000000000001000000008000000000000010000000000000000000000000000000000001000000020000000000000000000000040000",
      "type": "0x2",
      "transactionHash": "0x9ce8436bd5f653ec99c552efb7d72683200729ac2c88d4d11c984fae6e70c9e2",
      "transactionIndex": "0x70",
      "blockHash": "0x35f2f1c672289884dffacd696c11c9005a428825a17a6d114dfef64156b26ab4",
      "blockNumber": "0x9ed558",
      "gasUsed": "0x1187e",
      "effectiveGasPrice": "0x4dfa3dc",
      "from": "0x474b4e7fd1a143edea6b77aa845f429d443e6410",
      "to": "0xc6b4e4c2540d649bf655adb352f910f50026af1f",
      "contractAddress": null
    },
    {
      "status": "0x1",
      "cumulativeGasUsed": "0x1a07967",
      "logs": [
        {
          "address": "0xbb46678a1f6c527bd79ecfbf85332b8ae83ceaf1",
          "topics": [
            "0xddf252ad1be2c89b69c2b068fc378daa952ba7f163c4a11628f55a4df523b3ef",
            "0x000000000000000000000000c6b4e4c2540d649bf655adb352f910f50026af1f",
            "0x000000000000000000000000f68d9e0faa751ad61e0ed70852798bf9d9c04bf7"
          ],
          "data": "0x0000000000000000000000000000000000000000000349c80617f7be8c800000",
          "blockHash": "0xfde6fc807ac085c11d5fb818e3588037eac518ab7ed3b09f7eca9c8fc6db4e6b",
          "blockNumber": "0x9ed559",
          "blockTimestamp": "0x69ad9040",
          "transactionHash": "0x57e92b605a57d2a293753a173d2e8a27b27ca2b02a9515f1e1f1a6ffa2c5fa9a",
          "transactionIndex": "0x82",
          "logIndex": "0x193",
          "removed": false
        },
        {
          "address": "0xc6b4e4c2540d649bf655adb352f910f50026af1f",
          "topics": [
            "0x2b005b2b2dd86a46e800eb8759dd1c1d0274d7f87d24bf2e59086a870fdc034a",
            "0x000000000000000000000000f68d9e0faa751ad61e0ed70852798bf9d9c04bf7",
            "0x000000000000000000000000bb46678a1f6c527bd79ecfbf85332b8ae83ceaf1"
          ],
          "data": "0x0000000000000000000000000000000000000000000349c80617f7be8c800000",
          "blockHash": "0xfde6fc807ac085c11d5fb818e3588037eac518ab7ed3b09f7eca9c8fc6db4e6b",
          "blockNumber": "0x9ed559",
          "blockTimestamp": "0x69ad9040",
          "transactionHash": "0x57e92b605a57d2a293753a173d2e8a27b27ca2b02a9515f1e1f1a6ffa2c5fa9a",
          "transactionIndex": "0x82",
          "logIndex": "0x194",
          "removed": false
        }
      ],
      "logsBloom": "0x00000000000000000000200000000000000000000000000000000000000000800000000000000000000000000000000002000000000000000000000000000000000000000000000000000008000000000000000000000000000000000000000000040000000000000000000000000000000000000000000000000010000000000100000008000001000000000002000000000000000000080000000000000000000000000000000000000000000000000400000040000000000000000000000000000002000002000000000000000001000000008000000000000000000000000000000000000000000000000001000000020000000000000000000000040000",
      "type": "0x2",
      "transactionHash": "0x57e92b605a57d2a293753a173d2e8a27b27ca2b02a9515f1e1f1a6ffa2c5fa9a",
      "transactionIndex": "0x82",
      "blockHash": "0xfde6fc807ac085c11d5fb818e3588037eac518ab7ed3b09f7eca9c8fc6db4e6b",
      "blockNumber": "0x9ed559",
      "gasUsed": "0x1187e",
      "effectiveGasPrice": "0x4dfa3de",
      "from": "0xf68d9e0faa751ad61e0ed70852798bf9d9c04bf7",
      "to": "0xc6b4e4c2540d649bf655adb352f910f50026af1f",
      "contractAddress": null
    }
  ],
  "libraries": [],
  "pending": [],
  "returns": {},
  "timestamp": 1772982336653,
  "chain": 11155111,
  "commit": "0307850"
}