{
  "transactions": [
    {
      "hash": "0x6d571cb3333097f7cc3ac66a0c287add87fcd6a3bdae44f98a803fe966c26cf1",
      "transactionType": "CALL",
      "contractName": "MarginVault",
      "contractAddress": "0xf4f79b481508b5856203ee23c675fbd6e66daeb3",
      "function": "withdrawMargin(bytes32,address,uint256,address)",
      "arguments": [
        "0x000000000000000000000000474b4e7fd1a143edea6b77aa845f429d443e6410",
        "0xbb46678a1F6C527bD79eCFBF85332B8Ae83ceaf1",
        "3985200000000000000000000",
        "0x474B4E7FD1A143eDea6b77aa845F429D443E6410"
      ],
      "transaction": {
        "from": "0x474b4e7fd1a143edea6b77aa845f429d443e6410",
        "to": "0xf4f79b481508b5856203ee23c675fbd6e66daeb3",
        "gas": "0x1836c",
        "value": "0x0",
        "input": "0xe0a88ebd000000000000000000000000474b4e7fd1a143edea6b77aa845f429d443e6410000000000000000000000000bb46678a1f6c527bd79ecfbf85332b8ae83ceaf1000000000000000000000000000000000000000000034be61ff8c1793ec00000000000000000000000000000474b4e7fd1a143edea6b77aa845f429d443e6410",
        "nonce": "0x72",
        "chainId": "0xaa36a7"
      },
      "additionalContracts": [],
      "isFixedGasLimit": false
    },
    {
      "hash": "0x1de558e632d96953b9575a7e6c36948361bd7966dd4af8307494f63b71c62e16",
      "transactionType": "CALL",
      "contractName": "MarginVault",
      "contractAddress": "0xf4f79b481508b5856203ee23c675fbd6e66daeb3",
      "function": "withdrawMargin(bytes32,address,uint256,address)",
      "arguments": [
        "0x000000000000000000000000f68d9e0faa751ad61e0ed70852798bf9d9c04bf7",
        "0xbb46678a1F6C527bD79eCFBF85332B8Ae83ceaf1",
        "3975200000000000000000000",
        "0xf68D9e0fAa751AD61e0ED70852798bF9D9C04bF7"
      ],
      "transaction": {
        "from": "0xf68d9e0faa751ad61e0ed70852798bf9d9c04bf7",
        "to": "0xf4f79b481508b5856203ee23c675fbd6e66daeb3",
        "gas": "0x1836c",
        "value": "0x0",
        "input": "0xe0a88ebd000000000000000000000000f68d9e0faa751ad61e0ed70852798bf9d9c04bf7000000000000000000000000bb46678a1f6c527bd79ecfbf85332b8ae83ceaf10000000000000000000000000000000000000000000349c80617f7be8c800000000000000000000000000000f68d9e0faa751ad61e0ed70852798bf9d9c04bf7",
        "nonce": "0x6c",
        "chainId": "0xaa36a7"
      },
      "additionalContracts": [],
      "isFixedGasLimit": false
    }
  ],
  "receipts": [
    {
      "status": "0x1",
      "cumulativeGasUsed": "0x1344388",
      "logs": [
        {
          "address": "0xbb46678a1f6c527bd79ecfbf85332b8ae83ceaf1",
          "topics": [
            "0xddf252ad1be2c89b69c2b068fc378daa952ba7f163c4a11628f55a4df523b3ef",
            "0x000000000000000000000000f4f79b481508b5856203ee23c675fbd6e66daeb3",
            "0x000000000000000000000000474b4e7fd1a143edea6b77aa845f429d443e6410"
          ],
          "data": "0x000000000000000000000000000000000000000000034be61ff8c1793ec00000",
          "blockHash": "0xfc142e99845917b9ab6e5812e79e37a6c10a712cc191c729d6cdde5165a1bc32",
          "blockNumber": "0x9ed0d4",
          "blockTimestamp": "0x69ad51f4",
          "transactionHash": "0x6d571cb3333097f7cc3ac66a0c287add87fcd6a3bdae44f98a803fe966c26cf1",
          "transactionIndex": "0x8c",
          "logIndex": "0x169",
          "removed": false
        },
        {
          "address": "0xf4f79b481508b5856203ee23c675fbd6e66daeb3",
          "topics": [
            "0x2b005b2b2dd86a46e800eb8759dd1c1d0274d7f87d24bf2e59086a870fdc034a",
            "0x000000000000000000000000474b4e7fd1a143edea6b77aa845f429d443e6410",
            "0x000000000000000000000000bb46678a1f6c527bd79ecfbf85332b8ae83ceaf1"
          ],
          "data": "0x000000000000000000000000000000000000000000034be61ff8c1793ec00000",
          "blockHash": "0xfc142e99845917b9ab6e5812e79e37a6c10a712cc191c729d6cdde5165a1bc32",
          "blockNumber": "0x9ed0d4",
          "blockTimestamp": "0x69ad51f4",
          "transactionHash": "0x6d571cb3333097f7cc3ac66a0c287add87fcd6a3bdae44f98a803fe966c26cf1",
          "transactionIndex": "0x8c",
          "logIndex": "0x16a",
          "removed": false
        }
      ],
      "logsBloom": "0x00000000004080000000000000000000000000000000000000000000000000000000000000000000000000000000000002000000000000000000000000000000000000000000000000000008000000000000000000000000000000000000000000400000000000000000000000000000000000000000000000000010000000000100000008000001000000000002000000000000004000000000000000000080000000000001000000000000000000000000000040000000000100000000000000000002000000000000010000000001000000008000000000000010000000000000000000000000000000000001000000000000000000000000000000000000",
      "type": "0x2",
      "transactionHash": "0x6d571cb3333097f7cc3ac66a0c287add87fcd6a3bdae44f98a803fe966c26cf1",
      "transactionIndex": "0x8c",
      "blockHash": "0xfc142e99845917b9ab6e5812e79e37a6c10a712cc191c729d6cdde5165a1bc32",
      "blockNumber": "0x9ed0d4",
      "gasUsed": "0x1187e",
      "effectiveGasPrice": "0x63b4e4d5",
      "from": "0x474b4e7fd1a143edea6b77aa845f429d443e6410",
      "to": "0xf4f79b481508b5856203ee23c675fbd6e66daeb3",
      "contractAddress": null
    },
    {
      "status": "0x1",
      "cumulativeGasUsed": "0xa628eb",
      "logs": [
        {
          "address": "0xbb46678a1f6c527bd79ecfbf85332b8ae83ceaf1",
          "topics": [
            "0xddf252ad1be2c89b69c2b068fc378daa952ba7f163c4a11628f55a4df523b3ef",
            "0x000000000000000000000000f4f79b481508b5856203ee23c675fbd6e66daeb3",
            "0x000000000000000000000000f68d9e0faa751ad61e0ed70852798bf9d9c04bf7"
          ],
          "data": "0x0000000000000000000000000000000000000000000349c80617f7be8c800000",
          "blockHash": "0x96224253a0ac864ee4428e5c3e8cecb66cc7065158e85559ed3019246fd6c265",
          "blockNumber": "0x9ed0d5",
          "blockTimestamp": "0x69ad520c",
          "transactionHash": "0x1de558e632d96953b9575a7e6c36948361bd7966dd4af8307494f63b71c62e16",
          "transactionIndex": "0x84",
          "logIndex": "0xb1",
          "removed": false
        },
        {
          "address": "0xf4f79b481508b5856203ee23c675fbd6e66daeb3",
          "topics": [
            "0x2b005b2b2dd86a46e800eb8759dd1c1d0274d7f87d24bf2e59086a870fdc034a",
            "0x000000000000000000000000f68d9e0faa751ad61e0ed70852798bf9d9c04bf7",
            "0x000000000000000000000000bb46678a1f6c527bd79ecfbf85332b8ae83ceaf1"
          ],
          "data": "0x0000000000000000000000000000000000000000000349c80617f7be8c800000",
          "blockHash": "0x96224253a0ac864ee4428e5c3e8cecb66cc7065158e85559ed3019246fd6c265",
          "blockNumber": "0x9ed0d5",
          "blockTimestamp": "0x69ad520c",
          "transactionHash": "0x1de558e632d96953b9575a7e6c36948361bd7966dd4af8307494f63b71c62e16",
          "transactionIndex": "0x84",
          "logIndex": "0xb2",
          "removed": false
        }
      ],
      "logsBloom": "0x00000000004080000000000000000000000000000000000000000000000000800000000000000000000000000000000002000000000000000000000000000000000000000000000000000008000000000000000000000000000000000000000000000000000000000000000000000000000000000000000000000010000000000100000008000001000000000002000000000000004000000000000000000080000000000001000000000000000000000400000040000000000000000000000000000002000000000000010000000001000000008000000000000000000000000000000000000000000000000001000000000000000000000000000000000000",
      "type": "0x2",
      "transactionHash": "0x1de558e632d96953b9575a7e6c36948361bd7966dd4af8307494f63b71c62e16",
      "transactionIndex": "0x84",
      "blockHash": "0x96224253a0ac864ee4428e5c3e8cecb66cc7065158e85559ed3019246fd6c265",
      "blockNumber": "0x9ed0d5",
      "gasUsed": "0x1187e",
      "effectiveGasPrice": "0x622c6b83",
      "from": "0xf68d9e0faa751ad61e0ed70852798bf9d9c04bf7",
      "to": "0xf4f79b481508b5856203ee23c675fbd6e66daeb3",
      "contractAddress": null
    }
  ],
  "libraries": [],
  "pending": [],
  "returns": {},
  "timestamp": 1772966412819,
  "chain": 11155111,
  "commit": "eb687bb"
}