{
  "transactions": [
    {
      "hash": "0xe18bdf41d68005c960eebf8511b3c18834249c96a98de5d8fb1d6f8f2a8e1a11",
      "transactionType": "CALL",
      "contractName": "MarginVault",
      "contractAddress": "0x15a1b1984c291a0117c99bc03c5d13225fa7880b",
      "function": "withdrawMargin(bytes32,address,uint256,address)",
      "arguments": [
        "0x000000000000000000000000474b4e7fd1a143edea6b77aa845f429d443e6410",
        "0xbb46678a1F6C527bD79eCFBF85332B8Ae83ceaf1",
        "3990200000000000000000000",
        "0x474B4E7FD1A143eDea6b77aa845F429D443E6410"
      ],
      "transaction": {
        "from": "0x474b4e7fd1a143edea6b77aa845f429d443e6410",
        "to": "0x15a1b1984c291a0117c99bc03c5d13225fa7880b",
        "gas": "0x1836c",
        "value": "0x0",
        "input": "0xe0a88ebd000000000000000000000000474b4e7fd1a143edea6b77aa845f429d443e6410000000000000000000000000bb46678a1f6c527bd79ecfbf85332b8ae83ceaf1000000000000000000000000000000000000000000034cf52ce9265697e00000000000000000000000000000474b4e7fd1a143edea6b77aa845f429d443e6410",
        "nonce": "0x3b",
        "chainId": "0xaa36a7"
      },
      "additionalContracts": [],
      "isFixedGasLimit": false
    },
    {
      "hash": "0xa08c6f638e69013433e98c427849dcdc49ca143b613b1ebc34918f62bcbbec5a",
      "transactionType": "CALL",
      "contractName": "MarginVault",
      "contractAddress": "0x15a1b1984c291a0117c99bc03c5d13225fa7880b",
      "function": "withdrawMargin(bytes32,address,uint256,address)",
      "arguments": [
        "0x000000000000000000000000f68d9e0faa751ad61e0ed70852798bf9d9c04bf7",
        "0xbb46678a1F6C527bD79eCFBF85332B8Ae83ceaf1",
        "3970200000000000000000000",
        "0xf68D9e0fAa751AD61e0ED70852798bF9D9C04bF7"
      ],
      "transaction": {
        "from": "0xf68d9e0faa751ad61e0ed70852798bf9d9c04bf7",
        "to": "0x15a1b1984c291a0117c99bc03c5d13225fa7880b",
        "gas": "0x1836c",
        "value": "0x0",
        "input": "0xe0a88ebd000000000000000000000000f68d9e0faa751ad61e0ed70852798bf9d9c04bf7000000000000000000000000bb46678a1f6c527bd79ecfbf85332b8ae83ceaf10000000000000000000000000000000000000000000348b8f92792e133600000000000000000000000000000f68d9e0faa751ad61e0ed70852798bf9d9c04bf7",
        "nonce": "0x3a",
        "chainId": "0xaa36a7"
      },
      "additionalContracts": [],
      "isFixedGasLimit": false
    }
  ],
  "receipts": [
    {
      "status": "0x1",
      "cumulativeGasUsed": "0x946dff",
      "logs": [
        {
          "address": "0xbb46678a1f6c527bd79ecfbf85332b8ae83ceaf1",
          "topics": [
            "0xddf252ad1be2c89b69c2b068fc378daa952ba7f163c4a11628f55a4df523b3ef",
            "0x00000000000000000000000015a1b1984c291a0117c99bc03c5d13225fa7880b",
            "0x000000000000000000000000474b4e7fd1a143edea6b77aa845f429d443e6410"
          ],
          "data": "0x000000000000000000000000000000000000000000034cf52ce9265697e00000",
          "blockHash": "0x2ee4179c90c98ecae11051768e84b6b88fc64f0153e5e73636ccd483a4a65936",
          "blockNumber": "0x9e6ec1",
          "blockTimestamp": "0x69a83f60",
          "transactionHash": "0xe18bdf41d68005c960eebf8511b3c18834249c96a98de5d8fb1d6f8f2a8e1a11",
          "transactionIndex": "0x7a",
          "logIndex": "0xd0",
          "removed": false
        },
        {
          "address": "0x15a1b1984c291a0117c99bc03c5d13225fa7880b",
          "topics": [
            "0x2b005b2b2dd86a46e800eb8759dd1c1d0274d7f87d24bf2e59086a870fdc034a",
            "0x000000000000000000000000474b4e7fd1a143edea6b77aa845f429d443e6410",
            "0x000000000000000000000000bb46678a1f6c527bd79ecfbf85332b8ae83ceaf1"
          ],
          "data": "0x000000000000000000000000000000000000000000034cf52ce9265697e00000",
          "blockHash": "0x2ee4179c90c98ecae11051768e84b6b88fc64f0153e5e73636ccd483a4a65936",
          "blockNumber": "0x9e6ec1",
          "blockTimestamp": "0x69a83f60",
          "transactionHash": "0xe18bdf41d68005c960eebf8511b3c18834249c96a98de5d8fb1d6f8f2a8e1a11",
          "transactionIndex": "0x7a",
          "logIndex": "0xd1",
          "removed": false
        }
      ],
      "logsBloom": "0x00000000000000080000000000000000000000000000000000000000000000000000000000000000000000000000200002000000000000000008000000000000000000000000000000400008000000000000000000000000000000000000000000400000000000000000000000000000000000000000000000000010000000000100000008000001000000000002000000000000000000000000000000000000000000000000000000000000000000000000000040000000000100000000000000000002000000000000000000001001000000008000000000000010000000000000000000000000000000000001000000000010000000000000000000000000",
      "type": "0x2",
      "transactionHash": "0xe18bdf41d68005c960eebf8511b3c18834249c96a98de5d8fb1d6f8f2a8e1a11",
      "transactionIndex": "0x7a",
      "blockHash": "0x2ee4179c90c98ecae11051768e84b6b88fc64f0153e5e73636ccd483a4a65936",
      "blockNumber": "0x9e6ec1",
      "gasUsed": "0x1187e",
      "effectiveGasPrice": "0xf5dd6",
      "from": "0x474b4e7fd1a143edea6b77aa845f429d443e6410",
      "to": "0x15a1b1984c291a0117c99bc03c5d13225fa7880b",
      "contractAddress": null
    },
    {
      "status": "0x1",
      "cumulativeGasUsed": "0xb3f953",
      "logs": [
        {
          "address": "0xbb46678a1f6c527bd79ecfbf85332b8ae83ceaf1",
          "topics": [
            "0xddf252ad1be2c89b69c2b068fc378daa952ba7f163c4a11628f55a4df523b3ef",
            "0x00000000000000000000000015a1b1984c291a0117c99bc03c5d13225fa7880b",
            "0x000000000000000000000000f68d9e0faa751ad61e0ed70852798bf9d9c04bf7"
          ],
          "data": "0x0000000000000000000000000000000000000000000348b8f92792e133600000",
          "blockHash": "0xaa8df230dffc7537911c164642897b7e4723572d2a525b1310c746867d57ee0f",
          "blockNumber": "0x9e6ec2",
          "blockTimestamp": "0x69a83f6c",
          "transactionHash": "0xa08c6f638e69013433e98c427849dcdc49ca143b613b1ebc34918f62bcbbec5a",
          "transactionIndex": "0x99",
          "logIndex": "0x134",
          "removed": false
        },
        {
          "address": "0x15a1b1984c291a0117c99bc03c5d13225fa7880b",
          "topics": [
            "0x2b005b2b2dd86a46e800eb8759dd1c1d0274d7f87d24bf2e59086a870fdc034a",
            "0x000000000000000000000000f68d9e0faa751ad61e0ed70852798bf9d9c04bf7",
            "0x000000000000000000000000bb46678a1f6c527bd79ecfbf85332b8ae83ceaf1"
          ],
          "data": "0x0000000000000000000000000000000000000000000348b8f92792e133600000",
          "blockHash": "0xaa8df230dffc7537911c164642897b7e4723572d2a525b1310c746867d57ee0f",
          "blockNumber": "0x9e6ec2",
          "blockTimestamp": "0x69a83f6c",
          "transactionHash": "0xa08c6f638e69013433e98c427849dcdc49ca143b613b1ebc34918f62bcbbec5a",
          "transactionIndex": "0x99",
          "logIndex": "0x135",
          "removed": false
        }
      ],
      "logsBloom": "0x00000000000000080000000000000000000000000000000000000000000000800000000000000000000000000000200002000000000000000008000000000000000000000000000000400008000000000000000000000000000000000000000000000000000000000000000000000000000000000000000000000010000000000100000008000001000000000002000000000000000000000000000000000000000000000000000000000000000000000400000040000000000000000000000000000002000000000000000000001001000000008000000000000000000000000000000000000000000000000001000000000010000000000000000000000000",
      "type": "0x2",
      "transactionHash": "0xa08c6f638e69013433e98c427849dcdc49ca143b613b1ebc34918f62bcbbec5a",
      "transactionIndex": "0x99",
      "blockHash": "0xaa8df230dffc7537911c164642897b7e4723572d2a525b1310c746867d57ee0f",
      "blockNumber": "0x9e6ec2",
      "gasUsed": "0x1187e",
      "effectiveGasPrice": "0xf5dd6",
      "from": "0xf68d9e0faa751ad61e0ed70852798bf9d9c04bf7",
      "to": "0x15a1b1984c291a0117c99bc03c5d13225fa7880b",
      "contractAddress": null
    }
  ],
  "libraries": [],
  "pending": [],
  "returns": {},
  "timestamp": 1772633965541,
  "chain": 11155111,
  "commit": "7621ae8"
}