{
  "transactions": [
    {
      "hash": "0x27610abf8b8f1c54f22caa4b43ab854a993d436316cabc5381b4fd8e9229c78a",
      "transactionType": "CALL",
      "contractName": "MarginVault",
      "contractAddress": "0x9036b1d7b51331d6f517b7081074fe181d494bc6",
      "function": "withdrawMargin(bytes32,address,uint256,address)",
      "arguments": [
        "0x000000000000000000000000474b4e7fd1a143edea6b77aa845f429d443e6410",
        "0xbb46678a1F6C527bD79eCFBF85332B8Ae83ceaf1",
        "12010200000000000000000000",
        "0x474B4E7FD1A143eDea6b77aa845F429D443E6410"
      ],
      "transaction": {
        "from": "0x474b4e7fd1a143edea6b77aa845f429d443e6410",
        "to": "0x9036b1d7b51331d6f517b7081074fe181d494bc6",
        "gas": "0x19f4d",
        "value": "0x0",
        "input": "0xe0a88ebd000000000000000000000000474b4e7fd1a143edea6b77aa845f429d443e6410000000000000000000000000bb46678a1f6c527bd79ecfbf85332b8ae83ceaf100000000000000000000000000000000000000000009ef423f21213904600000000000000000000000000000474b4e7fd1a143edea6b77aa845f429d443e6410",
        "nonce": "0x24",
        "chainId": "0xaa36a7"
      },
      "additionalContracts": [],
      "isFixedGasLimit": false
    },
    {
      "hash": "0x916973638051a124eeca3503e6e4d3b20d6da36ca0f0801aefb156b0cc5273b9",
      "transactionType": "CALL",
      "contractName": "MarginVault",
      "contractAddress": "0x9036b1d7b51331d6f517b7081074fe181d494bc6",
      "function": "withdrawMargin(bytes32,address,uint256,address)",
      "arguments": [
        "0x000000000000000000000000f68d9e0faa751ad61e0ed70852798bf9d9c04bf7",
        "0xbb46678a1F6C527bD79eCFBF85332B8Ae83ceaf1",
        "11950200000000000000000000",
        "0xf68D9e0fAa751AD61e0ED70852798bF9D9C04bF7"
      ],
      "transaction": {
        "from": "0xf68d9e0faa751ad61e0ed70852798bf9d9c04bf7",
        "to": "0x9036b1d7b51331d6f517b7081074fe181d494bc6",
        "gas": "0x19f4d",
        "value": "0x0",
        "input": "0xe0a88ebd000000000000000000000000f68d9e0faa751ad61e0ed70852798bf9d9c04bf7000000000000000000000000bb46678a1f6c527bd79ecfbf85332b8ae83ceaf100000000000000000000000000000000000000000009e28da3dc66d8d6e00000000000000000000000000000f68d9e0faa751ad61e0ed70852798bf9d9c04bf7",
        "nonce": "0x22",
        "chainId": "0xaa36a7"
      },
      "additionalContracts": [],
      "isFixedGasLimit": false
    }
  ],
  "receipts": [
    {
      "status": "0x1",
      "cumulativeGasUsed": "0x71bdf5",
      "logs": [
        {
          "address": "0xbb46678a1f6c527bd79ecfbf85332b8ae83ceaf1",
          "topics": [
            "0xddf252ad1be2c89b69c2b068fc378daa952ba7f163c4a11628f55a4df523b3ef",
            "0x0000000000000000000000009036b1d7b51331d6f517b7081074fe181d494bc6",
            "0x000000000000000000000000474b4e7fd1a143edea6b77aa845f429d443e6410"
          ],
          "data": "0x00000000000000000000000000000000000000000009ef423f21213904600000",
          "blockHash": "0x5da0f038fe12d60527f90e439f81cf9b432dd9801f93a638b9ece02c3e46ba38",
          "blockNumber": "0x9e4d50",
          "blockTimestamp": "0x69a6a19c",
          "transactionHash": "0x27610abf8b8f1c54f22caa4b43ab854a993d436316cabc5381b4fd8e9229c78a",
          "transactionIndex": "0x42",
          "logIndex": "0x5e",
          "removed": false
        },
        {
          "address": "0x9036b1d7b51331d6f517b7081074fe181d494bc6",
          "topics": [
            "0x2b005b2b2dd86a46e800eb8759dd1c1d0274d7f87d24bf2e59086a870fdc034a",
            "0x000000000000000000000000474b4e7fd1a143edea6b77aa845f429d443e6410",
            "0x000000000000000000000000bb46678a1f6c527bd79ecfbf85332b8ae83ceaf1"
          ],
          "data": "0x00000000000000000000000000000000000000000009ef423f21213904600000",
          "blockHash": "0x5da0f038fe12d60527f90e439f81cf9b432dd9801f93a638b9ece02c3e46ba38",
          "blockNumber": "0x9e4d50",
          "blockTimestamp": "0x69a6a19c",
          "transactionHash": "0x27610abf8b8f1c54f22caa4b43ab854a993d436316cabc5381b4fd8e9229c78a",
          "transactionIndex": "0x42",
          "logIndex": "0x5f",
          "removed": false
        }
      ],
      "logsBloom": "0x00000000000000000000080000000000000000000000000000000000000000000000000000000000000000000000000002000000000000000000000000000000000000000000000000000008000000000000000000000000000000000000000000400000008000000000000000000000000000000000000000000010000000000100000008000001000000000002000000080020000000000000000000000000000000000000000000000000000000000000000040000000000100000000000000000002000000000000000000000001000000008000000080000010000000000000000000000000000000000001000000000000000000000000000000000000",
      "type": "0x2",
      "transactionHash": "0x27610abf8b8f1c54f22caa4b43ab854a993d436316cabc5381b4fd8e9229c78a",
      "transactionIndex": "0x42",
      "blockHash": "0x5da0f038fe12d60527f90e439f81cf9b432dd9801f93a638b9ece02c3e46ba38",
      "blockNumber": "0x9e4d50",
      "gasUsed": "0x12cad",
      "effectiveGasPrice": "0xf4248",
      "from": "0x474b4e7fd1a143edea6b77aa845f429d443e6410",
      "to": "0x9036b1d7b51331d6f517b7081074fe181d494bc6",
      "contractAddress": null
    },
    {
      "status": "0x1",
      "cumulativeGasUsed": "0x62690c",
      "logs": [
        {
          "address": "0xbb46678a1f6c527bd79ecfbf85332b8ae83ceaf1",
          "topics": [
            "0xddf252ad1be2c89b69c2b068fc378daa952ba7f163c4a11628f55a4df523b3ef",
            "0x0000000000000000000000009036b1d7b51331d6f517b7081074fe181d494bc6",
            "0x000000000000000000000000f68d9e0faa751ad61e0ed70852798bf9d9c04bf7"
          ],
          "data": "0x00000000000000000000000000000000000000000009e28da3dc66d8d6e00000",
          "blockHash": "0x672b4e84af4805476fa9ddf4d9095de58e9ac1aceb62ff73f80e993bc4cbba55",
          "blockNumber": "0x9e4d51",
          "blockTimestamp": "0x69a6a1a8",
          "transactionHash": "0x916973638051a124eeca3503e6e4d3b20d6da36ca0f0801aefb156b0cc5273b9",
          "transactionIndex": "0x60",
          "logIndex": "0x9b",
          "removed": false
        },
        {
          "address": "0x9036b1d7b51331d6f517b7081074fe181d494bc6",
          "topics": [
            "0x2b005b2b2dd86a46e800eb8759dd1c1d0274d7f87d24bf2e59086a870fdc034a",
            "0x000000000000000000000000f68d9e0faa751ad61e0ed70852798bf9d9c04bf7",
            "0x000000000000000000000000bb46678a1f6c527bd79ecfbf85332b8ae83ceaf1"
          ],
          "data": "0x00000000000000000000000000000000000000000009e28da3dc66d8d6e00000",
          "blockHash": "0x672b4e84af4805476fa9ddf4d9095de58e9ac1aceb62ff73f80e993bc4cbba55",
          "blockNumber": "0x9e4d51",
          "blockTimestamp": "0x69a6a1a8",
          "transactionHash": "0x916973638051a124eeca3503e6e4d3b20d6da36ca0f0801aefb156b0cc5273b9",
          "transactionIndex": "0x60",
          "logIndex": "0x9c",
          "removed": false
        }
      ],
      "logsBloom": "0x00000000000000000000080000000000000000000000000000000000000000800000000000000000000000000000000002000000000000000000000000000000000000000000000000000008000000000000000000000000000000000000000000000000008000000000000000000000000000000000000000000010000000000100000008000001000000000002000000080020000000000000000000000000000000000000000000000000000000000400000040000000000000000000000000000002000000000000000000000001000000008000000080000000000000000000000000000000000000000001000000000000000000000000000000000000",
      "type": "0x2",
      "transactionHash": "0x916973638051a124eeca3503e6e4d3b20d6da36ca0f0801aefb156b0cc5273b9",
      "transactionIndex": "0x60",
      "blockHash": "0x672b4e84af4805476fa9ddf4d9095de58e9ac1aceb62ff73f80e993bc4cbba55",
      "blockNumber": "0x9e4d51",
      "gasUsed": "0x12cad",
      "effectiveGasPrice": "0xf4248",
      "from": "0xf68d9e0faa751ad61e0ed70852798bf9d9c04bf7",
      "to": "0x9036b1d7b51331d6f517b7081074fe181d494bc6",
      "contractAddress": null
    }
  ],
  "libraries": [],
  "pending": [],
  "returns": {},
  "timestamp": 1772528041482,
  "chain": 11155111,
  "commit": "b8160eb"
}