{
  "transactions": [
    {
      "hash": "0x46dea37235aee563f47426571943adc833b11333f581dbbf52f3d12c2ba2ad21",
      "transactionType": "CALL",
      "contractName": "MarginVault",
      "contractAddress": "0x46581c3b8ae1b92f773d966b39531d8fb803d71f",
      "function": "withdrawMargin(bytes32,address,uint256,address)",
      "arguments": [
        "0x000000000000000000000000474b4e7fd1a143edea6b77aa845f429d443e6410",
        "0xbb46678a1F6C527bD79eCFBF85332B8Ae83ceaf1",
        "4000000000000000000000000",
        "0x474B4E7FD1A143eDea6b77aa845F429D443E6410"
      ],
      "transaction": {
        "from": "0x474b4e7fd1a143edea6b77aa845f429d443e6410",
        "to": "0x46581c3b8ae1b92f773d966b39531d8fb803d71f",
        "gas": "0x16995",
        "value": "0x0",
        "input": "0xe0a88ebd000000000000000000000000474b4e7fd1a143edea6b77aa845f429d443e6410000000000000000000000000bb46678a1f6c527bd79ecfbf85332b8ae83ceaf1000000000000000000000000000000000000000000034f086f3b33b684000000000000000000000000000000474b4e7fd1a143edea6b77aa845f429d443e6410",
        "nonce": "0x30",
        "chainId": "0xaa36a7"
      },
      "additionalContracts": [],
      "isFixedGasLimit": false
    },
    {
      "hash": "0xcb48df757e14a3cc514891043caa3bd9a21ef5e6e466d93abd0e279af28bde4e",
      "transactionType": "CALL",
      "contractName": "MarginVault",
      "contractAddress": "0x46581c3b8ae1b92f773d966b39531d8fb803d71f",
      "function": "withdrawMargin(bytes32,address,uint256,address)",
      "arguments": [
        "0x000000000000000000000000f68d9e0faa751ad61e0ed70852798bf9d9c04bf7",
        "0xbb46678a1F6C527bD79eCFBF85332B8Ae83ceaf1",
        "4000000000000000000000000",
        "0xf68D9e0fAa751AD61e0ED70852798bF9D9C04bF7"
      ],
      "transaction": {
        "from": "0xf68d9e0faa751ad61e0ed70852798bf9d9c04bf7",
        "to": "0x46581c3b8ae1b92f773d966b39531d8fb803d71f",
        "gas": "0x14faf",
        "value": "0x0",
        "input": "0xe0a88ebd000000000000000000000000f68d9e0faa751ad61e0ed70852798bf9d9c04bf7000000000000000000000000bb46678a1f6c527bd79ecfbf85332b8ae83ceaf1000000000000000000000000000000000000000000034f086f3b33b684000000000000000000000000000000f68d9e0faa751ad61e0ed70852798bf9d9c04bf7",
        "nonce": "0x2e",
        "chainId": "0xaa36a7"
      },
      "additionalContracts": [],
      "isFixedGasLimit": false
    }
  ],
  "receipts": [
    {
      "status": "0x1",
      "cumulativeGasUsed": "0x9b99c4",
      "logs": [
        {
          "address": "0xbb46678a1f6c527bd79ecfbf85332b8ae83ceaf1",
          "topics": [
            "0xddf252ad1be2c89b69c2b068fc378daa952ba7f163c4a11628f55a4df523b3ef",
            "0x00000000000000000000000046581c3b8ae1b92f773d966b39531d8fb803d71f",
            "0x000000000000000000000000474b4e7fd1a143edea6b77aa845f429d443e6410"
          ],
          "data": "0x000000000000000000000000000000000000000000034f086f3b33b684000000",
          "blockHash": "0xe5accbb1eb51df7318cc759f3e8cc89734289e005455e49908ee4876af6902f5",
          "blockNumber": "0x9e5033",
          "blockTimestamp": "0x69a6c530",
          "transactionHash": "0x46dea37235aee563f47426571943adc833b11333f581dbbf52f3d12c2ba2ad21",
          "transactionIndex": "0x84",
          "logIndex": "0xab",
          "removed": false
        },
        {
          "address": "0x46581c3b8ae1b92f773d966b39531d8fb803d71f",
          "topics": [
            "0x2b005b2b2dd86a46e800eb8759dd1c1d0274d7f87d24bf2e59086a870fdc034a",
            "0x000000000000000000000000474b4e7fd1a143edea6b77aa845f429d443e6410",
            "0x000000000000000000000000bb46678a1f6c527bd79ecfbf85332b8ae83ceaf1"
          ],
          "data": "0x000000000000000000000000000000000000000000034f086f3b33b684000000",
          "blockHash": "0xe5accbb1eb51df7318cc759f3e8cc89734289e005455e49908ee4876af6902f5",
          "blockNumber": "0x9e5033",
          "blockTimestamp": "0x69a6c530",
          "transactionHash": "0x46dea37235aee563f47426571943adc833b11333f581dbbf52f3d12c2ba2ad21",
          "transactionIndex": "0x84",
          "logIndex": "0xac",
          "removed": false
        }
      ],
      "logsBloom": "0x00000000000000000000000000000000000000000000000000000000000000000000000000000000000000000000000002000000000002000000000000000000000000000000000040000008000000000000000000400000000000000000000000400000000000000000000000080000000000000000000000000010000000000100000008000001000000000002000000000000000000000000000000000000000000000000000000400000100000000000000040000000000100000000000000000002000000000000000000000001000000008000000000000010000000000000000000000000000000000001000000000000000000000000000000000000",
      "type": "0x2",
      "transactionHash": "0x46dea37235aee563f47426571943adc833b11333f581dbbf52f3d12c2ba2ad21",
      "transactionIndex": "0x84",
      "blockHash": "0xe5accbb1eb51df7318cc759f3e8cc89734289e005455e49908ee4876af6902f5",
      "blockNumber": "0x9e5033",
      "gasUsed": "0x105c8",
      "effectiveGasPrice": "0xfec23",
      "from": "0x474b4e7fd1a143edea6b77aa845f429d443e6410",
      "to": "0x46581c3b8ae1b92f773d966b39531d8fb803d71f",
      "contractAddress": null
    },
    {
      "status": "0x1",
      "cumulativeGasUsed": "0x8ee6fa",
      "logs": [
        {
          "address": "0xbb46678a1f6c527bd79ecfbf85332b8ae83ceaf1",
          "topics": [
            "0xddf252ad1be2c89b69c2b068fc378daa952ba7f163c4a11628f55a4df523b3ef",
            "0x00000000000000000000000046581c3b8ae1b92f773d966b39531d8fb803d71f",
            "0x000000000000000000000000f68d9e0faa751ad61e0ed70852798bf9d9c04bf7"
          ],
          "data": "0x000000000000000000000000000000000000000000034f086f3b33b684000000",
          "blockHash": "0x44ddd4359b285ff622ada0f1f7edb8fbf2792134fb72b2ccd50043063cd139b5",
          "blockNumber": "0x9e5035",
          "blockTimestamp": "0x69a6c548",
          "transactionHash": "0xcb48df757e14a3cc514891043caa3bd9a21ef5e6e466d93abd0e279af28bde4e",
          "transactionIndex": "0x65",
          "logIndex": "0x97",
          "removed": false
        },
        {
          "address": "0x46581c3b8ae1b92f773d966b39531d8fb803d71f",
          "topics": [
            "0x2b005b2b2dd86a46e800eb8759dd1c1d0274d7f87d24bf2e59086a870fdc034a",
            "0x000000000000000000000000f68d9e0faa751ad61e0ed70852798bf9d9c04bf7",
            "0x000000000000000000000000bb46678a1f6c527bd79ecfbf85332b8ae83ceaf1"
          ],
          "data": "0x000000000000000000000000000000000000000000034f086f3b33b684000000",
          "blockHash": "0x44ddd4359b285ff622ada0f1f7edb8fbf2792134fb72b2ccd50043063cd139b5",
          "blockNumber": "0x9e5035",
          "blockTimestamp": "0x69a6c548",
          "transactionHash": "0xcb48df757e14a3cc514891043caa3bd9a21ef5e6e466d93abd0e279af28bde4e",
          "transactionIndex": "0x65",
          "logIndex": "0x98",
          "removed": false
        }
      ],
      "logsBloom": "0x00000000000000000000000000000000000000000000000000000000000000800000000000000000000000000000000002000000000002000000000000000000000000000000000040000008000000000000000000400000000000000000000000000000000000000000000000080000000000000000000000000010000000000100000008000001000000000002000000000000000000000000000000000000000000000000000000400000100000000400000040000000000000000000000000000002000000000000000000000001000000008000000000000000000000000000000000000000000000000001000000000000000000000000000000000000",
      "type": "0x2",
      "transactionHash": "0xcb48df757e14a3cc514891043caa3bd9a21ef5e6e466d93abd0e279af28bde4e",
      "transactionIndex": "0x65",
      "blockHash": "0x44ddd4359b285ff622ada0f1f7edb8fbf2792134fb72b2ccd50043063cd139b5",
      "blockNumber": "0x9e5035",
      "gasUsed": "0xf308",
      "effectiveGasPrice": "0xfec25",
      "from": "0xf68d9e0faa751ad61e0ed70852798bf9d9c04bf7",
      "to": "0x46581c3b8ae1b92f773d966b39531d8fb803d71f",
      "contractAddress": null
    }
  ],
  "libraries": [],
  "pending": [],
  "returns": {},
  "timestamp": 1772537162344,
  "chain": 11155111,
  "commit": "3eff512"
}