{
  "transactions": [
    {
      "hash": "0x81d50d11ba505c416c794f54d245c6e916b7330016cba9c88a8ee6a631e1b3fe",
      "transactionType": "CALL",
      "contractName": "MarginVault",
      "contractAddress": "0x8c5d49ebcbbcc4aa4d65a2d2629eebe53b67027f",
      "function": "withdrawMargin(bytes32,address,uint256,address)",
      "arguments": [
        "0x000000000000000000000000474b4e7fd1a143edea6b77aa845f429d443e6410",
        "0xbb46678a1F6C527bD79eCFBF85332B8Ae83ceaf1",
        "4000200000000000000000000",
        "0x474B4E7FD1A143eDea6b77aa845F429D443E6410"
      ],
      "transaction": {
        "from": "0x474b4e7fd1a143edea6b77aa845f429d443e6410",
        "to": "0x8c5d49ebcbbcc4aa4d65a2d2629eebe53b67027f",
        "gas": "0x1836c",
        "value": "0x0",
        "input": "0xe0a88ebd000000000000000000000000474b4e7fd1a143edea6b77aa845f429d443e6410000000000000000000000000bb46678a1f6c527bd79ecfbf85332b8ae83ceaf1000000000000000000000000000000000000000000034f1346c9f0114a200000000000000000000000000000474b4e7fd1a143edea6b77aa845f429d443e6410",
        "nonce": "0x38",
        "chainId": "0xaa36a7"
      },
      "additionalContracts": [],
      "isFixedGasLimit": false
    },
    {
      "hash": "0xb51e0cbcfa7816d4b13fe66fb7abb009b2d2674d68b94f83f18b7749f56301de",
      "transactionType": "CALL",
      "contractName": "MarginVault",
      "contractAddress": "0x8c5d49ebcbbcc4aa4d65a2d2629eebe53b67027f",
      "function": "withdrawMargin(bytes32,address,uint256,address)",
      "arguments": [
        "0x000000000000000000000000f68d9e0faa751ad61e0ed70852798bf9d9c04bf7",
        "0xbb46678a1F6C527bD79eCFBF85332B8Ae83ceaf1",
        "3960200000000000000000000",
        "0xf68D9e0fAa751AD61e0ED70852798bF9D9C04bF7"
      ],
      "transaction": {
        "from": "0xf68d9e0faa751ad61e0ed70852798bf9d9c04bf7",
        "to": "0x8c5d49ebcbbcc4aa4d65a2d2629eebe53b67027f",
        "gas": "0x1836c",
        "value": "0x0",
        "input": "0xe0a88ebd000000000000000000000000f68d9e0faa751ad61e0ed70852798bf9d9c04bf7000000000000000000000000bb46678a1f6c527bd79ecfbf85332b8ae83ceaf100000000000000000000000000000000000000000003469adf46c92681200000000000000000000000000000f68d9e0faa751ad61e0ed70852798bf9d9c04bf7",
        "nonce": "0x37",
        "chainId": "0xaa36a7"
      },
      "additionalContracts": [],
      "isFixedGasLimit": false
    }
  ],
  "receipts": [
    {
      "status": "0x1",
      "cumulativeGasUsed": "0x8b29b2",
      "logs": [
        {
          "address": "0xbb46678a1f6c527bd79ecfbf85332b8ae83ceaf1",
          "topics": [
            "0xddf252ad1be2c89b69c2b068fc378daa952ba7f163c4a11628f55a4df523b3ef",
            "0x0000000000000000000000008c5d49ebcbbcc4aa4d65a2d2629eebe53b67027f",
            "0x000000000000000000000000474b4e7fd1a143edea6b77aa845f429d443e6410"
          ],
          "data": "0x000000000000000000000000000000000000000000034f1346c9f0114a200000",
          "blockHash": "0x6da2a833dd42c8bc3ef4b519602fe4f5237ef66cd68785bcc3fe1f0d59071de4",
          "blockNumber": "0x9e6bed",
          "blockTimestamp": "0x69a81c68",
          "transactionHash": "0x81d50d11ba505c416c794f54d245c6e916b7330016cba9c88a8ee6a631e1b3fe",
          "transactionIndex": "0x60",
          "logIndex": "0xb1",
          "removed": false
        },
        {
          "address": "0x8c5d49ebcbbcc4aa4d65a2d2629eebe53b67027f",
          "topics": [
            "0x2b005b2b2dd86a46e800eb8759dd1c1d0274d7f87d24bf2e59086a870fdc034a",
            "0x000000000000000000000000474b4e7fd1a143edea6b77aa845f429d443e6410",
            "0x000000000000000000000000bb46678a1f6c527bd79ecfbf85332b8ae83ceaf1"
          ],
          "data": "0x000000000000000000000000000000000000000000034f1346c9f0114a200000",
          "blockHash": "0x6da2a833dd42c8bc3ef4b519602fe4f5237ef66cd68785bcc3fe1f0d59071de4",
          "blockNumber": "0x9e6bed",
          "blockTimestamp": "0x69a81c68",
          "transactionHash": "0x81d50d11ba505c416c794f54d245c6e916b7330016cba9c88a8ee6a631e1b3fe",
          "transactionIndex": "0x60",
          "logIndex": "0xb2",
          "removed": false
        }
      ],
      "logsBloom": "0x00000010000000000000000000000000000000000000000000000000000000000000000000000000000000000000000002000000000000000000000000000000002000000000000000000008000020000000000000000000000000000000000000400000000080000000000000000000000000000000000000100010000000000100000008000001000000000002000000000000000000000000000000000000000000000000000000000000000000100000000040000000000100000000000000000002000000000000000000000001000000008000000000000010000000000000000000000000000000000001000000000000000000000000000000000000",
      "type": "0x2",
      "transactionHash": "0x81d50d11ba505c416c794f54d245c6e916b7330016cba9c88a8ee6a631e1b3fe",
      "transactionIndex": "0x60",
      "blockHash": "0x6da2a833dd42c8bc3ef4b519602fe4f5237ef66cd68785bcc3fe1f0d59071de4",
      "blockNumber": "0x9e6bed",
      "gasUsed": "0x1187e",
      "effectiveGasPrice": "0x100592",
      "from": "0x474b4e7fd1a143edea6b77aa845f429d443e6410",
      "to": "0x8c5d49ebcbbcc4aa4d65a2d2629eebe53b67027f",
      "contractAddress": null
    },
    {
      "status": "0x1",
      "cumulativeGasUsed": "0xa09d1a",
      "logs": [
        {
          "address": "0xbb46678a1f6c527bd79ecfbf85332b8ae83ceaf1",
          "topics": [
            "0xddf252ad1be2c89b69c2b068fc378daa952ba7f163c4a11628f55a4df523b3ef",
            "0x0000000000000000000000008c5d49ebcbbcc4aa4d65a2d2629eebe53b67027f",
            "0x000000000000000000000000f68d9e0faa751ad61e0ed70852798bf9d9c04bf7"
          ],
          "data": "0x00000000000000000000000000000000000000000003469adf46c92681200000",
          "blockHash": "0x6921d4a7f8554dc42835e53a4af8e906bb4308c5ff1ebe23df057acafd283eca",
          "blockNumber": "0x9e6bee",
          "blockTimestamp": "0x69a81c74",
          "transactionHash": "0xb51e0cbcfa7816d4b13fe66fb7abb009b2d2674d68b94f83f18b7749f56301de",
          "transactionIndex": "0x64",
          "logIndex": "0x9f",
          "removed": false
        },
        {
          "address": "0x8c5d49ebcbbcc4aa4d65a2d2629eebe53b67027f",
          "topics": [
            "0x2b005b2b2dd86a46e800eb8759dd1c1d0274d7f87d24bf2e59086a870fdc034a",
            "0x000000000000000000000000f68d9e0faa751ad61e0ed70852798bf9d9c04bf7",
            "0x000000000000000000000000bb46678a1f6c527bd79ecfbf85332b8ae83ceaf1"
          ],
          "data": "0x00000000000000000000000000000000000000000003469adf46c92681200000",
          "blockHash": "0x6921d4a7f8554dc42835e53a4af8e906bb4308c5ff1ebe23df057acafd283eca",
          "blockNumber": "0x9e6bee",
          "blockTimestamp": "0x69a81c74",
          "transactionHash": "0xb51e0cbcfa7816d4b13fe66fb7abb009b2d2674d68b94f83f18b7749f56301de",
          "transactionIndex": "0x64",
          "logIndex": "0xa0",
          "removed": false
        }
      ],
      "logsBloom": "0x00000010000000000000000000000000000000000000000000000000000000800000000000000000000000000000000002000000000000000000000000000000002000000000000000000008000020000000000000000000000000000000000000000000000080000000000000000000000000000000000000100010000000000100000008000001000000000002000000000000000000000000000000000000000000000000000000000000000000100400000040000000000000000000000000000002000000000000000000000001000000008000000000000000000000000000000000000000000000000001000000000000000000000000000000000000",
      "type": "0x2",
      "transactionHash": "0xb51e0cbcfa7816d4b13fe66fb7abb009b2d2674d68b94f83f18b7749f56301de",
      "transactionIndex": "0x64",
      "blockHash": "0x6921d4a7f8554dc42835e53a4af8e906bb4308c5ff1ebe23df057acafd283eca",
      "blockNumber": "0x9e6bee",
      "gasUsed": "0x1187e",
      "effectiveGasPrice": "0x100592",
      "from": "0xf68d9e0faa751ad61e0ed70852798bf9d9c04bf7",
      "to": "0x8c5d49ebcbbcc4aa4d65a2d2629eebe53b67027f",
      "contractAddress": null
    }
  ],
  "libraries": [],
  "pending": [],
  "returns": {},
  "timestamp": 1772625013375,
  "chain": 11155111,
  "commit": "7621ae8"
}