{
  "transactions": [
    {
      "hash": "0x43b8de3280bb4bbc561b408918215d514bf8e2ccf1a70d9bb387eb9c69f13e18",
      "transactionType": "CALL",
      "contractName": null,
      "contractAddress": "0x70715ae141e90aff912f43676b762e3473fc0f1e",
      "function": "withdrawMargin(bytes32,address,uint256,address)",
      "arguments": [
        "0x0000000000000000000000000000000000000000000000000000000000000001",
        "0xbb46678a1F6C527bD79eCFBF85332B8Ae83ceaf1",
        "4000000000000000000000000",
        "0x474B4E7FD1A143eDea6b77aa845F429D443E6410"
      ],
      "transaction": {
        "from": "0x474b4e7fd1a143edea6b77aa845f429d443e6410",
        "to": "0x70715ae141e90aff912f43676b762e3473fc0f1e",
        "gas": "0x17163",
        "value": "0x0",
        "input": "0xe0a88ebd0000000000000000000000000000000000000000000000000000000000000001000000000000000000000000bb46678a1f6c527bd79ecfbf85332b8ae83ceaf1000000000000000000000000000000000000000000034f086f3b33b684000000000000000000000000000000474b4e7fd1a143edea6b77aa845f429d443e6410",
        "nonce": "0xc",
        "chainId": "0xaa36a7"
      },
      "additionalContracts": [],
      "isFixedGasLimit": false
    },
    {
      "hash": "0x53592dd22fd19fe8f4073d55069d81b1cdbca7940421ccce40f356c6be92e2b0",
      "transactionType": "CALL",
      "contractName": null,
      "contractAddress": "0x70715ae141e90aff912f43676b762e3473fc0f1e",
      "function": "withdrawMargin(bytes32,address,uint256,address)",
      "arguments": [
        "0x0000000000000000000000000000000000000000000000000000000000000002",
        "0xbb46678a1F6C527bD79eCFBF85332B8Ae83ceaf1",
        "3999994000000000000000000",
        "0xf68D9e0fAa751AD61e0ED70852798bF9D9C04bF7"
      ],
      "transaction": {
        "from": "0xf68d9e0faa751ad61e0ed70852798bf9d9c04bf7",
        "to": "0x70715ae141e90aff912f43676b762e3473fc0f1e",
        "gas": "0x15ced",
        "value": "0x0",
        "input": "0xe0a88ebd0000000000000000000000000000000000000000000000000000000000000002000000000000000000000000bb46678a1f6c527bd79ecfbf85332b8ae83ceaf1000000000000000000000000000000000000000000034f081bf6eb8097a80000000000000000000000000000f68d9e0faa751ad61e0ed70852798bf9d9c04bf7",
        "nonce": "0xa",
        "chainId": "0xaa36a7"
      },
      "additionalContracts": [],
      "isFixedGasLimit": false
    }
  ],
  "receipts": [
    {
      "status": "0x1",
      "cumulativeGasUsed": "0x168e6e3",
      "logs": [
        {
          "address": "0xbb46678a1f6c527bd79ecfbf85332b8ae83ceaf1",
          "topics": [
            "0xddf252ad1be2c89b69c2b068fc378daa952ba7f163c4a11628f55a4df523b3ef",
            "0x00000000000000000000000070715ae141e90aff912f43676b762e3473fc0f1e",
            "0x000000000000000000000000474b4e7fd1a143edea6b77aa845f429d443e6410"
          ],
          "data": "0x000000000000000000000000000000000000000000034f086f3b33b684000000",
          "blockHash": "0x2674aaed7b0714421345efaba443983f72f02089f1f85ea88d41b7e8ae696259",
          "blockNumber": "0x9ddacd",
          "blockTimestamp": "0x69a119e4",
          "transactionHash": "0x43b8de3280bb4bbc561b408918215d514bf8e2ccf1a70d9bb387eb9c69f13e18",
          "transactionIndex": "0x7d",
          "logIndex": "0x14d",
          "removed": false
        },
        {
          "address": "0x70715ae141e90aff912f43676b762e3473fc0f1e",
          "topics": [
            "0x2b005b2b2dd86a46e800eb8759dd1c1d0274d7f87d24bf2e59086a870fdc034a",
            "0x0000000000000000000000000000000000000000000000000000000000000001",
            "0x000000000000000000000000bb46678a1f6c527bd79ecfbf85332b8ae83ceaf1"
          ],
          "data": "0x000000000000000000000000000000000000000000034f086f3b33b684000000",
          "blockHash": "0x2674aaed7b0714421345efaba443983f72f02089f1f85ea88d41b7e8ae696259",
          "blockNumber": "0x9ddacd",
          "blockTimestamp": "0x69a119e4",
          "transactionHash": "0x43b8de3280bb4bbc561b408918215d514bf8e2ccf1a70d9bb387eb9c69f13e18",
          "transactionIndex": "0x7d",
          "logIndex": "0x14e",
          "removed": false
        }
      ],
      "logsBloom": "0x00000000000000000000000000000000000000000000000000000000000000000000000000000400000000000000000002000000000000000000000000040000000000000000000000000008000000000000000000040000000000000000000000400000000000000004000000000000000000000000000000000010000000000100000008000001000000000002000000000000000000000000000000000000000000000000000000000008004000000000000040000000000100000000000000000002000000000000000000000001000000008000000000000010000140000000000000000000000000000001000000000000040000000000000000000000",
      "type": "0x2",
      "transactionHash": "0x43b8de3280bb4bbc561b408918215d514bf8e2ccf1a70d9bb387eb9c69f13e18",
      "transactionIndex": "0x7d",
      "blockHash": "0x2674aaed7b0714421345efaba443983f72f02089f1f85ea88d41b7e8ae696259",
      "blockNumber": "0x9ddacd",
      "gasUsed": "0xfc93",
      "effectiveGasPrice": "0xf424b",
      "from": "0x474b4e7fd1a143edea6b77aa845f429d443e6410",
      "to": "0x70715ae141e90aff912f43676b762e3473fc0f1e",
      "contractAddress": null
    },
    {
      "status": "0x1",
      "cumulativeGasUsed": "0x802222",
      "logs": [
        {
          "address": "0xbb46678a1f6c527bd79ecfbf85332b8ae83ceaf1",
          "topics": [
            "0xddf252ad1be2c89b69c2b068fc378daa952ba7f163c4a11628f55a4df523b3ef",
            "0x00000000000000000000000070715ae141e90aff912f43676b762e3473fc0f1e",
            "0x000000000000000000000000f68d9e0faa751ad61e0ed70852798bf9d9c04bf7"
          ],
          "data": "0x000000000000000000000000000000000000000000034f081bf6eb8097a80000",
          "blockHash": "0xa0f01ebe5be595935606f739628c389c488ba98971b4b1cb92ed685657469796",
          "blockNumber": "0x9ddace",
          "blockTimestamp": "0x69a119f0",
          "transactionHash": "0x53592dd22fd19fe8f4073d55069d81b1cdbca7940421ccce40f356c6be92e2b0",
          "transactionIndex": "0x50",
          "logIndex": "0xbe",
          "removed": false
        },
        {
          "address": "0x70715ae141e90aff912f43676b762e3473fc0f1e",
          "topics": [
            "0x2b005b2b2dd86a46e800eb8759dd1c1d0274d7f87d24bf2e59086a870fdc034a",
            "0x0000000000000000000000000000000000000000000000000000000000000002",
            "0x000000000000000000000000bb46678a1f6c527bd79ecfbf85332b8ae83ceaf1"
          ],
          "data": "0x000000000000000000000000000000000000000000034f081bf6eb8097a80000",
          "blockHash": "0xa0f01ebe5be595935606f739628c389c488ba98971b4b1cb92ed685657469796",
          "blockNumber": "0x9ddace",
          "blockTimestamp": "0x69a119f0",
          "transactionHash": "0x53592dd22fd19fe8f4073d55069d81b1cdbca7940421ccce40f356c6be92e2b0",
          "transactionIndex": "0x50",
          "logIndex": "0xbf",
          "removed": false
        }
      ],
      "logsBloom": "0x04000000000000000000000000000000000000000000000000000000000000800000000000000400000000000000000002000000000000000000000000000000000000000000000000000008000000000000000000000000000000000000000000000000000000000004000000000000000000000000000000000010000000000100000008000001000000000002000000000000000000000000000000000000000000000000000000000108004000000400000040000000000000000000000000000002000000000000000000000001000000008000000000000000000100000000000000000000000000000001000000000000048000000000000000000000",
      "type": "0x2",
      "transactionHash": "0x53592dd22fd19fe8f4073d55069d81b1cdbca7940421ccce40f356c6be92e2b0",
      "transactionIndex": "0x50",
      "blockHash": "0xa0f01ebe5be595935606f739628c389c488ba98971b4b1cb92ed685657469796",
      "blockNumber": "0x9ddace",
      "gasUsed": "0xfc9f",
      "effectiveGasPrice": "0xf424b",
      "from": "0xf68d9e0faa751ad61e0ed70852798bf9d9c04bf7",
      "to": "0x70715ae141e90aff912f43676b762e3473fc0f1e",
      "contractAddress": null
    }
  ],
  "libraries": [],
  "pending": [],
  "returns": {},
  "timestamp": 1772165616848,
  "chain": 11155111,
  "commit": "96b269e"
}