{
  "transactions": [
    {
      "hash": "0x94ea7a0fe91f7a2871d3760787e23136323a9524f4ec781f3e646c15a2c111ef",
      "transactionType": "CALL",
      "contractName": "MarginVault",
      "contractAddress": "0x16b4e23f3287eec6966e11446019af79877ed4ef",
      "function": "withdrawMargin(bytes32,address,uint256,address)",
      "arguments": [
        "0x000000000000000000000000474b4e7fd1a143edea6b77aa845f429d443e6410",
        "0xbb46678a1F6C527bD79eCFBF85332B8Ae83ceaf1",
        "3980200000000000000000000",
        "0x474B4E7FD1A143eDea6b77aa845F429D443E6410"
      ],
      "transaction": {
        "from": "0x474b4e7fd1a143edea6b77aa845f429d443e6410",
        "to": "0x16b4e23f3287eec6966e11446019af79877ed4ef",
        "gas": "0x1836c",
        "value": "0x0",
        "input": "0xe0a88ebd000000000000000000000000474b4e7fd1a143edea6b77aa845f429d443e6410000000000000000000000000bb46678a1f6c527bd79ecfbf85332b8ae83ceaf1000000000000000000000000000000000000000000034ad713085c9be5a00000000000000000000000000000474b4e7fd1a143edea6b77aa845f429d443e6410",
        "nonce": "0x49",
        "chainId": "0xaa36a7"
      },
      "additionalContracts": [],
      "isFixedGasLimit": false
    },
    {
      "hash": "0xf18ba97b161ed0379cd3176d9aac9624a6ebb69b26b5f05492f36a2ec6a74c9f",
      "transactionType": "CALL",
      "contractName": "MarginVault",
      "contractAddress": "0x16b4e23f3287eec6966e11446019af79877ed4ef",
      "function": "withdrawMargin(bytes32,address,uint256,address)",
      "arguments": [
        "0x000000000000000000000000f68d9e0faa751ad61e0ed70852798bf9d9c04bf7",
        "0xbb46678a1F6C527bD79eCFBF85332B8Ae83ceaf1",
        "3980200000000000000000000",
        "0xf68D9e0fAa751AD61e0ED70852798bF9D9C04bF7"
      ],
      "transaction": {
        "from": "0xf68d9e0faa751ad61e0ed70852798bf9d9c04bf7",
        "to": "0x16b4e23f3287eec6966e11446019af79877ed4ef",
        "gas": "0x1836c",
        "value": "0x0",
        "input": "0xe0a88ebd000000000000000000000000f68d9e0faa751ad61e0ed70852798bf9d9c04bf7000000000000000000000000bb46678a1f6c527bd79ecfbf85332b8ae83ceaf1000000000000000000000000000000000000000000034ad713085c9be5a00000000000000000000000000000f68d9e0faa751ad61e0ed70852798bf9d9c04bf7",
        "nonce": "0x48",
        "chainId": "0xaa36a7"
      },
      "additionalContracts": [],
      "isFixedGasLimit": false
    }
  ],
  "receipts": [
    {
      "status": "0x1",
      "cumulativeGasUsed": "0x116ac74",
      "logs": [
        {
          "address": "0xbb46678a1f6c527bd79ecfbf85332b8ae83ceaf1",
          "topics": [
            "0xddf252ad1be2c89b69c2b068fc378daa952ba7f163c4a11628f55a4df523b3ef",
            "0x00000000000000000000000016b4e23f3287eec6966e11446019af79877ed4ef",
            "0x000000000000000000000000474b4e7fd1a143edea6b77aa845f429d443e6410"
          ],
          "data": "0x000000000000000000000000000000000000000000034ad713085c9be5a00000",
          "blockHash": "0x338b277bf5916f9f1b205e8c04605d3b5eb92f3b0c13f880e4c1c8af66d20214",
          "blockNumber": "0x9e9bb1",
          "blockTimestamp": "0x69aa72b8",
          "transactionHash": "0x94ea7a0fe91f7a2871d3760787e23136323a9524f4ec781f3e646c15a2c111ef",
          "transactionIndex": "0x79",
          "logIndex": "0x15a",
          "removed": false
        },
        {
          "address": "0x16b4e23f3287eec6966e11446019af79877ed4ef",
          "topics": [
            "0x2b005b2b2dd86a46e800eb8759dd1c1d0274d7f87d24bf2e59086a870fdc034a",
            "0x000000000000000000000000474b4e7fd1a143edea6b77aa845f429d443e6410",
            "0x000000000000000000000000bb46678a1f6c527bd79ecfbf85332b8ae83ceaf1"
          ],
          "data": "0x000000000000000000000000000000000000000000034ad713085c9be5a00000",
          "blockHash": "0x338b277bf5916f9f1b205e8c04605d3b5eb92f3b0c13f880e4c1c8af66d20214",
          "blockNumber": "0x9e9bb1",
          "blockTimestamp": "0x69aa72b8",
          "transactionHash": "0x94ea7a0fe91f7a2871d3760787e23136323a9524f4ec781f3e646c15a2c111ef",
          "transactionIndex": "0x79",
          "logIndex": "0x15b",
          "removed": false
        }
      ],
      "logsBloom": "0x00000000000000000000000000000000000000000000000000000000000000000000000000000000000000000000001002000000000000000000010000000000000000000000000008000008000000000000000000000000000000000000000000400000000000000000000000000000000000000000000000000010000000000100000008000001000000000002000000000000000000000000000000000000000000000000100000000000000000000100000040000000000100000000000000000002000000000000000000000001000000008000000200000010000000000000000000000000000000000001000000000000000000000000000000000000",
      "type": "0x2",
      "transactionHash": "0x94ea7a0fe91f7a2871d3760787e23136323a9524f4ec781f3e646c15a2c111ef",
      "transactionIndex": "0x79",
      "blockHash": "0x338b277bf5916f9f1b205e8c04605d3b5eb92f3b0c13f880e4c1c8af66d20214",
      "blockNumber": "0x9e9bb1",
      "gasUsed": "0x1187e",
      "effectiveGasPrice": "0xf7f4d",
      "from": "0x474b4e7fd1a143edea6b77aa845f429d443e6410",
      "to": "0x16b4e23f3287eec6966e11446019af79877ed4ef",
      "contractAddress": null
    },
    {
      "status": "0x1",
      "cumulativeGasUsed": "0x141db34",
      "logs": [
        {
          "address": "0xbb46678a1f6c527bd79ecfbf85332b8ae83ceaf1",
          "topics": [
            "0xddf252ad1be2c89b69c2b068fc378daa952ba7f163c4a11628f55a4df523b3ef",
            "0x00000000000000000000000016b4e23f3287eec6966e11446019af79877ed4ef",
            "0x000000000000000000000000f68d9e0faa751ad61e0ed70852798bf9d9c04bf7"
          ],
          "data": "0x000000000000000000000000000000000000000000034ad713085c9be5a00000",
          "blockHash": "0x976eeb9717613373c9405f1529c4b49aa2bc7812554c6e764d0aac8b371cf8de",
          "blockNumber": "0x9e9bb2",
          "blockTimestamp": "0x69aa72c4",
          "transactionHash": "0xf18ba97b161ed0379cd3176d9aac9624a6ebb69b26b5f05492f36a2ec6a74c9f",
          "transactionIndex": "0xa3",
          "logIndex": "0x162",
          "removed": false
        },
        {
          "address": "0x16b4e23f3287eec6966e11446019af79877ed4ef",
          "topics": [
            "0x2b005b2b2dd86a46e800eb8759dd1c1d0274d7f87d24bf2e59086a870fdc034a",
            "0x000000000000000000000000f68d9e0faa751ad61e0ed70852798bf9d9c04bf7",
            "0x000000000000000000000000bb46678a1f6c527bd79ecfbf85332b8ae83ceaf1"
          ],
          "data": "0x000000000000000000000000000000000000000000034ad713085c9be5a00000",
          "blockHash": "0x976eeb9717613373c9405f1529c4b49aa2bc7812554c6e764d0aac8b371cf8de",
          "blockNumber": "0x9e9bb2",
          "blockTimestamp": "0x69aa72c4",
          "transactionHash": "0xf18ba97b161ed0379cd3176d9aac9624a6ebb69b26b5f05492f36a2ec6a74c9f",
          "transactionIndex": "0xa3",
          "logIndex": "0x163",
          "removed": false
        }
      ],
      "logsBloom": "0x00000000000000000000000000000000000000000000000000000000000000800000000000000000000000000000001002000000000000000000010000000000000000000000000008000008000000000000000000000000000000000000000000000000000000000000000000000000000000000000000000000010000000000100000008000001000000000002000000000000000000000000000000000000000000000000100000000000000000000500000040000000000000000000000000000002000000000000000000000001000000008000000200000000000000000000000000000000000000000001000000000000000000000000000000000000",
      "type": "0x2",
      "transactionHash": "0xf18ba97b161ed0379cd3176d9aac9624a6ebb69b26b5f05492f36a2ec6a74c9f",
      "transactionIndex": "0xa3",
      "blockHash": "0x976eeb9717613373c9405f1529c4b49aa2bc7812554c6e764d0aac8b371cf8de",
      "blockNumber": "0x9e9bb2",
      "gasUsed": "0x1187e",
      "effectiveGasPrice": "0xf848d",
      "from": "0xf68d9e0faa751ad61e0ed70852798bf9d9c04bf7",
      "to": "0x16b4e23f3287eec6966e11446019af79877ed4ef",
      "contractAddress": null
    }
  ],
  "libraries": [],
  "pending": [],
  "returns": {},
  "timestamp": 1772778181993,
  "chain": 11155111,
  "commit": "d835087"
}