{
  "transactions": [
    {
      "hash": "0xb53e822d71be1eda7194b5ab404e805c26cc1426cd34258c7fd742d38fe37281",
      "transactionType": "CALL",
      "contractName": "MarginVault",
      "contractAddress": "0x54d168bd60ea85931b1238a6ae17f55eb101fb8e",
      "function": "withdrawMargin(bytes32,address,uint256,address)",
      "arguments": [
        "0x000000000000000000000000474b4e7fd1a143edea6b77aa845f429d443e6410",
        "0xbb46678a1F6C527bD79eCFBF85332B8Ae83ceaf1",
        "3985200000000000000000000",
        "0x474B4E7FD1A143eDea6b77aa845F429D443E6410"
      ],
      "transaction": {
        "from": "0x474b4e7fd1a143edea6b77aa845f429d443e6410",
        "to": "0x54d168bd60ea85931b1238a6ae17f55eb101fb8e",
        "gas": "0x1836c",
        "value": "0x0",
        "input": "0xe0a88ebd000000000000000000000000474b4e7fd1a143edea6b77aa845f429d443e6410000000000000000000000000bb46678a1f6c527bd79ecfbf85332b8ae83ceaf1000000000000000000000000000000000000000000034be61ff8c1793ec00000000000000000000000000000474b4e7fd1a143edea6b77aa845f429d443e6410",
        "nonce": "0x62",
        "chainId": "0xaa36a7"
      },
      "additionalContracts": [],
      "isFixedGasLimit": false
    },
    {
      "hash": "0x30f185f2ea987ba54a31aa5685155e4d02b521fdee63bb60555275d1f9ea17fa",
      "transactionType": "CALL",
      "contractName": "MarginVault",
      "contractAddress": "0x54d168bd60ea85931b1238a6ae17f55eb101fb8e",
      "function": "withdrawMargin(bytes32,address,uint256,address)",
      "arguments": [
        "0x000000000000000000000000f68d9e0faa751ad61e0ed70852798bf9d9c04bf7",
        "0xbb46678a1F6C527bD79eCFBF85332B8Ae83ceaf1",
        "3975200000000000000000000",
        "0xf68D9e0fAa751AD61e0ED70852798bF9D9C04bF7"
      ],
      "transaction": {
        "from": "0xf68d9e0faa751ad61e0ed70852798bf9d9c04bf7",
        "to": "0x54d168bd60ea85931b1238a6ae17f55eb101fb8e",
        "gas": "0x1836c",
        "value": "0x0",
        "input": "0xe0a88ebd000000000000000000000000f68d9e0faa751ad61e0ed70852798bf9d9c04bf7000000000000000000000000bb46678a1f6c527bd79ecfbf85332b8ae83ceaf10000000000000000000000000000000000000000000349c80617f7be8c800000000000000000000000000000f68d9e0faa751ad61e0ed70852798bf9d9c04bf7",
        "nonce": "0x60",
        "chainId": "0xaa36a7"
      },
      "additionalContracts": [],
      "isFixedGasLimit": false
    }
  ],
  "receipts": [
    {
      "status": "0x1",
      "cumulativeGasUsed": "0xd82258",
      "logs": [
        {
          "address": "0xbb46678a1f6c527bd79ecfbf85332b8ae83ceaf1",
          "topics": [
            "0xddf252ad1be2c89b69c2b068fc378daa952ba7f163c4a11628f55a4df523b3ef",
            "0x00000000000000000000000054d168bd60ea85931b1238a6ae17f55eb101fb8e",
            "0x000000000000000000000000474b4e7fd1a143edea6b77aa845f429d443e6410"
          ],
          "data": "0x000000000000000000000000000000000000000000034be61ff8c1793ec00000",
          "blockHash": "0x0eef0eae4f0086171d55901abb294a897afb1304689efa3b65d57aecb7231ab5",
          "blockNumber": "0x9ea3d0",
          "blockTimestamp": "0x69aade28",
          "transactionHash": "0xb53e822d71be1eda7194b5ab404e805c26cc1426cd34258c7fd742d38fe37281",
          "transactionIndex": "0x6b",
          "logIndex": "0xe6",
          "removed": false
        },
        {
          "address": "0x54d168bd60ea85931b1238a6ae17f55eb101fb8e",
          "topics": [
            "0x2b005b2b2dd86a46e800eb8759dd1c1d0274d7f87d24bf2e59086a870fdc034a",
            "0x000000000000000000000000474b4e7fd1a143edea6b77aa845f429d443e6410",
            "0x000000000000000000000000bb46678a1f6c527bd79ecfbf85332b8ae83ceaf1"
          ],
          "data": "0x000000000000000000000000000000000000000000034be61ff8c1793ec00000",
          "blockHash": "0x0eef0eae4f0086171d55901abb294a897afb1304689efa3b65d57aecb7231ab5",
          "blockNumber": "0x9ea3d0",
          "blockTimestamp": "0x69aade28",
          "transactionHash": "0xb53e822d71be1eda7194b5ab404e805c26cc1426cd34258c7fd742d38fe37281",
          "transactionIndex": "0x6b",
          "logIndex": "0xe7",
          "removed": false
        }
      ],
      "logsBloom": "0x00000000000000000000000000000000000000000000000000000000000000000000000004800000000000000000000002000000000000000000000000000000000000000000000000000008000000000008000000000000000000000000000000400000000000000000000000000000000000000000000000000010000000080100000008000001000000000002000000000000000000000000000000000000000000000000000000000000000000000000000040000000000100000000000000000002000000000000000000000001000000008000000000000010000000400000000000000000000000000001000000000000000000000100000000000000",
      "type": "0x2",
      "transactionHash": "0xb53e822d71be1eda7194b5ab404e805c26cc1426cd34258c7fd742d38fe37281",
      "transactionIndex": "0x6b",
      "blockHash": "0x0eef0eae4f0086171d55901abb294a897afb1304689efa3b65d57aecb7231ab5",
      "blockNumber": "0x9ea3d0",
      "gasUsed": "0x1187e",
      "effectiveGasPrice": "0x1e2ce2",
      "from": "0x474b4e7fd1a143edea6b77aa845f429d443e6410",
      "to": "0x54d168bd60ea85931b1238a6ae17f55eb101fb8e",
      "contractAddress": null
    },
    {
      "status": "0x1",
      "cumulativeGasUsed": "0x1649d46",
      "logs": [
        {
          "address": "0xbb46678a1f6c527bd79ecfbf85332b8ae83ceaf1",
          "topics": [
            "0xddf252ad1be2c89b69c2b068fc378daa952ba7f163c4a11628f55a4df523b3ef",
            "0x00000000000000000000000054d168bd60ea85931b1238a6ae17f55eb101fb8e",
            "0x000000000000000000000000f68d9e0faa751ad61e0ed70852798bf9d9c04bf7"
          ],
          "data": "0x0000000000000000000000000000000000000000000349c80617f7be8c800000",
          "blockHash": "0xbc984c8a4bf03fb1f46ad67a7d884109a83c874f495750184dc95200b19686cc",
          "blockNumber": "0x9ea3d1",
          "blockTimestamp": "0x69aade40",
          "transactionHash": "0x30f185f2ea987ba54a31aa5685155e4d02b521fdee63bb60555275d1f9ea17fa",
          "transactionIndex": "0xad",
          "logIndex": "0x157",
          "removed": false
        },
        {
          "address": "0x54d168bd60ea85931b1238a6ae17f55eb101fb8e",
          "topics": [
            "0x2b005b2b2dd86a46e800eb8759dd1c1d0274d7f87d24bf2e59086a870fdc034a",
            "0x000000000000000000000000f68d9e0faa751ad61e0ed70852798bf9d9c04bf7",
            "0x000000000000000000000000bb46678a1f6c527bd79ecfbf85332b8ae83ceaf1"
          ],
          "data": "0x0000000000000000000000000000000000000000000349c80617f7be8c800000",
          "blockHash": "0xbc984c8a4bf03fb1f46ad67a7d884109a83c874f495750184dc95200b19686cc",
          "blockNumber": "0x9ea3d1",
          "blockTimestamp": "0x69aade40",
          "transactionHash": "0x30f185f2ea987ba54a31aa5685155e4d02b521fdee63bb60555275d1f9ea17fa",
          "transactionIndex": "0xad",
          "logIndex": "0x158",
          "removed": false
        }
      ],
      "logsBloom": "0x00000000000000000000000000000000000000000000000000000000000000800000000004800000000000000000000002000000000000000000000000000000000000000000000000000008000000000008000000000000000000000000000000000000000000000000000000000000000000000000000000000010000000080100000008000001000000000002000000000000000000000000000000000000000000000000000000000000000000000400000040000000000000000000000000000002000000000000000000000001000000008000000000000000000000400000000000000000000000000001000000000000000000000100000000000000",
      "type": "0x2",
      "transactionHash": "0x30f185f2ea987ba54a31aa5685155e4d02b521fdee63bb60555275d1f9ea17fa",
      "transactionIndex": "0xad",
      "blockHash": "0xbc984c8a4bf03fb1f46ad67a7d884109a83c874f495750184dc95200b19686cc",
      "blockNumber": "0x9ea3d1",
      "gasUsed": "0x1187e",
      "effectiveGasPrice": "0x1e7dec",
      "from": "0xf68d9e0faa751ad61e0ed70852798bf9d9c04bf7",
      "to": "0x54d168bd60ea85931b1238a6ae17f55eb101fb8e",
      "contractAddress": null
    }
  ],
  "libraries": [],
  "pending": [],
  "returns": {},
  "timestamp": 1772805697081,
  "chain": 11155111,
  "commit": "bea2e8d"
}