{
  "transactions": [
    {
      "hash": "0x2a431daa99f48396e632802c66e038d60afd6a4b21f510cedf9322e4cd93c108",
      "transactionType": "CALL",
      "contractName": "MarginVault",
      "contractAddress": "0xd47395d178492f3b1bc36b7dddfde93e54025aa6",
      "function": "withdrawMargin(bytes32,address,uint256,address)",
      "arguments": [
        "0x000000000000000000000000474b4e7fd1a143edea6b77aa845f429d443e6410",
        "0xbb46678a1F6C527bD79eCFBF85332B8Ae83ceaf1",
        "3985200000000000000000000",
        "0x474B4E7FD1A143eDea6b77aa845F429D443E6410"
      ],
      "transaction": {
        "from": "0x474b4e7fd1a143edea6b77aa845f429d443e6410",
        "to": "0xd47395d178492f3b1bc36b7dddfde93e54025aa6",
        "gas": "0x1836c",
        "value": "0x0",
        "input": "0xe0a88ebd000000000000000000000000474b4e7fd1a143edea6b77aa845f429d443e6410000000000000000000000000bb46678a1f6c527bd79ecfbf85332b8ae83ceaf1000000000000000000000000000000000000000000034be61ff8c1793ec00000000000000000000000000000474b4e7fd1a143edea6b77aa845f429d443e6410",
        "nonce": "0x6e",
        "chainId": "0xaa36a7"
      },
      "additionalContracts": [],
      "isFixedGasLimit": false
    },
    {
      "hash": "0xba2aa8e7ac5c7111d3a59f0955cedee312eea0ec9ea0bd1bd6ead6cabf8cfd66",
      "transactionType": "CALL",
      "contractName": "MarginVault",
      "contractAddress": "0xd47395d178492f3b1bc36b7dddfde93e54025aa6",
      "function": "withdrawMargin(bytes32,address,uint256,address)",
      "arguments": [
        "0x000000000000000000000000f68d9e0faa751ad61e0ed70852798bf9d9c04bf7",
        "0xbb46678a1F6C527bD79eCFBF85332B8Ae83ceaf1",
        "3975200000000000000000000",
        "0xf68D9e0fAa751AD61e0ED70852798bF9D9C04bF7"
      ],
      "transaction": {
        "from": "0xf68d9e0faa751ad61e0ed70852798bf9d9c04bf7",
        "to": "0xd47395d178492f3b1bc36b7dddfde93e54025aa6",
        "gas": "0x1836c",
        "value": "0x0",
        "input": "0xe0a88ebd000000000000000000000000f68d9e0faa751ad61e0ed70852798bf9d9c04bf7000000000000000000000000bb46678a1f6c527bd79ecfbf85332b8ae83ceaf10000000000000000000000000000000000000000000349c80617f7be8c800000000000000000000000000000f68d9e0faa751ad61e0ed70852798bf9d9c04bf7",
        "nonce": "0x69",
        "chainId": "0xaa36a7"
      },
      "additionalContracts": [],
      "isFixedGasLimit": false
    }
  ],
  "receipts": [
    {
      "status": "0x1",
      "cumulativeGasUsed": "0x119f47d",
      "logs": [
        {
          "address": "0xbb46678a1f6c527bd79ecfbf85332b8ae83ceaf1",
          "topics": [
            "0xddf252ad1be2c89b69c2b068fc378daa952ba7f163c4a11628f55a4df523b3ef",
            "0x000000000000000000000000d47395d178492f3b1bc36b7dddfde93e54025aa6",
            "0x000000000000000000000000474b4e7fd1a143edea6b77aa845f429d443e6410"
          ],
          "data": "0x000000000000000000000000000000000000000000034be61ff8c1793ec00000",
          "blockHash": "0xbd70d6b222c124139311c0f31ce1bf996a2f1526a21f8436ce40fea7bd2ca78d",
          "blockNumber": "0x9ed042",
          "blockTimestamp": "0x69ad49fc",
          "transactionHash": "0x2a431daa99f48396e632802c66e038d60afd6a4b21f510cedf9322e4cd93c108",
          "transactionIndex": "0x69",
          "logIndex": "0xb0",
          "removed": false
        },
        {
          "address": "0xd47395d178492f3b1bc36b7dddfde93e54025aa6",
          "topics": [
            "0x2b005b2b2dd86a46e800eb8759dd1c1d0274d7f87d24bf2e59086a870fdc034a",
            "0x000000000000000000000000474b4e7fd1a143edea6b77aa845f429d443e6410",
            "0x000000000000000000000000bb46678a1f6c527bd79ecfbf85332b8ae83ceaf1"
          ],
          "data": "0x000000000000000000000000000000000000000000034be61ff8c1793ec00000",
          "blockHash": "0xbd70d6b222c124139311c0f31ce1bf996a2f1526a21f8436ce40fea7bd2ca78d",
          "blockNumber": "0x9ed042",
          "blockTimestamp": "0x69ad49fc",
          "transactionHash": "0x2a431daa99f48396e632802c66e038d60afd6a4b21f510cedf9322e4cd93c108",
          "transactionIndex": "0x69",
          "logIndex": "0xb1",
          "removed": false
        }
      ],
      "logsBloom": "0x00000000000000000000000000000000000000000000000000000000000000000000000010000000000002000008000002000000000000002000000000000000000000000000000000000008000000000000000000000000000001000000000000400000000000000000000000000000000000000000000000000010000000000100000008000001000000000002000000000000000000000000000000200000000000000000000000000000000000000000000040000000000100000000000000000002000000000000000000000001000000008000000000000010000000000000000000000000000000000001000000000000000000000000000000000000",
      "type": "0x2",
      "transactionHash": "0x2a431daa99f48396e632802c66e038d60afd6a4b21f510cedf9322e4cd93c108",
      "transactionIndex": "0x69",
      "blockHash": "0xbd70d6b222c124139311c0f31ce1bf996a2f1526a21f8436ce40fea7bd2ca78d",
      "blockNumber": "0x9ed042",
      "gasUsed": "0x1187e",
      "effectiveGasPrice": "0x2fd6320f",
      "from": "0x474b4e7fd1a143edea6b77aa845f429d443e6410",
      "to": "0xd47395d178492f3b1bc36b7dddfde93e54025aa6",
      "contractAddress": null
    },
    {
      "status": "0x1",
      "cumulativeGasUsed": "0xd8082b",
      "logs": [
        {
          "address": "0xbb46678a1f6c527bd79ecfbf85332b8ae83ceaf1",
          "topics": [
            "0xddf252ad1be2c89b69c2b068fc378daa952ba7f163c4a11628f55a4df523b3ef",
            "0x000000000000000000000000d47395d178492f3b1bc36b7dddfde93e54025aa6",
            "0x000000000000000000000000f68d9e0faa751ad61e0ed70852798bf9d9c04bf7"
          ],
          "data": "0x0000000000000000000000000000000000000000000349c80617f7be8c800000",
          "blockHash": "0xe7aaa6b23fea31f3434e8675e6594b9d284e09578d81473bdeb3ef6eddbeef6b",
          "blockNumber": "0x9ed043",
          "blockTimestamp": "0x69ad4a08",
          "transactionHash": "0xba2aa8e7ac5c7111d3a59f0955cedee312eea0ec9ea0bd1bd6ead6cabf8cfd66",
          "transactionIndex": "0x77",
          "logIndex": "0xfe",
          "removed": false
        },
        {
          "address": "0xd47395d178492f3b1bc36b7dddfde93e54025aa6",
          "topics": [
            "0x2b005b2b2dd86a46e800eb8759dd1c1d0274d7f87d24bf2e59086a870fdc034a",
            "0x000000000000000000000000f68d9e0faa751ad61e0ed70852798bf9d9c04bf7",
            "0x000000000000000000000000bb46678a1f6c527bd79ecfbf85332b8ae83ceaf1"
          ],
          "data": "0x0000000000000000000000000000000000000000000349c80617f7be8c800000",
          "blockHash": "0xe7aaa6b23fea31f3434e8675e6594b9d284e09578d81473bdeb3ef6eddbeef6b",
          "blockNumber": "0x9ed043",
          "blockTimestamp": "0x69ad4a08",
          "transactionHash": "0xba2aa8e7ac5c7111d3a59f0955cedee312eea0ec9ea0bd1bd6ead6cabf8cfd66",
          "transactionIndex": "0x77",
          "logIndex": "0xff",
          "removed": false
        }
      ],
      "logsBloom": "0x00000000000000000000000000000000000000000000000000000000000000800000000010000000000002000008000002000000000000002000000000000000000000000000000000000008000000000000000000000000000001000000000000000000000000000000000000000000000000000000000000000010000000000100000008000001000000000002000000000000000000000000000000200000000000000000000000000000000000000400000040000000000000000000000000000002000000000000000000000001000000008000000000000000000000000000000000000000000000000001000000000000000000000000000000000000",
      "type": "0x2",
      "transactionHash": "0xba2aa8e7ac5c7111d3a59f0955cedee312eea0ec9ea0bd1bd6ead6cabf8cfd66",
      "transactionIndex": "0x77",
      "blockHash": "0xe7aaa6b23fea31f3434e8675e6594b9d284e09578d81473bdeb3ef6eddbeef6b",
      "blockNumber": "0x9ed043",
      "gasUsed": "0x1187e",
      "effectiveGasPrice": "0x3090b2d8",
      "from": "0xf68d9e0faa751ad61e0ed70852798bf9d9c04bf7",
      "to": "0xd47395d178492f3b1bc36b7dddfde93e54025aa6",
      "contractAddress": null
    }
  ],
  "libraries": [],
  "pending": [],
  "returns": {},
  "timestamp": 1772964360647,
  "chain": 11155111,
  "commit": "eb687bb"
}