{
  "transactions": [
    {
      "hash": "0x3915af62dc75bc9fafe0cfa9c76639a67e162c366313b84c73e22e744210bcbb",
      "transactionType": "CALL",
      "contractName": "MarginVault",
      "contractAddress": "0x76c7970daa3cc6303645686b8d573b1ad5ec6909",
      "function": "withdrawMargin(bytes32,address,uint256,address)",
      "arguments": [
        "0x000000000000000000000000474b4e7fd1a143edea6b77aa845f429d443e6410",
        "0xbb46678a1F6C527bD79eCFBF85332B8Ae83ceaf1",
        "3980200000000000000000000",
        "0x474B4E7FD1A143eDea6b77aa845F429D443E6410"
      ],
      "transaction": {
        "from": "0x474b4e7fd1a143edea6b77aa845f429d443e6410",
        "to": "0x76c7970daa3cc6303645686b8d573b1ad5ec6909",
        "gas": "0x1836c",
        "value": "0x0",
        "input": "0xe0a88ebd000000000000000000000000474b4e7fd1a143edea6b77aa845f429d443e6410000000000000000000000000bb46678a1f6c527bd79ecfbf85332b8ae83ceaf1000000000000000000000000000000000000000000034ad713085c9be5a00000000000000000000000000000474b4e7fd1a143edea6b77aa845f429d443e6410",
        "nonce": "0x46",
        "chainId": "0xaa36a7"
      },
      "additionalContracts": [],
      "isFixedGasLimit": false
    },
    {
      "hash": "0x77b6cd45d070396a06117832cc5106a7c1d520c026369a298ba88d74e35df339",
      "transactionType": "CALL",
      "contractName": "MarginVault",
      "contractAddress": "0x76c7970daa3cc6303645686b8d573b1ad5ec6909",
      "function": "withdrawMargin(bytes32,address,uint256,address)",
      "arguments": [
        "0x000000000000000000000000f68d9e0faa751ad61e0ed70852798bf9d9c04bf7",
        "0xbb46678a1F6C527bD79eCFBF85332B8Ae83ceaf1",
        "3980200000000000000000000",
        "0xf68D9e0fAa751AD61e0ED70852798bF9D9C04bF7"
      ],
      "transaction": {
        "from": "0xf68d9e0faa751ad61e0ed70852798bf9d9c04bf7",
        "to": "0x76c7970daa3cc6303645686b8d573b1ad5ec6909",
        "gas": "0x1836c",
        "value": "0x0",
        "input": "0xe0a88ebd000000000000000000000000f68d9e0faa751ad61e0ed70852798bf9d9c04bf7000000000000000000000000bb46678a1f6c527bd79ecfbf85332b8ae83ceaf1000000000000000000000000000000000000000000034ad713085c9be5a00000000000000000000000000000f68d9e0faa751ad61e0ed70852798bf9d9c04bf7",
        "nonce": "0x45",
        "chainId": "0xaa36a7"
      },
      "additionalContracts": [],
      "isFixedGasLimit": false
    }
  ],
  "receipts": [
    {
      "status": "0x1",
      "cumulativeGasUsed": "0x315e383",
      "logs": [
        {
          "address": "0xbb46678a1f6c527bd79ecfbf85332b8ae83ceaf1",
          "topics": [
            "0xddf252ad1be2c89b69c2b068fc378daa952ba7f163c4a11628f55a4df523b3ef",
            "0x00000000000000000000000076c7970daa3cc6303645686b8d573b1ad5ec6909",
            "0x000000000000000000000000474b4e7fd1a143edea6b77aa845f429d443e6410"
          ],
          "data": "0x000000000000000000000000000000000000000000034ad713085c9be5a00000",
          "blockHash": "0x4eec67368d8f9fe8150b18dd4dd0f6ef2556251a8c67910db176dbea52f26de6",
          "blockNumber": "0x9e9b49",
          "blockTimestamp": "0x69aa6d48",
          "transactionHash": "0x3915af62dc75bc9fafe0cfa9c76639a67e162c366313b84c73e22e744210bcbb",
          "transactionIndex": "0xdd",
          "logIndex": "0x23c",
          "removed": false
        },
        {
          "address": "0x76c7970daa3cc6303645686b8d573b1ad5ec6909",
          "topics": [
            "0x2b005b2b2dd86a46e800eb8759dd1c1d0274d7f87d24bf2e59086a870fdc034a",
            "0x000000000000000000000000474b4e7fd1a143edea6b77aa845f429d443e6410",
            "0x000000000000000000000000bb46678a1f6c527bd79ecfbf85332b8ae83ceaf1"
          ],
          "data": "0x000000000000000000000000000000000000000000034ad713085c9be5a00000",
          "blockHash": "0x4eec67368d8f9fe8150b18dd4dd0f6ef2556251a8c67910db176dbea52f26de6",
          "blockNumber": "0x9e9b49",
          "blockTimestamp": "0x69aa6d48",
          "transactionHash": "0x3915af62dc75bc9fafe0cfa9c76639a67e162c366313b84c73e22e744210bcbb",
          "transactionIndex": "0xdd",
          "logIndex": "0x23d",
          "removed": false
        }
      ],
      "logsBloom": "0x00000000000000000000000000000000000000000000000000000000000000000000000000000000000000000000000002000000000000000000000000000000000000000000000000000008000000000000000000000000000000000000000000400000000000000000000000000000000000000000000000000010000000000100000008000001000000000002000000000000000000000000000000000000000000000000000080000000000000000800000040000000000100008000000000000002000000000000000000000001000000008000000800000010000000000000000800000000000000000001000000000000000000000001000000000000",
      "type": "0x2",
      "transactionHash": "0x3915af62dc75bc9fafe0cfa9c76639a67e162c366313b84c73e22e744210bcbb",
      "transactionIndex": "0xdd",
      "blockHash": "0x4eec67368d8f9fe8150b18dd4dd0f6ef2556251a8c67910db176dbea52f26de6",
      "blockNumber": "0x9e9b49",
      "gasUsed": "0x1187e",
      "effectiveGasPrice": "0xf44ad",
      "from": "0x474b4e7fd1a143edea6b77aa845f429d443e6410",
      "to": "0x76c7970daa3cc6303645686b8d573b1ad5ec6909",
      "contractAddress": null
    },
    {
      "status": "0x1",
      "cumulativeGasUsed": "0x21d45b1",
      "logs": [
        {
          "address": "0xbb46678a1f6c527bd79ecfbf85332b8ae83ceaf1",
          "topics": [
            "0xddf252ad1be2c89b69c2b068fc378daa952ba7f163c4a11628f55a4df523b3ef",
            "0x00000000000000000000000076c7970daa3cc6303645686b8d573b1ad5ec6909",
            "0x000000000000000000000000f68d9e0faa751ad61e0ed70852798bf9d9c04bf7"
          ],
          "data": "0x000000000000000000000000000000000000000000034ad713085c9be5a00000",
          "blockHash": "0x630d5d80d6b622a8bad99b200cb15100ce23e4e3af9c9ed88cdfedbfe7cb5681",
          "blockNumber": "0x9e9b4a",
          "blockTimestamp": "0x69aa6d54",
          "transactionHash": "0x77b6cd45d070396a06117832cc5106a7c1d520c026369a298ba88d74e35df339",
          "transactionIndex": "0xa5",
          "logIndex": "0x1b6",
          "removed": false
        },
        {
          "address": "0x76c7970daa3cc6303645686b8d573b1ad5ec6909",
          "topics": [
            "0x2b005b2b2dd86a46e800eb8759dd1c1d0274d7f87d24bf2e59086a870fdc034a",
            "0x000000000000000000000000f68d9e0faa751ad61e0ed70852798bf9d9c04bf7",
            "0x000000000000000000000000bb46678a1f6c527bd79ecfbf85332b8ae83ceaf1"
          ],
          "data": "0x000000000000000000000000000000000000000000034ad713085c9be5a00000",
          "blockHash": "0x630d5d80d6b622a8bad99b200cb15100ce23e4e3af9c9ed88cdfedbfe7cb5681",
          "blockNumber": "0x9e9b4a",
          "blockTimestamp": "0x69aa6d54",
          "transactionHash": "0x77b6cd45d070396a06117832cc5106a7c1d520c026369a298ba88d74e35df339",
          "transactionIndex": "0xa5",
          "logIndex": "0x1b7",
          "removed": false
        }
      ],
      "logsBloom": "0x00000000000000000000000000000000000000000000000000000000000000800000000000000000000000000000000002000000000000000000000000000000000000000000000000000008000000000000000000000000000000000000000000000000000000000000000000000000000000000000000000000010000000000100000008000001000000000002000000000000000000000000000000000000000000000000000080000000000000000c00000040000000000000008000000000000002000000000000000000000001000000008000000800000000000000000000000800000000000000000001000000000000000000000001000000000000",
      "type": "0x2",
      "transactionHash": "0x77b6cd45d070396a06117832cc5106a7c1d520c026369a298ba88d74e35df339",
      "transactionIndex": "0xa5",
      "blockHash": "0x630d5d80d6b622a8bad99b200cb15100ce23e4e3af9c9ed88cdfedbfe7cb5681",
      "blockNumber": "0x9e9b4a",
      "gasUsed": "0x1187e",
      "effectiveGasPrice": "0xf44e5",
      "from": "0xf68d9e0faa751ad61e0ed70852798bf9d9c04bf7",
      "to": "0x76c7970daa3cc6303645686b8d573b1ad5ec6909",
      "contractAddress": null
    }
  ],
  "libraries": [],
  "pending": [],
  "returns": {},
  "timestamp": 1772776788962,
  "chain": 11155111,
  "commit": "2a5e0a9"
}