{
  "transactions": [
    {
      "hash": "0xf37967413c025cf9341ac790e9ba3709ad23a51eb20bb3f3ad0b150bff43c18c",
      "transactionType": "CALL",
      "contractName": "MarginVault",
      "contractAddress": "0xee00b21292ba7564996a2b372a0ba69e70915b31",
      "function": "withdrawMargin(bytes32,address,uint256,address)",
      "arguments": [
        "0x000000000000000000000000474b4e7fd1a143edea6b77aa845f429d443e6410",
        "0xbb46678a1F6C527bD79eCFBF85332B8Ae83ceaf1",
        "3980200000000000000000000",
        "0x474B4E7FD1A143eDea6b77aa845F429D443E6410"
      ],
      "transaction": {
        "from": "0x474b4e7fd1a143edea6b77aa845f429d443e6410",
        "to": "0xee00b21292ba7564996a2b372a0ba69e70915b31",
        "gas": "0x1836c",
        "value": "0x0",
        "input": "0xe0a88ebd000000000000000000000000474b4e7fd1a143edea6b77aa845f429d443e6410000000000000000000000000bb46678a1f6c527bd79ecfbf85332b8ae83ceaf1000000000000000000000000000000000000000000034ad713085c9be5a00000000000000000000000000000474b4e7fd1a143edea6b77aa845f429d443e6410",
        "nonce": "0x53",
        "chainId": "0xaa36a7"
      },
      "additionalContracts": [],
      "isFixedGasLimit": false
    },
    {
      "hash": "0x8382690970aba8d2d621693880bf1c3fbf3dd3e9cc7b25857c6e7e3f13b4f16f",
      "transactionType": "CALL",
      "contractName": "MarginVault",
      "contractAddress": "0xee00b21292ba7564996a2b372a0ba69e70915b31",
      "function": "withdrawMargin(bytes32,address,uint256,address)",
      "arguments": [
        "0x000000000000000000000000f68d9e0faa751ad61e0ed70852798bf9d9c04bf7",
        "0xbb46678a1F6C527bD79eCFBF85332B8Ae83ceaf1",
        "3980200000000000000000000",
        "0xf68D9e0fAa751AD61e0ED70852798bF9D9C04bF7"
      ],
      "transaction": {
        "from": "0xf68d9e0faa751ad61e0ed70852798bf9d9c04bf7",
        "to": "0xee00b21292ba7564996a2b372a0ba69e70915b31",
        "gas": "0x1836c",
        "value": "0x0",
        "input": "0xe0a88ebd000000000000000000000000f68d9e0faa751ad61e0ed70852798bf9d9c04bf7000000000000000000000000bb46678a1f6c527bd79ecfbf85332b8ae83ceaf1000000000000000000000000000000000000000000034ad713085c9be5a00000000000000000000000000000f68d9e0faa751ad61e0ed70852798bf9d9c04bf7",
        "nonce": "0x51",
        "chainId": "0xaa36a7"
      },
      "additionalContracts": [],
      "isFixedGasLimit": false
    }
  ],
  "receipts": [
    {
      "status": "0x1",
      "cumulativeGasUsed": "0x1300696",
      "logs": [
        {
          "address": "0xbb46678a1f6c527bd79ecfbf85332b8ae83ceaf1",
          "topics": [
            "0xddf252ad1be2c89b69c2b068fc378daa952ba7f163c4a11628f55a4df523b3ef",
            "0x000000000000000000000000ee00b21292ba7564996a2b372a0ba69e70915b31",
            "0x000000000000000000000000474b4e7fd1a143edea6b77aa845f429d443e6410"
          ],
          "data": "0x000000000000000000000000000000000000000000034ad713085c9be5a00000",
          "blockHash": "0x0d35739fc748407a3dacc9555c34336b0001d3824cc7509c529a110fdc524867",
          "blockNumber": "0x9e9c7f",
          "blockTimestamp": "0x69aa7d5c",
          "transactionHash": "0xf37967413c025cf9341ac790e9ba3709ad23a51eb20bb3f3ad0b150bff43c18c",
          "transactionIndex": "0x85",
          "logIndex": "0x193",
          "removed": false
        },
        {
          "address": "0xee00b21292ba7564996a2b372a0ba69e70915b31",
          "topics": [
            "0x2b005b2b2dd86a46e800eb8759dd1c1d0274d7f87d24bf2e59086a870fdc034a",
            "0x000000000000000000000000474b4e7fd1a143edea6b77aa845f429d443e6410",
            "0x000000000000000000000000bb46678a1f6c527bd79ecfbf85332b8ae83ceaf1"
          ],
          "data": "0x000000000000000000000000000000000000000000034ad713085c9be5a00000",
          "blockHash": "0x0d35739fc748407a3dacc9555c34336b0001d3824cc7509c529a110fdc524867",
          "blockNumber": "0x9e9c7f",
          "blockTimestamp": "0x69aa7d5c",
          "transactionHash": "0xf37967413c025cf9341ac790e9ba3709ad23a51eb20bb3f3ad0b150bff43c18c",
          "transactionIndex": "0x85",
          "logIndex": "0x194",
          "removed": false
        }
      ],
      "logsBloom": "0x00000000000000001002000000000000008000000000000000000000000000000000000000000000000000000000000002000000000000000000000000000000000000000000000000000008000000000000000000000000000000020000000000400000000000000000000000000000000200000000000000000010000000000100000008000001000000000002000000000000000000000000000000000000000000000000000000000000000000000000000040000000000100000000000000000012000000000000000000000001000000008000000000000010000000000000000000000000000000000001000000000000000000000000000000000000",
      "type": "0x2",
      "transactionHash": "0xf37967413c025cf9341ac790e9ba3709ad23a51eb20bb3f3ad0b150bff43c18c",
      "transactionIndex": "0x85",
      "blockHash": "0x0d35739fc748407a3dacc9555c34336b0001d3824cc7509c529a110fdc524867",
      "blockNumber": "0x9e9c7f",
      "gasUsed": "0x1187e",
      "effectiveGasPrice": "0x285a93a",
      "from": "0x474b4e7fd1a143edea6b77aa845f429d443e6410",
      "to": "0xee00b21292ba7564996a2b372a0ba69e70915b31",
      "contractAddress": null
    },
    {
      "status": "0x1",
      "cumulativeGasUsed": "0x1307bf1",
      "logs": [
        {
          "address": "0xbb46678a1f6c527bd79ecfbf85332b8ae83ceaf1",
          "topics": [
            "0xddf252ad1be2c89b69c2b068fc378daa952ba7f163c4a11628f55a4df523b3ef",
            "0x000000000000000000000000ee00b21292ba7564996a2b372a0ba69e70915b31",
            "0x000000000000000000000000f68d9e0faa751ad61e0ed70852798bf9d9c04bf7"
          ],
          "data": "0x000000000000000000000000000000000000000000034ad713085c9be5a00000",
          "blockHash": "0xd03203d6af5da92944958aca89f60c6af73a71045abaaabc0e3bf7d701ae5c4e",
          "blockNumber": "0x9e9c81",
          "blockTimestamp": "0x69aa7d74",
          "transactionHash": "0x8382690970aba8d2d621693880bf1c3fbf3dd3e9cc7b25857c6e7e3f13b4f16f",
          "transactionIndex": "0x8e",
          "logIndex": "0x166",
          "removed": false
        },
        {
          "address": "0xee00b21292ba7564996a2b372a0ba69e70915b31",
          "topics": [
            "0x2b005b2b2dd86a46e800eb8759dd1c1d0274d7f87d24bf2e59086a870fdc034a",
            "0x000000000000000000000000f68d9e0faa751ad61e0ed70852798bf9d9c04bf7",
            "0x000000000000000000000000bb46678a1f6c527bd79ecfbf85332b8ae83ceaf1"
          ],
          "data": "0x000000000000000000000000000000000000000000034ad713085c9be5a00000",
          "blockHash": "0xd03203d6af5da92944958aca89f60c6af73a71045abaaabc0e3bf7d701ae5c4e",
          "blockNumber": "0x9e9c81",
          "blockTimestamp": "0x69aa7d74",
          "transactionHash": "0x8382690970aba8d2d621693880bf1c3fbf3dd3e9cc7b25857c6e7e3f13b4f16f",
          "transactionIndex": "0x8e",
          "logIndex": "0x167",
          "removed": false
        }
      ],
      "logsBloom": "0x00000000000000001002000000000000008000000000000000000000000000800000000000000000000000000000000002000000000000000000000000000000000000000000000000000008000000000000000000000000000000020000000000000000000000000000000000000000000200000000000000000010000000000100000008000001000000000002000000000000000000000000000000000000000000000000000000000000000000000400000040000000000000000000000000000012000000000000000000000001000000008000000000000000000000000000000000000000000000000001000000000000000000000000000000000000",
      "type": "0x2",
      "transactionHash": "0x8382690970aba8d2d621693880bf1c3fbf3dd3e9cc7b25857c6e7e3f13b4f16f",
      "transactionIndex": "0x8e",
      "blockHash": "0xd03203d6af5da92944958aca89f60c6af73a71045abaaabc0e3bf7d701ae5c4e",
      "blockNumber": "0x9e9c81",
      "gasUsed": "0x1187e",
      "effectiveGasPrice": "0x290b181",
      "from": "0xf68d9e0faa751ad61e0ed70852798bf9d9c04bf7",
      "to": "0xee00b21292ba7564996a2b372a0ba69e70915b31",
      "contractAddress": null
    }
  ],
  "libraries": [],
  "pending": [],
  "returns": {},
  "timestamp": 1772780918337,
  "chain": 11155111,
  "commit": "d835087"
}