{
  "transactions": [
    {
      "hash": "0x60760f1a565b8b797c223fe06d5183408a8ab6b64e5d37a6b481c5371fed2f0a",
      "transactionType": "CALL",
      "contractName": "MarginVault",
      "contractAddress": "0xceb1a3400b0ae5ca5edd975668fd55d9f1293238",
      "function": "withdrawMargin(bytes32,address,uint256,address)",
      "arguments": [
        "0x000000000000000000000000474b4e7fd1a143edea6b77aa845f429d443e6410",
        "0xbb46678a1F6C527bD79eCFBF85332B8Ae83ceaf1",
        "8000002000000000000000000",
        "0x474B4E7FD1A143eDea6b77aa845F429D443E6410"
      ],
      "transaction": {
        "from": "0x474b4e7fd1a143edea6b77aa845f429d443e6410",
        "to": "0xceb1a3400b0ae5ca5edd975668fd55d9f1293238",
        "gas": "0x16b81",
        "value": "0x0",
        "input": "0xe0a88ebd000000000000000000000000474b4e7fd1a143edea6b77aa845f429d443e6410000000000000000000000000bb46678a1f6c527bd79ecfbf85332b8ae83ceaf1000000000000000000000000000000000000000000069e10fa37d4d456c80000000000000000000000000000474b4e7fd1a143edea6b77aa845f429d443e6410",
        "nonce": "0x1d",
        "chainId": "0xaa36a7"
      },
      "additionalContracts": [],
      "isFixedGasLimit": false
    },
    {
      "hash": "0x8cc2586575fb3610f5083b80eaf167b4825016ea9d102406018896c00d75221d",
      "transactionType": "CALL",
      "contractName": "MarginVault",
      "contractAddress": "0xceb1a3400b0ae5ca5edd975668fd55d9f1293238",
      "function": "withdrawMargin(bytes32,address,uint256,address)",
      "arguments": [
        "0x000000000000000000000000f68d9e0faa751ad61e0ed70852798bf9d9c04bf7",
        "0xbb46678a1F6C527bD79eCFBF85332B8Ae83ceaf1",
        "7999998000000000000000000",
        "0xf68D9e0fAa751AD61e0ED70852798bF9D9C04bF7"
      ],
      "transaction": {
        "from": "0xf68d9e0faa751ad61e0ed70852798bf9d9c04bf7",
        "to": "0xceb1a3400b0ae5ca5edd975668fd55d9f1293238",
        "gas": "0x16c96",
        "value": "0x0",
        "input": "0xe0a88ebd000000000000000000000000f68d9e0faa751ad61e0ed70852798bf9d9c04bf7000000000000000000000000bb46678a1f6c527bd79ecfbf85332b8ae83ceaf1000000000000000000000000000000000000000000069e10c2b4fa05b9380000000000000000000000000000f68d9e0faa751ad61e0ed70852798bf9d9c04bf7",
        "nonce": "0x1b",
        "chainId": "0xaa36a7"
      },
      "additionalContracts": [],
      "isFixedGasLimit": false
    }
  ],
  "receipts": [
    {
      "status": "0x1",
      "cumulativeGasUsed": "0x8e2bb6",
      "logs": [
        {
          "address": "0xbb46678a1f6c527bd79ecfbf85332b8ae83ceaf1",
          "topics": [
            "0xddf252ad1be2c89b69c2b068fc378daa952ba7f163c4a11628f55a4df523b3ef",
            "0x000000000000000000000000ceb1a3400b0ae5ca5edd975668fd55d9f1293238",
            "0x000000000000000000000000474b4e7fd1a143edea6b77aa845f429d443e6410"
          ],
          "data": "0x000000000000000000000000000000000000000000069e10fa37d4d456c80000",
          "blockHash": "0xf061126e3177c12bea8b38ab18df999014ab10af5166ef478a81faf118c7d98f",
          "blockNumber": "0x9e348d",
          "blockTimestamp": "0x69a57008",
          "transactionHash": "0x60760f1a565b8b797c223fe06d5183408a8ab6b64e5d37a6b481c5371fed2f0a",
          "transactionIndex": "0x56",
          "logIndex": "0xae",
          "removed": false
        },
        {
          "address": "0xceb1a3400b0ae5ca5edd975668fd55d9f1293238",
          "topics": [
            "0x2b005b2b2dd86a46e800eb8759dd1c1d0274d7f87d24bf2e59086a870fdc034a",
            "0x000000000000000000000000474b4e7fd1a143edea6b77aa845f429d443e6410",
            "0x000000000000000000000000bb46678a1f6c527bd79ecfbf85332b8ae83ceaf1"
          ],
          "data": "0x000000000000000000000000000000000000000000069e10fa37d4d456c80000",
          "blockHash": "0xf061126e3177c12bea8b38ab18df999014ab10af5166ef478a81faf118c7d98f",
          "blockNumber": "0x9e348d",
          "blockTimestamp": "0x69a57008",
          "transactionHash": "0x60760f1a565b8b797c223fe06d5183408a8ab6b64e5d37a6b481c5371fed2f0a",
          "transactionIndex": "0x56",
          "logIndex": "0xaf",
          "removed": false
        }
      ],
      "logsBloom": "0x00000000000000000000000000000000000000000000000000000000000000000000000000000000000000000000000002000000000000000000000000000000000000000000000000000008000000000000000000000000000000000000000000400000000000000000000000000000000000000000000000000010000000000100000008000001000000000002000000000000000000000000000000000000000000000000000000000000002010000000000040000000002100000000000000000002000000000000000000000001000000008001000000000010000000000000000000000000000000000001000000000080000000000004000000000000",
      "type": "0x2",
      "transactionHash": "0x60760f1a565b8b797c223fe06d5183408a8ab6b64e5d37a6b481c5371fed2f0a",
      "transactionIndex": "0x56",
      "blockHash": "0xf061126e3177c12bea8b38ab18df999014ab10af5166ef478a81faf118c7d98f",
      "blockNumber": "0x9e348d",
      "gasUsed": "0x1072d",
      "effectiveGasPrice": "0xf424d",
      "from": "0x474b4e7fd1a143edea6b77aa845f429d443e6410",
      "to": "0xceb1a3400b0ae5ca5edd975668fd55d9f1293238",
      "contractAddress": null
    },
    {
      "status": "0x1",
      "cumulativeGasUsed": "0xf20a34",
      "logs": [
        {
          "address": "0xbb46678a1f6c527bd79ecfbf85332b8ae83ceaf1",
          "topics": [
            "0xddf252ad1be2c89b69c2b068fc378daa952ba7f163c4a11628f55a4df523b3ef",
            "0x000000000000000000000000ceb1a3400b0ae5ca5edd975668fd55d9f1293238",
            "0x000000000000000000000000f68d9e0faa751ad61e0ed70852798bf9d9c04bf7"
          ],
          "data": "0x000000000000000000000000000000000000000000069e10c2b4fa05b9380000",
          "blockHash": "0xdcd197695de3ebd0183a1a6089ca4b387a4352919397c983715c0a94cad0c5df",
          "blockNumber": "0x9e348e",
          "blockTimestamp": "0x69a57014",
          "transactionHash": "0x8cc2586575fb3610f5083b80eaf167b4825016ea9d102406018896c00d75221d",
          "transactionIndex": "0x92",
          "logIndex": "0x147",
          "removed": false
        },
        {
          "address": "0xceb1a3400b0ae5ca5edd975668fd55d9f1293238",
          "topics": [
            "0x2b005b2b2dd86a46e800eb8759dd1c1d0274d7f87d24bf2e59086a870fdc034a",
            "0x000000000000000000000000f68d9e0faa751ad61e0ed70852798bf9d9c04bf7",
            "0x000000000000000000000000bb46678a1f6c527bd79ecfbf85332b8ae83ceaf1"
          ],
          "data": "0x000000000000000000000000000000000000000000069e10c2b4fa05b9380000",
          "blockHash": "0xdcd197695de3ebd0183a1a6089ca4b387a4352919397c983715c0a94cad0c5df",
          "blockNumber": "0x9e348e",
          "blockTimestamp": "0x69a57014",
          "transactionHash": "0x8cc2586575fb3610f5083b80eaf167b4825016ea9d102406018896c00d75221d",
          "transactionIndex": "0x92",
          "logIndex": "0x148",
          "removed": false
        }
      ],
      "logsBloom": "0x00000000000000000000000000000000000000000000000000000000000000800000000000000000000000000000000002000000000000000000000000000000000000000000000000000008000000000000000000000000000000000000000000000000000000000000000000000000000000000000000000000010000000000100000008000001000000000002000000000000000000000000000000000000000000000000000000000000002010000400000040000000002000000000000000000002000000000000000000000001000000008001000000000000000000000000000000000000000000000001000000000080000000000004000000000000",
      "type": "0x2",
      "transactionHash": "0x8cc2586575fb3610f5083b80eaf167b4825016ea9d102406018896c00d75221d",
      "transactionIndex": "0x92",
      "blockHash": "0xdcd197695de3ebd0183a1a6089ca4b387a4352919397c983715c0a94cad0c5df",
      "blockNumber": "0x9e348e",
      "gasUsed": "0xf94b",
      "effectiveGasPrice": "0xf424d",
      "from": "0xf68d9e0faa751ad61e0ed70852798bf9d9c04bf7",
      "to": "0xceb1a3400b0ae5ca5edd975668fd55d9f1293238",
      "contractAddress": null
    }
  ],
  "libraries": [],
  "pending": [],
  "returns": {},
  "timestamp": 1772449813885,
  "chain": 11155111,
  "commit": "9a2376e"
}