{
  "transactions": [
    {
      "hash": "0x863a113b298796443a27e70dd163e4c2004f90c8c1e754c67b72ae9d6ba273fc",
      "transactionType": "CALL",
      "contractName": "MarginVault",
      "contractAddress": "0x2715ee693501d060ba817bfc9f97f32ea8660dd8",
      "function": "withdrawMargin(bytes32,address,uint256,address)",
      "arguments": [
        "0x000000000000000000000000474b4e7fd1a143edea6b77aa845f429d443e6410",
        "0xbb46678a1F6C527bD79eCFBF85332B8Ae83ceaf1",
        "3990200000000000000000000",
        "0x474B4E7FD1A143eDea6b77aa845F429D443E6410"
      ],
      "transaction": {
        "from": "0x474b4e7fd1a143edea6b77aa845f429d443e6410",
        "to": "0x2715ee693501d060ba817bfc9f97f32ea8660dd8",
        "gas": "0x1836c",
        "value": "0x0",
        "input": "0xe0a88ebd000000000000000000000000474b4e7fd1a143edea6b77aa845f429d443e6410000000000000000000000000bb46678a1f6c527bd79ecfbf85332b8ae83ceaf1000000000000000000000000000000000000000000034cf52ce9265697e00000000000000000000000000000474b4e7fd1a143edea6b77aa845f429d443e6410",
        "nonce": "0x5a",
        "chainId": "0xaa36a7"
      },
      "additionalContracts": [],
      "isFixedGasLimit": false
    },
    {
      "hash": "0x308de136e0bf1a69443638b372c59bb50c0dd944e114724dfd1b0783cd6b841d",
      "transactionType": "CALL",
      "contractName": "MarginVault",
      "contractAddress": "0x2715ee693501d060ba817bfc9f97f32ea8660dd8",
      "function": "withdrawMargin(bytes32,address,uint256,address)",
      "arguments": [
        "0x000000000000000000000000f68d9e0faa751ad61e0ed70852798bf9d9c04bf7",
        "0xbb46678a1F6C527bD79eCFBF85332B8Ae83ceaf1",
        "3970200000000000000000000",
        "0xf68D9e0fAa751AD61e0ED70852798bF9D9C04bF7"
      ],
      "transaction": {
        "from": "0xf68d9e0faa751ad61e0ed70852798bf9d9c04bf7",
        "to": "0x2715ee693501d060ba817bfc9f97f32ea8660dd8",
        "gas": "0x1836c",
        "value": "0x0",
        "input": "0xe0a88ebd000000000000000000000000f68d9e0faa751ad61e0ed70852798bf9d9c04bf7000000000000000000000000bb46678a1f6c527bd79ecfbf85332b8ae83ceaf10000000000000000000000000000000000000000000348b8f92792e133600000000000000000000000000000f68d9e0faa751ad61e0ed70852798bf9d9c04bf7",
        "nonce": "0x58",
        "chainId": "0xaa36a7"
      },
      "additionalContracts": [],
      "isFixedGasLimit": false
    }
  ],
  "receipts": [
    {
      "status": "0x1",
      "cumulativeGasUsed": "0x583179",
      "logs": [
        {
          "address": "0xbb46678a1f6c527bd79ecfbf85332b8ae83ceaf1",
          "topics": [
            "0xddf252ad1be2c89b69c2b068fc378daa952ba7f163c4a11628f55a4df523b3ef",
            "0x0000000000000000000000002715ee693501d060ba817bfc9f97f32ea8660dd8",
            "0x000000000000000000000000474b4e7fd1a143edea6b77aa845f429d443e6410"
          ],
          "data": "0x000000000000000000000000000000000000000000034cf52ce9265697e00000",
          "blockHash": "0xa3d2fdcab26c4106194245bf2a02988f99e4085106743bcc17da82dfe684e3d3",
          "blockNumber": "0x9ea004",
          "blockTimestamp": "0x69aaaa98",
          "transactionHash": "0x863a113b298796443a27e70dd163e4c2004f90c8c1e754c67b72ae9d6ba273fc",
          "transactionIndex": "0x3e",
          "logIndex": "0x50",
          "removed": false
        },
        {
          "address": "0x2715ee693501d060ba817bfc9f97f32ea8660dd8",
          "topics": [
            "0x2b005b2b2dd86a46e800eb8759dd1c1d0274d7f87d24bf2e59086a870fdc034a",
            "0x000000000000000000000000474b4e7fd1a143edea6b77aa845f429d443e6410",
            "0x000000000000000000000000bb46678a1f6c527bd79ecfbf85332b8ae83ceaf1"
          ],
          "data": "0x000000000000000000000000000000000000000000034cf52ce9265697e00000",
          "blockHash": "0xa3d2fdcab26c4106194245bf2a02988f99e4085106743bcc17da82dfe684e3d3",
          "blockNumber": "0x9ea004",
          "blockTimestamp": "0x69aaaa98",
          "transactionHash": "0x863a113b298796443a27e70dd163e4c2004f90c8c1e754c67b72ae9d6ba273fc",
          "transactionIndex": "0x3e",
          "logIndex": "0x51",
          "removed": false
        }
      ],
      "logsBloom": "0x0000000000000000000000000000000000000000000000000000000000000000000000000000000000000000000000000200000000000000000000000100000000000000000000000000000800000000000000000000000000000000000000000040010000000000000000000000000000000000000000000000001000000000010000000800000100000000000200000000000000000000000000000040000000000000000000000000000000000000000000004000000000010000000000000000000200000000000000000002000100000000800000000000001000000a000000000000000000000000000001000000000000000000000000000000000000",
      "type": "0x2",
      "transactionHash": "0x863a113b298796443a27e70dd163e4c2004f90c8c1e754c67b72ae9d6ba273fc",
      "transactionIndex": "0x3e",
      "blockHash": "0xa3d2fdcab26c4106194245bf2a02988f99e4085106743bcc17da82dfe684e3d3",
      "blockNumber": "0x9ea004",
      "gasUsed": "0x1187e",
      "effectiveGasPrice": "0x2a169d3",
      "from": "0x474b4e7fd1a143edea6b77aa845f429d443e6410",
      "to": "0x2715ee693501d060ba817bfc9f97f32ea8660dd8",
      "contractAddress": null
    },
    {
      "status": "0x1",
      "cumulativeGasUsed": "0x612941",
      "logs": [
        {
          "address": "0xbb46678a1f6c527bd79ecfbf85332b8ae83ceaf1",
          "topics": [
            "0xddf252ad1be2c89b69c2b068fc378daa952ba7f163c4a11628f55a4df523b3ef",
            "0x0000000000000000000000002715ee693501d060ba817bfc9f97f32ea8660dd8",
            "0x000000000000000000000000f68d9e0faa751ad61e0ed70852798bf9d9c04bf7"
          ],
          "data": "0x0000000000000000000000000000000000000000000348b8f92792e133600000",
          "blockHash": "0x4723bdecd1298ed0309cac2919c575e8c91e8cd75667f07017e456bec5ab7deb",
          "blockNumber": "0x9ea005",
          "blockTimestamp": "0x69aaaaa4",
          "transactionHash": "0x308de136e0bf1a69443638b372c59bb50c0dd944e114724dfd1b0783cd6b841d",
          "transactionIndex": "0x3a",
          "logIndex": "0x5f",
          "removed": false
        },
        {
          "address": "0x2715ee693501d060ba817bfc9f97f32ea8660dd8",
          "topics": [
            "0x2b005b2b2dd86a46e800eb8759dd1c1d0274d7f87d24bf2e59086a870fdc034a",
            "0x000000000000000000000000f68d9e0faa751ad61e0ed70852798bf9d9c04bf7",
            "0x000000000000000000000000bb46678a1f6c527bd79ecfbf85332b8ae83ceaf1"
          ],
          "data": "0x0000000000000000000000000000000000000000000348b8f92792e133600000",
          "blockHash": "0x4723bdecd1298ed0309cac2919c575e8c91e8cd75667f07017e456bec5ab7deb",
          "blockNumber": "0x9ea005",
          "blockTimestamp": "0x69aaaaa4",
          "transactionHash": "0x308de136e0bf1a69443638b372c59bb50c0dd944e114724dfd1b0783cd6b841d",
          "transactionIndex": "0x3a",
          "logIndex": "0x60",
          "removed": false
        }
      ],
      "logsBloom": "0x0000000000000000000000000000000000000000000000000000000000000080000000000000000000000000000000000200000000000000000000000100000000000000000000000000000800000000000000000000000000000000000000000000010000000000000000000000000000000000000000000000001000000000010000000800000100000000000200000000000000000000000000000040000000000000000000000000000000000000040000004000000000000000000000000000000200000000000000000002000100000000800000000000000000000a000000000000000000000000000001000000000000000000000000000000000000",
      "type": "0x2",
      "transactionHash": "0x308de136e0bf1a69443638b372c59bb50c0dd944e114724dfd1b0783cd6b841d",
      "transactionIndex": "0x3a",
      "blockHash": "0x4723bdecd1298ed0309cac2919c575e8c91e8cd75667f07017e456bec5ab7deb",
      "blockNumber": "0x9ea005",
      "gasUsed": "0x1187e",
      "effectiveGasPrice": "0x27a5be0",
      "from": "0xf68d9e0faa751ad61e0ed70852798bf9d9c04bf7",
      "to": "0x2715ee693501d060ba817bfc9f97f32ea8660dd8",
      "contractAddress": null
    }
  ],
  "libraries": [],
  "pending": [],
  "returns": {},
  "timestamp": 1772792484406,
  "chain": 11155111,
  "commit": "f48a2f7"
}