{
  "transactions": [
    {
      "hash": "0xb941f59665fb9035732550008a660b55dc0c24181a53c0fa7c0310db164c5dc7",
      "transactionType": "CALL",
      "contractName": "MarginVault",
      "contractAddress": "0x46581c3b8ae1b92f773d966b39531d8fb803d71f",
      "function": "withdrawMargin(bytes32,address,uint256,address)",
      "arguments": [
        "0x000000000000000000000000474b4e7fd1a143edea6b77aa845f429d443e6410",
        "0xbb46678a1F6C527bD79eCFBF85332B8Ae83ceaf1",
        "4030000000000000000000000",
        "0x474B4E7FD1A143eDea6b77aa845F429D443E6410"
      ],
      "transaction": {
        "from": "0x474b4e7fd1a143edea6b77aa845f429d443e6410",
        "to": "0x46581c3b8ae1b92f773d966b39531d8fb803d71f",
        "gas": "0x169a6",
        "value": "0x0",
        "input": "0xe0a88ebd000000000000000000000000474b4e7fd1a143edea6b77aa845f429d443e6410000000000000000000000000bb46678a1f6c527bd79ecfbf85332b8ae83ceaf1000000000000000000000000000000000000000000035562bcdd90e69ac00000000000000000000000000000474b4e7fd1a143edea6b77aa845f429d443e6410",
        "nonce": "0x2d",
        "chainId": "0xaa36a7"
      },
      "additionalContracts": [],
      "isFixedGasLimit": false
    },
    {
      "hash": "0xd1aa17cd1ed27772a1edbaa41c07dc2ff2f57b2d7fd0d70dfa31cd8b96f04a3f",
      "transactionType": "CALL",
      "contractName": "MarginVault",
      "contractAddress": "0x46581c3b8ae1b92f773d966b39531d8fb803d71f",
      "function": "withdrawMargin(bytes32,address,uint256,address)",
      "arguments": [
        "0x000000000000000000000000f68d9e0faa751ad61e0ed70852798bf9d9c04bf7",
        "0xbb46678a1F6C527bD79eCFBF85332B8Ae83ceaf1",
        "3970000000000000000000000",
        "0xf68D9e0fAa751AD61e0ED70852798bF9D9C04bF7"
      ],
      "transaction": {
        "from": "0xf68d9e0faa751ad61e0ed70852798bf9d9c04bf7",
        "to": "0x46581c3b8ae1b92f773d966b39531d8fb803d71f",
        "gas": "0x14fc0",
        "value": "0x0",
        "input": "0xe0a88ebd000000000000000000000000f68d9e0faa751ad61e0ed70852798bf9d9c04bf7000000000000000000000000bb46678a1f6c527bd79ecfbf85332b8ae83ceaf10000000000000000000000000000000000000000000348ae2198d6866d400000000000000000000000000000f68d9e0faa751ad61e0ed70852798bf9d9c04bf7",
        "nonce": "0x2b",
        "chainId": "0xaa36a7"
      },
      "additionalContracts": [],
      "isFixedGasLimit": false
    }
  ],
  "receipts": [
    {
      "status": "0x1",
      "cumulativeGasUsed": "0xb8898e",
      "logs": [
        {
          "address": "0xbb46678a1f6c527bd79ecfbf85332b8ae83ceaf1",
          "topics": [
            "0xddf252ad1be2c89b69c2b068fc378daa952ba7f163c4a11628f55a4df523b3ef",
            "0x00000000000000000000000046581c3b8ae1b92f773d966b39531d8fb803d71f",
            "0x000000000000000000000000474b4e7fd1a143edea6b77aa845f429d443e6410"
          ],
          "data": "0x000000000000000000000000000000000000000000035562bcdd90e69ac00000",
          "blockHash": "0x66c94558fd0d9cbf9a96809928a89e26cf36c0503204bb45f9abae68c57bb83c",
          "blockNumber": "0x9e4fdf",
          "blockTimestamp": "0x69a6c128",
          "transactionHash": "0xb941f59665fb9035732550008a660b55dc0c24181a53c0fa7c0310db164c5dc7",
          "transactionIndex": "0x50",
          "logIndex": "0x56",
          "removed": false
        },
        {
          "address": "0x46581c3b8ae1b92f773d966b39531d8fb803d71f",
          "topics": [
            "0x2b005b2b2dd86a46e800eb8759dd1c1d0274d7f87d24bf2e59086a870fdc034a",
            "0x000000000000000000000000474b4e7fd1a143edea6b77aa845f429d443e6410",
            "0x000000000000000000000000bb46678a1f6c527bd79ecfbf85332b8ae83ceaf1"
          ],
          "data": "0x000000000000000000000000000000000000000000035562bcdd90e69ac00000",
          "blockHash": "0x66c94558fd0d9cbf9a96809928a89e26cf36c0503204bb45f9abae68c57bb83c",
          "blockNumber": "0x9e4fdf",
          "blockTimestamp": "0x69a6c128",
          "transactionHash": "0xb941f59665fb9035732550008a660b55dc0c24181a53c0fa7c0310db164c5dc7",
          "transactionIndex": "0x50",
          "logIndex": "0x57",
          "removed": false
        }
      ],
      "logsBloom": "0x00000000000000000000000000000000000000000000000000000000000000000000000000000000000000000000000002000000000002000000000000000000000000000000000040000008000000000000000000400000000000000000000000400000000000000000000000080000000000000000000000000010000000000100000008000001000000000002000000000000000000000000000000000000000000000000000000400000100000000000000040000000000100000000000000000002000000000000000000000001000000008000000000000010000000000000000000000000000000000001000000000000000000000000000000000000",
      "type": "0x2",
      "transactionHash": "0xb941f59665fb9035732550008a660b55dc0c24181a53c0fa7c0310db164c5dc7",
      "transactionIndex": "0x50",
      "blockHash": "0x66c94558fd0d9cbf9a96809928a89e26cf36c0503204bb45f9abae68c57bb83c",
      "blockNumber": "0x9e4fdf",
      "gasUsed": "0x105d4",
      "effectiveGasPrice": "0x10059b",
      "from": "0x474b4e7fd1a143edea6b77aa845f429d443e6410",
      "to": "0x46581c3b8ae1b92f773d966b39531d8fb803d71f",
      "contractAddress": null
    },
    {
      "status": "0x1",
      "cumulativeGasUsed": "0x780a4c",
      "logs": [
        {
          "address": "0xbb46678a1f6c527bd79ecfbf85332b8ae83ceaf1",
          "topics": [
            "0xddf252ad1be2c89b69c2b068fc378daa952ba7f163c4a11628f55a4df523b3ef",
            "0x00000000000000000000000046581c3b8ae1b92f773d966b39531d8fb803d71f",
            "0x000000000000000000000000f68d9e0faa751ad61e0ed70852798bf9d9c04bf7"
          ],
          "data": "0x0000000000000000000000000000000000000000000348ae2198d6866d400000",
          "blockHash": "0x2920d25a32f3457457922432374981b79158b736d33790800cedc7169e852054",
          "blockNumber": "0x9e4fe0",
          "blockTimestamp": "0x69a6c134",
          "transactionHash": "0xd1aa17cd1ed27772a1edbaa41c07dc2ff2f57b2d7fd0d70dfa31cd8b96f04a3f",
          "transactionIndex": "0x42",
          "logIndex": "0xb4",
          "removed": false
        },
        {
          "address": "0x46581c3b8ae1b92f773d966b39531d8fb803d71f",
          "topics": [
            "0x2b005b2b2dd86a46e800eb8759dd1c1d0274d7f87d24bf2e59086a870fdc034a",
            "0x000000000000000000000000f68d9e0faa751ad61e0ed70852798bf9d9c04bf7",
            "0x000000000000000000000000bb46678a1f6c527bd79ecfbf85332b8ae83ceaf1"
          ],
          "data": "0x0000000000000000000000000000000000000000000348ae2198d6866d400000",
          "blockHash": "0x2920d25a32f3457457922432374981b79158b736d33790800cedc7169e852054",
          "blockNumber": "0x9e4fe0",
          "blockTimestamp": "0x69a6c134",
          "transactionHash": "0xd1aa17cd1ed27772a1edbaa41c07dc2ff2f57b2d7fd0d70dfa31cd8b96f04a3f",
          "transactionIndex": "0x42",
          "logIndex": "0xb5",
          "removed": false
        }
      ],
      "logsBloom": "0x00000000000000000000000000000000000000000000000000000000000000800000000000000000000000000000000002000000000002000000000000000000000000000000000040000008000000000000000000400000000000000000000000000000000000000000000000080000000000000000000000000010000000000100000008000001000000000002000000000000000000000000000000000000000000000000000000400000100000000400000040000000000000000000000000000002000000000000000000000001000000008000000000000000000000000000000000000000000000000001000000000000000000000000000000000000",
      "type": "0x2",
      "transactionHash": "0xd1aa17cd1ed27772a1edbaa41c07dc2ff2f57b2d7fd0d70dfa31cd8b96f04a3f",
      "transactionIndex": "0x42",
      "blockHash": "0x2920d25a32f3457457922432374981b79158b736d33790800cedc7169e852054",
      "blockNumber": "0x9e4fe0",
      "gasUsed": "0xf314",
      "effectiveGasPrice": "0x10059b",
      "from": "0xf68d9e0faa751ad61e0ed70852798bf9d9c04bf7",
      "to": "0x46581c3b8ae1b92f773d966b39531d8fb803d71f",
      "contractAddress": null
    }
  ],
  "libraries": [],
  "pending": [],
  "returns": {},
  "timestamp": 1772536116542,
  "chain": 11155111,
  "commit": "b8160eb"
}