{
  "transactions": [
    {
      "hash": "0x701587322715739e907c209fc3098d125862255911cdb62d8aeb5c16e6ce9451",
      "transactionType": "CALL",
      "contractName": "MarginVault",
      "contractAddress": "0x5611665b9c65c127f3b063d821229694b06085cd",
      "function": "withdrawMargin(bytes32,address,uint256,address)",
      "arguments": [
        "0x000000000000000000000000474b4e7fd1a143edea6b77aa845f429d443e6410",
        "0xbb46678a1F6C527bD79eCFBF85332B8Ae83ceaf1",
        "3985200000000000000000000",
        "0x474B4E7FD1A143eDea6b77aa845F429D443E6410"
      ],
      "transaction": {
        "from": "0x474b4e7fd1a143edea6b77aa845f429d443e6410",
        "to": "0x5611665b9c65c127f3b063d821229694b06085cd",
        "gas": "0x1836c",
        "value": "0x0",
        "input": "0xe0a88ebd000000000000000000000000474b4e7fd1a143edea6b77aa845f429d443e6410000000000000000000000000bb46678a1f6c527bd79ecfbf85332b8ae83ceaf1000000000000000000000000000000000000000000034be61ff8c1793ec00000000000000000000000000000474b4e7fd1a143edea6b77aa845f429d443e6410",
        "nonce": "0x66",
        "chainId": "0xaa36a7"
      },
      "additionalContracts": [],
      "isFixedGasLimit": false
    },
    {
      "hash": "0x5b0829fae16bc375cb3ad457b590aa763cf4a9ae6856363e0022b324f82be273",
      "transactionType": "CALL",
      "contractName": "MarginVault",
      "contractAddress": "0x5611665b9c65c127f3b063d821229694b06085cd",
      "function": "withdrawMargin(bytes32,address,uint256,address)",
      "arguments": [
        "0x000000000000000000000000f68d9e0faa751ad61e0ed70852798bf9d9c04bf7",
        "0xbb46678a1F6C527bD79eCFBF85332B8Ae83ceaf1",
        "3975200000000000000000000",
        "0xf68D9e0fAa751AD61e0ED70852798bF9D9C04bF7"
      ],
      "transaction": {
        "from": "0xf68d9e0faa751ad61e0ed70852798bf9d9c04bf7",
        "to": "0x5611665b9c65c127f3b063d821229694b06085cd",
        "gas": "0x1836c",
        "value": "0x0",
        "input": "0xe0a88ebd000000000000000000000000f68d9e0faa751ad61e0ed70852798bf9d9c04bf7000000000000000000000000bb46678a1f6c527bd79ecfbf85332b8ae83ceaf10000000000000000000000000000000000000000000349c80617f7be8c800000000000000000000000000000f68d9e0faa751ad61e0ed70852798bf9d9c04bf7",
        "nonce": "0x63",
        "chainId": "0xaa36a7"
      },
      "additionalContracts": [],
      "isFixedGasLimit": false
    }
  ],
  "receipts": [
    {
      "status": "0x1",
      "cumulativeGasUsed": "0xec5bd0",
      "logs": [
        {
          "address": "0xbb46678a1f6c527bd79ecfbf85332b8ae83ceaf1",
          "topics": [
            "0xddf252ad1be2c89b69c2b068fc378daa952ba7f163c4a11628f55a4df523b3ef",
            "0x0000000000000000000000005611665b9c65c127f3b063d821229694b06085cd",
            "0x000000000000000000000000474b4e7fd1a143edea6b77aa845f429d443e6410"
          ],
          "data": "0x000000000000000000000000000000000000000000034be61ff8c1793ec00000",
          "blockHash": "0xccd735ab13f8f66e04acffd3bdff11a6b9cd49e6cc00b059a75927c2d113b67a",
          "blockNumber": "0x9ea432",
          "blockTimestamp": "0x69aae344",
          "transactionHash": "0x701587322715739e907c209fc3098d125862255911cdb62d8aeb5c16e6ce9451",
          "transactionIndex": "0x71",
          "logIndex": "0x166",
          "removed": false
        },
        {
          "address": "0x5611665b9c65c127f3b063d821229694b06085cd",
          "topics": [
            "0x2b005b2b2dd86a46e800eb8759dd1c1d0274d7f87d24bf2e59086a870fdc034a",
            "0x000000000000000000000000474b4e7fd1a143edea6b77aa845f429d443e6410",
            "0x000000000000000000000000bb46678a1f6c527bd79ecfbf85332b8ae83ceaf1"
          ],
          "data": "0x000000000000000000000000000000000000000000034be61ff8c1793ec00000",
          "blockHash": "0xccd735ab13f8f66e04acffd3bdff11a6b9cd49e6cc00b059a75927c2d113b67a",
          "blockNumber": "0x9ea432",
          "blockTimestamp": "0x69aae344",
          "transactionHash": "0x701587322715739e907c209fc3098d125862255911cdb62d8aeb5c16e6ce9451",
          "transactionIndex": "0x71",
          "logIndex": "0x167",
          "removed": false
        }
      ],
      "logsBloom": "0x00000000000000000000000000000000000000000000000000000000000000000000000002000000000000000000000002000000000000000000000000000000000000000000000000000008000000000000000000000000000800020000000000400000000000000000000000000000000080040000000000000010000000000120000008000001000000000002000000000000000000000000000000000000000000000000000000000000000000000000000040000000000100000000000000000002000000000000000000000001000000008000000000000010000000000000000000000000000000000001000000000000000000000000000000000000",
      "type": "0x2",
      "transactionHash": "0x701587322715739e907c209fc3098d125862255911cdb62d8aeb5c16e6ce9451",
      "transactionIndex": "0x71",
      "blockHash": "0xccd735ab13f8f66e04acffd3bdff11a6b9cd49e6cc00b059a75927c2d113b67a",
      "blockNumber": "0x9ea432",
      "gasUsed": "0x1187e",
      "effectiveGasPrice": "0x2622311",
      "from": "0x474b4e7fd1a143edea6b77aa845f429d443e6410",
      "to": "0x5611665b9c65c127f3b063d821229694b06085cd",
      "contractAddress": null
    },
    {
      "status": "0x1",
      "cumulativeGasUsed": "0x2b1f750",
      "logs": [
        {
          "address": "0xbb46678a1f6c527bd79ecfbf85332b8ae83ceaf1",
          "topics": [
            "0xddf252ad1be2c89b69c2b068fc378daa952ba7f163c4a11628f55a4df523b3ef",
            "0x0000000000000000000000005611665b9c65c127f3b063d821229694b06085cd",
            "0x000000000000000000000000f68d9e0faa751ad61e0ed70852798bf9d9c04bf7"
          ],
          "data": "0x0000000000000000000000000000000000000000000349c80617f7be8c800000",
          "blockHash": "0x906ce1897471813febefa0c1c18029c79bce8f2fbefae66d0ec94ee466522245",
          "blockNumber": "0x9ea433",
          "blockTimestamp": "0x69aae368",
          "transactionHash": "0x5b0829fae16bc375cb3ad457b590aa763cf4a9ae6856363e0022b324f82be273",
          "transactionIndex": "0x114",
          "logIndex": "0x376",
          "removed": false
        },
        {
          "address": "0x5611665b9c65c127f3b063d821229694b06085cd",
          "topics": [
            "0x2b005b2b2dd86a46e800eb8759dd1c1d0274d7f87d24bf2e59086a870fdc034a",
            "0x000000000000000000000000f68d9e0faa751ad61e0ed70852798bf9d9c04bf7",
            "0x000000000000000000000000bb46678a1f6c527bd79ecfbf85332b8ae83ceaf1"
          ],
          "data": "0x0000000000000000000000000000000000000000000349c80617f7be8c800000",
          "blockHash": "0x906ce1897471813febefa0c1c18029c79bce8f2fbefae66d0ec94ee466522245",
          "blockNumber": "0x9ea433",
          "blockTimestamp": "0x69aae368",
          "transactionHash": "0x5b0829fae16bc375cb3ad457b590aa763cf4a9ae6856363e0022b324f82be273",
          "transactionIndex": "0x114",
          "logIndex": "0x377",
          "removed": false
        }
      ],
      "logsBloom": "0x00000000000000000000000000000000000000000000000000000000000000800000000002000000000000000000000002000000000000000000000000000000000000000000000000000008000000000000000000000000000800020000000000000000000000000000000000000000000080040000000000000010000000000120000008000001000000000002000000000000000000000000000000000000000000000000000000000000000000000400000040000000000000000000000000000002000000000000000000000001000000008000000000000000000000000000000000000000000000000001000000000000000000000000000000000000",
      "type": "0x2",
      "transactionHash": "0x5b0829fae16bc375cb3ad457b590aa763cf4a9ae6856363e0022b324f82be273",
      "transactionIndex": "0x114",
      "blockHash": "0x906ce1897471813febefa0c1c18029c79bce8f2fbefae66d0ec94ee466522245",
      "blockNumber": "0x9ea433",
      "gasUsed": "0x1187e",
      "effectiveGasPrice": "0x26189c8",
      "from": "0xf68d9e0faa751ad61e0ed70852798bf9d9c04bf7",
      "to": "0x5611665b9c65c127f3b063d821229694b06085cd",
      "contractAddress": null
    }
  ],
  "libraries": [],
  "pending": [],
  "returns": {},
  "timestamp": 1772807017100,
  "chain": 11155111,
  "commit": "abef103"
}